:100000000C942D030C94C11E0C94EE1E0C949F16A0
:100010000C949F160C949F160C9455030C94550346
:100020000C9455030C9455030C9455030C945503F0
:100030000C9455030C9455030C9455030C945503E0
:100040000C941B1F0C9455030C943C210C947F21A1
:100050000C9455030C9455030C9455030C945503C0
:100060000C949E290C945503281B3B1B551B681BA5
:100070007F1BAB1BB31BBB1BC31BCA1BCA1BCA1BEF
:10008000CA1BCA1BCA1BCA1BCA1BCA1BCA1BCA1B48
:10009000CA1BCA1BCA1BCA1BCA1BCA1BCA1BCA1B38
:1000A000CA1BCA1BCA1BCA1B281B341B3B1B551B64
:1000B000681B7F1B921B9A1BA21B084AD73B3BCE97
:1000C000016E84BCBFFDC12F3D6C74319ABD568357
:1000D0003DDA3D00C77F11BED9E4BB4C3E916BAA0F
:1000E000AABE000000803F05A84CCDB2D44EB9385E
:1000F00036A9020C50B9918688083CA6AAAA2ABE45
:10010000000000803F002075532F68002075532F9A
:100110006800206D532F68002043504D006B435002
:100120004D002530356C642E2530346C640025304C
:10013000346C642E2530346C640024504D544B31A3
:1001400030342A3337004E4F205344204341524429
:100150002F20475053207265736574002530326438
:100160002F2530326420253032643A253032643A0B
:10017000253032640057726F6E67206D6F646520A2
:10018000210075530044733D0075532F6820004DC6
:10019000783D0042712F6D32006B42712F6D32003D
:1001A0006D42712F6D320043504D20006B43504D16
:1001B00020002D2D006B6D002042712F6D3200202C
:1001C0007553762F68005E004E6F20475053002510
:1001D00030326468253032646D002A2558002A3098
:1001E0002558002425732C253034642C25303264A6
:1001F0002D253032642D2530326454253032643A56
:10020000253032643A253032645A2C256C642C2512
:100210006C642C256C642C25632C25732C25632C95
:1002200025732C25632C25732C25632C25642C2504
:100230006C64002530346425303264253032642EFD
:100240006C6F67006E616E6F0A2320646561647471
:10025000696D653D6F6E0A00312E342E3300232008
:100260004E4557204C4F470A2320666F726D6174CC
:100270003D0024504D544B3330312C322A32450D41
:100280000A0024504D544B3331332C312A32450D62
:100290000A0024504D544B3232302C313030302A49
:1002A00031460024504D544B3331342C302C312CFA
:1002B000302C312C302C302C302C302C302C302C5D
:1002C000302C302C302C302C302C302C302C302C4E
:1002D000302A3238002325303464004D6F646520A5
:1002E0003D25640043504D00416C61726D3D2564B5
:1002F00000252500426174746572793D20253032F5
:100300006400476569676965204E616E6F202573DB
:1003100000726561642025732030202564004A50F6
:100320004E00000000070002010000030406000068
:1003300000000000000001020408102040800102BB
:10034000040810200102040810200404040404041A
:100350000404020202020202030303030303000077
:1003600000002300260029000000000025002800CE
:100370002B0000000000240027002A0000000000DD
:100380000000005F00000007000700147F147F14C6
:10039000242A7F2A1223130864623649562050000B
:1003A00008070300001C2241000041221C002A1CF7
:1003B0007F1C2A08083E08080080703000080808E2
:1003C0000808000060600020100804023E51494502
:1003D0003E00427F400072494949462141494D3320
:1003E0001814127F1027454545393C4A4949314187
:1003F000211109073649494936464949291E000055
:1004000014000000403400000008142241141414A9
:100410001414004122140802015909063E415D5995
:100420004E7C1211127C7F494949363E414141229E
:100430007F4141413E7F494949417F090909013EC8
:10044000414151737F0808087F00417F41002040EF
:10045000413F017F081422417F404040407F021C01
:10046000027F7F0408107F3E4141413E7F09090918
:10047000063E4151215E7F091929462649494932E4
:1004800003017F01033F4040403F1F2040201F3FAA
:100490004038403F6314081463030478040361592F
:1004A000494D43007F414141020408102000414171
:1004B000417F04020102044040404040000307081D
:1004C0000020545478407F28444438384444442819
:1004D000384444287F385454541800087E090218C0
:1004E000A4A49C787F0804047800447D4000204048
:1004F000403D007F1028440000417F40007C04788C
:1005000004787C080404783844444438FC182424D3
:100510001818242418FC7C08040408485454542453
:1005200004043F44243C4040207C1C2040201C3CD0
:100530004030403C44281028444C9090907C4464C7
:10054000544C44000836410000007700000041365A
:100550000800020102040200407A10F35A00A0725F
:100560004E18090010A5D4E80000E87648170000EE
:10057000E40B54020000CA9A3B000000E1F50500BC
:100580000080969800000040420F000000A0860105
:10059000000000102700000000E8030000000064D5
:1005A00000000000000A0000000000010000000040
:1005B000002C76D888DC674F0823DFC1DFAE59E115
:1005C000B1B796E5E3E453C63AE651997696E8E684
:1005D000C28426EB898C9B62ED407C6FFCEFBC9C57
:1005E0009F40F2BAA56FA5F490055A2AF75C936B69
:1005F0006CF9676DC11BFCE0E40D47FEF520E6B524
:1006000000D0ED902E0300943577050080841E08FD
:100610000000204E0A000000C80C333333330F981B
:100620006E12831141EF8D2114893BE65516CFFEE2
:10063000E6DB18D1844B381BF77C1D901DA4BBE46E
:1006400024203284725E228100C9F124ECA1E53DB0
:1006500027004F053522FF28840511241FBECFEF48
:10066000D8E0DEBFCDBF13E0A0E0B1E0E6E3F9E6FD
:1006700002C005900D92AC3FB107D9F728E0ACEF6E
:10068000B3E001C01D92AF33B207E1F716E0C8E551
:10069000D6E004C02297FE010E94882EC235D10701
:1006A000C9F70E94F5220C948E340C9400008EE061
:1006B0000E94F81FBC01882777FD8095982F0E9423
:1006C000342C20E030E040E85AE30E944D2D20E039
:1006D00030E040E251E40E944D2D24EB35EC4AEC31
:1006E0005DE30E94992B0895A0E0B0E0EAE7F3E013
:1006F0000C94A62E982E6A017B01B22EA32ECB015C
:10070000BA0120EA36E841E050E00E94452EE901B6
:10071000142F052F60EA76E881E090E00E94212EF8
:10072000A7019601261B370B480B590BCA01B901CB
:100730002AE030E040E050E00E94452E9920D1F0C0
:100740005F934F933F932F930F931F93DF93CF9319
:100750008EE291E09F938F93AF92BF920E94882F79
:100760004DB75EB7445F5F4F0FB6F8945EBF0FBEE4
:100770004DBF18C05F934F933F932F930F931F93D9
:10078000DF93CF9382E291E09F938F93AF92BF92DA
:100790000E94882F8DB79EB70C960FB6F8949EBF17
:1007A0000FBE8DBFCDB7DEB7EBE00C94C22E8F929B
:1007B0009F92AF92BF92CF92DF92EF92FF920E94F0
:1007C000322C20E836E948E15BE40E94992B4B018A
:1007D0005C010E94012C882777FD8095982F0E944C
:1007E000342C6B017C019B01AC01C501B4010E945A
:1007F000CB2A20E030E040E752E40E94992B20E031
:1008000030E048EC52E40E944D2DA70196010E9471
:10081000CC2AFF90EF90DF90CF90BF90AF909F9049
:100820008F9008954F925F926F927F928F929F92D6
:10083000AF92BF92EF92FF920F931F932B013C0157
:1008400049015A01A70160E070E08CE096E00E9447
:100850004C2562E08CE096E00E94522580910701D1
:10086000863549F441E050E060E070E08CE096E0CD
:100870000E945E2506C061E070E08CE096E00E9478
:10088000582580E2E8E0F5E0DF011D928A95E9F75E
:100890008091310490913204A0E0B0E08815990570
:1008A000AA05BB0540F4ACE0B0E0A30192010E94B0
:1008B0008C2E4B015C01C501B401002309F447C033
:1008C000B0E18B16B7E29B06A104B10440F10E948F
:1008D000322C20E030E04AE754E40E94992B08E2F1
:1008E00015E023E044E00E94F92E43E050E0B80117
:1008F00088E095E00E944F2FE8E0F5E001900020AD
:10090000E9F7329780818E3209F4108268E075E051
:100910008CE096E00E94C4228DE191E0A1C00E948B
:10092000322C08E215E020E040E00E94F92EB801E8
:100930008CE096E00E94C42288E191E09F938F931F
:10094000C8019F930F930E94882FB80193C00E9403
:10095000322C2091290430912A0440912B0450918B
:100960002C040E94992B4B015C0120E030E04AE707
:1009700054E40E94422D87FD28C020E030E04AE781
:1009800054E4C501B4010E94992B08E215E022E06D
:1009900044E00E94F92E45E050E0B80188E095E07F
:1009A0000E944F2FE8E0F5E001900020E9F7329730
:1009B00080818E3209F4108268E075E08CE096E068
:1009C0000E94C42282E191E04BC020E030E040E28E
:1009D00051E4C501B4010E94422D08E215E087FDF3
:1009E00020C022E044E0C501B4010E94F92E45E098
:1009F00050E0B80188E095E00E944F2FE8E0F5E074
:100A000001900020E9F7329780818E3209F410823C
:100A100068E075E08CE096E00E94C4228CE091E0F2
:100A20001FC023E044E0C501B4010E94F92E46E056
:100A300050E0B80188E095E00E944F2FE8E0F5E033
:100A400001900020E9F7329780818E3209F41082FC
:100A500068E075E08CE096E00E94C42286E091E0B8
:100A60009F938F9388E295E09F938F930E94882FA6
:100A700068E275E08CE096E00E94C4220F900F902F
:100A80000F900F901F910F91FF90EF90BF90AF903C
:100A90009F908F907F906F905F904F900895EF920E
:100AA000FF920F931F938CE0E82E0DE02BE04AE0BD
:100AB00069E08CE096E00E940B2620E045E066E0CD
:100AC00089EE94E00E94731761E084E794E00E944D
:100AD000321820E047E068E085E594E00E94731753
:100AE00094E6E92EF12C08E415E028E034E040E13A
:100AF00054E069EE74E08EEF93E00E9462121F9161
:100B00000F91FF90EF90089585E594E00E941917EA
:100B100089EE94E00E94191708951F93CF93DF93F5
:100B2000182FC0E0D0E0219689EE94E00E9448168C
:100B3000892B51F46AE070E080E090E00E94941FFD
:100B4000C83CD10581F712C089EE94E00E94BC1523
:100B5000112319F02EE330E002C02CE330E08217BD
:100B6000930741F781E0C83CD10509F480E0DF91AB
:100B7000CF911F9108950F931F93CF93DF9362E05E
:100B800083E00E943E2061E082E10E943E2060E01E
:100B900083E10E943E2040E855E260E070E084ED91
:100BA00096E00E94BA218EEF93E00E94B51240E8D1
:100BB00055E260E070E089EE94E00E94A31761E0E6
:100BC00084E00E943E2089EE94E00E94761660E068
:100BD00084E00E94772064E670E080E090E00E946C
:100BE000941F61E084E00E94772081E00E948D05DF
:100BF000811104C081E08093F20503C081E08093FD
:100C0000E8048091E804882331F06AE073E08EEF15
:100C100093E00E94381348E853E160E070E080E020
:100C200090E00E94E6110E94011240E855E260E067
:100C300070E085E594E00E94A31785E594E00E94AA
:100C40007616C8E4D5E014E6FE01812F11928A954C
:100C5000E9F783EA92E09F938F93DF93CF930E940B
:100C6000882FBE0185E594E00E94E322FE01812FDA
:100C700011928A95E9F782E992E09F938F93DF932F
:100C8000CF930E94882FBE0185E594E00E94E32265
:100C9000FE01812F11928A95E9F782E892E09F93F5
:100CA0008F93DF93CF930E94882FBE0185E594E058
:100CB0000E94E322FE0111921A95E9F782E792E081
:100CC0009F938F93DF93CF930E94882FBE0185E57A
:100CD00094E00E94E322C8E0D4E0EDB7FEB770963E
:100CE0000FB6F894FEBF0FBEEDBF68EC70E08B014D
:100CF0000F5F1F4F8EE797E00E9402238993003D0C
:100D0000110511F0B801F3CF83E00E94F51F4CE309
:100D100062E08CE096E00E948C268CE096E00E94D7
:100D20009F2768EE73E080E090E00E94941F8CE0C3
:100D300096E00E941C2661E070E08CE096E00E9444
:100D4000582561E08CE096E00E94522587E193E00F
:100D50009F938F9382E093E09F938F93C8E2D5E0B7
:100D6000DF93CF930E94882F09900020E9F7C852A3
:100D7000D54026E02C9FC0012D9F900D112460E8E6
:100D800070E0681B790B7695679540E050E08CE049
:100D900096E00E944C250F900F900F900F900F90AF
:100DA0000F9080911404811103C06DE173E002C0C3
:100DB0006FE173E08CE096E00E94C42268E275E087
:100DC0008CE096E00E94C42248E050E068E070E0C9
:100DD0008CE096E00E944C250E94570320E030E012
:100DE00040EF51E40E94CB2A20E030E048E451E497
:100DF0000E944D2D0E94012C6C5E7F4F77FD06C036
:100E0000653671052CF064E670E002C061E070E0C8
:100E10007F936F9384EF92E09F938F93C8E2D5E026
:100E2000DF93CF930E94882FBE018CE096E00E9452
:100E3000C42281EF92E09F938F93DF93CF930E9420
:100E4000882FBE018CE096E00E94C42240E150E071
:100E500067E370E08CE096E00E944C2580913204BC
:100E60008F93809131048F9388EE92E09F938F93BC
:100E7000DF93CF930E94882FBE018CE096E00E9402
:100E8000C42284EE92E09F938F93DF93CF930E94CE
:100E9000882FBE018CE096E00E94C42240E150E021
:100EA00068E070E08CE096E00E944C2580913C0464
:100EB0001F928F938BED92E09F938F93DF93CF934D
:100EC0000E94882FBE018CE096E00E94C42261E05F
:100ED0008CE096E00E94522548E050E065E570E025
:100EE0008CE096E00E944C25809127048F9380919E
:100EF00026048F9385ED92E09F938F93DF93CF939A
:100F00000E94882FEDB7FEB7B0960FB6F894FEBFDB
:100F10000FBEEDBFBE018CE096E00E94C42261E0EE
:100F20008CE096E00E945225809116048823F9F007
:100F3000E6E1F4E001900020E9F7E751F44026E013
:100F40002E9FC0012F9F900D112460E870E0681B58
:100F5000790B7695679548E150E08CE096E00E9429
:100F60004C2566E174E08CE096E00E94C4228CE09F
:100F700096E00E949F2768E273E280E090E00E9482
:100F8000941FDF91CF911F910F910895A4E2B0E0DB
:100F9000ECECF7E00C949F2E83E10E94F81F853F54
:100FA00091401CF01092140407C081E08093140457
:100FB00060E082E10E9477200E94570320E030E049
:100FC00040EF51E40E94CB2A0E94012C161617060E
:100FD0004CF068EE73E080E090E00E94941F81E0A6
:100FE0008093140485E594E00E9476160E94651FA4
:100FF0006B017C010E94651F97018601061B170B80
:10100000280B390BC616D706E806F90618F0D901E1
:10101000C80106C0D901C80180959095A095B095EA
:10102000883E9340A105B105A0F40E941412892BBB
:1010300081F485E594E00E944816892BD9F285E574
:1010400094E00E94BC15682F84E794E00E94D31BB3
:10105000F0CF0E941412892B11F40C94CE110E942F
:1010600059126D8B7E8B8F8B988F0E94011280910D
:10107000BE059091BF05A091C005B091C105FC01CE
:10108000EE0FFF1FEE0FFF1FEE53FA4F2D893E8923
:101090004F89588D2083318342835383BC01CD0116
:1010A0006F5F7F4F8F4F9F4F2CE030E040E050E06C
:1010B0000E94452E6093BE057093BF058093C005C6
:1010C0009093C105E2ECF5E060E070E0CB010191A6
:1010D000119121913191600F711F821F931F35E093
:1010E000E23FF307A1F70E94322C6B017C0122EB57
:1010F00035EC4CEF55E30E944D2D9B01AC0160E0B7
:1011000070E080E89FE30E94CB2A9B01AC01C701FD
:10111000B6010E94992B0E94062C2B013C01809164
:10112000BA059091BB05A091BC05B091BD052D8974
:101130003E894F89588D820F931FA41FB51F80933E
:10114000BA059093BB05A093BC05B093BD058091F3
:10115000B2059091B305A091B405B091B50505967F
:10116000A11DB11D8093B2059093B305A093B40562
:10117000B093B5058091B6059091B705A091B805DB
:10118000B091B90584159505A605B70540F44092C0
:10119000B6055092B7056092B8057092B905809176
:1011A000080490910904A0910A04B0910B042D89C0
:1011B0003E894F89588D820F931FA41FB51F8093BE
:1011C000080490930904A0930A04B0930B0460915F
:1011D0000C0470910D0480910E0490910F046B5FCC
:1011E0007F4F8F4F9F4F60930C0470930D0480933B
:1011F0000E0490930F0420E13EE040E050E00E9496
:10120000452E672B682B692B81F08091AC0590915E
:10121000AD058C309105F4F426E520930701019685
:101220009093AD058093AC051FC008E014E068EC16
:1012300070E0D8014D918D017B01BFEFEB1AFB0AE5
:101240008EE797E00E940623E0EDEE16F104E9F246
:10125000B701EFCF411451046104710411F486E524
:1012600001C081E4809307018091F2058111ADC036
:1012700080910601813409F0A8C08DED97E09E832E
:101280008D831A8A198A188A1F861D8619869E01DF
:101290002F5F3F4F4901AE01475F5F4F5A01CE01BB
:1012A0000D966C01DE011F967D018E01005F1F4FC0
:1012B000205F3F4F475F5F4FBE016B5F7F4F84E70B
:1012C00094E00E94A21D89819A81AB81BC818F3FED
:1012D0009F4FAF4FBF4F09F478C089891F928F93FA
:1012E0008A891F928F93809127048F93809126047F
:1012F0008F9383E392E09F938F9383EF95E09F9387
:101300008F930E94882F0FB6F894DEBF0FBECDBF1B
:1013100081E08093F20589EE94E00E94761668E2FF
:1013200073E089EE94E00E94C42263EF75E089EED9
:1013300094E00E94C4226DE089EE94E00E94DD15E5
:1013400080E00E948D05811112C060E084E00E945F
:10135000772064E670E080E090E00E94941F61E0F6
:1013600084E00E94772081E00E948D05D8CF8EE531
:1013700092E09F938F9308E215E01F930F930E94D2
:10138000882FB80189EE94E00E94C42288E592E09B
:101390009F938F931F930F930E94882FB80189EE1C
:1013A00094E00E94C42284E492E09F938F931F9361
:1013B0000F930E94882FB80189EE94E00E94C42206
:1013C0000FB6F894DEBF0FBECDBF84E6E8E4F5E0CB
:1013D000DF011D928A95E9F78DED97E09E878D8755
:1013E0001C8A1B8A1A8A198A188A1F8619861A86E5
:1013F0001B861C861D821E821F8218868CE0E9E4F3
:10140000F4E0DF01282F1D922A95E9F7EDE3F4E0DF
:10141000DF011D928A95E9F780E2E8E2F5E0DF015D
:101420001D928A95E9F7FE0131964F019E01215FD9
:101430003F4F5901AE01405F5F4F6A01CE014196B7
:101440007C018E010E5E1F4F2C5F3F4F4C5F5F4F44
:10145000BE01635F7F4F84E794E00E94A21D8981F3
:101460009A81AB81BC818F3F9F4FAF4FBF4F51F4EB
:101470008CED97E09E878D871C8A1B8A1A8A198AB1
:10148000188A1F869E012F5F3F4FAE014B5F5F4F53
:10149000BE01675F7F4F84E794E00E94121D809138
:1014A000DC04811102C086E501C081E4809306015D
:1014B00084E794E00E94491E6BA37CA31C0184E78F
:1014C00094E00E947F1E6B017C012091B404309156
:1014D000B5043AA329A38090AC049090AD04A090E9
:1014E000AE04B090AF0489859A85AB85BC85B7FF03
:1014F0000EC0B095A095909581959F4FAF4FBF4F6F
:1015000089879A87AB87BC8733E53D8F02C04EE45D
:101510004D8F8D819E81AF81B885B7FF0EC0B0958C
:10152000A095909581959F4FAF4FBF4F8D839E8320
:10153000AF83B88757E5598F02C085E4898F8985C5
:101540009A85AB85BC858F3FE9EC9E07EAE9AE073B
:10155000EBE3BE0719F0AC01BD0104C040E050E070
:1015600060E070E029E434E081E00E9474038D8142
:101570009E81AF81B8858F3FF9EC9F07FAE9AF07ED
:10158000FBE3BF0719F0AC01BD0104C040E050E02F
:1015900060E070E02DE334E080E00E94740320916D
:1015A000C1033091C2034091C3035091C4036BA1A6
:1015B0007CA1C1010E94922B811105C0F0E0E0E006
:1015C00050E030E004C0FBA1ECA1522D332D08E225
:1015D00015E022E040E06F2F7E2F852F932F0E9491
:1015E000F92E84E6E8E4F5E0DF011D928A95E9F73B
:1015F000BFEF8B169B06AB06BB0629F420E030E05C
:1016000040E050E002C09401A501E9A1FAA1EF3F3A
:10161000F10519F480E090E002C089A19AA15F93DE
:101620004F933F932F939F938F93809106011F9227
:101630008F9388E295E09F938F931F92F98DFF938C
:101640008DE394E09F938F931F922D8D2F9389E4C8
:1016500094E09F938F93809107011F928F938091C5
:10166000BD058F938091BC058F938091BB058F93AF
:101670008091BA058F93388D3F934F894F935E8940
:101680005F938D898F937F926F925F924F9288893B
:101690001F928F9389891F928F938A891F928F93AC
:1016A0008B891F928F938C891F928F938E858F9336
:1016B0008D858F93809127048F93809126048F933B
:1016C00080E393E09F938F9383EE91E09F938F93BA
:1016D00008E415E01F930F930E94882FF8010190F2
:1016E0000020E9F73197E854F540FF278F01085BA8
:1016F0001A4FD8011C92609149058AE495E00FB613
:10170000F894DEBF0FBECDBF2FEF3FEF285435401A
:10171000A901480F591F4E175F072CF4DC014D91AA
:10172000CD016427F5CF603128F41F926F938EEDC1
:1017300091E004C01F926F938AED91E09F938F9385
:101740001F930F930E94882F0F900F900F900F9070
:101750000F900F908091DC04882309F4AFC0698555
:101760007A858B859C850E94D703698F7A8F8B8FB2
:101770009C8F6D817E818F8198850E94D7036D8FAC
:101780007E8F8F8F98A320E030E040EA50E4C701BD
:10179000B6010E94422D181624F0B9E18B2E912C2F
:1017A00003C0A5E08A2E912C20E030E040E251E415
:1017B000C701B6010E94422D18161CF4FAE08F2EC4
:1017C000912C20E030E040E751E4C701B6010E94CF
:1017D000422D18161CF4E4E18E2E912C8091080104
:1017E0008823D9F0298D3A8D4B8D5C8D209304068A
:1017F0003093050640930606509307068D8D9E8D07
:10180000AF8DB8A18093080690930906A0930A06AD
:10181000B0930B061092080151C0A0900806B0903A
:101820000906C0900A06D0900B06E0900406F090DE
:10183000050600910606109107062D8D3E8D4F8DF1
:1018400058A1698D7A8D8B8D9C8D0E94501C0E94B1
:10185000012CAA2497FCA094BA2C86169706A806F9
:10186000B90660F50091000610910106209102066C
:1018700030910306060F171F281F391F009300061B
:10188000109301062093020630930306298D3A8DAA
:101890004B8D5C8D2093040630930506409306061D
:1018A000509307068D8D9E8DAF8DB8A1809308064D
:1018B00090930906A0930A06B0930B068CE096E07D
:1018C0000E941C26809114048111E5C18090B2050C
:1018D0009090B305A090B405B090B505C501B401D2
:1018E00020E13EE040E050E00E94452E69017A018F
:1018F0003093B1052093B00524ECA60124038001A8
:10190000259F100D1124C501B4012CE330E040E007
:1019100050E00E94452E020F131F1093AF05009355
:10192000AE051F930F93DF92CF928FEC91E09F93C0
:101930008F9388E295E09F938F930E94882F48E1D0
:1019400050E06CE570E08CE096E00E944C2561E090
:101950008CE096E00E94522561E070E08CE096E019
:101960000E94582568E275E08CE096E00E94E32230
:101970000FB6F894DEBF0FBECDBF80910701813452
:1019800021F48091DC04811102C560E082E10E94B3
:101990007720E12CF12C01E0A30192016D897E8971
:1019A0008F89988D0E94120461E070E08CE096E0CF
:1019B0000E94582561E08CE096E00E9452258091BB
:1019C000DC04811125C048E050E06CE570E08CE05B
:1019D00096E00E944C2541E050E060E070E08CE031
:1019E00096E00E945E2588EC91E09F938F9388E2B9
:1019F00095E09F938F930E94882F68E275E08CE0BA
:101A000096E00E94E3220F900F900F900F9033C04A
:101A100061E070E08CE096E00E94582548E050E0DC
:101A20006EE670E08CE096E00E944C259AA19F93B0
:101A3000A9A1AF9386E393E09F938F9308E215E00B
:101A40001F930F930E94662FB8018CE096E00E94CE
:101A5000C42286EC91E09F938F931F930F930E9473
:101A6000882FB8018CE096E00E94E3220FB6F8942C
:101A7000DEBF0FBECDBF61E070E08CE096E00E945B
:101A8000582540E150E060E070E08CE096E00E9474
:101A90004C2580911504811149C0809131049091A9
:101AA0003204A0E0B0E084159505A605B705B8F4AA
:101AB0006D897E898F89988D0E94322C209129040E
:101AC00030912A0440912B0450912C040E94992BB0
:101AD00020E030E040E451E40E944D2D0EC0C301EF
:101AE000B2010E94322C2091290430912A044091A5
:101AF0002B0450912C040E94992B08E215E023E05E
:101B000040E00E94F92E68E275E08CE096E00E94C9
:101B1000C4228FEB91E09F938F9388E295E09F938F
:101B20008F930E94882F68E275E025C0813059F5B7
:101B3000C301B2010E94322C20912D0430912E0459
:101B400040912F04509130040E944D2D08E215E081
:101B500023E040E00E94F92EB8018CE096E00E945C
:101B6000C42288EB91E09F938F93C8019F930F93BA
:101B70000E94882FB8018CE096E00E94E3220F902B
:101B80000F900F900F908091FC039091FD03892B93
:101B900009F440C060910006709101068091020630
:101BA000909103060E94322C20E030E04AE754E492
:101BB0000E94992B08E215E021E040E00E94F92EF6
:101BC000F80101900020E9F73197E852F54026E04E
:101BD0002E9FC0012F9F900D112464E770E0681BB9
:101BE000790B40E150E08CE096E00E944C25B80172
:101BF0008CE096E00E94C42285EB91E09F938F9346
:101C00001F930F930E94882FB8018CE096E00E94EA
:101C1000E32280C28091DC04882351F008E215E0C1
:101C200020E040E06BA17CA1C1010E94F92E0EC012
:101C300082EB91E09F938F9388E295E09F938F933F
:101C40000E94882F0F900F900F900F90E8E2F5E020
:101C500001900020E9F73197E852F54026E02E9FE9
:101C6000C0012F9F900D11246AE770E0681B790B6B
:101C700040E150E08CE096E00E944C2568E275E07F
:101C80008CE096E00E94C42265E673E08CE096E06A
:101C90000E94E32243C2813009F017C260E082E172
:101CA0000E9477208091310490913204A0E0B0E04E
:101CB00084159505A605B70510F461E001C060E044
:101CC00082E10E947720E12CF12C00E0A301920137
:101CD0006D897E898F89988D0E94120480E2E8E0E8
:101CE000F5E0DF011D928A95E9F740E150E060E000
:101CF00070E08CE096E00E944C2561E08CE096E07C
:101D00000E94522561E070E08CE096E00E94582528
:101D10008091FC039091FD03892B09F41BC10E9463
:101D2000570320E030E040EF51E40E94CB2A0E94AC
:101D3000012C161617067CF041E050E060E070E0E0
:101D40008CE096E00E945E256AE373E08CE096E00A
:101D50000E94C422E3C18091310490913204B9EE13
:101D60004B16B3E05B066104710408F445C0A0E0C3
:101D7000B0E084159505A605B70598F46D897E89B0
:101D80008F89988D0E94322C20E030E04AE754E49D
:101D90000E94992B20E030E040E451E40E944D2D58
:101DA0000AC0C301B2010E94322C20E030E04AE7B1
:101DB00054E40E94992B08E215E021E040E00E94E3
:101DC000F92E44E050E068E275E088E095E00E947A
:101DD0004F2FE8E0F5E001900020E9F7329780818D
:101DE0008E3209F4108268E075E08CE096E00E9483
:101DF000C4228CEA91E026C0A0E0B0E084159505ED
:101E0000A605B70568F46D897E898F89988D0E9433
:101E1000322C20E030E040E451E40E944D2D04C01B
:101E2000C301B2010E94322C08E215E020E040E03C
:101E30000E94F92E68E275E08CE096E00E94C422D0
:101E400087EA91E09F938F9388E295E09F938F9329
:101E50000E94882F68E275E08CE096E00E94C42220
:101E60000F900F900F900F90C301B2010E94322C7F
:101E700020912D0430912E0440912F045091300474
:101E80000E944D2D6B017C0120E034E244E759E4CF
:101E90000E94422D1816F4F420E034E244E759E49D
:101EA000C701B6010E94992B08E215E021E040E04D
:101EB0000E94F92E45E050E0B80188E095E00E94CC
:101EC0004F2F68E075E08CE096E00E94C42280EA23
:101ED00091E037C020E030E44CE156E4C701B601A0
:101EE0000E94422D1816F4F420E030E04AE754E452
:101EF000C701B6010E94992B08E215E020E040E0FE
:101F00000E94F92E45E050E0B80188E095E00E947B
:101F10004F2F68E075E08CE096E00E94C42289E9CA
:101F200091E00FC008E215E020E040E0C701B601F3
:101F30000E94F92EB8018CE096E00E94C42283E949
:101F400091E09F938F93C8019F930F930E94882FD6
:101F5000B801DCC00E94570320E030E040EF51E4BC
:101F60000E94CB2A0E94012C161617060CF0E4CE14
:101F70008FE891E09F938F9378E2E72E75E0F72E3C
:101F8000FF92EF920E94882FB7018CE096E00E94AA
:101F9000C4226091B6057091B7058091B805909103
:101FA000B9050E94322C2091290430912A044091D5
:101FB0002B0450912C040E94992B870121E040E0D2
:101FC0000E94F92EB7018CE096E00E94C42289E8B5
:101FD00091E09F938F93FF92EF920E94882FB70119
:101FE0008CE096E00E94C42285E891E09F938F9355
:101FF000FF92EF920E94882FB7018CE096E00E943A
:10200000C42260910C0470910D0480910E04909193
:102010000F040E94322C4B015C0160910804709106
:10202000090480910A0490910B040E94322C6D8B5C
:102030007E8B8F8B988F20E030E040E752E4C50123
:10204000B4010E94992B9B01AC016D897E898F8917
:10205000988D0E94992B2091290430912A04409157
:102060002B0450912C040E94992B6D8B7E8B8F8BAF
:10207000988F20E030E041E655E4C501B4010E94AC
:10208000992B9B01AC016D897E898F89988D0E9467
:102090004D2D20E040E00E94F92EB7018CE096E043
:1020A0000E94C42282E891E09F938F93FF92EF9267
:1020B0000E94882FB7018CE096E00E94C4220FB6E0
:1020C000F894DEBF0FBECDBF29C040E050E060E015
:1020D00070E08CE096E00E944C2562E08CE096E097
:1020E0000E94522541E050E060E070E08CE096E014
:1020F0000E945E2585E791E09F938F9388E295E0AB
:102100009F938F930E94882F68E275E08CE096E0A1
:102110000E94C4220F900F900F900F908091E804BE
:10212000882389F188891F928F9389891F928F93C1
:102130008A891F928F938C891F928F938B891F920C
:102140008F938CE591E09F938F9388E295E09F9326
:102150008F930E94882F48E150E060E070E08CE0AF
:1021600096E00E944C2561E08CE096E00E945225AA
:1021700061E070E08CE096E00E94582568E275E02E
:102180008CE096E03CC048E150E060E070E08CE01C
:1021900096E00E944C2561E08CE096E00E9452257A
:1021A00041E050E060E070E08CE096E00E945E2547
:1021B00086E491E09F938F9388E295E09F938F93BD
:1021C0000E94882F68E275E08CE096E00E94C422AD
:1021D00060E082E10E947720E8E4F5E084E6DF0138
:1021E0001D928A95E9F78AE391E09F938F93FF937D
:1021F000EF930E94882F68E475E085E594E00E94E3
:10220000E3220FB6F894DEBF0FBECDBF0E94570386
:1022100020E030E040EF51E40E94CB2A0E94012CE4
:102220006B0177FD07C06930710534F068E0C62E98
:10223000D12C02C0C12CD12C809114048130F1F535
:1022400048E150E06CE570E08CE096E00E944C259F
:102250008091310490913204A0E0B0E0841595059E
:10226000A605B70518F461E273E002C064E273E00A
:102270008CE096E00E94C422E0910C06F0910D06DD
:102280000684F785E02DEE24E394F12C07E010E0BE
:102290002CE030E048E150E064E770E08CE096E04C
:1022A0000995E0910C06F0910D060088F189E02D6A
:1022B00003E010E096014AE150E03DC040E050E00C
:1022C0006CE570E08CE096E00E944C258091310432
:1022D00090913204A0E0B0E084159505A605B705FD
:1022E00018F461E273E002C064E273E08CE096E00F
:1022F0000E94C422E0910C06F0910D060684F78539
:10230000E02DEE24E394F12C07E010E02CE030E027
:1023100040E050E064E770E08CE096E00995E091E1
:102320000C06F0910D060088F189E02D03E010E025
:10233000960142E050E066E770E08CE096E0099597
:102340008CE096E00E949F278091FC039091FD0312
:1023500021E082279093FD038093FC0368E475E0FD
:1023600084ED96E00E94E3228091F2058823B1F08B
:1023700080911404811112C089EE94E00E947616B7
:1023800068E475E089EE94E00E94E32207C0809142
:10239000E804882309F4F9CA61E0F8CAA496E2E1E6
:1023A0000C94BB2E8091350690913606A09137068D
:1023B000B09138060196A11DB11D8093350690930A
:1023C0003606A0933706B0933806089580934106E9
:1023D000909342064093390650933A0660933B0629
:1023E00070933C061092350610923606109237060E
:1023F0001092380643E050E062ED71E10E94A11EA8
:1024000008950E94651F60933D0670933E06809379
:102410003F069093400610923506109236061092B1
:102420003706109238060895CF92DF92EF92FF920E
:102430000F931F930E94651FC0903D06D0903E06EB
:10244000E0903F06F09040060091390610913A0660
:1024500020913B0630913C066C157D058E059F054D
:1024600088F0DC01CB018C199D09AE09BF0951E050
:1024700040E080179107A207B30708F450E0852FCA
:10248000942F10C0C094D094E094F094C60ED71E40
:10249000E81EF91E81E090E0C016D106E206F306C0
:1024A00008F480E01F910F91FF90EF90DF90CF90A4
:1024B00008956091350670913606809137069091A7
:1024C00038060895EF92FF920F931F93FC017183DA
:1024D0006083538342833583248317830683F18685
:1024E000E0861F910F91FF90EF900895EF92FF9279
:1024F0000F931F93CF93DF93EB017C012DE2E20E4C
:10250000F11C49918C010F5F1F4FBC018EE797E0D2
:102510000E9406230E151F0511F0C801F2CF8DE2AF
:1025200090E0CDB7DEB7E6E00C94C72EEF92FF92B5
:102530000F931F93CF93DF937C018B01C0E0D0E01A
:10254000F80141918F01BE016E0D7F1D8EE797E06E
:102550000E9406232196C830D10591F788E090E0CB
:10256000CDB7DEB7E6E00C94C72EEF92FF920F9343
:102570001F93CF93DF93EC01EA81FB818DE2DF01B2
:102580001D928A95E9F70A811B8164EF71E07B0156
:10259000BFEFEB1AFB0A8EE797E00E940223F801D7
:1025A00081938F01F1E2EF16F2E0FF0611F0B7011F
:1025B000EECFEA81FB8140815181628173814D3090
:1025C000504F6E4F7A4509F44EC08DE2DF011D92E7
:1025D0008A95E9F7EA81FB814DE050EF6EEF7AE5ED
:1025E0004083518362837383178A168A89E083A3A9
:1025F0008EE193E09F938F938A819B8184969F9332
:102600008F930E94882FEA81FB818CE3808FEA817F
:10261000FB8140E050E067EA73E4418F528F638FA3
:10262000748F40E050E064E172E4458F568F678F0D
:1026300070A384E690E093A782A7BF0184EF91E0A6
:102640000E947612EC81FD8188E0DF011D928A955F
:10265000E9F76C817D8188EC90E00E9496120F90E2
:102660000F900F900F90CDB7DEB7E6E00C94C72E19
:10267000A2E0B0E0EEE3F3E10C94A32E3C01DC0118
:102680008D919C9169837A830E947616F3018185EE
:102690008F9380858F937A817F9369816F9381E196
:1026A00093E09F938F9387818F9386818F930E946E
:1026B000882FD30116966D917C9117978D919C91DF
:1026C0000E94C422F30180819181DC01ED91FC9193
:1026D0000190F081E02D6DE009950FB6F894DEBF12
:1026E0000FBECDBFD3018D919C91DC01ED91FC918A
:1026F0000480F581E02D0995892BA1F3F3018081F8
:102700009181DC01ED91FC910680F781E02D099526
:102710008D3011F08A3031F7F3014085518560E04A
:1027200070E0868197810E94382F00E010E0A12C94
:10273000D3018D919C91DC01ED91FC910480F58198
:10274000E02D0995892BB1F0FF24F394FA0CF301E5
:10275000068117810A0D111D80819181DC01ED91A7
:10276000FC910680F781E02D0995F8018083AF2C5C
:1027700000E010E061E070E080E090E00E94941FD3
:102780002A2D30E0D30118968D919C911997281726
:10279000390729F470E0B12C88E0882E27C00F5F3C
:1027A0001F4F083EB3E01B071CF2F4CF2D30B1F0F1
:1027B000492D50E0D30118962D913C91199742175D
:1027C000530761F0292D622F671B99249394920E71
:1027D000DC01A20FB11D2C912A3041F7DF01A60FB9
:1027E000B11D1C92808181110CC0792D7A1508F0E1
:1027F000B6C1F30186819781FC01E70FF11D272FF8
:10280000E2CF833291F3633080F380E07F01E80E02
:10281000F11CD7019C91903221F48F5F8613F6CF83
:10282000E4CF9930D1F3861701F3DF01A80FB11D72
:102830009C919D3339F0903211F0993009F41C923B
:102840008F5FF1CF861789F28F5F1C928F01080F7F
:10285000111DD8019C91903221F48F5F8613F6CF21
:10286000C4CF9930D1F3861709F4BFCF60E573E088
:10287000C7010E943F2F892B19F5C8010E941A2F0A
:10288000BC01882777FD8095982F0E94342C6B011E
:102890007C01F301028113819B01AC01D80159969F
:1028A0006D917D918D919C915C970E94922B8823D4
:1028B00009F49BCFF801C18ED28EE38EF48E30C125
:1028C00065E573E0C7010E943F2F892B29F5C801F8
:1028D0000E941A2FBC01882777FD8095982F0E94AF
:1028E000342C6B017C01D30112960D911C9113972E
:1028F0009B01AC01F801658D768D878D90A10E94BA
:10290000922B882309F471CFD8015D96CD92DD9288
:10291000ED92FC92909704C16AE573E0C7010E94B2
:102920003F2F892B39F4F301E280F380F6E0EF0EBC
:10293000F11C72C06DE573E0C7010E943F2F892B27
:1029400091F4D3011296ED90FC901397C8010E9468
:102950001A2FF701268937892817390709F445CF37
:10296000978B868BDDC061E673E0C7010E943F2F25
:10297000892B89F4D3011296ED90FC901397C8012E
:102980000E941A2FF701248130E02817390709F433
:102990002CCF8483C5C064E673E0C7010E943F2F3B
:1029A000892B89F4D3011296ED90FC901397C801FE
:1029B0000E941A2FF701258130E02817390709F402
:1029C00014CF8583ADC067E673E0C7010E943F2F37
:1029D000892B91F4D3011296ED90FC901397C801C6
:1029E0000E941A2FF70121A132A12817390709F4F3
:1029F000FCCE92A381A394C06AE673E0C7010E9453
:102A00003F2F892BA9F4D80113961C92F301E28081
:102A1000F380F4E2EF0EF11CB801C7010E943F2FD2
:102A2000892B09F4E2CEB801C7010E94482F78C073
:102A30006DE673E0C7010E943F2F892B89F4D30113
:102A40001296ED90FC901397C8010E941A2FF7017F
:102A500023A130E02817390709F4C7CE83A360C04B
:102A600060E773E0C7010E943F2F892B89F4D301EF
:102A70001296ED90FC901397C8010E941A2FF7014F
:102A800020A530E02817390709F4AFCE80A748C049
:102A900063E773E0C7010E943F2F892B89F4D301BC
:102AA0001296ED90FC901397C8010E941A2FF7011F
:102AB00021A530E02817390709F497CE81A730C047
:102AC00066E773E0C7010E943F2F892B91F4D30181
:102AD0001296ED90FC901397C8010E941A2FF701EF
:102AE00022A533A52817390709F47FCE93A782A71B
:102AF00017C069E773E0C7010E943F2F892B99F443
:102B0000D3011296ED90FC901397C8010E941A2FE2
:102B1000F70124A530E02817390709F466CE84A709
:102B2000BB24B39462CE6CE773E0C7010E943F2FD1
:102B3000892B09F05ACED3011496ED91FC9115978B
:102B4000DF01882D1D928A95E9F7D30114966D91C6
:102B50007C91159788EC90E00E94961246CEBB209F
:102B600039F0F3016281738184EF91E00E94761263
:102B70002296EEE00C94BF2E2091C5063091C60639
:102B800028173907B9F490914306809144069817A5
:102B900089F0E0914306F0E0EB5BF94F80812091F2
:102BA000430630E02F5F3F4F2F77332720934306B4
:102BB00090E008958FEF9FEF08951F93CF93DF93D9
:102BC000DC015C968D919C915D97009749F481E0C2
:102BD00090E013969C938E93129780E090E03BC018
:102BE0005196ED91FC91529750962C915097322F1F
:102BF00030951FB75E964C915E9741FB772770F931
:102C000041FD6095F8944081772311F0422B01C07B
:102C100043234083EC012197F1F748E0508160FFA6
:102C200002C0522B01C053235083EC012197F1F7CE
:102C30006695415099F78081772311F0832301C075
:102C4000822B80831FBF5C968D919C915D9701972D
:102C5000F1F781E090E0DF91CF911F910895089501
:102C60002091C5063091C6062817390771F4909156
:102C7000430680914406981741F0E0914306F0E046
:102C8000EB5BF94F808190E008958FEF9FEF0895FF
:102C90002091C5063091C6062817390771F4809136
:102CA00044062091430690E080589F4F821B910973
:102CB00060E870E00E94312E089580E090E0089571
:102CC000E091C506F091C606E817F90769F4A389F3
:102CD000B4899C918589809589238C931092C6062E
:102CE0001092C50681E0089580E00895CF93DF93A8
:102CF000EC018A8D9B8D892BF1F08091C506909116
:102D0000C6068C179D07B9F0009711F00E94601657
:102D10008E8D8E7F8E8F1092440610924306D09334
:102D2000C606C093C506EB89FC8980819D89892BE5
:102D3000808381E001C080E0DF91CF9108951F92F0
:102D40000F920FB60F9211242F933F934F935F93DF
:102D50006F937F938F939F93AF93BF93EF93FF9363
:102D6000E091C506F091C606309709F451C0868DF2
:102D7000A685B785958581FF04C08C91892329F4A8
:102D800047C08C91892309F043C0A389B4899C91E1
:102D90008589809589238C93868997890197F1F796
:102DA000208D318DA685B785758558E040E0C90135
:102DB0000197F1F7842F90E095958795482F6C91B6
:102DC000672309F04068515091F7868D81FD409549
:102DD0008091440690E001968F77992720914306D1
:102DE000281749F0A0914406B0E0AB5BB94F4C9373
:102DF0008093440603C0868D8160868F828D938D7B
:102E00000197F1F7A389B4898C919589892B8C93CB
:102E1000FF91EF91BF91AF919F918F917F916F91B2
:102E20005F914F913F912F910F900FBE0F901F9088
:102E3000189525E833E0FC01318320830E94601659
:102E400008951F93CF93DF93EC01162F6E8D669537
:102E5000617081E06827812F0E94772061E0812FD7
:102E60000E943E20812F90E0FC01EA5CFC4FE4913F
:102E7000E88BFC01E65BFC4FE491F0E0EE0FFF1FF6
:102E8000E859FC4F859194919A8B898BDF91CF9172
:102E90001F9108951F93CF93DF93EC01162F60E0ED
:102EA000812F0E943E208E8D81FD04C061E0812F24
:102EB0000E9477201C87812F90E0FC01EA5CFC4F88
:102EC000E491ED87FC01E65BFC4FE491F0E0EE0F4E
:102ED000FF1FE25AFC4F859194919F878E87DF9167
:102EE000CF911F910895FF920F931F93CF93DF937C
:102EF000EC01F62E522F1B821A8208EE13E020E01E
:102F000030E00C831D832E833F8385E893E0998313
:102F100088831F8A1E8A198E188E1B8E1A8E1D8E0C
:102F20001C8E8E8D8E7F50FB81F98E8F642FCE018B
:102F30000E9421176F2DCE010E944A17CDB7DEB730
:102F4000E5E00C94C82ECF93DF93EC019A01AB011E
:102F50001B8E1A8E198E188E1F8A1E8A60E874E8DE
:102F60008EE190E00E94672EC9012430310520F0E7
:102F7000B9016350710902C061E070E07D8F6C8F10
:102F8000EC85E63108F068C0B90176956795643143
:102F9000710518F06351710902C061E070E07F8B28
:102FA0006E8B069718F0C901059702C081E090E08A
:102FB000998F888FC901880F991F820F931F96954B
:102FC0008795969587958D30910510F00C9702C0E6
:102FD00081E090E09B8F8A8F20916800E83050F06C
:102FE00091E0EE3008F490E081E001C0880F9A95FE
:102FF000EAF701C084E0822B809368002C8528309A
:1030000038F02E3040F0263148F48CE690E008C0CD
:103010008DE690E005C08BE690E002C080E090E095
:103020009C8B8B8B283030F481E001C0880F2A956F
:10303000EAF70DC0822F90E02E3010F4089701C0FF
:103040000E9791E001C0990F8A95EAF7892F8D8B31
:103050008C8D9D8D0197F1F7CE010E947616DF9140
:10306000CF9108950F931F93FC01862F0FEF1FEF51
:103070009801008311832283338310861186128680
:1030800013864FEF59EC6AE97BE3408B518B628BDF
:10309000738B408F518F628F738F40A351A362A3B4
:1030A00073A340A751A762A773A740AB51AB62AB14
:1030B00073AB00AF11AF22AF33AFDF01A05CBF4FE6
:1030C0004FEF50E011965C934E9314960D931D9321
:1030D0002D933C93139718960D931D932D933C932A
:1030E000139718961C9211961C92509692E09C93FE
:1030F00011961C9211961C9211961C9212961D927A
:103100001D921D921C921397149611961C921E925A
:10311000129611961C921E925A971C92E759FF4FD5
:1031200080831F910F9108952FEB260F862F90E03B
:10313000263010F4C79708956156663018F4875505
:1031400091090895C0970895CF93FB0160E070E066
:10315000CB01C19120ED2C0F2A3078F4AAE0B0E029
:103160009B01AC010E948C2E6C0F711D811D911D65
:103170006053710981099109ECCFCF9108950F93A4
:103180001F93CF93FC01EA5AFF4FC1E020812D32FB
:1031900019F0C0E08F0103C08C01095A1F4FB8011C
:1031A0000E94A4189B01AC01A4E6B0E00E948C2E02
:1031B000F801DF01219130ED320F3A30D0F32E3299
:1031C00049F511962C91119730ED320F3A3010F5E8
:1031D00030E0205331094AE0429F8001439F100DA7
:1031E0001124222717FD2095322F600F711F821F97
:1031F000931F12960C9120ED200F2A3058F410E006
:1032000000531109222717FD2095322F600F711FDF
:10321000821F931FCC2339F090958095709561950E
:103220007F4F8F4F9F4FCF911F910F9108954F92D6
:103230005F926F927F928F929F92AF92BF92CF9246
:10324000DF92EF92FF92CF93DF93EC01CA5ADF4FE8
:10325000BE010E94A4182B013C0124E630E040E0AE
:1032600050E00E94452E9B01AC0160EA76E881E0C7
:1032700090E00E94212E6B017C01FE01819190ED76
:10328000980F9A30D8F38E3209F5EF0180E1882E3D
:1032900087E2982EA12CB12CA99180ED8A0F8A305B
:1032A000A8F4B0E0D097A50194010E94972EC60E15
:1032B000D71EE81EF91EC501B4012AE030E040E047
:1032C00050E00E94452E49015A01E6CFC701B601E0
:1032D0006B5F7F4F8F4F9F4F26E030E040E050E024
:1032E0000E94452E69017A01C301B20124E630E053
:1032F00040E050E00E94452E60E472E48FE090E0F0
:103300000E94212EC60ED71EE81EF91EC701B60167
:10331000DF91CF91FF90EF90DF90CF90BF90AF9073
:103320009F908F907F906F905F904F9008954F92F5
:103330005F926F927F928F929F92AF92BF92CF9245
:10334000DF92EF92FF92CF93DF93EC01CA5ADF4FE7
:10335000BE010E94A4182B013C01FE01819190ED59
:10336000980F9A30D8F38E3221F5EF0190E1892E33
:1033700097E2992EA12CB12CC12CD12C7601A991C8
:1033800080ED8A0F8A30C0F4B0E0D097A501940197
:103390000E94972EC60ED71EE81EF91EC501B40165
:1033A0002AE030E040E050E00E94452E49015A01F9
:1033B000E6CFC12CD12C7601A301920160EA76E818
:1033C00081E090E00E94212E6C0D7D1D8E1D9F1DC1
:1033D000DF91CF91FF90EF90DF90CF90BF90AF90B3
:1033E0009F908F907F906F905F904F900895DB013A
:1033F000FA018D91882319F091918917D1F390E00A
:103400000895CF92DF92EF92FF921F93CF93DF93B5
:10341000EC01FC01EB5AFF4F1081112309F4D7C0D6
:10342000319660810E949418182FFE01E95AFF4FCF
:103430006081CE010E94941840E1149F800D1124F8
:10344000FE01EC5AFF4F90818913B9C07496108128
:10345000112309F485C0369680819181019691836C
:103460008083B69780819181A281B38134978083D4
:103470009183A283B3833C9680819181A281B381A1
:10348000349780839183A283B38379968081882344
:10349000A1F1813009F07EC18C819D81AE81BF8117
:1034A00088839983AA83BB838C859D85AE85BF85E0
:1034B00088879987AA87BB878C899D89AE89BF89B0
:1034C000888B998BAA8BBB8B8C8D9D8DAE8DBF8D80
:1034D000888F998FAA8FBB8F8CA59DA5AEA5BFA500
:1034E00088A799A7AAA7BBA78CA99DA9AEA9BFA980
:1034F00088AB99ABAAABBBAB4DC18CA19DA1AEA1D2
:10350000BFA188A399A3AAA3BBA38C819D81AE81EF
:10351000BF8188839983AA83BB838C899D89AE8967
:10352000BF89888B998BAA8BBB8B8C8D9D8DAE8D23
:10353000BF8D888F998FAA8FBB8FFE01E05CFF4FF4
:10354000DE01AE5BBF4F8D919C91918380838CADEA
:103550009DADAEADBFAD88AF99AFAAAFBBAF1AC13D
:103560004C815D816E817F81411551056105710539
:1035700009F410C1FE01E85BFF4F80819181A281B7
:10358000B381349780839183A283B383B196808182
:10359000882381F0813009F0FDC0488359836A8314
:1035A0007B838C859D85AE85BF8588879987AA8713
:1035B000BB87F0C0488359836A837B83EBC0C059C3
:1035C000DF4F8881998101969983888396C0FC0199
:1035D000EA59FF4F30818B599F4F7C0131111DC03B
:1035E0006E0196E5C90ED11C41E953E0B601CE014A
:1035F0000E94F719892B11F481E00CC047E953E0D0
:10360000B601CE010E94F719892B19F4F701108237
:10361000C1C082E0D7018C93BDC0DC01EC91E230E7
:1036200009F4B8C0CE018A5A9F4FDC012C912223A5
:1036300009F4B0C0B0E2EB9FF0011124E32B319705
:10364000E932F10508F0A6C0EC5CFF4F0C94862E21
:10365000CE010E94BF186C837D838E839F830E945E
:10366000651FC85BDF4F1CC0C859DF4F81E02134A4
:1036700009F076C076C0FE01E759FF4F80818823AC
:1036800021F0CE010E94971903C0CE010E941719A4
:103690006C8B7D8B8E8B9F8B0E94651FC05BDF4F79
:1036A000688379838A839B8375C0233509F072C050
:1036B0008C899D89AE89BF89B095A095909581959B
:1036C0009F4FAF4FBF4F8C8B9D8BAE8BBF8B62C01C
:1036D000FE01E759FF4F8081882341F0CE010E940F
:1036E00097196C8F7D8F8E8F9F8F54C0CE010E9453
:1036F00017196C8F7D8F8E8F9F8F10E04BC02735F1
:1037000009F048C08C8D9D8DAE8DBF8DB095A09574
:10371000909581959F4FAF4FBF4F8C8F9D8FAE8FF0
:10372000BF8F38C0CE010E94BF186CA77DA78EA79F
:103730009FA730C0CE010E94BF186CAB7DAB8EAB93
:103740009FAB28C0BC01CE010E94A4186C877D8766
:103750008E879F871FC0C859DF4F81E0213308F44F
:1037600080E0888317C00E941A2FCE5BDF4F992715
:10377000998388830FC0CE010E94BF186CAF7DAFC4
:103780008EAF9FAF07C0CE010E94BF186CA37DA370
:103790008EA39FA3812FDF91CF911F91FF90EF9078
:1037A000DF90CF900895A1E0B0E0E9EDFBE10C944B
:1037B000A92E6C01262FFC01E659FF4F4081518153
:1037C000628173814F5F5F4F6F4F7F4F40835183A3
:1037D000628373838C0109591F4F8B5A9F4F7C0161
:1037E000243281F128F42A3069F02D30E9F50AC03D
:1037F0002A3241F02C32C1F5F601EC5AFF4F80819C
:1038000082278083F80180818F3060F4F601E80F11
:10381000F11DEA5AFF4F1082C60129830E94011A46
:10382000298101C080E0F601EA59FF4F90819F5F36
:103830009083F801108291E02A3209F090E0F701BC
:1038400090832AC0F8011082F601EA59FF4F1082D6
:1038500072971082719682E08083F7011082F601E0
:10386000E859FF4F108217C0F80180818E3048F46C
:1038700091E0980F9083F601E80FF11DEA5AFF4F8F
:103880002083F7018081811106C0F601EC5AFF4FB9
:1038900080818227808380E02196E8E00C94C52E09
:1038A000A0E1B0E0E6E5FCE10C94A12E69837A8307
:1038B0008B839C83CA01B90127013801A6019501B8
:1038C0000E94CB2A25E33AEF4EE85CE30E944D2D9F
:1038D0006B017C010E94B02D6D877E878F87988B4E
:1038E000C701B6010E94962B6D837E838F839887D4
:1038F00025E33AEF4EE85CE369817A818B819C8114
:103900000E944D2D6B017C0125E33AEF4EE85CE30C
:10391000C301B2010E944D2D2B013C01C701B6012C
:103920000E94B02D4B015C01C701B6010E94962B8D
:1039300069837A838B839C83C301B2010E94B02D7B
:1039400069877A878B879C87C301B2010E94962B77
:103950006B017C0129853A854B855C8569817A817B
:103960008B819C810E944D2D2B013C01A70196016A
:10397000C501B4010E944D2D2D813E814F81588596
:103980000E944D2D9B01AC01C301B2010E94CB2AC4
:103990009B01AC010E944D2D2B013C012D853E85E4
:1039A0004F855889C701B6010E944D2D9B01AC017E
:1039B0000E944D2D9B01AC01C301B2010E94CC2A93
:1039C0000E94BA2D2B013C0129853A854B855C85E7
:1039D000C501B4010E944D2D4B015C01A701960168
:1039E00069817A818B819C810E944D2D2D813E8140
:1039F0004F8158850E944D2D9B01AC01C501B4013A
:103A00000E94CC2A9B01AC01C301B2010E943F2B52
:103A100026E73BE742EC5AE40E944D2D6096E0E138
:103A20000C94BD2EA0E0B0E0E8E1FDE10C94A92EDD
:103A3000E9016115710551F0FC01C088D188E28867
:103A4000F388FB01C082D182E282F38241155105E5
:103A500051F0FC01C08CD18CE28CF38CFA01C08255
:103A6000D182E282F382209701F18C01045B1F4F27
:103A7000F80180819181A281B3818F3F9F4FAF4F29
:103A8000BF4F61F00E94651FF80100811181228102
:103A90003381601B710B820B930B03C06FEF7FEFC1
:103AA000CB01688379838A839B83CDB7DEB7E8E057
:103AB0000C94C52EA0E0B0E0E0E6FDE10C94A92E48
:103AC000E9016115710551F0FC01C084D184E284E3
:103AD000F384FB01C082D182E282F3824115510559
:103AE00051F0FC01C080D180E280F380FA01C082F5
:103AF000D182E282F382209701F18C010C5B1F4F8F
:103B0000F80180819181A281B3818F3F9F4FAF4F98
:103B1000BF4F61F00E94651FF80100811181228171
:103B20003381601B710B820B930B03C06FEF7FEF30
:103B3000CB01688379838A839B83CDB7DEB7E8E0C6
:103B40000C94C52EAAE0B0E0E8EAFDE10C949F2EAB
:103B50002B015A87498719019401AE014F5F5F4FCE
:103B6000BE016B5F7F4F0E945A1D41145104B9F092
:103B70006D817E818F81988524E630E040E050E0C1
:103B80000E94452E613571051CF02CE637E002C01D
:103B900020ED37E0620F731FF20171836083898526
:103BA0009A85892BB1F06D817E818F81988544E65D
:103BB000442E512C612C712CA30192010E94452EA0
:103BC000CA01B901A30192010E94452EE985FA8537
:103BD00060832114310461F06D817E818F8198852D
:103BE00020E137E240E050E00E94452EF1012083C1
:103BF0000115110561F069817A818B819C8120E436
:103C000032E44FE050E00E94452EF8012083E11499
:103C1000F104A1F069817A818B819C8120E137E2F6
:103C200040E050E00E94452ECA01B90124E630E090
:103C300040E050E00E94452EF7016083C114D1049A
:103C4000A9F069817A818B819C8134E6432E512CC5
:103C5000612C712CA30192010E94452ECA01B90169
:103C6000A30192010E94452EF6016083A114B104C4
:103C700061F069817A818B819C8124E630E040E0AB
:103C800050E00E94452EF50160832A96E2E10C94F3
:103C9000BB2EFC0160A171A182A193A16F3FF9EC41
:103CA0007F07FAE98F07FBE39F0749F00E94342C56
:103CB00020E030E048EC52E40E94992B089560E047
:103CC00074E284E799E40895FC0160A571A582A5DA
:103CD00093A56F3FF9EC7F07FAE98F07FBE39F0796
:103CE00049F00E94322C20E030E048EC52E40E947F
:103CF000992B089560E070E080E89FEB0895CF92E3
:103D0000DF92EF92FF920E94641E6B017C0120E023
:103D100030E040E85FEB0E94922B882349F026E5D3
:103D20003EE04DEE5FE3C701B6010E944D2D04C099
:103D300060E070E080E89FEBFF90EF90DF90CF9025
:103D400008958230E8F4E82FF0E0EE0FFF1FE9530A
:103D5000F94F71836083813041F0809169008C7FDD
:103D6000842B80936900E89A089580916900440F3C
:103D7000551F440F551F837F842B80936900E99A58
:103D800008951F920F920FB60F9211242F933F9315
:103D90004F935F936F937F938F939F93AF93BF9353
:103DA000EF93FF938091C7069091C806892B29F065
:103DB000E091C706F091C8060995FF91EF91BF9178
:103DC000AF919F918F917F916F915F914F913F91B3
:103DD0002F910F900FBE0F901F9018951F920F926A
:103DE0000FB60F9211242F933F934F935F936F93CE
:103DF0007F938F939F93AF93BF93EF93FF938091A4
:103E0000C9069091CA06892B29F0E091C906F09164
:103E1000CA060995FF91EF91BF91AF919F918F9144
:103E20007F916F915F914F913F912F910F900FBEB6
:103E30000F901F9018951F920F920FB60F9211249A
:103E40002F933F938F939F93AF93BF938091CC0613
:103E50009091CD06A091CE06B091CF063091CB06C1
:103E600026E0230F2D3720F40296A11DB11D05C0B9
:103E700029E8230F0396A11DB11D2093CB06809343
:103E8000CC069093CD06A093CE06B093CF0680913A
:103E9000D0069091D106A091D206B091D30601969A
:103EA000A11DB11D8093D0069093D106A093D20698
:103EB000B093D306BF91AF919F918F913F912F9176
:103EC0000F900FBE0F901F9018952FB7F894609128
:103ED000CC067091CD068091CE069091CF062FBF73
:103EE00008953FB7F8948091D0069091D106A091A3
:103EF000D206B091D30626B5A89B05C02F3F19F076
:103F00000196A11DB11D3FBF6627782F892F9A2FDB
:103F1000620F711D811D911D43E0660F771F881F81
:103F2000991F4A95D1F70895CF92DF92EF92FF92B1
:103F3000CF93DF936B017C010E94711FEB01C114D1
:103F4000D104E104F10479F00E94711F6C1B7D0B18
:103F5000683E7340A0F381E0C81AD108E108F10877
:103F6000C851DC4FECCFDF91CF91FF90EF90DF9005
:103F7000CF900895789484B5826084BD84B58160C3
:103F800084BD85B5826085BD85B5816085BDEEE661
:103F9000F0E0808181608083E1E8F0E01082808140
:103FA00082608083808181608083E0E8F0E08081AE
:103FB00081608083E1EBF0E0808184608083E0EBCE
:103FC000F0E0808181608083EAE7F0E080818460B6
:103FD0008083808182608083808181608083808112
:103FE000806880831092C10008958093090108952C
:103FF0008E3008F08E5087702091090190E4299F3F
:1040000090011124822B80937C0080917A0080643F
:1040100080937A0080917A0086FDFCCF80917800B1
:104020002091790090E0922B0895833081F028F45C
:10403000813099F08230A1F008958630A9F0873060
:10404000B9F08430D1F4809180008F7D03C08091DD
:1040500080008F7780938000089584B58F7702C0A9
:1040600084B58F7D84BD08958091B0008F7703C0A3
:104070008091B0008F7D8093B0000895CF93DF933F
:1040800090E0FC01EA5CFC4F2491FC01E65BFC4FF4
:104090008491882349F190E0880F991FFC01EE5824
:1040A000FC4FA591B49188599C4FFC01C591D491C6
:1040B0009FB7611108C0F8948C91209582238C934E
:1040C000888182230AC0623051F4F8948C91322F97
:1040D000309583238C938881822B888304C0F89445
:1040E0008C91822B8C939FBFDF91CF910895A1E09B
:1040F000B0E0EDE7F0E20C94AD2E282F30E0F901AE
:10410000EE5DFC4F8491F901EA5CFC4F1491F901DA
:10411000E65BFC4F04910023C9F0882321F06983FA
:104120000E9415206981E02FF0E0EE0FFF1FE85993
:10413000FC4FA591B4919FB7F8948C91611103C085
:104140001095812301C0812B8C939FBF2196E4E0C1
:104150000C94C92EFC0124853585F901E05CFF4FE4
:1041600080819181329620813181821B930B8F73E4
:1041700099270895FC0184859585FC01E05CFF4F3B
:10418000408151813296208131814217530741F09D
:104190000190F081E02DE80FF91F808190E00895F3
:1041A0008FEF9FEF0895FC0184859585FC01E05C0D
:1041B000FF4F408151813296208131814217530750
:1041C00079F0A081B181A80FB91F8C912081318134
:1041D0002F5F3F4F2F7333273183208390E0089563
:1041E0008FEF9FEF0895FC0181A1882329F0A48916
:1041F000B5898C9186FFFBCF11A20895CF93DF93F1
:10420000FC0126853785D901A05CBF4F8D919C911B
:10421000119701968F739927E901CE5BDF4F488193
:10422000598184179507D9F30D90BC91A02DA20F49
:10423000B31F6C93A685B785A05CBF4F11969C9366
:104240008E93A689B7892C9181E090E0078C02C0FB
:10425000880F991F0A94E2F7282B2C9381E081A301
:104260000488F589E02D80818064808381E090E07E
:10427000DF91CF91089508951F920F920FB60F927C
:1042800011242F933F934F938F939F93EF93FF931B
:104290008091C00082FD1CC04091C60080917A07C9
:1042A00090917B0701968F73992720917C0730911D
:1042B0007D078217930771F0E0917A07F0917B07F1
:1042C000E65CF84F408390937B0780937A0702C0A7
:1042D0008091C600FF91EF919F918F914F913F91F7
:1042E0002F910F900FBE0F901F90189584ED96E0C0
:1042F0000E94AA20892B11F00E943B2108951F9251
:104300000F920FB60F9211242F933F938F939F9389
:10431000EF93FF932091360730913707809138074C
:10432000909139072817390731F48091C1008F7DAA
:104330008093C10014C0E0913807F0913907EA502A
:10434000F94F2081809138079091390701968F733A
:10435000992790933907809338072093C600FF91DF
:10436000EF919F918F913F912F910F900FBE0F90E2
:104370001F901895CF92DF92EF92FF92CF93DF9329
:10438000EC016A017B01EC89FD8981E090E008A0E5
:1043900002C0880F991F0A94E2F7808360E874E8EE
:1043A0008EE190E0A70196010E94452E215031092F
:1043B000410951095695479537952795211580E173
:1043C000380798F0EC89FD89108260E472E48FE090
:1043D00090E0A70196010E94452E21503109410924
:1043E00051095695479537952795E889F98930837E
:1043F000EA89FB89208319A2EE89FF89408181E047
:1044000090E09C010C8C02C0220F331F0A94E2F74B
:10441000422B4083EE89FF8940819C010D8C02C0B4
:10442000220F331F0A94E2F7422B4083EE89FF8963
:1044300040819C010E8C02C0220F331F0A94E2F7C8
:10444000422B4083EE89FF8920810F8C02C0880FA8
:10445000991F0A94E2F7809582238083DF91CF91A0
:10446000FF90EF90DF90CF9008951092D7061092B2
:10447000D60688EE93E0A0E0B0E08093D806909353
:10448000D906A093DA06B093DB0689EC93E090930B
:10449000D5068093D4068AE397E09093E106809353
:1044A000E00686EF96E09093E3068093E20685ECC3
:1044B00090E09093E5068093E40684EC90E090937E
:1044C000E7068093E60680EC90E09093E9068093FF
:1044D000E80681EC90E09093EB068093EA0682EC8C
:1044E00090E09093ED068093EC0686EC90E090933C
:1044F000EF068093EE0684E08093F00683E08093DD
:10450000F10687E08093F20685E08093F30681E070
:104510008093F4060895A0E0B0E0E1E9F2E20C94A3
:10452000A92E6C017A01EB01E60EF71E00E010E007
:10453000CE15DF0561F06991D601ED91FC910190F6
:10454000F081E02DC6010995080F191FF1CFC801B0
:10455000CDB7DEB7E8E00C94C52E6115710589F082
:10456000DB010D900020E9F7AD0141505109461BD8
:10457000570BDC01ED91FC910280F381E02D099550
:10458000089580E090E008950E94AD220895DC0136
:10459000ED91FC910190F081E02D099508950F9324
:1045A0001F93CF93DF93EC016DE00E94C7228C0133
:1045B0006AE0CE010E94C722800F911FDF91CF9148
:1045C0001F910F9108950F931F93CF93DF93EC01E9
:1045D0000E94AD228C01CE010E94CF22800F911F3C
:1045E000DF91CF911F910F9108950E94BA1F0E94F1
:1045F000BB05C6E7D1E20E94C6072097E1F30E94FF
:104600007621F9CFCB010E947C310895CB01642F34
:104610000E9484310895FC017583648371876087EB
:104620005783468353874287158A158614861786D3
:10463000168621E0248B8FEF9FEF938B828B918BDB
:10464000808B268B0895A4E0B0E0E9E2F3E20C94BD
:104650009F2E4C017C836B836A015901C80187013D
:10466000AC014C195D0957FF03C0519541955109A3
:1046700095016B817C81261B370B37FF03C0319579
:104680002195310922242394312C2417350714F065
:10469000212C312C2114310459F03A2D2B2D5C01A1
:1046A000832F922F3B812C81DC82CB82C32ED22E92
:1046B000AB81BC81AA16BB065CF43C2D2D2D6C0190
:1046C000832F922F3B812C81BC82AB82A32EB22EF2
:1046D0002501EB81FC814E1A5F0A3C016C187D08B4
:1046E00077FE03C0719461947108720157FE03C094
:1046F000FFEFEF1AFF0AF594E794C816D9062CF4D9
:1047000021E030E03A83298324C06FEF7FEF7A8382
:1047100069831FC0D401ED91FC910480F581E02DE7
:10472000980121143104D9F04B815C81B601C40198
:104730000995E618F708F7FE06C0E981FA81CE0E62
:10474000DF1EE40CF51C2B813C812F5F3F4F3C8327
:104750002B836B817C81A616B706E4F604C0A60104
:104760006B817C81E4CF2496E2E10C94BB2EA0E027
:10477000B0E0EDEBF3E20C94A32EEC015B016A01D7
:1047800039014801E881F9810484F585E02D87012C
:104790000995E881F981A601480D591D415051093B
:1047A0000484F585E02D9301B501CE010995E881DA
:1047B000F9810284F385E02D9401A601B501CE01B3
:1047C0000995E881F981B501660D771D6150710980
:1047D0000284F385E02D9401A601CE010995CDB7A1
:1047E000DEB7EEE00C94BF2EEF92FF920F931F9373
:1047F000DC01ED91FC91240F351F2150310900841B
:10480000F185E02D780189019B0109951F910F9198
:10481000FF90EF900895EF92FF920F931F93DC01AA
:10482000ED91FC91260F371F215031090084F1854D
:10483000E02D78018A0109951F910F91FF90EF906B
:104840000895A0E0B0E0E7E2F4E20C94A32E5C014E
:104850004A0169013801EB01C60ED71ECC15DD05F2
:1048600074F4D501ED91FC910284F385E02D87016C
:104870009301A401BE01C50109952196EFCFCDB7E3
:10488000DEB7EEE00C94BF2EACE0B0E0EAE4F4E278
:104890000C949F2E9C878B873A0118870F83FA868A
:1048A000E986CD82DC0118968D919C911997681745
:1048B00079070CF099C01A968D919C911B97481717
:1048C00059070CF091C08C2C912CCB01B5E0CB9EFC
:1048D000800D911D1124181619060CF085C0C40115
:1048E000E3E0880F991FEA95E1F7840F951F1816EA
:1048F00019060CF079C030E02052310985E0829F22
:104900002001839F500C11245B016B011C829201DA
:1049100024583C4F2901461A570A3C81353031F062
:10492000F201EA0DFB1D44914B8301C01B827A8288
:10493000698213011E828B8180FF13C0AB85BC8509
:10494000ED91FC91BD81B13031F40480F581E02D11
:104950002F81388519C00088F189E02DEF80F88417
:104960001EC0E985FA852F813885E217F307F9F033
:10497000AB85BC85ED91FC91BD81B13059F40480CB
:10498000F581E02D29853A85A101B5018B859C85AE
:1049900009950DC00088F189E02DE984FA8484012D
:1049A000940149815A81B6018B859C850995EB81DB
:1049B000E695EB83FE81FF5FFE8329813A81280D16
:1049C000391D3A8329833FEF231A330AF83009F05F
:1049D000B2CF4C814F5F4C83C80CD91C8FEFA81A03
:1049E000B80A463009F099CF2C96E2E10C94BB2E20
:1049F000CF92EF92FF920F931F93CF93DF93EC012F
:104A0000262F6A3049F42C898E859F8538E0239FB4
:104A1000800D911D112432C06D30A1F1EA88FB8810
:104A2000088919894E855F856C857D85CC880E94B3
:104A300044242C89422F50E08C859D8536E0239FAD
:104A4000800D911D11249D878C872E892223D1F002
:104A50006AEF64039001659F300D112468857985A4
:104A6000260F371F281739076CF4F3E0440F551F42
:104A7000FA95E1F78E859F85840F951F9F878E8716
:104A80001D861C8681E090E0DF91CF911F910F91F0
:104A9000FF90EF90CF900895FC017587648757874A
:104AA00046870895611101C061E0FC01648B08959F
:104AB000FC01718B608B738B628B0895FC01718B91
:104AC000608B538B428B0895FC0185898370858BA5
:104AD0000895FC01808591850895FC018285938568
:104AE0000895A0E0B0E0E7E7F5E20C94A92E7C0180
:104AF0008B01EA01690177FD81C00E9469250817D1
:104B000019070CF07BC0D7FD79C0C7010E946D2545
:104B1000C817D9070CF072C0C7010E946425823003
:104B200009F060C0F701848195819C01201B310B45
:104B300089010150110986819781FC01EC1BFD0B55
:104B4000EF0121970BC0813049F4F70184819581F1
:104B50008C1B9D0BE8018C0101501109F1E0CF166F
:104B6000D104F9F4FE01D7FD379623E0F595E795DA
:104B70002A95E1F7F695FE2FEE27F795E795E00FDA
:104B8000F11FE65FFE4FCE0168E070E00E94312E1B
:104B900021E030E001C0220F8A95EAF78081822B64
:104BA0001FC0FE01D7FD379683E0F595E7958A95FE
:104BB000E1F7F695FE2FEE27F795E795E00FF11F49
:104BC000E65FFE4FCE0168E070E00E94312E21E0EA
:104BD00030E001C0220F8A95EAF720958081822378
:104BE00080830CC0833009F0AECFF70186819781B6
:104BF000801B910B8E01EC012197B0CFCDB7DEB7B2
:104C0000E8E00C94C52EDC01ED91FC910190F0815F
:104C1000E02D09950895EF920F93FC011382128203
:104C200089ED93E091838083E48E038F228F418FFF
:104C3000608F0F91EF90089580E092E0EAE0F1E05C
:104C4000DF019C011D9221503040E1F70895FC01E5
:104C500088E090E030E8A78DB0A14C9126A1209586
:104C600024232C93A58DB68D25A1432F462321F017
:104C70004C91422B4C9304C04C91209524232C93AF
:104C8000A78DB0A12C9146A1242B2C93369501978A
:104C9000009709F708951F93CF93DF93EC01162F28
:104CA000888D8F3FF1F0E9A1FAA180819FA1892B26
:104CB0008083EBA1FCA1908188A5809589238083C6
:104CC000E9A1FAA190818FA1809589238083CE01EB
:104CD0000E942726E9A1FAA180819FA1892B8083C8
:104CE00017C08F89682F772767FD70958FE797E04A
:104CF0000E94E52860E08FE797E00E949028612FEE
:104D00008FE797E00E9490288FE797E00E94FB28AA
:104D1000DF91CF911F9108950F931F93CF93DF934E
:104D2000EC01162F042F40E250E060E870E00E9492
:104D30000B230F8B888D8F3F09F468C061E00E94C0
:104D40003E2061E0898D0E943E2061E08A8D0E94B4
:104D50003E2061E08C8D0E943E20898D992787FD41
:104D60009095FC01E65BFC4FE491F0E0EE0FFF1F35
:104D7000E859FC4F2591349138A32F8FFC01EA5C50
:104D8000FC4F84918EA3888D992787FD9095FC0117
:104D9000E65BFC4FE491F0E0EE0FFF1FE859FC4F9B
:104DA000259134913E8F2D8FFC01EA5CFC4F84915C
:104DB0008DA38C8D992787FD9095FC01E65BFC4FB8
:104DC000E491F0E0EE0FFF1FE859FC4F259134917C
:104DD0003AA329A3FC01EA5CFC4F84918FA38A8D3E
:104DE000992787FD9095FC01E65BFC4FE491F0E08C
:104DF000EE0FFF1FE859FC4F259134913CA32BA3E4
:104E0000FC01EA5CFC4F849188A704C08FE797E01F
:104E10000E94D02861E08B8D0E943E2061E08B8D46
:104E20000E94772061E070E080E090E00E94941F93
:104E300060E08B8D0E9477206AE070E080E090E077
:104E40000E94941F61E08B8D0E9477206EEACE0154
:104E50000E944B2665EDCE010E944B2660E8CE01F4
:104E60000E944B2668EACE010E944B266FE1CE01DC
:104E70000E944B2663EDCE010E944B2660E0CE01DE
:104E80000E944B2660E4CE010E944B266DE8CE01C5
:104E90000E944B26113011F460E101C064E1CE01A3
:104EA0000E944B2660E2CE010E944B2660E0CE01BC
:104EB0000E944B2661EACE010E944B2668ECCE018F
:104EC0000E944B266AEDCE010E944B2662E0CE0185
:104ED0000E944B2661E8CE010E944B266FE8CE016E
:104EE0000E944B2669EDCE010E944B26113011F431
:104EF00062E201C061EFCE010E944B266BEDCE0154
:104F00000E944B2660E4CE010E944B2664EACE014B
:104F10000E944B2666EACE010E944B266FEACE0124
:104F20000E944B26DF91CF911F910F910895662328
:104F300011F067EA01C066EA0E944B260895A0E0DE
:104F4000B0E0E5EAF7E20C94AA2EEC0160E00E94E2
:104F50004B2660E1CE010E944B2660E4CE010E9408
:104F60004B26888D8F3F89F1E9A1FAA180819FA10D
:104F7000892B8083EBA1FCA1808198A5892B80835C
:104F8000E9A1FAA190818FA18095892380830AE00D
:104F900011E0F80161918F01CE010E942726F3E014
:104FA0000A301F07B1F700E012E060E0CE010E9476
:104FB00027260150110901151105B9F7E9A1FAA138
:104FC00080819FA1892B808354C0D090B8008CE051
:104FD0008093B8000AE011E06F89772767FD70952C
:104FE0008FE797E00E94E52860E470E08FE797E0A4
:104FF0000E940326E12CF12CF801EE0DFF1D6081CB
:105000008FE797E00E9490288FEFE81AF80AE0E116
:10501000EE16F10489F78FE797E00E94FB28005F06
:105020001F4FF3E00A301F07B9F600E210E06F8966
:10503000772767FD70958FE797E00E94E52860E489
:1050400070E08FE797E00E940326E0E1FE2E60E02B
:105050008FE797E00E949028FA94C9F78FE797E0CE
:105060000E94FB28015011090115110501F7D0928A
:10507000B800CDB7DEB7E7E00C94C62E8091AF073D
:1050800090E02091B007821B910908952091B0070C
:105090008091AF07281750F4E22FF0E0EF54F84F5B
:1050A000808190E02F5F2093B00708958FEF9FEFEE
:1050B0000895E091B0078091AF07E81730F4F0E071
:1050C000EF54F84F808190E008958FEF9FEF08959F
:1050D0000895A0E0B0E0EFE6F8E20C94A92E7C0180
:1050E000CB018A0120918B07222389F0EB016B0110
:1050F000C40ED51ECC15DD0569F06991D701ED917F
:10510000FC910190F081E02DC7010995F3CF642F48
:105110000E947529C801CDB7DEB7E8E00C94C52E12
:10512000A1E0B0E0E6E9F8E20C94AF2E69832091AB
:105130008B072223D1F020918C07203240F021E010
:1051400030E0FC013383228380E090E015C0809141
:105150008D07E82FF0E0E257F84F998190838F5F39
:1051600080938D0780938C0705C061E0CE01019686
:105170000E94752981E090E02196E2E00C94CB2E0C
:10518000FC011382128248EE53E060E070E0448339
:105190005583668377838FEE93E0918380830895B0
:1051A0001092B0071092AF0710928D0710928C07E3
:1051B0000E940429089581E080938B076093AE07D5
:1051C00010928D0710928C0708950E94DB28089595
:1051D0000F93062F21E040918C076EE877E08091D5
:1051E000AE070E94222910928D0710928C07109210
:1051F0008B070F91089561E00E94E82808958FE7DA
:1052000097E00E94C028089510923E0881E08093A4
:105210003C0810923B0861E082E10E94772061E047
:1052200083E10E947720E9EBF0E080818E7F80832C
:1052300080818D7F808380E28093B80085E48093B5
:10524000BC0008950F93413208F046C090913E088B
:105250009111FCCF92E090933E0800933C089FEFA1
:105260009093D1071092160840931508FB0167E14F
:1052700078E0DB019A2F961B941718F491919D9377
:10528000F9CF10923D0890913D08880F892B8093AB
:105290003D0880913B08813041F410923B08809199
:1052A0003D088093BB0085EC01C085EE8093BC0077
:1052B000222321F080913E088230E1F38091D107D2
:1052C0008F3F61F08091D107803251F08091D107FA
:1052D000803341F483E007C081E005C080E003C073
:1052E00082E001C084E00F910895613298F420912A
:1052F0003E08243089F46093F307FC0185EF97E0C2
:10530000DC012A2F281B261718F421912D93F9CFA1
:1053100080E0089581E0089582E0089585ED80930E
:10532000BC008091BC0084FDFCCF10923E08089523
:1053300085EC8093BC0010923E0808951F920F9256
:105340000FB60F9211242F933F934F935F936F9358
:105350007F938F939F93AF93BF93EF93FF9380912E
:10536000B900887F803609F49CC068F5883209F45A
:105370005BC090F4803109F454C038F4882309F4F8
:10538000F5C0883009F44DC0F5C0883109F44CC02F
:10539000803209F45DC0EEC0803409F468C048F47E
:1053A000803309F455C0883309F0E4C08093D107F5
:1053B000A8C0803509F44FC0883509F45DC0883431
:1053C00009F0D8C0D5C0883909F4C6C0A8F4883718
:1053D00009F467C038F4883609F463C0803709F4EB
:1053E00060C0C8C0883809F4B7C0803909F45FC00C
:1053F000803809F0BFC05BC0803B09F485C038F439
:10540000803A09F466C0883A09F47EC0B3C0803C93
:1054100009F4A6C0883C09F4A3C0883B09F489C0FC
:10542000A9C080913D0810C0909116088091150880
:10543000981770F5E091160881E08E0F809316089A
:10544000F0E0E95EF74F80818093BB0085EC85C07A
:105450008093D1078DC0E091160881E08E0F809374
:1054600016088091BB00F0E0E95EF74F80839091D1
:105470001608809115086DC0E091160881E08E0F26
:10548000809316088091BB00F0E0E95EF74F8083BF
:1054900080913C0881116CC081E080933B0884EAD4
:1054A00060C083E080933E081092D207CFCF8091F6
:1054B000D207803208F050C0E091D20781E08E0F11
:1054C0008093D2078091BB00F0E0ED52F84F8083CB
:1054D000BDCF8091D207803230F4E091D207F0E066
:1054E000ED52F84F10820E948E296091D20770E031
:1054F000E0913708F091380883ED97E00995109214
:10550000D2070E94982936C084E080933E0810920A
:10551000F4071092F307E0913908F0913A080995E1
:105520008091F307811105C081E08093F307109209
:10553000F507E091F40781E08E0F8093F407F0E027
:10554000EB50F84F80818093BB009091F4078091DD
:10555000F307981708F47ACF85E88093BC000AC057
:1055600085EC8093BC0010923E0804C01092D107D5
:105570000E948E29FF91EF91BF91AF919F918F91E2
:105580007F916F915F914F913F912F910F900FBE3F
:105590000F901F9018955058BB27AA270ED027C2EE
:1055A000F0D130F0F5D120F031F49F3F11F41EF42A
:1055B000C0C10EF4E095E7FBB6C1E92F3AD280F303
:1055C000BA17620773078407950718F071F49EF500
:1055D00052C20EF4E0950B2EBA2FA02D0B01B9018B
:1055E00090010C01CA01A0011124FF27591B99F059
:1055F000593F50F4503E68F11A16F040A22F232F65
:10560000342F4427585FF3CF469537952795A795B4
:10561000F0405395C9F77EF41F16BA0B620B730B5B
:10562000840BBAF09150A1F0FF0FBB1F661F771FCC
:10563000881FC2F70EC0BA0F621F731F841F48F481
:10564000879577956795B795F7959E3F08F0B3CF07
:105650009395880F08F09927EE0F979587950895F1
:1056600090D158F080E891E009F49EEF91D128F0B4
:1056700040E851E059F45EEF09C05BC1FCC1E92F7D
:10568000E078D7D168F3092E052AC1F3261737072A
:105690004807590738F00E2E07F8E02569F0E02595
:1056A000E0640AC0EF6307F8009407FADB01B90170
:1056B0009D01DC01CA01AD01EF934AD098D10AD017
:1056C0005F91552331F02BED3FE049E450FD49EC6B
:1056D00063CF0895DF93DD27B92FBF7740E85FE3FD
:1056E0001616170648075B0710F4D92FCFD19F93E2
:1056F0008F937F936F937CD2EAEBF0E01DD177D14B
:105700002F913F914F915F91D4D1DD2349F0905873
:10571000A2EA2AED3FE049EC5FE3D0785D274DDF58
:10572000DF9165C1DCD008F481E0089539D1E395BB
:105730006FC10CD05CC12CD140F023D130F021F4EA
:105740005F3F19F0F0C0511197C1F3C072D198F3C7
:105750009923C9F35523B1F3951B550BBB27AA27F2
:1057600062177307840738F09F5F5F4F220F331F64
:10577000441FAA1FA9F333D00E2E3AF0E0E830D030
:1057800091505040E695001CCAF729D0FE2F27D033
:10579000660F771F881FBB1F261737074807AB0701
:1057A000B0E809F0BB0B802DBF01FF2793585F4F76
:1057B0002AF09E3F510568F0B6C05EC15F3FECF332
:1057C000983EDCF3869577956795B795F7959F5F3B
:1057D000C9F7880F911D9695879597F90895E1E08F
:1057E000660F771F881FBB1F621773078407BA07EE
:1057F00020F0621B730B840BBA0BEE1F88F7E09549
:10580000089504D06894B11137C108951AD188F071
:105810009F5790F0B92F9927B751A0F0D1F0660F9C
:10582000771F881F991F1AF0BA95C9F712C0B130B7
:1058300081F021D1B1E008951EC1672F782F88270C
:10584000B85F39F0B93FCCF3869577956795B395F6
:10585000D9F73EF490958095709561957F4F8F4F65
:105860009F4F0895E89409C097FB3EF4909580956A
:10587000709561957F4F8F4F9F4F9923A9F0F92F16
:1058800096E9BB279395F695879577956795B79594
:10589000F111F8CFFAF4BB0F11F460FF1BC06F5F7A
:1058A0007F4F8F4F9F4F16C0882311F096E911C08C
:1058B000772321F09EE8872F762F05C0662371F0AD
:1058C00096E8862F70E060E02AF09A95660F771FC1
:1058D000881FDAF7880F9695879597F90895990F9D
:1058E0000008550FAA0BE0E8FEEF16161706E807AA
:1058F000F907C0F012161306E407F50798F0621BCB
:10590000730B840B950B39F40A2661F0232B242B9F
:10591000252B21F408950A2609F4A140A6958FEFBE
:10592000811D811D089597F99F6780E870E060E010
:1059300008959FEF80EC0895DF93CF931F930F930B
:10594000FF92EF92DF927B018C01689405C0DA2E02
:10595000EF01AFD0FE01E894A591259135914591D5
:105960005591AEF3EF0129DEFE019701A801DA940B
:1059700079F7DF90EF90FF900F911F91CF91DF911A
:10598000089500240A9416161706180609060895A5
:1059900000240A9412161306140605060895C9CFAA
:1059A00050D0E8F3E894E0E0BB279F57F0F02AEDF1
:1059B0003FE049EC06C0EE0FBB0F661F771F881F44
:1059C00028F0B23A62077307840728F0B25A620BD4
:1059D000730B840BE3959A9572F7803830F49A959F
:1059E000BB0F661F771F881FD2F7904806C1092E8C
:1059F0000394000C11F4882352F0BB0F40F4BF2B2A
:105A000011F460FF04C06F5F7F4F8F4F9F4F089569
:105A1000EF93E0FF06C0A2EA2AED3FE049EC5FEB1E
:105A2000CCDDE5DF0F90039401FC9058E7EEF0E049
:105A3000F7C057FD9058440F551F59F05F3F71F064
:105A40004795880F97FB991F61F09F3F79F08795E5
:105A50000895121613061406551FF2CF4695F1DF6E
:105A600008C0161617061806991FF1CF86957105FE
:105A7000610508940895E894BB2766277727CB0132
:105A800097F908952CDF08F48FEF08959B01AC017E
:105A900060E070E080E89FE34CCE0BD0A8CF71DFD0
:105AA00028F076DF18F0952309F03DCF42CF11247E
:105AB000E3CFBFDFA0F3959FD1F3950F50E0551FC3
:105AC000629FF001729FBB27F00DB11D639FAA2753
:105AD000F00DB11DAA1F649F6627B00DA11D661FA2
