:100000000C9491030C94691D0C94961D0C9466231A
:100010000C948A230C94AE230C94B9030C94B9036A
:100020000C94B9030C94B9030C94B9030C94B90360
:100030000C94B9030C94B9030C94B9030C94B90350
:100040000C94C31D0C94B9030C942C200C946F20B9
:100050000C94B9030C94B9030C94B9030C94B90330
:100060000C94382C0C94B9034B195E1978198B1920
:100070009D19CB19D319DE19E619F019F019F019E9
:10008000F019F019F019F019F019F019F019F01928
:10009000F019F019F019F019F019F019F019F01918
:1000A000F019F019F019F0194B1957195E19781950
:1000B0008B199D19B019B819C019084AD73B3BCE06
:1000C000016E84BCBFFDC12F3D6C74319ABD568357
:1000D0003DDA3D00C77F11BED9E4BB4C3E916BAA0F
:1000E000AABE000000803F05A84CCDB2D44EB9385E
:1000F00036A9020C50B9918688083CA6AAAA2ABE45
:10010000000000803F476569676965204E616E6F3A
:1001100020257300426174746572793D2025303268
:100120006400252500416C61726D3D2564004350DB
:100130004D004D6F6465203D2564002325303464F7
:100140000024504D544B3130342A33370024504D65
:10015000544B3130312A33320024504D544B33311B
:10016000342C302C312C302C312C302C302C302CA9
:10017000302C302C302C302C302C302C302C302C9F
:10018000302C302C302C302A32380024504D544B37
:100190003232302C313030302A31460024504D5428
:1001A0004B3331332C312A32450D0A0024504D5443
:1001B0004B3330312C322A32450D0A0023204E4574
:1001C00057204C4F470A2320666F726D61743D00C3
:1001D000312E322E39006E616E6F0A232064656104
:1001E0006474696D653D6F6E0A0025303464253096
:1001F0003264253032642E6C6F67002425732C2501
:100200003034642C253032642D253032642D253075
:10021000326454253032643A253032643A25303223
:10022000645A2C256C642C256C642C256C642C255C
:10023000632C25732C25632C25732C25632C2573A7
:100240002C25632C25642C256C64002A302558004D
:100250002A2558002530326468253032646D004EFE
:100260006F20475053005E00207553762F680020A2
:1002700042712F6D32006B6D002D2D0042415454A0
:10028000455259204C4F572E4E4F204C4F47474513
:1002900052006B43504D200043504D20006D427181
:1002A0002F6D32006B42712F6D320042712F6D3213
:1002B0000042415454455259204C4F572E4E4F2026
:1002C0004C4F47474552004D783D0075532F6820ED
:1002D0000044733D0075530057726F6E67206D6F59
:1002E0006465202100253032642F253032642025BA
:1002F0003032643A253032643A25303264004E4F51
:100300002053442043415244002530346C642E2550
:1003100030346C64002530356C642E2530346C64C8
:10032000006B43504D002043504D00206D532F680B
:10033000002075532F68002075532F68004A504ED7
:100340000072656164202573203020256400000060
:100350000007000201000003040600000000000086
:10036000000001020408102040800102040810204F
:10037000010204081020040404040404040402021A
:100380000202020203030303030300000000230030
:100390002600290000000000250028002B00000096
:1003A0000000240027002A0000C20100010005000F
:1003B0000500030000E1000001000F000F000D0028
:1003C00000960000020019001A001700127A0000BF
:1003D0000700200021001D00807000000B0023009A
:1003E00023002000004B00001400370037003400C9
:1003F000403800001E004B004B00480080250000E4
:100400003200720072007000C01200006E00E9003D
:10041000E900E60060090000E500D801D801D50137
:10042000B0040000D301B403B403B10358020000C8
:10043000B4036707670762072C0100006707DD0E3A
:10044000DD0EDA0E000000000000005F0000000773
:10045000000700147F147F14242A7F2A1223130814
:10046000646236495620500008070300001C2241F0
:10047000000041221C002A1C7F1C2A08083E080894
:100480000080703000080808080800006060002044
:10049000100804023E5149453E00427F4000724927
:1004A0004949462141494D331814127F10274545CB
:1004B00045393C4A494931412111090736494949E1
:1004C00036464949291E000014000000403400004F
:1004D00000081422411414141414004122140802B8
:1004E000015909063E415D594E7C1211127C7F492B
:1004F0004949363E414141227F4141413E7F494980
:1005000049417F090909013E414151737F080808AB
:100510007F00417F41002040413F017F081422417C
:100520007F404040407F021C027F7F0408107F3ED6
:100530004141413E7F090909063E4151215E7F0943
:10054000192946264949493203017F01033F4040AA
:10055000403F1F2040201F3F4038403F6314081495
:100560006303047804036159494D43007F414141CD
:100570000204081020004141417F040201020440AE
:1005800040404040000307080020545478407F2832
:100590004444383844444428384444287F38545428
:1005A000541800087E090218A4A49C787F0804044B
:1005B0007800447D40002040403D007F10284400EA
:1005C00000417F40007C047804787C08040478387B
:1005D00044444438FC1824241818242418FC7C08AB
:1005E000040408485454542404043F44243C404028
:1005F000207C1C2040201C3C4030403C44281028DB
:10060000444C9090907C4464544C44000836410023
:1006100000007700000041360800020102040200D9
:10062000407A10F35A00A0724E18090010A5D4E8C1
:100630000000E87648170000E40B54020000CA9A54
:100640003B000000E1F505000080969800000040A6
:10065000420F000000A086010000001027000000EB
:1006600000E803000000006400000000000A000031
:100670000000000100000000002C76D888DC674FE5
:100680000823DFC1DFAE59E1B1B796E5E3E453C615
:100690003AE651997696E8E6C28426EB898C9B620D
:1006A000ED407C6FFCEFBC9C9F40F2BAA56FA5F4B7
:1006B00090055A2AF75C936B6CF9676DC11BFCE0DF
:1006C000E40D47FEF520E6B500D0ED902E03009432
:1006D0003577050080841E080000204E0A000000C7
:1006E000C80C333333330F986E12831141EF8D21D1
:1006F00014893BE65516CFFEE6DB18D1844B381B38
:10070000F77C1D901DA4BBE424203284725E2281FC
:1007100000C9F124ECA1E53D2700A61125219A2B63
:10072000DB1111241FBECFEFD8E0DEBFCDBF13E039
:10073000A0E0B1E0E8E3FEE602C005900D92A83D1E
:10074000B107D9F718E0A8EDB3E001C01D92A531BB
:10075000B107E1F717E0C0E2D7E004C02297FE013D
:100760000E941931CA31D107C9F70E94EC210C94BB
:100770000F370C9400008EE00E94AD1EBC0188274C
:1007800077FD8095982F0E94D12E20E030E040E840
:100790005AE30E94EA2F20E030E040E251E40E9458
:1007A000EA2F24EB35EC4AEC5DE30E94362E0895E7
:1007B0001F93CF93DF93182FC0E0D0E0219683E7FB
:1007C00094E00E944422892B51F46AE070E080E0BA
:1007D00090E00E94491EC83CD10581F712C083E712
:1007E00094E00E94F921112319F02EE330E002C0B9
:1007F0002CE330E08217930741F781E0C83CD10534
:1008000009F480E0DF91CF911F9108950F931F931A
:10081000CF93DF9361E082E10E94F81E60E083E104
:100820000E94F81E60E083E00E94F81E40E458E356
:1008300060E070E086E296E00E94AA2088ED93E0F6
:100840000E94811540E855E260E070E083E794E0A3
:100850000E94502461E084E00E94F81E83E794E047
:100860000E94712260E084E00E94301F64E670E024
:1008700080E090E00E94491E61E084E00E94301F09
:1008800081E00E94D803811104C081E08093D504E7
:1008900003C081E08093720480917204882331F058
:1008A00064E073E088ED93E00E94CA1248E853E1E7
:1008B00060E070E080E090E00E94F7110E94111269
:1008C00040E855E260E070E082EE93E00E94502440
:1008D00082EE93E00E94712283E00E94671F0197DD
:1008E00071F461E082E10E94301FEDE6F5E084E6FC
:1008F000DF011D928A95E9F781E491E009C0EDE6F8
:10090000F5E084E6DF011D928A95E9F78DE491E038
:100910009F938F93FF93EF930E94CE316DE675E026
:1009200082EE93E00E94D8210F900F900F900F90CD
:10093000CDE6D5E014E6FE01812F11928A95E9F704
:1009400089E591E09F938F93DF93CF930E94CE31FF
:10095000BE0182EE93E00E94D821FE01812F119208
:100960008A95E9F78BE891E09F938F93DF93CF937C
:100970000E94CE31BE0182EE93E00E94D821FE019A
:10098000812F11928A95E9F78CE991E09F938F93DB
:10099000DF93CF930E94CE31BE0182EE93E00E949E
:1009A000D821FE0111921A95E9F78CEA91E09F9304
:1009B0008F93DF93CF930E94CE31BE0182EE93E0FE
:1009C0000E94D821ADB7BEB750960FB6F894BEBFFF
:1009D0000FBEADBFC8E1D5E068EC70E08B010F5FE2
:1009E0001F4F84E597E00E9421258993B801003DBF
:1009F0001105A1F783E00E94AA1E4CE362E08FEE8E
:100A000094E00E9429298FEE94E00E94332A68EE38
:100A100073E080E090E00E94491E8FEE94E00E9417
:100A2000AF2861E070E08FEE94E00E94E42761E07F
:100A30008FEE94E00E94DE2781E193E09F938F93F5
:100A400085E091E09F938F93C0E2D5E0DF93CF9351
:100A50000E94CE3109900020E9F7C052D54026E02F
:100A60002C9FC0012D9F900D112460E870E0681B41
:100A7000790B7695679540E050E08FEE94E00E9408
:100A8000D8270F900F900F900F900F900F9080919C
:100A90004405811103C067E173E002C069E173E0BE
:100AA0008FEE94E00E94B92160E275E08FEE94E051
:100AB0000E94B92148E050E068E070E08FEE94E0D9
:100AC0000E94D8270E94BB0320E030E040EF51E4B1
:100AD0000E94682D20E030E048E451E40E94EA2FB3
:100AE0000E949E2E6C5E7F4F77FD04C065367105B7
:100AF00024F405C061E070E002C064E670E07F931A
:100B00006F9384E191E09F938F93C0E2D5E0DF93F0
:100B1000CF930E94CE31BE018FEE94E00E94B921A6
:100B200082E291E09F938F93DF93CF930E94CE3127
:100B3000BE018FEE94E00E94B92140E150E067E3EE
:100B400070E08FEE94E00E94D827809162058F9329
:100B5000809161058F9385E291E09F938F93DF935E
:100B6000CF930E94CE31BE018FEE94E00E94B92156
:100B70008EE291E09F938F93DF93CF930E94CE31CB
:100B8000BE018FEE94E00E94B92140E150E068E0A0
:100B900070E08FEE94E00E94D82780916C051F9240
:100BA0008F9382E391E09F938F93DF93CF930E9483
:100BB000CE31BE018FEE94E00E94B92161E08FEE4C
:100BC00094E00E94DE2748E050E065E570E08FEE9B
:100BD00094E00E94D827809157058F938091560505
:100BE0008F938BE391E09F938F93DF93CF930E943A
:100BF000CE318DB79EB780960FB6F8949EBF0FBECC
:100C00008DBFBE018FEE94E00E94B92161E08FEEAE
:100C100094E00E94DE27809146058823F9F0E6E4FF
:100C2000F5E001900020E9F7E754F54026E02E9F1B
:100C3000C0012F9F900D112460E870E0681B790BB4
:100C40007695679548E150E08FEE94E00E94D827B2
:100C500066E475E08FEE94E00E94B9218FEE94E097
:100C60000E94332A68E273E280E090E00E94491E0D
:100C700060E082E1DF91CF911F910F910C94301FC2
:100C80009F92AF92BF92CF92DF92EF92FF920F931B
:100C90001F93CF93DF93A82E6A017B01022FB32EFF
:100CA000CB01BA010E94CF2E20E030E543EC57E49F
:100CB0000E94362E0E94A32E992EEB01182F592F39
:100CC0009B01482F60EA76E881E090E00E94D130F5
:100CD000A7019601261B370B480B590BCA01B90116
:100CE0002AE030E040E050E00E94F530AA20D1F048
:100CF0005F934F933F932F939F921F93DF93CF93D5
:100D000089E093E09F938F93BF920F930E94CE311F
:100D10004DB75EB7445F5F4F0FB6F8945EBF0FBE2E
:100D20004DBF18C05F934F933F932F939F921F9394
:100D3000DF93CF9385E193E09F938F93BF920F93BF
:100D40000E94CE318DB79EB70C960FB6F8949EBF19
:100D50000FBE8DBFDF91CF911F910F91FF90EF904C
:100D6000DF90CF90BF90AF909F900895CF92DF9289
:100D7000EF92FF920F931F93CF93DF930E94CF2E9A
:100D800020E836E948E15BE40E94362E8B01D82F3B
:100D9000C92F9E01712F832F922F0E949E2E88278C
:100DA00077FD8095982F0E94D12E6B017C019B01CD
:100DB000AC01DE01602F712F8B2F9A2F0E94682DBE
:100DC00020E030E040E752E40E94362E20E030E0A0
:100DD00048EC52E40E94EA2FA70196010E94692D77
:100DE000DF91CF911F910F91FF90EF90DF90CF9007
:100DF0000895CF92DF92EF92FF920F931F93CF93BC
:100E0000DF936B017C01142FA90160E070E08FEE8D
:100E100094E00E94D82762E08FEE94E00E94DE27E3
:100E200080910101863549F441E050E060E070E0D6
:100E30008FEE94E00E94EA2706C061E070E08FEE3A
:100E400094E00E94E427CBEED5E080E2FE0111920F
:100E50008A95E9F7C701B601112309F448C0F0E10A
:100E6000CF16F7E2DF06E104F10428F10E94CF2E4D
:100E700020E030E04AE754E40E94362E00E215E01C
:100E800023E044E00E943D3144E050E0B801CE014F
:100E90000E94933109900020E9F7229788818E32D1
:100EA00009F418826BEE75E08FEE94E00E94B92190
:100EB00081E293E0A9C00E94CF2E00E215E020E07D
:100EC00040E00E943D31B8018FEE94E00E94B921CC
:100ED00086E293E09F938F93C8019F930F930E94A4
:100EE000CE310F900F900F900F90B8019BC00E94D1
:100EF000CF2E2091590530915A0540915B055091B4
:100F00005C050E94362E6B017C0120E030E04AE750
:100F100054E47D2D9F2D0E94DF2F87FD28C020E007
:100F200030E04AE754E46C2D7D2D8E2D9F2D0E94DC
:100F3000362E00E215E022E044E00E943D3145E01B
:100F400050E0B8018BEE95E00E94933109900020AB
:100F5000E9F7229788818E3209F418826BEE75E0EA
:100F60008FEE94E00E94B9218BE293E04DC020E027
:100F700030E040E251E46C2D7D2D8E2D9F2D0E949E
:100F8000DF2F00E215E087FD20C022E044E06C2D59
:100F90007D2D8E2D9F2D0E943D3145E050E0B80102
:100FA0008BEE95E00E94933109900020E9F722979B
:100FB00088818E3209F418826BEE75E08FEE94E032
:100FC0000E94B92181E393E01FC023E044E06C2D2F
:100FD0007D2D8E2D9F2D0E943D3146E050E0B801C1
:100FE0008BEE95E00E94933109900020E9F722975B
:100FF00088818E3209F418826BEE75E08FEE94E0F2
:101000000E94B92187E393E09F938F9380E295E05C
:101010009F938F930E94CE310F900F900F900F905F
:1010200060E275E08FEE94E0DF91CF911F910F9118
:10103000FF90EF90DF90CF900C94B9212F923F92C8
:101040004F925F926F927F928F929F92AF92BF92D8
:10105000CF92DF92EF92FF920F931F93CF93DF9384
:10106000CDB7DEB7A1970FB6F894DEBF0FBECDBFE8
:1010700083E10E94AD1E853F91401CF01092440513
:1010800007C081E08093440560E082E10E94301F48
:101090000E94BB0320E030E040EF51E40E94682D45
:1010A0000E949E2E161617064CF068EE73E080E044
:1010B00090E00E94491E81E08093440582EE93E017
:1010C0000E9471220E940D1E6B017C010FC082EEF6
:1010D00093E00E94F921682F8EEF93E00E94F819A7
:1010E00082EE93E00E944422892B89F70E940D1E14
:1010F00097018601061B170B280B390BC616D7065E
:10110000E806F90618F0D901C80106C0D901C801DE
:1011100080959095A095B095883E9340A105B10526
:1011200010F00C9440110E942412892BC9F20C94E7
:1011300040110E946B126D8B7E8B8F8B988F0E945B
:1011400011128091A1049091A204A091A304B091E6
:10115000A404FC01EE0FFF1FEE0FFF1FEB55FB4F2A
:101160002D893E894F89588D208331834283538353
:10117000BC01CD016F5F7F4F8F4F9F4F2CE030E060
:1011800040E050E00E94F5306093A1047093A20407
:101190008093A3049093A404E5EAF4E060E070E097
:1011A000CB010191119121913191600F711F821F2B
:1011B000931F34E0E53DF307A1F70E94CF2E6B01AA
:1011C0007C0122EB35EC4CEF55E30E94EA2F9B01AA
:1011D000AC0160E070E080E89FE30E94682D9B0115
:1011E000AC01C701B6010E94362E0E94A32E2B012E
:1011F0003C0180919D0490919E04A0919F04B09128
:10120000A0042D893E894F89588D820F931FA41FFA
:10121000B51F80939D0490939E04A0939F04B09368
:10122000A0048091950490919604A0919704B091A8
:1012300098040596A11DB11D809395049093960482
:10124000A0939704B09398048091990490919A0484
:10125000A0919B04B0919C0484159505A605B70543
:1012600040F44092990450929A0460929B047092C8
:101270009C048091180590911905A0911A05B091D0
:101280001B052D893E894F89588D820F931FA41FFE
:10129000B51F8093180590931905A0931A05B09374
:1012A0001B0560911C0570911D0580911E05909194
:1012B0001F056B5F7F4F8F4F9F4F60931C0570938F
:1012C0001D0580931E0590931F0520E13EE040E040
:1012D00050E00E94F530672B682B692B41F080911C
:1012E0008F04909190048C309105ACF01DC068EC97
:1012F00070E008E115E0D8014D918D017B01BFEF51
:10130000EB1AFB0A84E597E00E942425B701603DB3
:10131000710589F7E4CF26E52093010101969093AA
:10132000900480938F040AC0411451046104710435
:1013300011F486E501C081E4809301018091D50418
:10134000811175C080910001813409F070C08DED6C
:1013500097E09E878D871A8A198A188A1F861986B0
:101360001D8288248394912C8C0E9D1E95E0A92EBD
:10137000B12CAC0EBD1E29E0C22ED12CCC0EDD1E30
:101380003FE0E32EF12CEC0EFD1E8E01005F1F4F9F
:101390009E012F5E3F4FAE014E5E5F4FBE01635F09
:1013A0007F4F8EEF93E00E94211C89819A81AB814F
:1013B000BC818F3F9F4FAF4FBF4FC9F189891F92AB
:1013C0008F938A891F928F93809157058F93809175
:1013D00056058F938AEE91E09F938F9386ED94E06C
:1013E0009F938F930E94CE310FB6F894DEBF0FBE4D
:1013F000CDBF81E08093D50483E794E00E94712201
:101400006BE173E083E794E00E94B92166ED74E03C
:1014100083E794E00E94B9216DE083E794E00E94A5
:10142000F72280E00E94D803811143C730C784E6C9
:10143000EDE6F5E0DF011D928A95E9F78DED97E085
:101440009E878D871C8A1B8A1A8A198A188A1F868A
:1014500019861A861B861C861D821E821F8218868C
:101460008CE0E1EDF5E0DF01282F1D922A95E9F7E8
:10147000EDEDF5E0DF011D928A95E9F780E2E0E20B
:10148000F5E0DF011D928A95E9F788248394912C79
:101490008C0E9D1EBFE0AB2EB12CAC0EBD1E10E11C
:1014A000C12ED12CCC0EDD1E01E1E02EF12CEC0E74
:1014B000FD1E8E010E5E1F4F9E012D5E3F4FAE0141
:1014C0004C5E5F4FBE01635F7F4F8EEF93E00E94E3
:1014D000211C89819A81AB81BC818F3F9F4FAF4F87
:1014E000BF4F51F48CED97E09E878D871C8A1B8A35
:1014F0001A8A198A188A1F869E012F5F3F4FAE01F4
:101500004B5F5F4FBE01675F7F4F8EEF93E00E949E
:10151000851B80916604811102C086E501C081E4CB
:10152000809300018EEF93E00E94F11C6F8F78A3EF
:101530001C018EEF93E00E94271D6B017C0120911E
:101540003E0430913F043E8F2D8F80903604909062
:101550003704A0903804B090390489859A85AB850A
:10156000BC85B7FF0EC0B095A095909581959F4F13
:10157000AF4FBF4F89879A87AB87BC8733E539A3C5
:1015800002C04EE449A38D819E81AF81B885B7FF2B
:101590000EC0B095A095909581959F4FAF4FBF4FCE
:1015A0008D839E83AF83B88757E5598F02C085E44A
:1015B000898F49855A856B857C854F3F99EC590702
:1015C0009AE969079BE3790719F440E050E0BA0112
:1015D00021ED35E081E00E9440064D815E816F8102
:1015E00078854F3FA9EC5A07AAE96A07ABE37A0767
:1015F00019F440E050E0BA012DED35E080E00E94A2
:10160000400620918E0330918F03409190035091BA
:101610009103BF8DA8A16B2F7A2F822D932D0E944D
:101620002F2E811104C070E060E090E004C07F8D37
:1016300068A1922D832D00E215E022E040E0FB013D
:10164000382F6F2F7E2F892F932F0E943D3184E6F4
:10165000EDE6F5E0DF011D928A95E9F7BFEF8B1605
:101660009B06AB06BB0619F4812C912C5401ED8D21
:10167000FE8DEF3FF10519F480E090E002C08D8D02
:101680009E8DBF92AF929F928F929F938F938091E6
:1016900000011F928F9380E295E09F938F931F929A
:1016A000F98DFF938DED95E09F938F931F9229A164
:1016B0002F9381ED95E09F938F93809101011F926D
:1016C0008F938091A0048F9380919F048F9380913A
:1016D0009E048F9380919D048F93388D3F934F8903
:1016E0004F935E895F938D898F937F926F925F9204
:1016F0004F9288891F928F9389891F928F938A892D
:101700001F928F938B891F928F938C891F928F9337
:101710008E858F938D858F93809157058F938091C0
:1017200056058F9383E293E09F938F938BEF91E025
:101730009F938F930DE615E01F930F930E94CE3178
:10174000F80101900020E9F73197E01BF10BFF272A
:10175000BF01600F711FDB011C9240916E058FE687
:1017600095E00FB6F894DEBF0FBECDBF0095109583
:1017700004C0DC012D91CD0142279C01200F311FB7
:101780002E173F07B4F3403128F41F924F938BE498
:1017900092E004C01F924F9380E592E09F938F9355
:1017A0007F936F930E94CE310F900F900F900F9008
:1017B0000F900F9080916604882309F4B1C0698569
:1017C0007A858B859C850E94B6066D8B7E8B8F8B70
:1017D000988F6D817E818F8198850E94B606698F72
:1017E0007A8F8B8F9C8F20E030E040EA50E4C70175
:1017F000B6010E94DF2F181624F0F9E18F2E912CEC
:1018000003C0E5E08E2E912C20E030E040E251E470
:10181000C701B6010E94DF2F18161CF47AE0872E4C
:10182000912C20E030E040E751E4C701B6010E946E
:10183000DF2F18161CF464E1862E912C8091020192
:101840008823D9F02D893E894F89588D2093E7044C
:101850003093E8044093E9045093EA04898D9A8D0B
:10186000AB8DBC8D8093EB049093EC04A093ED04BE
:10187000B093EE041092020153C0A090EB04B0901C
:10188000EC04C090ED04D090EE04E090E704F090FA
:10189000E8040091E9041091EA04298D3A8D4B8DFA
:1018A0005C8D6D897E898F89988D0E94771A0E9440
:1018B0009E2EAB01BC01AA2497FCA094BA2C8416DE
:1018C0009506A606B70660F58091E3049091E404BE
:1018D000A091E504B091E604840F951FA61FB71FE1
:1018E0008093E3049093E404A093E504B093E604AA
:1018F0002D893E894F89588D2093E7043093E80461
:101900004093E9045093EA04898D9A8DAB8DBC8D88
:101910008093EB049093EC04A093ED04B093EE0459
:101920008FEE94E00E94AF28809144058111B8C1E8
:101930008090950490909604A0909704B09098049D
:10194000C501B40120E13EE040E050E00E94F530E6
:101950008901309394042093930424EC20037001B4
:10196000219FF00C1124C501B4012CE330E040E0CC
:1019700050E00E94F530E20EF31EF0929204E092E5
:101980009104FF92EF921F930F9384E592E09F934F
:101990008F9380E295E09F938F930E94CE3148E130
:1019A00050E06CE570E08FEE94E00E94D82761E093
:1019B0008FEE94E00E94DE2761E070E08FEE94E00D
:1019C0000E94E42760E275E08FEE94E00E94D82147
:1019D0000FB6F894DEBF0FBECDBF809101018134F8
:1019E00039F480916604811193C402C061E001C0A2
:1019F00060E082E10E94301F20E030E041E0C3015E
:101A0000B2010E94F90661E070E08FEE94E00E945E
:101A1000E42761E08FEE94E00E94DE278091660467
:101A2000811125C048E050E06CE570E08FEE94E055
:101A30000E94D82741E050E060E070E08FEE94E033
:101A40000E94EA278FE592E09F938F9380E295E0D2
:101A50009F938F930E94CE3160E275E08FEE94E009
:101A60000E94D8210F900F900F900F9033C061E02B
:101A700070E08FEE94E00E94E42748E050E06EE6CC
:101A800070E08FEE94E00E94D827BE8DBF93ED8D5D
:101A9000EF9389E293E09F938F9300E215E01F9309
:101AA0000F930E94AA31B8018FEE94E00E94B921F1
:101AB00086E692E09F938F931F930F930E94CE31FF
:101AC000B8018FEE94E00E94D8210FB6F894DEBFE3
:101AD0000FBECDBF61E070E08FEE94E00E94E4277E
:101AE00040E150E060E070E08FEE94E00E94D82783
:101AF0008091450581111CC0C301B2010E94CF2E07
:101B00002091590530915A0540915B0550915C0533
:101B10000E94362E00E215E023E040E00E943D31B5
:101B2000B8018FEE94E00E94B92188E692E01DC0D2
:101B3000813059F5C301B2010E94CF2E20915D057D
:101B400030915E0540915F05509160050E94EA2F3B
:101B500000E215E023E040E00E943D31B8018FEE45
:101B600094E00E94B9218FE692E09F938F93C80181
:101B70009F930F930E94CE31B8018FEE94E00E94A4
:101B8000D8210F900F900F900F908091E9059091C0
:101B9000EA05892B09F440C06091E3047091E404E4
:101BA0008091E5049091E6040E94CF2E20E030E081
:101BB0004AE754E40E94362E00E215E021E040E0BE
:101BC0000E943D31F80101900020E9F73197E01BB8
:101BD000F10B26E02E9FC0012F9F900D112464E78A
:101BE00070E0681B790B40E150E08FEE94E00E94BA
:101BF000D827B8018FEE94E00E94B92186E792E0E1
:101C00009F938F931F930F930E94CE31B8018FEE55
:101C100094E00E94D82160C280916604882369F014
:101C200000E215E020E040E0FF8DE8A16F2F7E2F5D
:101C3000822D932D0E943D310EC089E792E09F9343
:101C40008F9380E295E09F938F930E94CE310F9007
:101C50000F900F900F90E0E2F5E001900020E9F77F
:101C60003197E052F54026E02E9FC0012F9F900D46
:101C700011246AE770E0681B790B40E150E08FEEB9
:101C800094E00E94D82760E275E08FEE94E00E9415
:101C9000B92162E473E08FEE94E00E94D82120C263
:101CA000813009F0F4C160E082E10E94301F809130
:101CB000610590916205A0E0B0E084159505A60548
:101CC000B70510F461E001C060E082E10E94301FBE
:101CD00020E030E040E0C301B2010E94F9065BEE73
:101CE000E52E55E0F52E80E2D7011D928A95E9F7A1
:101CF00040E150E060E070E08FEE94E00E94D82771
:101D000061E08FEE94E00E94DE2761E070E08FEEEC
:101D100094E00E94E4278091E9059091EA05892BDF
:101D200009F4F8C00E94BB0320E030E040EF51E42A
:101D30000E94682D0E949E2E161617065CF041E048
:101D400050E060E070E08FEE94E00E94EA278CE7BC
:101D500092E0B4C1C301B201B8EE4B16B3E05B062A
:101D60006104710488F10E94CF2E20E030E04AE740
:101D700054E40E94362E00E215E021E040E00E948B
:101D80003D3144E050E0B8018BEE95E00E94933184
:101D9000F70101900020E9F7329780818E3209F433
:101DA00010826BEE75E08FEE94E00E94B92182E91B
:101DB00092E09F938F9380E295E09F938F930E9490
:101DC000CE3160E275E017C00E94CF2E00E215E030
:101DD00020E040E00E943D31B8018FEE94E00E9487
:101DE000B92188E992E09F938F93C8019F930F9345
:101DF0000E94CE31B8018FEE94E00E94B9210F907D
:101E00000F900F900F9080E2EBEEF5E0DF011D9256
:101E10008A95E9F7C301B2010E94CF2E20915D059A
:101E200030915E0540915F05509160050E94EA2F58
:101E30006B017C0120E034E244E759E47D2D9F2DC5
:101E40000E94DF2F87FD20C020E034E244E759E400
:101E50006C2D7D2D8E2D9F2D0E94362E00E215E0DB
:101E600021E040E00E943D3145E050E0B8018BEEBA
:101E700095E00E9493316BEE75E08FEE94E00E9446
:101E8000B9218DE992E03DC020E030E44CE156E418
:101E90006C2D7D2D8E2D9F2D0E94DF2F87FD20C064
:101EA00020E030E04AE754E46C2D7D2D8E2D9F2DEF
:101EB0000E94362E00E215E020E040E00E943D3115
:101EC00045E050E0B8018BEE95E00E9493316BEE57
:101ED00075E08FEE94E00E94B92184EA92E011C08F
:101EE00000E215E020E040E06C2D7D2D8E2D9F2D31
:101EF0000E943D31B8018FEE94E00E94B9218BEA37
:101F000092E09F938F93C8019F930F930E94CE31CD
:101F1000B801DEC00E94BB0320E030E040EF51E496
:101F20000E94682D0E949E2E161617065CF041E056
:101F300050E060E070E08FEE94E00E94EA2781EBD1
:101F400092E0BCC087EC92E09F938F9340E2A42E76
:101F500045E0B42EBF92AF920E94CE31B5018FEE14
:101F600094E00E94B9216091990470919A04809143
:101F70009B0490919C040E94CF2E20915905309192
:101F80005A0540915B0550915C050E94362E8501F3
:101F900021E040E00E943D31B5018FEE94E00E94C7
:101FA000B9218BEC92E09F938F93BF92AF920E94E6
:101FB000CE31B5018FEE94E00E94B92181ED92E01F
:101FC0009F938F93BF92AF920E94CE31B5018FEE57
:101FD00094E00E94B92160911C0570911D058091CB
:101FE0001E0590911F050E94CF2E6B017C01609110
:101FF00018057091190580911A0590911B050E9492
:10200000CF2E2B013C0120E030E040E752E4C70135
:10201000B6010E94362E9B01AC01C301B2010E94A1
:10202000362E2091590530915A0540915B0550910B
:102030005C050E94362E2B013C0120E030E041E699
:1020400055E4C701B6010E94362E9B01AC01C301C5
:10205000B2010E94EA2F20E040E00E943D31B5012C
:102060008FEE94E00E94B92185ED92E09F938F93CB
:10207000BF92AF920E94CE31B5018FEE94E00E94E4
:10208000B9210FB6F894DEBF0FBECDBF29C040E026
:1020900050E060E070E08FEE94E00E94D82762E0AC
:1020A0008FEE94E00E94DE2741E050E060E070E0B7
:1020B0008FEE94E00E94EA2788ED92E09F938F9341
:1020C00080E295E09F938F930E94CE3160E275E0AD
:1020D0008FEE94E00E94B9210F900F900F900F9017
:1020E000809172048823C1F188891F928F93898916
:1020F0001F928F938A891F928F938C891F928F933F
:102100008B891F928F9385EE92E09F938F9380E24D
:1021100095E09F938F930E94CE3148E150E060E0BC
:1021200070E08FEE94E00E94D82761E08FEE94E09B
:102130000E94DE2761E070E08FEE94E00E94E427C9
:1021400060E275E08FEE94E00E94D8210FB6F8941B
:10215000DEBF0FBECDBF29C048E150E060E070E0B7
:102160008FEE94E00E94D82761E08FEE94E00E9409
:10217000DE2741E050E060E070E08FEE94E00E94E6
:10218000EA278EEF92E09F938F9380E295E09F93F2
:102190008F930E94CE3160E275E08FEE94E00E9452
:1021A000B9210F900F900F900F900E94BB0320E079
:1021B00030E040EF51E40E94682D0E949E2E6B019A
:1021C00077FD04C06930710524F406C0C12CD12C00
:1021D00003C038E0C32ED12C80914405EE24E39453
:1021E000F12C07E010E02CE030E0813071F448E1A0
:1021F00050E064E770E08FEE94E00E94F62503E083
:1022000010E096014AE150E00DC040E050E064E784
:1022100070E08FEE94E00E94F62503E010E0960156
:1022200042E050E066E770E08FEE94E00E94722694
:102230008FEE94E00E94332A8091E9059091EA059F
:1022400041E084279093EA058093E9056DE675E007
:1022500086E296E00E94D8218091D504882309F473
:102260005CC080914405811158C083E794E00E94CE
:1022700071226DE675E083E794E00E94D8214DC09D
:102280000E942412892B09F448C00C94990860E03C
:1022900084E00E94301F64E670E080E090E00E94DD
:1022A000491E61E084E00E94301F81E00E94D80353
:1022B000A7C88CEB91E09F938F9300E215E01F93EA
:1022C0000F930E94CE31B80183E794E00E94B921B8
:1022D00080ED91E09F938F931F930F930E94CE31D7
:1022E000B80183E794E00E94B92186ED91E09F93C5
:1022F0008F931F930F930E94CE31B80183E794E030
:102300000E94B9210FB6F894DEBF0FBECDBF8FC8B3
:102310008091720481116ACB6BCBA1960FB6F894B1
:10232000DEBF0FBECDBFDF91CF911F910F91FF9008
:10233000EF90DF90CF90BF90AF909F908F907F9065
:102340006F905F904F903F902F900895EF92FF9283
:102350000F931F935CE0E52E0DE02BE04AE069E06F
:102360008FEE94E00E949E2820E045E066E083E73F
:1023700094E00E94202461E08EEF93E00E940B160F
:1023800020E047E068E082EE93E00E94202464E6CB
:10239000E62EF12C0DE615E028E135E040E455E0AD
:1023A00063E774E088ED93E00E9474121F910F912F
:1023B000FF90EF90089582EE93E00E941A2583E744
:1023C00094E00C941A2580910B0690910C06A09134
:1023D0000D06B0910E060196A11DB11D80930B064E
:1023E00090930C06A0930D06B0930E06089580936B
:1023F00017069093180640930F06509310066093AB
:1024000011067093120610920B0610920C06109291
:102410000D0610920E0643E050E063EE71E10C945D
:10242000491D0E940D1E609313067093140680933D
:1024300015069093160610920B0610920C06109239
:102440000D0610920E060895CF92DF92EF92FF9242
:102450000F931F930E940D1EC0901306D090140678
:10246000E0901506F090160600910F0610911006E8
:1024700020911106309112066C157D058E059F0581
:1024800088F0AB01BC014C195D096E097F09E1E0E0
:10249000F0E0401751076207730710F4E0E0F0E046
:1024A000CF0112C0C094D094E094F094C60ED71E11
:1024B000E81EF91E41E050E0C016D106E206F30620
:1024C00010F440E050E0CA011F910F91FF90EF908F
:1024D000DF90CF90089560910B0670910C0680916B
:1024E0000D0690910E060895EF92FF920F931F93A1
:1024F000FC01718360835383428335832483178374
:102500000683F186E0861F910F91FF90EF9008956A
:10251000EF92FF920F931F93CF93DF938B01035D95
:102520001F4FEB017C01E61AF70ABE016E0D7F1DFD
:10253000499184E597E00E942425C017D107A9F7A7
:102540008DE290E0DF91CF911F910F91FF90EF907E
:102550000895EF92FF920F931F93CF93DF938B0118
:10256000085F1F4FEB017C01E61AF70ABE016E0DF2
:102570007F1D499184E597E00E942425C017D1076B
:10258000A9F788E090E0DF91CF911F910F91FF9024
:10259000EF9008956F927F928F929F92AF92BF9229
:1025A000CF92DF92EF92FF920F931F93CF93DF931F
:1025B00000D0CDB7DEB73C01DC018D919C916983E1
:1025C0007A830E947122F30181858F9380858F9396
:1025D0007A817F9369816F9381E493E09F938F93D6
:1025E00087818F9386818F930E94CE31D301169677
:1025F0006D917C9117978D919C910E94B921F30167
:1026000080819181DC01ED91FC910190F081E02DC0
:102610006DE009950FB6F894DEBF0FBECDBFD301B4
:102620008D919C91DC01ED91FC910480F581E02D70
:102630000995892BA1F3F30180819181DC01ED9152
:10264000FC910680F781E02D09950D9741F7F30184
:102650004085518560E070E0868197810E947C31E1
:1026600000E010E0E12CD3018D919C91DC01ED9113
:10267000FC910480F581E02D0995892B99F0F301F7
:10268000068117810E0D111D80819181DC01ED9174
:10269000FC910680F781E02D0995F8018083E39491
:1026A00000E010E061E070E080E090E00E94491EF0
:1026B0002E2D30E0D30118968D919C9119972817F3
:1026C000390729F4F12CC12C88E0D82EE5C10F5F21
:1026D0001F4F083EB3E01B0734F2F4CFF3018681AD
:1026E0009781FC01EF0DF11D60E00BC06F5F4F2D76
:1026F00050E0D30118962D913C911997421753073A
:1027000039F0DC01AF0DB11D2C91F3942A3071F733
:10271000DF01A60FB11D1C928081882309F4BCC182
:10272000833209F4B9C1633008F4B6C180E05F01B7
:10273000A80EB11CD5019C91903209F4C9C1993001
:1027400009F4C6C106C0903211F0993009F41C9208
:102750008F5F861709F4A0C1DF01A80FB11D9C91FE
:102760009D3389F7861709F497C11C928F5F8F01FB
:10277000080F111DD8019C91903209F4ADC1993018
:1027800009F4AAC1861709F487C16DE273E0C50197
:102790000E948331009751F5C8010E945E31BC014F
:1027A000882777FD8095982F0E94D12E4B015C01E0
:1027B000F30102811381762F272F392D4A2D5B2DAE
:1027C000D80159966D917D918D919C915C970E9455
:1027D0002F2E882309F460C1882D992DAA2DBB2D99
:1027E000F801818F928FA38FB48F38C162E373E0B9
:1027F000C5010E948331009761F5C8010E945E31D6
:10280000BC01882777FD8095982F0E94D12E4B011F
:102810005C01D30112960D911C911397762F272FEF
:10282000392D4A2D5B2DF801658D768D878D90A110
:102830000E942F2E882309F42FC1482D592D6A2D6F
:102840007B2DD8015D964D935D936D937C9390970E
:1028500005C167E373E0C5010E948331009739F435
:10286000F301A280B380F6E0AF0EB11C74C06AE33E
:1028700073E0C5010E948331009799F4D301129649
:10288000AD90BC901397C8010E945E319C01F50188
:10289000868997898217930709F4FEC0378B268BA8
:1028A000DDC06EE373E0C5010E948331009789F4B7
:1028B000D3011296AD90BC901397C8010E945E316F
:1028C000F501248130E02817390709F4E5C0848335
:1028D000C5C061E473E0C5010E948331009789F4AB
:1028E000D3011296AD90BC901397C8010E945E313F
:1028F000F501258130E02817390709F4CDC085831B
:10290000ADC064E473E0C5010E948331009799F47F
:10291000D3011296AD90BC901397C8010E945E310E
:102920009C01F50181A192A18217930709F4B4C01B
:1029300032A321A393C067E473E0C5010E948331F1
:102940000097A9F4D80113961C92F301A280B380DA
:10295000F4E2AF0EB11CB801C5010E9483310097AB
:1029600009F49AC0B801C5010E948C3177C06AE4AD
:1029700073E0C5010E948331009789F4D301129658
:10298000AD90BC901397C8010E945E31F50123A160
:1029900030E02817390709F47FC083A35FC06DE4D6
:1029A00073E0C5010E948331009789F4D301129628
:1029B000AD90BC901397C8010E945E31F50120A52F
:1029C00030E02817390709F467C080A747C060E5E1
:1029D00073E0C5010E948331009789F4D3011296F8
:1029E000AD90BC901397C8010E945E31F50121A5FE
:1029F00030E02817390709F44FC081A72FC063E5DD
:102A000073E0C5010E948331009791F4D3011296BF
:102A1000AD90BC901397C8010E945E319C01F501F6
:102A200082A593A582179307B9F133A722A716C0F1
:102A300066E573E0C5010E948331009791F4D301EC
:102A40001296AD90BC901397C8010E945E31F501BB
:102A500024A530E028173907F9F084A7CC24C394C3
:102A60001BC069E573E0C5010E9483310097A1F4A2
:102A7000D3011496EC9114971596FC91DF018D2DDE
:102A80001D928A95E9F7D30114966D917C91159763
:102A900088EC90E00E94A912FE1408F41FCECC200E
:102AA000F9F0F3016281738184EF91E00F900F9050
:102AB000DF91CF911F910F91FF90EF90DF90CF901A
:102AC000BF90AF909F908F907F906F900C948812E2
:102AD0008F5F86132CCEE0CF8F5F861348CEDCCF7E
:102AE0000F900F90DF91CF911F910F91FF90EF907A
:102AF000DF90CF90BF90AF909F908F907F906F901E
:102B00000895EF92FF920F931F93CF93DF93EC0101
:102B1000EA81FB818DE2DF011D928A95E9F70A8146
:102B20001B8164EF71E07B01BFEFEB1AFB0A84E5C8
:102B300097E00E942125F80181938F01B701F1E20E
:102B4000EF16F2E0FF0679F7EA81FB81808191813F
:102B5000A281B3818D30904FAE4FBA4509F454C075
:102B60008DE2DF011D928A95E9F7EA81FB818DE014
:102B700090EFAEEFBAE580839183A283B383178A87
:102B8000168A89E083A38DE393E09F938F938A81D4
:102B90009B8184969F938F930E94CE31EA81FB8123
:102BA0008CE3808FEA81FB8140E050E067EA73E4C8
:102BB000418F528F638F748F40E050E064E172E484
:102BC000458F568F678F70A384E690E093A782A706
:102BD000BF0184EF91E00E948812EC81FD8188E0C2
:102BE000DF011D928A95E9F70F900F900F900F90DB
:102BF0006C817D8188EC90E0DF91CF911F910F91E6
:102C0000FF90EF900C94A912DF91CF911F910F913B
:102C1000FF90EF9008950F931F93FC01862F0FEF05
:102C20001FEF98010083118322833383108611865E
:102C3000128613864FEF59EC6AE97BE3408B518B88
:102C4000628B738B408F518F628F738F40A351A320
:102C500062A373A340A751A762A773A740AB51AB70
:102C600062AB73AB00AF11AF22AF33AFDF01A05C3B
:102C7000BF4F4FEF50E04D935C93DF01AC5BBF4F14
:102C80000D931D932D933C931397DF01A45BBF4FCE
:102C90000D931D932D933C931397DF01AC5ABF4FB7
:102CA0001C92DF01AB5ABF4F1C92DF01AB59BF4FE3
:102CB00092E09C93DF01AA59BF4F1C92DF01A959F2
:102CC000BF4F1C92DF01A859BF4F1C92DF01A659CC
:102CD000BF4F1D921D921D921C921397DF01A259A6
:102CE000BF4F1D921C92DF01A059BF4F1D921C9235
:102CF000DF01AA5ABF4F1C92E759FF4F80831F91F3
:102D00000F910895862F8154262F30E0863018F4D5
:102D10002753310908C06156663018F42755310928
:102D200002C020533109C9010895CF93FB0120E06F
:102D300030E0A9010EC0AAE0B0E00E94BE309B01C5
:102D4000AC012C0F311D411D511D2053310941098A
:102D50005109C1918C2F80538A3068F3B901CA019F
:102D6000CF9108952F923F924F925F926F927F92F0
:102D70008F929F92AF92BF92CF92DF92EF92FF928B
:102D80000F931F93CF93DF93EC01CA5ADF4FBE011D
:102D90000E9495161B018C01FE018191982F905382
:102DA0009A30D8F38E3241F5EF0180E1882E87E228
:102DB000982EA12CB12CC12CD12C76019AE0492E51
:102DC000512C612C712C12C0B0E0D097A501940158
:102DD0000E94C930C60ED71EE81EF91EC501B401F7
:102DE000A30192010E94F53049015A01A9918A2F4D
:102DF00080538A3048F303C0C12CD12C7601910155
:102E0000A80160EA76E881E090E00E94D1308B0171
:102E10009C010C0D1D1D2E1D3F1DB801C901DF9128
:102E2000CF911F910F91FF90EF90DF90CF90BF90C7
:102E3000AF909F908F907F906F905F904F903F905A
:102E40002F9008952F923F924F925F926F927F92B0
:102E50008F929F92AF92BF92CF92DF92EF92FF92AA
:102E60000F931F93CF93DF93EC01CA5ADF4FBE013C
:102E70000E9495163B018C0124E630E040E050E0D2
:102E80000E94F5309B01AC0160EA76E881E090E0B9
:102E90000E94D1306B017C01FE018191982F9053EB
:102EA0009A30D8F38E3221F5EF0120E1822E27E20D
:102EB000922EA12CB12C3AE0232E312C412C512CF6
:102EC00012C0B0E0D097A50194010E94C930C60E8F
:102ED000D71EE81EF91EC501B401A20191010E948E
:102EE000F53049015A01A9918A2F80538A3048F35D
:102EF000C701B6016B5F7F4F8F4F9F4F26E030E0D9
:102F000040E050E00E94F53069017A01B301C80148
:102F100024E630E040E050E00E94F53060E472E4E6
:102F20008FE090E00E94D130C60ED71EE81EF91E39
:102F3000B601C701DF91CF911F910F91FF90EF90E4
:102F4000DF90CF90BF90AF909F908F907F906F90C9
:102F50005F904F903F902F900895FF920F931F9393
:102F6000CF93DF93EC01CA5ADF4FFF24F3942881FB
:102F70002D3211F0F12C03C0EC01C95ADF4FBE0114
:102F80000E9495169B01AC01A4E6B0E00E94BE3001
:102F90008B019C01FE018991982F90539A30D0F3B8
:102FA0008E3211F58181982F90539A30E8F44AE0DF
:102FB000849FC0011124805E9140AA2797FDA095AF
:102FC000BA2F080F191F2A1F3B1F8281982F905379
:102FD0009A3050F490E0C097AA2797FDA095BA2F99
:102FE000080F191F2A1F3B1FFF2039F0309520952D
:102FF000109501951F4F2F4F3F4FB801C901DF9129
:10300000CF911F910F91FF900895DB01FA018D91EF
:10301000882319F091918917D1F390E00895EF92E8
:10302000FF920F931F93CF93DF93EC01FC01EB5AB8
:10303000FF4F8081FE01882309F4ECC0EA5AFF4F5C
:103040006081CE010E948216182FFE01E95AFF4FBF
:103050006081CE010E94821620E1129F800D112412
:10306000FE01EC5AFF4F90818913CEC0FE01E85952
:10307000FF4F8081882309F493C0FE01E259FF4F7E
:1030800080819181019691838083FE01EC5BFF4FEB
:10309000DE01A85BBF4F8D919D910D90BC91A02D3D
:1030A00080839183A283B383FE01E45BFF4FDE0143
:1030B000A05BBF4F8D919D910D90BC91A02D808301
:1030C0009183A283B383FE01EB59FF4F8081882354
:1030D000A1F1813009F082C18C819D81AE81BF81D7
:1030E00088839983AA83BB838C859D85AE85BF85A4
:1030F00088879987AA87BB878C899D89AE89BF8974
:10310000888B998BAA8BBB8B8C8D9D8DAE8DBF8D43
:10311000888F998FAA8FBB8F8CA59DA5AEA5BFA5C3
:1031200088A799A7AAA7BBA78CA99DA9AEA9BFA943
:1031300088AB99ABAAABBBAB51C18CA19DA1AEA191
:10314000BFA188A399A3AAA3BBA38C819D81AE81B3
:10315000BF8188839983AA83BB838C899D89AE892B
:10316000BF89888B998BAA8BBB8B8C8D9D8DAE8DE7
:10317000BF8D888F998FAA8FBB8FFE01E05CFF4FB8
:10318000DE01AE5BBF4F8D919C91918380838CADAE
:103190009DADAEADBFAD88AF99AFAAAFBBAF1EC1FD
:1031A0004C815D816E817F814115510561057105FD
:1031B00009F416C1FE01EC5BFF4FDE01A85BBF4FB7
:1031C0008D919D910D90BC91A02D80839183A283C0
:1031D000B383FE01EB59FF4F8081882381F081305A
:1031E00009F0FEC0488359836A837B838C859D8563
:1031F000AE85BF8588879987AA87BB87F1C048833A
:1032000059836A837B83ECC0C059DF4F88819981E1
:103210000196D1C0EA59FF4F9081911120C07E01E3
:1032200086E5E80EF11C4EE553E0B701CE010E94A1
:1032300005188E010B591F4F892B11F481E00CC02A
:1032400044E653E0B701CE010E940518892B19F41A
:10325000F8011082C5C082E0F8018083C1C0FE0180
:10326000EB59FF4FE081E23009F4BAC0DE01AA5AFF
:10327000BF4F8C91882309F4B3C020E2E29FF00194
:103280001124E92B3197E932F10508F0A9C0EC5C73
:10329000FF4F0C941731CE010E94AD176C837D83D4
:1032A0008E839F830E940D1EC85BDF4F1CC0C859D0
:1032B000DF4F91E0813409F474C072C0FE01E75918
:1032C000FF4F8081882321F0CE010E94B21603C0F7
:1032D000CE010E9422176C8B7D8B8E8B9F8B0E9460
:1032E0000D1EC05BDF4F688379838A839B8378C020
:1032F000833509F075C08C899D89AE89BF89B095E9
:10330000A095909581959F4FAF4FBF4F8C8B9D8B14
:10331000AE8BBF8B65C0FE01E759FF4F80818823CC
:1033200021F0CE010E94B21603C0CE010E942217E6
:103330006C8F7D8F8E8F9F8F53C0873509F050C063
:103340008C8D9D8DAE8DBF8DB095A09590958195FE
:103350009F4FAF4FBF4F8C8F9D8FAE8FBF8F40C0A1
:10336000CE010E94AD176CA77DA78EA79FA738C07E
:10337000CE010E94AD176CAB7DAB8EAB9FAB30C066
:10338000BE016A5A7F4FCE010E9495166C877D87D9
:103390008E879F8725C0C859DF4F91E0813308F49D
:1033A00090E098831DC0CE018A5A9F4F0E945E31E3
:1033B000CE5BDF4F99279983888312C0CE010E948C
:1033C000AD176CAF7DAF8EAF9FAF0AC0CE010E942C
:1033D000AD176CA37DA38EA39FA302C081E001C0A3
:1033E00080E0DF91CF911F910F91FF90EF900895B2
:1033F0001F93CF93DF93EC01162FFC01E659FF4F8B
:1034000040815181628173814F5F5F4F6F4F7F4F6A
:103410004083518362837383FC01E959FF4F143267
:10342000A9F130F41A3079F01D3009F045C00BC015
:103430001A3249F01C3209F03FC0FC01EC5AFF4F30
:10344000808181278083FE01E959FF4F80818F3081
:1034500050F4FE01E80FF11DEA5AFF4F1082CE0131
:103460000E940F1801C080E0FE01EA59FF4F9081D1
:103470009F5F9083FE01E959FF4F1082CB5ADF4FC7
:1034800091E01A3209F090E098832DC01082FC017F
:10349000EA59FF4F1082FC01EC5AFF4F1082FC01E9
:1034A000EB59FF4F82E08083FE01EB5AFF4F108201
:1034B000C859DF4F188216C080818E3040F4DE017B
:1034C000A80FB11DAA5ABF4F1C938F5F8083FE01C6
:1034D000EB5AFF4F8081811105C0CC5ADF4F8881A4
:1034E0008127888380E0DF91CF911F9108952F92EB
:1034F0003F924F925F926F927F928F929F92AF9284
:10350000BF92CF92DF92EF92FF920F931F93CF93D0
:10351000DF93CDB7DEB760970FB6F894DEBF0FBE6E
:10352000CDBF69837A838B839C83CA01B901ED8205
:10353000FE820F831887A60195010E94682D25E35E
:103540003AEF4EE85CE30E94EA2F8B017C01712F79
:103550009F2D0E944D302B013C01602F712F8E2D2D
:103560009F2D0E94332E69877A878B879C8725E35E
:103570003AEF4EE85CE369817A818B819C810E94FD
:10358000EA2F7B01D82EC92E25E33AEF4EE85CE303
:103590006D817E818F8198850E94EA2F362E272E9D
:1035A000182F092F96016E2D7F2D832F922F0E94A9
:1035B0004D304B015C0196016E2D7F2D832F922F94
:1035C0000E94332E69837A838B839C83A1019801A7
:1035D000652F742F832F922F0E944D306D837E8331
:1035E0008F839887A1019801652F742F832F922FC5
:1035F0000E94332E6B017C012D813E814F815885C5
:1036000069817A818B819C810E94EA2F6D877E87F8
:103610008F87988BA7019601C501B4010E94EA2FFC
:1036200029853A854B855C850E94EA2F9B01AC0178
:103630006D857E858F8598890E94682D262F372F6E
:10364000482F592F0E94EA2F362E272E182F092F88
:10365000A3019201C701B6010E94EA2F262F372F3E
:10366000482F592F0E94EA2F9B01AC01D101F8018C
:103670006B2F7A2F8F2F9E2F0E94692D0E9457301B
:103680002B013C012D813E814F815885C501B4013C
:103690000E94EA2F4B015C01A701960169817A81A2
:1036A0008B819C810E94EA2F29853A854B855C8518
:1036B0000E94EA2F9B01AC01C501B4010E94692D53
:1036C0009B01AC01C301B2010E94DC2D26E73BE760
:1036D00042EC5AE40E94EA2F60960FB6F894DEBFDF
:1036E0000FBECDBFDF91CF911F910F91FF90EF9053
:1036F000DF90CF90BF90AF909F908F907F906F9012
:103700005F904F903F902F900895CF92DF92EF926D
:10371000FF920F931F93CF93DF93E901611571051A
:1037200051F0FC01C088D188E288F388FB01C08297
:10373000D182E282F3824115510551F0FC01C08C27
:10374000D18CE28CF38CFA01C082D182E282F382C6
:10375000209701F18C01045B1F4FF801808191815A
:10376000A281B3818F3F9F4FAF4FBF4F61F00E9447
:103770000D1EF8010081118122813381601B710BC4
:10378000820B930B03C06FEF7FEFCB0168837983CC
:103790008A839B83DF91CF911F910F91FF90EF90D0
:1037A000DF90CF900895CF92DF92EF92FF920F9328
:1037B0001F93CF93DF93E9016115710551F0FC016F
:1037C000C084D184E284F384FB01C082D182E2828E
:1037D000F3824115510551F0FC01C080D180E28097
:1037E000F380FA01C082D182E282F382209701F154
:1037F0008C010C5B1F4FF80180819181A281B38104
:103800008F3F9F4FAF4FBF4F61F00E940D1EF801D9
:103810000081118122813381601B710B820B930B1C
:1038200003C06FEF7FEFCB01688379838A839B832B
:10383000DF91CF911F910F91FF90EF90DF90CF908C
:1038400008952F923F924F925F926F927F928F9244
:103850009F92AF92BF92CF92DF92EF92FF920F931F
:103860001F93CF93DF93CDB7DEB72A970FB6F894A7
:10387000DEBF0FBECDBF2B015A87498719019401C6
:10388000AE014F5F5F4FBE016B5F7F4F0E94D31B46
:1038900041145104B9F06D817E818F81988524E6B1
:1038A00030E040E050E00E94F530613571051CF0D9
:1038B0008CE697E002C080ED97E0680F791FF20177
:1038C0007183608389859A85892BB1F06D817E81B2
:1038D0008F819885E4E64E2E512C612C712CA3012A
:1038E00092010E94F530CA01B901A30192010E9420
:1038F000F530E985FA8560832114310461F06D812A
:103900007E818F81988520E137E240E050E00E947F
:10391000F530F10120830115110561F069817A818B
:103920008B819C8120E432E44FE050E00E94F5302E
:10393000F8012083E114F104A1F069817A818B817F
:103940009C8120E137E240E050E00E94F530CA015E
:10395000B90124E630E040E050E00E94F530F70184
:103960006083C114D104A9F069817A818B819C8123
:1039700054E6452E512C612C712CA30192010E941A
:10398000F530CA01B901A30192010E94F530F60198
:103990006083A114B10461F069817A818B819C817B
:1039A00024E630E040E050E00E94F530F50160830D
:1039B0002A960FB6F894DEBF0FBECDBFDF91CF9130
:1039C0001F910F91FF90EF90DF90CF90BF90AF903D
:1039D0009F908F907F906F905F904F903F902F902F
:1039E0000895FC0160A171A182A193A16F3FF9EC40
:1039F0007F07FAE98F07FBE39F0749F00E94D12E6A
:103A000020E030E048EC52E40E94362E04C060E032
:103A100074E284E799E40895FC0160A571A582A58C
:103A200093A56F3FF9EC7F07FAE98F07FBE39F0748
:103A300049F00E94CF2E20E030E048EC52E40E9492
:103A4000362E04C060E070E080E89FEB0895CF92CE
:103A5000DF92EF92FF920E940C1D6B017C0120E02F
:103A600030E040E85FEB0E942F2E882349F026E5E6
:103A70003EE04DEE5FE3C701B6010E94EA2F04C0AD
:103A800060E070E080E89FEBFF90EF90DF90CF90D8
:103A900008958230E8F4E82FF0E0EE0FFF1FE75EB4
:103AA000F94F71836083813041F0809169008C7F90
:103AB000842B80936900E89A089580916900440FEF
:103AC000551F440F551F837F842B80936900E99A0B
:103AD00008951F920F920FB60F9211242F933F93C8
:103AE0004F935F936F937F938F939F93AF93BF9306
:103AF000EF93FF938091190690911A06892B29F074
:103B0000E0911906F0911A060995FF91EF91BF9186
:103B1000AF919F918F917F916F915F914F913F9165
:103B20002F910F900FBE0F901F9018951F920F921C
:103B30000FB60F9211242F933F934F935F936F9380
:103B40007F938F939F93AF93BF93EF93FF93809156
:103B50001B0690911C06892B29F0E0911B06F09121
:103B60001C060995FF91EF91BF91AF919F918F91A5
:103B70007F916F915F914F913F912F910F900FBE69
:103B80000F901F9018951F920F920FB60F9211244D
:103B90002F933F938F939F93AF93BF9380911D0675
:103BA00090911E06A0911F06B09120063091250627
:103BB000232F2A5F2D3720F40296A11DB11D05C0C9
:103BC000232F27570396A11DB11D2093250680930F
:103BD0001D0690931E06A0931F06B09320068091A9
:103BE000210690912206A0912306B0912406019609
:103BF000A11DB11D8093210690932206A093230658
:103C0000B0932406BF91AF919F918F913F912F91D7
:103C10000F900FBE0F901F9018950F931F938FB7A3
:103C2000F89400911D0610911E0620911F063091F8
:103C300020068FBFB801C9011F910F9108950F93FE
:103C40001F939FB7F89400912106109122062091AE
:103C500023063091240686B5A89B06C08F3F21F02D
:103C60000F5F1F4F2F4F3F4F9FBF322F212F102F1E
:103C70000027080F111D211D311D43E0000F111FEA
:103C8000221F331F4A95D1F7B801C9011F910F9127
:103C90000895CF92DF92EF92FF92CF93DF936B0163
:103CA0007C010E941F1EEB010EC00E941F1E6C1B98
:103CB0007D0B683E734038F081E0C81AD108E108F6
:103CC000F108C851DC4FC114D104E104F10469F7D3
:103CD000DF91CF91FF90EF90DF90CF90089578948F
:103CE00084B5826084BD84B5816084BD85B5826001
:103CF00085BD85B5816085BDEEE6F0E0808181609F
:103D00008083E1E8F0E0108280818260808380819E
:103D100081608083E0E8F0E0808181608083E1EB76
:103D2000F0E0808184608083E0EBF0E0808181605E
:103D30008083EAE7F0E08081846080838081826014
:103D400080838081816080838081806880831092FD
:103D5000C10008958093030108958E3008F08E50BD
:103D600087702091030140E4249F90011124822B4D
:103D700080937C0080917A00806480937A008091A7
:103D80007A0086FDFCCF2091780030917900932F46
:103D900080E0AC01422B9A01C9010895833069F09B
:103DA00028F48130A1F0823011F514C08630B1F0D2
:103DB0008730C1F08430D9F404C0809180008F77BF
:103DC00003C0809180008F7D80938000089584B52A
:103DD0008F7702C084B58F7D84BD08958091B00037
:103DE0008F7703C08091B0008F7D8093B0000895DD
:103DF000CF93DF9390E0FC01EE59FC4F4491FC011E
:103E0000EA58FC4F8491882341F190E0880F991F74
:103E1000FC01E256FC4F25913491D9018C569C4F00
:103E2000FC0185919491C82FD92F9FB7F8948C915C
:103E3000611106C0409584238C938881842308C037
:103E4000623041F4242F209582238C938881842B27
:103E5000888302C0842B8C939FBFDF91CF910895FC
:103E60000F931F93CF93DF931F92CDB7DEB7282F09
:103E700030E0F901E25BFC4F8491F901EE59FC4F0F
:103E80001491F901EA58FC4F04910023D1F08823E2
:103E900021F069830E94CE1E6981E02FF0E0EE0FD1
:103EA000FF1FEC56FC4F85919491DC019FB7F8946D
:103EB0008C91611103C01095812301C0812B8C93DB
:103EC0009FBF0F90DF91CF911F910F910895CF93D6
:103ED000DF93282F30E0F901E25BFC4F8491F90178
:103EE000EE59FC4FD491F901EA58FC4FC491CC2310
:103EF00089F081110E94CE1EEC2FF0E0EE0FFF1F23
:103F0000E657FC4F85919491DC018C918D2321E043
:103F100030E011F420E030E0C901DF91CF91089545
:103F2000FC0184859585FC01E05CFF4F2081318197
:103F3000FC01EE5BFF4F80819181281B390B2F73B1
:103F40003327C9010895FC0184859585FC01E05C57
:103F5000FF4F40815181FC01EE5BFF4F2081318199
:103F60004217530741F00190F081E02DE80FF91F4F
:103F7000208130E002C02FEF3FEFC9010895FC011E
:103F800084859585FC01E05CFF4F40815181FC01F7
:103F9000EE5BFF4F208131814217530781F0A081F2
:103FA000B181A80FB91F8C91208131812F5F3F4FC4
:103FB0002F73332731832083282F30E002C02FEF67
:103FC0003FEFC9010895FC0181A1882329F0A4894C
:103FD000B5898C9186FFFBCF11A20895CF93DF9313
:103FE000FC0126853785D901A05CBF4F8D919C913E
:103FF000119701968F739927E901CE5BDF4F4881B6
:10400000598184179507D9F30D90BC91A02DA20F6B
:10401000B31F6C93A685B785A05CBF4F11969C9388
:104020008E93A689B7892C9181E090E0078C02C01D
:10403000880F991F0A94E2F7282B2C9381E081A323
:104040000488F589E02D80818064808381E090E0A0
:10405000DF91CF91089508951F920F920FB60F929E
:1040600011242F933F934F938F939F93EF93FF933D
:104070008091C00082FD1CC04091C6008091CC069A
:104080009091CD0601968F7399272091CE0630919D
:10409000CF068217930771F0E091CC06F091CD0620
:1040A000E457F94F40839093CD068093CC0602C02D
:1040B0008091C600FF91EF919F918F914F913F9119
:1040C0002F910F900FBE0F901F90189586E296E0EB
:1040D0000E94901F892B11F00C942B2008951F92A1
:1040E0000F920FB60F9211242F933F938F939F93AC
:1040F000EF93FF93209188063091890680918A067C
:1041000090918B062817390731F48091C1008F7D7B
:104110008093C10014C0E0918A06F0918B06E85BA1
:10412000F94F208180918A0690918B0601968F73BA
:10413000992790938B0680938A062093C600FF915F
:10414000EF919F918F913F912F910F900FBE0F9004
:104150001F901895CF92DF92EF92FF92CF93DF934B
:10416000EC016A017B01EC89FD8981E090E008A007
:1041700002C0880F991F0A94E2F7808360E874E810
:104180008EE190E0A70196010E94F530215031099F
:10419000410951095695479537952795211580E195
:1041A000380798F0EC89FD89108260E472E48FE0B2
:1041B00090E0A70196010E94F53021503109410994
:1041C00051095695479537952795E889F9893083A0
:1041D000EA89FB89208319A2EE89FF89408181E069
:1041E00090E09C010C8C02C0220F331F0A94E2F76E
:1041F000422B4083EE89FF8940819C010D8C02C0D7
:10420000220F331F0A94E2F7422B4083EE89FF8985
:1042100040819C010E8C02C0220F331F0A94E2F7EA
:10422000422B4083EE89FF8920810F8C02C0880FCA
:10423000991F0A94E2F7809582238083DF91CF91C2
:10424000FF90EF90DF90CF90089510922906109282
:10425000280688EE93E0A0E0B0E080932A069093D1
:104260002B06A0932C06B0932D0686E993E090933D
:104270002706809326068CE896E090933306809379
:10428000320688E496E0909335068093340685ECF8
:1042900090E0909337068093360684EC90E09093FC
:1042A00039068093380680EC90E090933B0680932B
:1042B0003A0681EC90E090933D0680933C0682ECB8
:1042C00090E090933F0680933E0686EC90E09093BA
:1042D00041068093400684E08093420683E0809309
:1042E000430687E08093440685E08093450681E09D
:1042F000809346060895CF92DF92EF92FF920F933C
:104300001F93CF93DF936C01EB017A01E60EF71E4A
:1043100000E010E00BC06991D601ED91FC91019095
:10432000F081E02DC6010995080F191FCE15DF0594
:1043300091F7C801DF91CF911F910F91FF90EF90FE
:10434000DF90CF9008956115710581F0DB010D902C
:104350000020E9F7AD0141505109461B570BDC0124
:10436000ED91FC910280F381E02D099480E090E0D2
:1043700008950C94A321DC01ED91FC910190F08152
:10438000E02D09940F931F93CF93DF93EC016DE021
:104390000E94BB218C016AE0CE010E94BB219C01DE
:1043A000200F311FC901DF91CF911F910F91089507
:1043B0000F931F93CF93DF93EC010E94A3218C01F5
:1043C000CE010E94C2219801280F391FC901DF9137
:1043D000CF911F910F9108950E946F1E0E940604B5
:1043E000C6E6D0E20E941E082097E1F30E946620F4
:1043F000F9CF209152073091530728173907C1F49C
:104400009091D0068091D106981791F0E091D00656
:10441000F0E0EE52F94F80812091D00630E02F5F1E
:104420003F4F2F7733272093D006282F30E002C04C
:104430002FEF3FEFC90108952091520730915307A4
:104440002817390771F49091D0068091D1069817FA
:1044500041F0E091D006F0E0EE52F94F208130E0DB
:1044600002C02FEF3FEFC90108952091520730910C
:1044700053072817390739F48FB7F8941092D106EB
:104480001092D0068FBF08952091520730915307A4
:104490002817390779F48091D1062091D00690E051
:1044A00080589F4F821B910960E870E00E94E130C4
:1044B0009C0102C020E030E0C9010895DC01519662
:1044C000ED91FC915297208150968C91809582239A
:1044D0008083089520E001972FEF8F3F9207D9F74F
:1044E000089520915207309153072817390789F012
:1044F000FC01238D2E7F238F2FB7F8941092D106C5
:104500001092D00690935307809352072FBF81E0FB
:10451000089580E00895EF92FF920F931F93CF9339
:10452000DF93EC018B8DEE85FF859D8581FF04C0B7
:104530008081892329F445C08081892309F041C005
:104540008B899C890E946A2208E010E0EE24E394A3
:10455000F12C8D899E890E946A22EE85FF858081DB
:104560009D85892311F0FE2803C08E2D8095F822A9
:10457000EE0C0150110969F78F89988D0E946A220B
:104580008B8D81FDF0948091D1062091D00690E032
:1045900001968F77992730E08217930779F0E091A1
:1045A000D106F0E0EE52F94FF0828091D10690E012
:1045B00001968F7799278093D10603C08B8D8160F8
:1045C0008B8FDF91CF911F910F91FF90EF90089506
:1045D000611102C00C945E22DC015196ED91FC91B8
:1045E0005297208150968C91282B20830895DF923A
:1045F000EF92FF920F931F93CF93DF93EC01E62E80
:10460000898D9A8D892B39F481E090E09B838A8390
:1046100020E030E049C0DFB6F8946B8D669561709C
:10462000CE010E94E822898D9A8D04960E946A220A
:104630008B8D08E010E0FF24F39481FF17C08F2DCD
:104640008E2121F0CE010E945E2204C061E0CE01E5
:104650000E94E822898D9A8D0E946A22FF0C0150E7
:10466000110969F7CE010E945E2217C08F2D8E219D
:1046700029F061E0CE010E94E82203C0CE010E9431
:104680005E22898D9A8D0E946A22FF0C01501109C9
:1046900069F761E0CE010E94E822DFBE898D9A8D24
:1046A0000E946A2221E030E0C901DF91CF911F9181
:1046B0000F91FF90EF90DF900895809152079091B5
:1046C0005307009711F00C948B2208951F920F92BC
:1046D0000FB60F9211242F933F934F935F936F93D5
:1046E0007F938F939F93AF93BF93EF93FF930E941A
:1046F0005D23FF91EF91BF91AF919F918F917F913A
:104700006F915F914F913F912F910F900FBE0F903E
:104710001F9018951F920F920FB60F9211242F938E
:104720003F934F935F936F937F938F939F93AF9339
:10473000BF93EF93FF930E945D23FF91EF91BF9191
:10474000AF919F918F917F916F915F914F913F9129
:104750002F910F900FBE0F901F9018951F920F92E0
:104760000FB60F9211242F933F934F935F936F9344
:104770007F938F939F93AF93BF93EF93FF930E9489
:104780005D23FF91EF91BF91AF919F918F917F91A9
:104790006F915F914F913F912F910F900FBE0F90AE
:1047A0001F9018951F93CF93DF93EC01162F61E0B4
:1047B000812F0E94F81E61E0812F0E94301F812FFF
:1047C00090E0FC01EE59FC4FE491E88BFC01EA58C3
:1047D000FC4FE491F0E0EE0FFF1FEC56FC4F85918B
:1047E0009491898B9A8BDF91CF911F9108951F939C
:1047F000CF93DF93EC01162F60E0812F0E94F81E0B
:104800008B8D81FD04C061E0812F0E94301F1C87C9
:10481000812F90E0FC01EE59FC4FE491ED87FC0103
:10482000EA58FC4FE491F0E0EE0FFF1FE657FC4F13
:10483000859194918E879F87DF91CF911F910895E5
:10484000FF920F931F93CF93DF93EC01F62E522F1D
:104850001B821A8208EE13E020E030E00C831D83F7
:104860002E833F8386EA93E0998388831C8A1B8A80
:104870001E8A1D8A188E1F8A1A8E198E8B8D8E7F26
:1048800050FB81F98B8F642FCE010E94D2236F2DB4
:10489000CE01DF91CF911F910F91FF900C94F723E0
:1048A000FF920F931F93CF93DF93EC011A8E198E13
:1048B000188E1F8A1E8A1D8A1C8A1B8AA0E0B0E0FF
:1048C0002CE0F22EFA9EC001FB9E900D1124FC01FB
:1048D000E855FC4F05911591259134910417150762
:1048E00026073707E9F4FC01E455FC4F2591349184
:1048F0002B8B3C8BFC01E255FC4F259134912D8B89
:104900003E8BFC01E055FC4F259134912F8B388F65
:104910008E549C4FFC0185919491898F9A8F05C08C
:104920001196AD30B10509F0CDCF8F89988D892BC7
:1049300009F449C03C85363108F041C04091680017
:10494000383068F081E090E03E3010F480E090E094
:1049500021E030E001C0220F8A95EAF701C024E08F
:10496000242B209368003C85383038F03E3040F0EE
:10497000363148F0E0E0F0E008C0EDE6F0E005C0D8
:10498000EBE6F0E002C0ECE6F0E04081383040F4C5
:1049900081E090E0282F01C0220F3A95EAF70DC080
:1049A000832F90E03E3010F4089701C00E9721E06D
:1049B00030E001C0220F8A95EAF7242B2083898DED
:1049C0009A8D0E946A22CE01DF91CF911F910F91A3
:1049D000FF900C947122FC014485463150F548301B
:1049E00028F04E3030F4EBE6F0E005C0EDE6F0E004
:1049F00002C0ECE6F0E05081483040F481E090E005
:104A0000042E01C0880F0A94EAF710C0242F30E06A
:104A10004E3018F42850310902C02E50310981E07F
:104A200090E0022E01C0880F0A94EAF78095852352
:104A30008083089526EA33E0FC01318320830C94BF
:104A4000EB24CB010C94CF33CB01642F0C94D733E0
:104A5000FC0175836483718760875783468353871E
:104A60004287158A158614861786168621E0248BC0
:104A70008FEF9FEF938B828B918B808B268B08958A
:104A80002F923F924F925F926F927F928F929F925E
:104A9000AF92BF92CF92DF92EF92FF920F931F934C
:104AA000CF93DF9300D000D0CDB7DEB74C017C832D
:104AB0006B836A015901C8018701AC014C195D097A
:104AC00057FF03C051954195510995016B817C8138
:104AD000261B370B37FF03C031952195310922245E
:104AE0002394312C2417350714F0212C312C211458
:104AF000310459F03A2D2B2D5C01832F922F3B81ED
:104B00002C81DC82CB82C32ED22EAB81BC81AA1633
:104B1000BB065CF43C2D2D2D6C01832F922F3B8125
:104B20002C81BC82AB82A32EB22E2501EB81FC81AD
:104B30004E1A5F0A3C016C187D0877FE03C0719421
:104B400061947108720157FE03C0FFEFEF1AFF0A6C
:104B5000F594E794C816D9062CF421E030E03A83A6
:104B6000298328C06FEF7FEF7A83698323C0D40144
:104B7000ED91FC910480F581E02D98012114310420
:104B800021F04B815C81B60103C0A6016B817C8161
:104B9000C4010995E618F708F7FE06C0E981FA8115
:104BA000CE0EDF1EE40CF51C2B813C812F5F3F4FA6
:104BB0003C832B836B817C81A616B706C4F60F90CD
:104BC0000F900F900F90DF91CF911F910F91FF9059
:104BD000EF90DF90CF90BF90AF909F908F907F909D
:104BE0006F905F904F903F902F9008956F927F92BB
:104BF0008F929F92AF92BF92CF92DF92EF92FF92ED
:104C00000F931F93CF93DF93EC015B016A0139018E
:104C10004801E881F9810484F585E02D8701099533
:104C2000E881F981A601480D591D415051090484BC
:104C3000F585E02D9301B501CE010995E881F98153
:104C40000284F385E02D9401A601B501CE010995FA
:104C5000E881F981B501660D771D61507109028403
:104C6000F385E02D9401A601CE010995DF91CF9146
:104C70001F910F91FF90EF90DF90CF90BF90AF907A
:104C80009F908F907F906F900895EF92FF920F9377
:104C90001F93DC01ED91FC91240F351F2150310948
:104CA0000084F185E02D780189019B0109951F9110
:104CB0000F91FF90EF900895EF92FF920F931F9343
:104CC000DC01ED91FC91260F371F21503109008442
:104CD000F185E02D78018A0109951F910F91FF90D0
:104CE000EF9008956F927F928F929F92AF92BF92B2
:104CF000CF92DF92EF92FF920F931F93CF93DF93A8
:104D00005C014A0169013801EB01C60ED71E0DC0D6
:104D1000D501ED91FC910284F385E02D870193018B
:104D2000A401BE01C50109952196CC15DD0584F3CA
:104D3000DF91CF911F910F91FF90EF90DF90CF9077
:104D4000BF90AF909F908F907F906F9008952F921B
:104D50003F924F925F926F927F928F929F92AF920B
:104D6000BF92CF92DF92EF92FF920F931F93CF9358
:104D7000DF93CDB7DEB72E970FB6F894DEBF0FBE28
:104D8000CDBF9E878D873A011E830D83F886EF8203
:104D9000DC0118968D919C911997681779070CF092
:104DA0009AC0FD0182859385481759070CF093C07E
:104DB000CB01F5E0CF9E800D911D11241816190628
:104DC0000CF089C08C2D90E09A878987CA01A8E0F1
:104DD000CA9E800D911D1124181619060CF07BC077
:104DE0005B017A8369831B82E4EA8E2EE3E09E2EC8
:104DF000861A970AB5E02B9F800C911C1124EB8139
:104E0000E53029F0F401EA0DFB1DD49001C0D12C4E
:104E1000F981FB872A812C871301230138E03C8329
:104E2000D0FE13C0AD85BE85ED91FC91B1E0CB12F3
:104E300006C00480F581E02D2D813E8119C00088D7
:104E4000F189E02DED80FE801EC0EF81F8852D8177
:104E50003E81E217F30709F1AD85BE85ED91FC9126
:104E6000B1E0CB120BC00480F581E02D2F81388595
:104E7000A201B5018D859E8509950FC00088F18935
:104E8000E02DEF80F8840C2D10E02C2D30E0A101F6
:104E90006B857C858D859E850995D694EC81E15046
:104EA000EC8329853A85220E331E3FEF431A530ABD
:104EB000E111B6CF8B818F5F8B83A981BA81E985A0
:104EC000FA85AE0FBF1FBA83A983FFEFAF1ABF0ADF
:104ED000863009F094CF2E960FB6F894DEBF0FBE41
:104EE000CDBFDF91CF911F910F91FF90EF90DF9099
:104EF000CF90BF90AF909F908F907F906F905F907A
:104F00004F903F902F900895CF92EF92FF920F9382
:104F10001F93CF93DF93EC01262F6A3049F42C893D
:104F20008E859F8538E0239F800D911D112432C00E
:104F30006D30A1F1EA88FB88088919894E855F8563
:104F40006C857D85CC880E94A7262C89422F50E055
:104F50008C859D8536E0239F800D911D11249D87B2
:104F60008C872E892223D1F06AEF64039001659F1C
:104F7000300D112468857985260F371F28173907CA
:104F80006CF4F3E0440F551FFA95E1F78E859F8589
:104F9000840F951F9F878E871D861C8681E090E079
:104FA000DF91CF911F910F91FF90EF90CF900895D7
:104FB000FC0175876487578746870895611101C092
:104FC00061E0FC01648B0895FC01718B608B738B35
:104FD000628B0895FC01718B608B538B428B08951B
:104FE000FC0185898370858B0895FC0180859185FE
:104FF0000895FC01828593850895CF92DF92EF9208
:10500000FF920F931F93CF93DF937C018B01EA01F3
:10501000690177FD83C00E94F527081719070CF076
:105020007DC0D7FD7BC0C7010E94F927C817D907EB
:105030000CF074C066C0F701848195818C1B9D0BB8
:10504000E8018C010150110919C0F7018481958193
:105050009C01201B310B8901015011098681978128
:10506000FC01EC1BFD0BEF01219708C0F7018681C5
:105070009781801B910B8E01EC012197CA94CD285A
:10508000F9F4FE01D7FD379623E0F595E7952A95CB
:10509000E1F7F695FE2FEE27F795E795E00FF11F64
:1050A000EC5FFE4FCE0168E070E00E94E13021E04D
:1050B00030E001C0220F8A95EAF78081822B1FC061
:1050C000FE01D7FD379683E0F595E7958A95E1F7E0
:1050D000F695FE2FEE27F795E795E00FF11FEC5FB1
:1050E000FE4FCE0168E070E00E94E13021E030E048
:1050F00001C0220F8A95EAF7209580818223808360
:105100000DC0C7010E94F027823009F49ECF833082
:1051100009F4ACCF813009F0B1CF8DCFDF91CF91C1
:105120001F910F91FF90EF90DF90CF900895DC01D9
:10513000ED91FC910190F081E02D0994EF920F9395
:10514000FC011382128286EB93E091838083E48ECC
:10515000038F228F418F608F0F91EF90089580E031
:1051600092E0E4E0F1E0DF019C011D92215030402B
:10517000E1F70895FC0188E090E030E8A78DB0A148
:105180004C9126A1209524232C93432F4623A58DB3
:10519000B68D25A1442321F04C91422B4C9304C0A1
:1051A0004C91209524232C93A78DB0A12C9146A13E
:1051B000242B2C933695019709F708951F93CF93CD
:1051C000DF93EC01162F888D8F3FF1F0E9A1FAA152
:1051D00080819FA1892B8083EBA1FCA1908188A570
:1051E000809589238083E9A1FAA190818FA1809580
:1051F00089238083CE010E94BA28E9A1FAA1808187
:105200009FA1892B80831AC08F89682F772767FD1C
:10521000709585E597E00E94822B60E085E597E038
:105220000E942E2B612F85E597E00E942E2B85E5AD
:1052300097E0DF91CF911F910C94972BDF91CF9145
:105240001F910895662311F067EA01C066EA0C9485
:10525000DE280F931F93CF93DF93EC01162F042FBB
:1052600040E250E060E870E00E9428250F8B888DB6
:105270008F3F09F468C061E00E94F81E61E0898DEB
:105280000E94F81E61E08A8D0E94F81E61E08C8DFC
:105290000E94F81E898D992787FD9095FC01EA5898
:1052A000FC4FE491F0E0EE0FFF1FEC56FC4F259110
:1052B00034912F8F38A3FC01EE59FC4F84918EA3BB
:1052C000888D992787FD9095FC01EA58FC4FE49161
:1052D000F0E0EE0FFF1FEC56FC4F259134912D8F1F
:1052E0003E8FFC01EE59FC4F84918DA38C8D992744
:1052F00087FD9095FC01EA58FC4FE491F0E0EE0F39
:10530000FF1FEC56FC4F2591349129A33AA3FC01D1
:10531000EE59FC4F84918FA38A8D992787FD909534
:10532000FC01EA58FC4FE491F0E0EE0FFF1FEC5651
:10533000FC4F259134912BA33CA3FC01EE59FC4F6B
:10534000849188A704C085E597E00E946E2B61E0F8
:105350008B8D0E94F81E61E08B8D0E94301F61E0F2
:1053600070E080E090E00E94491E60E08B8D0E941A
:10537000301F6AE070E080E090E00E94491E61E02A
:105380008B8D0E94301F6EEACE010E94DE2865EDF3
:10539000CE010E94DE2860E8CE010E94DE2868EA85
:1053A000CE010E94DE286FE1CE010E94DE2863ED6F
:1053B000CE010E94DE2860E0CE010E94DE2860E47B
:1053C000CE010E94DE286DE8CE010E94DE28113059
:1053D00011F460E101C064E1CE010E94DE2860E2C8
:1053E000CE010E94DE2860E0CE010E94DE2861EA44
:1053F000CE010E94DE2868ECCE010E94DE286AED14
:10540000CE010E94DE2862E0CE010E94DE2861E823
:10541000CE010E94DE286FE8CE010E94DE2869EDF1
:10542000CE010E94DE28113011F462E201C061EF6A
:10543000CE010E94DE286BEDCE010E94DE2860E4E2
:10544000CE010E94DE2864EACE010E94DE2866EAD0
:10545000CE010E94DE286FEACE01DF91CF911F912D
:105460000F910C94DE28DF92EF92FF920F931F931F
:10547000CF93DF93EC0160E00E94DE2860E1CE0173
:105480000E94DE2860E4CE010E94DE28888D8F3FD6
:1054900079F1E9A1FAA180819FA1892B8083EBA1F9
:1054A000FCA1808198A5892B8083E9A1FAA1908134
:1054B0008FA180958923808304E011E0F801619138
:1054C0008F01CE010E94BA28F3E004301F07B1F724
:1054D00000E012E060E0CE010E94BA2801501109FC
:1054E000C9F7E9A1FAA180819FA1892B808352C0CD
:1054F000D090B8008CE08093B80004E011E06F8990
:10550000772767FD709585E597E00E94822B60E420
:1055100070E085E597E00E949728E12CF12CF801D6
:10552000EE0DFF1D608185E597E00E942E2B8FEF29
:10553000E81AF80AE0E1EE16F10489F785E597E04C
:105540000E94972B005F1F4FF3E004301F07B9F64E
:1055500000E210E06F89772767FD709585E597E099
:105560000E94822B60E470E085E597E00E94972816
:10557000E0E1FE2E60E085E597E00E942E2BFA9494
:10558000C9F785E597E00E94972B0150110911F7A3
:10559000D092B800DF91CF911F910F91FF90EF90C3
:1055A000DF9008952091850730E080918607281BC1
:1055B0003109C9010895809186079091850789175F
:1055C00050F4E82FF0E0E957F84F208130E08F5F8A
:1055D0008093860702C02FEF3FEFC9010895E09145
:1055E000860780918507E81730F4F0E0E957F84F17
:1055F000208130E002C02FEF3FEFC90108950895E8
:10560000CF92DF92EF92FF920F931F93CF93DF938E
:105610007C01CB018A0120916107222391F0EB01EB
:105620006B01C40ED51E09C06991D701ED91FC91A3
:105630000190F081E02DC7010995CC15DD05A1F79A
:1056400003C0642F0E940F2CC801DF91CF911F91DE
:105650000F91FF90EF90DF90CF900895CF93DF935D
:105660001F92CDB7DEB76983209161072223D1F065
:1056700020916207203240F021E030E0FC013383CA
:10568000228320E030E015C080916307E82FF0E02E
:10569000EC59F84F998190838F5F809363078093D3
:1056A000620705C061E0CE0101960E940F2C21E047
:1056B00030E0C9010F90DF91CF910895FC01138272
:1056C000128248EE53E060E070E0448355836683C5
:1056D00077838CEC93E09183808308951092860702
:1056E0001092850710926307109262070C949E2B0C
:1056F00081E08093610760938407109263071092A2
:10570000620708950C94782B0F93062F21E04091A7
:10571000620764E677E0809184070E94BC2B1092B8
:10572000630710926207109261070F91089561E07C
:105730000C94842B85E597E00C945E2B1092B007B7
:1057400081E08093AE071092AD0761E082E10E9494
:10575000301F61E083E10E94301FE9EBF0E08081BF
:105760008E7F808380818D7F808380E28093B800EC
:1057700085E48093BC0008950F93413208F046C041
:105780009091B0079111FCCF92E09093B0070093F5
:10579000AE079FEF9093A7071092AC074093AB071B
:1057A000FB0161EB77E0DB0102C091919D939A2FA1
:1057B000961B9417D0F31092AF079091AF07880F04
:1057C000892B8093AF078091AD07813041F410920F
:1057D000AD078091AF078093BB0085EC01C085EEDB
:1057E0008093BC00222321F08091B0078230E1F346
:1057F0008091A7078F3F61F08091A707803251F019
:105800008091A707803341F483E007C081E005C0A1
:1058100080E003C082E001C084E00F91089561320E
:1058200098F42091B007243089F46093A907FC0113
:1058300081ED97E0DC0102C021912D932A2F281BD6
:105840002617D0F380E0089581E0089582E008955E
:1058500085ED8093BC008091BC0084FDFCCF10924C
:10586000B007089585EC8093BC001092B0070895AE
:105870001F920F920FB60F9211242F933F934F93C5
:105880005F936F937F938F939F93AF93BF93EF93A8
:10589000FF938091B900887F803609F49FC058F546
:1058A000883209F45BC090F4803109F452C038F4B6
:1058B000882309F4F8C0883009F0F9C04AC088315B
:1058C00009F44CC0803209F0F2C05CC0803409F4A5
:1058D0006BC038F4803309F455C0883309F0E7C051
:1058E00054C0803509F454C0883509F462C0883446
:1058F00009F0DDC0DAC0883909F4CBC0A8F48837D4
:1059000009F46CC038F4883609F468C0803709F0AF
:10591000CEC064C0883809F4BCC0803909F464C0C2
:10592000803809F0C4C060C0803B09F48AC038F4F4
:10593000803A09F46BC0883A09F0B9C082C0803C53
:1059400009F4ABC0883C09F4A8C0883B09F0AFC09B
:105950008DC08091AF078093BB0012C09091AC07BF
:105960008091AB07981788F58091AC07E82FF0E09D
:10597000EF54F84F90819093BB008F5F8093AC07FA
:1059800085EC88C08093A70790C08093A70756C076
:105990008091AC079091BB00E82FF0E0EF54F84FF6
:1059A00090838F5F8093AC079091AC078091AB0799
:1059B0006DC08091AC079091BB00E82FF0E0EF54F0
:1059C000F84F90838F5F8093AC078091AE07811171
:1059D0006CC081E08093AD0784EA60C083E080936F
:1059E000B0071092A807CCCF8091A807803208F0AA
:1059F00050C08091A8079091BB00E82FF0E0EB50D9
:105A0000F84F90838F5F8093A807BACF8091A80743
:105A1000803230F4E091A807F0E0EB50F84F1082AC
:105A20000E94282C6091A807E091F107F091F207FD
:105A300070E085EF97E009951092A8070E94322C3C
:105A400036C084E08093B0071092AA071092A9078D
:105A5000E091F307F091F40709958091A90781116E
:105A600005C081E08093A9071092D1078091AA0711
:105A7000E82FF0E0EF52F84F90819093BB008F5FDA
:105A80008093AA079091AA078091A907981708F414
:105A900077CF85E88093BC000AC085EC8093BC007A
:105AA0001092B00704C01092A7070E94282CFF9103
:105AB000EF91BF91AF919F918F917F916F915F9186
:105AC0004F913F912F910F900FBE0F901F901895FF
:105AD0005058BB27AA270ED027C2F0D130F0F5D1FD
