:100000000C94B9030C946A200C9497200C94282625
:100010000C944C260C9470260C94E1030C94E10390
:100020000C94E1030C94E1030C94E1030C94E103C0
:100030000C94E1030C94E1030C94E1030C94E103B0
:100040000C94C4200C94E1030C9407230C944323D8
:100050000C94E1030C94E1030C94E1030C94E10390
:100060000C94462F0C94E103DB1BF51B151C291C7B
:100070003A1C721C7B1C861C911C9E1C9E1C9E1C88
:100080009E1C9E1C9E1C9E1C9E1C9E1C9E1C9E1CA0
:100090009E1C9E1C9E1C9E1C9E1C9E1C9E1C9E1C90
:1000A0009E1C9E1C9E1C9E1CDB1BED1BF51B151C29
:1000B000291C3A1C4E1C591C641C084AD73B3BCED9
:1000C000016E84BCBFFDC12F3D6C74319ABD568357
:1000D0003DDA3D00C77F11BED9E4BB4C3E916BAA0F
:1000E000AABE000000803F05A84CCDB2D44EB9385E
:1000F00036A9020C50B9918688083CA6AAAA2ABE45
:10010000000000803F476569676965204E616E6F3A
:1001100020257300426174746572793D2025303268
:100120006400252500416C61726D3D2564004350DB
:100130004D004D6F6465203D2564002325303464F7
:100140000024504D544B3331342C302C312C302C76
:10015000312C302C302C302C302C302C302C302CBE
:10016000302C302C302C302C302C302C302C302AB1
:1001700032380024504D544B3232302C3130303034
:100180002A31460024504D544B3331332C312A321E
:10019000450D0A0024504D544B3330312C322A3255
:1001A000450D0A0025303464253032642530326430
:1001B0002E6C6F670023204E4557204C4F470A2373
:1001C00020666F726D61743D00312E322E34006EE8
:1001D000616E6F0A23206465616474696D653D6FAB
:1001E0006E0A002425732C253034642C25303264AB
:1001F0002D253032642D2530326454253032643A56
:10020000253032643A253032645A2C256C642C2512
:100210006C642C256C642C25632C25732C25632C95
:1002200025732C25632C25732C25632C256C642CBD
:100230002564002A302558002A25580025303264CC
:1002400068253032646D0031306B43504D006B4394
:10025000504D002043504D004E6F20475053005EDC
:1002600000207553762F68002042712F6D32006B8D
:100270006D002D2D00206D532F68002075532F68C1
:10028000006B43504D200043504D20006D42712FB4
:100290006D32006B42712F6D320042712F6D320052
:1002A0004D783D0075532F68200044733D00755311
:1002B0000057726F6E67206D6F64652021002530D6
:1002C00032642F2530326420253032643A253032B2
:1002D000643A25303264004E4F205344204341524B
:1002E00044002530346C642E2530346C6400253095
:1002F000356C642E2530346C64004A504E007265B3
:100300006164202573203020256400000000070070
:1003100002010000030406000000000000000001CC
:100320000204081020408001020408102001020489
:10033000081020040404040404040402020202025B
:100340000203030303030300000000230026002927
:100350000000000000250028002B00000000002401
:100360000027002A0000C20100010005000500036B
:100370000000E1000001000F000F000D00009600DA
:1003800000020019001A001700127A00000700206E
:100390000021001D00807000000B002300230020BE
:1003A00000004B00001400370037003400403800D4
:1003B000001E004B004B00480080250000320072F8
:1003C0000072007000C01200006E00E900E900E653
:1003D0000060090000E500D801D801D501B0040093
:1003E00000D301B403B403B1032C0100006707DD9F
:1003F0000EDD0EDA0E00000000003E5B4F5B3E3E5D
:100400006B4F6B3E1C3E7C3E1C183C7E3C181C57C0
:100410007D571C1C5E7F5E1C00183C1800FFE7C364
:10042000E7FF0018241800FFE7DBE7FF30483A0633
:100430000E2629792926407F050507407F05253F9F
:100440005A3CE73C5A7F3E1C1C08081C1C3E7F148B
:10045000227F22145F5F005F5F06097F017F0066D5
:1004600089956A606060606094A2FFA29408047E2F
:10047000040810207E201008082A1C08081C2A08DE
:10048000081E101010100C1E0C1E0C30383E383098
:10049000060E3E0E06000000000000005F00000097
:1004A00007000700147F147F14242A7F2A122313C5
:1004B00008646236495620500008070300001C22D9
:1004C00041000041221C002A1C7F1C2A08083E080B
:1004D000080080703000080808080800006060000C
:1004E00020100804023E5149453E00427F40007200
:1004F000494949462141494D331814127F10274577
:100500004545393C4A494931412111090736494994
:100510004936464949291E000014000000403400B5
:100520000000081422411414141414004122140869
:1005300002015909063E415D594E7C1211127C7F21
:10054000494949363E414141227F4141413E7F492F
:100550004949417F090909013E414151737F08081A
:10056000087F00417F41002040413F017F08142265
:10057000417F404040407F021C027F7F0408107F83
:100580003E4141413E7F090909063E4151215E7FBE
:1005900009192946264949493203017F01033F4091
:1005A00040403F1F2040201F3F4038403F63140819
:1005B000146303047804036159494D43007F4141AA
:1005C000410204081020004141417F04020102045D
:1005D0004040404040000307080020545478407FCA
:1005E000284444383844444428384444287F385404
:1005F00054541800087E090218A4A49C787F0804AB
:10060000047800447D40002040403D007F10284495
:100610000000417F40007C047804787C0804047862
:100620003844444438FC1824241818242418FC7C2A
:1006300008040408485454542404043F44243C400F
:1006400040207C1C2040201C3C4030403C44281072
:1006500028444C9090907C4464544C4400083641AB
:100660000000007700000041360800020102040289
:1006700000407A10F35A00A0724E18090010A5D459
:10068000E80000E87648170000E40B54020000CAB6
:100690009A3B000000E1F5050000809698000000FC
:1006A00040420F000000A08601000000102700005B
:1006B0000000E803000000006400000000000A00E1
:1006C000000000000100000000002C76D888DC67E4
:1006D0004F0823DFC1DFAE59E1B1B796E5E3E4533C
:1006E000C63AE651997696E8E6C28426EB898C9B59
:1006F00062ED407C6FFCEFBC9C9F40F2BAA56FA5F9
:10070000F490055A2AF75C936B6CF9676DC11BFC7A
:10071000E0E40D47FEF520E6B500D0ED902E030095
:10072000943577050080841E080000204E0A0000E2
:1007300000C80C333333330F986E12831141EF8DA1
:100740002114893BE65516CFFEE6DB18D1844B38E1
:100750001BF77C1D901DA4BBE424203284725E2212
:100760008100C9F124ECA1E53D27301415248F2E1A
:10077000351411241FBECFEFD8E0DEBFCDBF14E08B
:10078000A0E0B1E0E8E4F4E702C005900D92AA30E1
:10079000B107D9F718E0AAE0B4E001C01D92A43473
:1007A000B107E1F717E0C0E7D7E004C02297FE01E8
:1007B0000E94133ACA36D107C9F70E94B9240C9493
:1007C000E3030C940000F8940C94173AEF92FF9214
:1007D0000F931F938130910569F581E295E069E0FF
:1007E0004AE02BE00DE03CE0E32E0E94762B85EA08
:1007F00094E066E045E020E00E94E22680E394E099
:1008000061E00E945F1884E194E068E047E020E046
:100810000E94E2268AE094E065EA74E042E755E04F
:100820002AE435E00FE915E0E4E6EE2EF12C0E9413
:10083000C7140AC0009741F484E194E00E94E527C0
:1008400085EA94E00E94E5271F910F91FF90EF90B9
:1008500008958EE00E94B1219C01B901882777FD9F
:100860008095982F0E940F3220E030E040E85AE354
:100870000E94283320E030E040E251E40E94283317
:1008800024EB35EC4AEC5DE30E947431462F572F80
:10089000682F792FCB01BA0108951F93CF93DF936F
:1008A000182FC0E0D0E0219685EA94E00E9414253C
:1008B000009779F085EA94E00E94C624AC011123E8
:1008C00019F02EE330E002C02CE330E0421753076A
:1008D00051F06AE070E080E090E00E944A21C83C5C
:1008E000D10509F704C081E0C83CD10509F480E0D6
:1008F000DF91CF911F9108950F931F93CF93DF93B3
:1009000082E161E00E94FE2183E160E00E94FE211D
:1009100088E596E040E855E260E070E00E947E23C2
:100920008AE094E00E94BA1785EA94E040E855E234
:1009300060E070E00E940F2784E061E00E94FE21E9
:1009400085EA94E00E94332584E060E00E94322230
:1009500064E670E080E090E00E944A2184E061E07B
:100960000E94322281E00E944D04882321F481E01C
:100970008093070503C081E08093A4048091A404C0
:10098000882331F08AE094E060E071E00E94201555
:1009900080E090E048E853E160E070E00E944E148F
:1009A0000E94691484E194E040E855E260E070E060
:1009B0000E940F2784E194E00E943325CFE9D5E01F
:1009C00004E6DE01E02F1D92EA95E9F700D000D0A1
:1009D000ADB7BEB71296DC93CE93119781E491E048
:1009E00014969C938E9313970E948C340F900F90C3
:1009F0000F900F9084E194E0BE010E94A724FE01B5
:100A0000802F11928A95E9F700D000D0ADB7BEB71C
:100A10001296DC93CE93119783E791E014969C9302
:100A20008E9313970E948C340F900F900F900F901D
:100A300084E194E0BE010E94A724FE01802F119260
:100A40008A95E9F700D000D0ADB7BEB71296DC9317
:100A5000CE93119784E891E014969C938E9313970C
:100A60000E948C340F900F900F900F9084E194E0CF
:100A7000BE010E94A724FE0111920A95E9F700D059
:100A800000D0ADB7BEB71296DC93CE93119784E930
:100A900091E014969C938E9313970E948C340F9040
:100AA0000F900F900F9084E194E0BE010E94A72464
:100AB0000AE415E068EC70E001C0BE01EB0121968C
:100AC00083E897E00E94ED27F80181938F01C03DF4
:100AD000D10599F783E00E94AE2181E295E062E0C2
:100AE0004CE30E94FE2B81E295E00E94092D68EE06
:100AF00073E080E090E00E944A2181E295E00E944C
:100B0000872B81E295E061E070E00E94E22A81E2B9
:100B100095E061E00E94DC2A00D000D000D0EDB763
:100B2000FEB73196C2E5D5E0ADB7BEB71296DC93FD
:100B3000CE93119785E091E0938382838DE091E0DD
:100B4000958384830E948C3409900020E9F7EDB7E7
:100B5000FEB736960FB6F894FEBF0FBEEDBFC25576
:100B6000D540CE01880F991F8C0F9D1F880F991FAC
:100B700060E870E0681B790B7695679581E295E0F7
:100B800040E050E00E94D62A80917605882329F41F
:100B900081E295E063E171E004C081E295E065E106
:100BA00071E00E947A2481E295E062E575E00E949E
:100BB0007A2481E295E068E070E048E050E00E942D
:100BC000D62A0E94290420E030E040EF51E40E9440
:100BD000A63020E030E048E451E40E9428330E942F
:100BE000DC316C5E7F4F77FD04C06536710524F4FF
:100BF00005C061E070E002C064E670E000D000D0A3
:100C000000D0EDB7FEB73196C2E5D5E0ADB7BEB7BF
:100C10001296DC93CE93119784E191E093838283C3
:100C2000758364830E948C34EDB7FEB736960FB699
:100C3000F894FEBF0FBEEDBF81E295E0BE010E94B9
:100C40007A2400D000D0ADB7BEB71296DC93CE9315
:100C5000119782E291E014969C938E9313970E94D1
:100C60008C340F900F900F900F9081E295E0BE01B1
:100C70000E947A2481E295E067E370E040E150E071
:100C80000E94D62A00D000D000D0EDB7FEB7319632
:100C9000ADB7BEB71296DC93CE93119785E291E083
:100CA00093838283809193059091940595838483A7
:100CB0000E948C34EDB7FEB736960FB6F894FEBF9F
:100CC0000FBEEDBF81E295E0BE010E947A2400D004
:100CD00000D0ADB7BEB71296DC93CE9311978EE2DB
:100CE00091E014969C938E9313970E948C340F90EE
:100CF0000F900F900F9081E295E0BE010E947A2440
:100D000081E295E068E070E040E150E00E94D62A80
:100D100000D000D000D0EDB7FEB73196ADB7BEB76A
:100D20001296DC93CE93119782E391E093838283B2
:100D300080919E05848315820E948C34EDB7FEB7A6
:100D400036960FB6F894FEBF0FBEEDBF81E295E078
:100D5000BE010E947A2481E295E061E00E94DC2AD3
:100D600081E295E065E570E048E050E00E94D62A17
:100D700000D000D000D0EDB7FEB73196ADB7BEB70A
:100D80001296DC93CE9311978BE391E09383828349
:100D90008091880590918905958384830E948C3485
:100DA000EDB7FEB736960FB6F894FEBF0FBEEDBF97
:100DB00081E295E0BE010E947A2481E295E061E043
:100DC0000E94DC2A80917805882301F1C8E7D5E0EC
:100DD000FE0101900020E9F7E957F540CF01880FA7
:100DE000991F8E0F9F1F880F991F60E870E0681B86
:100DF000790B7695679581E295E048E150E00E9495
:100E0000D62A81E295E0BE010E947A2481E295E033
:100E10000E94092D68E273E280E090E00E944A217E
:100E2000DF91CF911F910F9108958F929F92BF9262
:100E3000CF92DF92EF92FF920F931F93CF93DF93A6
:100E4000B82E6A017B014901CB01BA010E940D3223
:100E500020E030E543EC57E40E9474310E94E13118
:100E6000EB01182F092F20EA36E841E050E00E94FC
:100E70007239DC01CB01A7019601281B390B4A0B03
:100E80005B0BCA01B9012AE030E040E050E00E946B
:100E9000B8398DB79EB70C97BB2089F00FB6F89480
:100EA0009EBF0FBE8DBFEDB7FEB73196ADB7BEB7D3
:100EB00012969C928E92119782EE92E010C00FB61D
:100EC000F8949EBF0FBE8DBFEDB7FEB73196ADB79C
:100ED000BEB712969C928E9211978EEE92E09383FB
:100EE0008283C483D5831683078320873187428713
:100EF00053870E948C342DB73EB7245F3F4F0FB607
:100F0000F8943EBF0FBE2DBFDF91CF911F910F917F
:100F1000FF90EF90DF90CF90BF909F908F900895BB
:100F2000CF92DF92EF92FF920F931F93CF93DF93B5
:100F30000E940D3220E836E948E15BE40E947431FA
:100F40008B01D82FC92FCE01402F512F692F782F19
:100F5000CB01BA010E94DC31882777FD8095982F5C
:100F60000E940F326B017C019E01802F912FA32FD5
:100F7000B22FBC01CD01A70196010E94A63020E04E
:100F800030E040E752E40E94743120E030E048EC69
:100F900052E40E942833462F572F682F792FCB0118
:100FA000BA01A70196010E94A730462F572F682F3C
:100FB000792FCB01BA01DF91CF911F910F91FF9053
:100FC000EF90DF90CF9008952F923F924F925F92D3
:100FD0006F927F928F929F92AF92BF92CF92DF9249
:100FE000EF92FF920F931F93CF93DF93CDB7DEB7AE
:100FF000AC970FB6F894DEBF0FBECDBF83E10E9461
:10100000B12121E0853F92071CF01092760507C0C0
:1010100081E08093760582E160E00E9432220E94A6
:10102000290420E030E040EF51E40E94A6300E9405
:10103000DC31DC01CB01181619064CF068EE73E0C8
:1010400080E090E00E944A2181E08093760584E16F
:1010500094E00E9433250E940E216B017C010FC099
:1010600084E194E00E94C624682F80E394E00E940B
:10107000A61C84E194E00E941425009789F70E9441
:101080000E21AB01BC01D701C601841B950BA60B39
:10109000B70BC416D506E606F70620F480959095A2
:1010A000A095B095883E33E0930730E0A30730E089
:1010B000B30710F00C9411140E947E140097C9F22B
:1010C0000C9411140E94BE14698F7A8F8B8F9C8FA1
:1010D0000E9469148091D3049091D404A091D50406
:1010E000B091D604FC01EE0FFF1FEE0FFF1FE95277
:1010F000FB4F298D3A8D4B8D5C8D2083318342834C
:1011000053830196A11DB11DBC01CD012CE030E03F
:1011100040E050E00E94B839DC01CB018093D30459
:101120009093D404A093D504B093D604E7EDF4E0F3
:1011300080E090E0DC014191519161917191840FC7
:10114000951FA61FB71F35E0E730F307A1F7BC01D5
:10115000CD010E940D326B017C0122EB35EC4CEF8E
:1011600055E30E9428339B01AC0160E070E080E809
:101170009FE30E94A6309B01AC01C701B6010E940B
:1011800074310E94E1316D8B7E8B8F8B988F8091B3
:10119000CF049091D004A091D104B091D204298DB4
:1011A0003A8D4B8D5C8D820F931FA41FB51F8093CA
:1011B000CF049093D004A093D104B093D204809133
:1011C000C7049091C804A091C904B091CA040596BF
:1011D000A11DB11D8093C7049093C804A093C904B6
:1011E000B093CA048091CB049091CC04A091CD041B
:1011F000B091CE042D893E894F89588D821793076F
:10120000A407B50740F42093CB043093CC0440935B
:10121000CD045093CE0480914A0590914B05A09146
:101220004C05B0914D05298D3A8D4B8D5C8D820F0B
:10123000931FA41FB51F80934A0590934B05A0935D
:101240004C05B0934D0580914E0590914F05A091AE
:101250005005B09151050596A11DB11D80934E0515
:1012600090934F05A0935005B0935105BC01CD015B
:1012700020E13EE040E050E00E94B839DC01CB01C3
:101280000097A105B105A9F4BAE4EB2EB5E0FB2E59
:1012900068EC70E001C0B8018B010F5F1F4FD701F0
:1012A0004D917D0183E897E00E94F127003D1105F3
:1012B00091F78091C1049091C2048C3091054CF457
:1012C00026E52093BC0101969093C2048093C1044B
:1012D0000EC02D893E894F89588D21153105410554
:1012E000510511F486E501C081E48093BC01809131
:1012F0000705882309F0E5C08091BB01813409F01E
:10130000E0C08DED97E098878F831E821D821C823E
:101310001B821A82198280E394E0BE01695F7F4FCD
:10132000AE014A5F5F4F9E012B5F3F4F8E010C5F06
:101330001F4FE3E0EE2EF12CEC0EFD1EF2E0CF2E5F
:10134000D12CCC0EDD1E5E010894A11CB11CA1E1C4
:101350008A2E912C8C0E9D1E0E94021F89899A89CB
:10136000AB89BC898F3F3FEF93073FEFA3073FEF68
:10137000B30709F4A6C04DB75EB74A5050400FB648
:10138000F8945EBF0FBE4DBFEDB7FEB7319688E053
:1013900095E0ADB7BEB712969C938E93119784EAF1
:1013A00091E093838283809188059091890595834C
:1013B00084838E81868317828D81808711860E9427
:1013C0008C3481E080930705EDB7FEB73A960FB6EF
:1013D000F894FEBF0FBEEDBF85EA94E00E9433256E
:1013E00085EA94E067E171E00E947A2485EA94E05E
:1013F00068E075E00E947A2485EA94E06DE00E943E
:10140000BC2580E00E944D04882391F484E060E0D4
:101410000E94322264E670E080E090E00E944A215F
:1014200084E061E00E94322281E00E944D04D8CF26
:1014300000D000D002E515E0ADB7BEB712961C9300
:101440000E93119785EB91E014969C938E931397CE
:101450000E948C340F900F900F900F9085EA94E0CB
:10146000B8010E947A2400D000D0EDB7FEB71283F5
:10147000018389EC91E0948383830E948C340F90E4
:101480000F900F900F9085EA94E0B8010E947A24A3
:1014900000D000D0ADB7BEB712961C930E93119733
:1014A0008FEC91E014969C938E9313970E948C344A
:1014B0000F900F900F900F9085EA94E0B8010E9472
:1014C0007A2484E6EFE9F5E0DF011D928A95E9F7D9
:1014D0008DED97E098878F8319821A821B821C8278
:1014E0001D821E82198A1A8A1B8A1C8A1D861E86E4
:1014F0001F86188A8CE0E3E0F6E0DF01282F1D92BA
:101500002A95E9F7EFE0F6E0DF011D928A95E9F709
:1015100080E2E2E5F5E0DF011D928A95E9F780E3DC
:1015200094E0BE01695F7F4FAE014F5F5F4F9E0148
:101530002E5F3F4F8E010D5F1F4FA4E0EA2EF12C6E
:10154000EC0EFD1EB5E0CB2ED12CCC0EDD1EA6E0A0
:10155000AA2EB12CAC0EBD1EB9E08B2E912C8C0E98
:101560009D1E0E94021F89859A85AB85BC858F3F91
:10157000EFEF9E07EFEFAE07EFEFBE0751F48CEDF4
:1015800097E098878F8319821A821B821C821D82A2
:101590001E8280E394E0BE016F5E7F4FAE01435F29
:1015A0005F4F9E01275F3F4F0E94701E80919804FD
:1015B000882311F486E501C081E48093BB0180E3B8
:1015C00094E00E94DA1F6BA37CA38DA39EA380E30B
:1015D00094E00E9420206D8F7E8F8F8F98A32091A2
:1015E0007004309171043AA329A3C0906804D0908C
:1015F0006904E0906A04F0906B0489899A89AB8948
:10160000BC89B7FF0EC0B095A095909581959F4F6E
:10161000AF4FBF4F898B9A8BAB8BBC8B53E5B52EED
:1016200002C04EE4B42E8D859E85AF85B889B7FF84
:101630000EC0B095A095909581959F4FAF4FBF4F2D
:101640008D879E87AF87B88B37E5432E02C025E490
:10165000422E49895A896B897C894F3F39EC53075F
:101660003AE963073BE3730719F440E050E0BA013D
:1016700081E023E036E00E9415074D855E856F8589
:1016800078894F3F89EC58078AE968078BE3780728
:1016900019F440E050E0BA0180E02FE036E00E940B
:1016A00015075BA14CA13DA12EA1852F942FA32F3F
:1016B000B22FBC01CD012091BF033091C0034091F6
:1016C000C1035091C2030E946D31882321F470E060
:1016D00060E090E004C07BA16CA19DA18EA1AB0154
:1016E0009C01852F962FA32FB22FBC01CD0140E086
:1016F00022E002E515E00E94FC33EFE9F5E084E624
:10170000DF011D928A95E9F72090880530908905C0
:101710002F81388538A72FA329813A814B815C819D
:101720006D818091CF049091D004A091D104B091AB
:10173000D20489A79AA7ABA7BCA77091BC01A090BF
:10174000BB014F01A9A1BAA1AF3FB10519F400E057
:1017500010E002C009A11AA1BFEFCB16BFEFDB0654
:10176000BFEFEB06BFEFFB0619F4CC24DD247601B6
:10177000EDB7FEB7F4970FB6F894FEBF0FBEEDBFFE
:101780003196ADB7BEB712969C928E92119783EEAA
:10179000682E81E0782E738262829FE1692E91E04B
:1017A000792E75826482378226828FA198A59187CF
:1017B0008087228713863487158646871786508B45
:1017C000118A628B138A2D893E894F89588D248B0B
:1017D000358B468B578B898D9A8DAB8DBC8D808FC9
:1017E000918FA28FB38F29A53AA54BA55CA5248F15
:1017F000358F468F578F70A311A283E096E093A395
:1018000082A3B4A215A28FE096E097A386A340A678
:1018100011A682E595E093A782A7A4A615A617A70F
:1018200006A7C0AAD1AAE2AAF3AA0E948C34F401A6
:1018300001900020E9F73197EF59F5408E2F90E0A5
:10184000DC01A156BA4F1C924091A005E1EAF5E0F7
:101850002DB73EB72C5C3F4F0FB6F8943EBF0FBE7E
:101860002DBF21E030E004C0519145272F5F3F4F4D
:1018700028173907CCF3403170F400D000D000D0E5
:101880002DB73EB72F5F3F4FEDB7FEB7B283A183B1
:1018900083E392E00DC000D000D000D02DB73EB75A
:1018A0002F5F3F4FEDB7FEB7B283A18388E392E08D
:1018B000D90113969C938E93129714964C93149778
:1018C00015961C920E948C34EDB7FEB736960FB673
:1018D000F894FEBF0FBEEDBF80919804882309F4F1
:1018E000ACC069897A898B899C890E9490072B01F9
:1018F0003C016D857E858F8598890E949007698F50
:101900007A8F8B8F9C8F6D8D7E8D8F8D98A120E02F
:1019100030E040EA50E40E941D33181624F049E1FB
:10192000842E912C03C035E0832E912C6D8D7E8DFD
:101930008F8D98A120E030E040E251E40E941D33F9
:1019400018161CF42AE0822E912C6D8D7E8D8F8DC1
:1019500098A120E030E040E751E40E941D331816C2
:101960001CF494E1892E912C8091BD018823B9F05B
:101970004092190550921A0560921B0570921C0541
:10198000298D3A8D4B8D5C8D20931D0530931E055E
:1019900040931F05509320051092BD014EC0E0906A
:1019A0001905F0901A0500911B0510911C05A090D7
:1019B0001D05B0901E05C0901F05D0902005C301E5
:1019C000B201298D3A8D4B8D5C8D0E942F1D0E9496
:1019D000DC31AB01BC01C401AA2797FDA095BA2F49
:1019E00084179507A607B70740F5809115059091D4
:1019F0001605A0911705B0911805840F951FA61F15
:101A0000B71F8093150590931605A0931705B09303
:101A100018054092190550921A0560921B057092A4
:101A20001C05898D9A8DAB8DBC8D80931D0590937F
:101A30001E05A0931F05B093200581E295E00E944A
:101A4000872B80917605882309F0C6C2C090C70411
:101A5000D090C804E090C904F090CA04C701B60150
:101A600020E13EE040E050E00E94B83929013A010F
:101A70005092C6044092C50484EC9FEF289F500109
:101A8000299FB00C389FB00C1124C701B6012CE37C
:101A900030E040E050E00E94B839A20EB31EB09290
:101AA000C404A092C304ADB7BEB718970FB6F8949C
:101AB000BEBF0FBEADBFEDB7FEB7319602E515E074
:101AC00012961C930E9311978CE392E0938382837A
:101AD00055824482B782A6820E948C34EDB7FEB74D
:101AE00038960FB6F894FEBF0FBEEDBF81E295E0C9
:101AF0006CE570E048E150E00E94D62A81E295E072
:101B000061E00E94DC2A81E295E061E070E00E94E1
:101B1000E22A81E295E0B8010E94A7248091BC01ED
:101B2000813459F480919804882339F08091A40479
:101B3000882319F082E161E002C082E160E00E9446
:101B4000322281E295E060E070E040E050E00E94E7
:101B5000D62A81E295E062E00E94DC2A8091BC01F5
:101B6000863549F481E295E060E070E041E050E0C4
:101B70000E94E82A06C081E295E061E070E00E94E0
:101B8000E22A82E5C82E85E0D82E2D893E894F892C
:101B9000588D213187E2380780E0480780E05807F8
:101BA000E8F0CA01B9010E940D3240E020E0860150
:101BB0000E94FC3381E295E0B6010E947A2400D0B5
:101BC00000D0ADB7BEB71296DC92CE92119787E4E3
:101BD00092E014969C938E93139767C02D893E894B
:101BE0004F89588D293E83E0380780E0480780E020
:101BF000580708F440C0CA01B9010E940D3220E024
:101C000030E04AE754E40E94743144E023E0860166
:101C10000E94FC330BE116E0C801B60144E050E03D
:101C20000E945334F80101900020E9F73297808137
:101C30008E3209F4108281E295E06BE176E00E9439
:101C40007A2400D000D002E515E0ADB7BEB71296F9
:101C50001C930E9311978EE492E014969C938E93AE
:101C600013970E948C340F900F900F900F9081E289
:101C700095E0B80123C06D897E898F89988D0E9477
:101C80000D3240E020E086010E94FC3381E295E0C5
:101C9000B6010E947A2400D000D0EDB7FEB7D28200
:101CA000C18283E592E0948383830E948C340F90F9
:101CB0000F900F900F9081E295E0B6010E947A2478
:101CC00081E295E061E070E00E94E22A81E295E025
:101CD00061E00E94DC2A809198048823E9F481E283
:101CE00095E06CE570E048E050E00E94D62A81E281
:101CF00095E060E070E041E050E00E94E82A00D00A
:101D000000D002E515E0ADB7BEB712961C930E9356
:101D1000119788E592E03EC081E295E061E070E0D5
:101D20000E94E22A81E295E06EE670E048E050E031
:101D30000E94D62A00D000D000D0EDB7FEB7319671
:101D400002E515E0ADB7BEB712961C930E9311973E
:101D500085E291E09383828329A13AA1358324838C
:101D60000E946A344DB75EB74A5F5F4F0FB6F89472
:101D70005EBF0FBE4DBF81E295E0B8010E947A249C
:101D800000D000D0ADB7BEB712961C930E9311973A
:101D90008FE592E014969C938E9313970E948C3457
:101DA0000F900F900F900F9081E295E0B8010E9484
:101DB000A72481E295E061E070E00E94E22A81E2DE
:101DC00095E060E070E040E150E00E94D62A80910A
:101DD0007705882349F56D897E898F89988D0E94C2
:101DE0000D3220918B0530918C0540918D055091DD
:101DF0008E050E94743102E5C02E05E0D02E40E031
:101E000023E086010E94FC3381E295E0B6010E9446
:101E10007A2400D000D0EDB7FEB7D282C18281E62D
:101E200092E0948383832EC08130B9F56D897E89D9
:101E30008F89988D0E940D3220918F0530919005E9
:101E400040919105509192050E94283312E5C12ED0
:101E500015E0D12E40E023E086010E94FC3381E2B0
:101E600095E0B6010E947A2400D000D0ADB7BEB78D
:101E70001296DC92CE92119788E692E014969C938B
:101E80008E9313970E948C340F900F900F900F90A9
:101E900081E295E0B6010E94A72480913B069091D3
:101EA0003C06B2E5CB2EB5E0DB2E009709F446C028
:101EB0006091150570911605809117059091180590
:101EC0000E940D3220E030E04AE754E40E94743171
:101ED00040E021E086010E94FC33F60101900020E1
:101EE000E9F73197EC19FD09CF01880F991F8E0F83
:101EF0009F1F880F991F64E770E0681B790B81E2D0
:101F000095E040E150E00E94D62A81E295E0B601DA
:101F10000E947A2400D000D0EDB7FEB7D282C182F1
:101F20008FE692E0948383830E948C340F900F900D
:101F30000F900F9081E295E0B6014BC0809198041C
:101F4000882381F05BA14CA13DA12EA1852F942F68
:101F5000A32FB22FBC01CD0140E020E086010E94FA
:101F6000FC3314C000D000D0ADB7BEB71296DC92DF
:101F7000CE92119782E792E014969C938E931397DA
:101F80000E948C340F900F900F900F9002E515E097
:101F9000F80101900020E9F73197E01BF10BCF0128
:101FA000880F991F8E0F9F1F880F991F6AE770E097
:101FB000681B790B81E295E040E150E00E94D62A4F
:101FC00081E295E0B8010E947A2481E295E069E21D
:101FD00071E00E94A72431C3813009F002C382E17D
:101FE00060E00E9432228091930590919405A0E0D8
:101FF000B0E02D893E894F89588D82179307A40739
:10200000B50718F482E161E002C082E160E00E945D
:1020100032228091BC01863549F481E295E060E08E
:1020200070E041E050E00E94E82A06C081E295E0BD
:1020300061E070E00E94E22A81E295E062E00E94A5
:10204000DC2A81E295E060E070E040E050E00E9430
:10205000D62A6D897E898F89988D0E940D324B0119
:102060005C0120918B0530918C0540918D0550913C
:102070008E050E9474317B018C01862F9F2DA02F2D
:10208000B12FBC01CD0120E030E04AE754E40E94CA
:102090001D331816DCF58E2D9F2DA02FB12FBC01FE
:1020A000CD0120E030E04AE754E40E94743144E07E
:1020B00022E002E515E00E94FC330BE116E0C801C6
:1020C00062E575E045E050E00E945334F80101906C
:1020D0000020E9F7329780818E3209F4108281E284
:1020E00095E06BE176E00E947A2400D000D002E512
:1020F00015E0ADB7BEB712961C930E93119785E706
:1021000092E014969C938E93139730C08E2D9F2D42
:10211000A02FB12FBC01CD0144E023E002E515E082
:102120000E94FC330BE116E0C80162E575E046E071
:1021300050E00E945334F80101900020E9F73297F3
:1021400080818E3209F4108281E295E06BE176E0C5
:102150000E947A2400D000D002E515E0EDB7FEB76A
:10216000128301838BE792E0948383830E948C34F3
:102170000F900F900F900F9081E295E0B8010E94B0
:102180007A2481E295E060E070E040E150E00E9456
:10219000D62A81E295E061E00E94DC2A81E295E0A6
:1021A00061E070E00E94E22A80913B0690913C063B
:1021B000009709F434C10E94290420E030E040EF88
:1021C00051E40E94A6300E94DC31DC01CB011816DC
:1021D00019060CF033C12D893E894F89588D293E4F
:1021E00083E0380780E0480780E0580708F440C0E3
:1021F000C501B40120E030E04AE754E40E947431A4
:1022000040E021E002E515E00E94FC330BE116E01E
:10221000C80162E575E045E050E00E945334F801E2
:1022200001900020E9F7329780818E3209F4108204
:1022300081E295E06BE176E00E947A2400D000D044
:1022400002E515E0ADB7BEB712961C930E93119739
:1022500081E892E014969C938E9313970E948C349D
:102260000F900F900F900F9081E295E0B80123C07E
:10227000A2E5CA2EA5E0DA2EC501B40140E020E0B7
:1022800086010E94FC3381E295E0B6010E947A2427
:1022900000D000D0EDB7FEB7D282C18287E892E0CD
:1022A000948383830E948C340F900F900F900F9033
:1022B00081E295E0B6010E947A24C501B401209123
:1022C0008F053091900540919105509192050E94A3
:1022D0002833C62E072F182FF92E862F902FA12FC7
:1022E000BF2DBC01CD0120E034E244E759E40E9457
:1022F0001D3318166CF58C2D902FA12FBF2DBC010E
:10230000CD0120E034E244E759E40E947431F2E563
:10231000CF2EF5E0DF2E40E021E086010E94FC3365
:102320008BE196E0B60145E050E00E94533481E233
:1023300095E06BE176E00E947A2400D000D0ADB742
:10234000BEB71296DC92CE9211978CE892E03BC118
:102350008C2D902FA12FBF2DBC01CD0120E030E4AA
:102360004CE156E40E941D3318166CF58C2D902F0D
:10237000A12FBF2DBC01CD0120E030E04AE754E49D
:102380000E947431E2E5CE2EE5E0DE2E40E020E052
:1023900086010E94FC338BE196E0B60145E050E0F7
:1023A0000E94533481E295E06BE176E00E947A244A
:1023B00000D000D0EDB7FEB7D282C18283E992E0AF
:1023C0009483838304C182E5A82E85E0B82E8C2DEA
:1023D000902FA12FBF2DBC01CD0140E020E0850151
:1023E0000E94FC3381E295E0B5010E947A2400D07E
:1023F00000D0ADB7BEB71296BC92AE9211978AE9E3
:1024000092E014969C938E9313970E948C340F90B5
:102410000F900F900F9081E295E0B5010CC10E94E2
:10242000290420E030E040EF51E40E94A6300E94F1
:10243000DC31DC01CB01181619066CF081E295E065
:1024400060E070E041E050E00E94E82A81E295E01F
:102450006BE271E0F0C000D000D0B2E5CB2EB5E069
:10246000DB2EEDB7FEB7D282C18280EA92E0948380
:1024700083830E948C340F900F900F900F9081E215
:1024800095E0B6010E947A246091CB047091CC044F
:102490008091CD049091CE040E940D3220918B0545
:1024A00030918C0540918D0550918E050E947431BC
:1024B00040E021E086010E94FC3381E295E0B60114
:1024C0000E947A2400D000D0ADB7BEB71296DC923D
:1024D000CE92119784EA92E014969C938E93139770
:1024E0000E948C340F900F900F900F9081E295E036
:1024F000B6010E947A2400D000D0EDB7FEB7D28298
:10250000C1828AEA92E0948383830E948C340F9084
:102510000F900F900F9081E295E0B6010E947A240F
:1025200060914E0570914F05809150059091510535
:102530000E940D324B015C0160914A0570914B0580
:1025400080914C0590914D050E940D322B013C016C
:10255000C501B40120E030E040E752E40E9474314C
:102560009B01AC01C301B2010E94743120918B0523
:1025700030918C0540918D0550918E050E947431EB
:102580002B013C01C501B40120E030E041E655E4F7
:102590000E9474319B01AC01C301B2010E94283337
:1025A00040E020E00E94FC3381E295E0B6010E9409
:1025B0007A2400D000D0ADB7BEB71296DC92CE928E
:1025C00011978EEA92E014969C938E9313970E9433
:1025D0008C340F900F900F900F9081E295E0B60130
:1025E0002AC081E295E060E070E040E050E00E94A7
:1025F000D62A81E295E062E00E94DC2A81E295E041
:1026000060E070E041E050E00E94E82A00D000D095
:1026100002E515E0EDB7FEB71283018381EB92E08E
:10262000948383830E948C340F900F900F900F90AF
:1026300081E295E0B8010E947A248091A404882365
:1026400009F44AC02DB73EB72E5030400FB6F8946B
:102650003EBF0FBE2DBFEDB7FEB7319602E515E0C8
:10266000ADB7BEB712961C930E9311978EEB92E006
:10267000938382838A8184831582898186831782EA
:102680008B81808711868C81828713868D818487D8
:1026900015860E948C34EDB7FEB73E960FB6F894BF
:1026A000FEBF0FBEEDBF81E295E060E070E048E163
:1026B00050E00E94D62A81E295E061E00E94DC2A87
:1026C00081E295E061E070E00E94E22A81E295E01B
:1026D000B8010E94A72430C081E295E060E070E07C
:1026E00048E150E00E94D62A81E295E061E00E9434
:1026F000DC2A81E295E060E070E041E050E00E9479
:10270000E82A00D000D002E515E0ADB7BEB71296BA
:102710001C930E93119787ED92E014969C938E93E1
:1027200013970E948C340F900F900F900F9081E2BE
:1027300095E0B8010E947A240E94290420E030E04C
:1027400040EF51E40E94A6300E94DC316B017C0115
:1027500077FD04C06930710524F406C0CC24DD2463
:1027600003C0A8E0CA2ED12C809176058130B1F447
:1027700081E295E064E770E048E150E02CE030E071
:1027800007E010E0F1E0EF2EF12C0E94C22881E278
:1027900095E066E770E04AE150E015C081E295E01F
:1027A00064E770E040E050E02CE030E007E010E04B
:1027B000E1E0EE2EF12C0E94C22881E295E066E76E
:1027C00070E042E050E0960103E010E00E944D29E5
:1027D00081E295E00E94092D80913B0690913C0694
:1027E00021E030E08227932790933C0680933B06BC
:1027F00088E596E06FE975E00E94A72480910705BF
:102800008823A9F080917605882389F485EA94E0ED
:102810000E94332585EA94E06FE975E00E94A724C1
:1028200006C00E947E14009711F00C946208AC96CA
:102830000FB6F894DEBF0FBECDBFDF91CF911F91D1
:102840000F91FF90EF90DF90CF90BF90AF909F904F
:102850008F907F906F905F904F903F902F90089552
:1028600081E090E00E94E603089580E090E00E94FD
:10287000E603089580913D0690913E06A0913F06A3
:10288000B09140060196A11DB11D80933D06909325
:102890003E06A0933F06B0934006089580934906F4
:1028A00090934A0640934106509342066093430634
:1028B0007093440610923D0610923E0610923F0619
:1028C000109240066AE374E143E050E00E944A201F
:1028D00008950E940E21DC01CB0180934506909360
:1028E0004606A0934706B093480610923D06109204
:1028F0003E0610923F06109240060895CF92DF9256
:10290000EF92FF920F931F930E940E21DC01CB01E7
:1029100040914506509146066091470670914806E1
:1029200000914106109142062091430630914406E1
:1029300084179507A607B70748F06C017D01C41AF4
:10294000D50AE60AF70AB701A60108C040955095D6
:1029500060957095480F591F6A1F7B1F81E090E0BA
:10296000401751076207730710F480E090E01F9151
:102970000F91FF90EF90DF90CF90089560913D060A
:1029800070913E0680913F06909140060895EF9227
:10299000FF920F931F93FC017183608353834283E3
:1029A0003583248317830683F186E0861F910F9178
:1029B000FF90EF900895EF92FF920F931F93CF93A4
:1029C000DF93EB012DE2E22EF12C8C01061B170B9D
:1029D000BE01600F711F499183E897E00E94F127C3
:1029E0000894E108F108E114F10491F78DE290E018
:1029F000DF91CF911F910F91FF90EF900895EF928B
:102A0000FF920F931F93CF93DF937C018B01C0E064
:102A1000D0E0F80141918F01BE016E0D7F1D83E86A
:102A200097E00E94F1272196C830D10591F788E000
:102A300090E0DF91CF911F910F91FF90EF9008955B
:102A40007F928F929F92AF92BF92CF92DF92EF923E
:102A5000FF920F931F93CF93DF935C01EB01DC0197
:102A60008D919C910E943325EDB7FEB738970FB634
:102A7000F894FEBF0FBEEDBF3196D50116968D912D
:102A80009C911797ADB7BEB712969C938E931197F2
:102A90008EEF92E093838283D583C483D501189609
:102AA0008D919C911997978386830E948C34EDB702
:102AB000FEB738960FB6F894FEBF0FBEEDBFD50136
:102AC00016966D917C9117978D919C910E947A2416
:102AD000F50180819181DC01ED91FC910190F08103
:102AE000E02D6DE00995F50180819181DC01ED918A
:102AF000FC910480F581E02D09950097A1F3F50183
:102B000080819181DC01ED91FC910680F781E02DBF
:102B100009958D30910539F7F501408551858681FC
:102B2000978160E070E00E943C34C0E0D0E0772400
:102B3000D5018D919C91DC01ED91FC910480F58192
:102B4000E02D0995009791F0F501C681D781C70D59
:102B5000D11D80819181DC01ED91FC910680F7818E
:102B6000E02D099588837394C0E0D0E061E070E0C7
:102B700080E090E00E944A21272D30E0F501808519
:102B800091852817390729F02196F3E0C83EDF0721
:102B90007CF288249924D2C1D50116966D917C913E
:102BA0001797DB01A80DB11D40E009C04F5F882DCC
:102BB00090E0F501208531858217930739F0FB01FC
:102BC000E80DF11D808183948A3081F7FD01E40FC7
:102BD000F11D10828C91882309F4B0C1833209F46D
:102BE000ADC1433008F4AAC180E0ED01C80FD11D8A
:102BF0009881903211F0993051F48F5F8417A9F7C2
:102C00009DC1903211F0993009F410828F5F8417C2
:102C100009F494C1FD01E80FF11D90819D3389F7FE
:102C2000841709F48BC110828F5F8D01080F111D6D
:102C3000F8019081903211F0993021F48F5F841760
:102C4000A1F77CC1841709F479C1CE0161E471E078
:102C50000E944334009779F5C8010E941E349C01FC
:102C6000B901882777FD8095982F0E940F32EB01DC
:102C7000F82EE92ED5011296CD90DC901397F6012F
:102C8000618D728D838D948DA7010C2F1D2F252FA3
:102C9000342FA90198010E946D31882309F44EC197
:102CA00097018C2F9D2FA32FB22FF601818F928F2A
:102CB000A38FB48F35C0CE0166E471E00E94433427
:102CC000009789F5C8010E941E349C01B90188272C
:102CD00077FD8095982F0E940F32EB01F82EE92E98
:102CE000D5011296CD90DC901397F601658D768D07
:102CF000878D90A1A7010C2F1D2F252F342FA901FF
:102D000098010E946D31882309F418C197018C2F16
:102D10009D2FA32FB22FF601858F968FA78FB0A37B
:102D2000992493940BC1CE016BE471E00E9443346B
:102D3000009739F4D5011296CD91DC911397269620
:102D40006BC0CE016EE471E00E944334009781F4C1
:102D5000F501C281D381C8010E941E349C018E8975
:102D60009F898217930709F4E9C03F8B2E8BD8CF38
:102D7000CE0162E571E00E944334009781F4D501F1
:102D80001296CD91DC911397C8010E941E342C81BC
:102D900030E02817390709F4D1C08C83C1CFCE01A8
:102DA00065E571E00E944334009771F4F501C2813A
:102DB000D381C8010E941E342D8130E028173907C5
:102DC00009F4BCC08D83ACCFCE0168E571E00E94F0
:102DD0004334009791F4D5011296CD91DC9113976D
:102DE000C8010E941E349C0189A19AA182179307F1
:102DF00009F4A4C03AA329A393CFCE016BE571E0F7
:102E00000E9443340097A1F4F8011382D501129671
:102E1000CD91DC911397A496CE01B8010E94433462
:102E2000009709F48BC0CE01B8010E944C3478CFD2
:102E3000CE016EE571E00E944334009771F4F50114
:102E4000C281D381C8010E941E342BA130E0281713
:102E5000390709F473C08BA363CFCE0161E671E03B
:102E60000E944334009781F4D5011296CD91DC91F4
:102E70001397C8010E941E3428A530E0281739078F
:102E800009F45CC088A74CCFCE0164E671E00E94D3
:102E90004334009771F4F501C281D381C8010E94C7
:102EA0001E3429A530E02817390709F447C089A73F
:102EB00037CFCE0167E671E00E944334009789F472
:102EC000D5011296CD91DC911397C8010E941E3452
:102ED0009C018AA59BA58217930781F13BA72AA78E
:102EE0001FCFCE016AE671E00E944334009769F477
:102EF000F501C281D381C8010E941E342CA530E0A7
:102F000028173907D9F08CA70BCFCE016DE671E0F9
:102F10000E944334009791F4D5011496EC911497D4
:102F20001596FC9188E0DF011D928A95E9F7F5017D
:102F30006481758188EC90E00E94FF14871408F486
:102F40002BCE992049F0D50112966D917C91139763
:102F500084EF91E00E94DB14DF91CF911F910F91DC
:102F6000FF90EF90DF90CF90BF90AF909F908F90A9
:102F70007F900895EF92FF920F931F93CF93DF936B
:102F80008C01DC011296EC9112971396FC918DE264
:102F9000DF011D928A95E9F7F801E280F38064EF82
:102FA00071E001C0BE01EB01219683E897E00E9429
:102FB000ED27D7018D937D01B2E0C132DB0791F798
:102FC000D8011296ED91FC91139780819181A28195
:102FD000B3818D3020EF92072EEFA2072AE5B207CA
:102FE00009F466C08DE2DF011D928A95E9F7D801E8
:102FF0001296ED91FC9113978DE090EFAEEFBAE54C
:1030000080839183A283B3838DED97E0978B868B2A
:1030100089E083A300D000D0F80182819381849657
:10302000ADB7BEB712969C938E9311978AEF92E03C
:1030300014969C938E9313970E948C34D801129609
:10304000ED91FC9113978CE3808F1296ED91FC919A
:10305000139780E090E0A7EAB3E4818F928FA38F6B
:10306000B48F80E090E0A4E1B2E4858F968FA78FC3
:10307000B0A384E690E093A782A70F900F900F90E3
:103080000F9084EF91E0BF010E94DB14D8011496E9
:10309000EC9114971596FC9188E0DF011D928A95BA
:1030A000E9F7F8016481758188EC90E00E94FF14D3
:1030B000DF91CF911F910F91FF90EF900895FC0148
:1030C000262F4FEF5FEFBA014083518362837383F2
:1030D00010861186128613868FEF99ECAAE9BBE35E
:1030E000808B918BA28BB38B808F918FA28FB38FAC
:1030F00080A391A3A2A3B3A380A791A7A2A7B3A7DC
:1031000080AB91ABA2ABB3AB40AF51AF62AF73AF8B
:10311000DF01A05CBF4F8FEF90E08D939C93DF01A8
:10312000AC5BBF4F4D935D936D937C931397DF0121
:10313000A45BBF4F4D935D936D937C931397DF0119
:10314000AC5ABF4F1C92DF01AB5ABF4F1C92DF013C
:10315000AB59BF4F82E08C93DF01AA59BF4F1C923D
:10316000DF01A959BF4F1C92DF01A859BF4F1C9224
:10317000DF01A659BF4F1D921D921D921C921397FD
:10318000DF01A259BF4F1D921C92DF01A059BF4F12
:103190001D921C92DF01AA5ABF4F1C92E759FF4FA4
:1031A00020830895262F2154862F90E0263010F496
:1031B000C79708956156663018F487559040089572
:1031C000C0970895EF92FF920F931F93CF937B01C7
:1031D00000E010E0980112C0C901B8012AE030E017
:1031E00040E050E00E9472398B019C010C0F111DD0
:1031F000211D311D0053104020403040F701C19186
:103200007F018C2F80538A3038F3B801C901CF91E8
:103210001F910F91FF90EF9008952F923F924F9240
:103220005F926F927F928F929F92AF92BF92CF9256
:10323000DF92EF92FF920F931F93CF93DF9326E5D8
:10324000E22EF12CE80EF91EB7010E94E218EB0104
:10325000182F092FF7012E2F9F2F8191382F3053D0
:103260003A30C8F38E32A1F5622E792E80E1C82E55
:1032700087E2D82EE12CF12C8824992454019AE07D
:10328000292E312C412C512C19C070E06053704014
:10329000882777FD8095982FA70196010E947239A3
:1032A000DC01CB01880E991EAA1EBB1EC701B60108
:1032B000A20191010E94B83969017A01F30161818B
:1032C0000894611C711C862F80538A30F0F203C071
:1032D000882499245401BE01812F902F20EA36E8DA
:1032E00041E050E00E9472398B019C01080D191DCC
:1032F0002A1D3B1DB801C901DF91CF911F910F918C
:10330000FF90EF90DF90CF90BF90AF909F908F9005
:103310007F906F905F904F903F902F9008952F92E5
:103320003F924F925F926F927F928F929F92AF9255
:10333000BF92CF92DF92EF92FF920F931F93CF93A2
:10334000DF9356E5C52ED12CC80ED91EB6010E94BA
:10335000E218162F072FEC0124E630E040E050E0A1
:103360000E94B83920EA36E841E050E00E94723904
:103370004B015C01F6012E2F9F2F8191382F305386
:103380003A30C8F38E3281F5622E792E30E1C32EA9
:1033900037E2D32EE12CF12C4AE0242E312C412CA3
:1033A000512C19C070E060537040882777FD8095DC
:1033B000982FA70196010E947239DC01CB01880E7B
:1033C000991EAA1EBB1EC701B601A20191010E944F
:1033D000B83969017A01F30161810894611C711C9B
:1033E000862F80538A30F0F2C501B4016B5F7F4FA6
:1033F0008F4F9F4F26E030E040E050E00E94B83908
:1034000069017A01612F702FCE0124E630E040E09F
:1034100050E00E94B839CA01B90120E432E44FE01B
:1034200050E00E947239DC01CB01C80ED91EEA1EA1
:10343000FB1EB601C701DF91CF911F910F91FF9045
:10344000EF90DF90CF90BF90AF909F908F907F9044
:103450006F905F904F903F902F900895FF920F9341
:103460001F93CF93DF93EC01CA5ADF4FFF24F394ED
:1034700028812D3211F0FF2403C0EC01C95ADF4F1F
:10348000BE010E94E21824E630E040E050E00E94D5
:1034900072398B019C01FE018991982F90539A30CB
:1034A000D0F38E3251F54181842F80538A3028F534
:1034B000842F90E0AC01440F551F73E0880F991FD3
:1034C0007A95E1F7480F591F405E5140662757FD36
:1034D0006095762F040F151F261F371F8281982FA6
:1034E00090539A3050F490E0C097AA2797FDA0958A
:1034F000BA2F080F191F2A1F3B1FFF2039F03095E4
:103500002095109501951F4F2F4F3F4FB801C901CE
:10351000DF91CF911F910F91FF900895DB01FA0188
:103520008D91882319F091918917D1F390E0089536
:10353000EF92FF920F931F93CF93DF938C01FC01C7
:10354000EB5AFF4F8081F801882309F4EBC0EA5A57
:10355000FF4FC80160810E94D218C82FF801E95AB4
:10356000FF4FC80160810E94D218C295C07FC80F6A
:10357000F801EC5AFF4F8081F801C81709F0CAC062
:10358000E859FF4F8081F801882309F494C0E2597B
:10359000FF4F80819181019691838083F801EC5BDC
:1035A000FF4FD801A85BBF4F8D919D910D90BC91AD
:1035B000A02D80839183A283B383F801E45BFF4F46
:1035C000D801A05BBF4F8D919D910D90BC91A02D16
:1035D00080839183A283B383F801EB59FF4F8081ED
:1035E0008823A9F1813009F0A7C1F8018481958170
:1035F000A681B78180839183A283B38384859585D7
:10360000A685B78580879187A287B38784899589A6
:10361000A689B789808B918BA28BB38B848D958D76
:10362000A68DB78D808F918FA28FB38F84A595A51E
:10363000A6A5B7A580A791A7A2A7B3A784A995A976
:10364000A6A9B7A980AB91ABA2ABB3AB75C1F8018A
:1036500084A195A1A6A1B7A180A391A3A2A3B3A37E
:1036600084819581A681B78180839183A283B3836E
:1036700084899589A689B789808B918BA28BB38B1E
:10368000848D958DA68DB78D808F918FA28FB38FEE
:10369000E05CFF4FD801AE5BBF4F8D919C91918351
:1036A0008083F80184AD95ADA6ADB7AD80AF91AF85
:1036B000A2AFB3AF41C184819581A681B781009744
:1036C000A105B10509F43AC1E801CC5BDF4FE85B25
:1036D000FF4F4081518162817381488359836A839E
:1036E0007B83F801EB59FF4F2081222389F02130A1
:1036F00009F024C1F80180839183A283B383848578
:103700009585A685B78580879187A287B38716C1DF
:10371000F80186C0E059FF4F808191810196918325
:1037200080830CC1EA59FF4F8081882301F5E801AD
:10373000CA5ADF4FC801BE0142E751E00E948E1A0B
:10374000B5E6EB2EF12CE00EF11E009711F481E0AE
:103750000CC0C801BE0148E751E00E948E1A0097D4
:1037600019F4F7011082EAC082E0F701C2C0F80143
:10377000EB59FF4FE081E23009F4E0C0D801AA5ACA
:10378000BF4F2C91222309F4D9C0F0E0A5E0EE0F41
:10379000FF1FAA95E1F790E0E82BF92B3197E9326A
:1037A000F10508F0CBC0EC5CFF4FEE0FFF1F05905A
:1037B000F491E02D0994C8010E942E1ADC01CB017E
:1037C000F80184839583A683B7830E940E21DC01D0
:1037D000CB01F801E85BFF4F23C0F801E859FF4F28
:1037E00081E0213409F084C084C0F801E759FF4F1B
:1037F0008081882321F0C8010E940D1903C0C801EF
:103800000E948F19DC01CB01F801848B958BA68B6C
:10381000B78B0E940E21DC01CB01F801E05BFF4F6A
:1038200080839183A283B38389C0233509F086C046
:10383000F80184899589A689B789B095A095909556
:1038400081959F4FAF4FBF4F848B958BA68BB78BC6
:1038500075C0F801E759FF4F8081882321F0C80126
:103860000E940D1903C0C8010E948F19DC01CB0111
:10387000F8010FC0273509F061C0F801848D958DDE
:10388000A68DB78DB095A095909581959F4FAF4F20
:10389000BF4F848F958FA68FB78F50C0C8010E94ED
:1038A0002E1ADC01CB01F80184A795A7A6A7B7A71C
:1038B00045C0C8010E942E1ADC01CB01F80184AB7F
:1038C00095ABA6ABB7AB3AC0B8016A5A7F4FC801F7
:1038D0000E94E218DC01CB01F80184879587A68756
:1038E000B7872CC0F801E859FF4F81E0213308F475
:1038F00080E0808323C0C8018A5A9F4F0E941E34F3
:10390000F801EE5BFF4F8083118218C0C8010E944E
:103910002E1ADC01CB01F80184AF95AFA6AFB7AF8B
:103920000DC0C8010E942E1ADC01CB01F80184A34E
:1039300095A3A6A3B7A302C081E001C080E0DF91F8
:10394000CF911F910F91FF90EF9008950F931F93C8
:10395000CF93DF930F92CDB7DEB78C01FC01E65910
:10396000FF4F80819181A281B3810196A11DB11D7C
:1039700080839183A283B383F801E959FF4F6432B6
:10398000C9F1653230F46A3079F06D3009F049C020
:103990000BC06A3249F06C3209F043C0F801EC5AAE
:1039A000FF4F808186278083F801E959FF4F80818E
:1039B0008F3060F4F801E80FF11DEA5AFF4F1082D2
:1039C000C80169830E94981A698101C080E0F801EA
:1039D000EA59FF4F90819F5F9083F801E959FF4FAB
:1039E0001082F801EB5AFF4F91E06A3209F090E043
:1039F00090832FC01082F801EA59FF4F1082F8011E
:103A0000EC5AFF4F1082F801EB59FF4F82E08083A0
:103A1000F801EB5AFF4F1082F801E859FF4F10826E
:103A200017C080818E3040F4D801A80FB11DAA5A6A
:103A3000BF4F6C938F5F8083F801EB5AFF4F8081FB
:103A4000882331F4F801EC5AFF4F80818627808368
:103A500080E00F90DF91CF911F910F9108954F92C9
:103A60005F926F927F928F929F92AF92BF92CF920E
:103A7000DF92EF92FF920F931F93CF93DF93CDB717
:103A8000DEB764970FB6F894DEBF0FBECDBF698373
:103A90007A838B839C83CA01B90127013801A6016F
:103AA00095010E94A63025E33AEF4EE85CE30E94C0
:103AB0002833862EC72E8C01982F482D5C2D692F18
:103AC000712FCB01BA010E948B33698B7A8B8B8B60
:103AD0009C8B882D9C2DA02FB12FBC01CD010E9465
:103AE00071316D837E838F83988769817A818B8121
:103AF0009C8125E33AEF4EE85CE30E942833E62EF2
:103B0000872EC82E092FC301B20125E33AEF4EE8F4
:103B10005CE30E942833F62E172F482EB92E8E2DE7
:103B2000982DAC2DB02FBC01CD010E948B33698341
:103B30007A838B839C838E2D982DAC2DB02FBC0166
:103B4000CD010E94713169877A878B879C878F2D81
:103B5000912FA42DBB2DBC01CD010E948B336D870D
:103B60007E878F87988B8F2D912FA42DBB2DBC0125
:103B7000CD010E9471316B017C0169857A858B854D
:103B80009C852D853E854F8558890E9428334B01A1
:103B90005C0169817A818B819C81A70196010E94D9
:103BA00028332D813E814F8158850E9428339B0107
:103BB000AC01C501B4010E94A630B62FA72F382F43
:103BC000292FFD01C9014F2F5E2F692F782FCB01BF
:103BD000BA01A9010F2F1E2F252F342FA9019801FB
:103BE0000E942833862EB72E482EA92EC701B60173
:103BF00029893A894B895C890E942833B62FA72FDF
:103C0000382F292FFD01C9014F2F5E2F692F782FE3
:103C1000CB01BA01A9010F2F1E2F252F342FA90187
:103C200098010E9428339B01AC01882D9B2DA42D67
:103C3000BA2DBC01CD010E94A730462F572F682F07
:103C4000792FCB01BA010E9495332B013C01698188
:103C50007A818B819C812D853E854F8558890E9474
:103C600028334B015C0169857A858B859C85A7018A
:103C700096010E9428332D813E814F8158850E94F4
:103C800028339B01AC01C501B4010E94A7309B0100
:103C9000AC01C301B2010E941A3126E73BE742ECB6
:103CA0005AE40E942833462F572F682F792FCB01D3
:103CB000BA0164960FB6F894DEBF0FBECDBFDF9198
:103CC000CF911F910F91FF90EF90DF90CF90BF9019
:103CD000AF909F908F907F906F905F904F900895DE
:103CE0000F931F93CF93DF93EC0189016115710549
:103CF00049F088899989AA89BB89FB0180839183CE
:103D0000A283B3834115510549F0888D998DAA8D01
:103D1000BB8DFA0180839183A283B38301151105C2
:103D200019F1C45BDF4F88819981AA81BB818F3FE4
:103D3000FFEF9F07FFEFAF07FFEFBF0769F00E949C
:103D40000E21DC01CB01488159816A817B81841B72
:103D5000950BA60BB70B03C08FEF9FEFDC01F801AB
:103D600080839183A283B383DF91CF911F910F91C1
:103D700008950F931F93CF93DF93EC018901611591
:103D8000710549F088859985AA85BB85FB018083EB
:103D90009183A283B3834115510549F088819981AC
:103DA000AA81BB81FA0180839183A283B383011529
:103DB000110519F1CC5BDF4F88819981AA81BB8104
:103DC0008F3FFFEF9F07FFEFAF07FFEFBF0769F0E0
:103DD0000E940E21DC01CB01488159816A817B81DF
:103DE000841B950BA60BB70B03C08FEF9FEFDC0175
:103DF000F80180839183A283B383DF91CF911F91D8
:103E00000F9108952F923F924F925F926F927F92FF
:103E10008F929F92AF92BF92CF92DF92EF92FF92DA
:103E20000F931F93CF93DF93CDB7DEB72C970FB6C9
:103E3000F894DEBF0FBECDBF3B012A011901FA86FF
:103E4000E986DC86CB869401BE016B5F7F4FAE01B5
:103E50004F5F5F4F0E94B91E61147104D1F06D81F4
:103E60007E818F81988524E630E040E050E00E941A
:103E7000B839DC01CB019C01813591051CF08CE641
:103E800097E002C080ED97E0820F931FF3019183CA
:103E9000808341145104A9F06D817E818F819885C2
:103EA000F4E6CF2ED12CE12CF12CA70196010E9433
:103EB000B839CA01B901A70196010E94B839F201C7
:103EC00060832114310461F06D817E818F8198853A
:103ED00020E137E240E050E00E94B839F101208350
:103EE0000115110561F069817A818B819C8120E443
:103EF00032E44FE050E00E94B839F8012083898510
:103F00009A850097A9F069817A818B819C8120E153
:103F100037E240E050E00E94B839CA01B90124E616
:103F200030E040E050E00E94B839E985FA856083CE
:103F30008B859C850097B1F069817A818B819C810A
:103F4000E4E6CE2ED12CE12CF12CA70196010E94A3
:103F5000B839CA01B901A70196010E94B839EB85A9
:103F6000FC856083A114B10461F069817A818B8141
:103F70009C8124E630E040E050E00E94B839F50131
:103F800060832C960FB6F894DEBF0FBECDBFDF91D5
:103F9000CF911F910F91FF90EF90DF90CF90BF9046
:103FA000AF909F908F907F906F905F904F903F90D9
:103FB0002F900895FC0160A171A182A193A16F3F90
:103FC000F9EC7F07FAE98F07FBE39F0749F00E94AE
:103FD0000F3220E030E048EC52E40E94743104C01B
:103FE00060E074E284E799E4382F292F862F972F19
:103FF000A32FB22FBC01CD010895FC0160A571A5CE
:1040000082A593A56F3FF9EC7F07FAE98F07FBE3E1
:104010009F0749F00E940D3220E030E048EC52E466
:104020000E94743104C060E070E080E89FEB382F9C
:10403000292F862F972FA32FB22FBC01CD010895D2
:10404000CF92DF92EF92FF920E94FD1F6B017C01E5
:1040500020E030E040E85FEB0E946D31882349F0BA
:10406000C701B60126E53EE04DEE5FE30E9428332E
:1040700004C060E070E080E89FEB382F292F862F86
:10408000972FA32FB22FBC01CD01FF90EF90DF90AF
:10409000CF9008958230E8F4E82FF0E0EE0FFF1F94
:1040A000E55BF94F71836083813041F08091690055
:1040B0008C7F842B80936900E89A08958091690031
:1040C000440F551F440F551F837F842B8093690035
:1040D000E99A08951F920F920FB60F9211242F9311
:1040E0003F934F935F936F937F938F939F93AF9380
:1040F000BF93EF93FF9380914B0690914C060097EE
:1041000029F0E0914B06F0914C060995FF91EF9153
:10411000BF91AF919F918F917F916F915F914F91DF
:104120003F912F910F900FBE0F901F9018951F92E7
:104130000F920FB60F9211242F933F934F935F93DB
:104140006F937F938F939F93AF93BF93EF93FF935F
:1041500080914D0690914E06009729F0E0914D0612
:10416000F0914E060995FF91EF91BF91AF919F910C
:104170008F917F916F915F914F913F912F910F9010
:104180000FBE0F901F9018951F920F920FB60F92AF
:1041900011242F933F938F939F93AF93BF9380915D
:1041A0004F0690915006A0915106B0915206309161
:1041B0005706232F2A5F2D3720F40296A11DB11D2B
:1041C00005C0232F27570396A11DB11D2093570625
:1041D00080934F0690935006A0935106B0935206D9
:1041E0008091530690915406A0915506B0915606C1
:1041F0000196A11DB11D8093530690935406A09380
:104200005506B0935606BF91AF919F918F913F9104
:104210002F910F900FBE0F901F9018950F931F9323
:104220008FB7F89400914F061091500620915106D7
:10423000309152068FBFB801C9011F910F910895A7
:104240000F931F939FB7F894009153061091540653
:10425000209155063091560686B5A89B06C08F3F23
:1042600021F00F5F1F4F2F4F3F4F9FBF322F212F46
:10427000102F0027080F111D211D311D43E0000FD5
:10428000111F221F331F4A95D1F7B801C9011F9191
:104290000F910895CF92DF92EF92FF92CF93DF9329
:1042A0006B017C010E942021DC01CB01EC010FC0DD
:1042B0000E9420216C1B7D0B83E0683E780738F05C
:1042C0000894C108D108E108F108C851DC4FC114B5
:1042D000D104E104F10461F7DF91CF91FF90EF90F9
:1042E000DF90CF900895789484B5826084BD84B5C2
:1042F000816084BD85B5826085BD85B5816085BDE1
:10430000EEE6F0E0808181608083E1E8F0E01082F9
:10431000808182608083808181608083E0E8F0E03A
:10432000808181608083E1EBF0E080818460808324
:10433000E0EBF0E0808181608083EAE7F0E080815B
:1043400084608083808182608083808181608083BB
:104350008081806880831092C10008958093BE019F
:1043600008958E3008F08E5087709091BE0192951E
:10437000990F990F907C982B90937C0080917A00F4
:10438000806480937A0080917A0086FDFCCF8091D2
:10439000780090917900392F20E090E0822B932BC8
:1043A0000895833071F0843028F48130A1F0823098
:1043B00021F514C08630B1F08730D1F08430E9F4B3
:1043C00004C0809180008F7703C0809180008F7D32
:1043D00080938000089584B58F7702C084B58F7D67
:1043E00084BD08958091B0008F778093B0000895C8
:1043F0008091B0008F7D8093B000089590E0FC0123
:10440000E15EFC4F24918D5C9C4FFC0184918823DC
:1044100041F190E0880F991FFC01E55AFC4F45914E
:104420005491DA018F5A9C4FFC0185919491FC01C3
:104430009FB7F8948C91662331F4209582238C9356
:104440008081822308C0623049F4322F3095832363
:104450008C938081822B80839FBF0895822B8C93C5
:104460009FBF08950F931F93CF93DF930F92CDB704
:10447000DEB7282F30E0F901E55FFC4F8491F901A8
:10448000E15EFC4F1491F901ED5CFC4F04910023B7
:10449000D1F0882321F069830E94D1216981E02F26
:1044A000F0E0EE0FFF1FEF5AFC4F85919491DC0175
:1044B0009FB7F8948C91662319F41095812301C05D
:1044C000812B8C939FBF0F90DF91CF911F910F9104
:1044D0000895FC0124853585F901E05CFF4F80815A
:1044E00091812E5B3F4FF90120813181821B930B1B
:1044F0008F7390700895FC0144855585FA01E05C46
:10450000FF4F80819181FA01EE5BFF4F2081318165
:104510008217930741F00190F081E02DE40FF51F21
:10452000808190E008958FEF9FEF0895FC0144850E
:104530005585FA01E05CFF4F20813181FA01EE5B85
:10454000FF4F808191812817390779F0A081B181CF
:10455000A40FB51F8C91208131812F5F3F4F2F73A6
:1045600030703183208390E008958FEF9FEF08959E
:10457000DC011E96ED91FC911F97DF01A05CBF4FFF
:10458000EE5BFF4F2D913C9111978081918128170F
:104590003907C1F70895CF93DF93DC011E964D9143
:1045A0005C911F97EA01C05CDF4F288139812F5F42
:1045B0003F4F2F733070FA01EE5BFF4F8081918186
:1045C00028173907D9F3E881F981E40FF51F6083D3
:1045D0001E96ED91FC911F97E05CFF4F3183208385
:1045E0005696ED91FC915797208181E090E05D9681
:1045F0000C905D9702C0880F991F0A94E2F7282B50
:10460000208381E090E0DF91CF91089508951F927B
:104610000F920FB60F9211242F933F934F938F93C6
:104620009F93EF93FF934091C6008091FB0690917A
:10463000FC0601968F7390702091FD063091FE0666
:104640008217930759F0E091FB06F091FC06E554C0
:10465000F94F40839093FC068093FB06FF91EF9106
:104660009F918F914F913F912F910F900FBE0F907F
:104670001F90189588E596E00E946922009711F036
:104680000E94062308951F920F920FB60F921124D5
:104690002F933F938F939F93EF93FF932091B706B0
:1046A0003091B8068091B9069091BA06281739075B
:1046B00031F48091C1008F7D8093C10014C0E091DE
:1046C000B906F091BA06E958F94F20818091B906F0
:1046D0009091BA0601968F7390709093BA0680936A
:1046E000B9062093C600FF91EF919F918F913F9162
:1046F0002F910F900FBE0F901F9018957F928F9261
:104700009F92AF92BF92CF92DF92EF92FF920F9360
:104710001F93CF93DF93EC016A017B01772473949D
:10472000EC89FD8981E090E00E8C02C0880F991F12
:104730000A94E2F7808360E874E88EE190E0A701D4
:1047400096010E94B83989019A0101501040204019
:104750003040369527951795079520E4822E22E460
:10476000922E2FE0A22EB12C14C07724EC89FD8963
:104770001082C501B401A70196010E94B8398901D0
:104780009A010150104020403040369527951795EA
:10479000079580E10030180710F0772031F7E8899D
:1047A000F9891083EA89FB890083EE89FF894081BA
:1047B00021E030E0C9010A8C02C0880F991F0A94D9
:1047C000E2F7482B4083EE89FF894081C9010B8CB9
:1047D00002C0880F991F0A94E2F7482B4083EE89A4
:1047E000FF894081C9010C8C02C0880F991F0A946F
:1047F000E2F7482B4083EE89FF8980810D8C02C04F
:10480000220F331F0A94E2F7209528232083DF919B
:10481000CF911F910F91FF90EF90DF90CF90BF90BD
:10482000AF909F908F907F90089510925B061092AA
:104830005A0688EE93E0A0E0B0E080935C06909387
:104840005D06A0935E06B0935F06EAE5F6E087ECAE
:1048500093E0929382938BEB96E09587848787E72A
:1048600096E09787868785EC90E0918B808B84EC2F
:1048700090E0938B828B80EC90E0958B848B81EC25
:1048800090E0978B868B86EC90E0918F808F84E010
:10489000828F83E0838F87E0848F85E0858F81E03E
:1048A000868F0895CF92DF92EF92FF920F931F931E
:1048B000CF93DF936C017B01EA0100E010E00EC0B2
:1048C000D7016D917D01D601ED91FC910190F081B0
:1048D000E02DC6010995080F191F2197209781F730
:1048E000C801DF91CF911F910F91FF90EF90DF9062
:1048F000CF900895DB010D900020E9F7AD01415004
:104900005040461B570BDC01ED91FC910280F38176
:10491000E02D09950895DC01ED91FC910190F08165
:10492000E02D099508950F931F93CF93DF938C018A
:104930006DE00E948B24EC01C8016AE00E948B2488
:104940008C0F9D1FDF91CF911F910F9108950F93B1
:104950001F93CF93DF938C010E947A24EC01C8014E
:104960000E9493248C0F9D1FDF91CF911F910F9177
:1049700008950E9473210E947C04CAE3D3E20E943E
:10498000E4072097E1F30E943A23F9CF20918107B1
:104990003091820728173907B9F49091FF0680916A
:1049A00000079817A1F0E091FF06F0E0EF5FF84FE5
:1049B00080812091FF0630E02F5F3F4F2F773070CE
:1049C0002093FF0690E008958FEF9FEF08958FEFFB
:1049D0009FEF0895209181073091820728173907AA
:1049E00071F49091FF0680910007981759F0E091BB
:1049F000FF06F0E0EF5FF84F808190E008958FEFC1
:104A00009FEF08958FEF9FEF0895209181073091D8
:104A100082072817390739F48FB7F89410920007E6
:104A20001092FF068FBF0895209181073091820771
:104A30002817390771F4809100072091FF0690E054
:104A400080589F4F821B910960E870E00E94A53951
:104A5000089580E090E0089520E001972FEF8F3FC8
:104A60009207D9F70895FC01809181079091820700
:104A70008E179F0781F0838D8E7F838F8FB7F89479
:104A8000109200071092FF06F0938207E0938107CF
:104A90008FBF81E0089580E00895EF92FF920F9319
:104AA0001F93CF93DF93EC018B8DEE85FF859D8562
:104AB00081FF04C08081892329F448C08081892333
:104AC00009F044C08B899C890E942C2528E0E22EA5
:104AD000F12C01E010E08D899E890E942C25EE8545
:104AE000FF8580819D85892311F0102B03C0802FC5
:104AF00080951823000F0894E108F108E114F104EF
:104B000051F78F89988D0E942C258B8D81FD1095F2
:104B1000809100072091FF0690E001968F779070BA
:104B200030E08217930779F0E0910007F0E0EF5F43
:104B3000F84F10838091000790E001968F77907076
:104B40008093000703C08B8D81608B8FDF91CF91A5
:104B50001F910F91FF90EF900895FC01A189B289F8
:104B60009089662329F42C91892F8095822302C095
:104B70008C91892B8C930895DF92EF92FF920F9383
:104B80001F93CF93DF93EC01F62E898D9A8D0097BA
:104B900039F481E090E09B838A8380E090E047C015
:104BA000EFB6F8948B8D61E081FF60E0CE010E944A
:104BB000AD25898D9A8D04960E942C258B8D08E059
:104BC00010E0DD24D39481FF15C08D2D8F2119F0C5
:104BD000CE0160E002C0CE0161E00E94AD25898D6A
:104BE0009A8D0E942C25DD0C0150104071F7CE01EA
:104BF00060E014C08D2D8F2119F0CE0161E002C05C
:104C0000CE0160E00E94AD25898D9A8D0E942C25F1
:104C1000DD0C0150104071F7CE0161E00E94AD251E
:104C2000EFBE898D9A8D0E942C2581E090E0DF9166
:104C3000CF911F910F91FF90EF90DF900895809199
:104C4000810790918207009711F00E944D250895E9
:104C50001F920F920FB60F9211242F933F934F93F1
:104C60005F936F937F938F939F93AF93BF93EF93D4
:104C7000FF930E941F26FF91EF91BF91AF919F91EB
:104C80008F917F916F915F914F913F912F910F90F5
:104C90000FBE0F901F9018951F920F920FB60F9294
:104CA00011242F933F934F935F936F937F938F9331
:104CB0009F93AF93BF93EF93FF930E941F26FF91A3
:104CC000EF91BF91AF919F918F917F916F915F9184
:104CD0004F913F912F910F900FBE0F901F901895FD
:104CE0001F920F920FB60F9211242F933F934F9361
:104CF0005F936F937F938F939F93AF93BF93EF9344
:104D0000FF930E941F26FF91EF91BF91AF919F915A
:104D10008F917F916F915F914F913F912F910F9064
:104D20000FBE0F901F9018951F93CF93DF93EC0148
:104D3000162F862F61E00E94FE21812F61E00E94E4
:104D40003222812F90E0FC01E15EFC4FE491E88B80
:104D5000FC01ED5CFC4FE491F0E0EE0FFF1FEF5A19
:104D6000FC4F85919491898B9A8BDF91CF911F9104
:104D700008951F93CF93DF93EC01162F862F60E0E9
:104D80000E94FE218B8D81FD04C0812F61E00E9475
:104D900032221C87812F90E0FC01E15EFC4FE49100
:104DA000ED87FC01ED5CFC4FE491F0E0EE0FFF1F9E
:104DB000E95BFC4F859194918E879F87DF91CF911E
:104DC0001F9108951F93CF93DF93EC01162F1B8241
:104DD0001A8288EE93E0A0E0B0E08C839D83AE83DE
:104DE000BF8387ED93E0998388831C8A1B8A1E8A80
:104DF0001D8A188E1F8A1A8E198E8B8D2170220F94
:104E00008C7F822B8B8FCE01642F0E949426CE0143
:104E1000612F0E94B926DF91CF911F910895CF9203
:104E2000DF92EF92FF92CF93DF93EC016A017B0157
:104E30001A8E198E188E1F8A1E8A1D8A1C8A1B8A3A
:104E400020E030E0A901440F551F420F531F440FCB
:104E5000551F440F551FFA01EB59FC4F8591959151
:104E6000A591B4918C159D05AE05BF05E9F4FA0135
:104E7000E759FC4F859194918B8B9C8BFA01E559F6
:104E8000FC4F859194918D8B9E8BFA01E359FC4FD9
:104E9000859194918F8B988F41595C4FFA01859140
:104EA0009491898F9A8F06C02F5F3F4F2C30310528
:104EB00009F0C8CF8F89988D009709F448C09C8568
:104EC000963108F040C020916800983020F09E3064
:104ED00020F082E003C084E001C081E0822B809357
:104EE00068005C85583048F05E3060F05631C8F19B
:104EF000E0E0F0E0A0E0B0E009C0EDE6F0E0ADE613
:104F0000B0E004C0EBE6F0E0ABE6B0E04C91583026
:104F100040F481E090E002C0880F991F5A95E2F7B3
:104F200010C0252F30E05E3018F42850304002C009
:104F30002E50304081E090E002C0880F991F2A95E2
:104F4000E2F7842B8083898D9A8D0E942C25CE01D7
:104F50000E943325DF91CF91FF90EF90DF90CF90AB
:104F60000895ECE6F0E0ACE6B0E0D0CFFC0144857B
:104F7000463150F5483028F04E3030F0ECE6F0E0A5
:104F800005C0EDE6F0E002C0EBE6F0E0508148300D
:104F900040F481E090E002C0880F991F4A95E2F743
:104FA00010C0242F30E04E3018F42850304002C09A
:104FB0002E50304081E090E002C0880F991F2A9562
:104FC000E2F7809585238083089527ED33E0FC0187
:104FD000318320830E94B6270895CB010E948C362E
:104FE0000895CB01642F0E9494360895FC017583C7
:104FF0006483718760875783468353874287158A06
:10500000158614861786168621E0248B8FEF9FEF76
:10501000938B828B918B808B268B08952F923F925E
:105020004F925F926F927F928F929F92AF92BF92B8
:10503000CF92DF92EF92FF920F931F93CF93DF9364
:1050400000D000D0CDB7DEB72C017C836B836A0122
:1050500059011701C801841B950B97FF03C0909558
:1050600081959F4F95014B815C81241B350B37FF48
:1050700003C0309521953F4F41E0642E712C2817D5
:10508000390714F0662477246114710459F09A2DBD
:105090008B2D5801092F182F9B818C81DC82CB82AC
:1050A000C92ED82E8B819C81A816B9065CF49C2D44
:1050B0008D2D6801092F182F9B818C81BC82AB82BA
:1050C000A92EB82ED501EB81FC81AE1BBF0BBA8394
:1050D000A98348018C189D0897FE04C09094819480
:1050E0009108939489819A8162E070E00E94A539C9
:1050F0007B01C016D1061CF401E010E027C00FEFC1
:105100001FEF24C0D201ED91FC9111970480F5812D
:10511000E02DC2016114710421F0B6014B815C8164
:1051200003C06B817C81A60191010995E818F908FB
:10513000F7FE06C0C00ED11EE981FA81EE0EFF1EF9
:105140002B813C812F5F3F4F3C832B834B815C81C4
:10515000A416B506BCF60F900F900F900F90DF913C
:10516000CF911F910F91FF90EF90DF90CF90BF9064
:10517000AF909F908F907F906F905F904F903F90F7
:105180002F9008956F927F928F929F92AF92BF92CD
:10519000CF92DF92EF92FF920F931F93CF93DF9303
:1051A000EC016B015A0139014801E881F98104845D
:1051B000F585E02D87010995E881F981A501480D64
:1051C000591D415050400484F585E02DCE01B601B3
:1051D00093010995E881F9810284F385E02DCE01E0
:1051E000B601A50194010995E881F981B601660D22
:1051F000771D615070400284F385E02DCE01A5013A
:1052000094010995DF91CF911F910F91FF90EF903D
:10521000DF90CF90BF90AF909F908F907F906F90D6
:105220000895CF92DF92EF92FF920F931F93CF9347
:10523000DF93EB01D9017801FC0120813181A40FBA
:10524000B51F1197F901C084D1849E018D01F6012B
:105250000995DF91CF911F910F91FF90EF90DF9013
:10526000CF900895EF92FF920F931F93CF93DF9308
:10527000DA017801EC01E881F981260F371F21500E
:1052800030400084F185E02D8D010995DF91CF91AB
:105290001F910F91FF90EF9008956F927F928F92E0
:1052A0009F92AF92BF92CF92DF92EF92FF920F93B5
:1052B0001F93CF93DF935C013A0169014801EB0131
:1052C000C60ED71E0DC0D501ED91FC910284F38569
:1052D000E02DC501BE01A301940187010995219626
:1052E000CC15DD0584F3DF91CF911F910F91FF90D5
:1052F000EF90DF90CF90BF90AF909F908F907F9076
:105300006F9008952F923F924F925F926F927F928B
:105310008F929F92AF92BF92CF92DF92EF92FF92C5
:105320000F931F93CF93DF93CDB7DEB72F970FB6B1
:10533000F894DEBF0FBECDBF5C015E834D83422F6C
:1053400018870F83FA86E986DC0118968D919C9167
:105350001997681779070CF0B1C01A968D919C9136
:105360001B97ED81FE81E817F9070CF0A7C02C2DE3
:1053700030E0C901880F991F880F991F820F931F72
:10538000860F971F181619060CF098C0C90113E074
:10539000880F991F1A95E1F78E0F9F1F181619068F
:1053A0000CF08CC0842F90E04C01880C991C880C68
:1053B000991C880E991EC9821A821B017C836B83FB
:1053C00030E02C2D353029F0F401EB50FC4FE49106
:1053D00001C0E0E0C22C3D866D807E802301DD248B
:1053E0003F872E872E2F30E03C872B87E0FF1EC0A3
:1053F000D501ED91FC91BE85B13051F40480F58169
:10540000E02DC5016B817C81A2012F81388524C0EC
:105410000088F189E02DC5016C2D7D85A3012E85C5
:1054200030E0022F10E0EF80F88425C0E985FA858E
:105430002F813885E217F307F9F0D501ED91FC9142
:10544000BE85B13059F40480F581E02DC5016B8132
:105450007C81A20129853A8509950EC00088F189D1
:10546000E02DC5016C2D7D85A3012E8530E0022F36
:1054700010E0E984FA840995EB85FC85F595E795BC
:10548000D39429813A81620E731E0894411C511CE9
:1054900038E0D31609F0A6CF3F852E853F5F89817E
:1054A0009A81280E391EAB81BC811196BC83AB83D7
:1054B0000894811C911C363009F084CF2F960FB6CA
:1054C000F894DEBF0FBECDBFDF91CF911F910F913A
:1054D000FF90EF90DF90CF90BF90AF909F908F9014
:1054E0007F906F905F904F903F902F900895CF9254
:1054F000EF92FF920F931F93CF93DF93EC01262F30
:105500006A3061F42C8930E013E0220F331F1A95C2
:10551000E1F78E859F85820F931F3AC06D30E1F1D0
:105520004C855D85EE85FF8508891989EA88FB88A9
:10553000BA01AF01CC880E9482294C8950E09A01BF
:10554000220F331F240F351F220F331F8C859D859B
:10555000280F391F3D872C878E898823E9F08AEF31
:105560009FEF489FB001499F700D589F700D112407
:1055700088859985680F791F621773076CF483E03B
:10558000440F551F8A95E1F78E859F85840F951FDF
:105590009F878E871D861C8681E090E0DF91CF91EA
:1055A0001F910F91FF90EF90CF900895FC017587A8
:1055B0006487578746870895662309F461E0FC01F4
:1055C000648B0895FC01718B608B738B628B0895E3
:1055D000FC01718B608B538B428B0895FC01858994
:1055E0008370858B0895FC01808591850895FC0169
:1055F000828593850895CF92DF92EF92FF920F9369
:105600001F93CF93DF93EC017B018A01690177FD42
:1056100064C00E94F32AE816F9060CF05EC017FD7C
:105620005CC0CE010E94F72A081719070CF055C07C
:1056300049C08C819D81801B910B87017C0108945E
:10564000E108F10818C08C819D819C012E193F0949
:1056500079010894E108F1088E819F819C01201B4B
:10566000310B890106C08E819F818E199F097801B7
:105670008C0101501040C80168E070E00E94A5391B
:10568000FB01F695FE2FEE27F795E795EE0DFF1D32
:10569000E154FE4F31E0C316D10441F402C0CC0CFA
:1056A000DD1C8A95E2F780818C290AC021E030E078
:1056B00002C0220F331F8A95E2F720958081822352
:1056C00080830BC0CE010E94EE2A823009F4BBCF4A
:1056D000833049F2813079F6ACCFDF91CF911F91C1
:1056E0000F91FF90EF90DF90CF900895EF920F937E
:1056F000FC011382128287EE93E091838083E48E13
:10570000038F228F418F608F0F91EF90089580E07B
:1057100092E0EFEBF1E0DF019C011D92215030405F
:10572000E1F70895FC0188E090E030E8A78DB0A192
:105730004C9126A1209524232C93432F4623A58DFD
:10574000B68D25A1442321F04C91422B4C9304C0EB
:105750004C91209524232C93A78DB0A12C9146A188
:10576000242B2C933695019709F708951F93CF9317
:10577000DF93EC01162F888D8F3FF1F0E9A1FAA19C
:1057800080819FA1892B8083EBA1FCA1908188A5BA
:10579000809589238083E9A1FAA190818FA18095CA
:1057A00089238083CE010E94922BE9A1FAA18081F6
:1057B0009FA1892B808316C06F89772767FD70951D
:1057C00084E897E00E94752E84E897E060E00E94EC
:1057D000312E84E897E0612F0E94312E84E897E013
:1057E0000E948B2EDF91CF911F910895662311F0B7
:1057F00067EA01C066EA0E94B62B08950F931F93D3
:10580000CF93DF93EC01162F042F60E870E040E2A5
:1058100050E00E94F6270F8B888D8F3F09F468C0F7
:1058200061E00E94FE21898D61E00E94FE218A8D47
:1058300061E00E94FE218C8D61E00E94FE21298D95
:10584000332727FD3095F901ED5CFC4FE491F0E042
:10585000EE0FFF1FEF5AFC4F859194918F8F98A305
:10586000215E3C4FF90124912EA3288D332727FD7B
:105870003095F901ED5CFC4FE491F0E0EE0FFF1F75
:10588000EF5AFC4F859194918D8F9E8F215E3C4FF6
:10589000F90124912DA32C8D332727FD3095F90193
:1058A000ED5CFC4FE491F0E0EE0FFF1FEF5AFC4F70
:1058B0008591949189A39AA3215E3C4FF90124918B
:1058C0002FA32A8D332727FD3095F901ED5CFC4F7E
:1058D000E491F0E0EE0FFF1FEF5AFC4F8591949199
:1058E0008BA39CA3215E3C4FF901249128A704C0FF
:1058F00084E897E00E94602E8B8D61E00E94FE217B
:105900008B8D61E00E94322261E070E080E090E0E7
:105910000E944A218B8D60E00E9432226AE070E092
:1059200080E090E00E944A218B8D61E00E9432224B
:10593000CE016EEA0E94B62BCE0165ED0E94B62B19
:10594000CE0160E80E94B62BCE0168EA0E94B62B19
:10595000CE016FE10E94B62BCE0163ED0E94B62B03
:10596000CE0160E00E94B62BCE0160E40E94B62B0F
:10597000CE016DE80E94B62BCE01113011F460E12A
:1059800001C064E10E94B62BCE0160E20E94B62BFA
:10599000CE0160E00E94B62BCE0161EA0E94B62BD8
:1059A000CE0168EC0E94B62BCE016AED0E94B62BA8
:1059B000CE0162E00E94B62BCE0161E80E94B62BB8
:1059C000CE016FE80E94B62BCE0169ED0E94B62B86
:1059D000CE01113011F462E201C061EF0E94B62BDA
:1059E000CE016BED0E94B62BCE0160E40E94B62B77
:1059F000CE0164EA0E94B62BCE0166EA0E94B62B65
:105A0000CE016FEA0E94B62BDF91CF911F910F91CB
:105A10000895BF92CF92DF92EF92FF920F931F9360
:105A2000CF93DF938C0160E00E94B62BC80160E148
:105A30000E94B62BC80160E40E94B62BD80158968C
:105A40008C9158978F3F09F443C09196ED91FC914A
:105A50009297808197969C919797892B80839396B4
:105A6000ED91FC919497808198969C919897892BC1
:105A700080839196ED91FC919297908197968C916D
:105A80008095892380839FEBE92E91E0F92EC0E079
:105A9000D0E0F70161917F01C8010E94922B21960D
:105AA000F2E0C030DF07A9F7C0E0D2E0C80160E053
:105AB0000E94922B2197D1F7D8019196ED91FC91FC
:105AC0009297808197969C919797892B808364C049
:105AD000B090B8008CE08093B800CC24DD24F801AD
