:100000000C94ED040C94F61C0C94231D0C94952375
:100010000C94B9230C94DD230C9415050C94150550
:100020000C9415050C9415050C9415050C941505E8
:100030000C9415050C9415050C9415050C941505D8
:100040000C94741D0C9415050C948E1F0C94D11FE8
:100050000C9415050C9415050C9415050C941505B8
:100060000C94812C0C941505EB18FE1818192B19FB
:100070003D196B1973197E198619901990199019E9
:100080009019901990199019901990199019901928
:100090009019901990199019901990199019901918
:1000A0009019901990199019EB18F718FE18181953
:1000B0002B193D19501958196019084AD73B3BCEE6
:1000C000016E84BCBFFDC12F3D6C74319ABD568357
:1000D0003DDA3D00C77F11BED9E4BB4C3E916BAA0F
:1000E000AABE000000803F05A84CCDB2D44EB9385E
:1000F00036A9020C50B9918688083CA6AAAA2ABE45
:10010000000000803F476569676965204E616E6F3A
:100110002025730023253034640024504D544B3384
:1001200031342C302C312C302C312C302C302C30E4
:100130002C302C302C302C302C302C302C302C30DF
:100140002C302C302C302C302A32380024504D5496
:100150004B3232302C313030302A31460024504D71
:10016000544B3331332C312A32450D0A0024504D83
:10017000544B3330312C322A32450D0A0023204EA5
:100180004557204C4F470A2320666F726D61743DBE
:1001900000312E302E32006E616E6F0A23206465AE
:1001A000616474696D653D6F6E0A0023206E6D3D5C
:1001B00025732C747A3D25642C636E3D25732C6366
:1001C000706D663D25642C73743D25642C73733DFE
:1001D00025642C73683D25642C736D3D25640A00ED
:1001E0002530346425303264253032642E6C6F67DC
:1001F000002425732C253034642C253032642D25C1
:100200003032642D2530326454253032643A253042
:1002100032643A253032645A2C256C642C256C6487
:100220002C256C642C25632C25732C25632C2573BD
:100230002C25632C25732C25632C256C642C2564BC
:10024000002A302558002A255800253032646825B8
:100250003032646D002043504D004E6F20475053A4
:1002600000207553762F68002042712F6D32006B8D
:100270006D002D2D002075532F680043504D200038
:100280002042712F6D32004D783D0075532F68204C
:100290000044733D0075530057726F6E67206D6F99
:1002A0006465202100253032642F253032642025FA
:1002B0003032643A253032643A25303264002530D9
:1002C000346C642E2530346C64002530356C642E1B
:1002D0002530346C64004A504E00726561642025FC
:1002E0007320302025640000000007000201000098
:1002F00003040600000000000000000102040810D2
:10030000204080010204081020010204081020048B
:1003100004040404040404020202020202030303AC
:100320000303030000000023002600290000000052
:1003300000250028002B0000000000240027002AD0
:100340000000C20100010005000500030000E100FB
:100350000001000F000F000D0000960000020019C0
:10036000001A001700127A00000700200021001D6B
:1003700000807000000B00230023002000004B00D1
:10038000001400370037003400403800001E004BD6
:10039000004B00480080250000320072007200709F
:1003A00000C01200006E00E900E900E600600900EC
:1003B00000E500D801D801D501B0040000D301B494
:1003C00003B403B10358020000B403670767076270
:1003D000072C0100006707DD0EDD0EDA0E000000BD
:1003E00000003E5B4F5B3E3E6B4F6B3E1C3E7C3ED7
:1003F0001C183C7E3C181C577D571C1C5E7F5E1CE5
:1004000000183C1800FFE7C3E7FF0018241800FF9E
:10041000E7DBE7FF30483A060E2629792926407F98
:10042000050507407F05253F5A3CE73C5A7F3E1CA7
:100430001C08081C1C3E7F14227F22145F5F005F93
:100440005F06097F017F006689956A606060606071
:1004500094A2FFA29408047E040810207E201008B5
:10046000082A1C08081C2A08081E101010100C1E50
:100470000C1E0C30383E3830060E3E0E06000000D2
:10048000000000005F00000007000700147F147FD9
:1004900014242A7F2A1223130864623649562050F6
:1004A0000008070300001C2241000041221C002A12
:1004B0001C7F1C2A08083E080800807030000808CD
:1004C000080808000060600020100804023E51493E
:1004D000453E00427F400072494949462141494D0D
:1004E000331814127F1027454545393C4A49493194
:1004F00041211109073649494936464949291E0013
:1005000000140000004034000000081422411414BC
:10051000141414004122140802015909063E415DD9
:10052000594E7C1211127C7F494949363E41414166
:10053000227F4141413E7F494949417F09090901E3
:100540003E414151737F0808087F00417F410020F0
:1005500040413F017F081422417F404040407F02DC
:100560001C027F7F0408107F3E4141413E7F090904
:1005700009063E4151215E7F09192946264949490C
:100580003203017F01033F4040403F1F2040201FB6
:100590003F4038403F631408146303047804036148
:1005A00059494D43007F4141410204081020004158
:1005B00041417F04020102044040404040000307E3
:1005C000080020545478407F284444383844444438
:1005D00028384444287F385454541800087E0902AF
:1005E00018A4A49C787F0804047800447D4000206F
:1005F00040403D007F1028440000417F40007C04C3
:100600007804787C080404783844444438FC18247E
:10061000241818242418FC7C080404084854545452
:100620002404043F44243C4040207C1C2040201CE7
:100630003C4030403C44281028444C9090907C44EE
:1006400064544C440008364100000077000000412B
:1006500036080002010204023C2623263C1EA1A10A
:1006600061123A4040207A385454555921555579F1
:1006700041215454784121555478402054557940B3
:100680000C1E527212395555555939545454593912
:10069000555454580000457C410002457D420001FC
:1006A000457C40F0292429F0F0282528F07C545579
:1006B00045002054547C547C0A097F4932494949F9
:1006C000323248484832324A4848303A4141217A29
:1006D0003A42402078009DA0A07D39444444393DF1
:1006E0004040403D3C24FF2424487E4943662B2F54
:1006F000FC2F2BFF0929F620C0887E0903205454C3
:1007000079410000447D413048484A323840402217
:100710007A007A0A0A727D0D19317D2629292F283F
:10072000262929292630484D40203808080808087D
:10073000080808382F10C8ACBA2F102834FA000067
:100740007B000008142A142222142A1408AA005537
:1007500000AAAA55AA55AA000000FF00101010FF19
:1007600000141414FF001010FF00FF1010F010F020
:10077000141414FC001414F700FF0000FF00FF1411
:1007800014F404FC141417101F10101F101F14145D
:10079000141F00101010F0000000001F10101010A7
:1007A0001F10101010F010000000FF10101010109B
:1007B00010101010FF10000000FF140000FF00FFD9
:1007C00000001F10170000FC04F414141710171475
:1007D00014F404F40000FF00F71414141414141497
:1007E000F700F7141414171410101F101F1414140A
:1007F000F4141010F010F000001F101F0000001F74
:1008000014000000FC140000F010F01010FF10FFA6
:10081000141414FF141010101F00000000F010FF3B
:10082000FFFFFFFFF0F0F0F0F0FFFFFF000000001F
:1008300000FFFF0F0F0F0F0F38444438447C2A2A63
:100840003E147E02020606027E027E026355494184
:10085000633844443C04407E201E2006027E02028F
:1008600099A5E7A5991C2A492A1C4C7201724C30A3
:100870004A4D4D303048784830BC625A463D3E497A
:100880004949007E0101017E2A2A2A2A2A44445F1E
:10089000444440514A444040444A51400000FF0112
:1008A00003E080FF000008086B6B08361236243620
:1008B000060F090F06000018180000001010003085
:1008C00040FF0101001F01011E00191D1712003C0D
:1008D0003C3C3C000000000000407A10F35A00A0AD
:1008E000724E18090010A5D4E80000E876481700F9
:1008F00000E40B54020000CA9A3B000000E1F50539
:10090000000080969800000040420F000000A08682
:1009100001000000102700000000E80300000000B4
:100920006400000000000A00000000000100000058
:1009300000002C76D888DC674F0823DFC1DFAE5972
:10094000E1B1B796E5E3E453C63AE651997696E805
:10095000E6C28426EB898C9B62ED407C6FFCEFBC89
:100960009C9F40F2BAA56FA5F490055A2AF75C93B4
:100970006B6CF9676DC11BFCE0E40D47FEF520E6EA
:10098000B500D0ED902E0300943577050080841ECD
:10099000080000204E0A000000C80C333333330F28
:1009A000986E12831141EF8D2114893BE65516CFC5
:1009B000FEE6DB18D1844B381BF77C1D901DA4BBD1
:1009C000E424203284725E228100C9F124ECA1E586
:1009D0003D273E118720E32B731111241FBECFEF5B
:1009E000D8E0DEBFCDBF13E0A0E0B1E0EAE1F1E77F
:1009F00002C005900D92A23EB107D9F717E0A2EE12
:100A0000B3E001C01D92AF3BB107E1F719E0C8EDBB
:100A1000D9E004C02297FE010E947038C23DD10780
:100A2000C9F70E94DD200C9417050C940000F8947F
:100A30000C9480381F93CF93DF93182FC0E0D0E041
:100A400021968DE794E00E947322892B51F46AE08D
:100A500070E080E090E00E94FA1DC83CD10581F76B
:100A600012C08DE794E00E942A22112319F02EE390
:100A700030E002C02CE330E08217930741F781E0B9
:100A8000C83CD10509F480E0DF91CF911F91089512
:100A90008F929F92AF92BF92CF92DF92EF92FF928E
:100AA0000F931F93CF93DF9361E08DE00E94851E2B
:100AB00060E08EE00E94851E40E855E260E070E054
:100AC0008CE096E00E940C2029E288E190E00FB6CD
:100AD000F894A895809360000FBE20936000A895BD
:100AE00082EE93E00E94191540E855E260E070E064
:100AF0008DE794E00E947F2461E084E00E94851EDF
:100B00008DE794E00E94A02260E084E00E94BD1E78
:100B100064E670E080E090E00E94FA1D61E084E00D
:100B20000E94BD1E81E00E941A05811104C081E06F
:100B30008093DB0403C081E080937C0480917C047B
:100B4000882331F06AE073E082EE93E00E94621243
:100B500048E853E160E070E080E090E00E948F118F
:100B60000E94A91140E855E260E070E08CEE93E04D
:100B70000E947F248CEE93E00E94A022C3E7D5E080
:100B800014E6FE01812F11928A95E9F78AE191E03E
:100B90009F938F93DF93CF930E94C032BE018CEE60
:100BA00093E00E944721FE01812F11928A95E9F777
:100BB0008CE491E09F938F93DF93CF930E94C03298
:100BC000BE018CEE93E00E944721FE01812F11921D
:100BD0008A95E9F78DE591E09F938F93DF93CF930B
:100BE0000E94C032BE018CEE93E00E944721FE01BC
:100BF00011921A95E9F78DE691E09F938F93DF9319
:100C0000CF930E94C032BE018CEE93E00E94472138
:100C1000EDB7FEB770960FB6F894FEBF0FBEEDBFEE
:100C2000CEE1D5E068EC70E07B01FFEFEF1AFF0A40
:100C30008AEF96E00E9450258993B701603D7105C7
:100C400099F7609122057091230580912405909178
:100C500025056115710581059105F1F10E94182F97
:100C60006B017C0160911E0570911F05809120052C
:100C7000909121050E94182F4B015C0120E030E08B
:100C800040E752E4C701B6010E947F2E9B01AC01F0
:100C9000C501B4010E947F2E20913F05309140058F
:100CA00040914105509142050E947F2E4B015C010D
:100CB00020E030E041E655E4C701B6010E947F2EF6
:100CC0009B01AC01C501B4010E94333003E515E07E
:100CD00022E040E00E94073183E00E94501D4CE377
:100CE00062E085EF94E00E94722985EF94E00E9413
:100CF0007C2A68EE73E080E090E00E94FA1D85EFA8
:100D000094E00E94F82861E070E085EF94E00E9492
:100D10002B2861E085EF94E00E94252887E193E08D
:100D20009F938F9385E091E09F938F93C3E5D5E0E8
:100D3000DF93CF930E94C03209900020E9F7C3559A
:100D4000D54026E02C9FC0012D9F900D112460E816
:100D500070E0681B790B7695679540E050E085EF71
:100D600094E00E941F280F900F900F900F900F900B
:100D70000F9080912A05811103C06DE173E002C0DC
:100D80006FE173E085EF94E00E94282163E575E050
:100D900085EF94E00E94282162E085EF94E00E94B4
:100DA000252848E050E068E270E085EF94E00E947A
:100DB0001F2880913D058F9380913C058F9384E19E
:100DC00091E09F938F9383E595E09F938F930E948B
:100DD000C03263E575E085EF94E00E94282161E070
:100DE00085EF94E00E9425280F900F900F900F90B0
:100DF0000F900F9080912C058823F9F0ECE2F5E03C
:100E000001900020E9F7ED52F54026E02E9FC00149
:100E10002F9F900D112460E870E0681B790B769588
:100E2000679548E150E085EF94E00E941F286CE24E
:100E300075E085EF94E00E94282185EF94E00E9400
:100E40007C2AC0E0D4E02197CE010E94283100978F
:100E5000D1F30E94C3314AE050E0BE018CE096E03D
:100E6000DF91CF911F910F91FF90EF90DF90CF9086
:100E7000BF90AF909F908F900C9410229F92AF9252
:100E8000BF92CF92DF92EF92FF920F931F93CF9377
:100E9000DF93A82E6A017B01B22E932ECB01BA01FB
:100EA0000E94182F20E030E543EC57E40E947F2E8B
:100EB0000E94EC2E092FEB01182F592F9B01482F70
:100EC00060EA76E881E090E00E94DD37A7019601B4
:100ED000261B370B480B590BCA01B9012AE030E039
:100EE00040E050E00E941538AA20D1F05F934F9364
:100EF0003F932F930F931F93DF93CF938EEB92E04B
:100F00009F938F939F92BF920E94C0324DB75EB75E
:100F1000445F5F4F0FB6F8945EBF0FBE4DBF18C061
:100F20005F934F933F932F930F931F93DF93CF9331
:100F30008AEC92E09F938F939F92BF920E94C0325F
:100F40008DB79EB70C960FB6F8949EBF0FBE8DBF9F
:100F5000DF91CF911F910F91FF90EF90DF90CF9095
:100F6000BF90AF909F900895CF92DF92EF92FF9243
:100F70000F931F93CF93DF930E94182F20E836E939
:100F800048E15BE40E947F2E8B01D82FC92F9E0180
:100F9000712F832F922F0E94E72E882777FD80954F
:100FA000982F0E941A2F6B017C019B01AC01DE017E
:100FB000602F712F8B2F9A2F0E94B12D20E030E0EF
:100FC00040E752E40E947F2E20E030E048EC52E4FB
:100FD0000E943330A70196010E94B22DDF91CF917C
:100FE0001F910F91FF90EF90DF90CF9008952F9277
:100FF0003F924F925F926F927F928F929F92AF92A9
:10100000BF92CF92DF92EF92FF920F931F93CF93F5
:10101000DF93CDB7DEB7A4970FB6F894DEBF0FBE4F
:10102000CDBF8CEE93E00E94A0220E94BE1D6B01FA
:101030007C0110E011C08CEE93E00E942A22682F00
:1010400088E094E00E949819811111E08CEE93E001
:101050000E947322892B79F70E94BE1D4601570119
:10106000861A970AA80AB90AC616D706E806F90624
:1010700018F0D501C40106C0D501C4018095909532
:10108000A095B095883E9340A105B10510F00C9451
:101090009E100E94BC11892B11F00C949E10D6CF8B
:1010A00080910601813411F461E001C060E08DE0BF
:1010B0000E94BD1E0E94BC11892B11F40C942511B5
:1010C000A8950E9403126D8B7E8B8F8B988F0E9448
:1010D000A9118091A7049091A804A091A904B091AE
:1010E000AA04FC01EE0FFF1FEE0FFF1FE555FB4F9B
:1010F0002D893E894F89588D2083318342835383C4
:10110000BC01CD016F5F7F4F8F4F9F4F2CE030E0D0
:1011100040E050E00E9415386093A7047093A80443
:101120008093A9049093AA04EBEAF4E060E070E0F5
:10113000CB010191119121913191600F711F821F9B
:10114000931F34E0EB3DF307A1F70E94182F6B01CA
:101150007C0122EB35EC4CEF55E30E9433309B01D0
:10116000AC0160E070E080E89FE30E94B12D9B013C
:10117000AC01C701B6010E947F2E0E94EC2E2B010C
:101180003C018091A3049091A404A091A504B09186
:10119000A6042D893E894F89588D820F931FA41F65
:1011A000B51F8093A3049093A404A093A504B093C7
:1011B000A60480919B0490919C04A0919D04B09101
:1011C0009E040596A11DB11D80939B0490939C04E1
:1011D000A0939D04B0939E0480919F049091A004DD
:1011E000A091A104B091A20484159505A605B705A8
:1011F00040F440929F045092A0046092A104709227
:10120000A20480911E0590911F05A0912005B09128
:1012100021052D893E894F89588D820F931FA41F68
:10122000B51F80931E0590931F05A0932005B093D2
:1012300021056091220570912305809124059091EC
:1012400025056B5F7F4F8F4F9F4F609322057093F3
:101250002305809324059093250520E13EE040E09E
:1012600050E00E941538672B682B692B41F0809164
:10127000990490919A048C309105ACF01DC068ECF3
:1012800070E00EE115E0D8014D918D017B01BFEFBB
:10129000EB1AFB0A8AEF96E00E945325B701603DE6
:1012A000710589F7E4CF26E5209307010196909315
:1012B0009A04809399040AC0411451046104710492
:1012C00011F486E501C081E4809307018091DB047D
:1012D000811171C08CED97E09E878D871A8A198ADB
:1012E000188A1F8619861D8288248394912C8C0E5F
:1012F0009D1E55E0A52EB12CAC0EBD1E69E0C62E7C
:10130000D12CCC0EDD1E7FE0E72EF12CEC0EFD1E65
:101310008E01005F1F4F9E012F5E3F4FAE014E5E5C
:101320005F4FBE01635F7F4F88E094E00E94AD1B7A
:1013300089819A81AB81BC818F3F9F4FAF4FBF4F57
:10134000D1F189891F928F938A891F928F938091FF
:101350003D058F9380913C058F9380EE91E09F93A4
:101360008F938CED94E09F938F930E94C0320FB6C1
:10137000F894DEBF0FBECDBF81E08093DB048DE724
:1013800094E00E94A022A89561E273E08DE794E0CA
:101390000E9428216CED74E08DE794E00E942821E2
:1013A0006DE08DE794E00E94262380E00E941A05FC
:1013B0008111DCC6C9C684E6E3E7F5E0DF011D92D2
:1013C0008A95E9F70CED202E07E0302E3E862D861B
:1013D0001C8A1B8A1A8A198A188A1F8619861A86F5
:1013E0001B861C861D821E821F8218868CE0E7EDFC
:1013F000F5E0DF01282F1D922A95E9F7E3EEF5E0ED
:10140000DF011D928A95E9F780E2E3E5F5E0DF016F
:101410001D928A95E9F788248394912C8C0E9D1E49
:101420009FE0A92EB12CAC0EBD1E20E1C22ED12C06
:10143000CC0EDD1E31E1E32EF12CEC0EFD1E8E01F3
:101440000E5E1F4F9E012D5E3F4FAE014C5E5F4F03
:10145000BE01635F7F4F88E094E00E94AD1B8981ED
:101460009A81AB81BC818F3F9F4FAF4FBF4F41F4FB
:101470003E862D861C8A1B8A1A8A198A188A1F861C
:101480009E012F5F3F4FAE014B5F5F4FBE01675F15
:101490007F4F88E094E00E94211B809170048111AD
:1014A00002C086E501C081E48093060188E094E0F3
:1014B0000E947E1C6BA37CA31C0188E094E00E9428
:1014C000B41C6B8F7C8F8D8F9E8F20914804309140
:1014D00049043A8F298FC0904004D0904104E09095
:1014E0004204F090430489859A85AB85BC85B7FF9B
:1014F0000EC0B095A095909581959F4FAF4FBF4F6F
:1015000089879A87AB87BC8713E5B12E02C0BEE4FA
:10151000BB2E8D819E81AF81B885B7FF0EC0B0957F
:10152000A095909581959F4FAF4FBF4F8D839E8320
:10153000AF83B887A7E5AA2E02C0F5E4AF2E498590
:101540005A856B857C854F3F39EC53073AE9630731
:101550003BE3730719F440E050E0BA0127ED35E0B2
:1015600081E00E943E074D815E816F8178854F3F0B
:1015700089EC58078AE968078BE3780719F440E09B
:1015800050E0BA0123EE35E080E00E943E07209152
:101590009603309197034091980350919903BBA112
:1015A000ACA16B2F7A2F822D932D0E94782E811162
:1015B00005C0F0E0E0E070E060E004C0FBA1ECA159
:1015C000722D632D03E515E022E040E0DB016F2F73
:1015D0007E2F8B2F9A2F0E94073184E6E3E7F5E0F8
:1015E000DF011D928A95E9F7E98DFA8DEF3FF1054C
:1015F00019F480E090E002C0898D9A8DFFEFCF163C
:10160000DF06EF06FF0619F4C12CD12C76019F935B
:101610008F93FF92EF92DF92CF92809106011F92FB
:101620008F9383E595E09F938F931F92AF9283EE04
:1016300095E09F938F931F92BF9287ED95E09F93C4
:101640008F93809107011F928F938091A6048F93AF
:101650008091A5048F938091A4048F938091A3041B
:101660008F93288D2F933F893F934E894F935D89A8
:101670005F937F926F925F924F9288891F928F93B0
:1016800089891F928F938A891F928F938B891F92CA
:101690008F938C891F928F938E858F938D858F93D7
:1016A00080913D058F9380913C058F9389E293E073
:1016B0009F938F9381EF91E09F938F9303E715E0C2
:1016C0001F930F930E94C032F80101900020E9F7A8
:1016D0003197E01BF10BFF27BF01600F711FDB018A
:1016E0001C924091740585E795E00FB6F894DEBF33
:1016F0000FBECDBF0095109504C0DC012D91CD012A
:1017000042279C01200F311F2E173F07B4F34031B1
:1017100028F41F924F9381E492E004C01F924F93EC
:1017200086E492E09F938F937F936F930E94C032E1
:101730000F900F900F900F900F900F90809170046A
:10174000882309F4B7C069857A858B859C850E94BA
:10175000B4076D8B7E8B8F8B988F6D817E818F818F
:1017600098850E94B4076F8F78A389A39AA320E07D
:1017700030E040EA50E46B8D7C8D8D8D9E8D0E9413
:101780002830181624F0E9E18E2E912C03C075E064
:10179000872E912C20E030E040E251E46B8D7C8D6F
:1017A0008D8D9E8D0E94283018161CF46AE0862EBE
:1017B000912C20E030E040E751E46B8D7C8D8D8DE5
:1017C0009E8D0E94283018161CF454E1852E912C11
:1017D000809108018823D9F02D893E894F89588D41
:1017E0002093ED043093EE044093EF045093F00403
:1017F0008F8D98A1A9A1BAA18093F1049093F204CE
:10180000A093F304B093F4041092080153C0A09085
:10181000F104B090F204C090F304D090F404E0908E
:10182000ED04F090EE040091EF041091F0042F8D80
:1018300038A149A15AA16D897E898F89988D0E940E
:10184000171A0E94E72EAB01BC01AA2497FCA094B2
:10185000BA2C84169506A606B70660F58091E904B1
:101860009091EA04A091EB04B091EC04840F951FD1
:10187000A61FB71F8093E9049093EA04A093EB049A
:10188000B093EC042D893E894F89588D2093ED0447
:101890003093EE044093EF045093F0048F8D98A1A1
:1018A000A9A1BAA18093F1049093F204A093F30448
:1018B000B093F40485EF94E00E94F82880912A0503
:1018C0008111F2C1C0909B04D0909C04E0909D04D3
:1018D000F0909E04C701B60120E13EE040E050E0F8
:1018E0000E941538122F2A8BC701B6012CE330E075
:1018F00040E050E00E9415389CE3199F2019112404
:10190000298B1F922F931F921F938AE492E09F933B
:101910008F9383E595E09F938F930E94C03240E1BF
:1019200050E06CE570E085EF94E00E941F2861E0D4
:1019300085EF94E00E94252861E070E085EF94E057
:101940000E942B2863E575E085EF94E00E94472113
:1019500040E050E060E070E085EF94E00E941F28D6
:1019600062E085EF94E00E9425280FB6F894DEBF70
:101970000FBECDBF80910701863549F441E050E0AC
:1019800060E070E085EF94E00E94312806C061E0DD
:1019900070E085EF94E00E942B28C301B201B9EEFC
:1019A0004B16B3E05B0661047104C0F028EE33E02F
:1019B00040E050E00E941538CA01B9010E94182F7A
:1019C00003E515E021E040E00E940731B80185EF12
:1019D00094E00E9428216FE273E009C00E94182F52
:1019E00003E515E020E040E00E940731B80185EFF3
:1019F00094E00E94282185E592E09F938F9383E5F0
:101A000095E09F938F930E94C03263E575E085EF68
:101A100094E00E9428210F900F900F900F908091DA
:101A20007C04882339F061E070E085EF94E00E9447
:101A30002B280EC08091EF059091F005892B99F32A
:101A400041E050E060E070E085EF94E00E943128D2
:101A500061E085EF94E00E9425288091700440E0C9
:101A600050E081111BC06CE570E085EF94E00E94AE
:101A70001F288AE592E09F938F9383E595E09F93DB
:101A80008F930E94C03263E575E085EF94E00E9479
:101A900047210F900F900F900F9020C064E770E0E7
:101AA00085EF94E00E941F28EA8DEF93F98DFF9354
:101AB00081E393E09F938F9383E595E09F938F93CA
:101AC0000E949C3263E575E085EF94E00E94472117
:101AD0000F900F900F900F900F900F9061E070E0BB
:101AE00085EF94E00E942B2840E150E060E070E038
:101AF00085EF94E00E941F2880912B0581111CC066
:101B0000C301B2010E94182F20913F05309140057A
:101B100040914105509142050E947F2E03E515E05A
:101B200023E040E00E940731B80185EF94E00E9475
:101B3000282181E692E01DC0813059F5C301B20130
:101B40000E94182F2091430530914405409145058E
:101B5000509146050E94333003E515E023E040E054
:101B60000E940731B80185EF94E00E94282188E6A1
:101B700092E09F938F93C8019F930F930E94C0326E
:101B8000B80185EF94E00E9447210F900F900F90CD
:101B90000F908091EF059091F005892B09F440C0DA
:101BA0006091E9047091EA048091EB049091EC0457
:101BB0000E94182F20E030E04AE754E40E947F2E74
:101BC00003E515E021E040E00E940731F8010190B3
:101BD0000020E9F73197E01BF10B26E02E9FC001B2
:101BE0002F9F900D112464E770E0681B790B48E08B
:101BF00050E085EF94E00E941F28B80185EF94E043
:101C00000E9428218FE692E09F938F931F930F935A
:101C10000E94C032B80185EF94E00E944721D4C1F0
:101C200080917004882369F003E515E020E040E02E
:101C3000FBA1ECA16F2F7E2F822D932D0E940731E7
:101C40000EC082E792E09F938F9383E595E09F9388
:101C50008F930E94C0320F900F900F900F90E3E58A
:101C6000F5E001900020E9F73197E355F54026E0D3
:101C70002E9FC0012F9F900D11246AE770E0681B12
:101C8000790B48E050E085EF94E00E941F2863E55F
:101C900075E085EF94E00E9428216AE473E085EF07
:101CA00094E00E94472194C1813009F068C180917D
:101CB0000701863549F441E050E060E070E085EFCF
:101CC00094E00E94312806C061E070E085EF94E066
:101CD0000E942B2862E085EF94E00E94252840E0D6
:101CE00050E060E070E085EF94E00E941F28C3019F
:101CF000B2010E94182F6B017C0120913F053091A9
:101D0000400540914105509142050E947F2E03E518
:101D100015E022E040E00E940731B80185EF94E031
:101D20000E94282185E792E09F938F9318013F92AC
:101D30000F930E94C032B80185EF94E00E942821E1
:101D400040E150E060E070E085EF94E00E941F28E1
:101D500061E085EF94E00E94252861E070E085EF66
:101D600094E00E942B280F900F900F900F9080917D
:101D7000EF059091F005892B09F45EC029EE42161B
:101D800023E0520661047104C0F0C301B20128EEE1
:101D900033E040E050E00E941538CA01B9010E94CA
:101DA000182F21E040E00E940731B80185EF94E050
:101DB0000E9428216FE273E00AC02AE030E0B301FC
:101DC000A20185EF94E00E94B72167E273E085EFFE
:101DD00094E00E9428218BE792E09F938F9343E544
:101DE000A42E45E0B42EBF92AF920E94C032B5013E
:101DF00085EF94E00E94282120914305309144050D
:101E00004091450550914605C701B6010E94333007
:101E1000850120E040E00E940731B50185EF94E0A4
:101E20000E94282180E892E09F938F93BF92AF9207
:101E30000E94C032B50199C087E892E09F938F93CA
:101E40003F920F930E94C03263E575E085EF94E006
:101E50000E94282160919F047091A0048091A104A8
:101E60009091A2040E94182F20913F0530914005C7
:101E700040914105509142050E947F2E03E515E0F7
:101E800021E040E00E940731B80185EF94E00E9414
:101E900028218BE892E09F938F933F922F920E948C
:101EA000C032B80185EF94E00E94282181E992E0D8
:101EB0009F938F933F922F920E94C032B80185EF7B
:101EC00094E00E9428216091220570912305809161
:101ED0002405909125050E94182F6B017C016091CB
:101EE0001E0570911F0580912005909121050E948B
:101EF000182F4B015C0120E030E040E752E4C701BD
:101F0000B6010E947F2E9B01AC01C501B4010E9465
:101F10007F2E20913F053091400540914105509121
:101F200042050E947F2E4B015C0120E030E041E63B
:101F300055E4C701B6010E947F2E9B01AC01C5018B
:101F4000B4010E94333020E040E00E940731B80124
:101F500085EF94E00E94282185E992E09F938F937A
:101F60003F922F920E94C032B80185EF94E00E9408
:101F700028210FB6F894DEBF0FBECDBF29C040E0C8
:101F800050E060E070E085EF94E00E941F2862E07E
:101F900085EF94E00E94252841E050E060E070E089
:101FA00085EF94E00E94312888E992E09F938F9317
:101FB00083E595E09F938F930E94C03263E575E0BF
:101FC00085EF94E00E9428210F900F900F900F90C2
:101FD00088891F928F9389891F928F938A891F9274
:101FE0008F938C891F928F938B891F928F9385EA91
:101FF00092E09F938F9383E595E09F938F930E9448
:10200000C03248E150E060E070E085EF94E00E946B
:102010001F2861E085EF94E00E94252861E070E0D0
:1020200085EF94E00E942B2863E575E085EF94E04E
:102030000E94472185E10E94531DBC01882777FD3E
:102040008095982F0E941A2F20E030E040E85AE354
:102050000E94333023E333E343E550E40E943330FE
:1020600024EB35EC4AEC5DE30E947F2E20E030E06B
:1020700040E650E40E94B12D20E030E040E051E421
:102080000E9433302DEC3CEC4CE45FE30E947F2E49
:102090000E94E72E6B010FB6F894DEBF0FBECDBFD6
:1020A00077FD04C06930710524F406C0C12CD12C21
:1020B00003C038E0C32ED12CEE24E394F12C07E0CA
:1020C00010E02CE030E048E150E064E770E085EF9C
:1020D00094E00E941F2603E010E096014AE150E0E0
:1020E00066E770E085EF94E00E949B2685EF94E020
:1020F0000E947C2A8091EF059091F005E1E08E2707
:102100009093F0058093EF0563E775E08CE096E02F
:102110000E9447218091DB04882309F496C08091B6
:102120002A05811192C08DE794E00E94A02263E706
:1021300075E08DE794E00E94472187C0112311F4D8
:102140000C9450080C94540860E084E00E94BD1E7A
:1021500064E670E080E090E00E94FA1D61E084E0B7
:102160000E94BD1E81E00E941A050DC98DE791E015
:102170009F938F9303E515E01F930F930E94C03246
:10218000B8018DE794E00E94282181E991E09F93B6
:102190008F931F930F930E94C032B8018DE794E094
:1021A0000E94282187E991E09F938F931F930F93BB
:1021B0000E94C032B8018DE794E00E9428218091EE
:1021C00052051F928F93809151058F9380915005F6
:1021D0008F9380914F051F928F9380914E051F9290
:1021E0008F9360913F0570914005809141059091DA
:1021F00042050E94E72E7F936F938AE495E09F93B8
:102200008F93809149051F928F938CE295E09F9365
:102210008F938BEA91E09F938F9383E795E09F9351
:102220008F930E94C0320FB6F894DEBF0FBECDBFB1
:1022300063E775E08DE794E00E94282163E775E08D
:102240008CE096E00E942821B6C8A4960FB6F894B8
:10225000DEBF0FBECDBFDF91CF911F910F91FF90D9
:10226000EF90DF90CF90BF90AF909F908F907F9036
:102270006F905F904F903F902F900895EF92FF9254
:102280000F931F930CE0E02E0DE02BE04AE069E095
:1022900085EF94E00E94E72820E045E066E08DE7C6
:1022A00094E00E944F2461E088E094E00E94A5152C
:1022B00020E047E068E08CEE93E00E944F2484E643
:1022C000E82EF12C03E715E02EE135E046E255E07B
:1022D0006DE774E082EE93E00E940C121F910F9163
:1022E000FF90EF9008958CEE93E00E9449258DE7D2
:1022F00094E00C9449258091F1059091F205A0910C
:10230000F305B091F4050196A11DB11D8093F1056F
:102310009093F205A093F305B093F405089580938C
:10232000FD059093FE054093F5055093F6056093E7
:10233000F7057093F8051092F1051092F2051092CE
:10234000F3051092F40543E050E06BE771E10C9463
:10235000D61C0E94BE1D6093F9057093FA05809308
:10236000FB059093FC051092F1051092F205109276
:10237000F3051092F4050895CF92DF92EF92FF9249
:102380000F931F930E94BE1DC090F905D090FA05CF
:10239000E090FB05F090FC050091F5051091F60525
:1023A0002091F7053091F8056C157D058E059F0588
:1023B00088F0AB01BC014C195D096E097F09E1E0B1
:1023C000F0E0401751076207730710F4E0E0F0E017
:1023D000CF0112C0C094D094E094F094C60ED71EE2
:1023E000E81EF91E41E050E0C016D106E206F306F1
:1023F00010F440E050E0CA011F910F91FF90EF9060
:10240000DF90CF9008956091F1057091F205809171
:10241000F3059091F4050895EF92FF920F931F93A7
:10242000FC01718360835383428335832483178344
:102430000683F186E0861F910F91FF90EF9008953B
:10244000EF92FF920F931F93CF93DF938B01035D66
:102450001F4FEB017C01E61AF70ABE016E0D7F1DCE
:1024600049918AEF96E00E945325C017D107A9F73A
:102470008DE290E0DF91CF911F910F91FF90EF904F
:102480000895EF92FF920F931F93CF93DF938B01E9
:10249000085F1F4FEB017C01E61AF70ABE016E0DC3
:1024A0007F1D49918AEF96E00E945325C017D107FE
:1024B000A9F788E090E0DF91CF911F910F91FF90F5
:1024C000EF9008956F927F928F929F92AF92BF92FA
:1024D000CF92DF92EF92FF920F931F93CF93DF93F0
:1024E00000D0CDB7DEB73C01DC018D919C916983B2
:1024F0007A830E94A022F30181858F9380858F9338
:102500007A817F9369816F938AED92E09F938F9395
:1025100087818F9386818F930E94C032D301169654
:102520006D917C9117978D919C910E942821F301C8
:1025300080819181DC01ED91FC910190F081E02D91
:102540006DE009950FB6F894DEBF0FBECDBFD30185
:102550008D919C91DC01ED91FC910480F581E02D41
:102560000995892BA1F3F30180819181DC01ED9123
:10257000FC910680F781E02D09950D9741F7F30155
:102580004085518560E070E0868197810E947D32B0
:1025900000E010E0B12CD3018D919C91DC01ED9114
:1025A000FC910480F581E02D0995892B99F0F301C8
:1025B000068117810B0D111D80819181DC01ED9148
:1025C000FC910680F781E02D0995F8018083B39492
:1025D00000E010E061E070E080E090E00E94FA1D11
:1025E0002B2D30E0D30118968D919C9119972817C7
:1025F000390729F4D12CA12C88E0C82EE5C10F5F42
:102600001F4F083EB3E01B0734F2F4CFF30186817D
:102610009781FC01ED0DF11D60E00BC06F5F4D2D4A
:1026200050E0D30118962D913C911997421753070A
:1026300039F0DC01AD0DB11D2C91D3942A3071F726
:10264000DF01A60FB11D1C928081882309F4BCC153
:10265000833209F4B9C1633008F4B6C180E07F0168
:10266000E80EF11CD7019C91903209F4C9C1993050
:1026700009F4C6C106C0903211F0993009F41C92D9
:102680008F5F861709F4A0C1DF01A80FB11D9C91CF
:102690009D3389F7861709F497C11C928F5F8F01CC
:1026A000080F111DD8019C91903209F4ADC19930E9
:1026B00009F4AAC1861709F487C165E373E0C7016D
:1026C0000E948432009751F5C8010E945F32BC011C
:1026D000882777FD8095982F0E941A2F4B017C0147
:1026E000F30102811381762F272F392D4E2D5F2D77
:1026F000D80159966D917D918D919C915C970E9426
:10270000782E882309F460C1482D592D6E2D7F2D18
:10271000F801418F528F638F748F38C16AE373E081
:10272000C7010E948432009761F5C8010E945F32A0
:10273000BC01882777FD8095982F0E941A2F4B01A6
:102740007C01D30112960D911C911397762F272FA0
:10275000392D4E2D5F2DF801658D768D878D90A1D9
:102760000E94782E882309F42FC1482D592D6E2DF3
:102770007F2DD8015D964D935D936D937C939097DB
:1027800005C16FE373E0C7010E948432009739F4FA
:10279000F301E280F380F6E0EF0EF11C74C062E416
:1027A00073E0C7010E948432009799F4D301129616
:1027B000ED90FC901397C8010E945F329C01F701D5
:1027C000868997898217930709F4FEC0378B268B79
:1027D000DDC066E473E0C7010E948432009789F48B
:1027E000D3011296ED90FC901397C8010E945F32BE
:1027F000F701248130E02817390709F4E5C0848304
:10280000C5C069E473E0C7010E948432009789F46F
:10281000D3011296ED90FC901397C8010E945F328D
:10282000F701258130E02817390709F4CDC08583E9
:10283000ADC06CE473E0C7010E948432009799F444
:10284000D3011296ED90FC901397C8010E945F325D
:102850009C01F70181A192A18217930709F4B4C0EA
:1028600032A321A393C06FE473E0C7010E948432B6
:102870000097A9F4D80113961C92F301E280F3802B
:10288000F4E2EF0EF11CB801C7010E9484320097F8
:1028900009F49AC0B801C7010E948D3277C062E581
:1028A00073E0C7010E948432009789F4D301129625
:1028B000ED90FC901397C8010E945F32F70123A1AD
:1028C00030E02817390709F47FC083A35FC065E5AE
:1028D00073E0C7010E948432009789F4D3011296F5
:1028E000ED90FC901397C8010E945F32F70120A57C
:1028F00030E02817390709F467C080A747C068E5AA
:1029000073E0C7010E948432009789F4D3011296C4
:10291000ED90FC901397C8010E945F32F70121A54A
:1029200030E02817390709F44FC081A72FC06BE5A5
:1029300073E0C7010E948432009791F4D30112968C
:10294000ED90FC901397C8010E945F329C01F70143
:1029500082A593A582179307B9F133A722A716C0C2
:102960006EE573E0C7010E948432009791F4D301B1
:102970001296ED90FC901397C8010E945F32F70108
:1029800024A530E028173907F9F084A7AA24A394D6
:102990001BC061E673E0C7010E9484320097A1F476
:1029A000D3011496EC9114971596FC91DF018C2DB0
:1029B0001D928A95E9F7D30114966D917C91159734
:1029C00088EC90E00E944112DB1408F41FCEAA208C
:1029D000F9F0F3016281738184EF91E00F900F9021
:1029E000DF91CF911F910F91FF90EF90DF90CF90EB
:1029F000BF90AF909F908F907F906F900C9420121B
:102A00008F5F86132CCEE0CF8F5F861348CEDCCF4E
:102A10000F900F90DF91CF911F910F91FF90EF904A
:102A2000DF90CF90BF90AF909F908F907F906F90EE
:102A30000895EF92FF920F931F93CF93DF93EC01D2
:102A4000EA81FB818DE2DF011D928A95E9F70A8117
:102A50001B8164EF71E07B01BFEFEB1AFB0A8AEF89
:102A600096E00E945025F80181938F01B701F1E2B1
:102A7000EF16F2E0FF0679F7EA81FB814081518190
:102A8000628173814D30504F6E4F7A4509F456C0C4
:102A90008DE2DF011D928A95E9F7EA81FB814DE025
:102AA00050EF6EEF7AE5408351836283738382ED4A
:102AB00090E0978B868B89E083A386ED92E09F93CD
:102AC0008F938A819B8184969F938F930E94C032BB
:102AD000EA81FB818CE3808FEA81FB8140E050E05A
:102AE00067EA73E4418F528F638F748F40E050E048
:102AF00064E172E4458F568F678F70A384E690E09F
:102B000093A782A7BF0184EF91E00E942012EC817D
:102B1000FD8188E0DF011D928A95E9F70F900F9003
:102B20000F900F906C817D8188EC90E0DF91CF91C8
:102B30001F910F91FF90EF900C944112DF91CF9174
:102B40001F910F91FF90EF9008950F931F93CF93D4
:102B5000FC01C62F0FEF1FEF980100831183228322
:102B6000338310861186128613864FEF59EC6AE97B
:102B70007BE3408B518B628B738B408F518F628FC5
:102B8000738F40A351A362A373A340A751A762A769
:102B900073A740AB51AB62AB73AB00AF11AF22AFC9
:102BA00033AFDC01A05CBF4F8FEF90E08D939C931F
:102BB000DF01AC5BBF4F0D931D932D933C93139797
:102BC000DF01A45BBF4F0D931D932D933C9313978F
:102BD000DF01AC5ABF4F1C92DF01AB5ABF4F1C92B2
:102BE000DF01AB59BF4F82E08C93DF01AA59BF4F81
:102BF0001C92DF01A959BF4F1C92DF01A859BF4F9A
:102C00001C92DF01A659BF4F1D921D921D921C926E
:102C10001397DF01A259BF4F1D921C92DF01A059EB
:102C2000BF4F1D921C92DF01AA5ABF4F1C92E75959
:102C3000FF4FC083CF911F910F910895862F81542C
:102C4000262F30E0863018F42753310908C061562A
:102C5000663018F42755310902C020533109C901E3
:102C60000895CF93FB0120E030E0A9010EC0AAE057
:102C7000B0E00E94CA379B01AC012C0F311D411DF1
:102C8000511D2053310941095109C1918C2F8053A5
:102C90008A3068F3B901CA01CF9108952F923F920B
:102CA0004F925F926F927F928F929F92AF92BF925C
:102CB000CF92DF92EF92FF920F931F93CF93DF9308
:102CC000EC01CA5ADF4FBE010E9431161B018C0174
:102CD000FE018191982F90539A30D8F38E3241F5AE
:102CE000EF0180E1882E87E2982EA12CB12CC12C17
:102CF000D12C76019AE0492E512C612C712C12C0F6
:102D0000B0E0D097A50194010E94D537C60ED71E1A
:102D1000E81EF91EC501B401A30192010E941538F5
:102D200049015A01A9918A2F80538A3048F303C080
:102D3000C12CD12C76019101A80160EA76E881E0EE
:102D400090E00E94DD378B019C010C0D1D1D2E1D96
:102D50003F1DB801C901DF91CF911F910F91FF90E5
:102D6000EF90DF90CF90BF90AF909F908F907F902B
:102D70006F905F904F903F902F9008952F923F92C9
:102D80004F925F926F927F928F929F92AF92BF927B
:102D9000CF92DF92EF92FF920F931F93CF93DF9327
:102DA0005C0126E5A20EB11CB5010E9431168B0113
:102DB000D82FC92F24E630E040E050E00E941538BB
:102DC0009B01AC0160EA76E881E090E00E94DD378B
:102DD0006B017C01F5018191982F90539A30D8F3C3
:102DE0008E3231F51F0120E1822E27E2922EA12C96
:102DF000B12C3AE0432E512C612C712C12C0B0E062
:102E0000D097A50194010E94D537C60ED71EE81EA3
:102E1000F91EC501B401A30192010E9415384901B0
:102E20005A01F101A1911F018A2F80538A3038F392
:102E3000C701B6016B5F7F4F8F4F9F4F26E030E099
:102E400040E050E00E94153869017A01B8018D2FE9
:102E50009C2F24E630E040E050E00E94153860E40A
:102E600072E48FE090E00E94DD37C60ED71EE81EA8
:102E7000F91EB601C701DF91CF911F910F91FF900D
:102E8000EF90DF90CF90BF90AF909F908F907F900A
:102E90006F905F904F903F902F900895FF920F9307
:102EA0001F93CF93DF93EC01CA5ADF4FFF24F394B3
:102EB00028812D3211F0F12C03C0EC01C95ADF4FEB
:102EC000BE010E9431169B01AC01A4E6B0E00E9455
:102ED000CA378B019C01FE018991982F90539A303B
:102EE000D0F38E3211F58181982F90539A30E8F407
:102EF0004AE0849FC0011124805E9140AA2797FD7B
:102F0000A095BA2F080F191F2A1F3B1F8281982FE7
:102F100090539A3050F490E0C097AA2797FDA0955F
:102F2000BA2F080F191F2A1F3B1FFF2039F03095B9
:102F30002095109501951F4F2F4F3F4FB801C901A4
:102F4000DF91CF911F910F91FF900895DB01FA015E
:102F50008D91882319F091918917D1F390E008950C
:102F6000EF92FF920F931F93CF93DF93EC01FC013D
:102F7000EB5AFF4F8081FE01882309F4EBC0EA5A27
:102F8000FF4F6081CE010E941E16182FFE01E95AE4
:102F9000FF4F6081CE010E941E1620E1129F800D1E
:102FA0001124FE01EC5AFF4F90818913CDC0FE0120
:102FB000E859FF4F8081882309F493C0FE01E2594C
:102FC000FF4F80819181019691838083FE01EC5BAC
:102FD000FF4FDE01A85BBF4F8D919D910D90BC917D
:102FE000A02D80839183A283B383FE01E45BFF4F16
:102FF000DE01A05BBF4F8D919D910D90BC91A02DE6
:1030000080839183A283B383FE01EB59FF4F8081BC
:103010008823A1F1813009F081C18C819D81AE812D
:10302000BF8188839983AA83BB838C859D85AE8568
:10303000BF8588879987AA87BB878C899D89AE8938
:10304000BF89888B998BAA8BBB8B4C8D5D8D6E8DC8
:103050007F8D488F598F6A8F7B8F4CA55DA56EA59C
:103060007FA548A759A76AA77BA74CA95DA96EA908
:103070007FA948AB59AB6AAB7BAB50C14CA15DA1FA
:103080006EA17FA148A359A36AA37BA34C815D8154
:103090006E817F81488359836A837B834C895D89F4
:1030A0006E897F89488B598B6A8B7B8B4C8D5D8DAC
:1030B0006E8D7F8D488F598F6A8F7B8FFE01E05C0C
:1030C000FF4FDE01AE5BBF4F8D919C91918380835A
:1030D0004CAD5DAD6EAD7FAD48AF59AF6AAF7BAF64
:1030E0001DC14C815D816E817F8141155105610556
:1030F000710509F415C1FE01EC5BFF4FDE01A85B11
:10310000BF4F0D911D912D913C910083118322831E
:103110003383FE01EB59FF4F8081882381F081309A
:1031200009F0FEC0488359836A837B834C855D85A3
:103130006E857F85488759876A877B87F1C048837A
:1031400059836A837B83ECC0C059DF4F88819981A2
:103150000196D1C0EA59FF4F9081911120C07E01A4
:1031600086E5E80EF11C46E653E0B701CE010E9469
:10317000A6178E010B591F4F892B11F481E00CC04B
:103180004CE653E0B701CE010E94A617892B19F433
:10319000F8011082C5C082E0F8018083C1C0FE0141
:1031A000EB59FF4FE081E23009F4BAC0DE01AA5AC0
:1031B000BF4F8C91882309F4B3C020E2E29FF00155
:1031C0001124E92B3197E932F10508F0A9C0EC5C34
:1031D000FF4F0C946E38CE010E944E176C837D8396
:1031E0008E839F830E94BE1DC85BDF4F1CC0C859E1
:1031F000DF4F91E0813409F474C072C0FE01E759D9
:10320000FF4F8081882321F0CE010E944E1603C01B
:10321000CE010E94BE166C8B7D8B8E8B9F8B0E9485
:10322000BE1DC05BDF4F688379838A839B8378C030
:10323000833509F075C04C895D896E897F897095E9
:103240006095509541955F4F6F4F7F4F4C8B5D8BD5
:103250006E8B7F8B65C0FE01E759FF4F808188230D
:1032600021F0CE010E944E1603C0CE010E94BE1670
:103270006C8F7D8F8E8F9F8F53C0873509F050C024
:103280004C8D5D8D6E8D7F8D7095609550954195BF
:103290005F4F6F4F7F4F4C8F5D8F6E8F7F8F40C022
:1032A000CE010E944E176CA77DA78EA79FA738C09E
:1032B000CE010E944E176CAB7DAB8EAB9FAB30C086
:1032C000BE016A5A7F4FCE010E9431166C877D87FE
:1032D0008E879F8725C0C859DF4F91E0813308F45E
:1032E00090E098831DC0CE018A5A9F4F0E945F32A2
:1032F000CE5BDF4F99279983888312C0CE010E944D
:103300004E176CAF7DAF8EAF9FAF0AC0CE010E944B
:103310004E176CA37DA38EA39FA302C081E001C0C2
:1033200080E0DF91CF911F910F91FF90EF90089572
:103330001F93CF93DF93EC01162FFC01E659FF4F4B
:1033400040815181628173814F5F5F4F6F4F7F4F2B
:103350004083518362837383FC01E959FF4F143228
:10336000A9F130F41A3079F01D3009F045C00BC0D6
:103370001A3249F01C3209F03FC0FC01EC5AFF4FF1
:10338000808181278083FE01E959FF4F80818F3042
:1033900050F4FE01E80FF11DEA5AFF4F1082CE01F2
:1033A0000E94B01701C080E0FE01EA59FF4F9081F2
:1033B0009F5F9083FE01E959FF4F1082CB5ADF4F88
:1033C00091E01A3209F090E098832DC01082FC0140
:1033D000EA59FF4F1082FC01EC5AFF4F1082FC01AA
:1033E000EB59FF4F82E08083FE01EB5AFF4F1082C2
:1033F000C859DF4F188216C080818E3040F4DE013C
:10340000A80FB11DAA5ABF4F1C938F5F8083FE0186
:10341000EB5AFF4F8081811105C0CC5ADF4F888164
:103420008127888380E0DF91CF911F9108952F92AB
:103430003F924F925F926F927F928F929F92AF9244
:10344000BF92CF92DF92EF92FF920F931F93CF9391
:10345000DF93CDB7DEB760970FB6F894DEBF0FBE2F
:10346000CDBF69837A838B839C83CA01B901A6018E
:1034700095010E94B12D25E33AEF4EE85CE30E94EE
:1034800033306B015C017D2D9B2D0E9496302B010A
:103490003C016C2D7D2D8A2D9B2D0E947C2E6D83F1
:1034A0007E838F83988725E33AEF4EE85CE369815A
:1034B0007A818B819C810E9433306B01898399874B
:1034C00025E33AEF4EE85CE3C801B7010E943330D0
:1034D000162F072F382E292E398129856C2D7D2D09
:1034E000832F922F0E9496304B015C0139812985F0
:1034F0006C2D7D2D832F922F0E947C2E69837A83E1
:103500008B839C83A8019101652F742F832F922FA9
:103510000E94963069877A878B879C87A8019101E2
:10352000652F742F832F922F0E947C2E6B017C01BC
:1035300029853A854B855C8569817A818B819C815F
:103540000E9433306D877E878F87988BA701960105
:10355000C501B4010E9433302D813E814F815885D1
:103560000E9433309B01AC016D857E858F859889E3
:103570000E94B12D262F372F482F592F0E9433300C
:10358000362E272E182F092FA3019201C701B6014D
:103590000E943330262F372F482F592F0E94333067
:1035A0009B01AC01D101F8016B2F7A2F8F2F9E2F39
:1035B0000E94B22D0E94A0302B013C0129853A8542
:1035C0004B855C85C501B4010E9433304B015C0121
:1035D000A701960169817A818B819C810E94333099
:1035E0002D813E814F8158850E9433309B01AC0173
:1035F000C501B4010E94B22D9B01AC01C301B2010F
:103600000E94252E26E73BE742EC5AE40E94333025
:1036100060960FB6F894DEBF0FBECDBFDF91CF919D
:103620001F910F91FF90EF90DF90CF90BF90AF90E0
:103630009F908F907F906F905F904F903F902F90D2
:1036400008950F931F93CF93DF93E90161157105DF
:1036500051F0FC010089118922893389FB01008323
:103660001183228333834115510551F0FC01008DF4
:10367000118D228D338DFA010083118322833383D0
:10368000209701F18C01045B1F4FF80140815181AB
:10369000628173814F3F5F4F6F4F7F4F61F00E9498
:1036A000BE1DF8010081118122813381601B710BE5
:1036B000820B930B03C06FEF7FEFCB01688379839D
:1036C0008A839B83DF91CF911F910F9108950F9370
:1036D0001F93CF93DF93E9016115710551F0FC0150
:1036E0000085118522853385FB01008311832283A8
:1036F00033834115510551F0FC0100811181228174
:103700003381FA010083118322833383209701F1EF
:103710008C010C5B1F4FF8014081518162817381E4
:103720004F3F5F4F6F4F7F4F61F00E94BE1DF8010A
:103730000081118122813381601B710B820B930BFD
:1037400003C06FEF7FEFCB01688379838A839B830C
:10375000DF91CF911F910F9108952F923F924F9239
:103760005F926F927F928F929F92AF92BF92CF9211
:10377000DF92EF92FF920F931F93CF93DF93CDB71A
:10378000DEB72A970FB6F894DEBF0FBECDBF1B0180
:103790002A013901BA86A9869401AE014F5F5F4FB5
:1037A000BE016B5F7F4F0E94671B21143104B9F08B
:1037B0006D817E818F81988524E630E040E050E085
:1037C0000E941538613571051CF08CE697E002C047
:1037D00080ED97E0680F791FF101718360834114D8
:1037E0005104A9F06D817E818F819885E4E68E2E4B
:1037F000912CA12CB12CA50194010E941538CA016D
:10380000B901A50194010E941538F2016083611489
:10381000710461F06D817E818F81988520E137E2AE
:1038200040E050E00E941538F30120830115110596
:1038300061F069817A818B819C8120E432E44FE0E0
:1038400050E00E941538F8012083E114F104A1F042
:1038500069817A818B819C8120E137E240E050E0F0
:103860000E941538CA01B90124E630E040E050E07A
:103870000E941538F7016083C114D104A9F0698151
:103880007A818B819C8154E6852E912CA12CB12CC0
:10389000A50194010E941538CA01B901A50194013E
:1038A0000E941538F601608389859A85892B69F015
:1038B00069817A818B819C8124E630E040E050E090
:1038C0000E941538E985FA8560832A960FB6F89428
:1038D000DEBF0FBECDBFDF91CF911F910F91FF9043
:1038E000EF90DF90CF90BF90AF909F908F907F90A0
:1038F0006F905F904F903F902F900895FC0160A1D2
:1039000071A182A193A16F3FF9EC7F07FAE98F07BC
:10391000FBE39F0749F00E941A2F20E030E048ECBB
:1039200052E40E947F2E04C060E074E284E799E4D0
:103930000895FC0160A571A582A593A56F3FF9ECE0
:103940007F07FAE98F07FBE39F0749F00E94182FD2
:1039500020E030E048EC52E40E947F2E04C060E09A
:1039600070E080E89FEB0895CF92DF92EF92FF9294
:103970000E94991C6B017C0120E030E040E85FEB85
:103980000E94782E882349F026E53EE04DEE5FE365
:10399000C701B6010E94333004C060E070E080E8E7
:1039A0009FEBFF90EF90DF90CF9008958230E8F486
:1039B000E82FF0E0EE0FFF1FE150FA4F71836083B4
:1039C000813041F0809169008C7F842B8093690065
:1039D000E89A089580916900440F551F440F551FC0
:1039E000837F842B80936900E99A08951F920F9238
:1039F0000FB60F9211242F933F934F935F936F93C2
:103A00007F938F939F93AF93BF93EF93FF93809197
:103A1000FF0590910006892B29F0E091FF05F091B8
:103A200000060995FF91EF91BF91AF919F918F9102
:103A30007F916F915F914F913F912F910F900FBEAA
:103A40000F901F9018951F920F920FB60F9211248E
:103A50002F933F934F935F936F937F938F939F9396
:103A6000AF93BF93EF93FF9380910106909102066D
:103A7000892B29F0E0910106F09102060995FF914A
:103A8000EF91BF91AF919F918F917F916F915F91D6
:103A90004F913F912F910F900FBE0F901F9018954F
:103AA0008093090108958E3008F08E508770209120
:103AB000090140E4249F90011124822B80937C0013
:103AC00080917A00806480937A0080917A0086FDEC
:103AD000FCCF2091780030917900932F80E0AC01E9
:103AE000422B9A01C90108951F920F920FB60F92AF
:103AF00011242F933F938F939F93AF93BF93809104
:103B0000030690910406A0910506B0910606309137
:103B10000B06232F2A5F2D3720F40296A11DB11D1D
:103B200005C0232F27570396A11DB11D20930B0617
:103B30008093030690930406A0930506B0930606AF
:103B40008091070690910806A0910906B0910A0697
:103B50000196A11DB11D8093070690930806A093BE
:103B60000906B0930A06BF91AF919F918F913F9143
:103B70002F910F900FBE0F901F9018950F931F93CA
:103B80008FB7F89400910306109104062091050662
:103B9000309106068FBFB801C9011F910F9108959A
:103BA0000F931F939FB7F894009107061091080692
:103BB0002091090630910A0686B5A89B06C08F3F62
:103BC00021F00F5F1F4F2F4F3F4F9FBF322F212FED
:103BD000102F0027080F111D211D311D43E0000F7C
:103BE000111F221F331F4A95D1F7B801C9011F9138
:103BF0000F910895CF92DF92EF92FF92CF93DF93D0
:103C00006B017C010E94D01DEB010EC00E94D01DF3
:103C10006C1B7D0B683E734038F081E0C81AD108F8
:103C2000E108F108C851DC4FC114D104E104F104EA
:103C300069F7DF91CF91FF90EF90DF90CF900895DB
:103C4000789484B5826084BD84B5816084BD85B577
:103C5000826085BD85B5816085BDEEE6F0E080813E
:103C600081608083E1E8F0E010828081826080835F
:103C7000808181608083E0E8F0E0808181608083E2
:103C8000E1EBF0E0808184608083E0EBF0E0808114
:103C900081608083EAE7F0E08081846080838081B6
:103CA000826080838081816080838081806880835E
:103CB0001092C1000895833069F028F48130A1F09A
:103CC000823011F514C08630B1F08730C1F08430F5
:103CD000D9F404C0809180008F7703C08091800068
:103CE0008F7D80938000089584B58F7702C084B55E
:103CF0008F7D84BD08958091B0008F7703C080913F
:103D0000B0008F7D8093B0000895CF93DF9390E053
:103D1000FC01E550FD4F4491FC01E15FFC4F8491B3
:103D2000882341F190E0880F991FFC01E95CFC4F6A
:103D300025913491D901835D9C4FFC01859194912B
:103D4000C82FD92F9FB7F8948C91611106C0409568
:103D500084238C938881842308C0623041F4242F0B
:103D6000209582238C938881842B888302C0842BA6
:103D70008C939FBFDF91CF9108950F931F93CF93A3
:103D8000DF931F92CDB7DEB7282F30E0F901E9515C
:103D9000FD4F8491F901E550FD4F1491F901E15F68
:103DA000FC4F04910023D1F0882321F069830E9405
:103DB0005B1E6981E02FF0E0EE0FFF1FE35DFC4F1B
:103DC00085919491DC019FB7F8948C91611103C0A7
:103DD0001095812301C0812B8C939FBF0F90DF91A1
:103DE000CF911F910F910895FC0184859585FC0169
:103DF000E05CFF4F20813181FC01EE5BFF4F808151
:103E00009181281B390B2F733327C9010895FC01B9
:103E100084859585FC01E05CFF4F40815181FC0168
:103E2000EE5BFF4F208131814217530741F0019033
:103E3000F081E02DE80FF91F208130E002C02FEF64
:103E40003FEFC9010895FC0184859585FC01E05C84
:103E5000FF4F40815181FC01EE5BFF4F208131819A
:103E60004217530771F0A081B181A80FB91F2C919F
:103E70008081918101968F7399279183808330E0AF
:103E800002C02FEF3FEFC9010895FC0181A18823F3
:103E900029F0A489B5898C9186FFFBCF11A20895E2
:103EA000CF93DF93FC0126853785D901A05CBF4FF6
:103EB0008D919C91119701968F739927E901CE5BA3
:103EC000DF4F4881598184179507D9F30D90BC9134
:103ED000A02DA20FB31F6C93A685B785A05CBF4F22
:103EE00011969C938E93A689B7892C9181E090E0DE
:103EF000078C02C0880F991F0A94E2F7282B2C9395
:103F000081E081A30488F589E02D8081806480832D
:103F100081E090E0DF91CF91089508951F920F9274
:103F20000FB60F9211242F933F934F938F939F932C
:103F3000EF93FF938091C00082FD1CC04091C600AA
:103F40008091B2069091B30601968F7399272091C4
:103F5000B4063091B5068217930771F0E091B2066E
:103F6000F091B306EE58F94F40839093B3068093D7
:103F7000B20602C08091C600FF91EF919F918F9190
:103F80004F913F912F910F900FBE0F901F9018955A
:103F90008CE096E00E94F41E892B11F00C948D1F8A
:103FA00008951F920F920FB60F9211242F933F93F3
:103FB0008F939F93EF93FF9320916E0630916F063E
:103FC00080917006909171062817390731F480911D
:103FD000C1008F7D8093C10014C0E0917006F09104
:103FE0007106E25DF94F2081809170069091710613
:103FF00001968F7399279093710680937006209392
:10400000C600FF91EF919F918F913F912F910F905B
:104010000FBE0F901F901895CF92DF92EF92FF92F4
:10402000CF93DF93EC016A017B01EC89FD8981E08C
:1040300090E008A002C0880F991F0A94E2F78083DD
:1040400060E874E88EE190E0A70196010E941538BF
:1040500021503109410951095695479537952795C2
:10406000211580E1380798F0EC89FD89108260E421
:1040700072E48FE090E0A70196010E94153821506C
:104080003109410951095695479537952795E88992
:10409000F9893083EA89FB89208319A2EE89FF8997
:1040A000408181E090E09C010C8C02C0220F331F04
:1040B0000A94E2F7422B4083EE89FF8940819C01FC
:1040C0000D8C02C0220F331F0A94E2F7422B40836B
:1040D000EE89FF8940819C010E8C02C0220F331FA4
:1040E0000A94E2F7422B4083EE89FF8920810F8CEE
:1040F00002C0880F991F0A94E2F78095822380837B
:10410000DF91CF91FF90EF90DF90CF9008951092C4
:104110000F0610920E0688EE93E0A0E0B0E08093C8
:10412000100690931106A0931206B09313068EE921
:1041300093E090930D0680930C0682E796E09093AF
:104140001906809318068EE296E090931B068093E2
:104150001A0685EC90E090931D0680931C0684EC73
:1041600090E090931F0680931E0680EC90E0909361
:1041700021068093200681EC90E0909323068093A3
:10418000220682EC90E0909325068093240686EC2C
:1041900090E0909327068093260684E0809328067B
:1041A00083E08093290687E080932A0685E0809348
:1041B0002B0681E080932C0608950E94201E0E9409
:1041C0004805C8ECDFE10E94F7072097E1F30E9461
:1041D000C81FF9CFCF92DF92EF92FF920F931F93F8
:1041E000CF93DF936C01EB017A01E60EF71E00E03E
:1041F00010E00BC06991D601ED91FC910190F08126
:10420000E02DC6010995080F191FCE15DF0591F79E
:10421000C801DF91CF911F910F91FF90EF90DF9038
:10422000CF9008956115710581F0DB010D9000209C
:10423000E9F7AD0141505109461B570BDC01ED91E7
:10424000FC910280F381E02D099480E090E00895D4
:104250000C941221DC01ED91FC910190F081E02D94
:1042600009940F931F93CF93DF93EC016DE00E94AD
:104270002A218C016AE0CE010E942A219C01200F94
:10428000311FC901DF91CF911F910F9108950F93B5
:104290001F93CF93DF93EC010E9412218C01CE017A
:1042A0000E9431219801280F391FC901DF91CF9158
:1042B0001F910F9108955F926F927F928F929F92BC
:1042C000AF92BF92CF92DF92EF92FF920F931F9324
:1042D000CF93DF93CDB7DEB7A1970FB6F894DEBFCB
:1042E0000FBECDBF3C016A017B01522E19A281E0B5
:1042F000821710F08AE0582E8E010F5D1F4F852C1B
:10430000912CA12CB12CC701B601A50194010E94EA
:1043100015388C2D529E80191124015011098A30B4
:1043200010F4805D01C0895CF801808369017A0125
:10433000C114D104E104F10431F7B801C3010E94B2
:104340001221A1960FB6F894DEBF0FBECDBFDF914C
:10435000CF911F910F91FF90EF90DF90CF90BF9082
:10436000AF909F908F907F906F905F9008952115F0
:10437000310541F4DC01ED91FC910190F081E02DDB
:10438000642F09940C945B21CF92DF92EF92FF92FD
:104390000F931F93CF93DF93EC016A017B012115EB
:1043A000310579F4E881F9810190F081E02D642FE5
:1043B000DF91CF911F910F91FF90EF90DF90CF9001
:1043C00009942A30310519F477FD0EC02AE0B701AF
:1043D000A601CE01DF91CF911F910F91FF90EF9039
:1043E000DF90CF900C945B216DE20E942A218C011A
:1043F00044275527BA014C195D096E097F092AE047
:10440000CE010E945B219C01200F311FC901DF9169
:10441000CF911F910F91FF90EF90DF90CF90089573
:104420000F931F93CF93DF93EC019A01AB016627A3
:1044300057FD6095762F0E94C4218C01CE010E9409
:1044400031219801280F391FC901DF91CF911F91A8
:104450000F9108952091F8063091F9062817390731
:10446000B1F49091B6068091B706981781F0E0916B
:10447000B606F0E0E854F94F20818091B60690E04E
:1044800001968F7399278093B60630E002C02FEF14
:104490003FEFC90108952091F8063091F9062817D9
:1044A000390771F49091B6068091B706981741F0DC
:1044B000E091B606F0E0E854F94F208130E002C008
:1044C0002FEF3FEFC90108952091F8063091F906CA
:1044D0002817390739F48FB7F8941092B70610925D
:1044E000B6068FBF08952091F8063091F906281777
:1044F000390779F48091B7062091B60690E0805C88
:104500009F4F821B910960E470E00E9401389C017A
:1045100002C020E030E0C9010895DC015196ED9120
:10452000FC915297208150968C91809582238083B4
:10453000089520E001972FEF8F3F9207D9F7089554
:104540002091F8063091F9062817390789F0FC0107
:10455000238D2E7F238F2FB7F8941092B7061092D9
:10456000B6069093F9068093F8062FBF81E0089570
:1045700080E00895EF92FF920F931F93CF93DF9304
:10458000EC018B8DEE85FF859D8581FF04C08081C8
:10459000892329F445C08081892309F041C08B8992
:1045A0009C890E94992208E010E0EE24E394F12C0B
:1045B0008D899E890E949922EE85FF8580819D8547
:1045C000892311F0FE2803C08E2D8095F822EE0C71
:1045D0000150110969F78F89988D0E9499228B8D5E
:1045E00081FDF0948091B7062091B60690E0019687
:1045F0008F73992730E08217930779F0E091B7061F
:10460000F0E0E854F94FF0828091B70690E001960F
:104610008F7399278093B70603C08B8D81608B8F32
:10462000DF91CF911F910F91FF90EF90089561114D
:1046300002C00C948D22DC015196ED91FC915297B1
:10464000208150968C91282B20830895DF92EF9241
:10465000FF920F931F93CF93DF93EC01E62E898D8A
:104660009A8D892B39F481E090E09B838A8320E046
:1046700030E049C0DFB6F8946B8D66956170CE016D
:104680000E941723898D9A8D04960E9499228B8D02
:1046900008E010E0FF24F39481FF17C08F2D8E21D6
:1046A00021F0CE010E948D2204C061E0CE010E9463
:1046B0001723898D9A8D0E949922FF0C01501109B0
:1046C00069F7CE010E948D2217C08F2D8E2129F00F
:1046D00061E0CE010E94172303C0CE010E948D220B
:1046E000898D9A8D0E949922FF0C0150110969F75A
:1046F00061E0CE010E941723DFBE898D9A8D0E9452
:10470000992221E030E0C901DF91CF911F910F91F3
:10471000FF90EF90DF9008958091F8069091F90650
:10472000009711F00C94BA2208951F920F920FB6C1
:104730000F9211242F933F934F935F936F937F9327
:104740008F939F93AF93BF93EF93FF930E948C231C
:10475000FF91EF91BF91AF919F918F917F916F9159
:104760005F914F913F912F910F900FBE0F901F902F
:1047700018951F920F920FB60F9211242F933F930B
:104780004F935F936F937F938F939F93AF93BF9359
:10479000EF93FF930E948C23FF91EF91BF91AF9114
:1047A0009F918F917F916F915F914F913F912F9149
:1047B0000F900FBE0F901F9018951F920F920FB67B
:1047C0000F9211242F933F934F935F936F937F9397
:1047D0008F939F93AF93BF93EF93FF930E948C238C
:1047E000FF91EF91BF91AF919F918F917F916F91C9
:1047F0005F914F913F912F910F900FBE0F901F909F
:1048000018951F93CF93DF93EC01162F61E0812F52
:104810000E94851E61E0812F0E94BD1E812F90E0C5
:10482000FC01E550FD4FE491E88BFC01E15FFC4F9A
:10483000E491F0E0EE0FFF1FE35DFC4F8591949152
:10484000898B9A8BDF91CF911F9108951F93CF93FE
:10485000DF93EC01162F60E0812F0E94851E8B8D67
:1048600081FD04C061E0812F0E94BD1E1C87812F45
:1048700090E0FC01E550FD4FE491ED87FC01E15F24
:10488000FC4FE491F0E0EE0FFF1FED5DFC4F8591D2
:1048900094918E879F87DF91CF911F910895FF920A
:1048A0000F931F93CF93DF93EC01F62E522F1B82B1
:1048B0001A8208EE13E020E030E00C831D832E8383
:1048C0003F838EEA93E0998388831C8A1B8A1E8A21
:1048D0001D8A188E1F8A1A8E198E8B8D8E7F50FB23
:1048E00081F98B8F642FCE010E9401246F2DCE01A0
:1048F000DF91CF911F910F91FF900C942624FF928E
:104900000F931F93CF93DF93EC011A8E198E188E9D
:104910001F8A1E8A1D8A1C8A1B8AA0E0B0E02CE038
:10492000F22EFA9EC001FB9E900D1124FC01EF5B5C
:10493000FC4F059115912591349104171507260711
:104940003707E9F4FC01EB5BFC4F259134912B8B8D
:104950003C8BFC01E95BFC4F259134912D8B3E8B08
:10496000FC01E75BFC4F259134912F8B388F855BE1
:104970009C4FFC0185919491898F9A8F05C0119667
:10498000AD30B10509F0CDCF8F89988D892B09F411
:1049900049C03C85363108F041C04091680038304C
:1049A00068F081E090E03E3010F480E090E021E09B
:1049B00030E001C0220F8A95EAF701C024E0242BE1
:1049C000209368003C85383038F03E3040F0363176
:1049D00048F0E0E0F0E008C0EDE6F0E005C0EBE60E
:1049E000F0E002C0ECE6F0E04081383040F481E0D5
:1049F00090E0282F01C0220F3A95EAF70DC0832FCF
:104A000090E03E3010F4089701C00E9721E030E0AE
:104A100001C0220F8A95EAF7242B2083898D9A8D75
:104A20000E949922CE01DF91CF911F910F91FF90AB
:104A30000C94A022FC014485463150F5483028F002
:104A40004E3030F4EBE6F0E005C0EDE6F0E002C0F9
:104A5000ECE6F0E05081483040F481E090E0042E34
:104A600001C0880F0A94EAF710C0242F30E04E30BE
:104A700018F42850310902C02E50310981E090E02D
:104A8000022E01C0880F0A94EAF78095852380835F
:104A900008952EEA33E0FC01318320830C941A251B
:104AA000CB010C94C134CB01642F0C94C934FC01AC
:104AB00075836483718760875783468353874287F2
:104AC000158A158614861786168621E0248B8FEFAB
:104AD0009FEF938B828B918B808B268B08952F92E7
:104AE0003F924F925F926F927F928F929F92AF927E
:104AF000BF92CF92DF92EF92FF920F931F93CF93CB
:104B0000DF9300D000D0CDB7DEB71C017C836B8370
:104B10006A015901B801641B750B77FF03C07195D9
:104B200061957109A5018B819C81481B590B57FF29
:104B300003C0519541955109A1E0B0E0BA83A98322
:104B40004617570714F01A821982E981FA81EF2B70
:104B500059F09A2D8B2D5801092F182F9B818C818C
:104B6000DC82CB82C92ED82E8B819C81A816B906F7
:104B70005CF49C2D8D2D6801092F182F9B818C8151
:104B8000BC82AB82A92EB82E3501AB81BC816A1ADA
:104B90007B0A28014C185D0857FE03C051944194CC
:104BA0005108430177FE03C0BFEF8B1A9B0A95940F
:104BB0008794C016D1061CF401E010E024C00FEF6A
:104BC0001FEF21C0D101ED91FC9189819A81048070
:104BD000F581E02D9701892B21F04B815C81B60195
:104BE00003C0A6016B817C81C101099584189508D9
:104BF00097FE04C0C00ED11E860C971CAB81BC81F1
:104C00001196BC83AB83EB81FC81AE16BF06D4F654
:104C10000F900F900F900F90DF91CF911F910F91F8
:104C2000FF90EF90DF90CF90BF90AF909F908F90CC
:104C30007F906F905F904F903F902F9008956F926C
:104C40007F928F929F92AF92BF92CF92DF92EF921C
:104C5000FF920F931F93CF93DF93EC015B016A01E7
:104C600039014801E881F9810484F585E02D870147
:104C70000995E881F981A601480D591D4150510956
:104C80000484F585E02D9301B501CE010995E881F5
:104C9000F9810284F385E02D9401A601B501CE01CE
:104CA0000995E881F981A60CB71CB501615071091D
:104CB0000284F385E02D9401A601CE010995DF91D0
:104CC000CF911F910F91FF90EF90DF90CF90BF9009
:104CD000AF909F908F907F906F900895EF92FF928A
:104CE0000F931F93DC01ED91FC91240F351F215090
:104CF00031090084F185E02D780189019B01099536
:104D00001F910F91FF90EF900895EF92FF920F93F4
:104D10001F93DC01ED91FC91260F371F21503109C3
:104D20000084F185E02D78018A0109951F910F918A
:104D3000FF90EF9008956F927F928F929F92AF9223
:104D4000BF92CF92DF92EF92FF920F931F93CF9378
:104D5000DF935C014A0169013801EB01C60ED71EE1
:104D60000DC0D501ED91FC910284F385E02D870102
:104D70009301A401BE01C50109952196CC15DD055D
:104D800084F3DF91CF911F910F91FF90EF90DF900F
:104D9000CF90BF90AF909F908F907F906F9008952D
:104DA000EF92FF920F931F93DC01ED91FC9111970D
:104DB0001A960D911C911B9718962D913C9119975D
:104DC0000088F189E02D7B0140E050E060E070E078
:104DD00009951F910F91FF90EF9008952F923F92A8
:104DE0004F925F926F927F928F929F92AF92BF92FB
:104DF000CF92DF92EF92FF920F931F93CF93DF93A7
:104E0000CDB7DEB72E970FB6F894DEBF0FBECDBF7D
:104E10009E878D873A011E830D83F886EF82C982B3
:104E2000DC0118968D919C911997681779070CF001
:104E300099C0FD0182859385481759070CF092C0EF
:104E4000CB01F5E0CF9E800D911D11241816190697
:104E50000CF088C08C2D90E09A878987CA01A8E061
:104E6000CA9E800D911D1124181619060CF07AC0E7
:104E70005B012B011B821DED812E13E0912E861A02
:104E8000970AE5E02E9F800C911C1124FB81F530E0
:104E900031F0F401EA0DFB1D24912A8301C01A822E
:104EA0004B865C866301130138E03C834A8140FFF6
:104EB00015C0ED85FE85A081B181F981F13039F40D
:104EC0001496ED91FC9115972D813E8119C0509655
:104ED000ED91FC915197ED80FE801EC02F813885A9
:104EE0008D819E812817390709F1ED85FE85A08106
:104EF000B181F981F13051F41496ED91FC9115973F
:104F0000A101B5018D859E85099510C05096ED9142
:104F1000FC915197EF80F884098110E0202F30E058
:104F2000A6016B857C858D859E8509952A812695B0
:104F30002A833C8131503C8389859A85C80ED91ECD
:104F40009FEF291A390A3111B1CFAB81AF5FAB8323
:104F5000E985FA854E0E5F1EFFEFAF1ABF0AA63035
:104F600009F094CF2E960FB6F894DEBF0FBECDBFDA
:104F7000DF91CF911F910F91FF90EF90DF90CF9035
:104F8000BF90AF909F908F907F906F905F904F9069
:104F90003F902F900895CF92EF92FF920F931F931F
:104FA000CF93DF93EC01262F6A3049F42C898E854C
:104FB0009F8538E0239F800D911D112432C06D30F4
:104FC000A1F1EA88FB88088919894E855F856C857F
:104FD0007D85CC880E94EE262C89422F50E08C855E
:104FE0009D8536E0239F800D911D11249D878C8720
:104FF0002E892223D1F06AEF64039001659F300D62
:10500000112468857985260F371F281739076CF416
:1050100003E0440F551F0A95E1F78E859F85840FA5
:10502000951F9F878E871D861C8681E090E0DF910B
:10503000CF911F910F91FF90EF90CF900895FC01B9
:1050400075876487578746870895611101C061E0BD
:10505000FC01648B0895FC01718B608B738B628BF8
:105060000895FC01718B608B538B428B0895FC017A
:1050700085898370858B0895FC01808591850895CD
:10508000FC01828593850895CF92DF92EF92FF9283
:105090000F931F93CF93DF938C017B01EA0169018A
:1050A00077FD85C00E943C28E816F9060CF07FC009
:1050B000D7FD7DC0C8010E944028C817D9070CF051
:1050C00076C068C0F801848195818C1B9D0BE70137
:1050D000EE24EA94FE2CE80EF91E19C0F801848132
:1050E00095818E199F097C01F1E0EF1AF108F80112
:1050F000868197818C1B9D0BEC01219708C0F801DC
:10510000868197818E199F097E01EC012197CA94AF
:10511000CD28F9F4FE01D7FD379623E0F595E79504
:105120002A95E1F7F695FE2FEE27F795E795EE0D18
:10513000FF1DE65FFE4FCE0168E070E00E9401387F
:1051400021E030E001C0220F8A95EAF78081822BAE
:105150001FC0FE01D7FD379683E0F595E7958A9548
:10516000E1F7F695FE2FEE27F795E795EE0DFF1D7B
:10517000E65FFE4FCE0168E070E00E94013821E05A
:1051800030E001C0220F8A95EAF7209580818223C2
:1051900080830DC0C8010E943728823009F49ECF59
:1051A000833009F4ACCF813009F0B1CF8BCFDF91E0
:1051B000CF911F910F91FF90EF90DF90CF900895C6
:1051C000DC01ED91FC910190F081E02D0994EF92CA
:1051D0000F93FC01138212828EEB93E09183808304
:1051E000E48E038F228F418F608F0F91EF9008958F
:1051F00080E092E0EAE0F1E0DF019C011D922150A5
:105200003040E1F70895FC0188E090E030E8A78D98
:10521000B0A14C9126A1209524232C93432F462303
:10522000A58DB68D25A1442321F04C91422B4C93A2
:1052300004C04C91209524232C93A78DB0A12C91D0
:1052400046A1242B2C933695019709F708951F93B7
:10525000CF93DF93EC01162F888D8F3FF1F0E9A1FA
:10526000FAA180819FA1892B8083EBA1FCA1908171
:1052700088A5809589238083E9A1FAA190818FA1D7
:10528000809589238083CE010E940329E9A1FAA198
:1052900080819FA1892B80831AC08F89682F7727EF
:1052A00067FD70958BEF96E00E94CB2B60E08BEF53
:1052B00096E00E94772B612F8BEF96E00E94772B70
:1052C0008BEF96E0DF91CF911F910C94E02BDF9153
:1052D000CF911F910895662311F067EA01C066EA35
:1052E0000C9427290F931F93CF93DF93EC01162F74
:1052F000042F40E250E060E870E00E9457250F8BD9
:10530000888D8F3F09F468C061E00E94851E61E0CE
:10531000898D0E94851E61E08A8D0E94851E61E054
:105320008C8D0E94851E898D992787FD9095FC01A3
:10533000E15FFC4FE491F0E0EE0FFF1FE35DFC4FF7
:10534000259134912F8F38A3FC01E550FD4F8491B6
:105350008EA3888D992787FD9095FC01E15FFC4F16
:10536000E491F0E0EE0FFF1FE35DFC4F25913491D7
:105370002D8F3E8FFC01E550FD4F84918DA38C8DC8
:10538000992787FD9095FC01E15FFC4FE491F0E0E7
:10539000EE0FFF1FE35DFC4F2591349129A33AA343
:1053A000FC01E550FD4F84918FA38A8D992787FDDD
:1053B0009095FC01E15FFC4FE491F0E0EE0FFF1FE0
:1053C000E35DFC4F259134912BA33CA3FC01E550F8
:1053D000FD4F849188A704C08BEF96E00E94B72B05
:1053E00061E08B8D0E94851E61E08B8D0E94BD1E49
:1053F00061E070E080E090E00E94FA1D60E08B8D3B
:105400000E94BD1E6AE070E080E090E00E94FA1DFC
:1054100061E08B8D0E94BD1E6EEACE010E9427299D
:1054200065EDCE010E94272960E8CE010E94272960
:1054300068EACE010E9427296FE1CE010E94272948
:1054400063EDCE010E94272960E0CE010E9427294A
:1054500060E4CE010E9427296DE8CE010E94272931
:10546000113011F460E101C064E1CE010E942729EE
:1054700060E2CE010E94272960E0CE010E94272928
:1054800061EACE010E94272968ECCE010E942729FB
:105490006AEDCE010E94272962E0CE010E942729F1
:1054A00061E8CE010E9427296FE8CE010E942729DA
:1054B00069EDCE010E942729113011F462E201C08A
:1054C00061EFCE010E9427296BEDCE010E942729B2
:1054D00060E4CE010E94272964EACE010E942729B8
:1054E00066EACE010E9427296FEACE01DF91CF91B3
:1054F0001F910F910C942729DF92EF92FF920F9347
:105500001F93CF93DF93EC0160E00E94272960E1B5
:10551000CE010E94272960E4CE010E942729888DB0
:105520008F3F79F1E9A1FAA180819FA1892B808326
:10553000EBA1FCA1808198A5892B8083E9A1FAA128
:1055400090818FA18095892380830AE011E0F80182
:1055500061918F01CE010E940329F3E00A301F07F9
:10556000B1F700E012E060E0CE010E940329015093
:105570001109C9F7E9A1FAA180819FA1892B808334
:1055800052C0D090B8008CE08093B8000AE011E0DF
:105590006F89772767FD70958BEF96E00E94CB2B84
:1055A00060E470E08BEF96E00E94E028E12CF12CA3
:1055B000F801EE0DFF1D60818BEF96E00E94772BC6
:1055C0008FEFE81AF80AE0E1EE16F10489F78BEFA5
:1055D00096E00E94E02B005F1F4FF3E00A301F07A8
:1055E000B9F600E210E06F89772767FD70958BEFC1
:1055F00096E00E94CB2B60E470E08BEF96E00E9477
:10560000E028E0E1FE2E60E08BEF96E00E94772B31
:10561000FA94C9F78BEF96E00E94E02B0150110934
:1056200011F7D092B800DF91CF911F910F91FF90A9
:10563000EF90DF90089520912B0730E080912C07A8
:10564000281B3109C901089580912C0790912B07DF
:10565000891750F4E82FF0E0E35DF84F208130E047
:105660008F5F80932C0702C02FEF3FEFC901089591
:10567000E0912C0780912B07E81730F4F0E0E35D10
:10568000F84F208130E002C02FEF3FEFC9010895AD
:105690000895CF92DF92EF92FF920F931F93CF93D3
:1056A000DF937C01CB018A0120910707222391F02F
:1056B000EB016B01C40ED51E09C06991D701ED91B4
:1056C000FC910190F081E02DC7010995CC15DD0515
:1056D000A1F703C0642F0E94582CC801DF91CF911D
:1056E0001F910F91FF90EF90DF90CF900895CF938F
:1056F000DF931F92CDB7DEB769832091070722237E
:10570000D1F020910807203240F021E030E0FC0188
:105710003383228320E030E015C080910907E82F11
:10572000F0E0E65FF84F998190838F5F80930907DF
:105730008093080705C061E0CE0101960E94582CB5
:1057400021E030E0C9010F90DF91CF910895FC0175
:105750001382128248EE53E060E070E04483558388
:105760006683778386ED93E091838083089510921A
:105770002C0710922B0710920907109208070C941F
:10578000E72B81E08093070760932A0710920907AF
:105790001092080708950C94C12B0F93062F21E057
:1057A000409108076AE077E080912A070E94052C63
:1057B0001092090710920807109207070F91089599
:1057C00061E00C94CD2B8BEF96E00C94A72B1092FC
:1057D000560781E0809354071092530761E082E1FD
:1057E0000E94BD1E61E083E10E94BD1EE9EBF0E076
:1057F00080818E7F808380818D7F808380E2809313
:10580000B80085E48093BC0008950F93413208F0FE
:1058100046C0909156079111FCCF92E090935607A5
:10582000009354079FEF90934D07109252074093B7
:105830005107FB0167E577E0DB0102C091919D9381
:105840009A2F961B9417D0F31092550790915507F5
:10585000880F892B8093550780915307813041F43D
:1058600010925307809155078093BB0085EC01C0CF
:1058700085EE8093BC00222321F080915607823070
:10588000E1F380914D078F3F61F080914D078032A9
:1058900051F080914D07803341F483E007C081E0EF
:1058A00005C080E003C082E001C084E00F9108954C
:1058B000613298F420915607243089F460934F07A1
:1058C000FC0187E797E0DC0102C021912D932A2F8C
:1058D000281B2617D0F380E0089581E0089582E028
:1058E000089585ED8093BC008091BC0084FDFCCFC1
:1058F00010925607089585EC8093BC0010925607CD
:1059000008951F920F920FB60F9211242F933F9379
:105910004F935F936F937F938F939F93AF93BF93B7
:10592000EF93FF938091B900887F803609F49FC080
:1059300058F5883209F45BC090F4803109F452C004
:1059400038F4882309F4F8C0883009F0F9C04AC057
:10595000883109F44CC0803209F0F2C05CC0803458
:1059600009F46BC038F4803309F455C0883309F06A
:10597000E7C054C0803509F454C0883509F462C0CA
:10598000883409F0DDC0DAC0883909F4CBC0A8F446
:10599000883709F46CC038F4883609F468C0803759
:1059A00009F0CEC064C0883809F4BCC0803909F45D
:1059B00064C0803809F0C4C060C0803B09F48AC06C
:1059C00038F4803A09F46BC0883A09F0B9C082C053
:1059D000803C09F4ABC0883C09F4A8C0883B09F0BE
:1059E000AFC08DC0809155078093BB0012C09091CD
:1059F000520780915107981788F580915207E82F38
:105A0000F0E0E95AF84F90819093BB008F5F80934C
:105A1000520785EC88C080934D0790C080934D0756
:105A200056C0809152079091BB00E82FF0E0E95AF0
:105A3000F84F90838F5F8093520790915207809127
:105A400051076DC0809152079091BB00E82FF0E0A4
:105A5000E95AF84F90838F5F8093520780915407E3
:105A600081116CC081E08093530784EA60C083E0B9
:105A70008093560710924E07CCCF80914E0780320C
:105A800008F050C080914E079091BB00E82FF0E0E5
:105A9000E556F84F90838F5F80934E07BACF809181
:105AA0004E07803230F4E0914E07F0E0E556F84FB3
:105AB00010820E94712C60914E07E0919707F0913F
:105AC000980770E08BE997E0099510924E070E94C5
:105AD0007B2C36C084E080935607109250071092BA
