:100000000C94C3030C94F71F0C9424200C94B52576
:100010000C94D9250C94FD250C94EB030C94EB0364
:100020000C94EB030C94EB030C94EB030C94EB0398
:100030000C94EB030C94EB030C94EB030C94EB0388
:100040000C9451200C94EB030C9494220C94D02229
:100050000C94EB030C94EB030C94EB030C94EB0368
:100060000C94D32E0C94EB03681B821BA21BB61BB3
:10007000C71BFF1B081C131C1E1C2B1C2B1C2B1C22
:100080002B1C2B1C2B1C2B1C2B1C2B1C2B1C2B1C38
:100090002B1C2B1C2B1C2B1C2B1C2B1C2B1C2B1C28
:1000A0002B1C2B1C2B1C2B1C681B7A1B821BA21BC2
:1000B000B61BC71BDB1BE61BF11B084AD73B3BCE1D
:1000C000016E84BCBFFDC12F3D6C74319ABD568357
:1000D0003DDA3D00C77F11BED9E4BB4C3E916BAA0F
:1000E000AABE000000803F05A84CCDB2D44EB9385E
:1000F00036A9020C50B9918688083CA6AAAA2ABE45
:10010000000000803F476569676965204E616E6F3A
:1001100020257300426174746572793D2025303268
:100120006400252500416C61726D3D2564004350DB
:100130004D004D6F6465203D2564002325303464F7
:100140000024504D544B3331342C302C312C302C76
:10015000312C302C302C302C302C302C302C302CBE
:10016000302C302C302C302C302C302C302C302AB1
:1001700032380024504D544B3232302C3130303034
:100180002A31460024504D544B3331332C312A321E
:10019000450D0A0024504D544B3330312C322A3255
:1001A000450D0A0025303464253032642530326430
:1001B0002E6C6F670023204E4557204C4F470A2373
:1001C00020666F726D61743D00312E312E36006EE7
:1001D000616E6F0A23206465616474696D653D6FAB
:1001E0006E0A0023206E6D3D25732C747A3D2564C4
:1001F0002C636E3D25732C63706D663D25642C73F6
:10020000743D25642C73733D25642C73683D25640F
:100210002C736D3D25640A002425732C253034642D
:100220002C253032642D253032642D253032645433
:10023000253032643A253032643A253032645A2C03
:10024000256C642C256C642C256C642C25632C2572
:10025000732C25632C25732C25632C25732C256387
:100260002C256C642C2564002A302558002A25583A
:10027000002530326468253032646D006B43504D88
:10028000002043504D004E6F20475053005E002029
:100290007553762F68002042712F6D32006B6D0010
:1002A0002D2D006D532F680075532F68006B435040
:1002B0004D002043504D002042712F6D32004D788B
:1002C0003D0075532F68200044733D00755300575F
:1002D000726F6E67206D6F64652021002530326477
:1002E0002F2530326420253032643A253032643A8A
:1002F00025303264002530346C642E2530346C6433
:10030000002530356C642E2530346C64004A504E24
:100310000072656164202573203020256400000090
:1003200000070002010000030406000000000000B6
:10033000000001020408102040800102040810207F
:10034000010204081020040404040404040402024A
:100350000202020203030303030300000000230060
:100360002600290000000000250028002B000000C6
:100370000000240027002A0000C20100010005003F
:100380000500030000E1000001000F000F000D0058
:1003900000960000020019001A001700127A0000EF
:1003A0000700200021001D00807000000B002300CA
:1003B00023002000004B00001400370037003400F9
:1003C000403800001E004B004B0048008025000014
:1003D0003200720072007000C01200006E00E9006E
:1003E000E900E60060090000E500D801D801D50168
:1003F000B0040000D301B403B403B1032C01000026
:100400006707DD0EDD0EDA0E00000000003E5B4FD8
:100410005B3E3E6B4F6B3E1C3E7C3E1C183C7E3C64
:10042000181C577D571C1C5E7F5E1C00183C180072
:10043000FFE7C3E7FF0018241800FFE7DBE7FF3002
:10044000483A060E2629792926407F050507407F70
:1004500005253F5A3CE73C5A7F3E1C1C08081C1CE3
:100460003E7F14227F22145F5F005F5F06097F01D9
:100470007F006689956A606060606094A2FFA294C4
:1004800008047E040810207E201008082A1C080892
:100490001C2A08081E101010100C1E0C1E0C3038E0
:1004A0003E3830060E3E0E06000000000000005FE1
:1004B00000000007000700147F147F14242A7F2AFD
:1004C00012231308646236495620500008070300BF
:1004D000001C2241000041221C002A1C7F1C2A080B
:1004E000083E08080080703000080808080800006E
:1004F00060600020100804023E5149453E00427FE2
:10050000400072494949462141494D331814127F30
:100510001027454545393C4A4949314121110907D0
:100520003649494936464949291E00001400000051
:100530004034000000081422411414141414004123
:1005400022140802015909063E415D594E7C1211E0
:10055000127C7F494949363E414141227F41414118
:100560003E7F494949417F090909013E4141517393
:100570007F0808087F00417F41002040413F017F04
:10058000081422417F404040407F021C027F7F04CC
:1005900008107F3E4141413E7F090909063E415115
:1005A000215E7F09192946264949493203017F0105
:1005B000033F4040403F1F2040201F3F4038403F06
:1005C000631408146303047804036159494D43001C
:1005D0007F4141410204081020004141417F040253
:1005E00001020440404040400003070800205454EA
:1005F00078407F28444438384444442838444428C8
:100600007F385454541800087E090218A4A49C781A
:100610007F0804047800447D40002040403D007F76
:100620001028440000417F40007C047804787C0856
:100630000404783844444438FC182424181824242A
:1006400018FC7C08040408485454542404043F440F
:10065000243C4040207C1C2040201C3C4030403C3E
:1006600044281028444C9090907C4464544C44009E
:100670000836410000007700000041360800020102
:1006800002040200407A10F35A00A0724E180900CA
:1006900010A5D4E80000E87648170000E40B5402E7
:1006A0000000CA9A3B000000E1F505000080969822
:1006B00000000040420F000000A086010000001072
:1006C0002700000000E803000000006400000000B4
:1006D000000A00000000000100000000002C76D895
:1006E00088DC674F0823DFC1DFAE59E1B1B796E57B
:1006F000E3E453C63AE651997696E8E6C28426EBDF
:10070000898C9B62ED407C6FFCEFBC9C9F40F2BAF1
:10071000A56FA5F490055A2AF75C936B6CF9676D89
:10072000C11BFCE0E40D47FEF520E6B500D0ED90DE
:100730002E0300943577050080841E080000204EAB
:100740000A000000C80C333333330F986E12831144
:1007500041EF8D2114893BE65516CFFEE6DB18D11B
:10076000844B381BF77C1D901DA4BBE424203284ED
:10077000725E228100C9F124ECA1E53D2700BD1382
:10078000A2231C2EC21311241FBECFEFD8E0DEBF60
:10079000CDBF14E0A0E0B1E0E2E6F3E702C00590CF
:1007A0000D92AA30B107D9F718E0AAE0B4E001C071
:1007B0001D92A434B107E1F717E0C4E8D7E004C004
:1007C0002297FE010E94A039CE37D107C9F70E94B7
:1007D00046240C94ED030C940000F8940C94A43976
:1007E000EF92FF920F931F938130910569F581E29B
:1007F00095E069E04AE02BE00DE03CE0E32E0E944A
:10080000032B85EA94E066E045E020E00E946F2635
:1008100080E394E061E00E94EC1784E194E068E0FA
:1008200047E020E00E946F268AE094E065EA74E0E9
:1008300042E755E02AE435E00FE915E0E4E6EE2E64
:10084000F12C0E9454140AC0009741F484E194E012
:100850000E94722785EA94E00E9472271F910F91EF
:10086000FF90EF9008958EE00E943E219C01B90117
:10087000882777FD8095982F0E949C3120E030E0FA
:1008800040E85AE30E94B53220E030E040E251E413
:100890000E94B53224EB35EC4AEC5DE30E94013155
:1008A000462F572F682F792FCB01BA0108951F9338
:1008B000CF93DF93182FC0E0D0E0219685EA94E033
:1008C0000E94A124009779F085EA94E00E945324C5
:1008D000AC01112319F02EE330E002C02CE330E02C
:1008E0004217530751F06AE070E080E090E00E9408
:1008F000D720C83CD10509F704C081E0C83CD10528
:1009000009F480E0DF91CF911F9108950F931F9319
:10091000CF93DF9382E161E00E948B2183E160E06D
:100920000E948B2188E596E040E855E260E070E0A7
:100930000E940B238AE094E00E94471785EA94E026
:1009400040E855E260E070E00E949C2684E061E0AF
:100950000E948B2185EA94E00E94C02484E060E03C
:100960000E94BF2164E670E080E090E00E94D72002
:1009700084E061E00E94BF2181E00E945704882347
:1009800021F481E08093070503C081E08093A404F3
:100990008091A404882331F08AE094E060E071E063
:1009A0000E94AD1480E090E048E853E160E070E020
:1009B0000E94DB130E94F61384E194E040E855E2C4
:1009C00060E070E00E949C2684E194E00E94C024D4
:1009D000CFE9D5E004E6DE01E02F1D92EA95E9F7C4
:1009E00000D000D0ADB7BEB71296DC93CE9311976E
:1009F00081E491E014969C938E9313970E9419348E
:100A00000F900F900F900F9084E194E0BE010E9430
:100A10003424FE01802F11928A95E9F700D000D08E
:100A2000ADB7BEB71296DC93CE93119783E791E0F2
:100A300014969C938E9313970E9419340F900F90E5
:100A40000F900F9084E194E0BE010E943424FE01D7
:100A5000802F11928A95E9F700D000D0ADB7BEB7CC
:100A60001296DC93CE93119784E891E014969C93B0
:100A70008E9313970E9419340F900F900F900F9040
:100A800084E194E0BE010E943424FE0111920A9593
:100A9000E9F700D000D0ADB7BEB71296DC93CE9385
:100AA000119784E991E014969C938E9313970E947A
:100AB00019340F900F900F900F9084E194E0BE01D5
:100AC0000E9434240AE415E068EC70E001C0BE0125
:100AD000EB01219683E897E00E947A27F801819341
:100AE0008F01C03DD10599F783E00E943B2181E24F
:100AF00095E062E04CE30E948B2B81E295E00E943E
:100B0000962C68EE73E080E090E00E94D72081E2AE
:100B100095E00E94142B81E295E061E070E00E9474
:100B20006F2A81E295E061E00E94692A00D000D03E
:100B300000D0EDB7FEB73196C2E5D5E0ADB7BEB790
:100B40001296DC93CE93119785E091E09383828394
:100B50008DE091E0958384830E94193409900020F0
:100B6000E9F7EDB7FEB736960FB6F894FEBF0FBEA5
:100B7000EDBFC255D540CE01880F991F8C0F9D1F28
:100B8000880F991F60E870E0681B790B7695679570
:100B900081E295E040E050E00E94632A8091760572
:100BA000882329F481E295E063E171E004C081E2E9
:100BB00095E065E171E00E94072481E295E062E53D
:100BC00075E00E94072481E295E068E070E048E06B
:100BD00050E00E94632A0E94330420E030E040EF9E
:100BE00051E40E94333020E030E048E451E40E94B8
:100BF000B5320E9469316C5E7F4F77FD04C0653667
:100C0000710524F405C061E070E002C064E670E0A4
:100C100000D000D000D0EDB7FEB73196C2E5D5E0E8
:100C2000ADB7BEB71296DC93CE93119784E191E0F5
:100C300093838283758364830E941934EDB7FEB772
:100C400036960FB6F894FEBF0FBEEDBF81E295E079
:100C5000BE010E94072400D000D0ADB7BEB71296E7
:100C6000DC93CE93119782E291E014969C938E933D
:100C700013970E9419340F900F900F900F9081E2FC
:100C800095E0BE010E94072481E295E067E370E0F1
:100C900040E150E00E94632A00D000D000D0EDB7C0
:100CA000FEB73196ADB7BEB71296DC93CE931197CF
:100CB00085E291E0938382838091930590919405DE
:100CC000958384830E941934EDB7FEB736960FB62C
:100CD000F894FEBF0FBEEDBF81E295E0BE010E9419
:100CE000072400D000D0ADB7BEB71296DC93CE93E8
:100CF00011978EE291E014969C938E9313970E9425
:100D000019340F900F900F900F9081E295E0BE0183
:100D10000E94072481E295E068E070E040E150E045
:100D20000E94632A00D000D000D0EDB7FEB7319604
:100D3000ADB7BEB71296DC93CE93119782E391E0E4
:100D40009383828380919E05848315820E94193447
:100D5000EDB7FEB736960FB6F894FEBF0FBEEDBFE7
:100D600081E295E0BE010E94072481E295E061E006
:100D70000E94692A81E295E065E570E048E050E074
:100D80000E94632A00D000D000D0EDB7FEB73196A4
:100D9000ADB7BEB71296DC93CE9311978BE391E07B
:100DA00093838283809188059091890595838483BC
:100DB0000E941934EDB7FEB736960FB6F894FEBF11
:100DC0000FBEEDBF81E295E0BE010E94072481E2E3
:100DD00095E061E00E94692A80917805882301F1FD
:100DE000C8E7D5E0FE0101900020E9F7E957F5409A
:100DF000CF01880F991F8E0F9F1F880F991F60E8E2
:100E000070E0681B790B7695679581E295E048E183
:100E100050E00E94632A81E295E0BE010E9407240F
:100E200081E295E00E94962C68E273E280E090E017
:100E30000E94D720DF91CF911F910F9108958F923B
:100E40009F92BF92CF92DF92EF92FF920F931F93E8
:100E5000CF93DF93B82E6A017B014901CB01BA0120
:100E60000E949A3120E030E543EC57E40E940131C2
:100E70000E946E31EB01182F092F20EA36E841E07D
:100E800050E00E94FF38DC01CB01A7019601281B2E
:100E9000390B4A0B5B0BCA01B9012AE030E040E094
:100EA00050E00E9445398DB79EB70C97BB2089F062
:100EB0000FB6F8949EBF0FBE8DBFEDB7FEB731964B
:100EC000ADB7BEB712969C928E92119785EF92E0C5
:100ED00010C00FB6F8949EBF0FBE8DBFEDB7FEB722
:100EE0003196ADB7BEB712969C928E92119781E063
:100EF00093E093838283C483D583168307832087FB
:100F00003187428753870E9419342DB73EB7245F3B
:100F10003F4F0FB6F8943EBF0FBE2DBFDF91CF916C
:100F20001F910F91FF90EF90DF90CF90BF909F9017
:100F30008F900895CF92DF92EF92FF920F931F93BD
:100F4000CF93DF930E949A3120E836E948E15BE4D1
:100F50000E9401318B01D82FC92FCE01402F512F74
:100F6000692F782FCB01BA010E946931882777FD5C
:100F70008095982F0E949C316B017C019E01802FEF
:100F8000912FA32FB22FBC01CD01A70196010E9482
:100F9000333020E030E040E752E40E94013120E0AD
:100FA00030E048EC52E40E94B532462F572F682FAC
:100FB000792FCB01BA01A70196010E943430462F48
:100FC000572F682F792FCB01BA01DF91CF911F9155
:100FD0000F91FF90EF90DF90CF9008952F923F9266
:100FE0004F925F926F927F928F929F92AF92BF9239
:100FF000CF92DF92EF92FF920F931F93CF93DF93E5
:10100000CDB7DEB7AE970FB6F894DEBF0FBECDBF3B
:1010100083E10E943E2121E0853F92071CF010925F
:10102000760507C081E08093760582E160E00E944A
:10103000BF210E94330420E030E040EF51E40E94E1
:1010400033300E946931DC01CB01181619064CF0CF
:1010500068EE73E080E090E00E94D72081E080930A
:10106000760584E194E00E94C0240E949B206B01DD
:101070007C010FC084E194E00E945324682F80E338
:1010800094E00E94331C84E194E00E94A124009724
:1010900089F70E949B20AB01BC01D701C601841BCC
:1010A000950BA60BB70BC416D506E606F70620F47B
:1010B00080959095A095B095883E33E0930730E0F9
:1010C000A30730E0B30710F00C949B130E940B149D
:1010D0000097C9F20C949B130E944B14698F7A8F6E
:1010E0008B8F9C8F0E94F6138091D3049091D4042F
:1010F000A091D504B091D604FC01EE0FFF1FEE0FB6
:10110000FF1FE952FB4F298D3A8D4B8D5C8D20835B
:101110003183428353830196A11DB11DBC01CD01D2
:101120002CE030E040E050E00E944539DC01CB018A
:101130008093D3049093D404A093D504B093D604A1
:10114000E7EDF4E080E090E0DC01419151916191A4
:101150007191840F951FA61FB71F35E0E730F30785
:10116000A1F7BC01CD010E949A316B017C0122EBF9
:1011700035EC4CEF55E30E94B5329B01AC0160E0C9
:1011800070E080E89FE30E9433309B01AC01C7010F
:10119000B6010E9401310E946E316D8B7E8B8F8B68
:1011A000988F8091CF049091D004A091D104B091F8
:1011B000D204298D3A8D4B8D5C8D820F931FA41F15
:1011C000B51F8093CF049093D004A093D104B09323
:1011D000D2048091C7049091C804A091C904B09131
:1011E000CA040596A11DB11D8093C7049093C8043D
:1011F000A093C904B093CA048091CB049091CC040D
:10120000A091CD04B091CE042D893E894F89588D8F
:1012100082179307A407B50740F42093CB043093BB
:10122000CC044093CD045093CE0480914A05909114
:101230004B05A0914C05B0914D05298D3A8D4B8DF4
:101240005C8D820F931FA41FB51F80934A05909356
:101250004B05A0934C05B0934D0580914E059091A0
:101260004F05A0915005B09151050596A11DB11DE6
:1012700080934E0590934F05A0935005B093510570
:10128000BC01CD0120E13EE040E050E00E94453944
:10129000DC01CB010097A105B105A9F4BAE4EB2E5E
:1012A000B5E0FB2E68EC70E001C0B8018B010F5F68
:1012B0001F4FD7014D917D0183E897E00E947E2763
:1012C000003D110591F78091C1049091C2048C30CA
:1012D00091054CF426E52093BC0101969093C2043D
:1012E0008093C1040EC02D893E894F89588D2115E8
:1012F00031054105510511F486E501C081E4809373
:10130000BC0180910705882309F047C18091BB018A
:10131000813409F042C18DED97E098878F831E825A
:101320001D821C821B821A82198280E394E0BE0116
:10133000695F7F4FAE014A5F5F4F9E012B5F3F4F5A
:101340008E010C5F1F4FE3E0EE2EF12CEC0EFD1E24
:10135000F2E0CF2ED12CCC0EDD1E5E010894A11C34
:10136000B11CA1E18A2E912C8C0E9D1E0E948F1E15
:1013700089899A89AB89BC898F3F3FEF93073FEFFB
:10138000A3073FEFB30709F408C14DB75EB74A5052
:1013900050400FB6F8945EBF0FBE4DBFEDB7FEB71D
:1013A000319688E095E0ADB7BEB712969C938E93C8
:1013B000119784EA91E093838283809188059091CC
:1013C0008905958384838E81868317828D818087AA
:1013D00011860E94193481E080930705EDB7FEB7AE
:1013E0003A960FB6F894FEBF0FBEEDBF85EA94E0C3
:1013F0000E94C02485EA94E067E171E00E9407241E
:1014000085EA94E068E075E00E94072485EA94E0AC
:101410006DE00E94492580E00E945704882391F4E2
:1014200084E060E00E94BF2164E670E080E090E02C
:101430000E94D72084E061E00E94BF2181E00E94E9
:101440005704D8CF00D000D002E515E0ADB7BEB745
:1014500012961C930E93119785EB91E014969C9332
:101460008E9313970E9419340F900F900F900F9046
:1014700085EA94E0B8010E94072400D000D0EDB7BF
:10148000FEB71283018389EC91E0948383830E94E9
:1014900019340F900F900F900F9085EA94E0B801E7
:1014A0000E94072400D000D0ADB7BEB712961C939F
:1014B0000E9311978FEC91E014969C938E93139753
:1014C0000E9419340F900F900F900F9085EA94E0CE
:1014D000B8010E940724EDB7FEB774970FB6F894D1
:1014E000FEBF0FBEEDBF0DB71EB70F5F1F4F8FE9D9
:1014F000E82E85E0F82EF282E18283EE91E0D801B9
:1015000013969C938E93129788E795E015969C937B
:101510008E9314972091950516962C9316971796EF
:101520001C9217974E9619969C938E9318976091DC
:101530008B0570918C0580918D0590918E050E9490
:101540006931DC01CB01F8019387828780919A058C
:101550008487158680919B058687178680919C05D8
:1015600090919D05918B808B80919E05828B138A33
:101570000E9419342DB73EB72C5E3F4F0FB6F8943A
:101580003EBF0FBE2DBF85EA94E0B7010E9407243D
:1015900088E596E0B7010E94072484E6EFE9F5E0CC
:1015A000DF011D928A95E9F78DED97E098878F838B
:1015B00019821A821B821C821D821E82198A1A8A33
:1015C0001B8A1C8A1D861E861F86188A8CE0E3E013
:1015D000F6E0DF01282F1D922A95E9F7EFE0F6E00B
:1015E000DF011D928A95E9F780E2E2E5F5E0DF018F
:1015F0001D928A95E9F780E394E0BE01695F7F4F11
:10160000AE014F5F5F4F9E012E5F3F4F8E010D5F1A
:101610001F4FA4E0EA2EF12CEC0EFD1EB5E0CB2E00
:10162000D12CCC0EDD1EA6E0AA2EB12CAC0EBD1E18
:10163000B9E08B2E912C8C0E9D1E0E948F1E8985E9
:101640009A85AB85BC858F3FEFEF9E07EFEFAE0726
:10165000EFEFBE0751F48CED97E098878F831982E6
:101660001A821B821C821D821E8280E394E0BE01CE
:101670006F5E7F4FAE01435F5F4F9E01275F3F4F1D
:101680000E94FD1D80919804882311F486E501C015
:1016900081E48093BB0180E394E00E94671F6BA309
:1016A0007CA38DA39EA380E394E00E94AD1F6D8F69
:1016B0007E8F8F8F98A320917004309171043AA38C
:1016C00029A3C0906804D0906904E0906A04F09067
:1016D0006B0489899A89AB89BC89B7FF0EC0B09524
:1016E000A095909581959F4FAF4FBF4F898B9A8B57
:1016F000AB8BBC8B53E5A52E02C04EE4A42E8D858A
:101700009E85AF85B889B7FF0EC0B095A09590951E
:1017100081959F4FAF4FBF4F8D879E87AF87B88B07
:1017200037E5832E02C025E4822E49895A896B89C8
:101730007C894F3F39EC53073AE963073BE3730772
:1017400019F440E050E0BA0181E023E036E00E9465
:101750001F074D855E856F8578894F3F89EC580757
:101760008AE968078BE3780719F440E050E0BA0192
:1017700080E02FE036E00E941F075BA14CA13DA155
:101780002EA1852F942FA32FB22FBC01CD01209124
:10179000BF033091C0034091C1035091C2030E9426
:1017A000FA30882321F470E060E090E004C07BA16F
:1017B0006CA19DA18EA1AB019C01852F962FA32F1B
:1017C000B22FBC01CD0140E022E002E515E00E940D
:1017D0008933EFE9F5E084E6DF011D928A95E9F7A8
:1017E000209188053091890538A72FA34F8158850E
:1017F0005AA749A729813A814B815C816D818091EB
:10180000CF049091D004A091D104B091D2048BA7C1
:101810009CA7ADA7BEA77091BC014090BB013F0142
:10182000A9A1BAA1AF3FB10519F400E010E002C0D0
:1018300009A11AA1BFEFCB16BFEFDB06BFEFEB0686
:10184000BFEFFB0619F4CC24DD247601EDB7FEB71B
:10185000F4970FB6F894FEBF0FBEEDBF3196ADB74B
:10186000BEB712967C926E92119788E1282E82E084
:10187000382E338222829FE1292E91E0392E358243
:1018800024828FA198A597838683A9A5BAA5B1873D
:10189000A087228713863487158646871786508B44
:1018A000118A628B138A2D893E894F89588D248B2A
:1018B000358B468B578B898D9A8DAB8DBC8D808FE8
:1018C000918FA28FB38F2BA53CA54DA55EA5248F2C
:1018D000358F468F578F70A311A283E096E093A3B4
:1018E00082A3A4A215A28FE096E097A386A380A668
:1018F00011A682E595E093A782A744A615A617A78F
:1019000006A7C0AAD1AAE2AAF3AA0E941934F30139
:1019100001900020E9F73197EF59F5408E2F90E0C4
:10192000DC01A156BA4F1C924091A005E1EAF5E016
:101930002DB73EB72C5C3F4F0FB6F8943EBF0FBE9D
:101940002DBF21E030E004C0519145272F5F3F4F6C
:1019500028173907CCF3403170F400D000D000D004
:101960002DB73EB72F5F3F4FEDB7FEB7B283A183D0
:1019700088E692E00DC000D000D000D02DB73EB771
:101980002F5F3F4FEDB7FEB7B283A1838DE692E0A4
:10199000D90113969C938E93129714964C93149797
:1019A00015961C920E941934EDB7FEB736960FB605
:1019B000F894FEBF0FBEEDBF80919804882309F410
:1019C000ACC069897A898B899C890E949A072B010E
:1019D0003C016D857E858F8598890E949A07698F65
:1019E0007A8F8B8F9C8F6D8D7E8D8F8D98A120E04F
:1019F00030E040EA50E40E94AA32181624F069E16F
:101A0000862E912C03C055E0852E912C6D8D7E8DF8
:101A10008F8D98A120E030E040E251E40E94AA328C
:101A200018161CF44AE0842E912C6D8D7E8D8F8DBE
:101A300098A120E030E040E751E40E94AA32181655
:101A40001CF434E1832E912C8091BD018823B9F0E0
:101A50004092190550921A0560921B0570921C0560
:101A6000298D3A8D4B8D5C8D20931D0530931E057D
:101A700040931F05509320051092BD014EC0E09089
:101A80001905F0901A0500911B0510911C05A090F6
:101A90001D05B0901E05C0901F05D0902005C30104
:101AA000B201298D3A8D4B8D5C8D0E94BC1C0E9429
:101AB0006931AB01BC01C401AA2797FDA095BA2FDB
:101AC00084179507A607B70740F5809115059091F3
:101AD0001605A0911705B0911805840F951FA61F34
:101AE000B71F8093150590931605A0931705B09323
:101AF00018054092190550921A0560921B057092C4
:101B00001C05898D9A8DAB8DBC8D80931D0590939E
:101B10001E05A0931F05B093200581E295E00E9469
:101B2000142B80917605882309F09DC2C090C704CC
:101B3000D090C804E090C904F090CA04C701B6016F
:101B400020E13EE040E050E00E94453929013A01A1
:101B50005092C6044092C50484EC9FEF289F500128
:101B6000299FB00C389FB00C1124C701B6012CE39B
:101B700030E040E050E00E944539A20EB31EB09222
:101B8000C404A092C304ADB7BEB718970FB6F894BB
:101B9000BEBF0FBEADBFEDB7FEB7319602E515E093
:101BA00012961C930E93119781E792E093838283A0
:101BB00055824482B782A6820E941934EDB7FEB7DF
:101BC00038960FB6F894FEBF0FBEEDBF81E295E0E8
:101BD0006CE570E040E150E00E94632A81E295E00C
:101BE00061E00E94692A81E295E061E070E00E9474
:101BF0006F2A81E295E0B8010E9434248091BC01F3
:101C0000813409F09EC580919804882309F499C510
:101C100082E161E00E94BF2181E295E060E070E036
:101C200040E050E00E94632A81E295E062E00E9479
:101C3000692A8091BC01863549F481E295E060E033
:101C400070E041E050E00E94752A06C081E295E014
:101C500061E070E00E946F2A2D893E894F89588D7E
:101C6000293E83E0380780E0480780E0580708F401
:101C700042C0CA01B9010E949A3120E030E04AE72F
:101C800054E40E94013144E023E002E515E00E94A3
:101C900089330BE116E0C80162E575E044E050E0ED
:101CA0000E94E033F80101900020E9F7329780812B
:101CB0008E3209F4108281E295E06BE176E00E94B9
:101CC000072400D000D002E515E0ADB7BEB71296EC
:101CD0001C930E9311978CE792E014969C938E932D
:101CE00013970E9419340F900F900F900F9081E27C
:101CF00095E0B80127C06D897E898F89988D0E94F3
:101D00009A3122E5C22E25E0D22E40E020E0860165
:101D10000E94893381E295E0B6010E94072400D039
:101D200000D0EDB7FEB7D282C18281E892E0948301
:101D300083830E9419340F900F900F900F9081E2CF
:101D400095E0B6010E9407248091A404882379F4C9
:101D500080913B0690913C06009749F081E295E026
:101D600060E070E041E050E00E94752A06C081E228
:101D700095E061E070E00E946F2A81E295E061E009
:101D80000E94692A8091980402E515E0882399F45D
:101D900081E295E06CE570E040E050E00E94632A4B
:101DA00000D000D0ADB7BEB712961C930E9311971A
:101DB00086E892E036C081E295E06EE670E040E0B1
:101DC00050E00E94632A00D000D000D0EDB7FEB7EB
:101DD0003196ADB7BEB712961C930E93119785E25C
:101DE00091E09383828329A13AA1358324830E94C1
:101DF000F7334DB75EB74A5F5F4F0FB6F8945EBFDB
:101E00000FBE4DBF81E295E0B8010E94072400D0CB
:101E100000D0ADB7BEB712961C930E9311978DE804
:101E200092E014969C938E9313970E9419340F900E
:101E30000F900F900F9081E295E0B8010E9434243A
:101E400081E295E061E070E00E946F2A81E295E016
:101E500060E070E040E150E00E94632A80917705E5
:101E6000882349F56D897E898F89988D0E949A31E2
:101E700020918B0530918C0540918D0550918E05F8
:101E80000E94013102E5C02E05E0D02E40E023E0A3
:101E900086010E94893381E295E0B6010E94072401
:101EA00000D000D0EDB7FEB7D282C1828FE892E0B9
:101EB000948383832EC08130B9F56D897E898F89A3
:101EC000988D0E949A3120918F0530919005409114
:101ED0009105509192050E94B53212E5C12E15E090
:101EE000D12E40E023E086010E94893381E295E013
:101EF000B6010E94072400D000D0ADB7BEB712963D
:101F0000DC92CE92119786E992E014969C938E9380
:101F100013970E9419340F900F900F900F9081E249
:101F200095E0B6010E94342480913B0690913C06D6
:101F3000B2E5CB2EB5E0DB2E009709F446C06091E8
:101F400015057091160580911705909118050E944E
:101F50009A3120E030E04AE754E40E94013140E049
:101F600021E086010E948933F60101900020E9F703
:101F70003197EC19FD09CF01880F991F8E0F9F1F14
:101F8000880F991F64E770E0681B790B81E295E088
:101F900048E050E00E94632A81E295E0B6010E9489
:101FA000072400D000D0EDB7FEB7D282C1828DE900
:101FB00092E0948383830E9419340F900F900F90C6
:101FC0000F9081E295E0B6014BC080919804882380
:101FD00081F05BA14CA13DA12EA1852F942FA32FB1
:101FE000B22FBC01CD0140E020E086010E94893380
:101FF00014C000D000D0ADB7BEB71296DC92CE921E
:10200000119780EA92E014969C938E9313970E9406
:1020100019340F900F900F900F9002E515E0F80122
:1020200001900020E9F73197E01BF10BCF01880FF9
:10203000991F8E0F9F1F880F991F6AE770E0681B1A
:10204000790B81E295E048E050E00E94632A81E24A
:1020500095E0B8010E94072481E295E069E271E011
:102060000E943424C4C2813009F095C282E160E04C
:102070000E94BF218091930590919405A0E0B0E06B
:102080002D893E894F89588D82179307A407B5077C
:1020900018F482E161E002C082E160E00E94BF21A9
:1020A0008091BC01863549F481E295E060E070E002
:1020B00041E050E00E94752A06C081E295E061E0AF
:1020C00070E00E946F2A0E94330420E030E040EF6D
:1020D00051E40E9433300E946931DC01CB011816B3
:1020E00019064CF081E295E060E070E041E050E0DC
:1020F0000E94752A06C081E295E061E070E00E94CE
:102100006F2A81E295E062E00E94692A81E295E00F
:1021100060E070E040E050E00E94632A6D897E89B3
:102120008F89988D0E949A312B013C0120918B055B
:1021300030918C0540918D0550918E050E940131A2
:10214000A62EC72EE82E092F862F9C2DAE2DB02F40
:10215000BC01CD0120E030E04AE754E40E94AA32FD
:102160001816DCF58A2D9C2DAE2DB02FBC01CD01AB
:1021700020E030E04AE754E40E94013144E022E0EC
:1021800002E515E00E9489330BE116E0C80162E523
:1021900075E046E050E00E94E033F8010190002035
:1021A000E9F7329780818E3209F4108281E295E05E
:1021B0006BE176E00E94072400D000D002E515E034
:1021C000ADB7BEB712961C930E93119783EA92E0B7
:1021D00014969C938E93139730C08A2D9C2DAE2D10
:1021E000B02FBC01CD0144E023E002E515E00E94E0
:1021F00089330BE116E0C80162E575E046E050E086
:102200000E94E033F80101900020E9F732978081C5
:102210008E3209F4108281E295E06BE176E00E9453
:10222000072400D000D002E515E0EDB7FEB7128319
:10223000018388EA92E0948383830E9419340F908B
:102240000F900F900F9081E295E0B8010E94072453
:1022500081E295E060E070E040E150E00E94632A96
:1022600081E295E061E00E94692A81E295E061E007
:1022700070E00E946F2A80913B0690913C06009787
:1022800009F4B4C00E94330420E030E040EF51E490
:102290000E9433300E946931DC01CB011816190607
:1022A0000CF0B3C02D893E894F89588D293E83E0BB
:1022B000380780E0480780E0580708F440C0C301B1
:1022C000B20120E030E04AE754E40E94013144E0EA
:1022D00023E002E515E00E9489330BE116E0C80116
:1022E00062E575E044E050E00E94E033F8010190BF
:1022F0000020E9F7329780818E3209F4108281E262
:1023000095E06BE176E00E94072400D000D002E562
:1023100015E0ADB7BEB712961C930E9311978DEAD8
:1023200092E014969C938E9313970E9419340F9009
:102330000F900F900F9081E295E0B80123C012E555
:10234000C12E15E0D12EC301B20140E020E086018C
:102350000E94893381E295E0B6010E94072400D0F3
:1023600000D0EDB7FEB7D282C18282EB92E09483B7
:1023700083830E9419340F900F900F900F9081E289
:1023800095E0B6010E940724C301B20120918F0598
:102390003091900540919105509192050E94B5327F
:1023A000B2E5CB2EB5E0DB2E40E020E086010E94B6
:1023B000893381E295E0B6010E94072400D000D065
:1023C000ADB7BEB71296DC92CE92119787EB92E032
:1023D00014969C938E9313970E9419340F900F902C
:1023E0000F900F9081E295E0B601FFC00E94330488
:1023F00020E030E040EF51E40E9433300E94693128
:10240000DC01CB01181619066CF081E295E060E062
:1024100070E041E050E00E94752A81E295E06BE2B5
:1024200071E0E3C000D000D0A2E5CA2EA5E0DA2E0C
:10243000EDB7FEB7D282C1828EEB92E094838383A4
:102440000E9419340F900F900F900F9081E295E049
:10245000B6010E9407246091CB047091CC04809156
:10246000CD049091CE040E949A3120918B05309139
:102470008C0540918D0550918E050E94013140E000
:1024800021E086010E94893381E295E0B6010E9435
:10249000072400D000D0ADB7BEB71296DC92CE9222
:1024A000119782EC92E014969C938E9313970E945E
:1024B00019340F900F900F900F9081E295E0B601C4
:1024C0000E94072400D000D0EDB7FEB7D282C182AF
:1024D00088EC92E0948383830E9419340F900F90CC
:1024E0000F900F9081E295E0B6010E940724609161
:1024F0004E0570914F0580915005909151050E94B5
:102500009A314B015C0160914A0570914B058091B5
:102510004C0590914D050E949A312B013C01C5015B
:10252000B40120E030E040E752E40E9401319B0119
:10253000AC01C301B2010E94013120918B053091A1
:102540008C0540918D0550918E050E9401312B0123
:102550003C01C501B40120E030E041E655E40E94B1
:1025600001319B01AC01C301B2010E94B53240E0D0
:1025700020E00E94893381E295E0B6010E940724A1
:1025800000D000D0ADB7BEB71296DC92CE921197B4
:102590008CEC92E01DCF81E295E060E070E040E0DD
:1025A00050E00E94632A81E295E062E00E94692A7D
:1025B00081E295E060E070E041E050E00E94752A21
:1025C00000D000D002E515E0EDB7FEB7128301831D
:1025D0008FEC92E0948383830E9419340F900F90C4
:1025E0000F900F9081E295E0B8010E9407242DB76B
:1025F0003EB72E5030400FB6F8943EBF0FBE2DBFF1
:10260000EDB7FEB7319602E515E0ADB7BEB712964D
:102610001C930E9311978CED92E0938382838A81B1
:10262000848315828981868317828B8180871186B6
:102630008C81828713868D81848715860E94193448
:10264000EDB7FEB73E960FB6F894FEBF0FBEEDBFD6
:1026500081E295E060E070E048E150E00E94632A8A
:1026600081E295E061E00E94692A81E295E061E003
:1026700070E00E946F2A81E295E0B8010E94342444
:102680000E94330420E030E040EF51E40E943330F8
:102690000E9469316B017C0177FD04C069307105CE
:1026A00024F406C0CC24DD2403C0F8E0CF2ED12CC6
:1026B00081E295E064E770E048E150E02CE030E032
:1026C00007E010E0E1E0EE2EF12C0E944F2881E2BD
:1026D00095E066E770E04AE150E0960103E010E023
:1026E0000E94DA2881E295E00E94962C80913B06B8
:1026F00090913C0621E030E08227932790933C069E
:1027000080933B0688E596E06FE975E00E943424EB
:10271000809107058823C1F0809176058823A1F474
:1027200085EA94E00E94C02485EA94E06FE975E0B0
:102730000E94342409C00E940B14009729F00C94C5
:102740006C0882E160E066CAAE960FB6F894DEBF10
:102750000FBECDBFDF91CF911F910F91FF90EF90F2
:10276000DF90CF90BF90AF909F908F907F906F90B1
:102770005F904F903F902F90089581E090E00E94ED
:10278000F003089580E090E00E94F00308958091A6
:102790003D0690913E06A0913F06B09140060196FD
:1027A000A11DB11D80933D0690933E06A0933F0668
:1027B000B093400608958093490690934A0640934B
:1027C000410650934206609343067093440610926C
:1027D0003D0610923E0610923F061092400667ECAE
:1027E00073E143E050E00E94D71F08950E949B20B0
:1027F000DC01CB018093450690934606A0934706E3
:10280000B093480610923D0610923E0610923F0685
:10281000109240060895CF92DF92EF92FF920F93AD
:102820001F930E949B20DC01CB01409145065091F3
:102830004606609147067091480600914106109146
:102840004206209143063091440684179507A60757
:10285000B70748F06C017D01C41AD50AE60AF70AE9
:10286000B701A60108C04095509560957095480F36
:10287000591F6A1F7B1F81E090E0401751076207D4
:10288000730710F480E090E01F910F91FF90EF909C
:10289000DF90CF90089560913D0670913E06809143
:1028A0003F06909140060895EF92FF920F931F9379
:1028B000FC017183608353834283358324831783B0
:1028C0000683F186E0861F910F91FF90EF900895A7
:1028D000EF92FF920F931F93CF93DF93EB012DE2C3
:1028E000E22EF12C8C01061B170BBE01600F711F2D
:1028F000499183E897E00E947E270894E108F10857
:10290000E114F10491F78DE290E0DF91CF911F91F6
:102910000F91FF90EF900895EF92FF920F931F9306
:10292000CF93DF937C018B01C0E0D0E0F8014191AF
:102930008F01BE016E0D7F1D83E897E00E947E2708
:102940002196C830D10591F788E090E0DF91CF91D2
:102950001F910F91FF90EF9008957F928F929F9219
:10296000AF92BF92CF92DF92EF92FF920F931F939D
:10297000CF93DF935C01EB01DC018D919C910E9470
:10298000C024EDB7FEB738970FB6F894FEBF0FBE60
:10299000EDBF3196D50116968D919C911797ADB7E5
:1029A000BEB712969C938E93119781E193E0938327
:1029B0008283D583C483D50118968D919C911997F4
:1029C000978386830E941934EDB7FEB738960FB609
:1029D000F894FEBF0FBEEDBFD50116966D917C91A8
:1029E00017978D919C910E940724F5018081918118
:1029F000DC01ED91FC910190F081E02D6DE00995F5
:102A0000F50180819181DC01ED91FC910480F581DB
:102A1000E02D09950097A1F3F50180819181DC01FA
:102A2000ED91FC910680F781E02D09958D3091059F
:102A300039F7F501408551858681978160E070E026
:102A40000E94C933C0E0D0E07724D5018D919C91DC
:102A5000DC01ED91FC910480F581E02D0995009752
:102A600091F0F501C681D781C70DD11D808191817B
:102A7000DC01ED91FC910680F781E02D09958883BA
:102A80007394C0E0D0E061E070E080E090E00E94EC
:102A9000D720272D30E0F50180859185281739074B
:102AA00029F02196F3E0C83EDF077CF288249924C0
:102AB000D2C1D50116966D917C911797DB01A80DB7
:102AC000B11D40E009C04F5F882D90E0F5012085E1
:102AD00031858217930739F0FB01E80DF11D8081E4
:102AE00083948A3081F7FD01E40FF11D10828C91EF
:102AF000882309F4B0C1833209F4ADC1433008F42E
:102B0000AAC180E0ED01C80FD11D9881903211F06B
:102B1000993051F48F5F8417A9F79DC1903211F05D
:102B2000993009F410828F5F841709F494C1FD0174
:102B3000E80FF11D90819D3389F7841709F48BC14B
:102B400010828F5F8D01080F111DF8019081903266
:102B500011F0993021F48F5F8417A1F77CC184179D
:102B600009F479C1CE0161E471E00E94D03300978D
:102B700079F5C8010E94AB339C01B901882777FD24
:102B80008095982F0E949C31EB01F82EE92ED501FB
:102B90001296CD90DC901397F601618D728D838D26
:102BA000948DA7010C2F1D2F252F342FA9019801DB
:102BB0000E94FA30882309F44EC197018C2F9D2F73
:102BC000A32FB22FF601818F928FA38FB48F35C0C0
:102BD000CE0166E471E00E94D033009789F5C80108
:102BE0000E94AB339C01B901882777FD8095982F0F
:102BF0000E949C31EB01F82EE92ED5011296CD9062
:102C0000DC901397F601658D768D878D90A1A701D5
:102C10000C2F1D2F252F342FA90198010E94FA3067
:102C2000882309F418C197018C2F9D2FA32FB22F51
:102C3000F601858F968FA78FB0A3992493940BC12B
:102C4000CE016BE471E00E94D033009739F4D501D6
:102C50001296CD91DC91139726966BC0CE016EE44F
:102C600071E00E94D033009781F4F501C281D381D5
:102C7000C8010E94AB339C018E899F8982179307FC
:102C800009F4E9C03F8B2E8BD8CFCE0162E571E00D
:102C90000E94D033009781F4D5011296CD91DC913A
:102CA0001397C8010E94AB332C8130E028173907F5
:102CB00009F4D1C08C83C1CFCE0165E571E00E94DB
:102CC000D033009771F4F501C281D381C8010E940D
:102CD000AB332D8130E02817390709F4BCC08D8350
:102CE000ACCFCE0168E571E00E94D033009791F43B
:102CF000D5011296CD91DC911397C8010E94AB3398
:102D00009C0189A19AA18217930709F4A4C03AA350
:102D100029A393CFCE016BE571E00E94D0330097D9
:102D2000A1F4F8011382D5011296CD91DC9113978D
:102D3000A496CE01B8010E94D033009709F48BC04D
:102D4000CE01B8010E94D93378CFCE016EE571E093
:102D50000E94D033009771F4F501C281D381C8017C
:102D60000E94AB332BA130E02817390709F473C058
:102D70008BA363CFCE0161E671E00E94D033009750
:102D800081F4D5011296CD91DC911397C8010E9470
:102D9000AB3328A530E02817390709F45CC088A7B1
:102DA0004CCFCE0164E671E00E94D033009771F4FD
:102DB000F501C281D381C8010E94AB3329A530E05F
:102DC0002817390709F447C089A737CFCE0167E62E
:102DD00071E00E94D033009789F4D5011296CD910D
:102DE000DC911397C8010E94AB339C018AA59BA577
:102DF0008217930781F13BA72AA71FCFCE016AE66E
:102E000071E00E94D033009769F4F501C281D3814B
:102E1000C8010E94AB332CA530E028173907D9F040
:102E20008CA70BCFCE016DE671E00E94D0330097E6
:102E300091F4D5011496EC9114971596FC9188E0C5
:102E4000DF011D928A95E9F7F5016481758188ECAF
:102E500090E00E948C14871408F42BCE992049F03E
:102E6000D50112966D917C91139784EF91E00E94A9
:102E70006814DF91CF911F910F91FF90EF90DF9039
:102E8000CF90BF90AF909F908F907F900895EF92DA
:102E9000FF920F931F93CF93DF938C01DC01129667
:102EA000EC9112971396FC918DE2DF011D928A95A9
:102EB000E9F7F801E280F38064EF71E001C0BE0140
:102EC000EB01219683E897E00E947A27D7018D9342
:102ED0007D01B2E0C132DB0791F7D8011296ED9186
:102EE000FC91139780819181A281B3818D3020EF75
:102EF00092072EEFA2072AE5B20709F466C08DE219
:102F0000DF011D928A95E9F7D8011296ED91FC91A7
:102F100013978DE090EFAEEFBAE580839183A283A3
:102F2000B3838DED97E0978B868B89E083A300D0E8
:102F300000D0F801828193818496ADB7BEB7129616
:102F40009C938E9311978DE093E014969C938E93AF
:102F500013970E941934D8011296ED91FC911397A2
:102F60008CE3808F1296ED91FC91139780E090E0B6
:102F7000A7EAB3E4818F928FA38FB48F80E090E0B3
:102F8000A4E1B2E4858F968FA78FB0A384E690E08A
:102F900093A782A70F900F900F900F9084EF91E06E
:102FA000BF010E946814D8011496EC9114971596ED
:102FB000FC9188E0DF011D928A95E9F7F8016481B0
:102FC000758188EC90E00E948C14DF91CF911F9165
:102FD0000F91FF90EF900895FC01262F4FEF5FEFC8
:102FE000BA014083518362837383108611861286EF
:102FF00013868FEF99ECAAE9BBE3808B918BA28BB0
:10300000B38B808F918FA28FB38F80A391A3A2A344
:10301000B3A380A791A7A2A7B3A780AB91ABA2ABA4
:10302000B3AB40AF51AF62AF73AFDF01A05CBF4F36
:103030008FEF90E08D939C93DF01AC5BBF4F4D937E
:103040005D936D937C931397DF01A45BBF4F4D930A
:103050005D936D937C931397DF01AC5ABF4F1C9225
:10306000DF01AB5ABF4F1C92DF01AB59BF4F82E06B
:103070008C93DF01AA59BF4F1C92DF01A959BF4FA2
:103080001C92DF01A859BF4F1C92DF01A659BF4F08
:103090001D921D921D921C921397DF01A259BF4FE2
:1030A0001D921C92DF01A059BF4F1D921C92DF019F
:1030B000AA5ABF4F1C92E759FF4F20830895262F2D
:1030C0002154862F90E0263010F4C797089561565A
:1030D000663018F4875590400895C0970895EF9290
:1030E000FF920F931F93CF937B0100E010E09801B4
:1030F00012C0C901B8012AE030E040E050E00E946F
:10310000FF388B019C010C0F111D211D311D005337
:10311000104020403040F701C1917F018C2F805337
:103120008A3038F3B801C901CF911F910F91FF90F8
:10313000EF9008952F923F924F925F926F927F92FD
:103140008F929F92AF92BF92CF92DF92EF92FF92B7
:103150000F931F93CF93DF9326E5E22EF12CE80E19
:10316000F91EB7010E946F18EB01182F092FF70104
:103170002E2F9F2F8191382F30533A30C8F38E3243
:10318000A1F5622E792E80E1C82E87E2D82EE12C9F
:10319000F12C8824992454019AE0292E312C412CB9
:1031A000512C19C070E060537040882777FD8095DE
:1031B000982FA70196010E94FF38DC01CB01880EF1
:1031C000991EAA1EBB1EC701B601A20191010E9451
:1031D000453969017A01F30161810894611C711C10
:1031E000862F80538A30F0F203C08824992454013A
:1031F000BE01812F902F20EA36E841E050E00E9486
:10320000FF388B019C01080D191D2A1D3B1DB801BB
:10321000C901DF91CF911F910F91FF90EF90DF9047
:10322000CF90BF90AF909F908F907F906F905F9066
:103230004F903F902F9008952F923F924F925F9220
:103240006F927F928F929F92AF92BF92CF92DF92B6
:10325000EF92FF920F931F93CF93DF9356E5C52E06
:10326000D12CC80ED91EB6010E946F18162F072F39
:10327000EC0124E630E040E050E00E94453920EACD
:1032800036E841E050E00E94FF384B015C01F60156
:103290002E2F9F2F8191382F30533A30C8F38E3222
:1032A00081F5622E792E30E1C32E37E2D32EE12C48
:1032B000F12C4AE0242E312C412C512C19C070E005
:1032C00060537040882777FD8095982FA70196015D
:1032D0000E94FF38DC01CB01880E991EAA1EBB1E7E
:1032E000C701B601A20191010E94453969017A0125
:1032F000F30161810894611C711C862F80538A3010
:10330000F0F2C501B4016B5F7F4F8F4F9F4F26E0F6
:1033100030E040E050E00E94453969017A01612FB8
:10332000702FCE0124E630E040E050E00E944539A5
:10333000CA01B90120E432E44FE050E00E94FF38B6
:10334000DC01CB01C80ED91EEA1EFB1EB601C70167
:10335000DF91CF911F910F91FF90EF90DF90CF9071
:10336000BF90AF909F908F907F906F905F904F90A5
:103370003F902F900895FF920F931F93CF93DF9369
:10338000EC01CA5ADF4FFF24F39428812D3211F04B
:10339000FF2403C0EC01C95ADF4FBE010E946F1821
:1033A00024E630E040E050E00E94FF388B019C01B1
:1033B000FE018991982F90539A30D0F38E3251F5B7
:1033C0004181842F80538A3028F5842F90E0AC010E
:1033D000440F551F73E0880F991F7A95E1F7480F46
:1033E000591F405E5140662757FD6095762F040FA8
:1033F000151F261F371F8281982F90539A3050F443
:1034000090E0C097AA2797FDA095BA2F080F191F23
:103410002A1F3B1FFF2039F030952095109501950C
:103420001F4F2F4F3F4FB801C901DF91CF911F911F
:103430000F91FF900895DB01FA018D91882319F017
:1034400091918917D1F390E00895EF92FF920F9335
:103450001F93CF93DF938C01FC01EB5AFF4F8081C8
:10346000F801882309F4EBC0EA5AFF4FC8016081D4
:103470000E945F18C82FF801E95AFF4FC801608108
:103480000E945F18C295C07FC80FF801EC5AFF4F29
:103490008081F801C81709F0CAC0E859FF4F808140
:1034A000F801882309F494C0E259FF4F808191818B
:1034B000019691838083F801EC5BFF4FD801A85BF4
:1034C000BF4F8D919D910D90BC91A02D80839183D4
:1034D000A283B383F801E45BFF4FD801A05BBF4F29
:1034E0008D919D910D90BC91A02D80839183A2839D
:1034F000B383F801EB59FF4F80818823A9F1813014
:1035000009F0A7C1F80184819581A681B7818083E4
:103510009183A283B38384859585A685B7858087AB
:103520009187A287B38784899589A689B789808B7B
:10353000918BA28BB38B848D958DA68DB78D808F4B
:10354000918FA28FB38F84A595A5A6A5B7A580A7B7
:1035500091A7A2A7B3A784A995A9A6A9B7A980AB4B
:1035600091ABA2ABB3AB75C1F80184A195A1A6A1A3
:10357000B7A180A391A3A2A3B3A384819581A681BF
:10358000B78180839183A283B38384899589A68937
:10359000B789808B918BA28BB38B848D958DA68DF3
:1035A000B78D808F918FA28FB38FE05CFF4FD801D2
:1035B000AE5BBF4F8D919C9191838083F80184AD68
:1035C00095ADA6ADB7AD80AF91AFA2AFB3AF41C1DE
:1035D00084819581A681B7810097A105B10509F481
:1035E0003AC1E801CC5BDF4FE85BFF4F408151817E
:1035F00062817381488359836A837B83F801EB5925
:10360000FF4F2081222389F0213009F024C1F801E5
:1036100080839183A283B38384859585A685B785AE
:1036200080879187A287B38716C1F80186C0E059C9
:10363000FF4F808191810196918380830CC1EA596B
:10364000FF4F8081882301F5E801CA5ADF4FC80186
:10365000BE0142E751E00E941B1AB5E6EB2EF12CA9
:10366000E00EF11E009711F481E00CC0C801BE010C
:1036700048E751E00E941B1A009719F4F7011082E5
:10368000EAC082E0F701C2C0F801EB59FF4FE081C8
:10369000E23009F4E0C0D801AA5ABF4F2C9122238E
:1036A00009F4D9C0F0E0A5E0EE0FFF1FAA95E1F7FD
:1036B00090E0E82BF92B3197E932F10508F0CBC007
:1036C000EC5CFF4FEE0FFF1F0590F491E02D099485
:1036D000C8010E94BB19DC01CB01F80184839583EA
:1036E000A683B7830E949B20DC01CB01F801E85B35
:1036F000FF4F23C0F801E859FF4F81E0213409F062
:1037000084C084C0F801E759FF4F8081882321F0ED
:10371000C8010E949A1803C0C8010E941C19DC014C
:10372000CB01F801848B958BA68BB78B0E949B20D5
:10373000DC01CB01F801E05BFF4F80839183A28322
:10374000B38389C0233509F086C0F801848995893F
:10375000A689B789B095A095909581959F4FAF4F59
:10376000BF4F848B958BA68BB78B75C0F801E7593B
:10377000FF4F8081882321F0C8010E949A1803C05E
:10378000C8010E941C19DC01CB01F8010FC02735CC
:1037900009F061C0F801848D958DA68DB78DB09527
:1037A000A095909581959F4FAF4FBF4F848F958F78
:1037B000A68FB78F50C0C8010E94BB19DC01CB0196
:1037C000F80184A795A7A6A7B7A745C0C8010E947E
:1037D000BB19DC01CB01F80184AB95ABA6ABB7AB51
:1037E0003AC0B8016A5A7F4FC8010E946F18DC01C5
:1037F000CB01F80184879587A687B7872CC0F8018D
:10380000E859FF4F81E0213308F480E0808323C032
:10381000C8018A5A9F4F0E94AB33F801EE5BFF4FFD
:103820008083118218C0C8010E94BB19DC01CB0142
:10383000F80184AF95AFA6AFB7AF0DC0C8010E9425
:10384000BB19DC01CB01F80184A395A3A6A3B7A300
:1038500002C081E001C080E0DF91CF911F910F9104
:10386000FF90EF9008950F931F93CF93DF930F92E4
:10387000CDB7DEB78C01FC01E659FF4F8081918105
:10388000A281B3810196A11DB11D80839183A28382
:10389000B383F801E959FF4F6432C9F1653230F45E
:1038A0006A3079F06D3009F049C00BC06A3249F0D6
:1038B0006C3209F043C0F801EC5AFF4F8081862733
:1038C0008083F801E959FF4F80818F3060F4F8015F
:1038D000E80FF11DEA5AFF4F1082C80169830E9468
:1038E000251A698101C080E0F801EA59FF4F9081F3
:1038F0009F5F9083F801E959FF4F1082F801EB5A5E
:10390000FF4F91E06A3209F090E090832FC010825F
:10391000F801EA59FF4F1082F801EC5AFF4F10826C
:10392000F801EB59FF4F82E08083F801EB5AFF4F1B
:103930001082F801E859FF4F108217C080818E3045
:1039400040F4D801A80FB11DAA5ABF4F6C938F5FE6
:103950008083F801EB5AFF4F8081882331F4F8010E
:10396000EC5AFF4F80818627808380E00F90DF91A3
:10397000CF911F910F9108954F925F926F927F9216
:103980008F929F92AF92BF92CF92DF92EF92FF926F
:103990000F931F93CF93DF93CDB7DEB764970FB626
:1039A000F894DEBF0FBECDBF69837A838B839C837F
:1039B000CA01B90127013801A60195010E943330DF
:1039C00025E33AEF4EE85CE30E94B532862EC72E1F
:1039D0008C01982F482D5C2D692F712FCB01BA01D6
:1039E0000E941833698B7A8B8B8B9C8B882D9C2D36
:1039F000A02FB12FBC01CD010E94FE306D837E83CC
:103A00008F83988769817A818B819C8125E33AEF46
:103A10004EE85CE30E94B532E62E872EC82E092FB1
:103A2000C301B20125E33AEF4EE85CE30E94B532F0
:103A3000F62E172F482EB92E8E2D982DAC2DB02F87
:103A4000BC01CD010E94183369837A838B839C83E8
:103A50008E2D982DAC2DB02FBC01CD010E94FE30D3
:103A600069877A878B879C878F2D912FA42DBB2DFB
:103A7000BC01CD010E9418336D877E878F87988B9C
:103A80008F2D912FA42DBB2DBC01CD010E94FE30A6
:103A90006B017C0169857A858B859C852D853E85AA
:103AA0004F8558890E94B5324B015C0169817A814A
:103AB0008B819C81A70196010E94B5322D813E81A8
:103AC0004F8158850E94B5329B01AC01C501B401FC
:103AD0000E943330B62FA72F382F292FFD01C9019F
:103AE0004F2F5E2F692F782FCB01BA01A9010F2F1D
:103AF0001E2F252F342FA90198010E94B532862E42
:103B0000B72E482EA92EC701B60129893A894B89BB
:103B10005C890E94B532B62FA72F382F292FFD01BF
:103B2000C9014F2F5E2F692F782FCB01BA01A90150
:103B30000F2F1E2F252F342FA90198010E94B53277
:103B40009B01AC01882D9B2DA42DBA2DBC01CD016C
:103B50000E943430462F572F682F792FCB01BA019E
:103B60000E9422332B013C0169817A818B819C81E7
:103B70002D853E854F8558890E94B5324B015C01E9
:103B800069857A858B859C85A70196010E94B5324F
:103B90002D813E814F8158850E94B5329B01AC0139
:103BA000C501B4010E9434309B01AC01C301B201D4
:103BB0000E94A73026E73BE742EC5AE40E94B53268
:103BC000462F572F682F792FCB01BA0164960FB675
:103BD000F894DEBF0FBECDBFDF91CF911F910F9143
:103BE000FF90EF90DF90CF90BF90AF909F908F901D
:103BF0007F906F905F904F9008950F931F93CF9396
:103C0000DF93EC0189016115710549F08889998973
:103C1000AA89BB89FB0180839183A283B383411569
:103C2000510549F0888D998DAA8DBB8DFA0180834D
:103C30009183A283B3830115110519F1C45BDF4F92
:103C400088819981AA81BB818F3FFFEF9F07FFEF9A
:103C5000AF07FFEFBF0769F00E949B20DC01CB019B
:103C6000488159816A817B81841B950BA60BB70B18
:103C700003C08FEF9FEFDC01F80180839183A28363
:103C8000B383DF91CF911F910F9108950F931F93ED
:103C9000CF93DF93EC0189016115710549F08885A7
:103CA0009985AA85BB85FB0180839183A283B38319
:103CB0004115510549F088819981AA81BB81FA019A
:103CC00080839183A283B3830115110519F1CC5B25
:103CD000DF4F88819981AA81BB818F3FFFEF9F07CA
:103CE000FFEFAF07FFEFBF0769F00E949B20DC01E9
:103CF000CB01488159816A817B81841B950BA60B7E
:103D0000B70B03C08FEF9FEFDC01F8018083918335
:103D1000A283B383DF91CF911F910F9108952F92CA
:103D20003F924F925F926F927F928F929F92AF924B
:103D3000BF92CF92DF92EF92FF920F931F93CF9398
:103D4000DF93CDB7DEB72C970FB6F894DEBF0FBE6A
:103D5000CDBF3B012A011901FA86E986DC86CB86B4
:103D60009401BE016B5F7F4FAE014F5F5F4F0E94BA
:103D7000461E61147104D1F06D817E818F8198851A
:103D800024E630E040E050E00E944539DC01CB0100
:103D90009C01813591051CF08CE697E002C080ED16
:103DA00097E0820F931FF3019183808341145104A4
:103DB000A9F06D817E818F819885F4E6CF2ED12C7C
:103DC000E12CF12CA70196010E944539CA01B901E5
:103DD000A70196010E944539F20160832114310444
:103DE00061F06D817E818F81988520E137E240E02E
:103DF00050E00E944539F10120830115110561F061
:103E000069817A818B819C8120E432E44FE050E02B
:103E10000E944539F801208389859A850097A9F089
:103E200069817A818B819C8120E137E240E050E01A
:103E30000E944539CA01B90124E630E040E050E073
:103E40000E944539E985FA8560838B859C850097BA
:103E5000B1F069817A818B819C81E4E6CE2ED12CF0
:103E6000E12CF12CA70196010E944539CA01B90144
:103E7000A70196010E944539EB85FC856083A1145A
:103E8000B10461F069817A818B819C8124E630E004
:103E900040E050E00E944539F50160832C960FB652
:103EA000F894DEBF0FBECDBFDF91CF911F910F9170
:103EB000FF90EF90DF90CF90BF90AF909F908F904A
:103EC0007F906F905F904F903F902F900895FC01EE
:103ED00060A171A182A193A16F3FF9EC7F07FAE97C
:103EE0008F07FBE39F0749F00E949C3120E030E000
:103EF00048EC52E40E94013104C060E074E284E7BF
:103F000099E4382F292F862F972FA32FB22FBC018A
:103F1000CD010895FC0160A571A582A593A56F3F11
:103F2000F9EC7F07FAE98F07FBE39F0749F00E944E
:103F30009A3120E030E048EC52E40E94013104C0A4
:103F400060E070E080E89FEB382F292F862F972FB5
:103F5000A32FB22FBC01CD010895CF92DF92EF9233
:103F6000FF920E948A1F6B017C0120E030E040E854
:103F70005FEB0E94FA30882349F0C701B60126E5BD
:103F80003EE04DEE5FE30E94B53204C060E070E0B9
:103F900080E89FEB382F292F862F972FA32FB22F42
:103FA000BC01CD01FF90EF90DF90CF90089582305B
:103FB000E8F4E82FF0E0EE0FFF1FE55BF94F7183A7
:103FC0006083813041F0809169008C7F842B8093E5
:103FD0006900E89A089580916900440F551F440FC5
:103FE000551F837F842B80936900E99A08951F925F
:103FF0000F920FB60F9211242F933F934F935F931D
:104000006F937F938F939F93AF93BF93EF93FF93A0
:1040100080914B0690914C06009729F0E0914B0659
:10402000F0914C060995FF91EF91BF91AF919F914F
:104030008F917F916F915F914F913F912F910F9051
:104040000FBE0F901F9018951F920F920FB60F92F0
:1040500011242F933F934F935F936F937F938F938D
:104060009F93AF93BF93EF93FF9380914D069091F1
:104070004E06009729F0E0914D06F0914E06099505
:10408000FF91EF91BF91AF919F918F917F916F9130
:104090005F914F913F912F910F900FBE0F901F9006
:1040A00018951F920F920FB60F9211242F933F93E2
:1040B0008F939F93AF93BF9380914F06909150063B
:1040C000A0915106B091520630915706232F2A5FD6
:1040D0002D3720F40296A11DB11D05C0232F2757AF
:1040E0000396A11DB11D2093570680934F06909310
:1040F0005006A0935106B0935206809153069091BA
:104100005406A0915506B09156060196A11DB11D09
:104110008093530690935406A0935506B093560689
:10412000BF91AF919F918F913F912F910F900FBEB3
:104130000F901F9018950F931F938FB7F8940091CD
:104140004F061091500620915106309152068FBFB4
:10415000B801C9011F910F9108950F931F939FB745
:10416000F894009153061091540620915506309111
:10417000560686B5A89B06C08F3F21F00F5F1F4FE4
:104180002F4F3F4F9FBF322F212F102F0027080F97
:10419000111D211D311D43E0000F111F221F331F70
:1041A0004A95D1F7B801C9011F910F910895CF9297
:1041B000DF92EF92FF92CF93DF936B017C010E941D
:1041C000AD20DC01CB01EC010FC00E94AD206C1BC7
:1041D0007D0B83E0683E780738F00894C108D10869
:1041E000E108F108C851DC4FC114D104E104F10425
:1041F00061F7DF91CF91FF90EF90DF90CF9008951E
:10420000789484B5826084BD84B5816084BD85B5B1
:10421000826085BD85B5816085BDEEE6F0E0808178
:1042200081608083E1E8F0E0108280818260808399
:10423000808181608083E0E8F0E08081816080831C
:10424000E1EBF0E0808184608083E0EBF0E080814E
:1042500081608083EAE7F0E08081846080838081F0
:104260008260808380818160808380818068808398
:104270001092C10008958093BE0108958E3008F019
:104280008E5087709091BE019295990F990F907CF6
:10429000982B90937C0080917A00806480937A00C0
:1042A00080917A0086FDFCCF809178009091790012
:1042B000392F20E090E0822B932B0895833071F00A
:1042C000843028F48130A1F0823021F514C086308A
:1042D000B1F08730D1F08430E9F404C080918000DF
:1042E0008F7703C0809180008F7D80938000089538
:1042F00084B58F7702C084B58F7D84BD0895809189
:10430000B0008F778093B00008958091B0008F7DCA
:104310008093B000089590E0FC01EE5CFC4F249186
:104320008A5B9C4FFC018491882341F190E0880FC7
:10433000991FFC01E259FC4F45915491DA018C59C7
:104340009C4FFC0185919491FC019FB7F8948C914E
:10435000662331F4209582238C938081822308C0C8
:10436000623049F4322F309583238C938081822BE5
:1043700080839FBF0895822B8C939FBF08950F93D6
:104380001F93CF93DF930F92CDB7DEB7282F30E086
:10439000F901E25EFC4F8491F901EE5CFC4F14914F
:1043A000F901EA5BFC4F04910023D1F0882321F04E
:1043B00069830E945E216981E02FF0E0EE0FFF1F0C
:1043C000EC59FC4F85919491DC019FB7F8948C9146
:1043D000662319F41095812301C0812B8C939FBF14
:1043E0000F90DF91CF911F910F910895FC012485CB
:1043F0003585F901E05CFF4F808191812E5B3F4F55
:10440000F90120813181821B930B8F739070089585
:10441000FC0144855585FA01E05CFF4F8081918164
:10442000FA01EE5BFF4F208131818217930741F043
:104430000190F081E02DE40FF51F808190E0089558
:104440008FEF9FEF0895FC0144855585FA01E05CEC
:10445000FF4F20813181FA01EE5BFF4F8081918116
:104460002817390779F0A081B181A40FB51F8C916D
:10447000208131812F5F3F4F2F7330703183208334
:1044800090E008958FEF9FEF0895DC011E96ED9167
:10449000FC911F97DF01A05CBF4FEE5BFF4F2D919A
:1044A0003C9111978081918128173907C1F70895B0
:1044B000CF93DF93DC011E964D915C911F97EA012B
:1044C000C05CDF4F288139812F5F3F4F2F733070E1
:1044D000FA01EE5BFF4F8081918128173907D9F3EC
:1044E000E881F981E40FF51F60831E96ED91FC9140
:1044F0001F97E05CFF4F318320835696ED91FC912E
:104500005797208181E090E05D960C905D9702C006
:10451000880F991F0A94E2F7282B208381E090E00E
:10452000DF91CF91089508951F920F920FB60F92C9
:1045300011242F933F934F938F939F93EF93FF9368
:104540004091C6008091FB069091FC0601968F7306
:1045500090702091FD063091FE068217930759F066
:10456000E091FB06F091FC06E554F94F40839093EF
:10457000FC068093FB06FF91EF919F918F914F91E5
:104580003F912F910F900FBE0F901F90189588E5C7
:1045900096E00E94F621009711F00E949322089560
:1045A0001F920F920FB60F9211242F933F938F9368
:1045B0009F93EF93FF932091B7063091B8068091B7
:1045C000B9069091BA062817390731F48091C100D5
:1045D0008F7D8093C10014C0E091B906F091BA06B6
:1045E000E958F94F20818091B9069091BA06019659
:1045F0008F7390709093BA068093B9062093C6008B
:10460000FF91EF919F918F913F912F910F900FBE4E
:104610000F901F9018957F928F929F92AF92BF92AA
:10462000CF92DF92EF92FF920F931F93CF93DF937E
:10463000EC016A017B0177247394EC89FD8981E0A8
:1046400090E00E8C02C0880F991F0A94E2F78083D5
:1046500060E874E88EE190E0A70196010E94453978
:1046600089019A010150104020403040369527952D
:104670001795079520E4822E22E4922E2FE0A22E99
:10468000B12C14C07724EC89FD891082C501B401D6
:10469000A70196010E94453989019A0101501040F5
:1046A00020403040369527951795079580E10030DA
:1046B000180710F0772031F7E889F9891083EA8923
:1046C000FB890083EE89FF89408121E030E0C90148
:1046D0000A8C02C0880F991F0A94E2F7482B408386
:1046E000EE89FF894081C9010B8C02C0880F991F98
:1046F0000A94E2F7482B4083EE89FF894081C90183
:104700000C8C02C0880F991F0A94E2F7482B408353
:10471000EE89FF8980810D8C02C0220F331F0A941D
:10472000E2F7209528232083DF91CF911F910F91ED
:10473000FF90EF90DF90CF90BF90AF909F908F90C1
:104740007F90089510925B0610925A0688EE93E0CF
:10475000A0E0B0E080935C0690935D06A0935E06B7
:10476000B0935F06EAE5F6E087EC93E092938293DC
:104770008BEB96E09587848787E796E09787868717
:1047800085EC90E0918B808B84EC90E0938B828B16
:1047900080EC90E0958B848B81EC90E0978B868BFE
:1047A00086EC90E0918F808F84E0828F83E0838F0E
:1047B00087E0848F85E0858F81E0868F0895CF9292
:1047C000DF92EF92FF920F931F93CF93DF936C01D1
:1047D0007B01EA0100E010E00EC0D7016D917D0180
:1047E000D601ED91FC910190F081E02DC601099573
:1047F000080F191F2197209781F7C801DF91CF91EA
:104800001F910F91FF90EF90DF90CF900895DB0103
:104810000D900020E9F7AD0141505040461B570B69
:10482000DC01ED91FC910280F381E02D0995089562
:10483000DC01ED91FC910190F081E02D0995089546
:104840000F931F93CF93DF938C016DE00E94182488
:10485000EC01C8016AE00E9418248C0F9D1FDF91B3
:10486000CF911F910F9108950F931F93CF93DF93D3
:104870008C010E940724EC01C8010E9420248C0FA7
:104880009D1FDF91CF911F910F9108950E940021EC
:104890000E948604C7ECD2E20E94EE072097E1F363
:1048A0000E94C722F9CF20918107309182072817F3
:1048B0003907B9F49091FF06809100079817A1F08D
:1048C000E091FF06F0E0EF5FF84F80812091FF0656
:1048D00030E02F5F3F4F2F7730702093FF0690E03E
:1048E00008958FEF9FEF08958FEF9FEF0895209128
:1048F0008107309182072817390771F49091FF06DC
:1049000080910007981759F0E091FF06F0E0EF5F03
:10491000F84F808190E008958FEF9FEF08958FEF1B
:104920009FEF08952091810730918207281739075A
:1049300039F48FB7F894109200071092FF068FBFDA
:10494000089520918107309182072817390771F463
:10495000809100072091FF0690E080589F4F821BB6
:10496000910960E870E00E943239089580E090E09B
:10497000089520E001972FEF8F3F9207D9F7089510
:10498000FC0180918107909182078E179F0781F02B
:10499000838D8E7F838F8FB7F894109200071092CB
:1049A000FF06F0938207E09381078FBF81E00895AF
:1049B00080E00895EF92FF920F931F93CF93DF93C0
:1049C000EC018B8DEE85FF859D8581FF04C0808184
:1049D000892329F448C08081892309F044C08B8948
:1049E0009C890E94B92428E0E22EF12C01E010E01D
:1049F0008D899E890E94B924EE85FF8580819D85E1
:104A0000892311F0102B03C0802F80951823000FED
:104A10000894E108F108E114F10451F78F89988DA9
:104A20000E94B9248B8D81FD109580910007209103
:104A3000FF0690E001968F77907030E08217930721
:104A400079F0E0910007F0E0EF5FF84F108380917C
:104A5000000790E001968F7790708093000703C065
:104A60008B8D81608B8FDF91CF911F910F91FF9084
:104A7000EF900895FC01A189B2899089662329F4F9
:104A80002C91892F8095822302C08C91892B8C9345
:104A90000895DF92EF92FF920F931F93CF93DF93CE
:104AA000EC01F62E898D9A8D009739F481E090E023
:104AB0009B838A8380E090E047C0EFB6F8948B8DAB
:104AC00061E081FF60E0CE010E943A25898D9A8DD8
:104AD00004960E94B9248B8D08E010E0DD24D39465
:104AE00081FF15C08D2D8F2119F0CE0160E002C02D
:104AF000CE0161E00E943A25898D9A8D0E94B924E9
:104B0000DD0C0150104071F7CE0160E014C08D2D16
:104B10008F2119F0CE0161E002C0CE0160E00E9459
:104B20003A25898D9A8D0E94B924DD0C01501040E0
:104B300071F7CE0161E00E943A25EFBE898D9A8D12
:104B40000E94B92481E090E0DF91CF911F910F91F5
:104B5000FF90EF90DF9008958091810790918207F8
:104B6000009711F00E94DA2408951F920F920FB659
:104B70000F9211242F933F934F935F936F937F93E3
:104B80008F939F93AF93BF93EF93FF930E94AC25B6
:104B9000FF91EF91BF91AF919F918F917F916F9115
:104BA0005F914F913F912F910F900FBE0F901F90EB
:104BB00018951F920F920FB60F9211242F933F93C7
:104BC0004F935F936F937F938F939F93AF93BF9315
:104BD000EF93FF930E94AC25FF91EF91BF91AF91AE
:104BE0009F918F917F916F915F914F913F912F9105
:104BF0000F900FBE0F901F9018951F920F920FB637
:104C00000F9211242F933F934F935F936F937F9352
:104C10008F939F93AF93BF93EF93FF930E94AC2525
:104C2000FF91EF91BF91AF919F918F917F916F9184
:104C30005F914F913F912F910F900FBE0F901F905A
:104C400018951F93CF93DF93EC01162F862F61E009
:104C50000E948B21812F61E00E94BF21812F90E073
:104C6000FC01EE5CFC4FE491E88BFC01EA5BFC4F3D
:104C7000E491F0E0EE0FFF1FEC59FC4F8591949109
:104C8000898B9A8BDF91CF911F9108951F93CF93BA
:104C9000DF93EC01162F862F60E00E948B218B8D15
:104CA00081FD04C0812F61E00E94BF211C87812FFC
:104CB00090E0FC01EE5CFC4FE491ED87FC01EA5BC7
:104CC000FC4FE491F0E0EE0FFF1FE65AFC4F859198
:104CD00094918E879F87DF91CF911F9108951F93A5
:104CE000CF93DF93EC01162F1B821A8288EE93E09C
:104CF000A0E0B0E08C839D83AE83BF8387ED93E01B
:104D0000998388831C8A1B8A1E8A1D8A188E1F8A93
:104D10001A8E198E8B8D2170220F8C7F822B8B8F98
:104D2000CE01642F0E942126CE01612F0E944626CB
:104D3000DF91CF911F910895CF92DF92EF92FF9272
:104D4000CF93DF93EC016A017B011A8E198E188EC6
:104D50001F8A1E8A1D8A1C8A1B8A20E030E0A90156
:104D6000440F551F420F531F440F551F440F551F2B
:104D7000FA01E858FC4F85919591A591B4918C1555
:104D80009D05AE05BF05E9F4FA01E458FC4F859195
:104D900094918B8B9C8BFA01E258FC4F85919491F6
:104DA0008D8B9E8BFA01E058FC4F859194918F8BEF
:104DB000988F4E575C4FFA0185919491898F9A8F05
:104DC00006C02F5F3F4F2C30310509F0C8CF8F89C7
:104DD000988D009709F448C09C85963108F040C032
:104DE00020916800983020F09E3020F082E003C0CF
:104DF00084E001C081E0822B809368005C8558309C
:104E000048F05E3060F05631C8F1E0E0F0E0A0E03C
:104E1000B0E009C0EDE6F0E0ADE6B0E004C0EBE6DE
:104E2000F0E0ABE6B0E04C91583040F481E090E027
:104E300002C0880F991F5A95E2F710C0252F30E065
:104E40005E3018F42850304002C02E50304081E0CF
:104E500090E002C0880F991F2A95E2F7842B808387
:104E6000898D9A8D0E94B924CE010E94C024DF91C1
:104E7000CF91FF90EF90DF90CF900895ECE6F0E0B7
:104E8000ACE6B0E0D0CFFC014485463150F5483067
:104E900028F04E3030F0ECE6F0E005C0EDE6F0E052
:104EA00002C0EBE6F0E05081483040F481E090E051
:104EB00002C0880F991F4A95E2F710C0242F30E0F6
:104EC0004E3018F42850304002C02E50304081E05F
:104ED00090E002C0880F991F2A95E2F780958523FC
:104EE0008083089527ED33E0FC01318320830E9405
:104EF00043270895CB010E9419360895CB01642FF2
:104F00000E9421360895FC01758364837187608750
:104F10005783468353874287158A158614861786DA
:104F2000168621E0248B8FEF9FEF938B828B918BE2
:104F3000808B268B08952F923F924F925F926F92B3
:104F40007F928F929F92AF92BF92CF92DF92EF9219
:104F5000FF920F931F93CF93DF9300D000D0CDB774
:104F6000DEB72C017C836B836A0159011701C801EC
:104F7000841B950B97FF03C0909581959F4F9501DA
:104F80004B815C81241B350B37FF03C03095219585
:104F90003F4F41E0642E712C2817390714F0662426
:104FA00077246114710459F09A2D8B2D5801092F23
:104FB000182F9B818C81DC82CB82C92ED82E8B81CD
:104FC0009C81A816B9065CF49C2D8D2D6801092FD3
:104FD000182F9B818C81BC82AB82A92EB82ED50163
:104FE000EB81FC81AE1BBF0BBA83A98348018C18EF
:104FF0009D0897FE04C090948194910893948981B0
:105000009A8162E070E00E9432397B01C016D106BD
:105010001CF401E010E027C00FEF1FEF24C0D20105
:10502000ED91FC9111970480F581E02DC20161148E
:10503000710421F0B6014B815C8103C06B817C81DE
:10504000A60191010995E818F908F7FE06C0C00EFF
:10505000D11EE981FA81EE0EFF1E2B813C812F5F6C
:105060003F4F3C832B834B815C81A416B506BCF675
:105070000F900F900F900F90DF91CF911F910F9194
:10508000FF90EF90DF90CF90BF90AF909F908F9068
:105090007F906F905F904F903F902F9008956F9208
:1050A0007F928F929F92AF92BF92CF92DF92EF92B8
:1050B000FF920F931F93CF93DF93EC016B015A0183
:1050C00039014801E881F9810484F585E02D8701E3
:1050D0000995E881F981A501480D591D41505040BD
:1050E0000484F585E02DCE01B60193010995E88190
:1050F000F9810284F385E02DCE01B601A50194016A
:105100000995E881F981B601660D771D61507040FF
:105110000284F385E02DCE01A50194010995DF916C
:10512000CF911F910F91FF90EF90DF90CF90BF90A4
:10513000AF909F908F907F906F900895CF92DF9265
:10514000EF92FF920F931F93CF93DF93EB01D9015F
:105150007801FC0120813181A40FB51F1197F9015D
:10516000C084D1849E018D01F6010995DF91CF9114
:105170001F910F91FF90EF90DF90CF900895EF92E5
:10518000FF920F931F93CF93DF93DA017801EC0125
:10519000E881F981260F371F215030400084F185C6
:1051A000E02D8D010995DF91CF911F910F91FF9017
:1051B000EF9008956F927F928F929F92AF92BF92DD
:1051C000CF92DF92EF92FF920F931F93CF93DF93D3
:1051D0005C013A0169014801EB01C60ED71E0DC002
:1051E000D501ED91FC910284F385E02DC501BE014E
:1051F000A3019401870109952196CC15DD0584F35F
:10520000DF91CF911F910F91FF90EF90DF90CF90A2
:10521000BF90AF909F908F907F906F9008952F9246
:105220003F924F925F926F927F928F929F92AF9236
:10523000BF92CF92DF92EF92FF920F931F93CF9383
:10524000DF93CDB7DEB72F970FB6F894DEBF0FBE52
:10525000CDBF5C015E834D83422F18870F83FA8692
:10526000E986DC0118968D919C911997681779074A
:105270000CF0B1C01A968D919C911B97ED81FE8127
:10528000E817F9070CF0A7C02C2D30E0C901880FF2
:10529000991F880F991F820F931F860F971F18164B
:1052A00019060CF098C0C90113E0880F991F1A95D0
:1052B000E1F78E0F9F1F181619060CF08CC0842F73
:1052C00090E04C01880C991C880C991C880E991E42
:1052D000C9821A821B017C836B8330E02C2D353010
:1052E00029F0F401E85FFB4FE49101C0E0E0C22C3B
:1052F0003D866D807E802301DD243F872E872E2F03
:1053000030E03C872B87E0FF1EC0D501ED91FC917A
:10531000BE85B13051F40480F581E02DC5016B816B
:105320007C81A2012F81388524C00088F189E02D7D
:10533000C5016C2D7D85A3012E8530E0022F10E084
:10534000EF80F88425C0E985FA852F813885E2173A
:10535000F307F9F0D501ED91FC91BE85B13059F418
:105360000480F581E02DC5016B817C81A201298536
:105370003A8509950EC00088F189E02DC5016C2D94
:105380007D85A3012E8530E0022F10E0E984FA84A8
:105390000995EB85FC85F595E795D39429813A81AC
:1053A000620E731E0894411C511C38E0D31609F09C
:1053B000A6CF3F852E853F5F89819A81280E391EB1
:1053C000AB81BC811196BC83AB830894811C911C7A
:1053D000363009F084CF2F960FB6F894DEBF0FBE9B
:1053E000CDBFDF91CF911F910F91FF90EF90DF9094
:1053F000CF90BF90AF909F908F907F906F905F9075
:105400004F903F902F900895CF92EF92FF920F937D
:105410001F93CF93DF93EC01262F6A3061F42C8920
:1054200030E013E0220F331F1A95E1F78E859F8538
:10543000820F931F3AC06D30E1F14C855D85EE859A
:10544000FF8508891989EA88FB88BA01AF01CC88F1
:105450000E940F294C8950E09A01220F331F240F1C
:10546000351F220F331F8C859D85280F391F3D87DF
:105470002C878E898823E9F08AEF9FEF489FB0013F
:10548000499F700D589F700D112488859985680F6C
:10549000791F621773076CF483E0440F551F8A95D8
:1054A000E1F78E859F85840F951F9F878E871D86C8
:1054B0001C8681E090E0DF91CF911F910F91FF90CA
:1054C000EF90CF900895FC017587648757874687D2
:1054D0000895662309F461E0FC01648B0895FC01E2
:1054E000718B608B738B628B0895FC01718B608B69
:1054F000538B428B0895FC0185898370858B0895B9
:10550000FC01808591850895FC018285938508952D
:10551000CF92DF92EF92FF920F931F93CF93DF937F
:10552000EC017B018A01690177FD64C00E94802A39
:10553000E816F9060CF05EC017FD5CC0CE010E94B3
:10554000842A081719070CF055C049C08C819D8129
:10555000801B910B87017C010894E108F10818C0B9
:105560008C819D819C012E193F0979010894E108E5
:10557000F1088E819F819C01201B310B890106C09F
:105580008E819F818E199F0978018C0101501040F6
:10559000C80168E070E00E943239FB01F695FE2FE9
:1055A000EE27F795E795EE0DFF1DE154FE4F31E034
:1055B000C316D10441F402C0CC0CDD1C8A95E2F77D
:1055C00080818C290AC021E030E002C0220F331F05
:1055D0008A95E2F720958081822380830BC0CE01DB
:1055E0000E947B2A823009F4BBCF833049F281309C
:1055F00079F6ACCFDF91CF911F910F91FF90EF9093
:10560000DF90CF900895EF920F93FC0113821282E6
:1056100087EE93E091838083E48E038F228F418F06
:10562000608F0F91EF90089580E092E0EFEBF1E052
:10563000DF019C011D9221503040E1F70895FC01EB
:1056400088E090E030E8A78DB0A14C9126A120958C
:1056500024232C93432F4623A58DB68D25A14423C7
:1056600021F04C91422B4C9304C04C912095242363
:105670002C93A78DB0A12C9146A1242B2C93369569
:10568000019709F708951F93CF93DF93EC01162F2D
:10569000888D8F3FF1F0E9A1FAA180819FA1892B2C
:1056A0008083EBA1FCA1908188A5809589238083CC
:1056B000E9A1FAA190818FA1809589238083CE01F1
:1056C0000E941F2BE9A1FAA180819FA1892B8083D1
:1056D00016C06F89772767FD709584E897E00E9470
:1056E000022E84E897E060E00E94BE2D84E897E0F7
:1056F000612F0E94BE2D84E897E00E94182EDF9152
:10570000CF911F910895662311F067EA01C066EA00
:105710000E94432B08950F931F93CF93DF93EC01C7
:10572000162F042F60E870E040E250E00E948327CB
:105730000F8B888D8F3F09F468C061E00E948B2138
:10574000898D61E00E948B218A8D61E00E948B210E
:105750008C8D61E00E948B21298D332727FD3095A8
:10576000F901EA5BFC4FE491F0E0EE0FFF1FEC590A
:10577000FC4F859194918F8F98A32E5C3C4FF9013B
:1057800024912EA3288D332727FD3095F901EA5B5C
:10579000FC4FE491F0E0EE0FFF1FEC59FC4F8591B8
:1057A00094918D8F9E8F2E5C3C4FF90124912DA3F7
:1057B0002C8D332727FD3095F901EA5BFC4FE491EE
:1057C000F0E0EE0FFF1FEC59FC4F8591949189A3F7
:1057D0009AA32E5C3C4FF90124912FA32A8D3327E5
:1057E00027FD3095F901EA5BFC4FE491F0E0EE0F04
:1057F000FF1FEC59FC4F859194918BA39CA32E5CC9
:105800003C4FF901249128A704C084E897E00E9446
:10581000ED2D8B8D61E00E948B218B8D61E00E94CC
:10582000BF2161E070E080E090E00E94D7208B8D86
:1058300060E00E94BF216AE070E080E090E00E949A
:10584000D7208B8D61E00E94BF21CE016EEA0E94BD
:10585000432BCE0165ED0E94432BCE0160E80E94F0
:10586000432BCE0168EA0E94432BCE016FE10E94D8
:10587000432BCE0163ED0E94432BCE0160E00E94DA
:10588000432BCE0160E40E94432BCE016DE80E94C1
:10589000432BCE01113011F460E101C064E10E949C
:1058A000432BCE0160E20E94432BCE0160E00E94B8
:1058B000432BCE0161EA0E94432BCE0168EC0E948B
:1058C000432BCE016AED0E94432BCE0162E00E9481
:1058D000432BCE0161E80E94432BCE016FE80E946A
:1058E000432BCE0169ED0E94432BCE01113011F400
:1058F00062E201C061EF0E94432BCE016BED0E947A
:10590000432BCE0160E40E94432BCE0164EA0E9447
:10591000432BCE0166EA0E94432BCE016FEA0E9420
:10592000432BDF91CF911F910F910895BF92CF929A
:10593000DF92EF92FF920F931F93CF93DF938C012F
:1059400060E00E94432BC80160E10E94432BC80124
:1059500060E40E94432BD80158968C9158978F3F52
:1059600009F443C09196ED91FC91929780819796AE
:105970009C919797892B80839396ED91FC919497B6
:10598000808198969C919897892B80839196ED9130
:10599000FC919297908197968C9180958923808332
:1059A0009FEBE92E91E0F92EC0E0D0E0F701619184
:1059B0007F01C8010E941F2B2196F2E0C030DF0753
:1059C000A9F7C0E0D2E0C80160E00E941F2B219738
:1059D000D1F7D8019196ED91FC919297808197969D
:1059E0009C919797892B808364C0B090B8008CE01D
:1059F0008093B800CC24DD24F8016789772767FD00
:105A0000709584E897E00E94022EE0918407F0915F
:105A100085070190F081E02D84E897E060E4099526
:105A2000EE24FF24E601C154DE4FFE01EE0DFF1D02
:105A300084E897E060810E94BE2D0894E11CF11C6F
:105A4000F0E1EF16F10489F780E190E0C80ED91E6D
:105A500084E897E00E94182E90E0C91692E0D906DB
:105A600059F6C0E2D0E0D80157966C91772767FDD0
:105A7000709584E897E00E94022EE0918407F091EF
:105A800085070190F081E02D84E897E060E40995B6
:105A900080E1E82E84E897E060E00E94BE2DEA9461
:105AA000C9F784E897E00E94182E2197E1F6B0929A
:105AB000B800DF91CF911F910F91FF90EF90DF9091
:105AC000CF90BF9008958091B40790E02091B507E2
:105AD000821B910908952091B5078091B40728177A
