:100000000C94D3040C943C1E0C94691E0C94E424B0
:100010000C9408250C942C250C94FB040C94FB04E4
:100020000C94FB040C94FB040C94FB040C94FB0454
:100030000C94FB040C94FB040C94FB040C94FB0444
:100040000C94961E0C94FB040C94F8200C9429211B
:100050000C94FB040C94FB040C94FB040C94FB0424
:100060000C94162E0C94FB04111A271A431A571AD3
:100070006A1A9C1AA51AB01AB91AC41AC41AC41A50
:10008000C41AC41AC41AC41AC41AC41AC41AC41A80
:10009000C41AC41AC41AC41AC41AC41AC41AC41A70
:1000A000C41AC41AC41AC41A111A1F1A271A431AD6
:1000B000571A6A1A7E1A871A901A084AD73B3BCEFB
:1000C000016E84BCBFFDC12F3D6C74319ABD568357
:1000D0003DDA3D00C77F11BED9E4BB4C3E916BAA0F
:1000E000AABE000000803F05A84CCDB2D44EB9385E
:1000F00036A9020C50B9918688083CA6AAAA2ABE45
:10010000000000803F256C642E2530346C64006E46
:10011000616E6F0A232063706D5F666163746F7236
:100120003D00312E302E320023204E4557204C4FBB
:10013000470A2320666F726D61743D0057726F6EBF
:1001400067206D6F6465202100253032642F2530D3
:10015000326420253032643A2530326400207553F1
:100160000044733D002075532F68004D783D0020FA
:1001700075532F680044723D0043504D200043509A
:100180004D200043504D202D2D2D002D2D006B6D49
:10019000002042712F6D3200207553762F68004E7B
:1001A0006F204750530043504D2000253032646883
:1001B000253032646D00253032642F2530326420C2
:1001C000253032643A253032643A25303264002AD0
:1001D0002558002A302558002425732C25303464F6
:1001E0002C253032642D253032642D253032645474
:1001F000253032643A253032643A253032645A2C44
:10020000256C642C256C642C256C642C25632C25B2
:10021000732C25632C25732C25632C25732C2563C7
:100220002C256C642C256400253034642530326420
:10023000253032642E6C6F670023253034640062F1
:10024000476569676965204E616E6F2025730024DC
:10025000504D544B3330312C322A32450D0A002494
:10026000504D544B3331332C312A32450D0A002482
:10027000504D544B3232302C313030302A31460020
:1002800024504D544B3331342C302C312C302C3104
:100290002C302C302C302C302C302C302C302C307E
:1002A0002C302C302C302C302C302C302C302A326E
:1002B00038007265616420257320302025640000B9
:1002C000000000240027002A00000000002500286C
:1002D000002B000000000023002600290004040475
:1002E00004040404040202020202020303030303DF
:1002F00003010204081020408001020408102001BC
:10030000020408102000000007000201000003049E
:1003100006000000000000000000C201000100050E
:10032000000500030000E1000001000F000F000DB8
:100330000000960000020019001A001700127A004F
:10034000000700200021001D00807000000B00232A
:100350000023002000004B00001400370037003459
:1003600000403800001E004B004B00480080250074
:10037000003200720072007000C01200006E00E9CE
:1003800000E900E60060090000E500D801D801D5C9
:1003900001B0040000D301B403B403B1032C010085
:1003A000006707DD0EDD0EDA0E00000000003E5B88
:1003B0004F5B3E3E6B4F6B3E1C3E7C3E1C183C7EB2
:1003C0003C181C577D571C1C5E7F5E1C00183C1897
:1003D00000FFE7C3E7FF0018241800FFE7DBE7FF93
:1003E00030483A060E2629792926407F0505074020
:1003F0007F05253F5A3CE73C5A7F3E1C1C08081CE1
:100400001C3E7F14227F22145F5F005F5F06097F1E
:10041000017F006689956A606060606094A2FFA2B7
:100420009408047E040810207E201008082A1C0866
:10043000081C2A08081E101010100C1E0C1E0C3070
:10044000383E3830060E3E0E060000000000000068
:100450005F00000007000700147F147F14242A7F28
:100460002A122313086462364956205000080703F5
:1004700000001C2241000041221C002A1C7F1C2A73
:1004800008083E08080080703000080808080800C6
:100490000060600020100804023E5149453E0042C1
:1004A0007F400072494949462141494D3318141291
:1004B0007F1027454545393C4A49493141211109B9
:1004C000073649494936464949291E0000140000AB
:1004D00000403400000008142241141414141400C5
:1004E0004122140802015909063E415D594E7C1211
:1004F00011127C7F494949363E414141227F4141A9
:10050000413E7F494949417F090909013E41415125
:10051000737F0808087F00417F41002040413F0170
:100520007F081422417F404040407F021C027F7FB1
:100530000408107F3E4141413E7F090909063E41C2
:1005400051215E7F09192946264949493203017F15
:1005500001033F4040403F1F2040201F3F403840A4
:100560003F631408146303047804036159494D433D
:10057000007F4141410204081020004141417F04B5
:10058000020102044040404040000307080020549C
:100590005478407F284444383844444428384444FC
:1005A000287F385454541800087E090218A4A49CCB
:1005B000787F0804047800447D40002040403D00DE
:1005C0007F1028440000417F40007C047804787C40
:1005D000080404783844444438FC182424181824A7
:1005E0002418FC7C08040408485454542404043F90
:1005F00044243C4040207C1C2040201C3C40304097
:100600003C44281028444C9090907C4464544C44C2
:100610000008364100000077000000413608000263
:10062000010204023C2623263C1EA1A161123A408D
:1006300040207A3854545559215555794121545404
:100640007841215554784020545579400C1E5272FF
:1006500012395555555939545454593955545458DB
:100660000000457C410002457D420001457C40F090
:10067000292429F0F0282528F07C545545002054E1
:10068000547C547C0A097F493249494932324848EE
:100690004832324A4848303A4141217A3A42402071
:1006A00078009DA0A07D39444444393D4040403D00
:1006B0003C24FF2424487E4943662B2FFC2F2BFF2C
:1006C0000929F620C0887E0903205454794100008E
:1006D000447D413048484A32384040227A007A0A04
:1006E0000A727D0D19317D2629292F2826292929CD
:1006F0002630484D402038080808080808080838FF
:100700002F10C8ACBA2F102834FA00007B00000864
:10071000142A142222142A1408AA005500AAAA5541
:10072000AA55AA000000FF00101010FF00141414B6
:10073000FF001010FF00FF1010F010F0141414FC54
:10074000001414F700FF0000FF00FF1414F404FC71
:10075000141417101F10101F101F1414141F001052
:100760001010F0000000001F101010101F101010CB
:1007700010F010000000FF101010101010101010DA
:10078000FF10000000FF140000FF00FF00001F101A
:10079000170000FC04F414141710171414F404F4D4
:1007A0000000FF00F714141414141414F700F714C5
:1007B0001414171410101F101F141414F414101014
:1007C000F010F000001F101F0000001F14000000B8
:1007D000FC140000F010F01010FF10FF141414FFB0
:1007E000141010101F00000000F010FFFFFFFFFFAB
:1007F000F0F0F0F0F0FFFFFF0000000000FFFF0F3F
:100800000F0F0F0F38444438447C2A2A3E147E02CE
:10081000020606027E027E02635549416338444463
:100820003C04407E201E2006027E020299A5E7A518
:10083000991C2A492A1C4C7201724C304A4D4D3089
:100840003048784830BC625A463D3E494949007EAE
:100850000101017E2A2A2A2A2A44445F4444405145
:100860004A444040444A51400000FF0103E080FFF9
:10087000000008086B6B083612362436060F090F85
:1008800006000018180000001010003040FF0101A1
:10089000001F01011E00191D1712003C3C3C3C00CA
:1008A0000000000000407A10F35A00A0724E1809B0
:1008B0000010A5D4E80000E87648170000E40B54C7
:1008C000020000CA9A3B000000E1F5050000809696
:1008D0009800000040420F000000A08601000000C8
:1008E000102700000000E803000000006400000082
:1008F00000000A00000000000100000000002C764B
:10090000D888DC674F0823DFC1DFAE59E1B1B79665
:10091000E5E3E453C63AE651997696E8E6C28426C2
:10092000EB898C9B62ED407C6FFCEFBC9C9F40F29E
:10093000BAA56FA5F490055A2AF75C936B6CF9671A
:100940006DC11BFCE0E40D47FEF520E6B500D0EDDF
:10095000902E0300943577050080841E0800002047
:100960004E0A000000C80C333333330F986E1283E5
:100970001141EF8D2114893BE65516CFFEE6DB18B9
:10098000D1844B381BF77C1D901DA4BBE42420327E
:1009900084725E228100C9F124ECA1E53D27F012AA
:1009A000F3215B2DF51211241FBECFEFD8E0DEBF7F
:1009B000CDBF13E0A0E0B1E0E4E4F4E702C00590AD
:1009C0000D92AA3EB107D9F718E0AAEEB3E001C034
:1009D0001D92A430B107E1F719E0C4EAD9E004C0E0
:1009E0002297FE010E94113ACE39D107C9F70E9421
:1009F00070230C94FD040C940000F8940C94153AA8
:100A0000EF92FF920F931F938130910569F58AEE63
:100A100093E066E047E025E003E0F4E0EF2E0E947B
:100A20005E2A8FE694E06AE04BE020E00E949E257B
:100A30008CE894E061E00E949B1680E095E068E01D
:100A400049E020E00E949E258CE195E06FE674E08D
:100A500046E255E023E535E00BE515E0E4E6EE2E51
:100A6000F12C0E9483130AC0009741F480E095E0C6
:100A70000E94A1268FE694E00E94A1261F910F916B
:100A8000FF90EF9008951F93CF93DF93182FC0E04E
:100A9000D0E021968FE694E00E94A023009779F0A1
:100AA0008FE694E00E947F23AC01112319F02EE31E
:100AB00030E002C02CE330E04217530751F06AE007
:100AC00070E080E090E00E941E1FC83CD10509F74D
:100AD00004C081E0C83CD1050CF080E0DF91CF91EB
:100AE0001F910895CF92DF92EF92FF920F931F9381
:100AF000CF93DF937B018C016A010E94DD3020E0FF
:100B000030E543EC57E40E9444300E94B1302DB7E9
:100B10003EB72C5030400FB6F8943EBF0FBE2DBFED
:100B2000CDB7DEB72196EDB7FEB7D282C18225E000
:100B300031E03B832A836C837D838E839F8320EA0D
:100B400036E841E050E00E947039A8019701261B69
:100B5000370B480B590BCA01B9012AE030E040E0DD
:100B600050E00E94B639288739874A875B870E9400
:100B700081344DB75EB7445F5F4F0FB6F8945EBFE8
:100B80000FBE4DBFDF91CF911F910F91FF90EF905E
:100B9000DF90CF900895CF92DF92EF92FF920F9364
:100BA0001F93CF93DF930E94DD3020E836E948E1C0
:100BB0005BE40E9444306B01D82FC92F762FCE0101
:100BC000272F3D2D492F582FCA01B9010E94AC3063
:100BD000882777FD8095982F0E94DF307B018C015C
:100BE0009E016C2D7D2D832F922FA80197010E94CD
:100BF000762F20E030E040E752E40E94443020E0CD
:100C000030E048EC52E40E94F831A80197010E94BC
:100C1000772FDF91CF911F910F91FF90EF90DF9091
:100C2000CF900895EF92FF920F931F93CF93DF938E
:100C30009C018B01A8E0EA2EF12CE60EF71E01C004
:100C40009E01E90121968FE397E0B9010E94A92650
:100C5000F80181938F01EE15FF0591F788E090E090
:100C6000DF91CF911F910F91FF90EF900895AF9278
:100C7000BF92CF92DF92EF92FF920F931F93CF9389
:100C8000DF938DE061E00E94CE1F8CE996E040E8A2
:100C900055E260E070E00E94642129E288E190E082
:100CA0000FB6F894A895809360000FBE2093600063
:100CB000A8958CE195E00E943E168FE694E040E80E
:100CC00055E260E070E00E94CB258CE061E00E947C
:100CD000CE1F8FE694E00E94EB238CE060E00E9440
:100CE0000C2064E670E080E090E00E941E1F8CE023
:100CF00061E00E940C2081E00E944305882321F4DA
:100D000081E080932C0403C081E080938B04809168
:100D10008B04882331F08CE195E060E071E00E9463
:100D2000E01380E090E048E853E160E070E00E946A
:100D30000E130E94291380E095E040E855E260E040
:100D400070E00E94CB2580E095E00E94EB23CBE58C
:100D5000D5E004E6DE01E02F1D92EA95E9F700D028
:100D600000D0ADB7BEB71296DC93CE93119780E852
:100D700092E014969C938E9313970E9481340F9067
:100D80000F900F900F9080E095E0BE010E948B22A3
:100D9000FE01802F11928A95E9F700D000D0ADB7FF
:100DA000BEB71296DC93CE9311978FE692E014961D
:100DB0009C938E9313970E9481340F900F900F9005
:100DC0000F9080E095E0BE010E948B22FE01802FF3
:100DD00011928A95E9F700D000D0ADB7BEB7129650
:100DE000DC93CE9311978FE592E014969C938E93AB
:100DF00013970E9481340F900F900F900F9080E016
:100E000095E0BE010E948B22FE0111920A95E9F73E
:100E100000D000D0ADB7BEB71296DC93CE93119739
:100E20008FE492E014969C938E9313970E948134E2
:100E30000F900F900F900F9080E095E0BE010E9400
:100E40008B2288EC90E063E575E00E9412066091C9
:100E50005705709158058091590590915A05611573
:100E6000710581059105F1F10E94DD307B018C0156
:100E700060915305709154058091550590915605E8
:100E80000E94DD305B016C01C801B70120E030E059
:100E900040E752E40E9444309B01AC01C601B50119
:100EA0000E94443020913F0530914005409141051A
:100EB000509142050E9444305B016C01C801B701AA
:100EC00020E030E041E655E40E9444309B01AC0153
:100ED000C601B5010E94F83140E022E00FEB15E0B9
:100EE0000E94CC328AEE93E062E04CE30E94E72A53
:100EF0008AEE93E00E94F42B68EE73E080E090E0CD
:100F00000E941E1F8AEE93E00E946F2A8AEE93E0F1
:100F100061E070E00E94B2298AEE93E061E00E94F5
:100F2000AC2900D000D000D0EDB7FEB73196CFEBA2
:100F3000D5E0ADB7BEB71296DC93CE9311978FE391
:100F400092E0938382838DE091E0958384830E9475
:100F50008134FE0101900020E9F73197EC1BFD0B75
:100F60008DB79EB706960FB6F8949EBF0FBE8DBF85
:100F7000CF01880F991F8E0F9F1F880F991F00E8C0
:100F800010E0B801681B790B769567958AEE93E0BF
:100F900040E050E00E94A6298AEE93E0BE010E9444
:100FA0006B228AEE93E062E00E94AC298AEE93E025
:100FB00068E270E048E050E00E94A62900D000D02E
:100FC00000D0EDB7FEB73196ADB7BEB71296DC9341
:100FD000CE93119789E392E09383828380913C05BD
:100FE00090913D05958384830E948134EDB7FEB7CF
:100FF00036960FB6F894FEBF0FBEEDBF8AEE93E0B3
:10100000BE010E946B228AEE93E061E00E94AC294F
:10101000CCE2D5E080912C058823E9F0FE01019017
:101020000020E9F7ED52F540CF01880F991F8E0F90
:101030009F1F880F991FB801681B790B76956795DC
:101040008AEE93E048E150E00E94A6298AEE93E000
:10105000BE010E946B228AEE93E00E94F42BC0E056
:10106000D4E02197CE010E94EE320097D1F30E9486
:1010700088338CE996E0BE014AE050E00E94552397
:10108000DF91CF911F910F91FF90EF90DF90CF9064
:10109000BF90AF900895EF92FF920F931F93CF935D
:1010A000DF939C01EB0178E0E72EF12CEC0EFD1EA6
:1010B00001C0980189010F5F1F4F49918FE397E0AD
:1010C000B9010E94AD26CE15DF0599F788E090E0C2
:1010D000DF91CF911F910F91FF90EF9008952F9284
:1010E0003F924F925F926F927F928F929F92AF92B8
:1010F000BF92CF92DF92EF92FF920F931F93DF93F5
:10110000CF93CDB7DEB7AB970FB6F894DEBF0FBE67
:10111000CDBF80E095E00E94EB230E94EA1E7B0198
:101120008C01AA2413C080E095E00E947F23682FE1
:101130008CE894E00E94CA1A882311F0AA24A39490
:1011400080E095E00E94A023009769F70E94EA1EC4
:101150009B01AC01D801C701821B930BA40BB50BFB
:10116000E216F3060407150720F480959095A095E4
:10117000B095883E23E0920720E0A20720E0B20766
:1011800010F00C94D1120E943C13009711F00C94B3
:10119000D112D6CF80919C01813419F48DE061E0A9
:1011A00002C08DE060E00E940C200E943C1300977A
:1011B00011F40C94D712A8950E947A136D8B7E8B34
:1011C0008F8B988F0E94291360915D0470915E044B
:1011D00080915F0490916004FB01EE0FFF1FEE0F02
:1011E000FF1FE35DFB4F2D893E894F89588D20837A
:1011F0003183428353836F5F7F4F8F4F9F4F2CE02C
:1012000030E040E050E00E94B63960935D04709396
:101210005E0480935F0490936004EDE2F4E0442464
:101220005524320181919191A191B191480E591E9D
:101230006A1E7B1E34E0ED35F307A1F7809161044F
:1012400090916204A0916304B09164042D893E8959
:101250004F89588D820F931FA41FB51F809361047F
:1012600090936204A0936304B09364048091690432
:1012700090916A04A0916B04B0916C040596A11D35
:10128000B11D8093690490936A04A0936B04B0939A
:101290006C048091650490916604A0916704B091FC
:1012A000680484159505A605B70540F440926504C9
:1012B00050926604609267047092680480915305AE
:1012C00090915405A0915505B09156052D893E8900
:1012D0004F89588D820F931FA41FB51F809353050C
:1012E00090935405A0935505B0935605609157050A
:1012F000709158058091590590915A056B5F7F4F09
:101300008F4F9F4F609357057093580580935905F1
:1013100090935A0520E13EE040E050E00E94B6394B
:10132000611571058105910531F488EC90E063E564
:1013300075E00E944B0880916D0490916E048C3092
:1013400091054CF426E520939B01019690936E0441
:1013500080936D040AC0411451046104710411F4B6
:1013600086E501C081E480939B0184E6EBE5F5E02E
:10137000DF011D928A95E9F71CED212E17E0312E31
:1013800038862F8219821A821B821C821D821E823D
:1013900019861A861B861C861D861E861F86188A3D
:1013A0008CE0EFEDF5E0DF01282F1D922A95E9F79B
:1013B000EBEEF5E0DF011D928A95E9F780E2EFEBB5
:1013C000F5E0DF011D928A95E9F78CE894E0BE0113
:1013D000695F7F4FAE014F5F5F4F9E012E5F3F4FB2
:1013E0008E010D5F1F4FB4E0EB2EF12CEC0EFD1EB5
:1013F000A5E0CA2ED12CCC0EDD1EF6E0AF2EB12C0E
:10140000AC0EBD1EE1E18E2E912C8C0E9D1E0E9415
:10141000EF1C89899A89AB89BC898F3FEFEF9E07C2
:10142000EFEFAE07EFEFBE0741F438862F82198247
:101430001A821B821C821D821E828CE894E0BE01EF
:10144000675F7F4FAE01435F5F4F9E012F5E3F4F4F
:101450000E94611C8091F404882311F486E501C088
:1014600081E480939C018CE894E00E94C41D6BA3EE
:101470007CA38DA39EA38CE894E00E94FA1D6D8F3F
:101480007E8F8F8F98A32091CC043091CD043AA306
:1014900029A38091C4049091C504A091C604B09181
:1014A000C704898F9A8FAB8FBC8F89859A85AB854E
:1014B000BC85B7FF0EC0B095A095909581959F4FC4
:1014C000AF4FBF4F89879A87AB87BC8793E59FA3B0
:1014D00002C0AEE4AFA38D859E85AF85B889B7FF06
:1014E0000EC0B095A095909581959F4FAF4FBF4F7F
:1014F0008D879E87AF87B88B57E5352E02C045E4B0
:10150000342E69857A858B859C856F3FB9EC7B0786
:10151000BAE98B07BBE39B0719F460E070E0CB01ED
:101520004FED55E00E9472056D857E858F85988907
:101530006F3FE9EC7E07EAE98E07EBE39E0719F4BB
:1015400060E070E0CB014BEE55E00E9472055BA1BC
:101550004CA13DA12EA1652F742F832F922F209196
:101560009E0330919F034091A0035091A1030E94DC
:101570003D30882321F470E060E090E004C07BA15E
:101580006CA19DA18EA1AB019C01652F742F832FAF
:10159000922F40E022E00FEB15E00E94CC3284E66F
:1015A000EBE5F5E0DF011D928A95E9F760913C05D6
:1015B00070913D05EF80F8848980AA802B80DC80C3
:1015C000CD80209161043091620440916304509178
:1015D000640428A739A74AA75BA7B0909B01909005
:1015E0009C01898D9A8DAB8DBC8D8F3FEFEF9E074F
:1015F000EFEFAE07EFEFBE0721F4198E1A8E1B8EA8
:101600001C8E29A13AA12F3F310519F420E030E0CA
:1016100002C029A13AA14DB75EB7445350400FB65E
:10162000F8945EBF0FBE4DBFEDB7FEB731960BE528
:1016300015E0ADB7BEB712961C930E93119748ED07
:1016400051E05383428343E151E0558344837783E0
:101650006683F186E08682861386A48615862686B2
:101660001786D08A118AC28A138A448A558A668A62
:10167000778A8D899E89AF89B88D808F918FA28F4F
:10168000B38F88A599A5AAA5BBA5848F958FA68F92
:10169000B78FB0A211A28FED95E093A382A39FA173
:1016A00094A315A28BEE95E097A386A330A611A66E
:1016B0008FEB95E093A782A794A615A6898D9A8DA6
:1016C000AB8DBC8D86A797A7A0ABB1AB33AB22ABDC
:1016D0000E948134F80101900020E9F73197E01B66
:1016E000F10B8E2F90E0FC01E00FF11F1082409172
:1016F0005C05F8013296ADB7BEB7D4960FB6F89434
:10170000BEBF0FBEADBF21E030E004C05191452700
:101710002F5F3F4F28173907CCF3855A9A4F403136
:1017200078F400D000D000D0EDB7FEB73196ADB759
:10173000BEB712969C938E93119783ED91E00EC0E5
:1017400000D000D000D0EDB7FEB73196ADB7BEB730
:1017500012969C938E9311978FEC91E093838283E2
:10176000448315820E948134EDB7FEB736960FB6DA
:10177000F894FEBF0FBEEDBF8091F404882309F4F6
:10178000B7C069857A858B859C850E94CB056D8B5A
:101790007E8B8F8B988F6D857E858F8598890E9433
:1017A000CB05698F7A8F8B8F9C8F6D8D7E8D8F8D02
:1017B00098A120E030E040EA50E40E94ED31181694
:1017C00024F039E1832E912C03C025E0822E912C48
:1017D0006D8D7E8D8F8D98A120E030E040E251E448
:1017E0000E94ED3118161CF49AE0892E912C6D8D13
:1017F0007E8D8F8D98A120E030E040E751E40E947B
:10180000ED3118161CF484E1882E912C80919A01F8
:101810008823D9F02D893E894F89588D209317044C
:10182000309318044093190450931A04898D9A8DAB
:10183000AB8DBC8D8093130490931404A093150476
:10184000B093160410929A0153C0E0901704F090E0
:1018500018040091190410911A04A0901304B09078
:101860001404C0901504D09016046D897E898F8968
:10187000988D298D3A8D4B8D5C8D0E94531B0E9453
:10188000AC309B01AC01AA2497FCA094BA2C821620
:101890009306A406B50660F580911B0490911C0484
:1018A000A0911D04B0911E04820F931FA41FB51FA9
:1018B00080931B0490931C04A0931D04B0931E04FA
:1018C0002D893E894F89588D209317043093180431
:1018D0004093190450931A04898D9A8DAB8DBC8D59
:1018E0008093130490931404A0931504B0931604EA
:1018F0008AEE93E00E946F2A80912A05882309F0DE
:1019000091C2ADB7BEB71E970FB6F894BEBF0FBE5B
:10191000ADBFEDB7FEB731960FEBE02E05E0F02E30
:101920001296FC92EE92119786EB91E0938382835C
:101930008A81848315828981868317828B8180873F
:1019400011868C81828713868D81848715860E94FB
:101950008134EDB7FEB73E960FB6F894FEBF0FBECA
:10196000EDBF8AEE93E062E070E048E150E00E9453
:10197000A6298AEE93E061E00E94AC298AEE93E00A
:1019800061E070E00E94B2298AEE93E0B7010E9404
:101990008B22A0906904B0906A04C0906B04D09030
:1019A0006C04C601B50120E13EE040E050E00E9439
:1019B000B639022F2B83C601B5012CE330E040E09D
:1019C00050E00E94B6398CE3809F802D1124281BA3
:1019D0002C834DB75EB7485050400FB6F8945EBFA9
:1019E0000FBE4DBFEDB7FEB73196ADB7BEB712967D
:1019F000FC92EE9211978BEA91E0938382830483A9
:101A00001582268317820E948134EDB7FEB738967F
:101A10000FB6F894FEBF0FBEEDBF8AEE93E06CE503
:101A200070E048E150E00E94A6298AEE93E061E070
:101A30000E94AC298AEE93E061E070E00E94B22936
:101A40008AEE93E0B7010E948B228AEE93E062E077
:101A500070E040E050E00E94A6298AEE93E062E048
:101A60000E94AC2980919B01863549F48AEE93E06F
:101A700060E070E041E050E00E94B82906C08AEEC4
:101A800093E061E070E00E94B22900D000D01FEB2B
:101A9000E12E15E0F12EADB7BEB71296FC92EE9294
:101AA000119786EA91E014969C938E9313970E9467
:101AB00081340F900F900F900F908AEE93E0B70152
:101AC0000E946B22C301B2010E94DD302B013C0158
:101AD00022EB35EC4CEF55E30E94F8319B01AC0151
:101AE00060E070E080E89FE30E94762F9B01AC01EC
:101AF000C301B2010E94443040E020E087010E940F
:101B0000CC328AEE93E0B7010E948B2280918B0445
:101B1000882379F48091F7059091F805009749F0B2
:101B20008AEE93E060E070E041E050E00E94B82966
:101B300006C08AEE93E061E070E00E94B2298AEE6E
:101B400093E061E00E94AC298091F404BFEBEB2E9E
:101B5000B5E0FB2E8823C9F48AEE93E06CE570E0D3
:101B600040E050E00E94A62900D000D0EDB7FEB7BB
:101B7000F282E1828FE991E0948383830E94813431
:101B80000F900F900F900F9027C08AEE93E064E7BC
:101B900070E040E050E00E94A62900D000D000D0C4
:101BA000EDB7FEB73196ADB7BEB71296FC92EE9286
:101BB000119789E191E09383828329A13AA135832A
:101BC00024830E945E344DB75EB74A5F5F4F0FB605
:101BD000F8945EBF0FBE4DBF8AEE93E0B7010E943E
:101BE0008B228AEE93E061E070E00E94B2298AEED7
:101BF00093E061E00E94AC298AEE93E062E070E03D
:101C000040E150E00E94A62980912B05882349F5E8
:101C1000C301B20120913F0530914005409141053B
:101C2000509142050E944430AFEBEA2EA5E0FA2E17
:101C300040E023E087010E94CC328AEE93E0B701B6
:101C40000E946B2200D000D0ADB7BEB71296FC92B6
:101C5000EE92119788E991E014969C938E931397D6
:101C600026C0813079F5C301B2012091430530913E
:101C7000440540914505509146050E94F831FFEB1F
:101C8000EF2EF5E0FF2E40E023E087010E94CC32EA
:101C90008AEE93E0B7010E946B2200D000D0EDB72E
:101CA000FEB7F282E18281E991E0948383830E940E
:101CB00081340F900F900F900F908AEE93E0B70150
:101CC0000E948B228091F7059091F805009709F406
:101CD00059C060911B0470911C0480911D04909167
:101CE0001E040E94DD3020E030E04AE754E40E9408
:101CF0004430EFEBEE2EE5E0FE2E40E021E08701E0
:101D00000E94CC328AEE93E061E070E00E94B2293A
:101D10008AEE93E061E00E94AC29F7010190002077
:101D2000E9F73197EE19FF09CF01880F991F8E0F40
:101D30009F1F880F991F64E770E0681B790B8AEE7C
:101D400093E040E150E00E94A6298AEE93E0B701BB
:101D50000E946B2200D000D0ADB7BEB71296FC92A5
:101D6000EE9211978EE891E014969C938E931397C0
:101D70000E9481340F900F900F900F908AEE93E0A5
:101D8000B7014DC08091F404882379F05BA14CA188
:101D90003DA12EA1652F742F832F922F40E020E0CC
:101DA0000FEB15E00E94CC3212C000D000D08FEBB8
:101DB00095E0EDB7FEB7928381838BE891E0948341
:101DC00083830E9481340F900F900F900F908AEEC2
:101DD00093E061E00E94AC290FEB15E0F80101905F
:101DE0000020E9F73197E01BF10BCF01880F991F15
:101DF0008E0F9F1F880F991F6AE770E0681B790B91
:101E00008AEE93E040E150E00E94A6298AEE93E03A
:101E1000B8010E946B228AEE93E06DE171E00E94AE
:101E20008B22A0C2813009F06DC28AEE93E060E09F
:101E300070E040E050E00E94A6298AEE93E061E065
:101E40000E94AC298AEE93E061E070E00E94B22922
:101E500080919B018635E1F400D000D00FEB15E0B6
:101E6000ADB7BEB712961C930E93119783E891E01D
:101E700014969C938E9313970E9481340F900F9029
:101E80000F900F908AEE93E0B8010E946B2260C021
:101E9000BFEBEB2EB5E0FB2EB9EE4B16B3E05B06C5
:101EA000B0E06B06B0E07B0690F100D000D0EDB75B
:101EB000FEB7F282E1828EE791E0948383830E94F1
:101EC00081340F900F900F900F908AEE93E0B7013E
:101ED0000E946B22C301B20128EE33E040E050E0E3
:101EE0000E94B639CA01B9010E94DD3040E021E00C
:101EF00087010E94CC328AEE93E0B7010E946B22E8
:101F00008AEE93E06FE171E00E948B2221C000D045
:101F100000D0ADB7BEB71296FC92EE92119789E74A
:101F200091E014969C938E9313970E9481340F90A6
:101F30000F900F900F908AEE93E0B7010E946B22F2
:101F40008AEE93E0B301A2012AE030E00E94072369
:101F50008AEE93E061E070E00E94B2298AEE93E09D
:101F600061E00E94AC298AEE93E060E070E048E016
:101F700050E00E94A62900D000D0AFEBEA2EA5E0E9
:101F8000FA2EEDB7FEB7F282E18285E791E0948305
:101F900083830E9481340F900F900F900F908AEEF0
:101FA00093E0B7010E946B22C301B2010E94DD30B1
:101FB00020913F05309140054091410550914205E7
:101FC0000E94443040E022E087010E94CC328AEE39
:101FD00093E0B7010E946B2200D000D0ADB7BEB72E
:101FE0001296FC92EE9211978FE691E014969C93D4
:101FF0008E9313970E9481340F900F900F900F9043
:102000008AEE93E0B7010E946B228AEE93E061E0D2
:1020100070E00E94B2298AEE93E061E00E94AC2950
:102020008AEE93E060E070E040E150E00E94A62973
:1020300000D000D0EDB7FEB7F282E1828BE691E0EE
:10204000948383830E9481340F900F900F900F90A0
:102050008AEE93E0B7010E946B2260916504709153
:10206000660480916704909168040E94DD3020919D
:102070003F053091400540914105509142050E9435
:10208000443040E022E00E94CC328AEE93E0B70177
:102090000E946B2200D000D0ADB7BEB71296FC9262
:1020A000EE92119785E691E014969C938E93139788
:1020B0000E9481340F900F900F900F908AEE93E062
:1020C000B7010E946B228AEE93E061E070E00E940B
:1020D000B2298AEE93E061E00E94AC298AEE93E097
:1020E00060E070E048E150E00E94A62900D000D0F6
:1020F000EDB7FEB7F282E18281E691E094838383BB
:102100000E9481340F900F900F900F908AEE93E011
:10211000B7010E946B22609157057091580580911C
:10212000590590915A050E94DD305B016C01609168
:1021300053057091540580915505909156050E9464
:10214000DD302B013C01C601B50120E030E040E765
:1021500052E40E9444309B01AC01C301B2010E94D1
:10216000443020913F053091400540914105509108
:1021700042050E9444302B013C01C601B50120E01C
:1021800030E041E655E40E9444309B01AC01C301BC
:10219000B2010E94F83140E022E00E94CC328AEE87
:1021A00093E0B7010E946B2200D000D0ADB7BEB75C
:1021B0001296FC92EE9211978DE591E014969C9305
:1021C0008E9313970E9481340F900F900F900F9071
:1021D0008AEE93E0B7010E946B2285E10E94801F86
:1021E000FC01BF01882777FD8095982F0E94DF3082
:1021F00026E636E646E65FE30E94F83120E030E06E
:1022000040E450E40E94F83120E030E040E850E43F
:102210000E94F83120E030E040E051E40E94F831C3
:102220002AE939E949E850E40E9444300E94AC3080
:10223000A62E872E8AEE93E064E770E048E150E036
:102240002CE030E007E010E0F1E0EF2EF12C0E94EE
:1022500086272A2D382D2930310514F028E030E06A
:102260008AEE93E066E770E04AE150E003E010E0B8
:10227000E1E0EE2EF12C0E940F282DB73EB72C5036
:1022800030400FB6F8943EBF0FBE2DBFEDB7FEB77E
:1022900031960FEB15E0ADB7BEB712961C930E93B7
:1022A000119789E491E0938382838A8184831582E4
:1022B0008981868317828B81808711868C818287B2
:1022C00013860E948134EDB7FEB73C960FB6F894A2
:1022D000FEBF0FBEEDBF8AEE93E06CE370E040E01E
:1022E00050E00E94A6298AEE93E061E00E94AC29AA
:1022F0008AEE93E061E070E00E94B2298AEE93E0FA
:10230000B8018DCD8AEE93E062E070E040E050E0ED
:102310000E94A6298AEE93E062E00E94AC298AEE30
:1023200093E060E070E041E050E00E94B82900D006
:1023300000D00FEB15E0ADB7BEB712961C930E930D
:1023400011978CE391E014969C938E9313970E94BF
:1023500081340F900F900F900F908AEE93E0B801A8
:102360000E946B228AEE93E00E94F42B8091F70585
:102370009091F80521E030E0822793279093F805AB
:102380008093F70580912C04882309F0F5C08CED2B
:1023900097E098878F831E821D821C821B821A827F
:1023A00019828CE894E0BE01695F7F4FAE014A5FFD
:1023B0005F4F9E012B5F3F4F8E010C5F1F4FB3E0BD
:1023C000EB2EF12CEC0EFD1EA2E0CA2ED12CCC0E71
:1023D000DD1E5E010894A11CB11CF9E08F2E912C2A
:1023E0008C0E9D1E0E94EF1C89859A85AB85BC854D
:1023F0008F3FEFEF9E07EFEFAE07EFEFBE0709F459
:10240000BBC02DB73EB72A5030400FB6F8943EBF40
:102410000FBE2DBFEDB7FEB731968FE194E0ADB79B
:10242000BEB712969C938E93119788E292E09383A5
:10243000828380913C0590913D05958384838E81B4
:10244000868317828D81808711860E94813481E086
:1024500080932C04EDB7FEB73A960FB6F894FEBF02
:102460000FBEEDBF8FE694E00E94EB23A8958FE6A8
:1024700094E061E271E00E946B228FE694E06FE1EC
:1024800074E00E946B228FE694E06DE00E9473245A
:1024900080E00E944305882391F48CE060E00E9474
:1024A0000C2064E670E080E090E00E941E1F8CE04B
:1024B00061E00E940C2081E00E944305D7CF00D04C
:1024C00000D0EFEBEE2EE5E0FE2EADB7BEB71296D4
:1024D000FC92EE92119788E291E014969C938E9371
:1024E00013970E9481340F900F900F900F908FE6FA
:1024F00094E0B7010E946B2200D000D0EDB7FEB788
:10250000F282E18282E291E0948383830E948134AB
:102510000F900F900F900F908FE694E0B7010E94FC
:102520006B2200D000D0ADB7BEB71296FC92EE92EF
:1025300011978FE091E014969C938E9313970E94CD
:1025400081340F900F900F900F908FE694E0B701B9
:102550000E946B2260913F0570914005809141057A
:102560009091420540E021E087010E94CC328FE645
:1025700094E0B7010E948B228CE996E06BE575E050
:102580000E948B2280912C04882389F08FE694E0AE
:102590000E94EB238FE694E06BE575E00E948B22AE
:1025A00006C0AA2011F40C94CA080C94CE08AB966D
:1025B0000FB6F894DEBF0FBECDBFCF91DF911F9154
:1025C0000F91FF90EF90DF90CF90BF90AF909F90D2
:1025D0008F907F906F905F904F903F902F900895D5
:1025E00081E090E00E940005089580E090E00E9464
:1025F000000508958091030690910406A0910506B8
:10260000B09106060196A11DB11D8093030690931B
:102610000406A0930506B093060608958093F90575
:102620009093FA054093FF055093000660930106CE
:10263000709302061092030610920406109205068B
:10264000109206066AEF72E143E050E00E941C1E01
:1026500008950E94EA1E6093FB057093FC05809329
:10266000FD059093FE051092030610920406109249
:102670000506109206060895EF92FF920F931F939E
:102680000E94EA1E2091FB053091FC054091FD055A
:102690005091FE05E090FF05F090000600910106C4
:1026A00010910206621773078407950760F0621B9A
:1026B000730B840B950BE1E0F0E06E157F0580074E
:1026C000910790F40FC02095309540955095260FB6
:1026D000371F481F591FE1E0F0E02E153F05400766
:1026E000510710F4E0E0F0E0CF011F910F91FF904F
:1026F000EF9008956091030670910406809105069D
:10270000909106060895EF92FF920F931F93FC019C
:1027100071836083538342833583248317830683C5
:10272000F186E0861F910F91FF90EF900895EF9250
:10273000FF920F931F93CF93DF939C018B018DE248
:10274000E82EF12CE60EF71E01C09E01E90121964C
:102750008FE397E0B9010E94A926F80181938F01C8
:10276000EE15FF0591F78DE290E0DF91CF911F917B
:102770000F91FF90EF900895EF92FF920F931F93A8
:10278000CF93DF939C01EB019DE2E92EF12CE60E45
:10279000F71E01C0980189010F5F1F4F49918FE318
:1027A00097E0B9010E94AD26CE15DF0599F78DE2BD
:1027B00090E0DF91CF911F910F91FF90EF900895DE
:1027C0008F929F92AF92BF92CF92DF92EF92FF9241
:1027D0000F931F93CF93DF93EC018B018881998135
:1027E0000E94EB232DB73EB7285030400FB6F89427
:1027F0003EBF0FBE2DBFEDB7FEB731968E819F81D4
:10280000ADB7BEB712969C938E93119782EB92E070
:102810009383828315830483888599859783868330
:102820000E948134EDB7FEB738960FB6F894FEBF1C
:102830000FBEEDBF6E817F81888199810E946B22DE
:1028400088819981DC01ED91FC910190F081E02D6E
:102850006DE0099588819981DC01ED91FC910480FE
:10286000F581E02D09950097A9F388819981DC0114
:10287000ED91FC910680F781E02D09958D30910551
:1028800049F7488559858E819F8160E070E00E94FC
:102890003F3400E010E0992488819981DC01ED91BA
:1028A000FC910480F581E02D0995009791F00E814F
:1028B0001F81090D111D88819981DC01ED91FC9129
:1028C0000680F781E02D0995F8018083939400E05C
:1028D00010E061E070E080E090E00E941E1F292D72
:1028E00030E0888599852817390731F00F5F1F4F31
:1028F000F3E0083E1F0784F2CC24DD2458E0852E47
:10290000A5C18E819F81FC01EC0DF11D60E008C026
:102910006F5F4C2D50E0288539854217530739F0F9
:10292000DC01AC0DB11D2C91C3942A3089F7DF0175
:10293000A60FB11D1C928081882309F487C18332C0
:1029400009F484C1633008F481C180E07F01E80E9E
:10295000F11CD7019C91903211F0993051F48F5FA6
:102960008617A1F773C1903211F0993009F41C92C7
:102970008F5F861709F46AC1DF01A80FB11D9C9112
:102980009D3389F7861709F461C11C928F5F8F010F
:10299000080F111DD8019C91903211F0993021F44B
:1029A0008F5F8617A1F752C1861709F44FC1C7017F
:1029B00069E271E00E944634009761F5C8010E9407
:1029C0002134FC01BF01882777FD8095982F0E9454
:1029D000DF307B01B82EA92E0A811B81D8015996C0
:1029E0006D917D918D919C915C97F5012E2D3F2DE0
:1029F0004F2F5E2F0E943D30882309F427C1950197
:102A00008E2D9F2DA32FB22FF801818F928FA38F30
:102A1000B48F32C0C7016EE271E00E944634009765
:102A200071F5C8010E9421349C01B901882777FD06
:102A30008095982F0E94DF307B01B82EA92E0A8145
:102A40001B81D8015D966D917D918D919C919097A0
:102A5000F5012E2D3F2D4F2F5E2F0E943D308823F4
:102A600009F4F4C095018E2D9F2DA32FB22FF801EC
:102A7000858F968FA78FB0A3DD24D394E7C0C701BD
:102A800063E371E00E944634009791F4EA80FB8092
:102A900026E030E0E20EF31EC701B8010E94463482
:102AA000009709F4D3C0C701B8010E944F34E4CFA6
:102AB000C70166E371E00E9446340097A1F4EA8002
:102AC000FB80C8010E9421349C01D70156968D914C
:102AD0009C9157978217930709F4B8C057963C9377
:102AE0002E935697C9CFC7016AE371E00E9446341E
:102AF000009771F4EA80FB80C8010E942134F7013D
:102B0000248130E02817390709F4A0C08483B4CFAA
:102B1000C7016DE371E00E944634009791F4EA80AA
:102B2000FB80C8010E942134D70115962C9115977E
:102B300030E02817390709F489C015968C9315974A
:102B40009BCFC70160E471E00E944634009771F4A6
:102B5000EA80FB80C8010E942134F70123A130E004
:102B60002817390709F472C083A386CFC70163E42D
:102B700071E00E944634009791F4EA80FB80C8011E
:102B80000E942134D70198962C91989730E028170D
:102B9000390709F45BC098968C9398976DCFC7015D
:102BA00066E471E00E944634009771F4EA80FB808D
:102BB000C8010E942134F70121A530E02817390708
:102BC00009F444C081A758CFC70169E471E00E94AD
:102BD0004634009799F4EA80FB80C8010E942134B2
:102BE0009C01D7019A968D919C919B978217930790
:102BF00069F19B963C932E939A973ECFC7016CE464
:102C000071E00E944634009769F4EA80FB80C801B5
:102C10000E942134F70124A530E028173907B1F0CC
:102C200084A72ACFC7016FE471E00E944634009761
:102C300069F4EC81FD81DF01282D1D922A95E9F7C9
:102C40006C817D8188EC90E00E944B08C91408F4E7
:102C500058CEDD2031F06A817B8184EF91E00E94C3
:102C6000BC13DF91CF911F910F91FF90EF90DF90F8
:102C7000CF90BF90AF909F908F9008951F93CF9368
:102C8000DF93EC011DE2EA81FB81DF01412F1D9200
:102C90004A95E9F76A817B8184EF91E00E9497135E
:102CA0002A813B81F90180819181A281B3818D309C
:102CB000F0EF9F07FEEFAF07FAE5BF07C1F1D901BB
:102CC0001D921A95E9F7EA81FB818DE090EFAEEF56
:102CD000BAE580839183A283B38382ED90E0978BE2
:102CE000868B8CE0808F6A817B8180E090E0A7EA10
:102CF000B3E4FB01818F928FA38FB48F80E090E0CB
:102D0000A4E1B2E4858F968FA78FB0A384EF91E002
:102D10000E94BC13EC81FD8188E0DF011D928A9541
:102D2000E9F76C817D8188EC90E00E944B08DF918F
:102D3000CF911F910895EF92FF920F931F93FC0183
:102D4000EE24EA94FE2C8701E082F1820283138351
:102D500010861186128613862FEF39EC4AE95BE361
:102D6000208B318B428B538B208F318F428F538F2F
:102D700020A331A342A353A320A731A742A753A75F
:102D800020AB31AB42AB53ABE0AEF1AE02AF13AF11
:102D9000DC01A05CBF4F8FEF90E08D939C93DF012F
:102DA000AC5BBF4FED92FD920D931C931397DF0127
:102DB000A45BBF4FED92FD920D931C931397DF011F
:102DC000AC5ABF4F1C92DF01AB5ABF4F1C92DF01C0
:102DD000AB59BF4F82E08C93DF01AA59BF4F1C92C1
:102DE000DF01A959BF4F1C92DF01A859BF4F1C92A8
:102DF000DF01A659BF4F1D921D921D921C92139781
:102E0000DF01A259BF4F1D921C92DF01A059BF4F95
:102E10001D921C92DF01AA5ABF4F1C92E759FF4F27
:102E200060831F910F91FF90EF900895862F81543A
:102E3000863020F470E0675370400AC0862F8156B8
:102E400070E0863018F46755704002C060537040DF
:102E5000CB0108951F93CF93DF93C62FD72F20E088
:102E600030E0A90114C0CA01B9012AE030E040E015
:102E700050E00E947039212F30E040E050E02053B4
:102E8000304040405040260F371F481F591F1991AE
:102E9000812F80538A3038F3B901CA01DF91CF9175
:102EA0001F9108952F923F924F925F926F927F925F
:102EB0008F929F92AF92BF92CF92DF92EF92FF924A
:102EC0000F931F93CF93DF938C010A5A1F4FB801C2
:102ED0000E942A17EB01D82EC92EF8013F018191DB
:102EE000982F90539A30D0F38E3289F50894611C54
:102EF000711C90E1E92E97E2F92E012D112D882405
:102F0000992454018AE0282E312C412C512C17C0D1
:102F100030E020533040442737FD4095542FC801FE
:102F2000B7010E947039860E971EA81EB91EC801EF
:102F3000B701A20191010E94B63979018A01F3011A
:102F400021913F01822F80538A3010F303C08824DF
:102F500099245401BE018D2D9C2D20EA36E841E0D4
:102F600050E00E9470399B01AC01280D391D4A1DAB
:102F70005B1DB901CA01DF91CF911F910F91FF90A5
:102F8000EF90DF90CF90BF90AF909F908F907F9009
:102F90006F905F904F903F902F9008952F923F92A7
:102FA0004F925F926F927F928F929F92AF92BF9259
:102FB000CF92DF92EF92FF920F931F93CF93DF9305
:102FC00046E5C42ED12CC80ED91EB6010E942A1780
:102FD000162F072FD82FC92F24E630E040E050E00D
:102FE0000E94B63920EA36E841E050E00E9470398C
:102FF0004B015C01F6013F018191982F90539A306B
:10300000D0F38E3269F50894611C711C30E1C32E37
:1030100037E2D32EE12CF12C2AE0222E312C412C48
:10302000512C17C030E020533040442737FD4095E5
:10303000542FC701B6010E947039860E971EA81E34
:10304000B91EC701B601A20191010E94B6396901FA
:103050007A01F30121913F01822F80538A3010F3CE
:10306000C501B4016B5F7F4F8F4F9F4F26E030E06B
:1030700040E050E00E94B63969017A01612F702F5B
:103080008D2F9C2F24E630E040E050E00E94B639BE
:10309000CA01B90120E432E44FE050E00E947039E7
:1030A000C60ED71EE81EF91EB601C701DF91CF91EB
:1030B0001F910F91FF90EF90DF90CF90BF90AF9056
:1030C0009F908F907F906F905F904F903F902F9048
:1030D00008951F93CF93DF93EC01CA5ADF4F11E09D
:1030E00028812D3211F010E003C0EC01C95ADF4FE6
:1030F000BE010E942A1724E630E040E050E00E9422
:1031000070399B01AC01FE018991982F90539A3040
:10311000D0F38E3211F58181982F90539A30E8F4D4
:103120009AE0899FC0011124805E9140AA2797FDF3
:10313000A095BA2F280F391F4A1F5B1F8281982F35
:1031400090539A3050F490E0C097AA2797FDA0952D
:10315000BA2F280F391F4A1F5B1F112339F05095D2
:103160004095309521953F4F4F4F5F4FB901CA01B0
:10317000DF91CF911F910895862F972FDC01842F27
:10318000952FFC018D91882319F091918917D1F326
:1031900090E008950F931F93CF93DF938C01FC0170
:1031A000EB5AFF4F8081882309F4F2C0F801EA5AF4
:1031B000FF4FC80160810E941617C82FF801E95A15
:1031C000FF4FC80160810E941617C295C07FC80FCB
:1031D000F801EC5AFF4F8081C81709F0D0C0F80100
:1031E000E859FF4F8081882309F495C0F801E2591E
:1031F000FF4F80819181019691838083F801EC5B80
:10320000FF4FD801A85BBF4F8D919D910D90BC9150
:10321000A02D80839183A283B383F801E45BFF4FE9
:10322000D801A05BBF4F8D919D910D90BC91A02DB9
:1032300080839183A283B383F801EB59FF4F808190
:103240008823A9F1813009F09DC1F801848195811D
:10325000A681B78180839183A283B383848595857A
:10326000A685B78580879187A287B387848995894A
:10327000A689B789808B918BA28BB38B848D958D1A
:10328000A68DB78D808F918FA28FB38F84A595A5C2
:10329000A6A5B7A580A791A7A2A7B3A784A995A91A
:1032A000A6A9B7A980AB91ABA2ABB3AB6BC1F80138
:1032B00084A195A1A6A1B7A180A391A3A2A3B3A322
:1032C00084819581A681B78180839183A283B38312
:1032D00084899589A689B789808B918BA28BB38BC2
:1032E000848D958DA68DB78D808F918FA28FB38F92
:1032F000E05CFF4FD801AE5BBF4F8D919C919183F5
:103300008083F80184AD95ADA6ADB7AD80AF91AF28
:10331000A2AFB3AF37C1F80184819581A681B7818F
:103320000097A105B10509F42FC1EC5BFF4FE8013F
:10333000C85BDF4F288139814A815B8120833183DB
:1033400042835383F801EB59FF4F2081222389F0F8
:10335000213009F019C1F80180839183A283B383DE
:1033600084859585A685B78580879187A287B38751
:103370000BC1F80180839183A283B38305C1F80157
:10338000E059FF4F80819181019691838083FCC039
:10339000F801EA59FF4F80818823F9F4E801CA5AFD
:1033A000DF4FC801BE0144E551E00E94BC18009700
:1033B00029F4F801EB59FF4F81E0C5C0C801BE01F7
:1033C0004AE551E00E94BC18F801EB59FF4F009705
:1033D00011F41082D9C082E0B6C0F801EB59FF4F5A
:1033E000E081E23009F4D0C0D801AA5ABF4F2C9135
:1033F000222309F4C9C0F0E055E0EE0FFF1F5A95F3
:10340000E1F790E0E82BF92B3197E932F10508F06C
:10341000BBC0EC5CFF4FEE0FFF1F0590F491E02D59
:103420000994C8010E946918F80164837583868332
:1034300097830E94EA1EF801E85BFF4F1FC0F80166
:10344000E859FF4F81E0213409F07CC07CC0F801CD
:10345000E759FF4F8081882321F0C8010E9452174D
:1034600003C0C8010E94CE17F801648B758B868B50
:10347000978B0E94EA1EF801E05BFF4F6083718327
:103480008283938381C0233509F07EC0F80184894B
:103490009589A689B789B095A095909581959F4FFC
:1034A000AF4FBF4F848B958BA68BB78B6DC0F80148
:1034B000E759FF4F8081882321F0C8010E945217ED
:1034C00003C0C8010E94CE17F801648F758F868FE4
:1034D000978F5AC0273509F057C0F801848D958D14
:1034E000A68DB78DB095A095909581959F4FAF4FC4
:1034F000BF4F848F958FA68FB78F46C0C8010E949B
:103500006918F80164A775A786A797A73DC0C801E9
:103510000E946918F80164AB75AB86AB97AB34C0F9
:10352000B8016A5A7F4FC8010E942A17F8016487C0
:1035300075878687978728C0F801E859FF4F81E093
:10354000213308F480E080831FC0C8018A5A9F4F4E
:103550000E942134F801EE5BFF4F8083118214C07A
:10356000C8010E946918F80164AF75AF86AF97AFC4
:103570000BC0C8010E946918F80164A375A386A353
:1035800097A302C081E001C080E0DF91CF911F913D
:103590000F9108950F931F93DF93CF930F92CDB7A1
:1035A000DEB78C01FC01E659FF4F80819181A28139
:1035B000B3810196A11DB11D80839183A283B38342
:1035C0006432C9F1F801E959FF4F653230F46A30CD
:1035D00079F06D3009F049C00BC06A3249F06C32A5
:1035E00009F043C0D801AC5ABF4F8C9186278C9309
:1035F00080818F3060F4F801E80FF11DEA5AFF4F27
:103600001082C80169830E94CA18698101C080E0E4
:10361000F801EA59FF4F90819F5F9083F801E959C3
:10362000FF4F1082F801EB5AFF4F91E06A3209F028
:1036300090E0908332C0F801E959FF4F1082F80101
:10364000EA59FF4F1082F801EC5AFF4F1082F8013F
:10365000EB59FF4F82E08083F801EB5AFF4F108255
:10366000F801E859FF4F108217C080818E3040F476
:10367000D801A80FB11DAA5ABF4F6C938F5F8083EA
:10368000F801EB5AFF4F8081882331F4F801EC5A9E
:10369000FF4F80818627808380E00F90CF91DF915C
:1036A0001F910F9108952F923F924F925F926F92C8
:1036B0007F928F929F92AF92BF92CF92DF92EF92C2
:1036C000FF920F931F93DF93CF93CDB7DEB7609731
:1036D0000FB6F894DEBF0FBECDBF1B012C01CA018F
:1036E000B90137014801A60195010E94762F25E313
:1036F0003AEF4EE85CE30E94F831A62EE72E6C010B
:10370000762F272F3E2D4C2D5D2DCA01B9010E9429
:103710005B326D877E878F87988B6A2D7E2D8C2DEF
:103720009D2D0E94413069837A838B839C83C201E3
:10373000B10125E33AEF4EE85CE30E94F831162F21
:10374000272EA82EE92EC401B30125E33AEF4EE857
:103750005CE30E94F831962EB72E6C01612F722D1A
:103760008A2D9E2D0E945B326D837E838F83988786
:10377000612F722D8A2D9E2D0E94413069877A8794
:103780008B879C87692D7B2D8C2D9D2D0E945B3214
:103790001B012C01692D7B2D8C2D9D2D0E9441300C
:1037A0007B018C0169857A858B859C85A2019101BD
:1037B0000E94F8315B016C016D817E818F8198855B
:1037C000A80197010E94F83129813A814B815C81DF
:1037D0000E94F8319B01AC01C601B5010E94762F11
:1037E0006B015C01762F272F3D2D4A2D5B2DCA01E1
:1037F000B9010E94F831A62E872EB82E992EC80145
:10380000B7012D853E854F8558890E94F8316B019F
:103810003C01762F272F3D2D462D572DCA01B9018A
:103820000E94F8319B01AC016A2D782D8B2D992DCA
:103830000E94772F0E9465323B014C016D817E8191
:103840008F819885A20191010E94F8315B016C0182
:1038500069857A858B859C85A80197010E94F8313E
:1038600029813A814B815C810E94F8319B01AC0136
:10387000C601B5010E94772F9B01AC01C401B301C1
:103880000E94EA2F26E73BE742EC5AE40E94F83117
:1038900060960FB6F894DEBF0FBECDBFCF91DF911B
:1038A0001F910F91FF90EF90DF90CF90BF90AF905E
:1038B0009F908F907F906F905F904F903F902F9050
:1038C00008950F931F93CF93DF93EC018901611546
:1038D000710549F088899989AA89BB89FB01808390
:1038E0009183A283B3834115510549F0888D998D49
:1038F000AA8DBB8DFA0180839183A283B3830115C6
:10390000110509F1C45BDF4F88819981AA81BB81D0
:103910008F3FFFEF9F07FFEFAF07FFEFBF0759F0A4
:103920000E94EA1E288139814A815B81621B730BE8
:10393000840B950B03C06FEF7FEFCB01F801608321
:10394000718382839383DF91CF911F910F910895AB
:103950000F931F93CF93DF93EC01890161157105DC
:1039600049F088859985AA85BB85FB018083918371
:10397000A283B3834115510549F088819981AA81B9
:10398000BB81FA0180839183A283B3830115110562
:1039900009F1CC5BDF4F88819981AA81BB818F3F80
:1039A000FFEF9F07FFEFAF07FFEFBF0759F00E9440
:1039B000EA1E288139814A815B81621B730B840B6B
:1039C000950B03C06FEF7FEFCB01F801608371832C
:1039D00082839383DF91CF911F910F9108952F924E
:1039E0003F924F925F926F927F928F929F92AF928F
:1039F000BF92CF92DF92EF92FF920F931F93DF93CC
:103A0000CF93CDB7DEB72C970FB6F894DEBF0FBEBD
:103A1000CDBF3B015A8749873C872B871801270177
:103A20009401BE016F5F7F4FAE014B5F5F4F0E94FD
:103A3000A81C61147104B9F069817A818B819C8121
:103A400024E630E040E050E00E94B639613571056F
:103A50001CF08CE697E002C080ED97E0680F791FBC
:103A6000F3017183608389859A850097B1F069813C
:103A70007A818B819C81F4E6EF2EF12C012D112DA2
:103A8000A80197010E94B639CA01B901A80197019E
:103A90000E94B639E985FA8560838B859C850097FD
:103AA00069F069817A818B819C8120E137E240E075
:103AB00050E00E94B639EB85FC8520832114310447
:103AC00061F06D817E818F81988520E432E44FE042
:103AD00050E00E94B639F101208341145104A1F055
:103AE0006D817E818F81988520E137E240E050E052
:103AF0000E94B639CA01B90124E630E040E050E046
:103B00000E94B639F2016083C114D104A9F06D811D
:103B10007E818F819885E4E6EE2EF12C012D112D0A
:103B2000A80197010E94B639CA01B901A8019701FD
:103B30000E94B639F6016083A114B10461F06D8171
:103B40007E818F81988524E630E040E050E00E943D
:103B5000B639F50160832C960FB6F894DEBF0FBE20
:103B6000CDBFCF91DF911F910F91FF90EF90DF902C
:103B7000CF90BF90AF909F908F907F906F905F900D
:103B80004F903F902F900895FC0160A171A182A1F8
:103B900093A16F3FF9EC7F07FAE98F07FBE39F07DB
:103BA00049F00E94DF3020E030E048EC52E40E940F
:103BB000443004C060E074E284E799E40895FC01B5
:103BC00060A571A582A593A56F3FF9EC7F07FAE97F
:103BD0008F07FBE39F0749F00E94DD3020E030E0D3
:103BE00048EC52E40E94443004C060E070E080E899
:103BF0009FEB0895EF92FF920F931F930E94DF1D9A
:103C00007B018C0120E030E040E85FEB0E943D301A
:103C1000882349F0C801B70126E53EE04DEE5FE399
:103C20000E94F83104C060E070E080E89FEB1F91D3
:103C30000F91FF90EF9008958230E8F4E82FF0E0C4
:103C4000EE0FFF1FE95FF94F71836083813041F010
:103C5000809169008C7F842B80936900E89A089595
:103C600080916900440F551F440F551F837F842B9B
:103C700080936900E99A08951F920F920FB60F92F0
:103C800011242F933F934F935F936F937F938F9361
:103C90009F93AF93BF93EF93FF938091070690910B
:103CA0000806009729F0E0910706F09108060995AB
:103CB000FF91EF91BF91AF919F918F917F916F9104
:103CC0005F914F913F912F910F900FBE0F901F90DA
:103CD00018951F920F920FB60F9211242F933F93B6
:103CE0004F935F936F937F938F939F93AF93BF9304
:103CF000EF93FF938091090690910A06009729F0AF
:103D0000E0910906F0910A060995FF91EF91BF91A4
:103D1000AF919F918F917F916F915F914F913F9163
:103D20002F910F900FBE0F901F9018951F920F921A
:103D30000FB60F9211242F933F934F935F936F937E
:103D40007F938F939F93AF93BF9320910F063091F2
:103D50001006409111065091120670911306DA0177
:103D6000C9010296A11DB11D672F6A5F6D3730F042
:103D70006D57DA01C9010396A11DB11D60931306A9
:103D800080930F0690931006A0931106B09312062D
:103D900080910B0690910C06A0910D06B0910E0635
:103DA0000196A11DB11D80930B0690930C06A09364
:103DB0000D06B0930E06BF91AF919F918F917F91A9
:103DC0006F915F914F913F912F910F900FBE0F9088
:103DD0001F9018958FB7F89420910F063091100618
:103DE00040911106509112068FBFB901CA01089582
:103DF0009FB7F89420910B0630910C0640910D0668
:103E000050910E0686B5A89B06C08F3F21F02F5F0C
:103E10003F4F4F4F5F4F9FBF542F432F322F2227CB
:103E2000280F311D411D511D83E0220F331F441FF8
:103E3000551F8A95D1F7B901CA010895EF92FF92F3
:103E40000F931F93CF93DF937B018C010E94F81E89
:103E5000EB010FC00E94F81E6C1B7D0B83E0683ED7
:103E6000780738F00894E108F10801091109C851F0
:103E7000DC4FE114F1040105110561F7DF91CF91E9
:103E80001F910F91FF90EF900895789484B5826010
:103E900084BD84B5816084BD85B5826085BD85B5EE
:103EA000816085BDEEE6F0E0808181608083E1E89D
:103EB000F0E01082808182608083808181608083D5
:103EC000E0E8F0E0808181608083E1EBF0E08081D8
:103ED00084608083E0EBF0E0808181608083EAE7AA
:103EE000F0E0808184608083808182608083808133
:103EF000816080838081806880831092C1000895F2
:103F00008E3008F08E50877090919D019295990F98
:103F1000990F907C982B90937C0080917A0080641C
:103F200080937A0080917A0086FDFCCF2091780002
:103F300030917900932F80E030E0282B392BC90194
:103F40000895833071F0843028F48130A1F08230FC
:103F500021F514C08630B1F08730D1F08430E9F417
:103F600004C0809180008F7703C0809180008F7D96
:103F700080938000089584B58F7702C084B58F7DCB
:103F800084BD08958091B0008F778093B00008952C
:103F90008091B0008F7D8093B0000895CF93DF9320
:103FA00090E0FC01EF50FD4F449183529D4FFC0186
:103FB0008491882371F190E0880F991FFC01E154EE
:103FC000FD4F25913491D90187539D4FFC012591D7
:103FD0003491C22FD32F662349F49FB7F8948C9164
:103FE000409584238C93888184230BC0623059F4DC
:103FF0009FB7F8948C91242F209582238C938881ED
:10400000842B888305C09FB7F8948C91842B8C9364
:104010009FBFDF91CF9108950F931F93DF93CF93AD
:104020000F92CDB7DEB7282F30E0F901EB5FFC4FE0
:104030008491F901EF50FD4F149123523D4FF90146
:1040400004910023D9F0882321F069830E94A11FE5
:104050006981E02FF0E0EE0FFF1FE753FD4F8591E0
:104060009491DC019FB7F894662321F48C9110950C
:10407000812302C08C91812B8C939FBF0F90CF9195
:10408000DF911F910F910895FC0184859585FC01B6
:10409000E05CFF4F208131818E5B9F4FFC0180816E
:1040A0009181281B390B2F733070C9010895FC01D1
:1040B00084859585FC01E05CFF4F40815181FC01C6
:1040C000EE5BFF4F208131814217530741F0019091
:1040D000F081E02DE80FF91F208130E002C02FEFC2
:1040E0003FEFC9010895FC0184859585FC01E05CE2
:1040F000FF4F40815181FC01EE5BFF4F20813181F8
:104100004217530771F0A081B181A80FB91F2C91FC
:104110008081918101968F7390709183808330E0CC
:1041200002C02FEF3FEFC9010895DC011E968D916B
:104130009C911F97FC01E05CFF4F8E5B9F4F40817D
:104140005181DC012D913C91119742175307B9F72A
:104150000895FC0126853785D901A05CBF4F8D915C
:104160009C9101968F739070D901AE5BBF4F4D91BA
:104170005C91119784179507D1F3D901A05CBF4FCB
:104180000D90BC91A02DA20FB31F6C93A685B7858F
:10419000A05CBF4F11969C938E93A689B7892C91F2
:1041A00081E090E0058C02C0880F991F0A94E2F725
:1041B000282B2C9381E090E00895FB01E05CFF4FF9
:1041C000208131812F5F3F4F2F733070DB01AE5B59
:1041D000BF4F4D915C9111972417350739F0A0819D
:1041E000B181A60FB71F8C93318320830895089562
:1041F0001F920F920FB60F9211242F933F934F935C
:104200005F936F937F938F939F93AF93BF93EF933E
:10421000FF938091C60064E176E00E94DD20FF916B
:10422000EF91BF91AF919F918F917F916F915F912E
:104230004F913F912F910F900FBE0F901F901895A7
:104240008CE996E00E944420009711F00E94F7202C
:1042500008951F920F920FB60F9211242F933F9340
:104260008F939F93EF93FF93209198063091990637
:1042700080919A0690919B062817390731F4809116
:10428000C1008F7D8093C10014C0E0919A06F09127
:104290009B06E85AF94F208180919A0690919B06DF
:1042A00001968F73907090939B0680939A0620934B
:1042B000C600FF91EF919F918F913F912F910F90A9
:1042C0000FBE0F901F9018959F92AF92BF92CF9202
:1042D000DF92EF92FF920F931F93CF93DF93EC0146
:1042E0007A018B0199249394EC89FD8981E090E017
:1042F0000E8C02C0880F991F0A94E2F7808360E851
:1043000074E88EE190E0A80197010E94B63921502F
:10431000304040405040569547953795279590E45A
:10432000A92E92E4B92E9FE0C92ED12C12C0992457
:10433000EC89FD891082C601B501A80197010E9490
:10434000B6392150304040405040569547953795FA
:10435000279580E12030380710F0992041F7E8894F
:10436000F9893083EA89FB892083EE89FF894081BE
:1043700081E090E09C010A8C02C0220F331F0A9456
:10438000E2F7422B4083EE89FF8940819C010B8C30
:1043900002C0220F331F0A94E2F7422B4083EE89BA
:1043A000FF8940819C010C8C02C0220F331F0A94AC
:1043B000E2F7422B4083EE89FF8920810D8C02C0F9
:1043C000880F991F0A94E2F7809582238083DF91FA
:1043D000CF911F910F91FF90EF90DF90CF90BF9002
:1043E000AF909F90089510929F0610929E0688EEBF
:1043F00093E0A0E0B0E08093A0069093A106A09384
:10440000A206B093A306EEE9F6E086EA93E0929363
:10441000829384E196E09587848788E596E0978784
:10442000868785EC90E0918B808B84EC90E0938B79
:10443000828B80EC90E0958B848B81EC90E0978B65
:10444000868B86EC90E0918F808F84E0828F83E072
:10445000838F87E0848F85E0858F81E0868F089544
:10446000CF92DF92EF92FF920F931F93CF93DF9340
:104470006C017B018A01C0E0D0E00FC0D7016D91D3
:104480007D01D601ED91FC910190F081E02DC601F6
:104490000995C80FD91F015010400115110571F77A
:1044A000CE01DF91CF911F910F91FF90EF90DF90A0
:1044B000CF900895DB010D900020E9F7AD01415048
:1044C0005040461B570BDC01ED91FC910280F381BB
:1044D000E02D099508950E945A220895DC01ED917E
:1044E000FC910190F081E02D099508950F931F93A1
:1044F000CF93DF93EC016DE00E946E228C01CE0120
:104500006AE00E946E22080F191FC801DF91CF9147
:104510001F910F9108950F931F93CF93DF93EC0199
:104520000E945A228C01CE010E947622080F191F88
:10453000C801DF91CF911F910F9108958F929F92A3
:10454000AF92BF92CF92DF92EF92FF920F931F93A1
:10455000DF93CF93CDB7DEB7A1970FB6F894DEBF48
:104560000FBECDBF6C01042FE52FCB01122F19A276
:10457000223008F41AE021E2E22EF12CEC0EFD1EAE
:10458000812E9924AA24BB2403C0022FE32FCA0141
:10459000602F7E2FA50194010E94B639129F802DB5
:1045A0001124081B0894E108F1080A3010F4005D9A
:1045B00001C0095CF7010083211531054105510552
:1045C00021F7C601B7010E945A22A1960FB6F894AE
:1045D000DEBF0FBECDBFCF91DF911F910F91FF9036
:1045E000EF90DF90CF90BF90AF909F908F90089505
:1045F0002115310549F4DC01ED91FC910190F08128
:10460000E02D642F099508950E949E2208950F932E
:104610001F93CF93DF93EC010E94F8228C01CE010F
:104620000E947622080F191FC801DF91CF911F91B8
:104630000F910895CF92DF92EF92FF920F931F9305
:10464000CF93DF93EC017A018B012115310541F401
:10465000E881F9810190F081E02D642F09951AC05D
:104660002A303105A9F477FF12C06DE20E946E2254
:104670006C0144275527BA014E195F09600B710B75
:10468000CE012AE00E949E22C80ED91E04C02AE054
:104690000E949E226C01C601DF91CF911F910F9164
:1046A000FF90EF90DF90CF9008950F931F93CF93DB
:1046B000DF93EC019A01CB01AC01662757FD6095B1
:1046C000762FCE010E941A238C01CE010E94762201
:1046D000080F191FC801DF91CF911F910F91089505
:1046E000CF93DF930E94451F0E943706C0E2D1E2BC
:1046F0000E946F082097E1F30E942021F9CF2091BA
:10470000BB063091BC0628173907B1F490913E07DB
:1047100080913D07981781F0E0913E07F0E0E35467
:10472000F94F208180913E0790E001968F7790703D
:1047300080933E0730E002C02FEF3FEFC90108959C
:104740002091BB063091BC062817390779F4809177
:104750003D0720913E0790E080589F4F821B9109B2
:1047600060E870E00E94A3399C0102C020E030E0C4
:10477000C90108952091BB063091BC06281739075E
:1047800049F48FB7F89410923D0790913D079093AC
:104790003E078FBF08952091BB063091BC062817B5
:1047A000390771F490913E0780913D07981741F0C9
:1047B000E0913E07F0E0E354F94F208130E002C081
:1047C0002FEF3FEFC901089520E001972FEF8F3FB2
:1047D0009207D9F70895FC018091BB069091BC0621
:1047E0008E179F0791F0838D8E7F838F8FB7F894FC
:1047F00010923D0790913D0790933E07F093BC06C1
:10480000E093BB068FBF81E0089580E00895EF92AA
:10481000FF920F931F93CF93DF93EC018B8DEE8567
:10482000FF859D8581FF04C08081892329F445C0CF
:104830008081892309F041C08B899C890E94E423EF
:1048400008E010E0EE24E394FF248D899E890E9405
:10485000E423EE85FF8580819D85892311F0FE2864
:1048600003C08E2D8095F822EE0C0150104069F7A0
:104870008F89988D0E94E4238B8D81FDF094809127
:104880003D0720913E0790E001968F77907030E0D1
:104890008217930779F0E0913D07F0E0E354F94F78
:1048A000F08280913D0790E001968F779070809321
:1048B0003D0703C08B8D81608B8FDF91CF911F915E
:1048C0000F91FF90EF900895FC01A189B289908922
:1048D000662329F42C91892F8095822302C08C9124
:1048E000892B8C930895DF92EF92FF920F931F9381
:1048F000CF93DF93EC01E62E898D9A8D009739F4E2
:1049000081E090E09B838A8320E030E04BC0DFB6FB
:10491000F8948B8D61E081FF60E0CE010E946424F9
:10492000898D9A8D04960E94E4238B8D81FF19C096
:1049300008E010E0FF24F3948F2D8E2119F0CE01B2
:1049400060E002C0CE0161E00E946424898D9A8DEE
:104950000E94E423FF0C0150104071F7CE0160E08B
:1049600018C008E010E0FF24F3948F2D8E2119F079
:10497000CE0161E002C0CE0160E00E946424898D16
:104980009A8D0E94E423FF0C0150104071F7CE0174
:1049900061E00E946424DFBE898D9A8D0E94E42329
:1049A00021E030E0C901DF91CF911F910F91FF907D
:1049B000EF90DF9008958091BB069091BC06009720
:1049C00011F00E94072408951F920F920FB60F92C4
:1049D00011242F933F934F935F936F937F938F9304
:1049E0009F93AF93BF93EF93FF930E94DB24FF91BC
:1049F000EF91BF91AF919F918F917F916F915F9157
:104A00004F913F912F910F900FBE0F901F901895CF
:104A10001F920F920FB60F9211242F933F934F9333
:104A20005F936F937F938F939F93AF93BF93EF9316
:104A3000FF930E94DB24FF91EF91BF91AF919F9173
:104A40008F917F916F915F914F913F912F910F9037
:104A50000FBE0F901F9018951F920F920FB60F92D6
:104A600011242F933F934F935F936F937F938F9373
:104A70009F93AF93BF93EF93FF930E94DB24FF912B
:104A8000EF91BF91AF919F918F917F916F915F91C6
:104A90004F913F912F910F900FBE0F901F9018953F
:104AA0001F93CF93DF93EC01162F862F61E00E94B6
:104AB000CE1F812F61E00E940C20812F90E0FC012D
:104AC000EF50FD4FE491E88BFC01E352FD4FE49180
:104AD000F0E0EE0FFF1FE753FD4F85919491898B16
:104AE0009A8BDF91CF911F9108951F93CF93DF93FE
:104AF000EC01162F862F60E00E94CE1F8B8D81FD6A
:104B000004C0812F61E00E940C201C87812F90E05F
:104B1000FC01EF50FD4FE491ED87FC01E352FD4FA6
:104B2000E491F0E0EE0FFF1FED52FD4F859194915F
:104B30008E879F87DF91CF911F9108951F93CF9309
:104B4000DF93EC01162F1B821A8288EE93E0A0E01F
:104B5000B0E08C839D83AE83BF8386EB93E0998323
:104B600088831C8A1B8A1E8A1D8A188E1F8A1A8EA9
:104B7000198E8B8D2170220F8C7F822B8B8FCE0113
:104B8000642F0E945025CE01612F0E947525DF9170
:104B9000CF911F910895EF92FF920F931F93CF93A0
:104BA000DF93EC017A018B011A8E198E188E1F8A01
:104BB0001E8A1D8A1C8A1B8A40E050E09A01220F3F
:104BC000331F240F351F220F331F220F331FF9010C
:104BD000E75EFC4F85919591A591B4918E159F0547
:104BE000A007B107E9F4F901E35EFC4F85919491C8
:104BF0008B8B9C8BF901E15EFC4F859194918D8BA1
:104C00009E8BF901EF5DFC4F859194918F8B988F6E
:104C10002D5D3C4FF90185919491898F9A8F06C043
:104C20004F5F5F4F4C30510509F0C8CF8F89988D89
:104C3000009709F448C09C85963108F040C0209147
:104C40006800983020F09E3020F082E003C084E0BD
:104C500001C081E0822B809368004C85483048F089
:104C60004E3060F04631C8F1A0E0B0E0E0E0F0E0A6
:104C700009C0ADE6B0E0EDE6F0E004C0ABE6B0E0C0
:104C8000EBE6F0E05081483040F481E090E002C073
:104C9000880F991F4A95E2F710C0242F30E04E305C
:104CA00018F42850304002C02E50304081E090E08F
:104CB00002C0880F991F2A95E2F7852B8C93898D66
:104CC0009A8D0E94E423CE010E94EB23DF91CF91C5
:104CD0001F910F91FF90EF900895ACE6B0E0ECE6E5
:104CE000F0E0D0CFFC014485463150F5483028F043
:104CF0004E3030F0ECE6F0E005C0EDE6F0E002C04A
:104D0000EBE6F0E05081483040F481E090E002C0F2
:104D1000880F991F4A95E2F710C0242F30E04E30DB
:104D200018F42850304002C02E50304081E090E00E
:104D300002C0880F991F2A95E2F78095852380830A
:104D4000089526EB33E0FC01318320830E94722614
:104D50000895CB010E948B360895CB01642F0E94E9
:104D600093360895FC017583648371876087578348
:104D7000468353874287158A1586148617861686BA
:104D800021E0248B8FEF9FEF938B828B918B808B15
:104D9000268B08952F923F924F925F926F927F924F
:104DA0008F929F92AF92BF92CF92DF92EF92FF923B
:104DB0000F931F93DF93CF9300D000D0CDB7DEB712
:104DC0002C017C836B836A01590117019801241B14
:104DD000350B37FF03C0309521953F4FC5014B81FF
:104DE0005C81841B950B97FF03C0909581959F4F25
:104DF000E1E06E2E712C8217930714F0662477245D
:104E00006114710469F03A2D2B2D5801C901092F45
:104E1000182F3B812C81DC82CB82C901C92ED82E70
:104E20008B819C81A816B9066CF43C2D2D2D680150
:104E3000C901092F182F3B812C81BC82AB82C9018B
:104E4000A92EB82ED501EB81FC81AE1BBF0BBA8316
:104E5000A98348018C189D0897FE04C09094819402
:104E60009108939489819A8162E070E00E94A3394D
:104E70007B01C016D1061CF401E010E02BC00FEF3F
:104E80001FEF28C0D201ED91FC91119761147104BC
:104E900041F00480F581E02DC201B6014B815C81B7
:104EA00007C00480F581E02DC2016B817C81A601E1
:104EB00091010995E818F908F7FE06C0C00ED11E49
:104EC000E981FA81EE0EFF1E2B813C812F5F3F4F5F
:104ED0003C832B834B815C81A416B5069CF60F9016
:104EE0000F900F900F90CF91DF911F910F91FF9036
:104EF000EF90DF90CF90BF90AF909F908F907F907A
:104F00006F905F904F903F902F9008956F927F9297
:104F10008F929F92AF92BF92CF92DF92EF92FF92C9
:104F20000F931F93CF93DF93EC016B015A0139016B
:104F30004801E881F9810484F585E02D8701099510
:104F4000E881F981A50141505040480D591D048464
:104F5000F585E02DCE01B60193010995E881F9812F
:104F60000284F385E02DCE01B601A50194010995D7
:104F7000E881F981B60161507040660D771D0284A9
:104F8000F385E02DCE01A50194010995DF91CF9124
:104F90001F910F91FF90EF90DF90CF90BF90AF9057
:104FA0009F908F907F906F900895EF92FF920F9354
:104FB0001F93CF93DF93DB017801EC01E881F98146
:104FC0008A0101501040020F131F0084F185E02D6B
:104FD0009D010995DF91CF911F910F91FF90EF9067
:104FE0000895EF92FF920F931F93CF93DF93DA010F
:104FF000A9017801EC01E881F9819B012150304041
:10500000240F351F0084F185E02DAD018D01099538
:10501000DF91CF911F910F91FF90EF9008956F92C4
:105020007F928F929F92AF92BF92CF92DF92EF9238
:10503000FF920F931F93CF93DF935C013A016901B5
:105040004801EB01C60ED71E0DC0D501ED91FC91B4
:105050000284F385E02DC501BE01A30194018701FF
:1050600009952196CC15DD0584F3DF91CF911F9131
:105070000F91FF90EF90DF90CF90BF90AF909F90F7
:105080008F907F906F900895EF92FF920F931F93F0
:105090007B01DC01ED91FC91119718962D913C91CB
:1050A00019971A960D911C911B970088F189E02D94
:1050B00060E070E040E050E009951F910F91FF9093
:1050C000EF9008952F923F924F925F926F927F924E
:1050D0008F929F92AF92BF92CF92DF92EF92FF9208
:1050E0000F931F93DF93CF93CDB7DEB72F970FB6F4
:1050F000F894DEBF0FBECDBF5C015A8349831E8387
:105100000D83F886EF82C986DC0118968D919C91FB
:105110001997681779070CF0ACC01A968D919C917D
:105120001B97481759070CF0A4C0DD24C601880F4F
:10513000991F880F991F8C0D9D1D860F971F18169C
:1051400019060CF096C0C60103E0880F991F0A9556
:10515000E1F7840F951F181619060CF08AC085E038
:10516000289FF0011124FC83EB833B012B013324A6
:105170009601F32DF53031F0EB81FC81E755FC4FC2
:10518000E49101C0E0E06C867D86C980DA8046014A
:105190002224C501560169019F878E872E2F30E09A
:1051A0003B872A87E0FF1EC0AE85BF85ED91FC914D
:1051B000B985B13051F40480F581E02D8E859F854D
:1051C000B201A4012D813E8124C00088F189E02D27
:1051D0008E859F856C857D85A50196018601ED8074
:1051E000FE8025C0EF81F8852D813E81E217F3070F
:1051F000F9F0AE85BF85ED91FC91B985B13059F4D8
:105200000480F581E02D8E859F85B201A4012F8158
:10521000388509950DC00088F189E02D8E859F8520
:105220006C857D85A50196018601EF80F88409953E
:105230002394AC0CBD1C0894811C911CE22DE83019
:1052400029F0EA85FB85F595E795A8CFAE84BF8464
:10525000960133946C0C7D1C0894411C511C4B81AD
:105260005C814F5F5F4F5C834B83532D563009F059
:1052700080CF2F960FB6F894DEBF0FBECDBFCF9173
:10528000DF911F910F91FF90EF90DF90CF90BF9033
:10529000AF909F908F907F906F905F904F903F90D6
:1052A0002F900895CF92EF92FF920F931F93CF9379
:1052B000DF93EC01262F6A3019F42C8930E02FC0DF
:1052C0006D30D1F16C857D854E855F8508891989A2
:1052D000EA88FB88CC880E9462282C8930E0C901CA
:1052E000880F991F820F931F880F991F4C855D852A
:1052F000840F951F9D878C874E894423E9F06AEFC0
:105300007FEF269FA001279F500D369F500D11243F
:1053100068857985460F571F481759076CF443E095
:10532000220F331F4A95E1F78E859F85820F931FC9
:105330009F878E871D861C8681E090E0DF91CF914C
:105340001F910F91FF90EF90CF900895FC0175870A
:105350006487578746870895662309F461E0FC0156
:10536000648B0895FC01718B608B738B628B089545
:10537000FC01718B608B538B428B0895FC018589F6
:105380008370858B0895FC01808591850895FC01CB
:10539000828593850895CF92DF92EF92FF920F93CB
:1053A0001F93CF93DF937C018B01EA01690177FDA5
:1053B00074C00E94C329081719070CF06EC0D7FDEE
:1053C0006CC0C7010E94C729C817D9070CF065C077
:1053D00057C0F7018481958101978C1B9D0BE801D3
:1053E0008C0118C0F7018481958101979C01201BD5
:1053F000310B8901868197810197FC01EC1BFD0B24
:10540000EF0108C0F701868197810197801B910BFE
:105410008E01EC01F1E0CF16D104B9F4CE0168E0C1
:1054200070E00E94A339FB01F695FE2FEE27F79559
:10543000E795E00FF11FE256FE4F02C0CC0CDD1CD9
:105440008A95E2F780818C2919C0CE0168E070E06E
:105450000E94A339FB01F695FE2FEE27F795E795FD
:10546000E00FF11FE256FE4F21E030E002C0220FB4
:10547000331F8A95E2F720958081822380830DC0B7
:10548000C7010E94BE29823009F4ACCF833009F4F1
:10549000B9CF813009F0BECF9CCFDF91CF911F9162
:1054A0000F91FF90EF90DF90CF900895DC01ED9188
:1054B000FC910190F081E02D09950895EF920F93F2
:1054C000FC011382128286EC93E091838083E48E48
:1054D000038F228F418F608F0F91EF90089580E0AE
:1054E00092E0EEE9F1E0DF019C011D922150304095
:1054F000E1F70895FC0188E090E030E8A78DB0A1C5
:105500004C9126A1209524232C93432F4623A58D2F
:10551000B68D25A1442321F04C91422B4C9304C01D
:105520004C91209524232C93A78DB0A12C9146A1BA
:10553000242B2C933695019709F708951F93CF9349
:10554000DF93EC01162F888D8F3FF1F0E9A1FAA1CE
:1055500080819FA1892B8083EBA1FCA1908188A5EC
:10556000809589238083E9A1FAA190818FA18095FC
:1055700089238083CE010E947A2AE9A1FAA1808141
:105580009FA1892B808317C02F89332727FD309552
:1055900086E897E0B9010E94412D86E897E060E037
:1055A0000E94FC2C86E897E0612F0E94FC2C86E884
:1055B00097E00E94572DDF91CF911F9108956623A8
:1055C00011F067EA01C066EA0E949E2A08950F93CF
:1055D0001F93CF93DF93EC01162F042F60E870E048
:1055E00040E250E00E94B2260F8B888D8F3F09F475
:1055F00068C061E00E94CE1F898D61E00E94CE1FCD
:105600008A8D61E00E94CE1F8C8D61E00E94CE1FCA
:10561000898D992787FD9095FC01E352FD4FE49118
:10562000F0E0EE0FFF1FE753FD4F259134912F8FD0
:1056300038A38F509D4FFC0184918EA3888D9927AC
:1056400087FD9095FC01E352FD4FE491F0E0EE0FF1
:10565000FF1FE753FD4F259134912D8F3E8F8F50C3
:105660009D4FFC0184918DA38C8D992787FD90958A
:10567000FC01E352FD4FE491F0E0EE0FFF1FE75312
:10568000FD4F2591349129A33AA38F509D4FFC01E2
:1056900084918FA38A8D992787FD9095FC01E35211
:1056A000FD4FE491F0E0EE0FFF1FE753FD4F259112
:1056B00034912BA33CA38F509D4FFC01849188A76C
:1056C00004C086E897E00E942C2D8B8D61E00E943B
:1056D000CE1F8B8D61E00E940C2061E070E080E0C5
:1056E00090E00E941E1F8B8D60E00E940C206AE0FB
:1056F00070E080E090E00E941E1F8B8D61E00E94B0
:105700000C20CE016EEA0E949E2ACE0165ED0E9419
:105710009E2ACE0160E80E949E2ACE0168EA0E947D
:105720009E2ACE016FE10E949E2ACE0163ED0E9467
:105730009E2ACE0160E00E949E2ACE0160E40E9473
:105740009E2ACE016DE80E949E2A113019F4CE01E6
:1057500060E102C0CE0164E10E949E2ACE0160E2B7
:105760000E949E2ACE0160E00E949E2ACE0161EA3C
:105770000E949E2ACE0168EC0E949E2ACE016AED0C
:105780000E949E2ACE0162E00E949E2ACE0161E81C
:105790000E949E2ACE016FE80E949E2ACE0169EDEA
:1057A0000E949E2A113019F4CE0162E202C0CE019D
:1057B00061EF0E949E2ACE016BED0E949E2ACE01CF
:1057C00060E40E949E2ACE0164EA0E949E2ACE01D5
:1057D00066EA0E949E2ACE016FEA0E949E2ADF910D
:1057E000CF911F910F910895BF92CF92DF92EF92C8
:1057F000FF920F931F93CF93DF93EC0160E00E9421
:105800009E2ACE0160E10E949E2ACE0160E40E94A1
:105810009E2A888D8F3F79F1E9A1FAA180819FA10D
:10582000892B8083EBA1FCA1808198A5892B8083A3
:10583000E9A1FAA190818FA18095892380830EE947
:1058400011E0F80161918F01CE010E947A2AF3E004
:105850000E391F07B1F700E012E0CE0160E00E94B0
:105860007A2A01501040C9F7E9A1FAA180819FA1CD
:10587000892B808357C0B090B8008CE08093B8002B
:1058800000E010E06F89772767FD709586E897E064
:105890000E94412D86E897E060E470E00E94562A5D
:1058A000FEE9EF2EF1E0FF2EE00EF11EEEEACE2E25
:1058B000E1E0DE2EC00ED11EF70161917F0186E886
:1058C00097E00E94FC2CEC14FD04B1F7005F1F4F21
:1058D00086E897E00E94572DF2E000301F0791F60E
:1058E00000E210E06F89772767FD709586E897E002
:1058F0000E94412D86E897E060E470E00E94562AFD
:1059000070E1E72E86E897E060E00E94FC2CEA94C4
:10591000C9F786E897E00E94572D0150104011F713
:10592000B092B800DF91CF911F910F91FF90EF904F
:10593000DF90CF90BF9008952091610730E0809173
:105940006007281B3109C901089580916007909173
:105950006107891750F4E82FF0E0E05CF84F2081F0
:1059600030E08F5F8093600702C02FEF3FEFC901E7
:105970000895E091600780916107E81730F4F0E046
:10598000E05CF84F208130E002C02FEF3FEFC9010B
:1059900008950895CF92DF92EF92FF920F931F9395
:1059A000CF93DF936C01CB01EA012091850722237D
:1059B000B1F0E62EF92E00E010E00DC0D7016D9198
:1059C0007D01D601ED91FC910190F081E02DC601A1
:1059D00009950F5F1F4F0C171D0780F303C0642F3D
:1059E0000E94E42DCE01DF91CF911F910F91FF9086
:1059F000EF90DF90CF900895DF93CF930F92CDB7C4
:105A0000DEB76983209185072223D1F02091840796
:105A1000203240F021E030E0FC013383228320E09B
:105A200030E015C080918307E82FF0E0ED59F84F82
:105A3000998190838F5F809383078093840705C04B
:105A4000CE01019661E00E94E42D21E030E0C90121
:105A50000F90CF91DF910895109260071092610727
:105A600010928307109284070E94722D089581E09E
:105A700080938507609362071092830710928407D2
:105A800008950E94372D08950F93062F8091620785
:105A900063E677E04091840721E00E94902D109208
:105AA000830710928407109285070F91089561E093
:105AB0000E94442D0895109289071092880788EE5D
:105AC00093E0A0E0B0E080938A0790938B07A093C7
:105AD0008C07B0938D078EED93E0909387078093AA
