:100000000C94C9040C94811D0C94AE1D0C944C24CA
:100010000C9470240C9494240C94F1040C94F1042A
:100020000C94F1040C94F1040C94F1040C94F1047C
:100030000C94F1040C94F1040C94F1040C94F1046C
:100040000C94DB1D0C94F1040C9454200C9485202A
:100050000C94F1040C94F1040C94F1040C94F1044C
:100060000C94862D0C94F10453196919851999196A
:10007000AC19DE19E719F219FB19061A061A061A45
:10008000061A061A061A061A061A061A061A061A70
:10009000061A061A061A061A061A061A061A061A60
:1000A000061A061A061A061A5319611969198519CA
:1000B0009919AC19C019C919D219084AD73B3BCEB6
:1000C000016E84BCBFFDC12F3D6C74319ABD568357
:1000D0003DDA3D00C77F11BED9E4BB4C3E916BAA0F
:1000E000AABE000000803F05A84CCDB2D44EB9385E
:1000F00036A9020C50B9918688083CA6AAAA2ABE45
:10010000000000803F256C642E2530346C64006E46
:10011000616E6F0A232063706D5F666163746F7236
:100120003D00312E302E320023204E4557204C4FBB
:10013000470A2320666F726D61743D0057726F6EBF
:1001400067206D6F6465202100253032642F2530D3
:10015000326420253032643A2530326400207553F1
:100160000044733D002075532F68004D783D0020FA
:1001700075532F680044723D0043504D200043509A
:100180004D200043504D202D2D2D002D2D006B6D49
:1001900000207553762F68004E6F20475053004360
:1001A000504D20002530326468253032646D0025C2
:1001B0003032642F2530326420253032643A2530C5
:1001C00032643A25303264002A2558002A302558F6
:1001D000002425732C253034642C253032642D25E1
:1001E0003032642D2530326454253032643A253063
:1001F00032643A253032645A2C256C642C256C64A8
:100200002C256C642C25632C25732C25632C2573DD
:100210002C25632C25732C25632C256C642C2564DC
:10022000002530346425303264253032642E6C6F02
:10023000670023253034640062476569676965207B
:100240004E616E6F2025730024504D544B33303176
:100250002C322A32450D0A0024504D544B33313391
:100260002C312A32450D0A0024504D544B32323085
:100270002C313030302A31460024504D544B33312C
:10028000342C302C312C302C312C302C302C302C88
:10029000302C302C302C302C302C302C302C302C7E
:1002A000302C302C302C302A323800000000002452
:1002B0000027002A0000000000250028002B000075
:1002C00000000023002600290004040404040404A0
:1002D00004020202020202030303030303010204F5
:1002E00008102040800102040810200102040810B8
:1002F00020000000070002010000030406000000C7
:10030000000000000000C20100010005000500031C
:100310000000E1000001000F000F000D000096003A
:1003200000020019001A001700127A0000070020CE
:100330000021001D00807000000B0023002300201E
:1003400000004B0000140037003700340040380034
:10035000001E004B004B0048008025000032007258
:100360000072007000C01200006E00E900E900E6B3
:100370000060090000E500D801D801D501B00400F3
:1003800000D301B403B403B1032C0100006707DDFF
:100390000EDD0EDA0E00000000003E5B4F5B3E3EBD
:1003A0006B4F6B3E1C3E7C3E1C183C7E3C181C5721
:1003B0007D571C1C5E7F5E1C00183C1800FFE7C3C5
:1003C000E7FF0018241800FFE7DBE7FF30483A0694
:1003D0000E2629792926407F050507407F05253F00
:1003E0005A3CE73C5A7F3E1C1C08081C1C3E7F14EC
:1003F000227F22145F5F005F5F06097F017F006636
:1004000089956A606060606094A2FFA29408047E8F
:10041000040810207E201008082A1C08081C2A083E
:10042000081E101010100C1E0C1E0C30383E3830F8
:10043000060E3E0E06000000000000005F000000F7
:1004400007000700147F147F14242A7F2A12231325
:1004500008646236495620500008070300001C2239
:1004600041000041221C002A1C7F1C2A08083E086B
:10047000080080703000080808080800006060006C
:1004800020100804023E5149453E00427F40007260
:10049000494949462141494D331814127F102745D7
:1004A0004545393C4A4949314121110907364949F5
:1004B0004936464949291E00001400000040340016
:1004C00000000814224114141414140041221408CA
:1004D00002015909063E415D594E7C1211127C7F82
:1004E000494949363E414141227F4141413E7F4990
:1004F0004949417F090909013E414151737F08087B
:10050000087F00417F41002040413F017F081422C5
:10051000417F404040407F021C027F7F0408107FE3
:100520003E4141413E7F090909063E4151215E7F1E
:1005300009192946264949493203017F01033F40F1
:1005400040403F1F2040201F3F4038403F63140879
:10055000146303047804036159494D43007F41410A
:10056000410204081020004141417F0402010204BD
:100570004040404040000307080020545478407F2A
:10058000284444383844444428384444287F385464
:1005900054541800087E090218A4A49C787F08040B
:1005A000047800447D40002040403D007F102844F6
:1005B0000000417F40007C047804787C08040478C3
:1005C0003844444438FC1824241818242418FC7C8B
:1005D00008040408485454542404043F44243C4070
:1005E00040207C1C2040201C3C4030403C442810D3
:1005F00028444C9090907C4464544C44000836410C
:1006000000000077000000413608000201020402E9
:100610003C2623263C1EA1A161123A4040207A3894
:1006200054545559215555794121545478412155F7
:1006300054784020545579400C1E52721239555549
:100640005559395454545939555454580000457C1F
:10065000410002457D420001457C40F0292429F0FB
:10066000F0282528F07C545545002054547C547CB7
:100670000A097F4932494949323248484832324AA8
:100680004848303A4141217A3A42402078009DA0C2
:10069000A07D39444444393D4040403D3C24FF2442
:1006A00024487E4943662B2FFC2F2BFF0929F62077
:1006B000C0887E090320545479410000447D4130B4
:1006C00048484A32384040227A007A0A0A727D0D40
:1006D00019317D2629292F28262929292630484DF8
:1006E0004020380808080808080808382F10C8AC47
:1006F000BA2F102834FA00007B000008142A1422B4
:1007000022142A1408AA005500AAAA55AA55AA001C
:100710000000FF00101010FF00141414FF00101050
:10072000FF00FF1010F010F0141414FC001414F764
:1007300000FF0000FF00FF1414F404FC1414171051
:100740001F10101F101F1414141F00101010F000A1
:100750000000001F101010101F10101010F01000DB
:100760000000FF101010101010101010FF100000EB
:1007700000FF140000FF00FF00001F10170000FC26
:1007800004F414141710171414F404F40000FF00F8
:10079000F714141414141414F700F7141414171481
:1007A00010101F101F141414F4141010F010F00087
:1007B000001F101F0000001F14000000FC140000A8
:1007C000F010F01010FF10FF141414FF141010108C
:1007D0001F00000000F010FFFFFFFFFFF0F0F0F03F
:1007E000F0FFFFFF0000000000FFFF0F0F0F0F0FD3
:1007F00038444438447C2A2A3E147E02020606020B
:100800007E027E0263554941633844443C04407E85
:10081000201E2006027E020299A5E7A5991C2A49FE
:100820002A1C4C7201724C304A4D4D303048784889
:1008300030BC625A463D3E494949007E0101017E75
:100840002A2A2A2A2A44445F444440514A444040C8
:10085000444A51400000FF0103E080FF0000080807
:100860006B6B083612362436060F090F0600001887
:10087000180000001010003040FF0101001F0101AE
:100880001E00191D1712003C3C3C3C0000000000FB
:1008900000407A10F35A00A0724E18090010A5D437
:1008A000E80000E87648170000E40B54020000CA94
:1008B0009A3B000000E1F5050000809698000000DA
:1008C00040420F000000A086010000001027000039
:1008D0000000E803000000006400000000000A00BF
:1008E000000000000100000000002C76D888DC67C2
:1008F0004F0823DFC1DFAE59E1B1B796E5E3E4531A
:10090000C63AE651997696E8E6C28426EB898C9B36
:1009100062ED407C6FFCEFBC9C9F40F2BAA56FA5D6
:10092000F490055A2AF75C936B6CF9676DC11BFC58
:10093000E0E40D47FEF520E6B500D0ED902E030073
:10094000943577050080841E080000204E0A0000C0
:1009500000C80C333333330F986E12831141EF8D7F
:100960002114893BE65516CFFEE6DB18D1844B38BF
:100970001BF77C1D901DA4BBE424203284725E22F0
:100980008100C9F124ECA1E53D27B8125B21CB2CF5
:10099000BD1211241FBECFEFD8E0DEBFCDBF13E0E4
:1009A000A0E0B1E0E4E2F3E702C005900D92A43EBE
:1009B000B107D9F718E0A4EEB3E001C01D92AE3341
:1009C000B107E1F719E0C0E9D9E004C02297FE01C0
:1009D0000E948139CA38D107C9F70E94D8220C94E5
:1009E000F3040C940000F8940C948539EF92FF9274
:1009F0000F931F938130910569F584EE93E066E0D3
:100A000047E025E003E0F4E0EF2E0E94CE2989E6DE
:100A100094E06AE04BE020E00E94062586E894E03E
:100A200061E00E94DE158AEF94E068E049E020E092
:100A30000E94062586E195E069E674E040E255E013
:100A40002DE435E005E515E0E4E6EE2EF12C0E94FC
:100A50004B130AC0009741F48AEF94E00E940926E4
:100A600089E694E00E9409261F910F91FF90EF9074
:100A700008951F93CF93DF93182FC0E0D0E0219605
:100A800089E694E00E940823009779F089E694E0D3
:100A90000E94E722AC01112319F02EE330E002C0DE
:100AA0002CE330E04217530751F06AE070E080E039
:100AB00090E00E94631EC83CD10509F704C081E0A4
:100AC000C83CD1050CF080E0DF91CF911F910895D3
:100AD000CF92DF92EF92FF920F931F93CF93DF930A
:100AE0007B018C016A010E944D3020E030E543EC2F
:100AF00057E40E94B42F0E9421302DB73EB72C50EE
:100B000030400FB6F8943EBF0FBE2DBFCDB7DEB755
:100B10002196EDB7FEB7D282C18225E031E03B835A
:100B20002A836C837D838E839F8320EA36E841E0AD
:100B300050E00E94E038A8019701261B370B480BB4
:100B4000590BCA01B9012AE030E040E050E00E94B0
:100B50002639288739874A875B870E94F1334DB74A
:100B60005EB7445F5F4F0FB6F8945EBF0FBE4DBFD8
:100B7000DF91CF911F910F91FF90EF90DF90CF9079
:100B80000895AF92BF92CF92DF92EF92FF920F93B0
:100B90001F930E944D3020E836E948E15BE40E9453
:100BA000B42F5B016C01762F272F3B2D4C2D5D2D33
:100BB000CA01B9010E941C30882777FD8095982FC3
:100BC0000E944F307B018C016A2D7B2D8C2D9D2D39
:100BD000A80197010E94E62E20E030E040E752E4B1
:100BE0000E94B42F20E030E048EC52E40E946831CB
:100BF000A80197010E94E72E1F910F91FF90EF909F
:100C0000DF90CF90BF90AF900895EF92FF920F9337
:100C10001F93CF93DF939C018B01A8E0EA2EF12C68
:100C2000E60EF71E01C09E01E901219689E797E0D3
:100C3000B9010E941126F80181938F01EE15FF057D
:100C400091F788E090E0DF91CF911F910F91FF9095
:100C5000EF900895AF92BF92CF92DF92EF92FF9202
:100C60000F931F93CF93DF938DE061E00E94131FDA
:100C700086ED96E040E855E260E070E00E94CC200E
:100C800029E288E190E00FB6F894A895809360007F
:100C90000FBE20936000A89586E195E00E94811523
:100CA00089E694E040E855E260E070E00E94332578
:100CB0008CE061E00E94131F89E694E00E945323B8
:100CC0008CE060E00E94581F64E670E080E090E0F5
:100CD0000E94631E8CE061E00E94581F81E00E9428
:100CE0003905882321F481E08093260403C081E044
:100CF0008093850480918504882331F086E195E016
:100D000060E071E00E94A81380E090E048E853E1C1
:100D100060E070E00E94D6120E94F1128AEF94E027
:100D200040E855E260E070E00E9433258AEF94E0ED
:100D30000E945323C5E5D5E004E6DE01E02F1D92B5
:100D4000EA95E9F700D000D0ADB7BEB71296DC93B4
:100D5000CE93119789E792E014969C938E93139704
:100D60000E94F1330F900F900F900F908AEF94E054
:100D7000BE010E94F321FE01802F11928A95E9F7AE
:100D800000D000D0ADB7BEB71296DC93CE931197CA
:100D900088E692E014969C938E9313970E94F13309
:100DA0000F900F900F900F908AEF94E0BE010E9479
:100DB000F321FE01802F11928A95E9F700D000D02F
:100DC000ADB7BEB71296DC93CE93119788E592E04B
:100DD00014969C938E9313970E94F1330F900F906B
:100DE0000F900F908AEF94E0BE010E94F321FE0164
:100DF00011920A95E9F700D000D0ADB7BEB71296B0
:100E0000DC93CE93119788E492E014969C938E9392
:100E100013970E94F1330F900F900F900F908AEF6D
:100E200094E0BE010E94F32188EC90E06DE475E04F
:100E30000E940506609151057091520580915305FD
:100E4000909154056115710581059105F1F10E949C
:100E50004D307B018C0160914D0570914E05809164
:100E60004F05909150050E944D305B016C01C80107
:100E7000B70120E030E040E752E40E94B42F9B012C
:100E8000AC01C601B5010E94B42F20913905309103
:100E90003A0540913B0550913C050E94B42F5B01FF
:100EA0006C01C801B70120E030E041E655E40E9442
:100EB000B42F9B01AC01C601B5010E94683140E02E
:100EC00022E009EB15E00E943C3284EE93E062E000
:100ED0004CE30E94572A84EE93E00E94642B68EE54
:100EE00073E080E090E00E94631E84EE93E00E9435
:100EF000DF2984EE93E061E070E00E94222984EE15
:100F000093E061E00E941C2900D000D000D0EDB732
:100F1000FEB73196C9EBD5E0ADB7BEB71296DC93FC
:100F2000CE93119788E392E0938382838DE091E0E2
:100F3000958384830E94F133FE0101900020E9F73C
:100F40003197EC1BFD0B8DB79EB706960FB6F89444
:100F50009EBF0FBE8DBFCF01880F991F8E0F9F1FA1
:100F6000880F991F00E810E0B801681B790B76958F
:100F7000679584EE93E040E050E00E94162984EEED
:100F800093E0BE010E94D32184EE93E062E00E94D0
:100F90001C2984EE93E068E270E048E050E00E9493
:100FA000162900D000D000D0EDB7FEB73196ADB70E
:100FB000BEB71296DC93CE93119782E392E09383AF
:100FC00082838091360590913705958384830E94B2
:100FD000F133EDB7FEB736960FB6F894FEBF0FBEED
:100FE000EDBF84EE93E0BE010E94D32184EE93E036
:100FF00061E00E941C29C6E2D5E080912605882385
:10100000E9F0FE0101900020E9F7E752F540CF0139
:10101000880F991F8E0F9F1F880F991FB801681B9B
:10102000790B7695679584EE93E048E150E00E9455
:10103000162984EE93E0BE010E94D32184EE93E052
:101040000E94642BC0E0D4E02197CE010E945E3262
:101050000097D1F30E94F83286ED96E0BE014AE097
:1010600050E00E94BD22DF91CF911F910F91FF9020
:10107000EF90DF90CF90BF90AF900895EF92FF92E6
:101080000F931F93CF93DF939C01EB0178E0E72E42
:10109000F12CEC0EFD1E01C0980189010F5F1F4F5E
:1010A000499189E797E0B9010E941526CE15DF0521
:1010B00099F788E090E0DF91CF911F910F91FF9019
:1010C000EF9008952F923F924F925F926F927F928E
:1010D0008F929F92AF92BF92CF92DF92EF92FF9248
:1010E0000F931F93DF93CF93CDB7DEB7AB970FB6B8
:1010F000F894DEBF0FBECDBF8AEF94E00E94532369
:101100000E942F1E7B018C01DD2413C08AEF94E026
:101110000E94E722682F86E894E00E940D1A882337
:1011200011F0DD24D3948AEF94E00E940823009705
:1011300069F70E942F1E9B01AC01D801C701821BD9
:10114000930BA40BB50BE216F3060407150720F466
:1011500080959095A095B095883E23E0920720E079
:10116000A20720E0B20710F00C9499120E94041319
:10117000009711F00C949912D6CF8091960181348A
:1011800019F48DE061E002C08DE060E00E94581F1C
:101190000E940413009711F40C949F12A8950E94CA
:1011A00042136D8B7E8B8F8B988F0E94F112609112
:1011B0005704709158048091590490915A04FB018E
:1011C000EE0FFF1FEE0FFF1FE95DFB4F2D893E89DC
:1011D0004F89588D20833183428353836F5F7F4FC4
:1011E0008F4F9F4F2CE030E040E050E00E942639C6
:1011F00060935704709358048093590490935A0451
:10120000E7E2F4E044245524320181919191A191C7
:10121000B191480E591E6A1E7B1E34E0E735F30774
:10122000A1F780915B0490915C04A0915D04B09162
:101230005E042D893E894F89588D820F931FA41F0C
:10124000B51F80935B0490935C04A0935D04B093FE
:101250005E048091630490916404A0916504B09150
:1012600066040596A11DB11D8093630490936404E8
:10127000A0936504B093660480915F04909160042C
:10128000A0916104B091620484159505A605B70587
:1012900040F440925F045092600460926104709246
:1012A000620480914D0590914E05A0914F05B0913B
:1012B00050052D893E894F89588D820F931FA41F99
:1012C000B51F80934D0590934E05A0934F05B093A5
:1012D0005005609151057091520580915305909190
:1012E00054056B5F7F4F8F4F9F4F609351057093F5
:1012F0005205809353059093540520E13EE040E071
:1013000050E00E942639611571058105910531F47F
:1013100088EC90E06DE475E00E943E0880916704DF
:10132000909168048C3091054CF426E5209395014A
:10133000019690936804809367040AC04114510495
:101340006104710411F486E501C081E48093950184
:1013500084E6E5E5F5E0DF011D928A95E9F71CEDED
:10136000212E17E0312E38862F8219821A821B8295
:101370001C821D821E8219861A861B861C861D866B
:101380001E861F86188A8CE0E9EDF5E0DF01282F24
:101390001D922A95E9F7E5EEF5E0DF011D928A95A9
:1013A000E9F780E2E9EBF5E0DF011D928A95E9F7C4
:1013B00086E894E0BE01695F7F4FAE014F5F5F4FEB
:1013C0009E012E5F3F4F8E010D5F1F4FB4E0EB2E4D
:1013D000F12CEC0EFD1EA5E0CA2ED12CCC0EDD1E8C
:1013E000F6E0AF2EB12CAC0EBD1EE1E18E2E912C9D
:1013F0008C0E9D1E0E94341C89899A89AB89BC89F8
:101400008F3FEFEF9E07EFEFAE07EFEFBE0741F420
:1014100038862F8219821A821B821C821D821E82AC
:1014200086E894E0BE01675F7F4FAE01435F5F4F88
:101430009E012F5E3F4F0E94A41B8091EE048823E3
:1014400011F486E501C081E48093960186E894E07A
:101450000E94091D6BA37CA38DA39EA386E894E044
:101460000E943F1D6D8F7E8F8F8F98A32091C604A1
:101470003091C7043AA329A38091BE049091BF0480
:10148000A091C004B091C104898F9A8FAB8FBC8F9B
:1014900089859A85AB85BC85B7FF0EC0B095A095B0
:1014A000909581959F4FAF4FBF4F89879A87AB87A4
:1014B000BC8793E59FA302C0AEE4AFA38D859E8554
:1014C000AF85B889B7FF0EC0B095A095909581956E
:1014D0009F4FAF4FBF4F8D879E87AF87B88B47E534
:1014E000342E02C035E4332E69857A858B859C8540
:1014F0006F3FB9EC7B07BAE98B07BBE39B0719F495
:1015000060E070E0CB0149ED55E00E9468056D8513
:101510007E858F8598896F3FE9EC7E07EAE98E0723
:10152000EBE39E0719F460E070E0CB0145EE55E077
:101530000E9468055BA14CA13DA12EA1652F742FCF
:10154000832F922F209198033091990340919A0311
:1015500050919B030E94AD2F882321F470E060E03E
:1015600090E004C07BA16CA19DA18EA1AB019C0168
:10157000652F742F832F922F40E022E009EB15E0B6
:101580000E943C3284E6E5E5F5E0DF011D928A9594
:10159000E9F76091360570913705EF80F88489800E
:1015A000AA802B80DC80CD8020915B0430915C048C
:1015B00040915D0450915E0428A739A74AA75BA714
:1015C000B090950190909601898D9A8DAB8DBC8DD0
:1015D0008F3FEFEF9E07EFEFAE07EFEFBE0721F46F
:1015E000198E1A8E1B8E1C8E29A13AA12F3F310510
:1015F00019F420E030E002C029A13AA14DB75EB74E
:10160000445350400FB6F8945EBF0FBE4DBFEDB7C8
:10161000FEB7319605E515E0ADB7BEB712961C933F
:101620000E93119741ED51E05383428343E151E022
:101630005583448377836683F186E08682861386AA
:10164000A486158626861786D08A118AC28A138AAE
:10165000448A558A668A778A8D899E89AF89B88D32
:10166000808F918FA28FB38F88A599A5AAA5BBA5BE
:10167000848F958FA68FB78FB0A211A289ED95E0C8
:1016800093A382A39FA194A315A285EE95E097A3AF
:1016900086A330A611A689EB95E093A782A794A60E
:1016A00015A6898D9A8DAB8DBC8D86A797A7A0AB0B
:1016B000B1AB33AB22AB0E94F133F80101900020B3
:1016C000E9F73197E01BF10B8E2F90E0FC01E00F62
:1016D000F11F108240915605F8013296ADB7BEB7A2
:1016E000D4960FB6F894BEBF0FBEADBF21E030E078
:1016F00004C0519145272F5F3F4F28173907CCF37E
:101700008B5A9A4F403178F400D000D000D0EDB71A
:10171000FEB73196ADB7BEB712969C938E931197D4
:101720008CEC91E00EC000D000D000D0EDB7FEB739
:101730003196ADB7BEB712969C938E93119788ECF5
:1017400091E093838283448315820E94F133EDB745
:10175000FEB736960FB6F894FEBF0FBEEDBF809170
:10176000EE04882309F4B7C069857A858B859C854A
:101770000E94C1056D8B7E8B8F8B988F6D857E85CA
:101780008F8598890E94C105698F7A8F8B8F9C8F76
:101790006D8D7E8D8F8D98A120E030E040EA50E481
:1017A0000E945D31181624F029E1822E912C03C08D
:1017B00095E0892E912C6D8D7E8D8F8D98A120E0E6
:1017C00030E040E251E40E945D3118161CF48AE0DA
:1017D000882E912C6D8D7E8D8F8D98A120E030E02C
:1017E00040E751E40E945D3118161CF404E1802E9C
:1017F000912C809194018823D9F02D893E894F89BD
:10180000588D209311043093120440931304509385
:101810001404898D9A8DAB8DBC8D80930D049093AB
:101820000E04A0930F04B09310041092940153C0BF
:10183000E0901104F090120400911304109114042C
:10184000A0900D04B0900E04C0900F04D09010042E
:101850006D897E898F89988D298D3A8D4B8D5C8D10
:101860000E94961A0E941C309B01AC01AA2497FC8E
:10187000A094BA2C82169306A406B50660F5809152
:10188000150490911604A0911704B0911804820FCA
:10189000931FA41FB51F8093150490931604A09363
:1018A0001704B09318042D893E894F89588D2093D1
:1018B0001104309312044093130450931404898D3F
:1018C0009A8DAB8DBC8D80930D0490930E04A093E4
:1018D0000F04B093100484EE93E00E94DF298091FE
:1018E0002405882309F06AC2ADB7BEB71E970FB6AC
:1018F000F894BEBF0FBEADBFEDB7FEB7319619EB82
:10190000E12E15E0F12E1296FC92EE9211978FEADD
:1019100091E0938382838A8184831582898186837F
:1019200017828B81808711868C81828713868D81B7
:10193000848715860E94F133EDB7FEB73E960FB649
:10194000F894FEBF0FBEEDBF84EE93E062E070E05E
:1019500048E150E00E94162984EE93E061E00E9485
:101960001C2984EE93E061E070E00E94222984EE5D
:1019700093E0B7010E94F321A0906304B090640447
:10198000C0906504D0906604C601B50120E13EE038
:1019900040E050E00E942639022F2B83C601B5019A
:1019A0002CE330E040E050E00E9426398CE3809F39
:1019B000802D1124281B2C834DB75EB74850504012
:1019C0000FB6F8945EBF0FBE4DBFEDB7FEB73196B0
:1019D000ADB7BEB71296FC92EE92119784EA91E0F1
:1019E0009383828304831582268317820E94F133B6
:1019F000EDB7FEB738960FB6F894FEBF0FBEEDBF39
:101A000084EE93E06CE570E048E150E00E94162916
:101A100084EE93E061E00E941C2984EE93E061E093
:101A200070E00E94222984EE93E0B7010E94F32126
:101A300084EE93E062E070E040E050E00E941629FE
:101A400084EE93E062E00E941C2980919501863526
:101A500049F484EE93E060E070E041E050E00E94E1
:101A6000282906C084EE93E061E070E00E942229FC
:101A700000D000D0B9EBEB2EB5E0FB2EADB7BEB772
:101A80001296FC92EE9211978FE991E014969C9336
:101A90008E9313970E94F1330F900F900F900F9039
:101AA00084EE93E0B7010E94D321C301B2010E94EA
:101AB0004D305B016C0122EB35EC4CEF55E30E949D
:101AC00068319B01AC0160E070E080E89FE30E9418
:101AD000E62E9B01AC01C601B5010E94B42F40E087
:101AE00020E087010E943C3284EE93E0B7010E941F
:101AF000F32180918504882379F48091F1059091F8
:101B0000F205009749F084EE93E060E070E041E078
:101B100050E00E94282906C084EE93E061E070E066
:101B20000E94222984EE93E061E00E941C298091AA
:101B3000EE04A9EBEA2EA5E0FA2E8823C9F484EE80
:101B400093E06CE570E040E050E00E94162900D080
:101B500000D0EDB7FEB7F282E18288E991E094838C
:101B600083830E94F1330F900F900F900F9027C046
:101B700084EE93E064E770E040E050E00E941629B4
:101B800000D000D000D0EDB7FEB73196ADB7BEB7EC
:101B90001296FC92EE92119789E191E093838283F1
:101BA00029A13AA1358324830E94CE334DB75EB775
:101BB0004A5F5F4F0FB6F8945EBF0FBE4DBF84EE15
:101BC00093E0B7010E94F32184EE93E061E070E0BE
:101BD0000E94222984EE93E061E00E941C2984EE99
:101BE00093E062E070E040E150E00E9416298091AD
:101BF0002505882399F5C601B50120913905309155
:101C00003A0540913B0550913C050E94B42FF9EBF9
:101C1000EF2EF5E0FF2E40E023E087010E943C32EA
:101C200084EE93E0B7010E94D32100D000D0ADB77D
:101C3000BEB71296FC92EE92119781E991E014964C
:101C40009C938E9313970E94F1330F900F900F90F7
:101C50000F9084EE93E0B7010E94F3218091F1058B
:101C60009091F205009709F455C0609115047091A8
:101C7000160480911704909118040E944D3020E0C2
:101C800030E04AE754E40E94B42FE9EBEE2EE5E0A1
:101C9000FE2E40E021E087010E943C3284EE93E07A
:101CA00061E070E00E94222984EE93E061E00E94EE
:101CB0001C29F70101900020E9F73197EE19FF097F
:101CC000CF01880F991F8E0F9F1F880F991F64E700
:101CD00070E0681B790B84EE93E040E150E00E94D5
:101CE000162984EE93E0B7010E94D32100D000D0E2
:101CF000EDB7FEB7F282E1828EE891E094838383B0
:101D00000E94F1330F900F900F900F9084EE93E0AC
:101D1000B70151C08091EE04882379F05BA14CA1FA
:101D20003DA12EA1652F742F832F922F40E020E03C
:101D300009EB15E00E943C3216C000D000D089EBC0
:101D400095E0ADB7BEB712969C938E9311978BE832
:101D500091E014969C938E9313970E94F1330F9009
:101D60000F900F900F9084EE93E061E00E941C2989
:101D700009EB15E0F80101900020E9F73197E01B2D
:101D8000F10BCF01880F991F8E0F9F1F880F991F8E
:101D90006AE770E0681B790B84EE93E040E150E065
:101DA0000E94162984EE93E0B8010E94D32184EEAC
:101DB00093E06DE171E00E94F3219CC2813009F053
:101DC00069C284EE93E060E070E040E050E00E9481
:101DD000162984EE93E061E00E941C2984EE93E0D2
:101DE00061E070E00E942229809195018635C1F45E
:101DF00000D000D009EB15E0EDB7FEB712830183E8
:101E000083E891E0948383830E94F1330F900F90D5
:101E10000F900F9084EE93E0B8010E94D32160C030
:101E2000B9EBEB2EB5E0FB2EF9EE4F16F3E05F06B3
:101E3000F0E06F06F0E07F06B0F100D000D0ADB763
:101E4000BEB71296FC92EE9211978EE791E014962F
:101E50009C938E9313970E94F1330F900F900F90E5
:101E60000F9084EE93E0B7010E94D321C301B20129
:101E700028EE33E040E050E00E942639CA01B90163
:101E80000E944D3040E021E087010E943C3284EE08
:101E900093E0B7010E94D32184EE93E06FE171E0FB
:101EA0000E94F3211DC000D000D0EDB7FEB7F28232
:101EB000E18289E791E0948383830E94F1330F905C
:101EC0000F900F900F9084EE93E0B7010E94D32102
:101ED00084EE93E0B301A2012AE030E00E946F2279
:101EE00084EE93E061E070E00E94222984EE93E0AA
:101EF00061E00E941C2984EE93E060E070E048E01D
:101F000050E00E94162900D000D0A9EBEA2EA5E0EF
:101F1000FA2EADB7BEB71296FC92EE92119785E7F6
:101F200091E014969C938E9313970E94F1330F9037
:101F30000F900F900F9084EE93E0B7010E94D32191
:101F4000C301B2010E944D302091390530913A050C
:101F500040913B0550913C050E94B42F40E022E0A7
:101F600087010E943C3284EE93E0B7010E94D321A6
:101F700000D000D0EDB7FEB7F282E1828FE691E0AB
:101F8000948383830E94F1330F900F900F900F90F2
:101F900084EE93E0B7010E94D32184EE93E061E0E8
:101FA00070E00E94222984EE93E061E00E941C29E7
:101FB00084EE93E060E070E040E150E00E9416297A
:101FC00000D000D0ADB7BEB71296FC92EE9211973A
:101FD0008BE691E014969C938E9313970E94F133B5
:101FE0000F900F900F900F9084EE93E0B7010E9436
:101FF000D32160915F04709160048091610490919D
:1020000062040E944D302091390530913A0540918B
:102010003B0550913C050E94B42F40E022E00E9415
:102020003C3284EE93E0B7010E94D32100D000D06F
:10203000EDB7FEB7F282E18285E691E09483838377
:102040000E94F1330F900F900F900F9084EE93E069
:10205000B7010E94D32184EE93E061E070E00E941A
:10206000222984EE93E061E00E941C2984EE93E033
:1020700060E070E048E150E00E94162900D000D0F6
:10208000ADB7BEB71296FC92EE92119781E691E041
:1020900014969C938E9313970E94F1330F900F9098
:1020A0000F900F9084EE93E0B7010E94D3216091CE
:1020B00051057091520580915305909154050E94ED
:1020C0004D305B016C0160914D0570914E05809122
:1020D0004F05909150050E944D302B013C01C601E7
:1020E000B50120E030E040E752E40E94B42F9B01AC
:1020F000AC01C301B2010E94B42F20913905309187
:102100003A0540913B0550913C050E94B42F2B01AC
:102110003C01C601B50120E030E041E655E40E94F3
:10212000B42F9B01AC01C301B2010E94683140E0B1
:1021300022E00E943C3284EE93E0B7010E94D3215A
:1021400000D000D0EDB7FEB7F282E1828DE591E0DC
:10215000948383830E94F1330F900F900F900F9020
:1021600084EE93E0B7010E94D32185E10E94C51E51
:102170009C01B901882777FD8095982F0E944F30E8
:1021800026E636E646E65FE30E94683120E030E06E
:1021900040E450E40E94683120E030E040E850E440
:1021A0000E94683120E030E040E051E40E94683154
:1021B0002AE939E949E850E40E94B42F0E941C3012
:1021C000A62E872E84EE93E064E770E048E150E0AD
:1021D0002CE030E007E010E0F1E0EF2EF12C0E945F
:1021E000EE262A2D382D2930310514F028E030E074
:1021F00084EE93E066E770E04AE150E003E010E02F
:10220000E1E0EE2EF12C0E9477274DB75EB74C50DF
:1022100050400FB6F8945EBF0FBE4DBFEDB7FEB78E
:10222000319609EB15E0ADB7BEB712961C930E932D
:10223000119789E491E0938382838A818483158254
:102240008981868317828B81808711868C81828722
:1022500013860E94F133EDB7FEB73C960FB6F894A3
:10226000FEBF0FBEEDBF84EE93E06CE370E040E094
:1022700050E00E94162984EE93E061E00E941C2940
:1022800084EE93E061E070E00E94222984EE93E006
:10229000B80191CD84EE93E062E070E040E050E060
:1022A0000E94162984EE93E062E00E941C2984EECD
:1022B00093E060E070E041E050E00E94282900D007
:1022C00000D009EB15E0ADB7BEB712961C930E9384
:1022D00011978CE391E014969C938E9313970E9430
:1022E000F1330F900F900F900F9084EE93E0B801B0
:1022F0000E94D32184EE93E00E94642B8091F1052B
:102300009091F20521E030E0822793279093F20527
:102310008093F10580912604882309F0F5C08CEDA7
:1023200097E098878F831E821D821C821B821A82EF
:10233000198286E894E0BE01695F7F4FAE014A5F73
:102340005F4F9E012B5F3F4F8E010C5F1F4FB3E02D
:10235000EB2EF12CEC0EFD1EA2E0CA2ED12CCC0EE1
:10236000DD1E5E010894A11CB11CF9E08F2E912C9A
:102370008C0E9D1E0E94341C89859A85AB85BC8578
:102380008F3FEFEF9E07EFEFAE07EFEFBE0709F4C9
:10239000BBC02DB73EB72A5030400FB6F8943EBFB1
:1023A0000FBE2DBFEDB7FEB7319689E194E0ADB712
:1023B000BEB712969C938E93119781E292E093831D
:1023C00082838091360590913705958384838E8131
:1023D000868317828D81808711860E94F13381E088
:1023E00080932604EDB7FEB73A960FB6F894FEBF79
:1023F0000FBEEDBF89E694E00E945323A89589E6BD
:1024000094E061E271E00E94D32189E694E069E101
:1024100074E00E94D32189E694E06DE00E94DB2302
:1024200080E00E943905882391F48CE060E00E94EE
:10243000581F64E670E080E090E00E94631E8CE02C
:1024400061E00E94581F81E00E943905D7CF00D07B
:1024500000D0E9EBEE2EE5E0FE2EADB7BEB712964A
:10246000FC92EE92119788E291E014969C938E93E1
:1024700013970E94F1330F900F900F900F9089E601
:1024800094E0B7010E94D32100D000D0EDB7FEB791
:10249000F282E18282E291E0948383830E94F133AD
:1024A0000F900F900F900F9089E694E0B7010E9473
:1024B000D32100D000D0ADB7BEB71296FC92EE92F9
:1024C00011978FE091E014969C938E9313970E943E
:1024D000F1330F900F900F900F9089E694E0B701C1
:1024E0000E94D3216091390570913A0580913B0596
:1024F00090913C0540E021E087010E943C3289E652
:1025000094E0B7010E94F32186ED96E065E575E061
:102510000E94F32180912604882389F089E694E0C3
:102520000E94532389E694E065E575E00E94F3215B
:1025300006C0DD2011F40C94BD080C94C108AB96C4
:102540000FB6F894DEBF0FBECDBFCF91DF911F91C4
:102550000F91FF90EF90DF90CF90BF90AF909F9042
:102560008F907F906F905F904F903F902F90089545
:1025700081E090E00E94F604089580E090E00E94DF
:10258000F60408958091FD059091FE05A091FF0548
:10259000B09100060196A11DB11D8093FD05909399
:1025A000FE05A093FF05B093000608958093F30500
:1025B0009093F4054093F9055093FA056093FB0559
:1025C0007093FC051092FD051092FE051092FF0518
:1025D0001092000662EC72E143E050E00E94611D3F
:1025E00008950E942F1E6093F5057093F605809361
:1025F000F7059093F8051092FD051092FE051092D4
:10260000FF05109200060895EF92FF920F931F931B
:102610000E942F1E2091F5053091F6054091F70597
:102620005091F805E090F905F090FA050091FB054E
:102630001091FC05621773078407950760F0621B11
:10264000730B840B950BE1E0F0E06E157F058007BE
:10265000910790F40FC02095309540955095260F26
:10266000371F481F591FE1E0F0E02E153F054007D6
:10267000510710F4E0E0F0E0CF011F910F91FF90BF
:10268000EF9008956091FD057091FE058091FF0522
:10269000909100060895EF92FF920F931F93FC0113
:1026A0007183608353834283358324831783068336
:1026B000F186E0861F910F91FF90EF900895EF92C1
:1026C000FF920F931F93CF93DF939C018B018DE2B9
:1026D000E82EF12CE60EF71E01C09E01E9012196BD
:1026E00089E797E0B9010E941126F80181938F01D3
:1026F000EE15FF0591F78DE290E0DF91CF911F91EC
:102700000F91FF90EF900895EF92FF920F931F9318
:10271000CF93DF939C01EB019DE2E92EF12CE60EB5
:10272000F71E01C0980189010F5F1F4F499189E78A
:1027300097E0B9010E941526CE15DF0599F78DE2C5
:1027400090E0DF91CF911F910F91FF90EF9008954E
:102750008F929F92AF92BF92CF92DF92EF92FF92B1
:102760000F931F93CF93DF93EC018B0188819981A5
:102770000E9453238881998169E271E00E94D321EC
:1027800088819981B8010E94D32188819981DC01D7
:10279000ED91FC910190F081E02D6DE0099588812B
:1027A0009981DC01ED91FC910480F581E02D099582
:1027B0000097A9F388819981DC01ED91FC91068055
:1027C000F781E02D09958D30910549F748855985A8
:1027D0008E819F8160E070E00E94AF3300E010E0E6
:1027E000BB2488819981DC01ED91FC910480F58105
:1027F000E02D0995009791F00E811F810B0D111DA1
:1028000088819981DC01ED91FC910680F781E02DB2
:102810000995F8018083B39400E010E061E070E076
:1028200080E090E00E94631E2B2D30E08885998522
:102830002817390731F00F5F1F4FF3E0083E1F07DD
:1028400084F2DD24CC2458E0852E43C18E819F8103
:10285000FC01ED0DF11D60E008C06F5F4D2D50E0F3
:10286000288539854217530739F0DC01AD0DB11DBC
:102870002C91D3942A3089F7DF01A60FB11D1C9249
:102880008081882309F425C1833209F422C1633091
:1028900008F41FC180E07F01E80EF11CD7019C9174
:1028A000903211F0993051F48F5F8617A1F711C162
:1028B000903211F0993009F41C928F5F861709F459
:1028C00008C1DF01A80FB11D9C919D3389F78617C0
:1028D00009F4FFC01C928F5F8F01080F111DD801F2
:1028E0009C91903211F0993021F48F5F8617A1F7F7
:1028F000F0C0861709F4EDC0C7016FE271E00E94D5
:10290000B633009751F5C8010E949133FC01BF0115
:10291000882777FD8095982F0E944F307B01A82E45
:10292000992E0A811B81D80159966D917D918D91C7
:102930009C915C972E2D3F2D4A2D592D0E94AD2F35
:10294000882309F4C6C08E2D9F2DAA2DB92DF8011C
:10295000818F928FA38FB48F30C0C70164E371E081
:102960000E94B633009761F5C8010E9491339C0123
:10297000B901882777FD8095982F0E944F307B0101
:10298000A82E992E0A811B81D8015D966D917D91AB
:102990008D919C9190972E2D3F2D4A2D592D0E945F
:1029A000AD2F882309F495C08E2D9F2DAA2DB92D0A
:1029B000F801858F968FA78FB0A3CC24C39489C0CC
:1029C000C70169E371E00E94B633009791F4EA8091
:1029D000FB8026E030E0E20EF31EC701B8010E9442
:1029E000B633009709F475C0C701B8010E94BF3320
:1029F000E4CFC7016CE371E00E94B6330097A1F405
:102A0000EA80FB80C8010E9491339C01D701569651
:102A10008D919C9157978217930709F45AC0579646
:102A20003C932E935697C9CFC70160E471E00E9492
:102A3000B633009771F4EA80FB80C8010E9491339D
:102A4000F701258130E02817390709F442C0858352
:102A5000B4CFC70163E471E00E94B633009789F4F4
:102A6000EA80FB80C8010E949133D70115962C9112
:102A7000159730E02817390761F115968C93159753
:102A80009CCFC70166E471E00E94B633009769F4F9
:102A9000EA80FB80C8010E949133F70123A130E056
:102AA00028173907B1F083A388CFC70169E471E023
:102AB0000E94B633009769F4EC81FD81DF01282D77
:102AC0001D922A95E9F76C817D8188EC90E00E9447
:102AD0003E08DB1408F4BACECC2031F06A817B8149
:102AE00084EF91E00E948413DF91CF911F910F91A9
:102AF000FF90EF90DF90CF90BF90AF909F908F901E
:102B000008951F93CF93DF93EC011DE2EA81FB81CF
:102B1000DF01412F1D924A95E9F76A817B8184EF9D
:102B200091E00E945F132A813B81F90180819181AC
:102B3000A281B3818D30F0EF9F07FEEFAF07FAE57A
:102B4000BF07C1F1D9011D921A95E9F7EA81FB810E
:102B50008DE090EFAEEFBAE580839183A283B383DB
:102B600082ED90E0978B868B8CE0808F6A817B81F1
:102B700080E090E0A7EAB3E4FB01818F928FA38FFE
:102B8000B48F80E090E0A4E1B2E4858F968FA78FA8
:102B9000B0A384EF91E00E948413EC81FD8188E072
:102BA000DF011D928A95E9F76C817D8188EC90E0C8
:102BB0000E943E08DF91CF911F910895EF92FF92FE
:102BC0000F931F93FC01EE24EA94FE2C8701E08210
:102BD000F1820283138310861186128613862FEFEB
:102BE00039EC4AE95BE3208B318B428B538B208F8E
:102BF000318F428F538F20A331A342A353A320A729
:102C000031A742A753A720AB31AB42AB53ABE0AEE9
:102C1000F1AE02AF13AFDC01A05CBF4F8FEF90E0CD
:102C20008D939C93DF01AC5BBF4FED92FD920D93B2
:102C30001C931397DF01A45BBF4FED92FD920D93A0
:102C40001C931397DF01AC5ABF4F1C92DF01AB5AA4
:102C5000BF4F1C92DF01AB59BF4F82E08C93DF0165
:102C6000AA59BF4F1C92DF01A959BF4F1C92DF0127
:102C7000A859BF4F1C92DF01A659BF4F1D921D924C
:102C80001D921C921397DF01A259BF4F1D921C92F7
:102C9000DF01A059BF4F1D921C92DF01AA5ABF4FFE
:102CA0001C92E759FF4F60831F910F91FF90EF90A7
:102CB0000895862F8154863020F470E06753704069
:102CC0000AC0862F815670E0863018F46755704030
:102CD00002C060537040CB010895EF92FF921F93A2
:102CE000CF93DF93E62EE7017E01F72EE70120E088
:102CF00030E0A90114C0CA01B9012AE030E040E087
:102D000050E00E94E038212F30E040E050E02053B6
:102D1000304040405040260F371F481F591F19911F
:102D2000812F80538A3038F3B901CA01DF91CF91E6
:102D30001F91FF90EF9008952F923F924F925F92D4
:102D40006F927F928F929F92AF92BF92CF92DF92BB
:102D5000EF92FF920F931F93CF93DF93EC01CA5A28
:102D6000DF4FBE010E946D16D62EC72EB82EA92E9B
:102D7000FE01EF018191982F90539A30D0F38E325B
:102D800069F5219690E1692E97E2792E812C912C9C
:102D9000EE24FF2487018AE0282E312C412C512C6F
:102DA00017C030E020533040442737FD4095542F62
:102DB000C401B3010E94E038E60EF71E081F191F78
:102DC000C401B301A20191010E94263939014A01CF
:102DD0002991822F80538A3020F303C0EE24FF24F0
:102DE00087016D2D7C2D8B2D9A2D20EA36E841E050
:102DF00050E00E94E0389B01AC012E0D3F1D401FAA
:102E0000511FB901CA01DF91CF911F910F91FF901E
:102E1000EF90DF90CF90BF90AF909F908F907F907A
:102E20006F905F904F903F902F9008952F923F9218
:102E30004F925F926F927F928F929F92AF92BF92CA
:102E4000CF92DF92EF92FF920F931F93CF93DF9376
:102E5000EC01CA5ADF4FBE010E946D16F62EE72E16
:102E60008C0124E630E040E050E00E94263920EA60
:102E700036E841E050E00E94E0383B014C01FE01A1
:102E8000EF018191982F90539A30D0F38E3249F50B
:102E9000219630E1A32E37E2B32EC12CD12C2AE0AB
:102EA000222E312C412C512C17C030E020533040C1
:102EB000442737FD4095542FC601B5010E94E038E4
:102EC000660E771E881E991EC601B501A2019101EA
:102ED0000E94263959016A012991822F80538A3034
:102EE00020F3C401B3016B5F7F4F8F4F9F4F26E0EC
:102EF00030E040E050E00E94263959016A016F2D10
:102F00007E2DC80124E630E040E050E00E942639E2
:102F1000CA01B90120E432E44FE050E00E94E038F9
:102F2000A60EB71EC81ED91EB501C601DF91CF91EE
:102F30001F910F91FF90EF90DF90CF90BF90AF90D7
:102F40009F908F907F906F905F904F903F902F90C9
:102F500008951F93CF93DF93EC01CA5ADF4F11E01E
:102F600028812D3211F010E003C0EC01C95ADF4F67
:102F7000BE010E946D1624E630E040E050E00E9461
:102F8000E0389B01AC01FE018991982F90539A3053
:102F9000D0F38E3211F58181982F90539A30E8F456
:102FA0009AE0899FC0011124805E9140AA2797FD75
:102FB000A095BA2F280F391F4A1F5B1F8281982FB7
:102FC00090539A3050F490E0C097AA2797FDA095AF
:102FD000BA2F280F391F4A1F5B1F112339F0509554
:102FE0004095309521953F4F4F4F5F4FB901CA0132
:102FF000DF91CF911F910895862F972FDC01842FA9
:10300000952FFC018D91882319F091918917D1F3A7
:1030100090E00895FF920F931F93CF93DF938C015D
:10302000FC01EB5AFF4F8081882309F4F3C0F801BB
:10303000EA5AFF4FC80160810E945916F82EF80124
:10304000E95AFF4FC80160810E945916F29450EF6F
:10305000F522F80EF801EC5AFF4F8081F81609F0BE
:10306000D0C0F801E859FF4F8081882309F495C04A
:10307000F801E259FF4F808191810196918380830D
:10308000F801EC5BFF4FD801A85BBF4F8D919D917C
:103090000D90BC91A02D80839183A283B383F8010E
:1030A000E45BFF4FD801A05BBF4F8D919D910D90C8
:1030B000BC91A02D80839183A283B383F801EB5947
:1030C000FF4F80818823A9F1813009F09DC1F8016B
:1030D00084819581A681B78180839183A283B38304
:1030E00084859585A685B78580879187A287B387D4
:1030F00084899589A689B789808B918BA28BB38BA4
:10310000848D958DA68DB78D808F918FA28FB38F73
:1031100084A595A5A6A5B7A580A791A7A2A7B3A7A3
:1031200084A995A9A6A9B7A980AB91ABA2ABB3AB73
:103130006BC1F80184A195A1A6A1B7A180A391A319
:10314000A2A3B3A384819581A681B7818083918353
:10315000A283B38384899589A689B789808B918B53
:10316000A28BB38B848D958DA68DB78D808F918F1B
:10317000A28FB38FE05CFF4FD801AE5BBF4F8D9144
:103180009C9191838083F80184AD95ADA6ADB7ADD8
:1031900080AF91AFA2AFB3AF37C1F8018481958101
:1031A000A681B7810097A105B10509F42FC1EC5B99
:1031B000FF4FE801C85BDF4F288139814A815B817D
:1031C0002083318342835383F801EB59FF4F2081E1
:1031D000222389F0213009F019C1F80180839183FD
:1031E000A283B38384859585A685B78580879187DB
:1031F000A287B3870BC1F80180839183A283B38335
:1032000005C1F801E059FF4F8081918101969183BA
:103210008083FCC0F801EA59FF4F80818823F9F4CC
:10322000E801CA5ADF4FC801BE014EE451E00E94D6
:10323000FC17009729F4F801EB59FF4F81E0C5C056
:10324000C801BE0144E551E00E94FC17F801EB59AA
:10325000FF4F009711F41082D9C082E0B6C0F80188
:10326000EB59FF4FE081E23009F4D0C0D801AA5AEF
:10327000BF4F2C91222309F4C9C0F0E045E0EE0FC6
:10328000FF1F4A95E1F790E0E82BF92B3197E932DF
:10329000F10508F0BBC0EC5CFF4FEE0FFF1F05907F
:1032A000F491E02D0994C8010E94A917F8016483E4
:1032B0007583868397830E942F1EF801E85BFF4F7A
:1032C0001FC0F801E859FF4F81E0213409F07CC0AC
:1032D0007CC0F801E759FF4F8081882321F0C801A5
:1032E0000E949C1603C0C8010E941617F801648B47
:1032F000758B868B978B0E942F1EF801E05BFF4F2A
:10330000608371838283938381C0233509F07EC0FB
:10331000F80184899589A689B789B095A09590957B
:1033200081959F4FAF4FBF4F848B958BA68BB78BEB
:103330006DC0F801E759FF4F8081882321F0C80153
:103340000E949C1603C0C8010E941617F801648FE2
:10335000758F868F978F5AC0273509F057C0F801AF
:10336000848D958DA68DB78DB095A09590958195FE
:103370009F4FAF4FBF4F848F958FA68FB78F46C09B
:10338000C8010E94A917F80164A775A786A797A787
:103390003DC0C8010E94A917F80164AB75AB86ABAC
:1033A00097AB34C0B8016A5A7F4FC8010E946D16AE
:1033B000F801648775878687978728C0F801E859E0
:1033C000FF4F81E0213308F480E080831FC0C801F3
:1033D0008A5A9F4F0E949133F801EE5BFF4F808322
:1033E000118214C0C8010E94A917F80164AF75AF1B
:1033F00086AF97AF0BC0C8010E94A917F80164A35C
:1034000075A386A397A302C081E001C080E0DF918D
:10341000CF911F910F91FF9008950F931F93DF930A
:10342000CF930F92CDB7DEB78C01FC01E659FF4F69
:1034300080819181A281B3810196A11DB11D8083FC
:103440009183A283B3836432C9F1F801E959FF4F34
:10345000653230F46A3079F06D3009F049C00BC044
:103460006A3249F06C3209F043C0D801AC5ABF4F00
:103470008C9186278C9380818F3060F4F801E80F5F
:10348000F11DEA5AFF4F1082C80169830E940A1891
:10349000698101C080E0F801EA59FF4F90819F5F88
:1034A0009083F801E959FF4F1082F801EB5AFF4F62
:1034B00091E06A3209F090E0908332C0F801E95956
:1034C000FF4F1082F801EA59FF4F1082F801EC5AC1
:1034D000FF4F1082F801EB59FF4F82E08083F80123
:1034E000EB5AFF4F1082F801E859FF4F108217C0C6
:1034F00080818E3040F4D801A80FB11DAA5ABF4F69
:103500006C938F5F8083F801EB5AFF4F8081882393
:1035100031F4F801EC5AFF4F80818627808380E0E8
:103520000F90CF91DF911F910F9108952F923F92AD
:103530004F925F926F927F928F929F92AF92BF92C3
:10354000CF92DF92EF92FF920F931F93DF93CF936F
:10355000CDB7DEB760970FB6F894DEBF0FBECDBF14
:103560001B012C01CA01B90137014801A6019501CF
:103570000E94E62E25E33AEF4EE85CE30E946831B4
:10358000A62EE72E8C01762F272F3E2D402F512F70
:10359000CA01B9010E94CB316D877E878F87988BD6
:1035A0006A2D7E2D802F912F0E94B12F69837A83FF
:1035B0008B839C83C201B10125E33AEF4EE85CE3C3
:1035C0000E9468318B01A82EE92EC401B30125E3C6
:1035D0003AEF4EE85CE30E946831562EB72E6C013C
:1035E000602F712F8A2D9E2D0E94CB316D837E839B
:1035F0008F839887602F712F8A2D9E2D0E94B12F67
:1036000069877A878B879C87652D7B2D8C2D9D2DD7
:103610000E94CB313B014C01652D7B2D8C2D9D2DC6
:103620000E94B12F7B018C0169857A858B859C85F1
:10363000A40193010E9468315B016C016D817E8160
:103640008F819885A80197010E94683129813A816C
:103650004B815C810E9468319B01AC01C601B501C0
:103660000E94E62E5B016C01762F272F3B2D4C2DFF
:103670005D2DCA01B9010E946831B62E572E482E21
:10368000392EC801B7012D853E854F8558890E9486
:1036900068316B01282EA92E762F272F3D2D422D24
:1036A0005A2DCA01B9010E9468319B01AC016B2DF2
:1036B000752D842D932D0E94E72E0E94D5311B017C
:1036C0002C016D817E818F819885A40193010E94D8
:1036D00068315B016C0169857A858B859C85A801C1
:1036E00097010E94683129813A814B815C810E9457
:1036F00068319B01AC01C601B5010E94E72E9B0118
:10370000AC01C201B1010E945A2F26E73BE742EC0F
:103710005AE40E94683160960FB6F894DEBF0FBE7F
:10372000CDBFCF91DF911F910F91FF90EF90DF9070
:10373000CF90BF90AF909F908F907F906F905F9051
:103740004F903F902F9008950F931F93CF93DF9347
:10375000EC0189016115710549F088899989AA8967
:10376000BB89FB0180839183A283B38341155105FB
:1037700049F0888D998DAA8DBB8DFA018083918344
:10378000A283B3830115110511F1C45BDF4F88815A
:103790009981AA81BB818F3FFFEF9F07FFEFAF07A2
:1037A000FFEFBF0759F00E942F1E288139814A81FF
:1037B0005B81621B730B840B950B04C06FEF7FEF73
:1037C0008FEF9FEFF8016083718382839383DF9192
:1037D000CF911F910F9108950F931F93CF93DF9374
:1037E000EC0189016115710549F088859985AA85E3
:1037F000BB85FB0180839183A283B383411551056F
:1038000049F088819981AA81BB81FA0180839183E3
:10381000A283B3830115110511F1CC5BDF4F8881C1
:103820009981AA81BB818F3FFFEF9F07FFEFAF0711
:10383000FFEFBF0759F00E942F1E288139814A816E
:103840005B81621B730B840B950B04C06FEF7FEFE2
:103850008FEF9FEFF8016083718382839383DF9101
:10386000CF911F910F9108952F923F924F925F92A7
:103870006F927F928F929F92AF92BF92CF92DF9280
:10388000EF92FF920F931F93DF93CF93CDB7DEB7E5
:103890002C970FB6F894DEBF0FBECDBF3B015A8701
:1038A00049873C872B87180127019401BE016F5F70
:1038B0007F4FAE014B5F5F4F0E94EC1B61147104A0
:1038C000B9F069817A818B819C8124E630E040E007
:1038D00050E00E942639613571051CF08CE697E0B6
:1038E00002C080ED97E0680F791FF3017183608358
:1038F00089859A850097B1F069817A818B819C8155
:10390000F4E6EF2EF12C012D112DA80197010E9454
:103910002639CA01B901A80197010E942639E98513
:10392000FA8560838B859C85009769F069817A812F
:103930008B819C8120E137E240E050E00E942639F3
:10394000EB85FC8520832114310461F06D817E813B
:103950008F81988520E432E44FE050E00E942639C0
:10396000F101208341145104A1F06D817E818F818A
:10397000988520E137E240E050E00E942639CA01F4
:10398000B90124E630E040E050E00E942639F2011F
:103990006083C114D104A9F06D817E818F819885E7
:1039A000E4E6EE2EF12C012D112DA80197010E94C5
:1039B0002639CA01B901A80197010E942639F601EA
:1039C0006083A114B10461F06D817E818F8198853F
:1039D00024E630E040E050E00E942639F5016083A3
:1039E0002C960FB6F894DEBF0FBECDBFCF91DF91FE
:1039F0001F910F91FF90EF90DF90CF90BF90AF900D
:103A00009F908F907F906F905F904F903F902F90FE
:103A10000895FC0160A171A182A193A16F3FF9EC0F
:103A20007F07FAE98F07FBE39F0749F00E944F30B9
:103A300020E030E048EC52E40E94B42F04C060E083
:103A400074E284E799E40895FC0160A571A582A55C
:103A500093A56F3FF9EC7F07FAE98F07FBE39F0718
:103A600049F00E944D3020E030E048EC52E40E94E2
:103A7000B42F04C060E070E080E89FEB0895EF92FF
:103A8000FF920F931F930E94241D7B018C0120E065
:103A900030E040E85FEB0E94AD2F882349F0C80179
:103AA000B70126E53EE04DEE5FE30E94683104C0B9
:103AB00060E070E080E89FEB1F910F91FF90EF9026
:103AC00008958230E8F4E82FF0E0EE0FFF1FEF5F7B
:103AD000F94F71836083813041F0809169008C7F60
:103AE000842B80936900E89A089580916900440FBF
:103AF000551F440F551F837F842B80936900E99ADB
:103B000008951F920F920FB60F9211242F933F9397
:103B10004F935F936F937F938F939F93AF93BF93D5
:103B2000EF93FF938091010690910206009729F090
:103B3000E0910106F09102060995FF91EF91BF9186
:103B4000AF919F918F917F916F915F914F913F9135
:103B50002F910F900FBE0F901F9018951F920F92EC
:103B60000FB60F9211242F933F934F935F936F9350
:103B70007F938F939F93AF93BF93EF93FF93809126
:103B8000030690910406009729F0E0910306F09156
:103B900004060995FF91EF91BF91AF919F918F918D
:103BA0007F916F915F914F913F912F910F900FBE39
:103BB0000F901F9018951F920F920FB60F9211241D
:103BC0002F933F934F935F936F937F938F939F9325
:103BD000AF93BF932091090630910A0640910B06DE
:103BE00050910C0670910D06DA01C9010296A11DD3
:103BF000B11D672F6A5F6D3730F06D57DA01C9016B
:103C00000396A11DB11D60930D0680930906909344
:103C10000A06A0930B06B0930C06809105069091BE
:103C20000606A0910706B09108060196A11DB11DD8
:103C30008093050690930606A0930706B0930806A6
:103C4000BF91AF919F918F917F916F915F914F91B4
:103C50003F912F910F900FBE0F901F9018958FB727
:103C6000F8942091090630910A0640910B06509174
:103C70000C068FBFB901CA0108959FB7F89420912F
:103C8000050630910606409107065091080686B554
:103C9000A89B06C08F3F21F02F5F3F4F4F4F5F4FD4
:103CA0009FBF542F432F322F2227280F311D411D34
:103CB000511D83E0220F331F441F551F8A95D1F7F2
:103CC000B901CA010895EF92FF920F931F93CF930A
:103CD000DF937B018C010E943D1EEB010FC00E940F
:103CE0003D1E6C1B7D0B83E0683E780738F008941E
:103CF000E108F10801091109C851DC4FE114F10490
:103D00000105110561F7DF91CF911F910F91FF9090
:103D1000EF900895789484B5826084BD84B5816005
:103D200084BD85B5826085BD85B5816085BDEEE6C3
:103D3000F0E0808181608083E1E8F0E010828081A2
:103D400082608083808181608083E0E8F0E0808110
:103D500081608083E1EBF0E0808184608083E0EB30
:103D6000F0E0808181608083EAE7F0E08081846018
:103D70008083808182608083808181608083808174
:103D8000806880831092C10008958E3008F08E50B4
:103D90008770909197019295990F990F907C982B2D
:103DA00090937C0080917A00806480937A00809167
:103DB0007A0086FDFCCF2091780030917900932F16
:103DC00080E030E0282B392BC9010895833071F051
:103DD000843028F48130A1F0823021F514C086307F
:103DE000B1F08730D1F08430E9F404C080918000D4
:103DF0008F7703C0809180008F7D8093800008952D
:103E000084B58F7702C084B58F7D84BD089580917D
:103E1000B0008F778093B00008958091B0008F7DBF
:103E20008093B0000895EF92FF92CF93DF9390E0DC
:103E3000FC01E352FD4F449187539D4FFC01849157
:103E4000882389F190E0880F991FFC01E555FD4F0B
:103E500025913491D9018B549D4FFC0125913491CA
:103E6000E22EE7017E01F32EE701662349F49FB7B6
:103E7000F8948C91409584238C93888184230BC083
:103E8000623059F49FB7F8948C91242F20958223A7
:103E90008C938881842B888305C09FB7F8948C917C
:103EA000842B8C939FBFDF91CF91FF90EF9008956B
:103EB0000F931F93DF93CF930F92CDB7DEB7282FC9
:103EC00030E0F901EF50FD4F8491F901E352FD4FCD
:103ED000149127533D4FF90104910023D9F0882311
:103EE00021F069830E94E61E6981E02FF0E0EE0F69
:103EF000FF1FEB54FD4F85919491DC019FB7F8941F
:103F0000662321F48C911095812302C08C91812B22
:103F10008C939FBF0F90CF91DF911F910F910895C8
:103F2000FC0124853585F901E05AFF4F808191819C
:103F30002E593F4FF90120813181805A9F4F821BBA
:103F4000930B60E670E00E94FF380895FC018485C1
:103F50009585FC01E05AFF4F40815181FC01EE59EB
:103F6000FF4F208131814217530741F00190F081CA
:103F7000E02DE80FF91F208130E002C02FEF3FEF66
:103F8000C9010895FC0184859585FC01E05AFF4F25
:103F900040815181FC01EE59FF4F20813181421750
:103FA000530781F0A081B181A80FB91F2C918081A6
:103FB0009181019660E670E00E94FF3891838083D2
:103FC00030E002C02FEF3FEFC9010895DC011E96DB
:103FD0008D919C911F97FC01E05AFF4F8E599F4F86
:103FE00040815181DC012D913C911197421753077B
:103FF000B9F708951F93FC01162F26853785D9013F
:10400000A05ABF4F8D919C91019660E670E00E948E
:10401000FF38D901AE59BF4F4D915C91119784176C
:104020009507D1F3D901A05ABF4F0D90BC91A02D97
:10403000A20FB31F1C93A685B785A05ABF4F119638
:104040009C938E93A689B7892C9181E090E0058C92
:1040500002C0880F991F0A94E2F7282B2C9381E065
:1040600090E01F9108951F93182F9B01FB01E05AC8
:10407000FF4F80819181019660E670E00E94FF38D9
:10408000AC01D901AE59BF4F8D919C911197481742
:10409000590739F0A081B181A20FB31F1C9351833E
:1040A00040831F91089508951F920F920FB60F92AB
:1040B00011242F933F934F935F936F937F938F932D
:1040C0009F93AF93BF93EF93FF938091C6006EE0F1
:1040D00076E00E943320FF91EF91BF91AF919F91C5
:1040E0008F917F916F915F914F913F912F910F90A1
:1040F0000FBE0F901F90189586ED96E00E94901FBE
:10410000009711F00E94532008951F920F920FB64E
:104110000F9211242F933F935F936F937F938F930D
:104120009F93AF93BF93EF93FF932091D20630916B
:10413000D3068091D4069091D5062817390731F41B
:104140008091C1008F7D8093C10016C0E091D4069C
:10415000F091D506EE58F94F20818091D4069091C8
:10416000D506019660E670E00E94FF389093D50670
:104170008093D4062093C600FF91EF91BF91AF9139
:104180009F918F917F916F915F913F912F910F90B0
:104190000FBE0F901F9018959F92AF92BF92CF9233
:1041A000DF92EF92FF920F931F93CF93DF93EC0177
:1041B0007A018B0199249394EC89FD8981E090E048
:1041C0000E8C02C0880F991F0A94E2F7808360E882
:1041D00074E88EE190E0A80197010E9426392150F1
:1041E000304040405040569547953795279590E48C
:1041F000A92E92E4B92E9FE0C92ED12C12C0992489
:10420000EC89FD891082C601B501A80197010E94C1
:1042100026392150304040405040569547953795BB
:10422000279580E12030380710F0992041F7E88980
:10423000F9893083EA89FB892083EE89FF894081EF
:1042400081E090E09C010A8C02C0220F331F0A9487
:10425000E2F7422B4083EE89FF8940819C010B8C61
:1042600002C0220F331F0A94E2F7422B4083EE89EB
:10427000FF8940819C010C8C02C0220F331F0A94DD
:10428000E2F7422B4083EE89FF8920810D8C02C02A
:10429000880F991F0A94E2F7809582238083DF912B
:1042A000CF911F910F91FF90EF90DF90CF90BF9033
:1042B000AF909F9008951092D9061092D80688EE7C
:1042C00093E0A0E0B0E08093DA069093DB06A09341
:1042D000DC06B093DD06E8EDF6E080EA93E0929329
:1042E00082938EE096E09587848782E796E09787B1
:1042F000868785EC90E0918B808B84EC90E0938BAB
:10430000828B80EC90E0958B848B81EC90E0978B96
:10431000868B86EC90E0918F808F84E0828F83E0A3
:10432000838F87E0848F85E0858F81E0868F089575
:10433000CF92DF92EF92FF920F931F93CF93DF9371
:104340006C017B018A01C0E0D0E00FC0D7016D9104
:104350007D01D601ED91FC910190F081E02DC60127
:104360000995C80FD91F015010400115110571F7AB
:10437000CE01DF91CF911F910F91FF90EF90DF90D1
:10438000CF900895DB010D900020E9F7AD01415079
:104390005040461B570BDC01ED91FC910280F381EC
:1043A000E02D099508950E94C2210895DC01ED9148
:1043B000FC910190F081E02D099508950F931F93D2
:1043C000CF93DF93EC016DE00E94D6218C01CE01EA
:1043D0006AE00E94D621080F191FC801DF91CF9112
:1043E0001F910F9108950F931F93CF93DF93EC01CB
:1043F0000E94C2218C01CE010E94DE21080F191FEC
:10440000C801DF91CF911F910F9108958F929F92D4
:10441000AF92BF92CF92DF92EF92FF920F931F93D2
:10442000DF93CF93CDB7DEB7A1970FB6F894DEBF79
:104430000FBECDBF6C01042FE52FCB01122F19A2A7
:10444000223008F41AE021E2E22EF12CEC0EFD1EDF
:10445000812E9924AA24BB2403C0022FE32FCA0172
:10446000602F7E2FA50194010E942639129F802D76
:104470001124081B0894E108F1080A3010F4005DCB
:1044800001C0095CF7010083211531054105510583
:1044900021F7C601B7010E94C221A1960FB6F89478
:1044A000DEBF0FBECDBFCF91DF911F910F91FF9067
:1044B000EF90DF90CF90BF90AF909F908F90089536
:1044C0002115310549F4DC01ED91FC910190F08159
:1044D000E02D642F099508950E94062208950F93F8
:1044E0001F93CF93DF93EC010E9460228C01CE01D9
:1044F0000E94DE21080F191FC801DF91CF911F9183
:104500000F910895CF92DF92EF92FF920F931F9336
:10451000CF93DF93EC017A018B012115310541F432
:10452000E881F9810190F081E02D642F09951AC08E
:104530002A303105A9F477FF12C06DE20E94D6211E
:104540006C0144275527BA014E195F09600B710BA6
:10455000CE012AE00E940622C80ED91E04C02AE01D
:104560000E9406226C01C601DF91CF911F910F912D
:10457000FF90EF90DF90CF9008950F931F93CF930C
:10458000DF93EC019A01CB01AC01662757FD6095E2
:10459000762FCE010E9482228C01CE010E94DE2164
:1045A000080F191FC801DF91CF911F910F91089536
:1045B000CF93DF930E948A1E0E942A06CCE7D0E2A6
:1045C0000E9462082097E1F30E947C20F9CF20919D
:1045D000F5063091F60628173907B1F4909178075F
:1045E00080917707981781F0E0917807F0E0E95023
:1045F000F94F20818091780790E001968F77907035
:104600008093780730E002C02FEF3FEFC901089593
:104610002091F5063091F6062817390779F4809134
:1046200077072091780790E080589F4F821B91096F
:1046300060E870E00E9413399C0102C020E030E085
:10464000C90108952091F5063091F606281739071B
:1046500049F48FB7F8941092770790917707909369
:1046600078078FBF08952091F5063091F606281738
:10467000390771F49091780780917707981741F086
:10468000E0917807F0E0E950F94F208130E002C076
:104690002FEF3FEFC901089520E001972FEF8F3FE3
:1046A0009207D9F70895FC018091F5069091F606DE
:1046B0008E179F0791F0838D8E7F838F8FB7F8942D
:1046C000109277079091770790937807F093F6060A
:1046D000E093F5068FBF81E0089580E00895EF92A2
:1046E000FF920F931F93CF93DF93EC018B8DEE8599
:1046F000FF859D8581FF04C08081892329F445C001
:104700008081892309F041C08B899C890E944C23B8
:1047100008E010E0EE24E394FF248D899E890E9436
:104720004C23EE85FF8580819D85892311F0FE282D
:1047300003C08E2D8095F822EE0C0150104069F7D1
:104740008F89988D0E944C238B8D81FDF0948091F0
:1047500077072091780790E001968F77907030E08E
:104760008217930779F0E0917707F0E0E950F94F6D
:10477000F0828091770790E001968F779070809318
:10478000770703C08B8D81608B8FDF91CF911F9155
:104790000F91FF90EF900895FC01A189B289908953
:1047A000662329F42C91892F8095822302C08C9155
:1047B000892B8C930895DF92EF92FF920F931F93B2
:1047C000CF93DF93EC01E62E898D9A8D009739F413
:1047D00081E090E09B838A8320E030E04BC0DFB62D
:1047E000F8948B8D61E081FF60E0CE010E94CC23C4
:1047F000898D9A8D04960E944C238B8D81FF19C060
:1048000008E010E0FF24F3948F2D8E2119F0CE01E3
:1048100060E002C0CE0161E00E94CC23898D9A8DB8
:104820000E944C23FF0C0150104071F7CE0160E054
:1048300018C008E010E0FF24F3948F2D8E2119F0AA
:10484000CE0161E002C0CE0160E00E94CC23898DE0
:104850009A8D0E944C23FF0C0150104071F7CE013D
:1048600061E00E94CC23DFBE898D9A8D0E944C238B
:1048700021E030E0C901DF91CF911F910F91FF90AE
:10488000EF90DF9008958091F5069091F6060097DD
:1048900011F00E946F2308951F920F920FB60F928E
:1048A00011242F933F934F935F936F937F938F9335
:1048B0009F93AF93BF93EF93FF930E944324FF9185
:1048C000EF91BF91AF919F918F917F916F915F9188
:1048D0004F913F912F910F900FBE0F901F90189501
:1048E0001F920F920FB60F9211242F933F934F9365
:1048F0005F936F937F938F939F93AF93BF93EF9348
:10490000FF930E944324FF91EF91BF91AF919F913C
:104910008F917F916F915F914F913F912F910F9068
:104920000FBE0F901F9018951F920F920FB60F9207
:1049300011242F933F934F935F936F937F938F93A4
:104940009F93AF93BF93EF93FF930E944324FF91F4
:10495000EF91BF91AF919F918F917F916F915F91F7
:104960004F913F912F910F900FBE0F901F90189570
:104970001F93CF93DF93EC01162F862F61E00E94E7
:10498000131F812F61E00E94581F812F90E0FC01CE
:10499000E352FD4FE491E88BFC01E753FD4FE491B6
:1049A000F0E0EE0FFF1FEB54FD4F85919491898B42
:1049B0009A8BDF91CF911F9108951F93CF93DF932F
:1049C000EC01162F862F60E00E94131F8B8D81FD56
:1049D00004C0812F61E00E94581F1C87812F90E046
:1049E000FC01E352FD4FE491ED87FC01E753FD4FDD
:1049F000E491F0E0EE0FFF1FE154FD4F859194919B
:104A00008E879F87DF91CF911F9108951F93CF933A
:104A1000DF93EC01162F1B821A8288EE93E0A0E050
:104A2000B0E08C839D83AE83BF8380EB93E099835A
:104A300088831C8A1B8A1E8A1D8A188E1F8A1A8EDA
:104A4000198E8B8D2170220F8C7F822B8B8FCE0144
:104A5000642F0E94B824CE01612F0E94DD24DF91D3
:104A6000CF911F910895EF92FF920F931F93CF93D1
:104A7000DF93EC017A018B011A8E198E188E1F8A32
:104A80001E8A1D8A1C8A1B8A40E050E09A01220F70
:104A9000331F240F351F220F331F220F331FF9013D
:104AA000EB5FFC4F85919591A591B4918E159F0573
:104AB000A007B107E9F4F901E75FFC4F85919491F4
:104AC0008B8B9C8BF901E55FFC4F859194918D8BCD
:104AD0009E8BF901E35FFC4F859194918F8B988FAA
:104AE000215F3C4FF90185919491898F9A8F06C07F
:104AF0004F5F5F4F4C30510509F0C8CF8F89988DBB
:104B0000009709F448C09C85963108F040C0209178
:104B10006800983020F09E3020F082E003C084E0EE
:104B200001C081E0822B809368004C85483048F0BA
:104B30004E3060F04631C8F1A0E0B0E0E0E0F0E0D7
:104B400009C0ADE6B0E0EDE6F0E004C0ABE6B0E0F1
:104B5000EBE6F0E05081483040F481E090E002C0A4
:104B6000880F991F4A95E2F710C0242F30E04E308D
:104B700018F42850304002C02E50304081E090E0C0
:104B800002C0880F991F2A95E2F7852B8C93898D97
:104B90009A8D0E944C23CE010E945323DF91CF9126
:104BA0001F910F91FF90EF900895ACE6B0E0ECE616
:104BB000F0E0D0CFFC014485463150F5483028F074
:104BC0004E3030F0ECE6F0E005C0EDE6F0E002C07B
:104BD000EBE6F0E05081483040F481E090E002C024
:104BE000880F991F4A95E2F710C0242F30E04E300D
:104BF00018F42850304002C02E50304081E090E040
:104C000002C0880F991F2A95E2F78095852380833B
:104C1000089520EB33E0FC01318320830E94DA25E4
:104C20000895CB010E94FB350895CB01642F0E94AB
:104C300003360895FC017583648371876087578309
:104C4000468353874287158A1586148617861686EB
:104C500021E0248B8FEF9FEF938B828B918B808B46
:104C6000268B08952F923F924F925F926F927F9280
:104C70008F929F92AF92BF92CF92DF92EF92FF926C
:104C80000F931F93DF93CF9300D000D0CDB7DEB743
:104C90002C017C836B836A01590117019801241B45
:104CA000350B37FF03C0309521953F4FC501EB8091
:104CB000FC808E199F0997FF03C0909581959F4FA7
:104CC000E1E06E2E712C8217930714F0662477248E
:104CD0006114710469F03A2D2B2D5801C901092F77
:104CE000182F3B812C81DC82CB82C901C92ED82EA2
:104CF0002B813C81A216B3066CF43C2D2D2D68014E
:104D0000C901092F182F3B812C81BC82AB82C901BC
:104D1000A92EB82EA5018B819C81481B590B5A8363
:104D2000498348018C189D0897FE04C09094819493
:104D30009108939489819A8162E070E00E9413390E
:104D40007B01C016D1061CF401E010E02BC00FEF70
:104D50001FEF28C0D201ED91FC91119761147104ED
:104D600041F00480F581E02DC201B6014B815C81E8
:104D700007C00480F581E02DC2016B817C81A60112
:104D800091010995E818F908F7FE06C0C00ED11E7A
:104D9000E981FA81EE0EFF1E2B813C812F5F3F4F90
:104DA0003C832B834B815C81A416B5069CF60F9047
:104DB0000F900F900F90CF91DF911F910F91FF9067
:104DC000EF90DF90CF90BF90AF909F908F907F90AB
:104DD0006F905F904F903F902F9008956F927F92C9
:104DE0008F929F92AF92BF92CF92DF92EF92FF92FB
:104DF0000F931F93CF93DF93EC016B015A0139019D
:104E00004801E881F9810484F585E02D8701099541
:104E1000E881F981A50141505040480D591D048495
:104E2000F585E02DCE01B60193010995E881F98160
:104E30000284F385E02DCE01B601A5019401099508
:104E4000E881F981B60161507040660D771D0284DA
:104E5000F385E02DCE01A50194010995DF91CF9155
:104E60001F910F91FF90EF90DF90CF90BF90AF9088
:104E70009F908F907F906F900895EF92FF920F9385
:104E80001F93CF93DF93DB017801EC01E881F98177
:104E90008A0101501040020F131F0084F185E02D9C
:104EA0009D010995DF91CF911F910F91FF90EF9098
:104EB0000895EF92FF920F931F93CF93DF93DA0140
:104EC000A9017801EC01E881F9819B012150304072
:104ED000240F351F0084F185E02DAD018D0109956A
:104EE000DF91CF911F910F91FF90EF9008954F9216
:104EF0005F926F927F928F929F92AF92BF92CF926A
:104F0000DF92EF92FF920F931F93CF93DF935C0199
:104F10003A0169014801462EE2012E01572EE201B5
:104F2000C40CD51C0DC0D501ED91FC910284F38514
:104F3000E02DC501BE01A3019401870109952196C9
:104F4000CC15DD0584F3DF91CF911F910F91FF9078
:104F5000EF90DF90CF90BF90AF909F908F907F9019
:104F60006F905F904F900895EF92FF920F931F9371
:104F70007B01DC01ED91FC91119718962D913C91EC
:104F800019971A960D911C911B970088F189E02DB5
:104F900060E070E040E050E009951F910F91FF90B4
:104FA000EF9008952F923F924F925F926F927F926F
:104FB0008F929F92AF92BF92CF92DF92EF92FF9229
:104FC0000F931F93DF93CF93CDB7DEB72F970FB615
:104FD000F894DEBF0FBECDBF5C015A8349831E83A8
:104FE0000D83F886EF82C986DC0118968D919C911D
:104FF0001997681779070CF0ACC01A968D919C919F
:105000001B97481759070CF0A4C0DD24C601880F70
:10501000991F880F991F8C0D9D1D860F971F1816BD
:1050200019060CF096C0C60103E0880F991F0A9577
:10503000E1F7840F951F181619060CF08AC085E059
:10504000289FF0011124FC83EB833B012B013324C7
:105050009601F32DF53031F0EB81FC81EB56FC4FDE
:10506000E49101C0E0E06C867D86C980DA8046016B
:105070002224C501560169019F878E872E2F30E0BB
:105080003B872A87E0FF1EC0AE85BF85ED91FC916E
:10509000B985B13051F40480F581E02D8E859F856E
:1050A000B201A4012D813E8124C00088F189E02D48
:1050B0008E859F856C857D85A50196018601ED8095
:1050C000FE8025C0EF81F8852D813E81E217F30730
:1050D000F9F0AE85BF85ED91FC91B985B13059F4F9
:1050E0000480F581E02D8E859F85B201A4012F817A
:1050F000388509950DC00088F189E02D8E859F8542
:105100006C857D85A50196018601EF80F88409955F
:105110002394AC0CBD1C0894811C911CE22DE8303A
:1051200029F0EA85FB85F595E795A8CFAE84BF8485
:10513000960133946C0C7D1C0894411C511C4B81CE
:105140005C814F5F5F4F5C834B83532D563009F07A
:1051500080CF2F960FB6F894DEBF0FBECDBFCF9194
:10516000DF911F910F91FF90EF90DF90CF90BF9054
:10517000AF909F908F907F906F905F904F903F90F7
:105180002F900895CF92EF92FF920F931F93CF939A
:10519000DF93EC01262F6A3019F42C8930E02FC000
:1051A0006D30D1F16C857D854E855F8508891989C3
:1051B000EA88FB88CC880E94D2272C8930E0C9017C
:1051C000880F991F820F931F880F991F4C855D854B
:1051D000840F951F9D878C874E894423E9F06AEFE1
:1051E0007FEF269FA001279F500D369F500D112461
:1051F00068857985460F571F481759076CF443E0B7
:10520000220F331F4A95E1F78E859F85820F931FEA
:105210009F878E871D861C8681E090E0DF91CF916D
:105220001F910F91FF90EF90CF900895FC0175872B
:105230006487578746870895662309F461E0FC0177
:10524000648B0895FC01718B608B738B628B089566
:10525000FC01718B608B538B428B0895FC01858917
:105260008370858B0895FC01808591850895FC01EC
:10527000828593850895CF92DF92EF92FF920F93EC
:105280001F93CF93DF937C018B01EA01690177FDC6
:1052900074C00E943329081719070CF06EC0D7FD9F
:1052A0006CC0C7010E943729C817D9070CF065C028
:1052B00057C0F7018481958101978C1B9D0BE801F4
:1052C0008C0118C0F7018481958101979C01201BF6
:1052D000310B8901868197810197FC01EC1BFD0B45
:1052E000EF0108C0F701868197810197801B910B20
:1052F0008E01EC01F1E0CF16D104B9F4CE0168E0E3
:1053000070E00E941339FB01F695FE2FEE27F7950A
:10531000E795E00FF11FE856FE4F02C0CC0CDD1CF4
:105320008A95E2F780818C2919C0CE0168E070E08F
:105330000E941339FB01F695FE2FEE27F795E795AE
:10534000E00FF11FE856FE4F21E030E002C0220FCF
:10535000331F8A95E2F720958081822380830DC0D8
:10536000C7010E942E29823009F4ACCF833009F4A2
:10537000B9CF813009F0BECF9CCFDF91CF911F9183
:105380000F91FF90EF90DF90CF900895DC01ED91A9
:10539000FC910190F081E02D09950895EF920F9313
:1053A000FC011382128280EC93E091838083E48E6F
:1053B000038F228F418F608F0F91EF90089580E0CF
:1053C00092E0E8E9F1E0DF019C011D9221503040BC
:1053D000E1F70895FC0188E090E030E8A78DB0A1E6
:1053E0004C9126A1209524232C93432F4623A58D51
:1053F000B68D25A1442321F04C91422B4C9304C03F
:105400004C91209524232C93A78DB0A12C9146A1DB
:10541000242B2C933695019709F708951F93CF936A
:10542000DF93EC01162F888D8F3FF1F0E9A1FAA1EF
:1054300080819FA1892B8083EBA1FCA1908188A50D
:10544000809589238083E9A1FAA190818FA180951D
:1054500089238083CE010E94EA29E9A1FAA18081F3
:105460009FA1892B808317C02F89332727FD309573
:1054700080EC97E0B9010E94B12C80EC97E060E0ED
:105480000E946C2C80EC97E0612F0E946C2C80ECC9
:1054900097E00E94C72CDF91CF911F91089566235A
:1054A00011F067EA01C066EA0E940E2A08950F9380
:1054B0001F93CF93DF93EC01162F042F60E870E069
:1054C00040E250E00E941A260F8B888D8F3F09F42E
:1054D00068C061E00E94131F898D61E00E94131F64
:1054E0008A8D61E00E94131F8C8D61E00E94131F62
:1054F000898D992787FD9095FC01E753FD4FE49135
:10550000F0E0EE0FFF1FEB54FD4F259134912F8FEC
:1055100038A383529D4FFC0184918EA3888D9927D7
:1055200087FD9095FC01E753FD4FE491F0E0EE0F0D
:10553000FF1FEB54FD4F259134912D8F3E8F8352E9
:105540009D4FFC0184918DA38C8D992787FD9095AB
:10555000FC01E753FD4FE491F0E0EE0FFF1FEB5429
:10556000FD4F2591349129A33AA383529D4FFC010D
:1055700084918FA38A8D992787FD9095FC01E7532D
:10558000FD4FE491F0E0EE0FFF1FEB54FD4F25912E
:1055900034912BA33CA383529D4FFC01849188A797
:1055A00004C080EC97E00E949C2C8B8D61E00E94EF
:1055B000131F8B8D61E00E94581F61E070E080E056
:1055C00090E00E94631E8B8D60E00E94581F6AE08D
:1055D00070E080E090E00E94631E8B8D61E00E948D
:1055E000581FCE016EEA0E940E2ACE0165ED0E9480
:1055F0000E2ACE0160E80E940E2ACE0168EA0E94BF
:105600000E2ACE016FE10E940E2ACE0163ED0E94A8
:105610000E2ACE0160E00E940E2ACE0160E40E94B4
:105620000E2ACE016DE80E940E2A113019F4CE0127
:1056300060E102C0CE0164E10E940E2ACE0160E268
:105640000E940E2ACE0160E00E940E2ACE0161EA7D
:105650000E940E2ACE0168EC0E940E2ACE016AED4D
:105660000E940E2ACE0162E00E940E2ACE0161E85D
:105670000E940E2ACE016FE80E940E2ACE0169ED2B
:105680000E940E2A113019F4CE0162E202C0CE014E
:1056900061EF0E940E2ACE016BED0E940E2ACE0110
:1056A00060E40E940E2ACE0164EA0E940E2ACE0116
:1056B00066EA0E940E2ACE016FEA0E940E2ADF914E
:1056C000CF911F910F910895BF92CF92DF92EF92E9
:1056D000FF920F931F93CF93DF93EC0160E00E9442
:1056E0000E2ACE0160E10E940E2ACE0160E40E94E3
:1056F0000E2A888D8F3F79F1E9A1FAA180819FA1BF
:10570000892B8083EBA1FCA1808198A5892B8083C4
:10571000E9A1FAA190818FA180958923808308E96E
:1057200011E0F80161918F01CE010E94EA29F3E0B6
:1057300008391F07B1F700E012E0CE0160E00E94D7
:10574000EA2901501040C9F7E9A1FAA180819FA17F
:10575000892B808357C0B090B8008CE08093B8004C
:1057600000E010E06F89772767FD709580EC97E087
:105770000E94B12C80EC97E060E470E00E94C629A2
:10578000F8E9EF2EF1E0FF2EE00EF11EE8EACE2E52
:10579000E1E0DE2EC00ED11EF70161917F0180ECA9
:1057A00097E00E946C2CEC14FD04B1F7005F1F4FD2
:1057B00080EC97E00E94C72CF2E000301F0791F6C2
:1057C00000E210E06F89772767FD709580EC97E025
:1057D0000E94B12C80EC97E060E470E00E94C62942
:1057E00070E1E72E80EC97E060E00E946C2CEA9478
:1057F000C9F780EC97E00E94C72C0150104011F7C8
:10580000B092B800DF91CF911F910F91FF90EF9070
:10581000DF90CF90BF90089520919B0730E080915A
:105820009A07281B3109C901089580919A07909120
:105830009B07891750F4E82FF0E0E658F84F2081D5
:1058400030E08F5F80939A0702C02FEF3FEFC901CE
:105850000895E0919A0780919B07E81730F4F0E0F3
:10586000E658F84F208130E002C02FEF3FEFC9012A
:1058700008950895CF92DF92EF92FF920F931F93B6
:10588000CF93DF936C01CB01EA012091BF07222364
:10589000B1F0E62EF92E00E010E00DC0D7016D91B9
:1058A0007D01D601ED91FC910190F081E02DC601C2
:1058B00009950F5F1F4F0C171D0780F303C0642F5E
:1058C0000E94542DCE01DF91CF911F910F91FF9037
:1058D000EF90DF90CF900895DF93CF930F92CDB7E5
:1058E000DEB769832091BF072223D1F02091BE0744
:1058F000203240F021E030E0FC013383228320E0BD
:1059000030E015C08091BD07E82FF0E0E356F84F76
:10591000998190838F5F8093BD078093BE0705C0F8
:10592000CE01019661E00E94542D21E030E0C901D2
:105930000F90CF91DF91089510929A0710929B07D4
:105940001092BD071092BE070E94E22C089581E0DC
:105950008093BF0760939C071092BD071092BE070B
:1059600008950E94A72C08950F93062F80919C07FD
:105970006DE977E04091BE0721E00E94002D109272
:10598000BD071092BE071092BF070F91089561E006
:105990000E94B42C08951092C3071092C20788EE9B
:1059A00093E0A0E0B0E08093C4079093C507A09374
:1059B000C607B093C70788ED93E09093C107809323
:1059C000C00708951092F10781E08093EF071092CD
:1059D000F00782E161E00E94581F83E161E00E94CC
:1059E000581FE9EBF0E080818E7F808380818D7F7E
:1059F000808380E28093B80085E48093BC000895A2
:105A00000F93413208F047C09091F1079923E1F7D5
:105A100092E09093F1070093EF079FEF9093F207C6
:105A20001092CD074093CE07DB01EFECF7E050E09A
:105A30004E0F5F1F02C09D919193E417F507D9F7B0
:105A40001092CC079091CC07880F892B8093CC07BC
:105A50008091F007813041F41092F0078091CC07DB
:105A60008093BB0085EC01C085EE8093BC002223AF
:105A700021F08091F1078230E1F38091F2078F3FAE
:105A800061F08091F207803251F08091F20780330B
:105A900041F483E007C081E005C080E003C082E0FC
:105AA00001C084E00F9108956132A0F42091F107C4
:105AB000243091F460931708DC01EAE1F8E070E02B
:105AC0006E0F7F1F02C08D918193E617F707D9F7FC
:105AD00080E0089581E0089582E00895882311F020
