:100000000C94BC030C94331F0C94601F0C9470254B
:100010000C9494250C94B8250C94E4030C94E403FC
:100020000C94E4030C94E4030C94E4030C94E403B4
:100030000C94E4030C94E4030C94E4030C94E403A4
:100040000C948D1F0C94E4030C94D0210C940C227E
:100050000C94E4030C94E4030C94E4030C94E40384
:100060000C948E2E0C94E403A41ABE1ADE1AF21A13
:10007000031B3B1B441B4F1B5A1B671B671B671B48
:10008000671B671B671B671B671B671B671B671B60
:10009000671B671B671B671B671B671B671B671B50
:1000A000671B671B671B671BA41AB61ABE1ADE1AEA
:1000B000F21A031B171B221B2D1B084AD73B3BCEF2
:1000C000016E84BCBFFDC12F3D6C74319ABD568357
:1000D0003DDA3D00C77F11BED9E4BB4C3E916BAA0F
:1000E000AABE000000803F05A84CCDB2D44EB9385E
:1000F00036A9020C50B9918688083CA6AAAA2ABE45
:10010000000000803F476569676965204E616E6F3A
:1001100020257300426174746572793D2025303268
:100120006400252500416C61726D3D2564004350DB
:100130004D004D6F6465203D2564002325303464F7
:100140000024504D544B3331342C302C312C302C76
:10015000312C302C302C302C302C302C302C302CBE
:10016000302C302C302C302C302C302C302C302AB1
:1001700032380024504D544B3232302C3130303034
:100180002A31460024504D544B3331332C312A321E
:10019000450D0A0024504D544B3330312C322A3255
:1001A000450D0A0025303464253032642530326430
:1001B0002E6C6F670023204E4557204C4F470A2373
:1001C00020666F726D61743D00312E312E32006EEB
:1001D000616E6F0A23206465616474696D653D6FAB
:1001E0006E0A0023206E6D3D25732C747A3D2564C4
:1001F0002C636E3D25732C63706D663D25642C73F6
:10020000743D25642C73733D25642C73683D25640F
:100210002C736D3D25640A002425732C253034642D
:100220002C253032642D253032642D253032645433
:10023000253032643A253032643A253032645A2C03
:10024000256C642C256C642C256C642C25632C2572
:10025000732C25632C25732C25632C25732C256387
:100260002C256C642C2564002A302558002A25583A
:10027000002530326468253032646D002043504DD3
:10028000004E6F20475053005E00207553762F6854
:10029000002042712F6D32006B6D002D2D002075F6
:1002A000532F680043504D20002042712F6D3200C3
:1002B0004D783D0075532F68200044733D00755301
:1002C0000057726F6E67206D6F64652021002530C6
:1002D00032642F2530326420253032643A253032A2
:1002E000643A25303264002530346C642E25303475
:1002F0006C64002530356C642E2530346C64004A03
:10030000504E007265616420257320302025640002
:1003100000000007000201000003040600000000C6
:1003200000000000010204081020408001020408BF
:10033000102001020408102004040404040404042E
:10034000020202020202030303030303000000008F
:1003500023002600290000000000250028002B00B3
:1003600000000000240027002A0000C20100010054
:1003700005000500030000E1000001000F000F0070
:100380000D0000960000020019001A001700127AF2
:1003900000000700200021001D00807000000B00FD
:1003A000230023002000004B00001400370037001A
:1003B0003400403800001E004B004B0048008025F0
:1003C00000003200720072007000C01200006E0067
:1003D000E900E900E60060090000E500D801D80165
:1003E000D501B0040000D301B403B403B1032C0160
:1003F00000006707DD0EDD0EDA0E00000000003E93
:100400005B4F5B3E3E6B4F6B3E1C3E7C3E1C183C84
:100410007E3C181C577D571C1C5E7F5E1C00183CE0
:100420001800FFE7C3E7FF0018241800FFE7DBE729
:10043000FF30483A060E2629792926407F05050710
:10044000407F05253F5A3CE73C5A7F3E1C1C08086C
:100450001C1C3E7F14227F22145F5F005F5F060931
:100460007F017F006689956A606060606094A2FF8A
:10047000A29408047E040810207E201008082A1C7C
:1004800008081C2A08081E101010100C1E0C1E0C48
:1004900030383E3830060E3E0E06000000000000E8
:1004A000005F00000007000700147F147F14242A57
:1004B0007F2A122313086462364956205000080729
:1004C0000300001C2241000041221C002A1C7F1C4A
:1004D0002A08083E0808008070300008080808084C
:1004E000000060600020100804023E5149453E00B3
:1004F000427F400072494949462141494D33181411
:10050000127F1027454545393C4A4949314121115F
:1005100009073649494936464949291E0000140051
:100520000000403400000008142241141414141474
:10053000004122140802015909063E415D594E7CD2
:100540001211127C7F494949363E414141227F4187
:1005500041413E7F494949417F090909013E4141E5
:1005600051737F0808087F00417F41002040413FD0
:10057000017F081422417F404040407F021C027FDF
:100580007F0408107F3E4141413E7F090909063E34
:100590004151215E7F091929462649494932030103
:1005A0007F01033F4040403F1F2040201F3F403815
:1005B000403F631408146303047804036159494DF0
:1005C00043007F4141410204081020004141417F26
:1005D000040201020440404040400003070800209C
:1005E000545478407F28444438384444442838449C
:1005F00044287F385454541800087E090218A4A4D3
:100600009C787F0804047800447D40002040403DF1
:10061000007F1028440000417F40007C047804786B
:100620007C080404783844444438FC1824241818FE
:10063000242418FC7C08040408485454542404045A
:100640003F44243C4040207C1C2040201C3C403047
:10065000403C44281028444C9090907C4464544C76
:1006600044000836410000007700000041360800D1
:10067000020102040200407A10F35A00A0724E18E0
:10068000090010A5D4E80000E87648170000E40B44
:1006900054020000CA9A3B000000E1F5050000800A
:1006A000969800000040420F000000A08601000064
:1006B00000102700000000E80300000000640000B4
:1006C0000000000A00000000000100000000002CF3
:1006D00076D888DC674F0823DFC1DFAE59E1B1B7B8
:1006E00096E5E3E453C63AE651997696E8E6C28485
:1006F00026EB898C9B62ED407C6FFCEFBC9C9F409D
:10070000F2BAA56FA5F490055A2AF75C936B6CF9C1
:10071000676DC11BFCE0E40D47FEF520E6B500D097
:10072000ED902E0300943577050080841E080000AC
:10073000204E0A000000C80C333333330F986E127A
:10074000831141EF8D2114893BE65516CFFEE6DB80
:1007500018D1844B381BF77C1D901DA4BBE42420CA
:100760003284725E228100C9F124ECA1E53D2700AC
:10077000F912DE22D72DFE1211241FBECFEFD8E0D2
:10078000DEBFCDBF14E0A0E0B1E0EAEBF2E702C0CB
:1007900005900D92AE30B107D9F718E0AEE0B4E0A5
:1007A00001C01D92A832B107E1F717E0C6E7D7E014
:1007B00004C02297FE010E944C39C037D107C9F707
:1007C0000E9401240C94E6030C940000F8940C940D
:1007D0005039EF92FF920F931F938130910569F585
:1007E00085E295E069E04AE02BE00DE03CE0E32E95
:1007F0000E94BE2A89EA94E066E045E020E00E947B
:100800002A2684E394E061E00E94281788E194E0BE
:1008100068E047E020E00E942A268EE094E069EA42
:1008200074E046E755E02EE435E003EA15E0E4E63F
:10083000EE2EF12C0E9490130AC0009741F488E13B
:1008400094E00E942D2789EA94E00E942D271F91B1
:100850000F91FF90EF9008958EE00E947A209C0106
:10086000B901882777FD8095982F0E94573120E0A5
:1008700030E040E85AE30E94703220E030E040E28D
:1008800051E40E94703224EB35EC4AEC5DE30E94A7
:10089000BC30462F572F682F792FCB01BA0108950E
:1008A0001F93CF93DF93182FC0E0D0E0219689EA01
:1008B00094E00E945C24009779F089EA94E00E9419
:1008C0000E24AC01112319F02EE330E002C02CE31A
:1008D00030E04217530751F06AE070E080E090E0AA
:1008E0000E941320C83CD10509F704C081E0C83C30
:1008F000D10509F480E0DF91CF911F9108950F9306
:100900001F93CF93DF9382E161E00E94C72083E1D0
:1009100060E00E94C7208CE396E040E855E260E08A
:1009200070E00E9447228EE094E00E94831689EADC
:1009300094E040E855E260E070E00E94572684E0D1
:1009400061E00E94C72089EA94E00E947B2484E051
:1009500060E00E94FB2064E670E080E090E00E948E
:10096000132084E061E00E94FB2081E00E9450049B
:10097000882321F481E080930B0503C081E08093FC
:10098000A8048091A804882331F08EE094E060E010
:1009900071E00E94E91380E090E048E853E160E0F4
:1009A00070E00E9417130E94321388E194E040E83F
:1009B00055E260E070E00E94572688E194E00E94D2
:1009C0007B24C3EAD5E004E6DE01E02F1D92EA9520
:1009D000E9F700D000D0ADB7BEB71296DC93CE9346
:1009E000119781E491E014969C938E9313970E9443
:1009F000C5330F900F900F900F9088E194E0BE01E7
:100A00000E947023FE01802F11928A95E9F700D091
:100A100000D0ADB7BEB71296DC93CE93119783E7A3
:100A200091E014969C938E9313970E94C5330F9078
:100A30000F900F900F9088E194E0BE010E94702308
:100A4000FE01802F11928A95E9F700D000D0ADB752
:100A5000BEB71296DC93CE93119784E891E014967A
:100A60009C938E9313970E94C5330F900F900F9015
:100A70000F9088E194E0BE010E947023FE01119264
:100A80000A95E9F700D000D0ADB7BEB71296DC9357
:100A9000CE93119784E991E014969C938E931397CB
:100AA0000E94C5330F900F900F900F9088E194E053
:100AB000BE010E9470230EE415E068EC70E001C0F6
:100AC000BE01EB01219687E697E00E943527F801E9
:100AD00081938F01C03DD10599F783E00E94772073
:100AE00085E295E062E04CE30E94462B85E295E0CA
:100AF0000E94512C68EE73E080E090E00E94132089
:100B000085E295E00E94CF2A85E295E061E070E001
:100B10000E942A2A85E295E061E00E94242A00D002
:100B200000D000D0EDB7FEB73196C6E5D5E0ADB741
:100B3000BEB71296DC93CE93119785E091E0938334
:100B400082838DE091E0958384830E94C533099070
:100B50000020E9F7EDB7FEB736960FB6F894FEBF62
:100B60000FBEEDBFC655D540CE01880F991F8C0F23
:100B70009D1F880F991F60E870E0681B790B7695C0
:100B8000679585E295E040E050E00E941E2A809142
:100B90007A05882329F485E295E063E171E004C0D9
:100BA00085E295E065E171E00E94432385E295E0EE
:100BB00066E575E00E94432385E295E068E070E019
:100BC00048E050E00E941E2A0E942C0420E030E001
:100BD00040EF51E40E94EE2F20E030E048E451E481
:100BE0000E9470320E9424316C5E7F4F77FD04C0FA
:100BF0006536710524F405C061E070E002C064E66A
:100C000070E000D000D000D0EDB7FEB73196C6E559
:100C1000D5E0ADB7BEB71296DC93CE93119784E1C1
:100C200091E093838283758364830E94C533EDB71B
:100C3000FEB736960FB6F894FEBF0FBEEDBF85E245
:100C400095E0BE010E94432300D000D0ADB7BEB7EF
:100C50001296DC93CE93119782E291E014969C93C6
:100C60008E9313970E94C5330F900F900F900F90A3
:100C700085E295E0BE010E94432385E295E067E3AB
:100C800070E040E150E00E941E2A00D000D000D069
:100C9000EDB7FEB73196ADB7BEB71296DC93CE93E3
:100CA000119785E291E093838283809197059091DB
:100CB0009805958384830E94C533EDB7FEB73696B9
:100CC0000FB6F894FEBF0FBEEDBF85E295E0BE0102
:100CD0000E94432300D000D0ADB7BEB71296DC937C
:100CE000CE9311978EE291E014969C938E93139776
:100CF0000E94C5330F900F900F900F9085E295E002
:100D0000BE010E94432385E295E068E070E040E187
:100D100050E00E941E2A00D000D000D0EDB7FEB7F0
:100D20003196ADB7BEB71296DC93CE93119782E39E
:100D300091E0938382838091A205848315820E942F
:100D4000C533EDB7FEB736960FB6F894FEBF0FBEAB
:100D5000EDBF85E295E0BE010E94432385E295E068
:100D600061E00E94242A85E295E065E570E048E0B4
:100D700050E00E941E2A00D000D000D0EDB7FEB790
:100D80003196ADB7BEB71296DC93CE9311978BE335
:100D900091E09383828380918C0590918D0595835A
:100DA00084830E94C533EDB7FEB736960FB6F8942C
:100DB000FEBF0FBEEDBF85E295E0BE010E9443235A
:100DC00085E295E061E00E94242A80917C058823D9
:100DD00001F1CCE7D5E0FE0101900020E9F7ED57E5
:100DE000F540CF01880F991F8E0F9F1F880F991F05
:100DF00060E870E0681B790B7695679585E295E071
:100E000048E150E00E941E2A85E295E0BE010E9462
:100E1000432385E295E00E94512C68E273E280E072
:100E200090E00E941320DF91CF911F910F910895C0
:100E30008F929F92BF92CF92DF92EF92FF920F9389
:100E40001F93CF93DF93B82E6A017B014901CB0139
:100E5000BA010E94553120E030E543EC57E40E948E
:100E6000BC300E942931EB01182F092F20EA36E807
:100E700041E050E00E94AB38DC01CB01A7019601B4
:100E8000281B390B4A0B5B0BCA01B9012AE030E081
:100E900040E050E00E94F1388DB79EB70C97BB2020
:100EA00089F00FB6F8949EBF0FBE8DBFEDB7FEB7A9
:100EB0003196ADB7BEB712969C928E92119787EE7F
:100EC00092E010C00FB6F8949EBF0FBE8DBFEDB775
:100ED000FEB73196ADB7BEB712969C928E9211971F
:100EE00083EF92E093838283C483D5831683078341
:100EF00020873187428753870E94C5332DB73EB77D
:100F0000245F3F4F0FB6F8943EBF0FBE2DBFDF9159
:100F1000CF911F910F91FF90EF90DF90CF90BF90F6
:100F20009F908F900895CF92DF92EF92FF920F9350
:100F30001F93CF93DF930E94553120E836E948E1B3
:100F40005BE40E94BC308B01D82FC92FCE01402F0B
:100F5000512F692F782FCB01BA010E9424318827A5
:100F600077FD8095982F0E9457316B017C019E017F
:100F7000802F912FA32FB22FBC01CD01A701960185
:100F80000E94EE2F20E030E040E752E40E94BC30A7
:100F900020E030E048EC52E40E947032462F572F98
:100FA000682F792FCB01BA01A70196010E94EF2F7C
:100FB000462F572F682F792FCB01BA01DF91CF91A0
:100FC0001F910F91FF90EF90DF90CF9008952F9297
:100FD0003F924F925F926F927F928F929F92AF92C9
:100FE000BF92CF92DF92EF92FF920F931F93CF9316
:100FF000DF93CDB7DEB7AC970FB6F894DEBF0FBE68
:10100000CDBF83E10E947A2021E0853F92071CF04A
:1010100010927A0507C081E080937A0582E160E052
:101020000E94FB200E942C0420E030E040EF51E4BD
:101030000E94EE2F0E942431DC01CB011816190604
:101040004CF068EE73E080E090E00E94132081E0B5
:1010500080937A0588E194E00E947B240E94D71F48
:101060006B017C010FC088E194E00E940E24682F80
:1010700084E394E00E946F1B88E194E00E945C246A
:10108000009789F70E94D71FAB01BC01D701C601A9
:10109000841B950BA60BB70BC416D506E606F70600
:1010A00020F480959095A095B095883E33E0930705
:1010B00030E0A30730E0B30710F00C94DA120E947E
:1010C00047130097C9F20C94DA120E948713698FB4
:1010D0007A8F8B8F9C8F0E9432138091D7049091CE
:1010E000D804A091D904B091DA04FC01EE0FFF1FDF
:1010F000EE0FFF1FE552FB4F298D3A8D4B8D5C8D16
:1011000020833183428353830196A11DB11DBC010D
:10111000CD012CE030E040E050E00E94F138DC01ED
:10112000CB018093D7049093D804A093D904B093B3
:10113000DA04EBEDF4E080E090E0DC0141915191C4
:1011400061917191840F951FA61FB71F35E0EB3099
:10115000F307A1F7BC01CD010E9455316B017C0161
:1011600022EB35EC4CEF55E30E9470329B01AC0151
:1011700060E070E080E89FE30E94EE2F9B01AC01ED
:10118000C701B6010E94BC300E9429316D8B7E8B55
:101190008F8B988F8091D3049091D404A091D50423
:1011A000B091D604298D3A8D4B8D5C8D820F931FA3
:1011B000A41FB51F8093D3049093D404A093D504A7
:1011C000B093D6048091CB049091CC04A091CD042F
:1011D000B091CE040596A11DB11D8093CB049093D0
:1011E000CC04A093CD04B093CE048091CF04909111
:1011F000D004A091D104B091D2042D893E894F89A9
:10120000588D82179307A407B50740F42093CF04A5
:101210003093D0044093D1045093D20480914E0572
:1012200090914F05A0915005B0915105298D3A8DAF
:101230004B8D5C8D820F931FA41FB51F80934E05AD
:1012400090934F05A0935005B0935105809152059E
:1012500090915305A0915405B09155050596A11D97
:10126000B11D8093520590935305A0935405B093FC
:101270005505BC01CD0120E13EE040E050E00E9478
:10128000F138DC01CB010097A105B105A1F40EE412
:1012900015E068EC70E0780101C0B8018B010F5FC8
:1012A0001F4FD7014D917D0187E697E00E943927B6
:1012B000003D110591F78091C5049091C6048C30D2
:1012C00091054CF426E52093C00101969093C60445
:1012D0008093C5040EC02D893E894F89588D2115F4
:1012E00031054105510511F486E501C081E4809383
:1012F000C00180910B05882309F046C18091BF0190
:10130000813409F041C18DED97E098878F831E826B
:101310001D821C821B821A82198284E394E0BE0122
:10132000695F7F4FAE014A5F5F4F9E012B5F3F4F6A
:101330008E010C5F1F4FE3E0EE2EF12CEC0EFD1E34
:10134000F2E0CF2ED12CCC0EDD1E5E010894A11C44
:10135000B11CA1E18A2E912C8C0E9D1E0E94CB1DEA
:1013600089899A89AB89BC898F3F3FEF93073FEF0B
:10137000A3073FEFB30709F407C14DB75EB74A5063
:1013800050400FB6F8945EBF0FBE4DBFEDB7FEB72D
:1013900031968CE095E0ADB7BEB712969C938E93D4
:1013A000119784EA91E09383828380918C059091D8
:1013B0008D05958384838E81868317828D818087B6
:1013C00011860E94C53381E080930B05EDB7FEB70F
:1013D0003A960FB6F894FEBF0FBEEDBF89EA94E0CF
:1013E0000E947B2489EA94E067E171E00E94432334
:1013F00089EA94E06CE075E00E94432389EA94E076
:101400006DE00E94042580E00E945004882391F43E
:1014100084E060E00E94FB2064E670E080E090E001
:101420000E94132084E061E00E94FB2081E00E9482
:101430005004D8CF00D000D006E515E0ADB7BEB758
:1014400012961C930E93119785EB91E014969C9342
:101450008E9313970E94C5330F900F900F900F90AB
:1014600089EA94E0B8010E94432300D000D0EDB790
:10147000FEB71283018389EC91E0948383830E94F9
:10148000C5330F900F900F900F9089EA94E0B80148
:101490000E94432300D000D0ADB7BEB712961C9374
:1014A0000E9311978FEC91E014969C938E93139763
:1014B0000E94C5330F900F900F900F9089EA94E02F
:1014C000B8010E944323EDB7FEB774970FB6F894A6
:1014D000FEBF0FBEEDBFCDB6DEB60894C11CD11C59
:1014E00003EA15E01283018383EE91E0D60113969F
:1014F0009C938E9312978CE795E015969C938E9310
:1015000014972091990516962C93169717961C926E
:1015100017974E9619969C938E93189760918F0506
:101520007091900580919105909192050E942431CF
:10153000DC01CB01F6019387828780919E05848729
:10154000158680919F05868717868091A0059091CA
:10155000A105918B808B8091A205828B138A0E94BA
:10156000C5332DB73EB72C5E3F4F0FB6F8943EBF44
:101570000FBE2DBF89EA94E0B8010E9443238CE39B
:1015800096E0B8010E94432384E6E3EAF5E0DF0138
:101590001D928A95E9F78DED97E098878F831982E0
:1015A0001A821B821C821D821E82198A1A8A1B8A39
:1015B0001C8A1D861E861F86188A8CE0E7E0F6E0EE
:1015C000DF01282F1D922A95E9F7E3E1F6E0DF011C
:1015D0001D928A95E9F780E2E6E5F5E0DF011D92CC
:1015E0008A95E9F784E394E0BE01695F7F4FAE011D
:1015F0004F5F5F4F9E012E5F3F4F8E010D5F1F4F6C
:10160000A4E0EA2EF12CEC0EFD1EB5E0CB2ED12C81
:10161000CC0EDD1EA6E0AA2EB12CAC0EBD1EB9E08C
:101620008B2E912C8C0E9D1E0E94CB1D89859A8538
:10163000AB85BC858F3FEFEF9E07EFEFAE07EFEF77
:10164000BE0751F48CED97E098878F8319821A8238
:101650001B821C821D821E8284E394E0BE016F5EA9
:101660007F4FAE01435F5F4F9E01275F3F4F0E9458
:10167000391D80919C04882311F486E501C081E422
:101680008093BF0184E394E00E94A31E6BA37CA31C
:101690008DA39EA384E394E00E94E91E6D8F7E8F4C
:1016A0008F8F98A320917404309175043AA329A3D5
:1016B000C0906C04D0906D04E0906E04F0906F04C4
:1016C00089899A89AB89BC89B7FF0EC0B095A0956E
:1016D000909581959F4FAF4FBF4F898B9A8BAB8B66
:1016E000BC8B53E5B52E02C04EE4B42E8D859E858D
:1016F000AF85B889B7FF0EC0B095A095909581953C
:101700009F4FAF4FBF4F8D879E87AF87B88B37E511
:10171000432E02C025E4422E49895A896B897C896F
:101720004F3F39EC53073AE963073BE3730719F47A
:1017300040E050E0BA0181E027E036E00E9418075F
:101740004D855E856F8578894F3F89EC58078AE91A
:1017500068078BE3780719F440E050E0BA0180E0B5
:1017600023E136E00E9418075BA14CA13DA12EA108
:10177000852F942FA32FB22FBC01CD012091C3033D
:101780003091C4034091C5035091C6030E94B53007
:10179000882321F470E060E090E004C07BA16CA19C
:1017A0009DA18EA1AB019C01852F962FA32FB22F57
:1017B000BC01CD0140E022E006E515E00E94443383
:1017C000E3EAF5E084E6DF011D928A95E9F72090CF
:1017D0008C0530908D052F81388538A72FA329815E
:1017E0003A814B815C816D818091D3049091D404C6
:1017F000A091D504B091D60489A79AA7ABA7BCA79E
:101800007091C001A090BF014F01A9A1BAA1AF3F43
:10181000B10519F400E010E002C009A11AA1BFEF60
:10182000CB16BFEFDB06BFEFEB06BFEFFB0619F4ED
:10183000CC24DD247601EDB7FEB7F4970FB6F8940B
:10184000FEBF0FBEEDBF3196ADB7BEB712969C92EC
:101850008E92119788E1682E82E0782E73826282E0
:101860009FE1692E91E0792E75826482378226820B
:101870008FA198A591878087228713863487158644
:1018800046871786508B118A628B138A2D893E8971
:101890004F89588D248B358B468B578B898D9A8D2C
:1018A000AB8DBC8D808F918FA28FB38F29A53AA568
:1018B0004BA55CA5248F358F468F578F70A311A23F
:1018C00087E096E093A382A3B4A215A283E196E0F9
:1018D00097A386A340A611A686E595E093A782A7C5
:1018E000A4A615A617A706A7C0AAD1AAE2AAF3AA7A
:1018F0000E94C533F40101900020E9F73197E35AC3
:10190000F5408E2F90E0DC01AD55BA4F1C9240910E
:10191000A405E5EAF5E02DB73EB72C5C3F4F0FB6C6
:10192000F8943EBF0FBE2DBF21E030E004C05191BE
:1019300045272F5F3F4F28173907CCF3403170F40C
:1019400000D000D000D02DB73EB72F5F3F4FEDB78E
:10195000FEB7B283A18388E692E00DC000D000D02C
:1019600000D02DB73EB72F5F3F4FEDB7FEB7B28324
:10197000A1838DE692E0D90113969C938E931297E2
:1019800014964C93149715961C920E94C533EDB78C
:10199000FEB736960FB6F894FEBF0FBEEDBF80912E
:1019A0009C04882309F4ACC069897A898B899C8955
:1019B0000E9493072B013C016D857E858F85988958
:1019C0000E949307698F7A8F8B8F9C8F6D8D7E8D90
:1019D0008F8D98A120E030E040EA50E40E9465320B
:1019E000181624F039E1832E912C03C025E0822EB5
:1019F000912C6D8D7E8D8F8D98A120E030E040E29E
:101A000051E40E94653218161CF49AE0892E912C3C
:101A10006D8D7E8D8F8D98A120E030E040E751E400
:101A20000E94653218161CF484E1882E912C809156
:101A3000C1018823B9F040921D0550921E056092A5
:101A40001F0570922005298D3A8D4B8D5C8D20935A
:101A500021053093220540932305509324051092CD
:101A6000C1014EC0E0901D05F0901E0500911F05BC
:101A700010912005A0902105B0902205C09023056B
:101A8000D0902405C301B201298D3A8D4B8D5C8D18
:101A90000E94F81B0E942431AB01BC01C401AA279B
:101AA00097FDA095BA2F84179507A607B70740F5AD
:101AB0008091190590911A05A0911B05B0911C0504
:101AC000840F951FA61FB71F8093190590931A05C1
:101AD000A0931B05B0931C0540921D0550921E0556
:101AE00060921F0570922005898D9A8DAB8DBC8DFB
:101AF0008093210590932205A0932305B09324059C
:101B000085E295E00E94CF2A80917A05882309F02A
:101B100075C2C090CB04D090CC04E090CD04F0907E
:101B2000CE04C701B60120E13EE040E050E00E9453
:101B3000F13829013A015092CA044092C90484EC58
:101B40009FEF289F5001299FB00C389FB00C1124A3
:101B5000C701B6012CE330E040E050E00E94F138CC
:101B6000A20EB31EB092C804A092C704ADB7BEB710
:101B700018970FB6F894BEBF0FBEADBFEDB7FEB756
:101B8000319606E515E012961C930E93119781E7A6
:101B900092E09383828355824482B782A6820E9418
:101BA000C533EDB7FEB738960FB6F894FEBF0FBE3B
:101BB000EDBF85E295E060E570E040E150E00E9415
:101BC0001E2A85E295E061E00E94242A85E295E0E4
:101BD00061E070E00E942A2A85E295E0B8010E9447
:101BE00070238091C001813441F48091BF01813420
:101BF00021F482E161E00E94FB2085E295E060E053
:101C000070E040E050E00E941E2A85E295E062E02C
:101C10000E94242A8091C001863549F485E295E02E
:101C200060E070E041E050E00E94302A06C085E2AA
:101C300095E061E070E00E942A2A2D893E894F8953
:101C4000588D293E83E0380780E0480780E0580738
:101C5000D0F0CA01B9010E94553120E030E04AE7D6
:101C600054E40E94BC3043E022E006E515E00E9407
:101C7000443385E295E0B8010E94432385E295E074
:101C800065E271E00FC06D897E898F89988D0E9411
:101C9000553140E020E006E515E00E94443385E23E
:101CA00095E0B8010E94432300D000D006E515E07E
:101CB000ADB7BEB712961C930E9311978CE792E0C6
:101CC00014969C938E9313970E94C5330F900F9098
:101CD0000F900F9085E295E0B8010E944323809118
:101CE000A804882379F480911F069091200600971C
:101CF00049F085E295E060E070E041E050E00E944C
:101D0000302A06C085E295E061E070E00E942A2A50
:101D100085E295E061E00E94242A80919C0406E51A
:101D200015E0882399F485E295E06CE570E040E0E9
:101D300050E00E941E2A00D000D0EDB7FEB71283FB
:101D4000018381E892E0948383833AC085E295E041
:101D50006EE670E040E050E00E941E2A00D000D005
:101D600000D0EDB7FEB73196ADB7BEB712961C9353
:101D70000E93119787E291E09383828329A13AA180
:101D8000358324830E94A3334DB75EB74A5F5F4F0C
:101D90000FB6F8945EBF0FBE4DBF85E295E0B80167
:101DA0000E94432300D000D0ADB7BEB712961C935B
:101DB0000E93119788E892E014969C938E93139754
:101DC0000E94C5330F900F900F900F9085E295E021
:101DD000B8010E94702385E295E061E070E00E9406
:101DE0002A2A85E295E060E070E040E150E00E9440
:101DF0001E2A80917B05882349F56D897E898F890C
:101E0000988D0E94553120918F0530919005409119
:101E10009105509192050E94BC3006E5C02E05E068
:101E2000D02E40E023E086010E94443385E295E015
:101E3000B6010E94432300D000D0EDB7FEB7D28296
:101E4000C1828AE892E0948383832EC08130B9F501
:101E50006D897E898F89988D0E94553120919305D7
:101E60003091940540919505509196050E947032ED
:101E700016E5C12E15E0D12E40E023E086010E9438
:101E8000443385E295E0B6010E94432300D000D0A0
:101E9000ADB7BEB71296DC92CE92119781E992E06F
:101EA00014969C938E9313970E94C5330F900F90B6
:101EB0000F900F9085E295E0B6010E94702380910B
:101EC0001F0690912006B6E5CB2EB5E0DB2E0097DD
:101ED00009F446C06091190570911A0580911B059F
:101EE00090911C050E94553120E030E04AE754E40F
:101EF0000E94BC3040E021E086010E944433F6019C
:101F000001900020E9F73197EC19FD09CF01880F06
:101F1000991F8E0F9F1F880F991F64E770E0681B41
:101F2000790B85E295E048E050E00E941E2A85E2A8
:101F300095E0B6010E94432300D000D0EDB7FEB774
:101F4000D282C18288E992E0948383830E94C53360
:101F50000F900F900F900F9085E295E0B6014BC067
:101F600080919C04882381F05BA14CA13DA12EA10E
:101F7000852F942FA32FB22FBC01CD0140E020E08C
:101F800086010E94443314C000D000D0ADB7BEB764
:101F90001296DC92CE9211978BE992E014969C9364
:101FA0008E9313970E94C5330F900F900F900F9050
:101FB00006E515E0F80101900020E9F73197E01BF4
:101FC000F10BCF01880F991F8E0F9F1F880F991F4C
:101FD0006AE770E0681B790B85E295E048E050E025
:101FE0000E941E2A85E295E0B8010E94432385E203
:101FF00095E06BE271E00E9470233BC2813009F0F2
:1020000008C282E160E00E94FB20809197059091D8
:102010009805A0E0B0E02D893E894F89588D821740
:102020009307A407B50718F482E161E002C082E1DA
:1020300060E00E94FB208091C001863549F485E272
:1020400095E060E070E041E050E00E94302A06C078
:1020500085E295E061E070E00E942A2A0E942C044B
:1020600020E030E040EF51E40E94EE2F0E94243146
:10207000DC01CB01181619064CF085E295E060E012
:1020800070E041E050E00E94302A06C085E295E011
:1020900061E070E00E942A2A85E295E062E00E94F9
:1020A000242A85E295E060E070E040E050E00E9484
:1020B0001E2A6D897E898F89988D0E9455314B012A
:1020C0005C0120918F0530919005409191055091D0
:1020D00092050E94BC30B6E5CB2EB5E0DB2E40E089
:1020E00022E086010E94443385E295E0B6010E9419
:1020F000432300D000D0ADB7BEB71296DC92CE928B
:1021000011978EE992E014969C938E9313970E94F8
:10211000C5330F900F900F900F9085E295E0B601B8
:102120000E94432385E295E060E070E040E150E0EA
:102130000E941E2A85E295E061E00E94242A85E241
:1021400095E061E070E00E942A2A80911F0690913C
:102150002006009709F48AC00E942C0420E030E099
:1021600040EF51E40E94EE2F0E942431DC01CB01AC
:10217000181619060CF089C02D893E894F89588D93
:10218000293E83E0380780E0480780E05807B8F030
:10219000C501B40120E030E04AE754E40E94BC30BD
:1021A00043E022E086010E94443385E295E0B601D7
:1021B0000E94432385E295E065E271E00EC085E26E
:1021C00095E04D895E896F89788D2AE030E00E9424
:1021D000F22385E295E063E471E00E94432300D09E
:1021E00000D0A6E5CA2EA5E0DA2EADB7BEB712968E
:1021F000DC92CE92119784EA92E014969C938E938F
:1022000013970E94C5330F900F900F900F9085E2A7
:1022100095E0B6010E944323C501B40120919305C6
:102220003091940540919505509196050E94703229
:1022300040E020E086010E94443385E295E0B6014B
:102240000E94432300D000D0EDB7FEB7D282C182F6
:1022500089EA92E0948383830E94C5330F900F90A4
:102260000F900F9085E295E0B60101C10E942C0409
:1022700020E030E040EF51E40E94EE2F0E94243134
:10228000DC01CB01181619066CF085E295E060E0E0
:1022900070E041E050E00E94302A85E295E06DE276
:1022A00071E0E5C000D000D0ADB7BEB71296DC92A9
:1022B000CE92119780EB92E014969C938E93139795
:1022C0000E94C5330F900F900F900F9085E295E01C
:1022D000B6010E9443236091CF047091D004809195
:1022E000D1049091D2040E94553120918F053091F4
:1022F000900540919105509192050E94BC3040E0BC
:1023000021E086010E94443385E295E0B6010E94F7
:10231000432300D000D0EDB7FEB7D282C18284EB58
:1023200092E0948383830E94C5330F900F900F90A7
:102330000F9085E295E0B6010E94432300D000D0C3
:10234000ADB7BEB71296DC92CE9211978AEB92E0AF
:1023500014969C938E9313970E94C5330F900F9001
:102360000F900F9085E295E0B6010E9443236091A3
:1023700052057091530580915405909155050E9426
:1023800055314B015C0160914E0570914F05809174
:102390005005909151050E9455312B013C01C5011A
:1023A000B40120E030E040E752E40E94BC309B01E1
:1023B000AC01C301B2010E94BC3020918F05309165
:1023C000900540919105509192050E94BC302B01DF
:1023D0003C01C501B40120E030E041E655E40E9433
:1023E000BC309B01AC01C301B2010E94703240E0DD
:1023F00020E00E94443385E295E0B6010E94432329
:1024000000D000D0EDB7FEB7D282C1828EEB92E051
:1024100021CF85E295E060E070E040E050E00E946E
:102420001E2A85E295E062E00E94242A85E295E07A
:1024300060E070E041E050E00E94302A00D000D01F
:1024400006E515E0ADB7BEB712961C930E93119733
:1024500081EC92E014969C938E9313970E94C5335F
:102460000F900F900F900F9085E295E0B8010E94B9
:102470004323EDB7FEB73E970FB6F894FEBF0FBEED
:10248000EDBF319606E515E0ADB7BEB712961C93C9
:102490000E9311978EEC92E0938382838A818483DA
:1024A00015828981868317828B81808711868C8132
:1024B000828713868D81848715860E94C533EDB788
:1024C000FEB73E960FB6F894FEBF0FBEEDBF85E295
:1024D00095E060E070E048E150E00E941E2A85E24D
:1024E00095E061E00E94242A85E295E061E070E0D9
:1024F0000E942A2A85E295E0B8010E9470230E947A
:102500002C0420E030E040EF51E40E94EE2F0E94C6
:1025100024316B017C0177FD04C06930710524F41E
:1025200006C0CC24DD2403C0F8E0CF2ED12C85E2F8
:1025300095E064E770E048E150E02CE030E007E02F
:1025400010E0E1E0EE2EF12C0E940A2885E295E0F1
:1025500066E770E04AE150E0960103E010E00E9477
:10256000952885E295E00E94512C80911F0690915C
:10257000200621E030E08227932790932006809365
:102580001F068CE396E063EA75E00E947023809159
:102590000B058823A9F080917A05882389F489EABC
:1025A00094E00E947B2489EA94E063EA75E00E944B
:1025B000702306C00E944713009711F00C94650821
:1025C000AC960FB6F894DEBF0FBECDBFDF91CF91B2
:1025D0001F910F91FF90EF90DF90CF90BF90AF9041
:1025E0009F908F907F906F905F904F903F902F9033
:1025F000089581E090E00E94E903089580E090E072
:102600000E94E90308958091210690912206A091ED
:102610002306B09124060196A11DB11D80932106C9
:1026200090932206A0932306B093240608958093E6
:102630002D0690932E064093250650932606609310
:1026400027067093280610922106109222061092F7
:1026500023061092240663E073E143E050E00E94F9
:10266000131F08950E94D71FDC01CB018093290618
:1026700090932A06A0932B06B0932C061092210665
:102680001092220610922306109224060895CF92EB
:10269000DF92EF92FF920F931F930E94D71FDC01EE
:1026A000CB014091290650912A0660912B0670912A
:1026B0002C060091250610912606209127063091C0
:1026C000280684179507A607B70748F06C017D0117
:1026D000C41AD50AE60AF70AB701A60108C0409550
:1026E000509560957095480F591F6A1F7B1F81E0B8
:1026F00090E0401751076207730710F480E090E004
:102700001F910F91FF90EF90DF90CF90089560910F
:102710002106709122068091230690912406089547
:10272000EF92FF920F931F93FC0171836083538399
:1027300042833583248317830683F186E0861F91C5
:102740000F91FF90EF900895EF92FF920F931F93D8
:10275000CF93DF93EB012DE2E22EF12C8C01061BCF
:10276000170BBE01600F711F499187E697E00E9429
:1027700039270894E108F108E114F10491F78DE29A
:1027800090E0DF91CF911F910F91FF90EF9008950E
:10279000EF92FF920F931F93CF93DF937C018B01F6
:1027A000C0E0D0E0F80141918F01BE016E0D7F1DA8
:1027B00087E697E00E9439272196C830D10591F726
:1027C00088E090E0DF91CF911F910F91FF90EF9003
:1027D00008957F928F929F92AF92BF92CF92DF9295
:1027E000EF92FF920F931F93CF93DF935C01EB0166
:1027F000DC018D919C910E947B24EDB7FEB7389748
:102800000FB6F894FEBF0FBEEDBF3196D5011696F8
:102810008D919C911797ADB7BEB712969C938E93EE
:10282000119783E093E093838283D583C483D5019A
:1028300018968D919C911997978386830E94C53332
:10284000EDB7FEB738960FB6F894FEBF0FBEEDBFDA
:10285000D50116966D917C9117978D919C910E9450
:102860004323F50180819181DC01ED91FC91019080
:10287000F081E02D6DE00995F50180819181DC0109
:10288000ED91FC910480F581E02D09950097A1F36D
:10289000F50180819181DC01ED91FC910680F78149
:1028A000E02D09958D30910539F7F5014085518569
:1028B0008681978160E070E00E948433C0E0D0E0C0
:1028C0007724D5018D919C91DC01ED91FC910480E0
:1028D000F581E02D0995009791F0F501C681D7812A
:1028E000C70DD11D80819181DC01ED91FC910680A5
:1028F000F781E02D099588837394C0E0D0E061E012
:1029000070E080E090E00E941320272D30E0F50178
:10291000808591852817390729F02196F3E0C83E74
:10292000DF077CF288249924D2C1D50116966D91D7
:102930007C911797DB01A80DB11D40E009C04F5FE6
:10294000882D90E0F501208531858217930739F0B5
:10295000FB01E80DF11D808183948A3081F7FD0130
:10296000E40FF11D10828C91882309F4B0C18332E9
:1029700009F4ADC1433008F4AAC180E0ED01C80FED
:10298000D11D9881903211F0993051F48F5F8417E6
:10299000A9F79DC1903211F0993009F410828F5F30
:1029A000841709F494C1FD01E80FF11D90819D3356
:1029B00089F7841709F48BC110828F5F8D01080F8E
:1029C000111DF8019081903211F0993021F48F5F40
:1029D0008417A1F77CC1841709F479C1CE0165E49D
:1029E00071E00E948B33009779F5C8010E9466332D
:1029F0009C01B901882777FD8095982F0E94573157
:102A0000EB01F82EE92ED5011296CD90DC901397AC
:102A1000F601618D728D838D948DA7010C2F1D2F72
:102A2000252F342FA90198010E94B530882309F47D
:102A30004EC197018C2F9D2FA32FB22FF601818FAE
:102A4000928FA38FB48F35C0CE016AE471E00E94EB
:102A50008B33009789F5C8010E9466339C01B90148
:102A6000882777FD8095982F0E945731EB01F82E2B
:102A7000E92ED5011296CD90DC901397F601658D65
:102A8000768D878D90A1A7010C2F1D2F252F342F18
:102A9000A90198010E94B530882309F418C1970153
:102AA0008C2F9D2FA32FB22FF601858F968FA78F86
:102AB000B0A3992493940BC1CE016FE471E00E94FE
:102AC0008B33009739F4D5011296CD91DC91139791
:102AD00026966BC0CE0162E571E00E948B330097B1
:102AE00081F4F501C281D381C8010E9466339C0143
:102AF0008E899F898217930709F4E9C03F8B2E8B3B
:102B0000D8CFCE0166E571E00E948B33009781F447
:102B1000D5011296CD91DC911397C8010E946633BE
:102B20002C8130E02817390709F4D1C08C83C1CF3C
:102B3000CE0169E571E00E948B33009771F4F501D5
:102B4000C281D381C8010E9466332D8130E02817ED
:102B5000390709F4BCC08D83ACCFCE016CE571E0C0
:102B60000E948B33009791F4D5011296CD91DC91A0
:102B70001397C8010E9466339C0189A19AA182170C
:102B8000930709F4A4C03AA329A393CFCE016FE51C
:102B900071E00E948B330097A1F4F8011382D501F4
:102BA0001296CD91DC911397A496CE01B8010E94A4
:102BB0008B33009709F48BC0CE01B8010E94943387
:102BC00078CFCE0162E671E00E948B33009771F4FA
:102BD000F501C281D381C8010E9466332BA130E088
:102BE0002817390709F473C08BA363CFCE0165E6BC
:102BF00071E00E948B33009781F4D5011296CD913C
:102C0000DC911397C8010E94663328A530E028178D
:102C1000390709F45CC088A74CCFCE0168E671E0A3
:102C20000E948B33009771F4F501C281D381C801F2
:102C30000E94663329A530E02817390709F447C0F8
:102C400089A737CFCE016BE671E00E948B330097E6
:102C500089F4D5011296CD91DC911397C8010E9499
:102C600066339C018AA59BA58217930781F13BA738
:102C70002AA71FCFCE016EE671E00E948B3300972A
:102C800069F4F501C281D381C8010E9466332CA585
:102C900030E028173907D9F08CA70BCFCE0161E7B8
:102CA00071E00E948B33009791F4D5011496EC915A
:102CB00014971596FC9188E0DF011D928A95E9F73B
:102CC000F5016481758188EC90E00E94C813871437
:102CD00008F42BCE992049F0D50112966D917C9184
:102CE000139784EF91E00E94A413DF91CF911F917D
:102CF0000F91FF90EF90DF90CF90BF90AF909F909B
:102D00008F907F900895EF92FF920F931F93CF9330
:102D1000DF938C01DC011296EC9112971396FC91D3
:102D20008DE2DF011D928A95E9F7F801E280F380D8
:102D300064EF71E001C0BE01EB01219687E697E0E8
:102D40000E943527D7018D937D01B2E0C132DB07A8
:102D500091F7D8011296ED91FC91139780819181A2
:102D6000A281B3818D3020EF92072EEFA2072AE5D2
:102D7000B20709F466C08DE2DF011D928A95E9F77A
:102D8000D8011296ED91FC9113978DE090EFAEEF84
:102D9000BAE580839183A283B3838DED97E0978B0F
:102DA000868B89E083A300D000D0F80182819381D3
:102DB0008496ADB7BEB712969C938E9311978FEF02
:102DC00092E014969C938E9313970E94C533D8017A
:102DD0001296ED91FC9113978CE3808F1296ED91F2
:102DE000FC91139780E090E0A7EAB3E4818F928F83
:102DF000A38FB48F80E090E0A4E1B2E4858F968F3A
:102E0000A78FB0A384E690E093A782A70F900F90BE
:102E10000F900F9084EF91E0BF010E94A413D8019E
:102E20001496EC9114971596FC9188E0DF011D92A1
:102E30008A95E9F7F8016481758188EC90E00E9439
:102E4000C813DF91CF911F910F91FF90EF900895DC
:102E5000FC01262F4FEF5FEFBA014083518362835D
:102E6000738310861186128613868FEF99ECAAE978
:102E7000BBE3808B918BA28BB38B808F918FA28FC2
:102E8000B38F80A391A3A2A3B3A380A791A7A2A766
:102E9000B3A780AB91ABA2ABB3AB40AF51AF62AFC6
:102EA00073AFDF01A05CBF4F8FEF90E08D939C93D9
:102EB000DF01AC5BBF4F4D935D936D937C93139794
:102EC000DF01A45BBF4F4D935D936D937C9313978C
:102ED000DF01AC5ABF4F1C92DF01AB5ABF4F1C92AF
:102EE000DF01AB59BF4F82E08C93DF01AA59BF4F7E
:102EF0001C92DF01A959BF4F1C92DF01A859BF4F97
:102F00001C92DF01A659BF4F1D921D921D921C926B
:102F10001397DF01A259BF4F1D921C92DF01A059E8
:102F2000BF4F1D921C92DF01AA5ABF4F1C92E75956
:102F3000FF4F20830895262F2154862F90E02630BE
:102F400010F4C79708956156663018F4875590407D
:102F50000895C0970895EF92FF920F931F93CF9318
:102F60007B0100E010E0980112C0C901B8012AE01D
:102F700030E040E050E00E94AB388B019C010C0F28
:102F8000111D211D311D0053104020403040F7011C
:102F9000C1917F018C2F80538A3038F3B801C90169
:102FA000CF911F910F91FF90EF9008952F923F9234
:102FB0004F925F926F927F928F929F92AF92BF9249
:102FC000CF92DF92EF92FF920F931F93CF93DF93F5
:102FD00026E5E22EF12CE80EF91EB7010E94AB1790
:102FE000EB01182F092FF7012E2F9F2F8191382FDA
:102FF00030533A30C8F38E32A1F5622E792E80E13B
:10300000C82E87E2D82EE12CF12C88249924540173
:103010009AE0292E312C412C512C19C070E06053BC
:103020007040882777FD8095982FA70196010E9410
:10303000AB38DC01CB01880E991EAA1EBB1EC7014E
:10304000B601A20191010E94F13869017A01F301F0
:1030500061810894611C711C862F80538A30F0F2C4
:1030600003C0882499245401BE01812F902F20EAA7
:1030700036E841E050E00E94AB388B019C01080D1E
:10308000191D2A1D3B1DB801C901DF91CF911F9168
:103090000F91FF90EF90DF90CF90BF90AF909F90F7
:1030A0008F907F906F905F904F903F902F900895FA
:1030B0002F923F924F925F926F927F928F929F9248
:1030C000AF92BF92CF92DF92EF92FF920F931F9336
:1030D000CF93DF9356E5C52ED12CC80ED91EB6016D
:1030E0000E94AB17162F072FEC0124E630E040E0DA
:1030F00050E00E94F13820EA36E841E050E00E94BA
:10310000AB384B015C01F6012E2F9F2F8191382F98
:1031100030533A30C8F38E3281F5622E792E30E189
:10312000C32E37E2D32EE12CF12C4AE0242E312C91
:10313000412C512C19C070E060537040882777FDF6
:103140008095982FA70196010E94AB38DC01CB0136
:10315000880E991EAA1EBB1EC701B601A2019101CD
:103160000E94F13869017A01F30161810894611CC0
:10317000711C862F80538A30F0F2C501B4016B5F59
:103180007F4F8F4F9F4F26E030E040E050E00E949D
:10319000F13869017A01612F702FCE0124E630E009
:1031A00040E050E00E94F138CA01B90120E432E465
:1031B0004FE050E00E94AB38DC01CB01C80ED91EB5
:1031C000EA1EFB1EB601C701DF91CF911F910F913F
:1031D000FF90EF90DF90CF90BF90AF909F908F9037
:1031E0007F906F905F904F903F902F900895FF9247
:1031F0000F931F93CF93DF93EC01CA5ADF4FFF2445
:10320000F39428812D3211F0FF2403C0EC01C95A38
:10321000DF4FBE010E94AB1724E630E040E050E0F3
:103220000E94AB388B019C01FE018991982F90532D
:103230009A30D0F38E3251F54181842F80538A30F9
:1032400028F5842F90E0AC01440F551F73E0880FE0
:10325000991F7A95E1F7480F591F405E5140662744
:1032600057FD6095762F040F151F261F371F82818B
:10327000982F90539A3050F490E0C097AA2797FD6A
:10328000A095BA2F080F191F2A1F3B1FFF2039F0E6
:1032900030952095109501951F4F2F4F3F4FB80146
:1032A000C901DF91CF911F910F91FF900895DB012C
:1032B000FA018D91882319F091918917D1F390E04B
:1032C0000895EF92FF920F931F93CF93DF938C019A
:1032D000FC01EB5AFF4F8081F801882309F4EBC011
:1032E000EA5AFF4FC80160810E949B17C82FF8015E
:1032F000E95AFF4FC80160810E949B17C295C07FA9
:10330000C80FF801EC5AFF4F8081F801C81709F087
:10331000CAC0E859FF4F8081F801882309F494C09E
:10332000E259FF4F80819181019691838083F8015A
:10333000EC5BFF4FD801A85BBF4F8D919D910D9025
:10334000BC91A02D80839183A283B383F801E45BB9
:10335000FF4FD801A05BBF4F8D919D910D90BC9107
:10336000A02D80839183A283B383F801EB59FF4F93
:1033700080818823A9F1813009F0A7C1F8018481F7
:103380009581A681B78180839183A283B38384854D
:103390009585A685B78580879187A287B38784891D
:1033A0009589A689B789808B918BA28BB38B848DED
:1033B000958DA68DB78D808F918FA28FB38F84A5A9
:1033C00095A5A6A5B7A580A791A7A2A7B3A784A9ED
:1033D00095A9A6A9B7A980AB91ABA2ABB3AB75C1B8
:1033E000F80184A195A1A6A1B7A180A391A3A2A34E
:1033F000B3A384819581A681B78180839183A283C1
:10340000B38384899589A689B789808B918BA28B98
:10341000B38B848D958DA68DB78D808F918FA28F64
:10342000B38FE05CFF4FD801AE5BBF4F8D919C9195
:1034300091838083F80184AD95ADA6ADB7AD80AF23
:1034400091AFA2AFB3AF41C184819581A681B7810D
:103450000097A105B10509F43AC1E801CC5BDF4F43
:10346000E85BFF4F408151816281738148835983BA
:103470006A837B83F801EB59FF4F2081222389F077
:10348000213009F024C1F80180839183A283B383A2
:1034900084859585A685B78580879187A287B38720
:1034A00016C1F80186C0E059FF4F808191810196D5
:1034B000918380830CC1EA59FF4F8081882301F5F5
:1034C000E801CA5ADF4FC801BE0146E751E00E9439
:1034D0005719B5E6EB2EF12CE00EF11E009711F412
:1034E00081E00CC0C801BE014CE751E00E945719B1
:1034F000009719F4F7011082EAC082E0F701C2C018
:10350000F801EB59FF4FE081E23009F4E0C0D80147
:10351000AA5ABF4F2C91222309F4D9C0F0E0A5E0AC
:10352000EE0FFF1FAA95E1F790E0E82BF92B3197FA
:10353000E932F10508F0CBC0EC5CFF4FEE0FFF1F46
:103540000590F491E02D0994C8010E94F718DC0160
:10355000CB01F80184839583A683B7830E94D71F8C
:10356000DC01CB01F801E85BFF4F23C0F801E8590B
:10357000FF4F81E0213409F084C084C0F801E7598D
:10358000FF4F8081882321F0C8010E94D61703C015
:10359000C8010E945818DC01CB01F801848B958B7F
:1035A000A68BB78B0E94D71FDC01CB01F801E05B33
:1035B000FF4F80839183A283B38389C0233509F0B1
:1035C00086C0F80184899589A689B789B095A095A8
:1035D000909581959F4FAF4FBF4F848B958BA68B56
:1035E000B78B75C0F801E759FF4F8081882321F020
:1035F000C8010E94D61703C0C8010E945818DC01F8
:10360000CB01F8010FC0273509F061C0F801848DA6
:10361000958DA68DB78DB095A095909581959F4F6E
:10362000AF4FBF4F848F958FA68FB78F50C0C80103
:103630000E94F718DC01CB01F80184A795A7A6A783
:10364000B7A745C0C8010E94F718DC01CB01F801FB
:1036500084AB95ABA6ABB7AB3AC0B8016A5A7F4F03
:10366000C8010E94AB17DC01CB01F8018487958764
:10367000A687B7872CC0F801E859FF4F81E02133B6
:1036800008F480E0808323C0C8018A5A9F4F0E94BB
:103690006633F801EE5BFF4F8083118218C0C801CA
:1036A0000E94F718DC01CB01F80184AF95AFA6AFFB
:1036B000B7AF0DC0C8010E94F718DC01CB01F801BB
:1036C00084A395A3A6A3B7A302C081E001C080E0B4
:1036D000DF91CF911F910F91FF90EF9008950F937D
:1036E0001F93CF93DF930F92CDB7DEB78C01FC0110
:1036F000E659FF4F80819181A281B3810196A11D7E
:10370000B11D80839183A283B383F801E959FF4FF0
:103710006432C9F1653230F46A3079F06D3009F005
:1037200049C00BC06A3249F06C3209F043C0F8015D
:10373000EC5AFF4F808186278083F801E959FF4FBB
:1037400080818F3060F4F801E80FF11DEA5AFF4FD5
:103750001082C80169830E946119698101C080E0FB
:10376000F801EA59FF4F90819F5F9083F801E95972
:10377000FF4F1082F801EB5AFF4F91E06A3209F0D7
:1037800090E090832FC01082F801EA59FF4F108219
:10379000F801EC5AFF4F1082F801EB59FF4F82E01D
:1037A0008083F801EB5AFF4F1082F801E859FF4F70
:1037B000108217C080818E3040F4D801A80FB11D4F
:1037C000AA5ABF4F6C938F5F8083F801EB5AFF4F6B
:1037D0008081882331F4F801EC5AFF4F80818627DD
:1037E000808380E00F90DF91CF911F910F9108951A
:1037F0004F925F926F927F928F929F92AF92BF9201
:10380000CF92DF92EF92FF920F931F93CF93DF93AC
:10381000CDB7DEB764970FB6F894DEBF0FBECDBF4D
:1038200069837A838B839C83CA01B901270138019C
:10383000A60195010E94EE2F25E33AEF4EE85CE3E6
:103840000E947032862EC72E8C01982F482D5C2D39
:10385000692F712FCB01BA010E94D332698B7A8B09
:103860008B8B9C8B882D9C2DA02FB12FBC01CD0163
:103870000E94B9306D837E838F83988769817A81B6
:103880008B819C8125E33AEF4EE85CE30E94703225
:10389000E62E872EC82E092FC301B20125E33AEF89
:1038A0004EE85CE30E947032F62E172F482EB92E98
:1038B0008E2D982DAC2DB02FBC01CD010E94D3329E
:1038C00069837A838B839C838E2D982DAC2DB02FAA
:1038D000BC01CD010E94B93069877A878B879C87AC
:1038E0008F2D912FA42DBB2DBC01CD010E94D33271
:1038F0006D877E878F87988B8F2D912FA42DBB2D61
:10390000BC01CD010E94B9306B017C0169857A85CB
:103910008B859C852D853E854F8558890E94703208
:103920004B015C0169817A818B819C81A7019601A1
:103930000E9470322D813E814F8158850E947032E5
:103940009B01AC01C501B4010E94EE2FB62FA72F39
:10395000382F292FFD01C9014F2F5E2F692F782F96
:10396000CB01BA01A9010F2F1E2F252F342FA9013A
:1039700098010E947032862EB72E482EA92EC701BC
:10398000B60129893A894B895C890E947032B62F29
:10399000A72F382F292FFD01C9014F2F5E2F692F27
:1039A000782FCB01BA01A9010F2F1E2F252F342FFD
:1039B000A90198010E9470329B01AC01882D9B2DBA
:1039C000A42DBA2DBC01CD010E94EF2F462F572FF9
:1039D000682F792FCB01BA010E94DD322B013C0107
:1039E00069817A818B819C812D853E854F8558899F
:1039F0000E9470324B015C0169857A858B859C85BC
:103A0000A70196010E9470322D813E814F81588519
:103A10000E9470329B01AC01C501B4010E94EF2FDE
:103A20009B01AC01C301B2010E94623026E73BE773
:103A300042EC5AE40E947032462F572F682F792F9C
:103A4000CB01BA0164960FB6F894DEBF0FBECDBFAE
:103A5000DF91CF911F910F91FF90EF90DF90CF906A
:103A6000BF90AF909F908F907F906F905F904F909E
:103A700008950F931F93CF93DF93EC018901611594
:103A8000710549F088899989AA89BB89FB018083DE
:103A90009183A283B3834115510549F0888D998D97
:103AA000AA8DBB8DFA0180839183A283B383011514
:103AB000110519F1C45BDF4F88819981AA81BB810F
:103AC0008F3FFFEF9F07FFEFAF07FFEFBF0769F0E3
:103AD0000E94D71FDC01CB01488159816A817B811B
:103AE000841B950BA60BB70B03C08FEF9FEFDC0178
:103AF000F80180839183A283B383DF91CF911F91DB
:103B00000F9108950F931F93CF93DF93EC018901D9
:103B10006115710549F088859985AA85BB85FB01EA
:103B200080839183A283B3834115510549F0888135
:103B30009981AA81BB81FA0180839183A283B38397
:103B40000115110519F1CC5BDF4F88819981AA819C
:103B5000BB818F3FFFEF9F07FFEFAF07FFEFBF076F
:103B600069F00E94D71FDC01CB01488159816A812D
:103B70007B81841B950BA60BB70B03C08FEF9FEFC8
:103B8000DC01F80180839183A283B383DF91CF911D
:103B90001F910F9108952F923F924F925F926F92D3
:103BA0007F928F929F92AF92BF92CF92DF92EF92CD
:103BB000FF920F931F93CF93DF93CDB7DEB72C9770
:103BC0000FB6F894DEBF0FBECDBF3B012A0119012D
:103BD000FA86E986DC86CB869401BE016B5F7F4F57
:103BE000AE014F5F5F4F0E94821D61147104D1F0DE
:103BF0006D817E818F81988524E630E040E050E041
:103C00000E94F138DC01CB019C01813591051CF04B
:103C10008CE697E002C080ED97E0820F931FF301DE
:103C20009183808341145104A9F06D817E818F813D
:103C30009885F4E6CF2ED12CE12CF12CA70196012A
:103C40000E94F138CA01B901A70196010E94F1381A
:103C5000F20160832114310461F06D817E818F81D6
:103C6000988520E137E240E050E00E94F138F10110
:103C700020830115110561F069817A818B819C8116
:103C800020E432E44FE050E00E94F138F801208354
:103C900089859A850097A9F069817A818B819C81B9
:103CA00020E137E240E050E00E94F138CA01B9015A
:103CB00024E630E040E050E00E94F138E985FA85E2
:103CC00060838B859C850097B1F069817A818B81B7
:103CD0009C81E4E6CE2ED12CE12CF12CA70196019B
:103CE0000E94F138CA01B901A70196010E94F1387A
:103CF000EB85FC856083A114B10461F069817A8150
:103D00008B819C8124E630E040E050E00E94F13855
:103D1000F50160832C960FB6F894DEBF0FBECDBFC1
:103D2000DF91CF911F910F91FF90EF90DF90CF9097
:103D3000BF90AF909F908F907F906F905F904F90CB
:103D40003F902F900895FC0160A171A182A193A1E1
:103D50006F3FF9EC7F07FAE98F07FBE39F0749F014
:103D60000E94573120E030E048EC52E40E94BC3021
:103D700004C060E074E284E799E4382F292F862F8D
:103D8000972FA32FB22FBC01CD010895FC0160A590
:103D900071A582A593A56F3FF9EC7F07FAE98F071C
:103DA000FBE39F0749F00E94553120E030E048ECEA
:103DB00052E40E94BC3004C060E070E080E89FEBF9
:103DC000382F292F862F972FA32FB22FBC01CD017B
:103DD0000895CF92DF92EF92FF920E94C61E6B0170
:103DE0007C0120E030E040E85FEB0E94B5308823A2
:103DF00049F0C701B60126E53EE04DEE5FE30E94C3
:103E0000703204C060E070E080E89FEB382F292F0B
:103E1000862F972FA32FB22FBC01CD01FF90EF90DB
:103E2000DF90CF9008958230E8F4E82FF0E0EE0FB5
:103E3000FF1FE15DF94F71836083813041F0809114
:103E400069008C7F842B80936900E89A08958091A3
:103E50006900440F551F440F551F837F842B8093A7
:103E60006900E99A08951F920F920FB60F921124DC
:103E70002F933F934F935F936F937F938F939F9372
:103E8000AF93BF93EF93FF9380912F0690913006ED
:103E9000009729F0E0912F06F09130060995FF91E7
:103EA000EF91BF91AF919F918F917F916F915F91B2
:103EB0004F913F912F910F900FBE0F901F9018952B
:103EC0001F920F920FB60F9211242F933F934F938F
:103ED0005F936F937F938F939F93AF93BF93EF9372
:103EE000FF938091310690913206009729F0E0917E
:103EF0003106F09132060995FF91EF91BF91AF9194
:103F00009F918F917F916F915F914F913F912F91F1
:103F10000F900FBE0F901F9018951F920F920FB623
:103F20000F9211242F933F938F939F93AF93BF933F
:103F30008091330690913406A0913506B0913606F3
:103F400030913B06232F2A5F2D3720F40296A11DC6
:103F5000B11D05C0232F27570396A11DB11D209326
:103F60003B068093330690933406A0933506B093B6
:103F700036068091370690913806A0913906B091A7
:103F80003A060196A11DB11D80933706909338061D
:103F9000A0933906B0933A06BF91AF919F918F914C
:103FA0003F912F910F900FBE0F901F9018950F9378
:103FB0001F938FB7F8940091330610913406209127
:103FC0003506309136068FBFB801C9011F910F9198
:103FD00008950F931F939FB7F8940091370610919F
:103FE00038062091390630913A0686B5A89B06C05E
:103FF0008F3F21F00F5F1F4F2F4F3F4F9FBF322F3B
:10400000212F102F0027080F111D211D311D43E006
:10401000000F111F221F331F4A95D1F7B801C901A4
:104020001F910F910895CF92DF92EF92FF92CF935D
:10403000DF936B017C010E94E91FDC01CB01EC01E5
:104040000FC00E94E91F6C1B7D0B83E0683E780760
:1040500038F00894C108D108E108F108C851DC4FD4
:10406000C114D104E104F10461F7DF91CF91FF9015
:10407000EF90DF90CF900895789484B5826084BDEE
:1040800084B5816084BD85B5826085BD85B581605C
:1040900085BDEEE6F0E0808181608083E1E8F0E0BC
:1040A0001082808182608083808181608083E0E8EB
:1040B000F0E0808181608083E1EBF0E080818460CA
:1040C0008083E0EBF0E0808181608083EAE7F0E0CC
:1040D0008081846080838081826080838081816030
:1040E00080838081806880831092C10008958093CE
:1040F000C20108958E3008F08E5087709091C201F1
:104100009295990F990F907C982B90937C008091B9
:104110007A00806480937A0080917A0086FDFCCFDB
:104120008091780090917900392F20E090E0822BE7
:10413000932B0895833071F0843028F48130A1F0FE
:10414000823021F514C08630B1F08730D1F0843050
:10415000E9F404C0809180008F7703C080918000D3
:104160008F7D80938000089584B58F7702C084B5D9
:104170008F7D84BD08958091B0008F778093B000CB
:1041800008958091B0008F7D8093B000089590E0F5
:10419000FC01EC5DFC4F2491885C9C4FFC018491F8
:1041A000882341F190E0880F991FFC01E05AFC4FF1
:1041B00045915491DA018A5A9C4FFC018591949162
:1041C000FC019FB7F8948C91662331F420958223EB
:1041D0008C938081822308C0623049F4322F30955D
:1041E00083238C938081822B80839FBF0895822BB1
:1041F0008C939FBF08950F931F93CF93DF930F92DC
:10420000CDB7DEB7282F30E0F901E05FFC4F849195
:10421000F901EC5DFC4F1491F901E85CFC4F04914D
:104220000023D1F0882321F069830E949A206981BC
:10423000E02FF0E0EE0FFF1FEA5AFC4F85919491BA
:10424000DC019FB7F8948C91662319F410958123B3
:1042500001C0812B8C939FBF0F90DF91CF911F9155
:104260000F910895FC0124853585F901E05CFF4F2D
:10427000808191812E5B3F4FF90120813181821B2A
:10428000930B8F7390700895FC0144855585FA0156
:10429000E05CFF4F80819181FA01EE5BFF4F20814E
:1042A00031818217930741F00190F081E02DE40FF6
:1042B000F51F808190E008958FEF9FEF0895FC0136
:1042C00044855585FA01E05CFF4F20813181FA0178
:1042D000EE5BFF4F808191812817390779F0A0812B
:1042E000B181A40FB51F8C91208131812F5F3F4F89
:1042F0002F7330703183208390E008958FEF9FEF0C
:104300000895DC011E96ED91FC911F97DF01A05CE2
:10431000BF4FEE5BFF4F2D913C91119780819181B2
:1043200028173907C1F70895CF93DF93DC011E9654
:104330004D915C911F97EA01C05CDF4F2881398164
:104340002F5F3F4F2F733070FA01EE5BFF4F80817C
:10435000918128173907D9F3E881F981E40FF51F16
:1043600060831E96ED91FC911F97E05CFF4F3183B7
:1043700020835696ED91FC915797208181E090E043
:104380005D960C905D9702C0880F991F0A94E2F722
:10439000282B208381E090E0DF91CF91089508954C
:1043A0001F920F920FB60F9211242F933F934F93AA
:1043B0008F939F93EF93FF934091C6008091DF0608
:1043C0009091E00601968F7390702091E1063091F4
:1043D000E2068217930759F0E091DF06F091E006BC
:1043E000E156F94F40839093E0068093DF06FF91FA
:1043F000EF919F918F914F913F912F910F900FBE11
:104400000F901F9018958CE396E00E943221009740
:1044100011F00E94CF2108951F920F920FB60F92B4
:1044200011242F933F938F939F93EF93FF932091AA
:104430009B0630919C0680919D0690919E062817C0
:10444000390731F48091C1008F7D8093C10014C081
:10445000E0919D06F0919E06E55AF94F20818091EA
:104460009D0690919E0601968F73907090939E0684
:1044700080939D062093C600FF91EF919F918F91AD
:104480003F912F910F900FBE0F901F9018957F9224
:104490008F929F92AF92BF92CF92DF92EF92FF9254
:1044A0000F931F93CF93DF93EC016A017B01772475
:1044B0007394EC89FD8981E090E00E8C02C0880F36
:1044C000991F0A94E2F7808360E874E88EE190E037
:1044D000A70196010E94F13889019A01015010400C
:1044E00020403040369527951795079520E4822E79
:1044F00022E4922E2FE0A22EB12C14C07724EC8956
:10450000FD891082C501B401A70196010E94F1380E
:1045100089019A010150104020403040369527957E
:104520001795079580E10030180710F0772031F7D4
:10453000E889F9891083EA89FB890083EE89FF897C
:10454000408121E030E0C9010A8C02C0880F991F28
:104550000A94E2F7482B4083EE89FF894081C90124
:104560000B8C02C0880F991F0A94E2F7482B4083F6
:10457000EE89FF894081C9010C8C02C0880F991F08
:104580000A94E2F7482B4083EE89FF8980810D8CE5
:1045900002C0220F331F0A94E2F7209528232083BC
:1045A000DF91CF911F910F91FF90EF90DF90CF900F
:1045B000BF90AF909F908F907F90089510923F068C
:1045C00010923E0688EE93E0A0E0B0E080934006B3
:1045D00090934106A0934206B0934306EEE3F6E0C3
:1045E0008BEC93E0929382938FE996E09587848792
:1045F0008BE596E09787868785EC90E0918B808BA2
:1046000084EC90E0938B828B80EC90E0958B848B94
:1046100081EC90E0978B868B86EC90E0918F808F79
:1046200084E0828F83E0838F87E0848F85E0858FAD
:1046300081E0868F0895CF92DF92EF92FF920F93E1
:104640001F93CF93DF936C017B01EA0100E010E040
:104650000EC0D7016D917D01D601ED91FC910190C5
:10466000F081E02DC6010995080F191F21972097A9
:1046700081F7C801DF91CF911F910F91FF90EF90CB
:10468000DF90CF900895DB010D900020E9F7AD0198
:1046900041505040461B570BDC01ED91FC910280CC
:1046A000F381E02D09950895DC01ED91FC910190D5
:1046B000F081E02D099508950F931F93CF93DF9319
:1046C0008C016DE00E945423EC01C8016AE00E9455
:1046D00054238C0F9D1FDF91CF911F910F9108954F
:1046E0000F931F93CF93DF938C010E944323EC0120
:1046F000C8010E945C238C0F9D1FDF91CF911F91F9
:104700000F9108956F927F928F929F92AF92BF9276
:10471000CF92DF92EF92FF920F931F93CF93DF938D
:10472000CDB7DEB7A1970FB6F894DEBF0FBECDBFF1
:104730003C01E42ECB01F22E19A221E02F1510F03E
:104740003AE0F32E21E2C22ED12CCC0EDD1E8F2CAE
:104750009924AA24BB2403C0E02E512FC9016E2D39
:10476000752FA50194010E94F13889019A01F09EEC
:10477000802D1124E81A8E2D0894C108D1088A30A2
:1047800010F4805D01C0895CD6018C930115110580
:104790002105310509F7D6010D900020E9F7AD019B
:1047A000415050404C195D09D301ED91FC910280BC
:1047B000F381E02DC301B6010995A1960FB6F894D7
:1047C000DEBF0FBECDBFDF91CF911F910F91FF9044
:1047D000EF90DF90CF90BF90AF909F908F907F90A1
:1047E0006F9008952115310549F4DC01ED91FC919C
:1047F0000190F081E02D642F099508950E94822395
:1048000008950E943C200E947F04C3E0D2E20E94EF
:10481000E7072097E1F30E940322F9CF2091650773
:104820003091660728173907B9F49091E306809113
:10483000E4069817A1F0E091E306F0E0EB51F94FA0
:1048400080812091E30630E02F5F3F4F2F7730705B
:104850002093E30690E008958FEF9FEF08958FEF88
:104860009FEF089520916507309166072817390753
:1048700071F49091E3068091E406981759F0E09165
:10488000E306F0E0EB51F94F808190E008958FEF5F
:104890009FEF08958FEF9FEF089520916507309166
:1048A00066072817390739F48FB7F8941092E40691
:1048B0001092E3068FBF0895209165073091660737
:1048C0002817390771F48091E4062091E30690E0FF
:1048D00080589F4F821B910960E870E00E94DE388B
:1048E000089580E090E0089520E001972FEF8F3F3A
:1048F0009207D9F70895FC018091650790916607AA
:104900008E179F0781F0838D8E7F838F8FB7F894EA
:104910001092E4061092E306F0936607E0936507B1
:104920008FBF81E0089580E00895EF92FF920F938A
:104930001F93CF93DF93EC018B8DEE85FF859D85D3
:1049400081FF04C08081892329F448C080818923A4
:1049500009F044C08B899C890E94742428E0E22ECF
:10496000F12C01E010E08D899E890E947424EE856F
:10497000FF8580819D85892311F0102B03C0802F36
:1049800080951823000F0894E108F108E114F10460
:1049900051F78F89988D0E9474248B8D81FD10951D
:1049A0008091E4062091E30690E001968F77907065
:1049B00030E08217930779F0E091E406F0E0EB51E4
:1049C000F94F10838091E40690E001968F77907004
:1049D0008093E40603C08B8D81608B8FDF91CF9134
:1049E0001F910F91FF90EF900895FC01A189B2896A
:1049F0009089662329F42C91892F8095822302C007
:104A00008C91892B8C930895DF92EF92FF920F93F4
:104A10001F93CF93DF93EC01F62E898D9A8D00972B
:104A200039F481E090E09B838A8380E090E047C086
:104A3000EFB6F8948B8D61E081FF60E0CE010E94BB
:104A4000F524898D9A8D04960E9474248B8D08E03C
:104A500010E0DD24D39481FF15C08D2D8F2119F036
:104A6000CE0160E002C0CE0161E00E94F524898D94
:104A70009A8D0E947424DD0C0150104071F7CE0114
:104A800060E014C08D2D8F2119F0CE0161E002C0CD
:104A9000CE0160E00E94F524898D9A8D0E947424D5
:104AA000DD0C0150104071F7CE0161E00E94F52449
:104AB000EFBE898D9A8D0E94742481E090E0DF9191
:104AC000CF911F910F91FF90EF90DF90089580910B
:104AD000650790916607009711F00E94952408954C
:104AE0001F920F920FB60F9211242F933F934F9363
:104AF0005F936F937F938F939F93AF93BF93EF9346
:104B0000FF930E946725FF91EF91BF91AF919F9115
:104B10008F917F916F915F914F913F912F910F9066
:104B20000FBE0F901F9018951F920F920FB60F9205
:104B300011242F933F934F935F936F937F938F93A2
:104B40009F93AF93BF93EF93FF930E946725FF91CD
:104B5000EF91BF91AF919F918F917F916F915F91F5
:104B60004F913F912F910F900FBE0F901F9018956E
:104B70001F920F920FB60F9211242F933F934F93D2
:104B80005F936F937F938F939F93AF93BF93EF93B5
:104B9000FF930E946725FF91EF91BF91AF919F9185
:104BA0008F917F916F915F914F913F912F910F90D6
:104BB0000FBE0F901F9018951F93CF93DF93EC01BA
:104BC000162F862F61E00E94C720812F61E00E948E
:104BD000FB20812F90E0FC01EC5DFC4FE491E88B21
:104BE000FC01E85CFC4FE491F0E0EE0FFF1FEA5A95
:104BF000FC4F85919491898B9A8BDF91CF911F9176
:104C000008951F93CF93DF93EC01162F862F60E05A
:104C10000E94C7208B8D81FD04C0812F61E00E941E
:104C2000FB201C87812F90E0FC01EC5DFC4FE491A0
:104C3000ED87FC01E85CFC4FE491F0E0EE0FFF1F14
:104C4000E45BFC4F859194918E879F87DF91CF9194
:104C50001F9108951F93CF93DF93EC01162F1B82B2
:104C60001A8288EE93E0A0E0B0E08C839D83AE834F
:104C7000BF838BED93E0998388831C8A1B8A1E8AED
:104C80001D8A188E1F8A1A8E198E8B8D2170220F05
:104C90008C7F822B8B8FCE01642F0E94DC25CE016E
:104CA000612F0E940126DF91CF911F910895CF922D
:104CB000DF92EF92FF92CF93DF93EC016A017B01C9
:104CC0001A8E198E188E1F8A1E8A1D8A1C8A1B8AAC
:104CD00020E030E0A901440F551F420F531F440F3D
:104CE000551F440F551FFA01E659FC4F85919591C8
:104CF000A591B4918C159D05AE05BF05E9F4FA01A7
:104D0000E259FC4F859194918B8B9C8BFA01E05971
:104D1000FC4F859194918D8B9E8BFA01EE58FC4F40
:104D2000859194918F8B988F4C585C4FFA018591A7
:104D30009491898F9A8F06C02F5F3F4F2C30310599
:104D400009F0C8CF8F89988D009709F448C09C85D9
:104D5000963108F040C020916800983020F09E30D5
:104D600020F082E003C084E001C081E0822B8093C8
:104D700068005C85583048F05E3060F05631C8F10C
:104D8000E0E0F0E0A0E0B0E009C0EDE6F0E0ADE684
:104D9000B0E004C0EBE6F0E0ABE6B0E04C91583098
:104DA00040F481E090E002C0880F991F5A95E2F725
:104DB00010C0252F30E05E3018F42850304002C07B
:104DC0002E50304081E090E002C0880F991F2A9554
:104DD000E2F7842B8083898D9A8D0E947424CE0102
:104DE0000E947B24DF91CF91FF90EF90DF90CF90D6
:104DF0000895ECE6F0E0ACE6B0E0D0CFFC014485ED
:104E0000463150F5483028F04E3030F0ECE6F0E016
:104E100005C0EDE6F0E002C0EBE6F0E0508148307E
:104E200040F481E090E002C0880F991F4A95E2F7B4
:104E300010C0242F30E04E3018F42850304002C00B
:104E40002E50304081E090E002C0880F991F2A95D3
:104E5000E2F780958523808308952BED33E0FC01F4
:104E6000318320830E94FE260895CB010E94C53520
:104E70000895CB01642F0E94CD350895FC01758300
:104E80006483718760875783468353874287158A77
:104E9000158614861786168621E0248B8FEF9FEFE8
:104EA000938B828B918B808B268B08952F923F92D0
:104EB0004F925F926F927F928F929F92AF92BF922A
:104EC000CF92DF92EF92FF920F931F93CF93DF93D6
:104ED00000D000D0CDB7DEB72C017C836B836A0194
:104EE00059011701C801841B950B97FF03C09095CA
:104EF00081959F4F95014B815C81241B350B37FFBA
:104F000003C0309521953F4F41E0642E712C281746
:104F1000390714F0662477246114710459F09A2D2E
:104F20008B2D5801092F182F9B818C81DC82CB821D
:104F3000C92ED82E8B819C81A816B9065CF49C2DB5
:104F40008D2D6801092F182F9B818C81BC82AB822B
:104F5000A92EB82ED501EB81FC81AE1BBF0BBA8305
:104F6000A98348018C189D0897FE04C090948194F1
:104F70009108939489819A8162E070E00E94DE3802
:104F80007B01C016D1061CF401E010E027C00FEF32
:104F90001FEF24C0D201ED91FC9111970480F5819F
:104FA000E02DC2016114710421F0B6014B815C81D6
:104FB00003C06B817C81A60191010995E818F9086D
:104FC000F7FE06C0C00ED11EE981FA81EE0EFF1E6B
:104FD0002B813C812F5F3F4F3C832B834B815C8136
:104FE000A416B506BCF60F900F900F900F90DF91AE
:104FF000CF911F910F91FF90EF90DF90CF90BF90D6
:10500000AF909F908F907F906F905F904F903F9068
:105010002F9008956F927F928F929F92AF92BF923E
:10502000CF92DF92EF92FF920F931F93CF93DF9374
:10503000EC016B015A0139014801E881F9810484CE
:10504000F585E02D87010995E881F981A501480DD5
:10505000591D415050400484F585E02DCE01B60124
:1050600093010995E881F9810284F385E02DCE0151
:10507000B601A50194010995E881F981B601660D93
:10508000771D615070400284F385E02DCE01A501AB
:1050900094010995DF91CF911F910F91FF90EF90AF
:1050A000DF90CF90BF90AF909F908F907F906F9048
:1050B0000895CF92DF92EF92FF920F931F93CF93B9
:1050C000DF93EB01D9017801FC0120813181A40F2C
:1050D000B51F1197F901C084D1849E018D01F6019D
:1050E0000995DF91CF911F910F91FF90EF90DF9085
:1050F000CF900895EF92FF920F931F93CF93DF937A
:10510000DA017801EC01E881F981260F371F21507F
:1051100030400084F185E02D8D010995DF91CF911C
:105120001F910F91FF90EF9008956F927F928F9251
:105130009F92AF92BF92CF92DF92EF92FF920F9326
:105140001F93CF93DF935C013A0169014801EB01A2
:10515000C60ED71E0DC0D501ED91FC910284F385DA
:10516000E02DC501BE01A301940187010995219697
:10517000CC15DD0584F3DF91CF911F910F91FF9046
:10518000EF90DF90CF90BF90AF909F908F907F90E7
:105190006F9008952F923F924F925F926F927F92FD
:1051A0008F929F92AF92BF92CF92DF92EF92FF9237
:1051B0000F931F93CF93DF93CDB7DEB72F970FB623
:1051C000F894DEBF0FBECDBF5C015E834D83422FDE
:1051D00018870F83FA86E986DC0118968D919C91D9
:1051E0001997681779070CF0B1C01A968D919C91A8
:1051F0001B97ED81FE81E817F9070CF0A7C02C2D55
:1052000030E0C901880F991F880F991F820F931FE3
:10521000860F971F181619060CF098C0C90113E0E5
:10522000880F991F1A95E1F78E0F9F1F1816190600
:105230000CF08CC0842F90E04C01880C991C880CD9
:10524000991C880E991EC9821A821B017C836B836C
:1052500030E02C2D353029F0F401E650FC4FE4917C
:1052600001C0E0E0C22C3D866D807E802301DD24FC
:105270003F872E872E2F30E03C872B87E0FF1EC014
:10528000D501ED91FC91BE85B13051F40480F581DA
:10529000E02DC5016B817C81A2012F81388524C05E
:1052A0000088F189E02DC5016C2D7D85A3012E8537
:1052B00030E0022F10E0EF80F88425C0E985FA8500
:1052C0002F813885E217F307F9F0D501ED91FC91B4
:1052D000BE85B13059F40480F581E02DC5016B81A4
:1052E0007C81A20129853A8509950EC00088F18943
:1052F000E02DC5016C2D7D85A3012E8530E0022FA8
:1053000010E0E984FA840995EB85FC85F595E7952D
:10531000D39429813A81620E731E0894411C511C5A
:1053200038E0D31609F0A6CF3F852E853F5F8981EF
:105330009A81280E391EAB81BC811196BC83AB8348
:105340000894811C911C363009F084CF2F960FB63B
:10535000F894DEBF0FBECDBFDF91CF911F910F91AB
:10536000FF90EF90DF90CF90BF90AF909F908F9085
:105370007F906F905F904F903F902F900895CF92C5
:10538000EF92FF920F931F93CF93DF93EC01262FA1
:105390006A3061F42C8930E013E0220F331F1A9534
:1053A000E1F78E859F85820F931F3AC06D30E1F142
:1053B0004C855D85EE85FF8508891989EA88FB881B
:1053C000BA01AF01CC880E94CA284C8950E09A01EA
:1053D000220F331F240F351F220F331F8C859D850D
:1053E000280F391F3D872C878E898823E9F08AEFA3
:1053F0009FEF489FB001499F700D589F700D112479
:1054000088859985680F791F621773076CF483E0AC
:10541000440F551F8A95E1F78E859F85840F951F50
:105420009F878E871D861C8681E090E0DF91CF915B
:105430001F910F91FF90EF90CF900895FC01758719
:105440006487578746870895662309F461E0FC0165
:10545000648B0895FC01718B608B738B628B089554
:10546000FC01718B608B538B428B0895FC01858905
:105470008370858B0895FC01808591850895FC01DA
:10548000828593850895CF92DF92EF92FF920F93DA
:105490001F93CF93DF93EC017B018A01690177FDB4
:1054A00064C00E943B2AE816F9060CF05EC017FDA6
:1054B0005CC0CE010E943F2A081719070CF055C0A6
:1054C00049C08C819D81801B910B87017C010894D0
:1054D000E108F10818C08C819D819C012E193F09BB
:1054E00079010894E108F1088E819F819C01201BBD
:1054F000310B890106C08E819F818E199F09780129
:105500008C0101501040C80168E070E00E94DE3854
:10551000FB01F695FE2FEE27F795E795EE0DFF1DA3
:10552000ED53FE4F31E0C316D10441F402C0CC0C60
:10553000DD1C8A95E2F780818C290AC021E030E0E9
:1055400002C0220F331F8A95E2F7209580818223C3
:1055500080830BC0CE010E94362A823009F4BBCF73
:10556000833049F2813079F6ACCFDF91CF911F9132
:105570000F91FF90EF90DF90CF900895EF920F93EF
:10558000FC01138212828BEE93E091838083E48E80
:10559000038F228F418F608F0F91EF90089580E0ED
:1055A00092E0E3ECF1E0DF019C011D9221503040DC
:1055B000E1F70895FC0188E090E030E8A78DB0A104
:1055C0004C9126A1209524232C93432F4623A58D6F
:1055D000B68D25A1442321F04C91422B4C9304C05D
:1055E0004C91209524232C93A78DB0A12C9146A1FA
:1055F000242B2C933695019709F708951F93CF9389
:10560000DF93EC01162F888D8F3FF1F0E9A1FAA10D
:1056100080819FA1892B8083EBA1FCA1908188A52B
:10562000809589238083E9A1FAA190818FA180953B
:1056300089238083CE010E94DA2AE9A1FAA1808120
:105640009FA1892B808316C06F89772767FD70958E
:1056500088E697E00E94BD2D88E697E060E00E9412
:10566000792D88E697E0612F0E94792D88E697E0F2
:105670000E94D32DDF91CF911F910895662311F0E1
:1056800067EA01C066EA0E94FE2A08950F931F93FD
:10569000CF93DF93EC01162F042F60E870E040E217
:1056A00050E00E943E270F8B888D8F3F09F468C021
:1056B00061E00E94C720898D61E00E94C7208A8D29
:1056C00061E00E94C7208C8D61E00E94C720298D77
:1056D000332727FD3095F901E85CFC4FE491F0E0B9
:1056E000EE0FFF1FEA5AFC4F859194918F8F98A37C
:1056F0002C5D3C4FF90124912EA3288D332727FDE3
:105700003095F901E85CFC4FE491F0E0EE0FFF1FEB
:10571000EA5AFC4F859194918D8F9E8F2C5D3C4F62
:10572000F90124912DA32C8D332727FD3095F90104
:10573000E85CFC4FE491F0E0EE0FFF1FEA5AFC4FEB
:105740008591949189A39AA32C5D3C4FF9012491F2
:105750002FA32A8D332727FD3095F901E85CFC4FF4
:10576000E491F0E0EE0FFF1FEA5AFC4F859194910F
:105770008BA39CA32C5D3C4FF901249128A704C066
:1057800088E697E00E94A82D8B8D61E00E94C720DB
:105790008B8D61E00E94FB2061E070E080E090E092
:1057A0000E9413208B8D60E00E94FB206AE070E075
:1057B00080E090E00E9413208B8D61E00E94FB202E
:1057C000CE016EEA0E94FE2ACE0165ED0E94FE2AFD
:1057D000CE0160E80E94FE2ACE0168EA0E94FE2AFD
:1057E000CE016FE10E94FE2ACE0163ED0E94FE2AE7
:1057F000CE0160E00E94FE2ACE0160E40E94FE2AF3
:10580000CE016DE80E94FE2ACE01113011F460E154
:1058100001C064E10E94FE2ACE0160E20E94FE2ADD
:10582000CE0160E00E94FE2ACE0161EA0E94FE2ABB
:10583000CE0168EC0E94FE2ACE016AED0E94FE2A8B
:10584000CE0162E00E94FE2ACE0161E80E94FE2A9B
:10585000CE016FE80E94FE2ACE0169ED0E94FE2A69
:10586000CE01113011F462E201C061EF0E94FE2A04
:10587000CE016BED0E94FE2ACE0160E40E94FE2A5A
:10588000CE0164EA0E94FE2ACE0166EA0E94FE2A48
:10589000CE016FEA0E94FE2ADF91CF911F910F91F6
:1058A0000895BF92CF92DF92EF92FF920F931F93D2
:1058B000CF93DF938C0160E00E94FE2AC80160E173
:1058C0000E94FE2AC80160E40E94FE2AD801589670
:1058D0008C9158978F3F09F443C09196ED91FC91BC
:1058E0009297808197969C919797892B8083939626
:1058F000ED91FC919497808198969C919897892B33
:1059000080839196ED91FC919297908197968C91DE
:1059100080958923808393ECE92E91E0F92EC0E0F5
:10592000D0E0F70161917F01C8010E94DA2A219637
:10593000F2E0C030DF07A9F7C0E0D2E0C80160E0C4
:105940000E94DA2A2197D1F7D8019196ED91FC9126
:105950009297808197969C919797892B808364C0BA
:10596000B090B8008CE08093B800CC24DD24F8011E
:105970006789772767FD709588E697E00E94BD2DBF
:10598000E0916807F09169070190F081E02D88E6C9
:1059900097E060E40995EE24FF24E601CD53DE4F45
:1059A000FE01EE0DFF1D88E697E060810E94792DD3
:1059B0000894E11CF11CF0E1EF16F10489F780E195
:1059C00090E0C80ED91E88E697E00E94D32D90E0A3
:1059D000C91692E0D90659F6C0E2D0E0D801579630
:1059E0006C91772767FD709588E697E00E94BD2D42
:1059F000E0916807F09169070190F081E02D88E659
:105A000097E060E4099580E1E82E88E697E060E0A1
:105A10000E94792DEA94C9F788E697E00E94D32D79
:105A20002197E1F6B092B800DF91CF911F910F91CD
:105A3000FF90EF90DF90CF90BF90089580919807EE
:105A400090E020919907821B910908952091990770
:105A500080919807281750F4E22FF0E0E656F84FAF
:105A6000808190E02F5F2093990708958FEF9FEF3B
:105A70000895E091990780919807E81730F4F0E0D5
:105A8000E656F84F808190E008958FEF9FEF0895DC
:105A90000895CF92DF92EF92FF920F931F93CF93CF
:105AA000DF936C01CB018A01209174072223A1F0BE
:105AB0007B01C0E0D0E00CC0D7016D917D01D60123
:105AC000ED91FC910190F081E02DC60109952196A0
:105AD000C017D10789F703C0642F0E945E2EC8014A
