:100000000C9452010C94890E0C94B60E0C9461144D
:100010000C9485140C94A9140C947A010C947A0114
:100020000C947A010C947A010C947A010C947A0164
:100030000C947A010C947A010C947A010C947A0154
:100040000C94E30E0C947A010C943B110C946C11FB
:100050000C947A010C947A010C947A010C947A0134
:100060000C947A010C947A01040B1A0B2C0B400BA4
:10007000490B7B0B840B8F0B980BA30BA30BA30BD0
:10008000A30BA30BA30BA30BA30BA30BA30BA30B00
:10009000A30BA30BA30BA30BA30BA30BA30BA30BF0
:1000A000A30BA30BA30BA30B040B120B1A0B2C0B10
:1000B000400B490B5D0B660B6F0B0000000024002A
:1000C00027002A0000000000250028002B00000067
:1000D000000023002600290004040404040404048E
:1000E00002020202020203030303030301020408E3
:1000F0001020408001020408102001020408102092
:1001000000000007000201000003040600000000D8
:100110000000000000C2010001000500050003000E
:1001200000E1000001000F000F000D00009600002C
:10013000020019001A001700127A000007002000C0
:1001400021001D00807000000B0023002300200010
:10015000004B000014003700370034004038000026
:100160001E004B004B00480080250000320072004A
:1001700072007000C01200006E00E900E900E600A5
:1001800060090000E500D801D801D501B0040000E5
:10019000D301B403B403B1032C0100006707DD0EE3
:1001A000DD0EDA0E00407A10F35A00A0724E1809E4
:1001B0000010A5D4E80000E87648170000E40B54CE
:1001C000020000CA9A3B000000E1F505000080969D
:1001D0009800000040420F000000A08601000000CF
:1001E000102700000000E803000000006400000089
:1001F00000000A00000000000100000000002C7652
:10020000D888DC674F0823DFC1DFAE59E1B1B7966C
:10021000E5E3E453C63AE651997696E8E6C28426C9
:10022000EB898C9B62ED407C6FFCEFBC9C9F40F2A5
:10023000BAA56FA5F490055A2AF75C936B6CF96721
:100240006DC11BFCE0E40D47FEF520E6B500D0EDE6
:10025000902E0300943577050080841E080000204E
:100260004E0A000000C80C333333330F986E1283EC
:100270001141EF8D2114893BE65516CFFEE6DB18C0
:10028000D1844B381BF77C1D901DA4BBE424203285
:1002900084725E228100C9F124ECA1E53D27B907F3
:1002A0004212BE0711241FBECFEFD8E0DEBFCDBF84
:1002B00012E0A0E0B1E0E4E6FCE302C005900D929C
:1002C000AA3FB107D9F716E0AAEFB2E001C01D922C
:1002D000A733B107E1F712E0C2EAD2E004C02297E7
:1002E000FE010E94211ECE39D107C9F70E94ED12EE
:1002F0000C947C010C940000F8940C94251E813021
:10030000910599F482E493E067E048E020E00E94E0
:100310001B158EE593E00E944C0881ED93E065E0AB
:1003200046E020E00E941B150895009741F481EDFE
:1003300093E00E941E1682E493E00E941E16089528
:10034000CF93DF9389E061E00E94FA0F82E493E0AB
:100350000E94681384E995E060E071E00E94DA127F
:1003600089E060E00E943F1064E670E080E090E089
:100370000E946B0F89E061E00E943F10C0E0D0E076
:10038000219682E493E00E941D13009739F082E4E5
:1003900093E00E94FC128E33910551F06AE070E008
:1003A00080E090E00E946B0FC83CD10549F703C084
:1003B000C83CD10554F084E995E069E071E00E9401
:1003C000DA1281E08093070306C084E995E06DE4CA
:1003D00071E00E94DA12DF91CF9108950F931F937D
:1003E000CF93DF938DE061E00E94FA0FC4E9D5E07E
:1003F000CE0140E855E260E070E00E94B31129E2CE
:1004000088E190E00FB6F894A895809360000FBE45
:1004100020936000A895CE0166E571E00E94DA1293
:1004200082E493E040E855E260E070E00E94481505
:100430000E94A001CE016CE671E00E94DA1280E019
:1004400090E048E853E160E070E00E94D7070E9426
:10045000F207CE0168E871E00E94DA1201ED13E0C4
:10046000C80140E855E260E070E00E944815C8010C
:100470000E946813CE016AE971E00E94BA12CE01AF
:1004800068EC72E00E94DA12CE0167EA71E00E9425
:10049000DA12DF91CF911F910F9108950F931F935F
:1004A000CF93DF938C0182E493E00E946813A895B8
:1004B00084E995E068EB71E00E94BA1284E995E066
:1004C000B8010E94DA1282E493E063EC71E00E94CA
:1004D000BA1282E493E0B8010E94BA1282E493E077
:1004E0006DE00E94F01384E995E06BEC71E00E94EE
:1004F000DA12C0E0D0E0219682E493E00E941D135E
:10050000009739F082E493E00E94FC128C3391054D
:1005100051F06AE070E080E090E00E946B0FC83C10
:10052000D10549F703C0C83CD105ECF084E995E05A
:1005300063ED71E00E94DA1284E995E060E071E019
:100540000E94DA1289E060E00E943F1064E670E0E9
:1005500080E090E00E946B0F89E061E00E943F1014
:10056000C0E0D0E00BC084E995E06DE471E00E944A
:10057000DA12DF91CF911F910F910895219682E4B5
:1005800093E00E941D13009739F082E493E00E94EB
:10059000FC128E33910551F06AE070E080E090E04B
:1005A0000E946B0FC83CD10549F703C0C83CD10578
:1005B0002CF084E995E069E071E004C084E995E0FD
:1005C0006DE471E00E94DA1272CFFC01819121E0AA
:1005D00030E004C0919189272F5F3F4F26173707DE
:1005E000CCF30895E8E0F3E020E030E0A901819148
:1005F0009191A191B191280F391F4A1F5B1F83E090
:10060000E833F807A1F7B901CA010895AF92BF9284
:10061000CF92DF92EF92FF920F931F93CF93DF93CE
:100620007B018C01EA010E94F716882777FD8095EF
:10063000982F0E942A17D62EC72EB82EA92EC80191
:10064000B701D601F5012B2F3A2F4F2F5E2F0E94B5
:10065000261620E030E040E752E40E94DA177B01E2
:100660008C01A6019501652F742F832F922F20E016
:1006700030E040E251E40E94DA1720E030E040E24E
:1006800051E40E94DA179B01AC01C801B7010E9436
:10069000271640E024E08E010E943D18DF91CF91A3
:1006A0001F910F91FF90EF90DF90CF90BF90AF9090
:1006B00008954F925F926F927F928F929F92AF9226
:1006C000BF92CF92DF92EF92FF920F931F93DF932F
:1006D000CF93CDB7DEB764970FB6F894DEBF0FBEE9
:1006E000CDBF3B011CED412E17E0512E58864F82A5
:1006F00019821A821B821C821D821E82BE01695FC2
:100700007F4FAE014F5F5F4F9E012E5F3F4F8E01C7
:100710000D5F1F4FB4E0EB2EF12CEC0EFD1EA5E09B
:10072000CA2ED12CCC0EDD1EF6E0AF2EB12CAC0EB5
:10073000BD1EE9E08E2E912C8C0E9D1E0E943C0D5C
:1007400089859A85AB85BC858F3F2FEF92072FEF68
:10075000A2072FEFB20741F458864F8219821A82FE
:100760001B821C821D821E82C30168EC72E00E9403
:100770008818C30166EE71E00E947D1800D000D099
:1007800000D0EDB7FEB731968E01035F1F4FADB7B6
:10079000BEB712961C930E93119788EEE82E81E057
:1007A000F82EF382E2828981848315820E94A71841
:1007B0008DB79EB706960FB6F8949EBF0FBE8DBF3D
:1007C000C301B80142E050E00E948F1800D000D071
:1007D00000D0EDB7FEB73196ADB7BEB712961C93F9
:1007E0000E931197F382E2828A81848315820E949C
:1007F000A7188DB79EB706960FB6F8949EBF0FBE8A
:100800008DBFC301B80142E050E00E948F18C301C0
:10081000089662EC72E00E94881864960FB6F8940D
:10082000DEBF0FBECDBFCF91DF911F910F91FF9023
:10083000EF90DF90CF90BF90AF909F908F907F9080
:100840006F905F904F9008952F923F924F925F92DA
:100850006F927F928F929F92AF92BF92CF92DF92D0
:10086000EF92FF920F931F93DF93CF93CDB7DEB735
:10087000A4970FB6F894DEBF0FBECDBF3C012B018D
:10088000ED8EFE8E0F8F18A3A9A2BAA2CBA2DCA276
:100890001CED212E17E0312E38862F8219821A8204
:1008A0001B821C821D821E8280E090E0DC01898711
:1008B0009A87AB87BC878D879E87AF87B88B80E18F
:1008C000EDEEF3E0DF01282F1D922A95E9F7EDEF19
:1008D000F3E0DF01282F1D922A95E9F7EDE0F4E01F
:1008E000DF01282F1D922A95E9F7EDE1F4E0DF0101
:1008F000282F1D922A95E9F7EDE2F4E0DF01282F79
:100900001D922A95E9F7EDE3F4E0DF011D928A9547
:10091000E9F7C301BE01695F7F4FAE014F5F5F4FD3
:100920009E012E5F3F4F8E010D5F1F4FB4E0EB2EF7
:10093000F12CEC0EFD1EA5E0CA2ED12CCC0EDD1E36
:10094000F6E0AF2EB12CAC0EBD1EE1E18E2E912C47
:100950008C0E9D1E0E943C0D89899A89AB89BC89A9
:100960008F3FEFEF9E07EFEFAE07EFEFBE0741F4CB
:1009700038862F8219821A821B821C821D821E8257
:10098000C301BE01675F7F4FAE01435F5F4F9E01B2
:100990002F5E3F4F0E94C30C89899A89AB89BC891D
:1009A0008F3FFFEF9F07FFEFAF07FFEFBF0711F488
:1009B00086E501C081E48093CC02C3010E94110E40
:1009C0005B016C01C3010E94470E6D8B7E8B8F8B88
:1009D000988FF301E05CFF4F20803180D301D896DF
:1009E0006D907D908D909C90DB97E984FA840B85C7
:1009F0001C858091CD029091CE02A091CF02B09142
:100A0000D002898F9A8FAB8FBC8FC801B701298D17
:100A10003A8D4B8D5C8D0E948B16882351F40F2EDE
:100A2000F0E0EF2EF0E0FF2EF0E00F2FF0E01F2FB0
:100A3000F02DC801B7014DEE53E00E940603ED848E
:100A4000FE840F851889C801B701298D3A8D4B8D19
:100A50005C8D0E948B16882351F40F2EF0E0EF2E50
:100A6000F0E0FF2EF0E00F2FF0E01F2FF02DC80177
:100A7000B7014DEF53E00E94060369857A858B85A7
:100A80009C8520E030E0A9010E948B1687FD03C001
:100A90002EE4E22E02C093E5E92E6D857E858F85DA
:100AA000988920E030E0A9010E948B1687FD03C0E1
:100AB00085E4F82E02C007E5F02EC601B5012091AD
:100AC000D1023091D2024091D3025091D4020E94BF
:100AD0008B16882351F40F2EF0E0AF2EF0E0BF2EDE
:100AE000F0E0CF2EF0E0DF2EF02DC601B50140E0A2
:100AF00022E00DE014E00E943D186D897E898F8907
:100B0000988D2091D5023091D6024091D702509114
:100B1000D8020E948B16882339F480E090E0DC0133
:100B20008D8B9E8BAF8BB88F6D897E898F89988DC9
:100B300040E022E00DE114E00E943D189FEF2916ED
:100B4000310411F42224332400D000D000D0EDB7BA
:100B5000FEB731968DE294E0ADB7BEB712969C9386
:100B60008E9311978DEE91E0938382833582248258
:100B70000E94A718EDB7FEB736960FB6F894FEBFE1
:100B80000FBEEDBFFFEF6F16FFEF7F06FFEF8F0683
:100B9000FFEF9F0619F46624772443018DB79EB7B3
:100BA00008970FB6F8949EBF0FBE8DBFEDB7FEB786
:100BB00031960DE314E0ADB7BEB712961C930E93B9
:100BC000119780EF91E0938382836482758286829D
:100BD00097820E94A71884E6D2011D928A95E9F7B0
:100BE000EDB7FEB7BA970FB6F894FEBF0FBEEDBFD4
:100BF0003196ADB7BEB712965C924E92119784EFC4
:100C000091E0938382838EE992E09583848388ECDC
:100C100092E0978386838F819885918780878981E9
:100C2000828713868A81848715868B8186871786BB
:100C30008C81808B118A8D81828B138A8D8D9E8D04
:100C4000AF8DB8A1848B958BA68BB78B89A19AA108
:100C5000ABA1BCA1808F918FA28FB38F80913C03F9
:100C600090913D03A0913E03B0913F03848F958FF7
:100C7000A68FB78F8091C70280A311A28DEE93E05B
:100C800093A382A3E4A215A28DEF93E097A386A37A
:100C9000F0A611A68DE094E093A782A78091CC02E4
:100CA00084A715A617A706A78DE294E091AB80ABA9
:100CB0000E94A718D2010D900020E9F7BD016150F4
:100CC000704064197509062F7201E60EF11CF701D8
:100CD00010828DB79EB7C2960FB6F8949EBF0FBE16
:100CE0008DBFC201019670E00E94E502803178F468
:100CF00000D000D000D0EDB7FEB73196ADB7BEB78B
:100D00001296FC92EE92119721E432E00EC000D0D0
:100D100000D000D0EDB7FEB73196ADB7BEB7129692
:100D2000FC92EE92119726E432E03383228384838F
:100D300015820E94A718EDB7FEB736960FB6F89445
:100D4000FEBF0FBEEDBF802FA4960FB6F894DEBF96
:100D50000FBECDBFCF91DF911F910F91FF90EF900C
:100D6000DF90CF90BF90AF909F908F907F906F90CB
:100D70005F904F903F902F9008959F92AF92BF92B7
:100D8000CF92DF92EF92FF920F931F9381ED93E04A
:100D90000E9468130E94370F7B018C01992413C0B5
:100DA00081ED93E00E94FC12682F8EE593E00E9493
:100DB000AA0B882311F09924939481ED93E00E946B
:100DC0001D13009769F70E94370F6E197F09800B7A
:100DD000910B683E23E0720720E0820720E0920733
:100DE00060F3992019F08DE061E002C08DE060E0D1
:100DF0000E943F100E940508009709F4B0C0A89512
:100E00000E9443085B016C010E94F2076091380365
:100E10007091390380913A0390913B03FB01EE0FEF
:100E2000FF1FEE0FFF1FE85FFC4FA082B182C2825E
:100E3000D3826F5F7F4F8F4F9F4F2CE030E040E0B9
:100E400050E00E94C61D609338037093390380936D
:100E50003A0390933B030E94F2027B018C01809144
:100E60003C0390913D03A0913E03B0913F038A0D56
:100E70009B1DAC1DBD1D80933C0390933D03A0932F
:100E80003E03B0933F0380914003909141038C3027
:100E900091054CF426E52093C702019690934103F7
:100EA000809340030AC0E114F1040105110511F417
:100EB00086E501C081E48093C7026DE474E084E6B6
:100EC000FB0111928A95E9F7E0913803F09139031B
:100ED000EE0FFF1FEE0FFF1FE85FFC4F20813181F7
:100EE000428153818EE593E00E94240480910703A0
:100EF000882309F59920F9F081E0809307038EE5B6
:100F000093E06AEF72E00E94590384E995E06AE495
:100F100072E00E94DA128AEF92E00E944E0282E4AE
:100F200093E064EA72E00E94BA1284E995E064EA10
:100F300072E00E94BA1284E995E06DE474E00E94C8
:100F4000DA1280910703882351F082E493E00E9433
:100F5000681382E493E06DE474E00E94DA121F915A
:100F60000F91FF90EF90DF90CF90BF90AF909F9048
:100F7000089581E090E00E947F01089580E090E074
:100F80000E947F0108958091BB049091BC04A091C0
:100F9000BD04B091BE040196A11DB11D8093BB0498
:100FA0009093BC04A093BD04B093BE0408958093B5
:100FB000B1049093B2044093B7045093B804609383
:100FC000B9047093BA041092BB041092BC0410923E
:100FD000BD041092BE0463EC77E043E050E00E9451
:100FE000690E08950E94370F6093B3047093B404A0
:100FF0008093B5049093B6041092BB041092BC0485
:101000001092BD041092BE040895EF92FF920F93C8
:101010001F930E94370F2091B3043091B404409184
:10102000B5045091B604E090B704F090B804009174
:10103000B9041091BA04621773078407950760F02A
:10104000621B730B840B950BE1E0F0E06E157F05DE
:101050008007910790F40FC02095309540955095EA
:10106000260F371F481F591FE1E0F0E02E153F05FE
:101070004007510710F4E0E0F0E0CF011F910F911D
:10108000FF90EF9008956091BB047091BC04809133
:10109000BD049091BE040895FC016FEF7FEF8FEFC8
:1010A0009FEF6083718382839383108611861286FB
:1010B00013862FEF39EC4AE95BE3208B318B428BAF
:1010C000538B208F318F428F538F20A331A342A3A4
:1010D00053A320A731A742A753A720AB31AB42AB04
:1010E00053AB60AF71AF82AF93AFDF01A05CBF4F76
:1010F0002FEF30E02D933C93DF01AC5BBF4F6D933E
:101100007D938D939C931397DF01A45BBF4F6D93E9
:101110007D938D939C931397DF01AC5ABF4F1C9224
:10112000DF01AB5ABF4F1C92DF01AB59BF4F82E0CA
:101130008C93DF01AA59BF4F1C92DF01A959BF4F01
:101140001C92DF01A859BF4F1C92DF01A759BF4F66
:101150001D921D921D921C921397DF01A359BF4F40
:101160001D921C92DF01A159BF4F11961C921E9235
:10117000EA5AFF4F10820895862F8154863020F45A
:1011800070E0675370400AC0862F815670E0863049
:1011900018F46755704002C060537040CB01089549
:1011A000EF92FF921F93CF93DF93E62EE7017E012C
:1011B000F72EE70120E030E0A90114C0CA01B9010F
:1011C0002AE030E040E050E00E94801D212F30E016
:1011D00040E050E02053304040405040260F371F41
:1011E000481F591F1991812F80538A3038F3B90154
:1011F000CA01DF91CF911F91FF90EF9008952F9238
:101200003F924F925F926F927F928F929F92AF9296
:10121000BF92CF92DF92EF92FF920F931F93CF93E3
:10122000DF93EC01CA5ADF4FBE010E94D008762E30
:10123000672E8C0124E630E040E050E00E94C61D9D
:1012400020E137E240E050E00E94801D4B015C014C
:10125000FE01EF018191982F90539A30D0F38E3296
:1012600049F5219698EEC92E93E0D92EE12CF12C68
:101270008AE0282E312C412C512C17C030E020530D
:101280003040442737FD4095542FC701B6010E94D6
:10129000801D860E971EA81EB91EC701B601A201A9
:1012A00091010E94C61D69017A012991822F805304
:1012B0008A3020F3C501B40126E030E040E050E080
:1012C0000E94C61D69017A01672D762DC80124E6AA
:1012D00030E040E050E00E94C61DCA01B90120EA9A
:1012E00036E841E050E00E94801DC60ED71EE81E81
:1012F000F91EB601C701DF91CF911F910F91FF90A9
:10130000EF90DF90CF90BF90AF909F908F907F90A5
:101310006F905F904F903F902F9008951F93CF93C1
:10132000DF93EC01CA5ADF4F11E028812D3211F012
:1013300010E003C0EC01C95ADF4FBE010E94D00883
:1013400024E630E040E050E00E94801D9B01AC01AB
:10135000FE018991982F90539A30D0F38E3211F577
:101360008181982F90539A30E8F49AE0899FC001C8
:101370001124805E9140AA2797FDA095BA2F280FCF
:10138000391F4A1F5B1F8281982F90539A3050F467
:1013900090E0C097AA2797FDA095BA2F280F391F74
:1013A0004A1F5B1F112339F05095409530952195C8
:1013B0003F4F4F4F5F4FB901CA01DF91CF911F914E
:1013C0000895862F972FDC01842F952FFC018D9196
:1013D000882319F091918917D1F390E00895FF9235
:1013E0000F931F93CF93DF938C01FC01EB5AFF4FB8
:1013F0008081882309F4BFC0F801EA5AFF4FC80171
:1014000060810E94BC08F82EF801E95AFF4FC8011C
:1014100060810E94BC08F29440EFF422F80EF801BB
:10142000EC5AFF4F8081F81609F09CC0F801E8598A
:10143000FF4F8081882309F486C1F801E359FF4FEB
:1014400080819181019691838083F801EC5BFF4F4D
:10145000D801A85BBF4F8D919D910D90BC91A02D9F
:1014600080839183A283B383F801E45BFF4FD801AB
:10147000A05BBF4F8D919D910D90BC91A02D80835D
:101480009183A283B383F801EB59FF4F80818823B6
:10149000A9F1813009F055C1F80184819581A681B7
:1014A000B78180839183A283B38384859585A68544
:1014B000B78580879187A287B38784899589A68914
:1014C000B789808B918BA28BB38B848D958DA68DE4
:1014D000B78D808F918FA28FB38F84A595A5A6A578
:1014E000B7A580A791A7A2A7B3A784A995A9A6A9E4
:1014F000B7A980AB91ABA2ABB3AB23C1F80184A178
:1015000095A1A6A1B7A180A391A3A2A3B3A384810F
:101510009581A681B78180839183A283B3838489D7
:101520009589A689B789808B918BA28BB38B848D8B
:10153000958DA68DB78D808F918FA28FB38FE05C34
:10154000FF4FD801AE5BBF4F8D919C9191838083FB
:10155000F80184AD95ADA6ADB7AD80AF91AFA2AFA8
:10156000B3AFEFC0F801E159FF4F8081918101963F
:1015700091838083E8C0F801EA59FF4F8081882376
:10158000F9F4E801CA5ADF4FC801BE014EE552E046
:101590000E94E109009729F4F801EB59FF4F81E01F
:1015A000B1C0C801BE0144E652E00E94E109F80161
:1015B000EB59FF4F009711F41082C5C082E0A2C022
:1015C000F801EB59FF4FE081E23009F4BCC0D801CB
:1015D000AA5ABF4F2C91222309F4B5C0F0E035E0A0
:1015E000EE0FFF1F3A95E1F790E0E82BF92B3197CA
:1015F000E932F10508F0A7C0EC5CFF4FEE0FFF1FCA
:101600000590F491E02D0994C8010E948E09F8011B
:1016100064837583868397830E94370FF801E85BA4
:10162000FF4F15C0F801E859FF4F81E0213409F060
:1016300068C068C0C8010E94FF08F801648B758B00
:10164000868B978B0E94370FF801E05BFF4F60831A
:1016500071838283938377C0233509F074C0F801C6
:1016600084899589A689B789B095A095909581952B
:101670009F4FAF4FBF4F848B958BA68BB78B63C0AB
:10168000C8010E94FF08F801648F758F868F978FBD
:101690005AC0273509F057C0F801848D958DA68D65
:1016A000B78DB095A095909581959F4FAF4FBF4F47
:1016B000848F958FA68FB78F46C0C8010E948E0970
:1016C000F80164A775A786A797A73DC0C8010E9427
:1016D0008E09F80164AB75AB86AB97AB34C0B8012B
:1016E0006A5A7F4FC8010E94D008F8016487758745
:1016F0008687978728C0F801E859FF4F81E021339A
:1017000008F480E080831FC0C8018A5A9F4F0E945E
:101710005F18F801EE5BFF4F8083118214C0C8018F
:101720000E948E09F80164AF75AF86AF97AF0BC00A
:10173000C8010E948E09F80164A375A386A397A32C
:1017400002C081E001C080E0DF91CF911F910F9135
:10175000FF9008950F931F93DF93CF930F92CDB710
:10176000DEB78C01FC01E759FF4F80819181A28196
:10177000B3810196A11DB11D80839183A283B383A0
:101780006432C9F1F801E959FF4F653230F46A302B
:1017900079F06D3009F049C00BC06A3249F06C3203
:1017A00009F043C0D801AC5ABF4F8C9186278C9367
:1017B00080818F3060F4F801E80FF11DEA5AFF4F85
:1017C0001082C80169830E94EF09698101C080E02D
:1017D000F801EA59FF4F90819F5F9083F801E95922
:1017E000FF4F1082F801EB5AFF4F91E06A3209F087
:1017F00090E0908332C0F801E959FF4F1082F80160
:10180000EA59FF4F1082F801EC5AFF4F1082F8019D
:10181000EB59FF4F82E08083F801EB5AFF4F1082B3
:10182000F801E859FF4F108217C080818E3040F4D4
:10183000D801A80FB11DAA5ABF4F6C938F5F808348
:10184000F801EB5AFF4F8081882331F4F801EC5AFC
:10185000FF4F80818627808380E00F90CF91DF91BA
:101860001F910F9108950F931F93CF93DF93EC0176
:1018700089016115710549F088899989AA89BB890F
:10188000FB0180839183A283B3834115510549F005
:10189000888D998DAA8DBB8DFA0180839183A28357
:1018A000B3830115110511F1C45BDF4F8881998164
:1018B000AA81BB818F3FFFEF9F07FFEFAF07FFEFCD
:1018C000BF0759F00E94370F288139814A815B8117
:1018D000621B730B840B950B04C06FEF7FEF8FEFD0
:1018E0009FEFF8016083718382839383DF91CF91AF
:1018F0001F910F9108950F931F93CF93DF93EC01E6
:1019000089016115710549F088859985AA85BB858E
:10191000FB0180839183A283B3834115510549F074
:1019200088819981AA81BB81FA0180839183A283F6
:10193000B3830115110511F1CC5BDF4F88819981CB
:10194000AA81BB818F3FFFEF9F07FFEFAF07FFEF3C
:10195000BF0759F00E94370F288139814A815B8186
:10196000621B730B840B950B04C06FEF7FEF8FEF3F
:101970009FEFF8016083718382839383DF91CF911E
:101980001F910F910895AF92BF92CF92DF92EF9285
:10199000FF920F931F93DF93CF93CDB7DEB72897B6
:1019A0000FB6F894DEBF0FBECDBF6B015A01BE016A
:1019B0006F5F7F4FAE014B5F5F4F0E94330CE9803A
:1019C000FA800B811C818FEFE81689ECF8068AE912
:1019D00008078BE3180759F0C801B7010E942A17BE
:1019E00020E030E543EC57E40E948F1604C060E02D
:1019F00070E08AE794E4382F292F862F972FA32FA2
:101A0000B22FF60180839183A283B383FFEFEF1699
:101A1000F9ECFF06FAE90F07FBE31F0769F06D8198
:101A20007E818F8198850E942A1720E030E543EC63
:101A300057E40E948F1604C060E070E08AE794E4E7
:101A4000382F292F862F972FA32FB22FF5018083B0
:101A50009183A283B38328960FB6F894DEBF0FBE9E
:101A6000CDBFCF91DF911F910F91FF90EF90DF904D
:101A7000CF90BF90AF9008952F923F924F925F9278
:101A80006F927F928F929F92AF92BF92CF92DF928E
:101A9000EF92FF920F931F93DF93CF93CDB7DEB7F3
:101AA0002C970FB6F894DEBF0FBECDBF3B015A870F
:101AB00049873C872B87180127019401BE016F5F7E
:101AC0007F4FAE014B5F5F4F0E947B0C611471042E
:101AD000B9F069817A818B819C8124E630E040E015
:101AE00050E00E94C61D613571051CF08CE697E040
:101AF00002C080ED97E0680F791FF3017183608366
:101B000089859A850097B1F069817A818B819C8162
:101B1000F4E6EF2EF12C012D112DA80197010E9462
:101B2000C61DCA01B901A80197010E94C61DE98519
:101B3000FA8560838B859C85009769F069817A813D
:101B40008B819C8120E137E240E050E00E94C61D7D
:101B5000EB85FC8520832114310461F06D817E8149
:101B60008F81988520E432E44FE050E00E94C61D4A
:101B7000F101208341145104A1F06D817E818F8198
:101B8000988520E137E240E050E00E94C61DCA017E
:101B9000B90124E630E040E050E00E94C61DF201A9
:101BA0006083C114D104A9F06D817E818F819885F5
:101BB000E4E6EE2EF12C012D112DA80197010E94D3
:101BC000C61DCA01B901A80197010E94C61DF601F0
:101BD0006083A114B10461F06D817E818F8198854D
:101BE00024E630E040E050E00E94C61DF50160832D
:101BF0002C960FB6F894DEBF0FBECDBFCF91DF910C
:101C00001F910F91FF90EF90DF90CF90BF90AF901A
:101C10009F908F907F906F905F904F903F902F900C
:101C20000895FC0160A171A182A193A16F3FF9EC1D
:101C30007F07FAE98F07FBE39F0749F00E942A1705
:101C400020E030E048EC52E40E948F1604C060E0CF
:101C500074E284E799E40895FC0160A571A582A56A
:101C600093A56F3FF9EC7F07FAE98F07FBE39F0726
:101C700049F00E94281720E030E048EC52E40E942E
:101C80008F1604C060E070E080E89FEB0895EF924B
:101C9000FF920F931F930E942C0E7B018C0120E07A
:101CA00030E040E85FEB0E948B16882349F0C801C2
:101CB000B70126E53EE04DEE5FE30E94DA1704C06F
:101CC00060E070E080E89FEB1F910F91FF90EF9034
:101CD00008958230E8F4E82FF0E0EE0FFF1FE154A2
:101CE000FB4F71836083813041F0809169008C7F6C
:101CF000842B80936900E89A089580916900440FCD
:101D0000551F440F551F837F842B80936900E99AE8
:101D100008951F920F920FB60F9211242F933F93A5
:101D20004F935F936F937F938F939F93AF93BF93E3
:101D3000EF93FF938091BF049091C004009729F026
:101D4000E091BF04F091C0040995FF91EF91BF911C
:101D5000AF919F918F917F916F915F914F913F9143
:101D60002F910F900FBE0F901F9018951F920F92FA
:101D70000FB60F9211242F933F934F935F936F935E
:101D80007F938F939F93AF93BF93EF93FF93809134
:101D9000C1049091C204009729F0E091C104F09130
:101DA000C2040995FF91EF91BF91AF919F918F91DF
:101DB0007F916F915F914F913F912F910F900FBE47
:101DC0000F901F9018951F920F920FB60F9211242B
:101DD0002F933F934F935F936F937F938F939F9333
:101DE000AF93BF932091C7043091C8044091C904B8
:101DF0005091CA047091CB04DA01C9010296A11D69
:101E0000B11D672F6A5F6D3730F06D57DA01C90178
:101E10000396A11DB11D6093CB048093C7049093DA
:101E2000C804A093C904B093CA048091C3049091DC
:101E3000C404A091C504B091C6040196A11DB11DB2
:101E40008093C3049093C404A093C504B093C604C4
:101E5000BF91AF919F918F917F916F915F914F91C2
:101E60003F912F910F900FBE0F901F9018958FB735
:101E7000F8942091C7043091C8044091C90450914E
:101E8000CA048FBFB901CA0108959FB7F894209181
:101E9000C3043091C4044091C5045091C60486B572
:101EA000A89B06C08F3F21F02F5F3F4F4F4F5F4FE2
:101EB0009FBF542F432F322F2227280F311D411D42
:101EC000511D83E0220F331F441F551F8A95D1F700
:101ED000B901CA010895EF92FF920F931F93CF9318
:101EE000DF937B018C010E94450FEB010FC00E9424
:101EF000450F6C1B7D0B83E0683E780738F0089433
:101F0000E108F10801091109C851DC4FE114F1049D
:101F10000105110561F7DF91CF911F910F91FF909E
:101F2000EF900895789484B5826084BD84B5816013
:101F300084BD85B5826085BD85B5816085BDEEE6D1
:101F4000F0E0808181608083E1E8F0E010828081B0
:101F500082608083808181608083E0E8F0E080811E
:101F600081608083E1EBF0E0808184608083E0EB3E
:101F7000F0E0808181608083EAE7F0E08081846026
:101F80008083808182608083808181608083808182
:101F9000806880831092C1000895833071F084308E
:101FA00028F48130A1F0823021F514C08630B1F0E0
:101FB0008730D1F08430E9F404C0809180008F77BD
:101FC00003C0809180008F7D80938000089584B548
:101FD0008F7702C084B58F7D84BD08958091B00055
:101FE0008F778093B00008958091B0008F7D8093AB
:101FF000B0000895EF92FF92CF93DF9390E0FC0141
:10200000E451FF4F449188529F4FFC0184918823F3
:1020100089F190E0880F991FFC01E654FF4F25914C
:102020003491D9018C539F4FFC0125913491E22EBC
:10203000E7017E01F32EE701662349F49FB7F89488
:102040008C91409584238C93888184230BC06230CB
:1020500059F49FB7F8948C91242F209582238C9368
:102060008881842B888305C09FB7F8948C91842B3A
:102070008C939FBFDF91CF91FF90EF9008950F93C6
:102080001F93DF93CF930F92CDB7DEB7282F30E0A9
:10209000F901E050FF4F8491F901E451FF4F149191
:1020A00028523F4FF90104910023D9F0882321F0F1
:1020B00069830E94CD0F6981E02FF0E0EE0FFF1FD2
:1020C000EC53FF4F85919491DC019FB7F894662300
:1020D00021F48C911095812302C08C91812B8C93DB
:1020E0009FBF0F90CF91DF911F910F910895FC0139
:1020F00024853585F901E05AFF4F808191812E5961
:102100003F4FF90120813181805A9F4F821B930BF1
:1021100060E670E00E949F1D0895FC01848595850E
:10212000FC01E05AFF4F40815181FC01EE59FF4F05
:10213000208131814217530741F00190F081E02D59
:10214000E80FF91F208130E002C02FEF3FEFC901F7
:102150000895FC0184859585FC01E05AFF4F40817C
:102160005181FC01EE59FF4F208131814217530705
:1021700081F0A081B181A80FB91F2C91808191813C
:10218000019660E670E00E949F1D9183808330E09D
:1021900002C02FEF3FEFC9010895DC011E968D911B
:1021A0009C911F97FC01E05AFF4F8E599F4F408131
:1021B0005181DC012D913C91119742175307B9F7DA
:1021C00008951F93FC01162F26853785D901A05A43
:1021D000BF4F8D919C91019660E670E00E949F1D1B
:1021E000D901AE59BF4F4D915C9111978417950756
:1021F000D1F3D901A05ABF4F0D90BC91A02DA20FD1
:10220000B31F1C93A685B785A05ABF4F11969C9308
:102210008E93A689B7892C9181E090E0058C02C04D
:10222000880F991F0A94E2F7282B2C9381E090E005
:102230001F9108951F93182F9B01FB01E05AFF4F38
:1022400080819181019660E670E00E949F1DAC0143
:10225000D901AE59BF4F8D919C91119748175907DD
:1022600039F0A081B181A20FB31F1C935183408329
:102270001F91089508951F920F920FB60F92112487
:102280002F933F934F935F936F937F938F939F937E
:10229000AF93BF93EF93FF938091C6006CEC74E013
:1022A0000E941A11FF91EF91BF91AF919F918F9171
:1022B0007F916F915F914F913F912F910F900FBE42
:1022C0000F901F90189584E995E00E947710009771
:1022D00011F00E943A1108951F920F920FB60F92BB
:1022E00011242F933F935F936F937F938F939F93CB
:1022F000AF93BF93EF93FF93209190053091910599
:1023000080919205909193052817390731F48091B7
:10231000C1008F7D8093C10016C0E0919205F091BD
:102320009305E05DFA4F208180919205909193058D
:10233000019660E670E00E949F1D90939305809344
:1023400092052093C600FF91EF91BF91AF919F91AD
:102350008F917F916F915F913F912F910F900FBE61
:102360000F901F9018959F92AF92BF92CF92DF92DD
:10237000EF92FF920F931F93CF93DF93EC017A01BB
:102380008B0199249394EC89FD8981E090E00E8C77
:1023900002C0880F991F0A94E2F7808360E874E80E
:1023A0008EE190E0A80197010E94C61D21503040A7
:1023B00040405040569547953795279590E4A92E73
:1023C00092E4B92E9FE0C92ED12C12C09924EC8939
:1023D000FD891082C601B501A80197010E94C61DA2
:1023E00021503040404050405695479537952795AD
:1023F00080E12030380710F0992041F7E889F98909
:102400003083EA89FB892083EE89FF89408181E05E
:1024100090E09C010A8C02C0220F331F0A94E2F75D
:10242000422B4083EE89FF8940819C010B8C02C0C6
:10243000220F331F0A94E2F7422B4083EE89FF8973
:1024400040819C010C8C02C0220F331F0A94E2F7DA
:10245000422B4083EE89FF8920810D8C02C0880FBA
:10246000991F0A94E2F7809582238083DF91CF91B0
:102470001F910F91FF90EF90DF90CF90BF90AF90A2
:102480009F900895109297051092960588EE93E01C
:10249000A0E0B0E08093980590939905A0939A05E9
:1024A000B0939B05E6E9F5E08DED92E0929382937F
:1024B0008CEC94E09587848780E395E09787868706
:1024C00085EC90E0918B808B84EC90E0938B828BF9
:1024D00080EC90E0958B848B81EC90E0978B868BE1
:1024E00086EC90E0918F808F84E0828F83E0838FF1
:1024F00087E0848F85E0858F81E0868F0895CF9275
:10250000DF92EF92FF920F931F93CF93DF936C01B3
:102510007B018A01C0E0D0E00FC0D7016D917D0141
:10252000D601ED91FC910190F081E02DC601099555
:10253000C80FD91F015010400115110571F7CE01C8
:10254000DF91CF911F910F91FF90EF90DF90CF908F
:102550000895DB010D900020E9F7AD014150504096
:10256000461B570BDC01ED91FC910280F381E02DBD
:10257000099508950E94A9120895DC01ED91FC913E
:102580000190F081E02D099508950F931F93CF934B
:10259000DF93EC016DE00E94BD128C01CE016AE078
:1025A0000E94BD12080F191FC801DF91CF911F9122
:1025B0000F9108950F931F93CF93DF93EC010E9427
:1025C000A9128C01CE010E94C512080F191FC80163
:1025D000DF91CF911F910F910895CF93DF930E94C8
:1025E000920F0E94EE01C3E6D1E10E94BD06209742
:1025F000E1F30E946311F9CF2091B3053091B40546
:1026000028173907B1F4909136068091350698174E
:1026100081F0E0913606F0E0EB54FA4F2081809192
:10262000360690E001968F7790708093360630E002
:1026300002C02FEF3FEFC90108952091B3053091FB
:10264000B4052817390779F48091350620913606AC
:1026500090E080589F4F821B910960E870E00E94D3
:10266000B31D9C0102C020E030E0C9010895209113
:10267000B3053091B4052817390749F48FB7F8949A
:102680001092350690913506909336068FBF0895C7
:102690002091B3053091B4052817390771F4909152
:1026A000360680913506981741F0E0913606F0E045
:1026B000EB54FA4F208130E002C02FEF3FEFC90109
:1026C000089520E001972FEF8F3F9207D9F70895E3
:1026D000FC018091B3059091B4058E179F0791F08E
:1026E000838D8E7F838F8FB7F894109235069091EB
:1026F000350690933606F093B405E093B3058FBF8B
:1027000081E0089580E00895EF92FF920F931F9368
:10271000CF93DF93EC018B8DEE85FF859D8581FF47
:1027200004C08081892329F445C08081892309F070
:1027300041C08B899C890E94611308E010E0EE245F
:10274000E394FF248D899E890E946113EE85FF85A5
:1027500080819D85892311F0FE2803C08E2D8095F0
:10276000F822EE0C0150104069F78F89988D0E9475
:1027700061138B8D81FDF094809135062091360692
:1027800090E001968F77907030E08217930779F090
:10279000E0913506F0E0EB54FA4FF0828091350677
:1027A00090E001968F7790708093350603C08B8DF3
:1027B00081608B8FDF91CF911F910F91FF90EF90F0
:1027C0000895FC01A189B2899089662329F42C918E
:1027D000892F8095822302C08C91892B8C93089538
:1027E000DF92EF92FF920F931F93CF93DF93EC0151
:1027F000E62E898D9A8D009739F481E090E09B83D5
:102800008A8320E030E04BC0DFB6F8948B8D61E026
:1028100081FF60E0CE010E94E113898D9A8D0496BC
:102820000E9461138B8D81FF19C008E010E0FF2426
:10283000F3948F2D8E2119F0CE0160E002C0CE01FD
:1028400061E00E94E113898D9A8D0E946113FF0C53
:102850000150104071F7CE0160E018C008E010E0B0
:10286000FF24F3948F2D8E2119F0CE0161E002C078
:10287000CE0160E00E94E113898D9A8D0E94611360
:10288000FF0C0150104071F7CE0161E00E94E1138E
:10289000DFBE898D9A8D0E94611321E030E0C9016D
:1028A000DF91CF911F910F91FF90EF90DF900895EE
:1028B0008091B3059091B405009711F00E948413A4
:1028C00008951F920F920FB60F9211242F933F93EA
:1028D0004F935F936F937F938F939F93AF93BF9328
:1028E000EF93FF930E945814FF91EF91BF91AF9126
:1028F0009F918F917F916F915F914F913F912F9118
:102900000F900FBE0F901F9018951F920F920FB649
:102910000F9211242F933F934F935F936F937F9365
:102920008F939F93AF93BF93EF93FF930E9458149D
:10293000FF91EF91BF91AF919F918F917F916F9197
:102940005F914F913F912F910F900FBE0F901F906D
:1029500018951F920F920FB60F9211242F933F9349
:102960004F935F936F937F938F939F93AF93BF9397
:10297000EF93FF930E945814FF91EF91BF91AF9195
:102980009F918F917F916F915F914F913F912F9187
:102990000F900FBE0F901F9018951F93CF93DF934A
:1029A000EC01162F862F61E00E94FA0F812F61E063
:1029B0000E943F10812F90E0FC01E451FF4FE49111
:1029C000E88BFC01E852FF4FE491F0E0EE0FFF1FAF
:1029D000EC53FF4F85919491898B9A8BDF91CF9126
:1029E0001F9108951F93CF93DF93EC01162F862F2D
:1029F00060E00E94FA0F8B8D81FD04C0812F61E0A1
:102A00000E943F101C87812F90E0FC01E451FF4F92
:102A1000E491ED87FC01E852FF4FE491F0E0EE0F06
:102A2000FF1FE253FF4F859194918E879F87DF911F
:102A3000CF911F9108951F93CF93DF93EC01162F31
:102A40001B821A8288EE93E0A0E0B0E08C839D8325
:102A5000AE83BF838DEE92E0998388831C8A1B8AA4
:102A60001E8A1D8A188E1F8A1A8E198E8B8D2170D0
:102A7000220F8C7F822B8B8FCE01642F0E94CD146E
:102A8000CE01612F0E94F214DF91CF911F91089522
:102A9000EF92FF920F931F93CF93DF93EC017A0194
:102AA0008B011A8E198E188E1F8A1E8A1D8A1C8A07
:102AB0001B8A40E050E09A01220F331F240F351F7C
:102AC000220F331F220F331FF901EC5EFE4F859159
:102AD0009591A591B4918E159F05A007B107E9F4D2
:102AE000F901E85EFE4F859194918B8B9C8BF901E7
:102AF000E65EFE4F859194918D8B9E8BF901E45E8D
:102B0000FE4F859194918F8B988F225E3E4FF901F5
:102B100085919491898F9A8F06C04F5F5F4F4C309B
:102B2000510509F0C8CF8F89988D009709F448C0E6
:102B30009C85963108F040C020916800983020F0C4
:102B40009E3020F082E003C084E001C081E0822B4F
:102B5000809368004C85483048F04E3060F0463134
:102B6000C8F1A0E0B0E0E0E0F0E009C0ADE6B0E020
:102B7000EDE6F0E004C0ABE6B0E0EBE6F0E050815B
:102B8000483040F481E090E002C0880F991F4A95D8
:102B9000E2F710C0242F30E04E3018F428503040B7
:102BA00002C02E50304081E090E002C0880F991F93
:102BB0002A95E2F7852B8C93898D9A8D0E9461135B
:102BC000CE010E946813DF91CF911F910F91FF906A
:102BD000EF900895ACE6B0E0ECE6F0E0D0CFFC0179
:102BE0004485463150F5483028F04E3030F0ECE660
:102BF000F0E005C0EDE6F0E002C0EBE6F0E0508169
:102C0000483040F481E090E002C0880F991F4A9557
:102C1000E2F710C0242F30E04E3018F42850304036
:102C200002C02E50304081E090E002C0880F991F12
:102C30002A95E2F780958523808308952DEE32E072
:102C4000FC01318320830E94EF1508955058BB2763
:102C5000AA270ED075C166D130F06BD120F031F4C7
:102C60009F3F11F41EF45BC10EF4E095E7FB51C1E8
:102C7000E92F77D180F3BA176207730784079507A6
:102C800018F071F49EF58FC10EF4E0950B2EBA2F5B
:102C9000A02D0B01B90190010C01CA01A001112462
:102CA000FF27591B99F0593F50F4503E68F11A160E
:102CB000F040A22F232F342F4427585FF3CF46959F
:102CC00037952795A795F0405395C9F77EF41F16C1
:102CD000BA0B620B730B840BBAF09150A1F0FF0F8B
:102CE000BB1F661F771F881FC2F70EC0BA0F621F77
:102CF000731F841F48F4879577956795B795F79567
:102D00009E3F08F0B3CF9395880F08F09927EE0FF8
:102D1000979587950895D9D008F481E008950CD04F
:102D20000FC107D140F0FED030F021F45F3F19F021
:102D3000F0C0511139C1F3C014D198F39923C9F3EC
:102D40005523B1F3951B550BBB27AA2762177307B1
:102D5000840738F09F5F5F4F220F331F441FAA1F65
:102D6000A9F333D00E2E3AF0E0E830D09150504025
:102D7000E695001CCAF729D0FE2F27D0660F771FD3
:102D8000881FBB1F261737074807AB07B0E809F0B5
:102D9000BB0B802DBF01FF2793585F4F2AF09E3F4A
:102DA000510568F0B6C000C15F3FECF3983EDCF31C
:102DB000869577956795B795F7959F5FC9F7880FC3
:102DC000911D9695879597F90895E1E0660F771F15
:102DD000881FBB1F621773078407BA0720F0621BA6
:102DE000730B840BBA0BEE1F88F7E095089504D09F
:102DF0006894B111D9C00895BCD088F09F5790F065
:102E0000B92F9927B751A0F0D1F0660F771F881F0F
:102E1000991F1AF0BA95C9F712C0B13081F0C3D02A
:102E2000B1E00895C0C0672F782F8827B85F39F0C8
:102E3000B93FCCF3869577956795B395D9F73EF46E
:102E400090958095709561957F4F8F4F9F4F089516
:102E5000E89409C097FB3EF4909580957095619534
:102E60007F4F8F4F9F4F9923A9F0F92F96E9BB27EA
:102E70009395F695879577956795B795F111F8CF66
:102E8000FAF4BB0F11F460FF1BC06F5F7F4F8F4FD1
:102E90009F4F16C0882311F096E911C0772321F0C7
:102EA0009EE8872F762F05C0662371F096E8862F5F
:102EB00070E060E02AF09A95660F771F881FDAF7B6
:102EC000880F9695879597F90895990F0008550FE3
:102ED000AA0BE0E8FEEF16161706E807F907C0F0A0
:102EE00012161306E407F50798F0621B730B840BA8
:102EF000950B39F40A2661F0232B242B252B21F482
:102F000008950A2609F4A140A6958FEF811D811D21
:102F1000089597F99F6780E870E060E008959FEF5B
:102F200080EC089500240A94161617061806090660
:102F3000089500240A94121613061406050608952F
:102F4000092E0394000C11F4882352F0BB0F40F4B7
:102F5000BF2B11F460FF04C06F5F7F4F8F4F9F4FF7
:102F6000089557FD9058440F551F59F05F3F71F079
:102F70004795880F97FB991F61F09F3F79F08795E0
:102F80000895121613061406551FF2CF4695F1DF69
:102F900008C0161617061806991FF1CF86957105F9
:102FA000610508940895E894BB2766277727CB012D
:102FB00097F908950BD0C4CFB5DF28F0BADF18F029
:102FC000952309F0A6CFABCF1124EECFCADFA0F333
:102FD000959FD1F3950F50E0551F629FF001729FAE
:102FE000BB27F00DB11D639FAA27F00DB11DAA1FCD
:102FF000649F6627B00DA11D661F829F2227B00D1A
:10300000A11D621F739FB00DA11D621F839FA00DA4
:10301000611D221F749F3327A00D611D231F849FF4
:10302000600D211D822F762F6A2F11249F5750404B
:103030008AF0E1F088234AF0EE0FFF1FBB1F661FE6
:10304000771F881F91505040A9F79E3F510570F09F
:1030500060CFAACF5F3FECF3983EDCF3869577957F
:103060006795B795F795E7959F5FC1F7FE2B880F9A
:10307000911D9695879597F90895EF92FF920F937A
:103080001F93322FF02E47FF02C0A4E101C0A4E03D
:10309000E42FFF27E7FDF095F7FF03C0F095E195DA
:1030A000FF4F4F2D512F2E2F032FEA2E0E94B11AC2
:1030B0008F2D912F1F910F91FF90EF900895FC019C
:1030C00088279927E89421912032E9F3293010F0DC
:1030D0002E30C8F32B3241F02D3239F4689404C0FD
:1030E0000E949F18820F911D219120532A30C0F316
:1030F0001EF4909581959F4F0895FB01DC010D9082
:103100000020E9F7119701900D920020E1F7089552
:10311000FB01DC0101900D920020E1F70895FB0115
:10312000DC010D900020E9F711974150504028F044
:10313000019000200D92C9F708951C9208957AE03D
:10314000979F902D879F802D910D11240895AEE0BB
:10315000B0E0EDEAF8E10C94F61D0D891E8986E0D9
:103160008C831A8309838FEF9FE79E838D839E0153
:10317000275E3F4FCE0101966F89788DA9010E948D
:10318000CA18EF81F885E00FF11F10822E96E4E057
:103190000C94121EACE0B0E0E0EDF8E10C94E81DF8
:1031A0006C011B018A01FC0117821682838181FF59
:1031B000D1C12E010894411C511CF6019381F101EB
:1031C00093FD859193FF81911F01882309F4BEC16E
:1031D000853239F493FD859193FF81911F018532EA
:1031E00029F490E0B6010E94F61CE7CFEE24FF24FC
:1031F00020E02032B0F48B3269F08C3228F4803237
:1032000051F0833271F40BC08D3239F0803349F4C0
:1032100021602CC02260246029C0286027C0206162
:1032200025C027FD2CC0382F30533A3098F426FFA4
:1032300008C08E2D880FE82EEE0CEE0CE80EE30E83
:1032400015C08F2D880FF82EFF0CFF0CF80EF30E13
:1032500020620CC08E3221F426FD78C1206406C0A5
:103260008C3611F4206802C0883649F4F10193FDD0
:10327000859193FF81911F01882309F0BACF982F80
:103280009554933018F09052933028F40C5F1F4FF0
:10329000FFE3F9830DC0833631F0833771F0833556
:1032A00009F060C022C0F801808189830E5F1F4F42
:1032B000420171E0A72EB12C16C062E0662E712C7F
:1032C000600E711EF8018080918026FF03C06E2D74
:1032D00070E002C06FEF7FEFC4012C870E94EB1CEF
:1032E0005C0183012C852F7717C052E0652E712C6D
:1032F000600E711EF8018080918026FF03C06E2D44
:1033000070E002C06FEF7FEFC4012C870E94E01CC9
:103310005C012C852068830123FD20C008C080E269
:1033200090E0B6012C870E94F61CFA942C858F2D14
:1033300090E0A816B90698F311C0F40127FD859115
:1033400027FF81914F0190E0B6012C870E94F61C67
:103350002C85F110FA940894A108B108A114B104C5
:1033600061F7F1C0843611F0893649F527FF08C0AE
:10337000F80160817181828193810C5F1F4F09C0C8
:10338000F80160817181882777FD8095982F0E5F05
:103390001F4F4FE6B42EB22297FF09C0909580953B
:1033A000709561957F4F8F4F9F4FF0E8BF2AA20124
:1033B0002AE030E00E94221D782E741845C085371F
:1033C00031F43FEEB32EB2222AE030E025C099EF6F
:1033D000B92EB2228F36C1F0803720F4883509F03B
:1033E000B5C00DC0803721F0883709F0AFC002C0EA
:1033F00020E1B22AB4FE0BC084E0B82A08C0B4FEB3
:1034000009C0E6E0BE2A06C028E030E005C020E1A1
:1034100030E002C020E132E0B7FE08C0F801608170
:103420007181828193810C5F1F4F07C0F801608119
:10343000718180E090E00E5F1F4FA2010E94221D6B
:10344000782E7418FFE7BF22B6FE0BC02EEFB22213
:103450007E1438F4B4FE07C0B2FC05C08FEEB8226B
:1034600002C0A72C01C0AE2C8B2D90E0B4FE0DC085
:10347000FE01E70DF11D2081203319F4E9EEBE2293
:1034800009C0A394B2FE06C004C08678907000976D
:1034900009F0A3948B2C9924B3FC14C0B0FE0FC088
:1034A000AF1428F4E72CEF0CEA18AF2C08C0E72C77
:1034B00006C080E290E0B6010E94F61CA394AF140F
:1034C000C0F304C0AF1410F4FA1801C0FF2484FE46
:1034D0000FC080E390E0B6010E94F61C82FE1FC080
:1034E00081FE03C088E590E010C088E790E00DC041
:1034F000C40186789070009791F081FC02C080E250
:1035000001C08BE2B7FC8DE290E0B6010E94F61C90
:1035100006C080E390E0B6010E94F61CEA947E1497
:10352000C0F37A94F201E70DF11D808190E0B601BD
:103530000E94F61C7720A9F706C080E290E0B60151
:103540000E94F61CFA94FF20C1F737CEF6012681BF
:10355000378102C02FEF3FEFC9012C96E2E10C94B6
:10356000041EA9E0B0E0E7EBFAE10C94F01D6A015B
:10357000F22E102F0C3318F4B02EB39402C0ECE3EB
:10358000BE2EAE014F5F5F4F27E00B2D0E94081C3F
:10359000298130E0A901497050704130510531F066
:1035A000E1FC06C0E0FE06C0E0E205C0EDE203C0BB
:1035B000EBE201C0E0E023FF37C0EE2311F084E02E
:1035C00001C083E08F1518F4F81A8F2D01C080E038
:1035D000E4FC0BC0982FD60120E202C02D9391503D
:1035E0009923E1F7C80ED11C80E0EE2319F0D60133
:1035F000ED936D01F6013196E2FE05C09EE4D60121
:103600009C9321E404C09EE6D6019C9321E611968A
:103610002C9391833296982FDF0120E202C02D93E4
:1036200091509923E1F73DC022FF41C0EE2311F0F4
:1036300084E001C083E08F1518F4F81A8F2D01C0C3
:1036400080E0E4FC0BC0982FD60120E202C02D934D
:1036500091509923E1F7C80ED11C80E0EE2319F0B8
:10366000D601ED936D01F6013196E2FE09C099E4B1
:10367000D6019C939EE411969C93119796E407C003
:1036800099E6D6019C939EE611969C9396E69183CB
:103690003296982FDF0120E202C02D93915099239A
:1036A000E1F7E80FF11D10822EEF3FEFACC041E0D3
:1036B00050E0EE2311F440E050E01816190624F40F
:1036C000BC016F5F7F4F02C061E070E0640F751F47
:1036D000112329F0412F50E04F5F5F4F02C040E0BF
:1036E00050E0460F571F6F2D70E0461757071CF428
:1036F0000F2D041B01C000E0FF24A7014071507092
:10370000E4FC0DC0E3FC0BC0602FD60170E202C0E8
:103710007D9361506623E1F7C00ED11C00E0EE23DB
:1037200019F0D601ED936D014115510559F4402F63
:10373000F60150E302C0519341504423E1F7C00E1B
:10374000D11C00E0B80EFA80A9014071507024FF2E
:1037500004C0BF2DB13309F4BA941B142CF4AB2D63
:10376000A93018F0A8E001C0A1E09C0197FF02C0B9
:1037700020E030E0BC016F5F7F4F621B730BFE01E6
:103780003196E60FF71F6EE2E62EBC016A1B710947
:10379000A12FB0E0AA24BB24AA1ABB0A1FEF2F3F17
:1037A000310719F4D601ED926D01821793072CF0C1
:1037B0006217730714F4108101C010E321503040E8
:1037C00031962A153B0524F0D6011D936D01E6CFF5
:1037D0002817390749F4BF2DB63328F4B53321F43F
:1037E0004115510509F411E3F6011193802FDF0112
:1037F00090E202C09D9381508823E1F7E00FF11D14
:10380000108220E030E0C9012996EAE00C940C1EF9
:10381000283008F027E03327DA01990F311D87FDA2
:10382000916000966105710539F432602E5F3D9319
:1038300030E32A95E1F708959F3F30F08038710515
:10384000610509F03C5F3C5F3D93913008F0806872
:10385000911DDF93CF931F930F93FF92EF92192F38
:10386000987F9695E92F96959695E90FFF27E25058
:10387000FE4F99273327EE24FF24A701E701059087
:103880000894079428F4360FE71EF81E491F511DAF
:10389000660F771F881F991F0694A1F7059007945C
:1038A00028F4E70EF81E491F561FC11D770F881F09
:1038B000991F661F0694A1F70590079428F4F80E47
:1038C000491F561FC71FD11D880F991F661F771FDD
:1038D0000694A1F70590079420F4490F561FC71FBF
:1038E000D81F990F661F771F881F0694A9F7849128
:1038F0001095177041F0D695C79557954795F79451
:10390000E7941A95C1F7E4EAF1E0689415901591EF
:1039100035916591959105907FE27395E118F10AD3
:10392000430B560BC90BD009C0F7E10CF11E431F26
:10393000561FC91FD01D7EF4703311F48A95E6CF4F
:10394000E894015030F0080F0AF40027021708F439
:10395000202F2395022F7A3328F079E37D932A953F
:10396000E9F710C07D932A9589F606949795679597
:10397000379517951794E118F10A430B560BC90BAD
:10398000D00998F023957E9173957A3308F070E30F
:103990007C932013B8F77E9170617D9330F083950E
:1039A00071E37D9370E32A95E1F71124EF90FF9086
:1039B0000F911F91CF91DF91992787FD90950895E1
:1039C000FC010590615070400110D8F780959095EA
:1039D0008E0F9F1F0895FC016150704001900110EF
:1039E000D8F7809590958E0F9F1F08950F931F9382
:1039F000CF93DF938C01EB018B8181FF1BC082FF92
:103A00000DC02E813F818C819D812817390764F478
:103A1000E881F9810193F983E88306C0E885F98597
:103A2000802F0995009731F48E819F8101969F83A5
:103A30008E8302C00FEF1FEFC801DF91CF911F915E
:103A40000F910895FA01AA27283051F1203181F110
:103A5000E8946F936E7F6E5F7F4F8F4F9F4FAF4F96
:103A6000B1E03ED0B4E03CD0670F781F891F9A1FA9
:103A7000A11D680F791F8A1F911DA11D6A0F711D5D
:103A8000811D911DA11D20D009F468943F912AE069
:103A9000269F11243019305D3193DEF6CF01089551
:103AA000462F4770405D4193B3E00FD0C9F7F6CF82
:103AB000462F4F70405D4A3318F0495D31FD40524A
:103AC000419302D0A9F7EACFB4E0A69597958795E0
:103AD00077956795BA95C9F70097610571050895BF
:103AE0009B01AC010A2E069457954795379527956B
:103AF000BA95C9F7620F731F841F951FA01D089503
:103B0000629FD001739FF001829FE00DF11D649FC1
:103B1000E00DF11D929FF00D839FF00D749FF00D4D
:103B2000659FF00D9927729FB00DE11DF91F639FEE
:103B3000B00DE11DF91FBD01CF0111240895AA1B8D
:103B4000BB1B51E107C0AA1FBB1FA617B70710F088
:103B5000A61BB70B881F991F5A95A9F780959095BA
:103B6000BC01CD01089597FB092E07260AD077FDE9
:103B700004D0E5DF06D000201AF4709561957F4FE0
:103B80000895F6F7909581959F4F0895A1E21A2E1A
:103B9000AA1BBB1BFD010DC0AA1FBB1FEE1FFF1FF1
:103BA000A217B307E407F50720F0A21BB30BE40B41
:103BB000F50B661F771F881F991F1A9469F7609588
:103BC0007095809590959B01AC01BD01CF01089542
:103BD0002F923F924F925F926F927F928F929F921D
:103BE000AF92BF92CF92DF92EF92FF920F931F930B
:103BF000CF93DF93CDB7DEB7CA1BDB0B0FB6F894BC
:103C0000DEBF0FBECDBF09942A88398848885F84FB
:103C10006E847D848C849B84AA84B984C884DF806C
:103C2000EE80FD800C811B81AA81B981CE0FD11D50
:103C30000FB6F894DEBF0FBECDBFED010895EE0FB5
:103C4000FF1F0590F491E02D099412E0C2EAD2E042
:103C500004C0FE010E94211E2296C43AD107C9F772
:043C6000F894FFCF06
:103C6400202D207265736574004F70656E4C6F670C
:103C740020696E6974206661696C65642021204343
:103C84006865636B2069662074686520434F4E46FF
:103C940049472E5458542069732073657420746FF7
:103CA40020393630302C32362C332C3200202D2063
:103CB400726561647900496E697469616C697A69D5
:103CC4006E67204F70656E4C6F672E00496E697485
:103CD40069616C697A696E672070756C73652063BD
:103CE4006F756E7465722E00496E697469616C69D2
:103CF4007A696E67204750532E004465766964657F
:103D0400206964203D2000536574757020636F6DD5
:103D1400706C657465642E00202D20617070656E72
:103D2400642000617070656E642000202D2077612E
:103D3400697400417070656E642066696C65206604
:103D440061696C6564002D002530326400256400CF
:103D5400256C64002425732C25732C253032642DA6
:103D6400253032642D2530326454253032643A25AE
:103D74003032643A253032645A2C256C642C256C1C
:103D8400642C256C642C25632C25732C25632C252D
:103D9400732C25632C25732C25632C25732C2573F8
:103DA400002A302558002A2558004372656174653D
:103DB400206E6577206C6F6766696C652E004750CE
:103DC400524D43004750474741004E004E4E450078
:103DD4004E4500454E4500450045534500534500BA
:103DE40053534500530053535700535700575357E9
:103DF400005700574E57004E57004E4E5700424E44
:103E04005244440023204E4557204C4F470A232058
:103E1400666F726D61743D312E302E306E616E6F3F
:103E24000A002E6C6F670056303030305600007A2E
:103E34004400247449000080BF00000000E1107FAA
:103E4400127710A9108D10CD1000000000F0137F20
:0A3E5400121D13FC1248133713006F
:00000001FF
