:100000000C9447040C9418150C9445150C94B21BD1
:100010000C94D61B0C94FA1B0C946F040C946F0474
:100020000C946F040C946F040C946F040C946F0484
:100030000C946F040C946F040C946F040C946F0474
:100040000C9472150C946F040C94B3170C94E41771
:100050000C946F040C946F040C946F040C946F0454
:100060000C94DF240C946F04B710CD10E910FD1030
:10007000101142114B1156115F116A116A116A1168
:100080006A116A116A116A116A116A116A116A1198
:100090006A116A116A116A116A116A116A116A1188
:1000A0006A116A116A116A11B710C510CD10E910F2
:1000B000FD10101124112D113611084AD73B3BCEEB
:1000C000016E84BCBFFDC12F3D6C74319ABD568357
:1000D0003DDA3D00C77F11BED9E4BB4C3E916BAA0F
:1000E000AABE000000803F05A84CCDB2D44EB9385E
:1000F00036A9020C50B9918688083CA6AAAA2ABE45
:10010000000000803F256C642E2530346C64002391
:10011000204E4557204C4F470A2320666F726D6171
:10012000743D312E302E306E616E6F0A00253032F4
:10013000642F2530326420253032643A2530326411
:100140003A25303264002A2558002A3025580024E8
:1001500025732C25732C253032642D253032642DE7
:100160002530326454253032643A253032643A25E1
:100170003032645A2C256C642C256C642C256C64FC
:100180002C25632C25732C25632C25732C25632C9F
:1001900025732C25632C256C642C256400253032B6
:1001A0006400253032640000000000240027002A8B
:1001B0000000000000250028002B000000000023A4
:1001C00000260029000404040404040404020202BA
:1001D0000202020303030303030102040810204088
:1001E0008001020408102001020408102000000011
:1001F00007000201000003040600000000000000E8
:100200000000C20100010005000500030000E1003C
:100210000001000F000F000D000096000002001901
:10022000001A001700127A00000700200021001DAC
:1002300000807000000B00230023002000004B0012
:10024000001400370037003400403800001E004B17
:10025000004B0048008025000032007200720070E0
:1002600000C01200006E00E900E900E6006009002D
:1002700000E500D801D801D501B0040000D301B4D5
:1002800003B403B1032C0100006707DD0EDD0EDAB5
:100290000E00000000003E5B4F5B3E3E6B4F6B3E2E
:1002A0001C3E7C3E1C183C7E3C181C577D571C1C79
:1002B0005E7F5E1C00183C1800FFE7C3E7FF0018D4
:1002C000241800FFE7DBE7FF30483A060E262979BD
:1002D0002926407F050507407F05253F5A3CE73C1E
:1002E0005A7F3E1C1C08081C1C3E7F14227F2214CF
:1002F0005F5F005F5F06097F017F006689956A6026
:100300006060606094A2FFA29408047E040810203C
:100310007E201008082A1C08081C2A08081E101035
:1003200010100C1E0C1E0C30383E3830060E3E0EDF
:1003300006000000000000005F000000070007004A
:10034000147F147F14242A7F2A1223130864623630
:10035000495620500008070300001C2241000041BC
:10036000221C002A1C7F1C2A08083E0808008070F6
:100370003000080808080800006060002010080429
:10038000023E5149453E00427F400072494949467C
:100390002141494D331814127F1027454545393CFA
:1003A0004A494931412111090736494949364649E7
:1003B00049291E0000140000004034000000081409
:1003C0002241141414141400412214080201590982
:1003D000063E415D594E7C1211127C7F49494936D7
:1003E0003E414141227F4141413E7F494949417F50
:1003F000090909013E414151737F0808087F004106
:100400007F41002040413F017F081422417F40404E
:1004100040407F021C027F7F0408107F3E41414123
:100420003E7F090909063E4151215E7F091929468F
:10043000264949493203017F01033F4040403F1FA5
:100440002040201F3F4038403F63140814630304DA
:100450007804036159494D43007F4141410204083A
:100460001020004141417F0402010204404040400D
:1004700040000307080020545478407F2844443843
:100480003844444428384444287F3854545418008D
:10049000087E090218A4A49C787F0804047800440C
:1004A0007D40002040403D007F1028440000417FF7
:1004B00040007C047804787C080404783844444480
:1004C00038FC1824241818242418FC7C0804040878
:1004D000485454542404043F44243C4040207C1C91
:1004E0002040201C3C4030403C44281028444C9084
:1004F00090907C4464544C440008364100000077DE
:100500000000004136080002010204023C262326B6
:100510003C1EA1A161123A4040207A3854545559EA
:100520002155557941215454784121555478402022
:10053000545579400C1E527212395555555939543B
:1005400054545939555454580000457C41000245D3
:100550007D420001457C40F0292429F0F02825281F
:10056000F07C545545002054547C547C0A097F4942
:1005700032494949323248484832324A4848303A8A
:100580004141217A3A42402078009DA0A07D394423
:100590004444393D4040403D3C24FF2424487E49AA
:1005A00043662B2FFC2F2BFF0929F620C0887E09DC
:1005B0000320545479410000447D413048484A3278
:1005C000384040227A007A0A0A727D0D19317D2660
:1005D00029292F28262929292630484D4020380846
:1005E00008080808080808382F10C8ACBA2F1028C7
:1005F00034FA00007B000008142A142222142A1462
:1006000008AA005500AAAA55AA55AA000000FF0092
:10061000101010FF00141414FF001010FF00FF1042
:1006200010F010F0141414FC001414F700FF000074
:10063000FF00FF1414F404FC141417101F10101FF3
:10064000101F1414141F00101010F0000000001FE1
:10065000101010101F10101010F010000000FF10EC
:100660001010101010101010FF10000000FF1400E8
:1006700000FF00FF00001F10170000FC04F414141A
:100680001710171414F404F40000FF00F7141414E6
:1006900014141414F700F7141414171410101F1066
:1006A0001F141414F4141010F010F000001F101F89
:1006B0000000001F14000000FC140000F010F010F7
:1006C00010FF10FF141414FF141010101F0000006E
:1006D00000F010FFFFFFFFFFF0F0F0F0F0FFFFFF72
:1006E0000000000000FFFF0F0F0F0F0F38444438C9
:1006F000447C2A2A3E147E02020606027E027E0204
:1007000063554941633844443C04407E201E200622
:10071000027E020299A5E7A5991C2A492A1C4C725F
:1007200001724C304A4D4D303048784830BC625AE6
:10073000463D3E494949007E0101017E2A2A2A2A76
:100740002A44445F444440514A444040444A514052
:100750000000FF0103E080FF000008086B6B083613
:1007600012362436060F090F060000181800000084
:100770001010003040FF0101001F01011E00191D73
:100780001712003C3C3C3C000000000000407A1086
:10079000F35A00A0724E18090010A5D4E80000E832
:1007A0007648170000E40B54020000CA9A3B000090
:1007B00000E1F505000080969800000040420F001F
:1007C0000000A08601000000102700000000E803E0
:1007D000000000006400000000000A0000000000AB
:1007E0000100000000002C76D888DC674F0823DF6A
:1007F000C1DFAE59E1B1B796E5E3E453C63AE6513D
:10080000997696E8E6C28426EB898C9B62ED407C63
:100810006FFCEFBC9C9F40F2BAA56FA5F490055AFF
:100820002AF75C936B6CF9676DC11BFCE0E40D4724
:10083000FEF520E6B500D0ED902E03009435770547
:100840000080841E080000204E0A000000C80C33FF
:100850003333330F986E12831141EF8D2114893B8E
:10086000E65516CFFEE6DB18D1844B381BF77C1D0E
:10087000901DA4BBE424203284725E228100C9F161
:1008800024ECA1E53D27AE0CAE182424B30C1124B2
:100890001FBECFEFD8E0DEBFCDBF13E0A0E0B1E0D8
:1008A000E0EDF1E602C005900D92AA3EB107D9F73E
:1008B00017E0AAEEB3E001C01D92AB3BB107E1F730
:1008C00018E0CCE8D8E004C02297FE010E94D7309F
:1008D000C638D107C9F70E943E1A0C9471040C94D3
:1008E0000000F8940C94DB30EF920F938130910567
:1008F000F1F48AEE93E066E047E025E003E034E0BF
:10090000E32E0E94272187E694E06AE04BE020E096
:100910000E946C1C84E894E061E00E94410D88EF25
:1009200094E068E049E020E00E946C1C0AC0009757
:1009300041F488EF94E00E946F1D87E694E00E94E6
:100940006F1D0F91EF900895BF92CF92DF92EF92BB
:10095000FF920F931F93CF93DF938DE061E00E948E
:10096000891683E596E040E855E260E070E00E9479
:100970001F1829E288E190E00FB6F894A8958093BB
:1009800060000FBE20936000A89587E694E040E8E1
:1009900055E260E070E00E94991C8CE061E00E94EA
:1009A000891687E694E00E94B91A8CE060E00E9404
:1009B000C71664E670E080E090E00E94FA158CE0D3
:1009C00061E00E94C716C0E0D0E0219687E694E07F
:1009D0000E946E1A009739F087E694E00E944D1A43
:1009E0008E33910551F06AE070E080E090E00E9463
:1009F000FA15C83CD10549F703C0C83CD10524F01D
:100A000081E080932C0403C081E08093830480E024
:100A100090E048E853E160E070E00E94CC0C0E9456
:100A2000E70C88EF94E040E855E260E070E00E9457
:100A3000991C88EF94E00E94B91AF894C5E7D1E0B8
:100A400004E610E058E5D52EB02EC12E86EF96E0D4
:100A5000B8010E94771D888343E0E42EF12C888141
:100A600080538A30B0F00894E108F108E114F104F1
:100A700011F4D8820EC06AE070E080E090E00E943D
:100A8000FA1586EF96E06B2D7C2D0E94771D8883EA
:100A9000E6CF0F5F1F4F219607361105A9F610927A
:100AA000780178948AEE93E062E04CE30E94B021F2
:100AB0008AEE93E00E94BD22C0E0D4E02197CE01EF
:100AC0000E94B7290097D1F30E94512A83E596E04E
:100AD000BE014AE050E00E94231ADF91CF911F919E
:100AE0000F91FF90EF90DF90CF90BF900895CF923D
:100AF000DF92EF92FF920F931F93CF93DF937B01CF
:100B00008C016A010E94A62720E030E543EC57E4FF
:100B10000E940D270E947A272DB73EB72C503040F7
:100B20000FB6F8943EBF0FBE2DBFCDB7DEB72196EE
:100B3000EDB7FEB7D282C18225E031E03B832A8344
:100B40006C837D838E839F8320EA36E841E050E00A
:100B50000E943630A8019701261B370B480B590B12
:100B6000CA01B9012AE030E040E050E00E947C3048
:100B7000288739874A875B870E94552B4DB75EB718
:100B8000445F5F4F0FB6F8945EBF0FBE4DBFDF915D
:100B9000CF911F910F91FF90EF90DF90CF9008952C
:100BA000CF92DF92EF92FF920F931F93CF93DF9339
:100BB0000E94A62720E836E948E15BE40E940D2761
:100BC0006B01D82FC92F762FCE01272F3D2D492F0E
:100BD000582FCA01B9010E947527882777FD809593
:100BE000982F0E94A8277B018C019E016C2D7D2DE2
:100BF000832F922FA80197010E943F2620E030E02A
:100C000040E752E40E940D2720E030E048EC52E437
:100C10000E94C128A80197010E944026DF91CF9130
:100C20001F910F91FF90EF90DF90CF9008952F923A
:100C30003F924F925F926F927F928F929F92AF926C
:100C4000BF92CF92DF92EF92FF920F931F93DF93A9
:100C5000CF93CDB7DEB7AA970FB6F894DEBF0FBE1D
:100C6000CDBF88EF94E00E94B91A0E94C6157B019F
:100C70008C01CC2413C088EF94E00E944D1A682F99
:100C800084E894E00E947011882311F0CC24C3946E
:100C900088EF94E00E946E1A009769F70E94C615CB
:100CA0009B01AC01D801C701821B930BA40BB50BB0
:100CB000E216F3060407150720F480959095A09599
:100CC000B095883E23E0920720E0A20720E0B2071B
:100CD00008F027C60E94FA0C009709F022C6D8CF68
:100CE00080917901813419F48DE061E002C08DE0DA
:100CF00060E00E94C7160E94FA0C009709F415C61E
:100D0000A8950E94380D6D8B7E8B8F8B988F0E94DB
:100D1000E70C60915D0470915E0480915F04909196
:100D20006004FB01EE0FFF1FEE0FFF1FE35DFB4FA3
:100D30008D889E88AF88B88C80829182A282B3828F
:100D40006F5F7F4F8F4F9F4F2CE030E040E050E0CF
:100D50000E947C3060935D0470935E0480935F0416
:100D600090936004EDE2F4E0222433242101819188
:100D70009191A191B191280E391E4A1E5B1E24E06B
:100D8000ED35F207A1F78091610490916204A09182
:100D90006304B09164048D889E88AF88B88C880DF8
:100DA000991DAA1DBB1D8093610490936204A093BA
:100DB0006304B093640480916504909166048C3060
:100DC00091054CF426E520937401019690936604F6
:100DD000809365040AC0211431044104510411F4C4
:100DE00086E501C081E48093740184E6E4E1F5E0E6
:100DF000DF011D928A95E9F7BCED6B2EB7E07B2EE3
:100E000078866F821E821D821C821B821A82198242
:100E100019861A861B861C861D861E861F86188AC2
:100E20008CE0E8E9F5E0DF01882E1D928A94E9F76D
:100E3000E4EAF5E0DF011D928A95E9F780E2E8E750
:100E4000F5E0DF011D928A95E9F784E894E0BE01A0
:100E5000695F7F4FAE014A5F5F4F9E012B5F3F4F3F
:100E60008E010C5F1F4FA3E0EA2EF12CEC0EFD1E4D
:100E7000F2E0CF2ED12CCC0EDD1E5E010894A11C19
:100E8000B11CE1E18E2E912C8C0E9D1E0E94B013A0
:100E900089899A89AB89BC898F3FEFEF9E07EFEF75
:100EA000AE07EFEFBE0741F478866F821E821D8287
:100EB0001C821B821A82198284E894E0BE01675F5B
:100EC0007F4FAE01435F5F4F9E012F5E3F4F0E94F9
:100ED00022138091EC04882311F486E501C081E49B
:100EE0008093790184E894E00E9485146BA37CA32D
:100EF0008DA39EA384E894E00E94D6146D8F7E8F0C
:100F00008F8F98A38090C4049090C5049AA289A260
:100F1000C090BC04D090BD04E090BE04F090BF042B
:100F200089859A85AB85BC85B7FF0EC0B095A09525
:100F3000909581959F4FAF4FBF4F89879A87AB8719
:100F4000BC8723E5298F02C03EE4398F8D859E85BD
:100F5000AF85B889B7FF0EC0B095A09590958195E3
:100F60009F4FAF4FBF4F8D879E87AF87B88B47E5A9
:100F70004FA302C055E45FA369857A858B859C8564
:100F80006F3FA9EC7A07AAE98A07ABE39A0719F43D
:100F900060E070E0CB0148E955E00E9477056D857F
:100FA0007E858F8598896F3FB9EC7B07BAE98B07FF
:100FB000BBE39B0719F460E070E0CB0144EA55E025
:100FC0000E9477055BA14CA13DA12EA1652F742F36
:100FD000832F922F20917E0330917F0340918003D5
:100FE000509181030E940627882321F470E060E07D
:100FF00090E004C07BA16CA19DA18EA1AB019C01DE
:10100000652F742F832F922F40E022E008E715E030
:101010000E94952984E6E4E1F5E0DF011D928A95BE
:10102000E9F7EF81F885FAA7E9A78E80AD806C809B
:10103000BB809A8040916104509162046091630486
:101040007091640470907401F0917901F8A72FEF0A
:10105000C2162FEFD2062FEFE2062FEFF20619F499
:10106000CC24DD24760189A19AA18F3F910519F442
:1010700080E090E002C089A19AA1ADB7BEB7D49735
:101080000FB6F894BEBF0FBEADBFEDB7FEB7319639
:1010900004E115E012961C930E9311972FE431E0B2
:1010A0003383228329E631E03583248325E731E049
:1010B0003783268329A53AA5318720878286138620
:1010C000A486158666861786B08A118A928A138A44
:1010D000248A358A468A578A8D889E88AF88B88C3C
:1010E000808E918EA28EB38E448F558F668F778FB0
:1010F00070A211A228E935E033A322A3998C94A20F
:1011000015A224EA35E037A326A3AFA0A0A611A616
:1011100028E735E033A722A7B8A4B4A615A6C6A62B
:10112000D7A6E0AAF1AA93AB82AB0E94552BF80197
:1011300001900020E9F73197E01BF10B8E2F90E032
:10114000FC01E00FF11F108240911505F801329665
:101150002DB73EB72C5C3F4F0FB6F8943EBF0FBE85
:101160002DBF21E030E004C0519145272F5F3F4F54
:1011700028173907CCF38C5E9A4F403178F400D0B1
:1011800000D000D0EDB7FEB73196ADB7BEB712961E
:101190009C938E9311978AE491E00EC000D000D00A
:1011A00000D0EDB7FEB73196ADB7BEB712969C939F
:1011B0008E93119786E491E0938382834483158212
:1011C0000E94552BEDB7FEB736960FB6F894FEBFCA
:1011D0000FBEEDBF8091EC04882309F4B7C0698588
:1011E0007A858B859C850E94D0056D8B7E8B8F8B3D
:1011F000988F6D857E858F8598890E94D005698F2F
:101200007A8F8B8F9C8F6D8D7E8D8F8D98A120E036
:1012100030E040EA50E40E94B628181624F019E1A4
:10122000812E912C03C0B5E08B2E912C6D8D7E8D7F
:101230008F8D98A120E030E040E251E40E94B62872
:1012400018161CF4AAE08A2E912C6D8D7E8D8F8D40
:1012500098A120E030E040E751E40E94B62818163B
:101260001CF4F4E18F2E912C809168018823D9F031
:101270008D889E88AF88B88C80921704909218044D
:10128000A0921904B0921A04298D3A8D4B8D5C8D71
:1012900020931304309314044093150450931604C0
:1012A0001092680153C0E0901704F0901804009168
:1012B000190410911A04A0901304B0901404C09063
:1012C0001504D09016046D897E898F89988D298D9B
:1012D0003A8D4B8D5C8D0E94F9110E9475279B0100
:1012E000AC01AA2497FCA094BA2C82169306A406FB
:1012F000B50660F580911B0490911C04A0911D041B
:10130000B0911E04820F931FA41FB51F80931B046E
:1013100090931C04A0931D04B0931E048D899E8994
:10132000AF89B88D8093170490931804A093190483
:10133000B0931A04898C9A8CAB8CBC8C8092130469
:1013400090921404A0921504B09216048AEE93E0D1
:101350000E9438212DB73EB72E5030400FB6F8947A
:101360003EBF0FBE2DBFEDB7FEB7319608E715E0C3
:10137000ADB7BEB712961C930E9311978DE291E014
:10138000938382838D81848315828E8186831782E5
:101390008C81808711868B81828713868A818487DE
:1013A00015860E94552BEDB7FEB73E960FB6F89402
:1013B000FEBF0FBEEDBF8AEE93E062E070E048E151
:1013C00050E00E946F208AEE93E061E00E94752059
:1013D0008AEE93E061E070E00E947B208AEE93E069
:1013E000B8010E9446198AEE93E062E070E040E0A6
:1013F00050E00E946F208AEE93E062E00E94752028
:101400008AEE93E061E070E00E947B208AEE93E038
:1014100064E071E00E9426198AEE93E0B201A10116
:101420002AE030E00E94D51980918304882339F0A6
:101430008AEE93E061E070E00E947B2008C08AEEB3
:1014400093E060E070E041E050E00E9481208AEE8D
:1014500093E064E770E040E050E00E946F208AEE85
:1014600093E061E00E9475208091EC04882339F4B8
:101470008AEE93E0609179010E94591926C000D04C
:1014800000D000D0EDB7FEB7319608E715E0ADB754
:10149000BEB712961C930E93119789E091E0938347
:1014A000828389A09AA0958284820E94322B2DB7D4
:1014B0003EB72A5F3F4F0FB6F8943EBF0FBE2DBF19
:1014C0008AEE93E0B8010E9446198AEE93E06AE73B
:1014D00070E040E050E00E946F208AEE93E060915F
:1014E00074010E945919C201B1010E94A62720E08F
:1014F00030E047EA53E40E940D27E8E7EE2EE5E0EE
:10150000FE2E40E023E087010E9495298AEE93E0B9
:1015100061E070E00E947B208AEE93E061E00E942F
:1015200075208AEE93E062E070E040E150E00E94B6
:101530006F208AEE93E0B7010E9426198AEE93E0AD
:101540006CE071E00E94461960911B0470911C04CC
:1015500080911D0490911E040E94A62720E030E097
:101560004AE754E40E940D2740E021E00E949529BB
:101570008AEE93E061E070E00E947B208AEE93E0C7
:1015800061E00E947520F70101900020E9F7319792
:10159000EE19FF09CF01880F991F8E0F9F1F880F2B
:1015A000991F64E770E0681B790B8AEE93E040E1D5
:1015B00050E00E946F208AEE93E0B7010E94261946
:1015C0008AEE93E063E171E00E9446198091EC0499
:1015D000882309F478C084E894E00E94A014209144
:1015E0007A0330917B0340917C0350917D030E94EC
:1015F0000627882341F084E894E00E94A0140E940A
:101600000713BC0102C060E071E048E7E42E45E04A
:10161000F42EC7010E94132B8AEE93E061E00E9432
:101620007520F70101900020E9F73197EE19FF09C5
:10163000CF01880F991F8E0F9F1F880F991F60E899
:1016400070E0681B790B8AEE93E048E050E00E945E
:101650006F208AEE93E0B7010E9446195BA14CA16E
:101660003DA12EA1652F742F832F922F40E020E003
:1016700087010E9495298AEE93E061E00E9475201F
:10168000F70101900020E9F73197EE19FF09CF012A
:10169000880F991F8E0F9F1F880F991F6AE770E0B0
:1016A000681B790B8AEE93E048E150E00E946F20BE
:1016B0008AEE93E0B7010E9426198AEE93E066E174
:1016C00071E00E9446198AEE93E00E94BD2280914B
:1016D0002C04882309F016C180917901813409F026
:1016E00011C18CED97E098878F8319821A821B8233
:1016F0001C821D821E8284E894E0BE01695F7F4FD8
:10170000AE014F5F5F4F9E012E5F3F4F8E010D5F19
:101710001F4FB4E0EB2EF12CEC0EFD1EA5E0CA2EFF
:10172000D12CCC0EDD1EF6E0AF2EB12CAC0EBD1EC2
:10173000E1E18E2E912C8C0E9D1E0E94B0138989A2
:101740009A89AB89BC898F3F3FEF93073FEFA3078F
:101750003FEFB30709F4D6C08FE194E065E771E08D
:101760000E94132B8FE194E068E171E00E94082B46
:1017700000D000D000D0EDB7FEB7319608E715E0F5
:10178000ADB7BEB712961C930E93119782EA91E003
:10179000938382838981848315820E94552BEDB7C0
:1017A000FEB736960FB6F894FEBF0FBEEDBF8FE1C1
:1017B00094E0B80142E050E00E941A2B00D000D023
:1017C00000D0EDB7FEB73196ADB7BEB712961C93F9
:1017D0000E9311978DE991E0938382838A818483AC
:1017E00015820E94552BEDB7FEB736960FB6F894CA
:1017F000FEBF0FBEEDBF8FE194E0B80142E050E0C4
:101800000E941A2B87E294E06FE671E00E94132B8E
:1018100081E080932C0487E694E00E94B91AA89591
:1018200087E694E06AE171E00E94261987E694E079
:101830006FE174E00E94261987E694E06DE00E9453
:10184000411B00E010E00F5F1F4F87E694E00E940D
:101850006E1A009739F087E694E00E944D1A8C3397
:10186000910551F06AE070E080E090E00E94FA1586
:10187000083C110541F703C0083C110544F18CE018
:1018800060E00E94C71664E670E080E090E00E948D
:10189000FA158CE061E00E94C71608EC10E087E6BC
:1018A00094E00E946E1A009741F087E694E00E944F
:1018B0004D1A8E33910509F4B2CF6AE070E080E0F2
:1018C00090E00E94FA150150104049F7A8CF00D0CF
:1018D00000D008E715E0ADB7BEB712961C930E9383
:1018E00011978FE091E014969C938E9313970E942A
:1018F000552B0F900F900F900F9087E694E0B80152
:101900000E94261980912C04882379F087E694E0C0
:101910000E94B91A87E694E064E175E00E944619D6
:1019200004C0CC2009F4DCC9DFC9AA960FB6F8942C
:10193000DEBF0FBECDBFCF91DF911F910F91FF9002
:10194000EF90DF90CF90BF90AF909F908F907F905F
:101950006F905F904F903F902F90089581E090E0BE
:101960000E947404089580E090E00E947404089539
:101970008091BA059091BB05A091BC05B091BD05C1
:101980000196A11DB11D8093BA059093BB05A0934C
:10199000BC05B093BD0508958093B0059093B10543
:1019A0004093B6055093B7056093B8057093B90599
:1019B0001092BA051092BB051092BC051092BD059D
:1019C00068EB7CE043E050E00E94F81408950E9428
:1019D000C6156093B2057093B3058093B4059093D8
:1019E000B5051092BA051092BB051092BC05109275
:1019F000BD050895EF92FF920F931F930E94C615A5
:101A00002091B2053091B3054091B4055091B505D0
:101A1000E090B605F090B7050091B8051091B905B2
:101A2000621773078407950760F0621B730B840BC2
:101A3000950BE1E0F0E06E157F058007910790F4CB
:101A40000FC02095309540955095260F371F481FA1
:101A5000591FE1E0F0E02E153F054007510710F453
:101A6000E0E0F0E0CF011F910F91FF90EF9008951B
:101A70006091BA057091BB058091BC059091BD0540
:101A80000895EF92FF920F931F93FC01EE24EA94C6
:101A9000FE2C8701E082F182028313831086118677
:101AA000128613862FEF39EC4AE95BE3208B318BEA
:101AB000428B538B208F318F428F538F20A331A3C2
:101AC00042A353A320A731A742A753A720AB31AB12
:101AD00042AB53ABE0AEF1AE02AF13AFDC01A05CA2
:101AE000BF4F8FEF90E08D939C93DF01AC5BBF4FB6
:101AF000ED92FD920D931C931397DF01A45BBF4FF2
:101B0000ED92FD920D931C931397DF01AC5ABF4FDA
:101B10001C92DF01AB5ABF4F1C92DF01AB59BF4F84
:101B200082E08C93DF01AA59BF4F1C92DF01A959B3
:101B3000BF4F1C92DF01A859BF4F1C92DF01A6596D
:101B4000BF4F1D921D921D921C921397DF01A25947
:101B5000BF4F1D921C92DF01A059BF4F1D921C92D6
:101B6000DF01AA5ABF4F1C92E759FF4F60831F91B4
:101B70000F91FF90EF900895862F8154863020F4C6
:101B800070E0675370400AC0862F815670E086303F
:101B900018F46755704002C060537040CB0108953F
:101BA0001F93CF93DF93C62FD72F20E030E0A901FA
:101BB00014C0CA01B9012AE030E040E050E00E94C0
:101BC0003630212F30E040E050E02053304040409C
:101BD0005040260F371F481F591F1991812F8053DE
:101BE0008A3038F3B901CA01DF91CF911F9108956E
:101BF0002F923F924F925F926F927F928F929F921D
:101C0000AF92BF92CF92DF92EF92FF920F931F930A
:101C1000CF93DF938C010A5A1F4FB8010E94D00D59
:101C2000EB01D82EC92EF8013F018191982F9053D6
:101C30009A30D0F38E3289F50894611C711C90E1C2
:101C4000E92E97E2F92E012D112D882499245401B3
:101C50008AE0282E312C412C512C17C030E0205323
:101C60003040442737FD4095542FC801B7010E94EA
:101C70003630860E971EA81EB91EC801B701A201F4
:101C800091010E947C3079018A01F30121913F0189
:101C9000822F80538A3010F303C088249924540182
:101CA000BE018D2D9C2D20EA36E841E050E00E94D7
:101CB00036309B01AC01280D391D4A1D5B1DB90151
:101CC000CA01DF91CF911F910F91FF90EF90DF90AC
:101CD000CF90BF90AF909F908F907F906F905F90CC
:101CE0004F903F902F9008952F923F924F925F9286
:101CF0006F927F928F929F92AF92BF92CF92DF921C
:101D0000EF92FF920F931F93CF93DF9346E5C42E7C
:101D1000D12CC80ED91EB6010E94D00D162F072F48
:101D2000D82FC92F24E630E040E050E00E947C30FC
:101D300020EA36E841E050E00E9436304B015C0179
:101D4000F6013F018191982F90539A30D0F38E3253
:101D500069F50894611C711C30E1C32E37E2D32E63
:101D6000E12CF12C2AE0222E312C412C512C17C0D1
:101D700030E020533040442737FD4095542FC701B1
:101D8000B6010E943630860E971EA81EB91EC701E6
:101D9000B601A20191010E947C3069017A01F30130
:101DA00021913F01822F80538A3010F3C501B40185
:101DB0006B5F7F4F8F4F9F4F26E030E040E050E059
:101DC0000E947C3069017A01612F702F8D2F9C2F2A
:101DD00024E630E040E050E00E947C30CA01B901C6
:101DE00020E432E44FE050E00E943630C60ED71EA9
:101DF000E81EF91EB601C701DF91CF911F910F9127
:101E0000FF90EF90DF90CF90BF90AF909F908F901A
:101E10007F906F905F904F903F902F9008951F9309
:101E2000CF93DF93EC01CA5ADF4F11E028812D32A6
:101E300011F010E003C0EC01C95ADF4FBE010E944F
:101E4000D00D24E630E040E050E00E9436309B01A7
:101E5000AC01FE018991982F90539A30D0F38E32C5
:101E600011F58181982F90539A30E8F49AE0899F78
:101E7000C0011124805E9140AA2797FDA095BA2F3A
:101E8000280F391F4A1F5B1F8281982F90539A3069
:101E900050F490E0C097AA2797FDA095BA2F280F7D
:101EA000391F4A1F5B1F112339F05095409530951B
:101EB00021953F4F4F4F5F4FB901CA01DF91CF913D
:101EC0001F910895862F972FDC01842F952FFC01F9
:101ED0008D91882319F091918917D1F390E008959D
:101EE0000F931F93CF93DF938C01FC01EB5AFF4FAD
:101EF0008081882309F4F2C0F801EA5AFF4FC80133
:101F000060810E94BC0DC82FF801E95AFF4FC8013B
:101F100060810E94BC0DC295C07FC80FF801EC5AC9
:101F2000FF4F8081C81709F0D0C0F801E859FF4F72
:101F30008081882309F495C0F801E259FF4F808120
:101F40009181019691838083F801EC5BFF4FD8016A
:101F5000A85BBF4F8D919D910D90BC91A02D80836A
:101F60009183A283B383F801E45BFF4FD801A05BA8
:101F7000BF4F8D919D910D90BC91A02D8083918339
:101F8000A283B383F801EB59FF4F80818823A9F125
:101F9000813009F09DC1F80184819581A681B781C6
:101FA00080839183A283B38384859585A685B78535
:101FB00080879187A287B38784899589A689B78905
:101FC000808B918BA28BB38B848D958DA68DB78DD5
:101FD000808F918FA28FB38F84A595A5A6A5B7A555
:101FE00080A791A7A2A7B3A784A995A9A6A9B7A9D5
:101FF00080AB91ABA2ABB3AB6BC1F80184A195A14F
:10200000A6A1B7A180A391A3A2A3B3A38481958124
:10201000A681B78180839183A283B38384899589C4
:10202000A689B789808B918BA28BB38B848D958D7C
:10203000A68DB78D808F918FA28FB38FE05CFF4FFD
:10204000D801AE5BBF4F8D919C9191838083F80145
:1020500084AD95ADA6ADB7AD80AF91AFA2AFB3AF34
:1020600037C1F80184819581A681B7810097A105C8
:10207000B10509F42FC1EC5BFF4FE801C85BDF4FEE
:10208000288139814A815B81208331834283538354
:10209000F801EB59FF4F2081222389F0213009F00C
:1020A00019C1F80180839183A283B38384859585C8
:1020B000A685B78580879187A287B3870BC1F80172
:1020C00080839183A283B38305C1F801E059FF4F58
:1020D00080819181019691838083FCC0F801EA5947
:1020E000FF4F80818823F9F4E801CA5ADF4FC80105
:1020F000BE0142E251E00E94620F009729F4F8010C
:10210000EB59FF4F81E0C5C0C801BE0148E251E074
:102110000E94620FF801EB59FF4F009711F41082F3
:10212000D9C082E0B6C0F801EB59FF4FE081E23040
:1021300009F4D0C0D801AA5ABF4F2C91222309F428
:10214000C9C0F0E055E0EE0FFF1F5A95E1F790E0AF
:10215000E82BF92B3197E932F10508F0BBC0EC5CB4
:10216000FF4FEE0FFF1F0590F491E02D0994C80179
:102170000E940F0FF80164837583868397830E9402
:10218000C615F801E85BFF4F1FC0F801E859FF4F83
:1021900081E0213409F07CC07CC0F801E759FF4F91
:1021A0008081882321F0C8010E94F80D03C0C80176
:1021B0000E94740EF801648B758B868B978B0E943E
:1021C000C615F801E05BFF4F6083718382839383C0
:1021D00081C0233509F07EC0F80184899589A689DC
:1021E000B789B095A095909581959F4FAF4FBF4F00
:1021F000848B958BA68BB78B6DC0F801E759FF4F89
:102200008081882321F0C8010E94F80D03C0C80115
:102210000E94740EF801648F758F868F978F5AC055
:10222000273509F057C0F801848D958DA68DB78D9F
:10223000B095A095909581959F4FAF4FBF4F848FDC
:10224000958FA68FB78F46C0C8010E940F0FF80167
:1022500064A775A786A797A73DC0C8010E940F0F66
:10226000F80164AB75AB86AB97AB34C0B8016A5A62
:102270007F4FC8010E94D00DF8016487758786875B
:10228000978728C0F801E859FF4F81E0213308F40F
:1022900080E080831FC0C8018A5A9F4F0E94EA2AAB
:1022A000F801EE5BFF4F8083118214C0C8010E94C9
:1022B0000F0FF80164AF75AF86AF97AF0BC0C801C1
:1022C0000E940F0FF80164A375A386A397A302C011
:1022D00081E001C080E0DF91CF911F910F910895BF
:1022E0000F931F93DF93CF930F92CDB7DEB78C017F
:1022F000FC01E659FF4F80819181A281B381019653
:10230000A11DB11D80839183A283B3836432C9F17F
:10231000F801E959FF4F653230F46A3079F06D30D9
:1023200009F049C00BC06A3249F06C3209F043C071
:10233000D801AC5ABF4F8C9186278C9380818F3007
:1023400060F4F801E80FF11DEA5AFF4F1082C8014E
:1023500069830E94700F698101C080E0F801EA5929
:10236000FF4F90819F5F9083F801E959FF4F1082E2
:10237000F801EB5AFF4F91E06A3209F090E0908348
:1023800032C0F801E959FF4F1082F801EA59FF4FB6
:102390001082F801EC5AFF4F1082F801EB59FF4F01
:1023A00082E08083F801EB5AFF4F1082F801E85970
:1023B000FF4F108217C080818E3040F4D801A80FE3
:1023C000B11DAA5ABF4F6C938F5F8083F801EB5AFF
:1023D000FF4F8081882331F4F801EC5AFF4F808150
:1023E0008627808380E00F90CF91DF911F910F911E
:1023F00008952F923F924F925F926F927F928F92A9
:102400009F92AF92BF92CF92DF92EF92FF920F9383
:102410001F93DF93CF93CDB7DEB760970FB6F894D5
:10242000DEBF0FBECDBF1B012C01CA01B9013701B0
:102430004801A60195010E943F2625E33AEF4EE8A8
:102440005CE30E94C128A62EE72E6C01762F272F71
:102450003E2D4C2D5D2DCA01B9010E9424296D87A6
:102460007E878F87988B6A2D7E2D8C2D9D2D0E94C7
:102470000A2769837A838B839C83C201B10125E398
:102480003AEF4EE85CE30E94C128162F272EA82EB3
:10249000E92EC401B30125E33AEF4EE85CE30E9464
:1024A000C128962EB72E6C01612F722D8A2D9E2D7C
:1024B0000E9424296D837E838F839887612F722DDC
:1024C0008A2D9E2D0E940A2769877A878B879C8791
:1024D000692D7B2D8C2D9D2D0E9424291B012C0103
:1024E000692D7B2D8C2D9D2D0E940A277B018C014F
:1024F00069857A858B859C85A20191010E94C128FE
:102500005B016C016D817E818F819885A8019701A7
:102510000E94C12829813A814B815C810E94C12897
:102520009B01AC01C601B5010E943F266B015C0115
:10253000762F272F3D2D4A2D5B2DCA01B9010E9410
:10254000C128A62E872EB82E992EC801B7012D8539
:102550003E854F8558890E94C1286B013C01762F2A
:10256000272F3D2D462D572DCA01B9010E94C128A4
:102570009B01AC016A2D782D8B2D992D0E94402650
:102580000E942E293B014C016D817E818F819885AF
:10259000A20191010E94C1285B016C0169857A85C5
:1025A0008B859C85A80197010E94C12829813A81C9
:1025B0004B815C810E94C1289B01AC01C601B50121
:1025C0000E9440269B01AC01C401B3010E94B326C6
:1025D00026E73BE742EC5AE40E94C12860960FB61A
:1025E000F894DEBF0FBECDBFCF91DF911F910F9149
:1025F000FF90EF90DF90CF90BF90AF909F908F9023
:102600007F906F905F904F903F902F90089520E0C3
:1026100030E044E351E40E94402620E030E044EB07
:1026200051E40E940D270E947527CB0160E170E004
:102630000E946930FC01EE0FFF1FEE57FC4F8081B6
:10264000918108950F931F93CF93DF93EC0189013C
:102650006115710549F088899989AA89BB89FB01AF
:1026600080839183A283B3834115510549F0888DFE
:10267000998DAA8DBB8DFA0180839183A283B38348
:102680000115110509F1C45BDF4F88819981AA8189
:10269000BB818F3FFFEF9F07FFEFAF07FFEFBF0744
:1026A00059F00E94C615288139814A815B81621BDD
:1026B000730B840B950B03C06FEF7FEFCB01F80119
:1026C0006083718382839383DF91CF911F910F91F8
:1026D00008950F931F93CF93DF93EC018901611548
:1026E000710549F088859985AA85BB85FB018083A2
:1026F0009183A283B3834115510549F08881998163
:10270000AA81BB81FA0180839183A283B3830115DF
:10271000110509F1CC5BDF4F88819981AA81BB81CA
:102720008F3FFFEF9F07FFEFAF07FFEFBF0759F0A6
:102730000E94C615288139814A815B81621B730B17
:10274000840B950B03C06FEF7FEFCB01F801608323
:10275000718382839383DF91CF911F910F910895AD
:102760002F923F924F925F926F927F928F929F92A1
:10277000AF92BF92CF92DF92EF92FF920F931F938F
:10278000DF93CF93CDB7DEB72C970FB6F894DEBFAB
:102790000FBECDBF3B015A8749873C872B87180165
:1027A00027019401BE016F5F7F4FAE014B5F5F4F0A
:1027B0000E94691361147104B9F069817A818B8177
:1027C0009C8124E630E040E050E00E947C3061359E
:1027D00071051CF08CE697E002C080ED97E0680F71
:1027E000791FF3017183608389859A850097B1F021
:1027F00069817A818B819C81F4E6EF2EF12C012D89
:10280000112DA80197010E947C30CA01B901A801CD
:1028100097010E947C30E985FA8560838B859C85D1
:10282000009769F069817A818B819C8120E137E290
:1028300040E050E00E947C30EB85FC852083211431
:10284000310461F06D817E818F81988520E432E4CE
:102850004FE050E00E947C30F1012083411451048C
:10286000A1F06D817E818F81988520E137E240E083
:1028700050E00E947C30CA01B90124E630E040E01B
:1028800050E00E947C30F2016083C114D104A9F0B1
:102890006D817E818F819885E4E6EE2EF12C012DED
:1028A000112DA80197010E947C30CA01B901A8012D
:1028B00097010E947C30F6016083A114B10461F09D
:1028C0006D817E818F81988524E630E040E050E084
:1028D0000E947C30F50160832C960FB6F894DEBF21
:1028E0000FBECDBFCF91DF911F910F91FF90EF9061
:1028F000DF90CF90BF90AF909F908F907F906F9020
:102900005F904F903F902F900895FC0160A171A1BE
:1029100082A193A16F3FF9EC7F07FAE98F07FBE3F0
:102920009F0749F00E94A82720E030E048EC52E4DD
:102930000E940D2704C060E074E284E799E40895E2
:10294000FC0160A971A982A993A96F3FF9EC7F07E7
:10295000FAE98F07FBE39F0749F00E94A62720E0D2
:1029600030E048EC52E40E940D2704C060E070E0C3
:102970008AE794E40895FC0160A571A582A593A55A
:102980006F3FF9EC7F07FAE98F07FBE39F0749F0F8
:102990000E94A62720E030E048EC52E40E940D2778
:1029A00004C060E070E080E89FEB0895EF92FF9232
:1029B0000F931F930E94BB147B018C0120E030E039
:1029C00040E85FEB0E940627882349F0C801B70161
:1029D00026E53EE04DEE5FE30E94C12804C060E0C2
:1029E00070E080E89FEB1F910F91FF90EF900895AA
:1029F0008230E8F4E82FF0E0EE0FFF1FE254FA4FC8
:102A000071836083813041F0809169008C7F842BD9
:102A100080936900E89A089580916900440F551FDA
:102A2000440F551F837F842B80936900E99A089592
:102A30001F920F920FB60F9211242F933F934F9333
:102A40005F936F937F938F939F93AF93BF93EF9316
:102A5000FF938091BE059091BF05009729F0E0910A
:102A6000BE05F091BF050995FF91EF91BF91AF9120
:102A70009F918F917F916F915F914F913F912F9196
:102A80000F900FBE0F901F9018951F920F920FB6C8
:102A90000F9211242F933F934F935F936F937F93E4
:102AA0008F939F93AF93BF93EF93FF938091C00554
:102AB0009091C105009729F0E091C005F091C10502
:102AC0000995FF91EF91BF91AF919F918F917F9168
:102AD0006F915F914F913F912F910F900FBE0F908B
:102AE0001F9018951F920F920FB60F9211242F93DB
:102AF0003F934F935F936F937F938F939F93AF9386
:102B0000BF932091C6053091C7054091C8055091EB
:102B1000C9057091CA05DA01C9010296A11DB11D4E
:102B2000672F6A5F6D3730F06D57DA01C901039680
:102B3000A11DB11D6093CA058093C6059093C7057A
:102B4000A093C805B093C9058091C2059091C305B3
:102B5000A091C405B091C5050196A11DB11D80933A
:102B6000C2059093C305A093C405B093C505BF915A
:102B7000AF919F918F917F916F915F914F913F9115
:102B80002F910F900FBE0F901F9018958FB7F8944C
:102B90002091C6053091C7054091C8055091C905DF
:102BA0008FBFB901CA0108959FB7F8942091C2055B
:102BB0003091C3054091C4055091C50586B5A89BC9
:102BC00006C08F3F21F02F5F3F4F4F4F5F4F9FBF9A
:102BD000542F432F322F2227280F311D411D511D05
:102BE00083E0220F331F441F551F8A95D1F7B90187
:102BF000CA010895EF92FF920F931F93CF93DF9333
:102C00007B018C010E94D415EB010FC00E94D415EA
:102C10006C1B7D0B83E0683E780738F00894E10870
:102C2000F10801091109C851DC4FE114F104010553
:102C3000110561F7DF91CF911F910F91FF90EF90F8
:102C40000895789484B5826084BD84B5816084BD24
:102C500085B5826085BD85B5816085BDEEE6F0E015
:102C6000808181608083E1E8F0E010828081826071
:102C70008083808181608083E0E8F0E080818160F2
:102C80008083E1EBF0E0808184608083E0EBF0E022
:102C9000808181608083EAE7F0E0808184608083C6
:102CA0008081826080838081816080838081806870
:102CB00080831092C1000895833071F0843028F42D
:102CC0008130A1F0823021F514C08630B1F0873018
:102CD000D1F08430E9F404C0809180008F7703C084
:102CE000809180008F7D80938000089584B58F77D8
:102CF00002C084B58F7D84BD08958091B0008F7728
:102D00008093B00008958091B0008F7D8093B000D3
:102D10000895CF93DF9390E0FC01E752FE4F44917A
:102D20008B539E4FFC018491882371F190E0880FB2
:102D3000991FFC01E955FE4F25913491D9018F541B
:102D40009E4FFC0125913491C22FD32F662349F465
:102D50009FB7F8948C91409584238C938881842329
:102D60000BC0623059F49FB7F8948C91242F2095B2
:102D700082238C938881842B888305C09FB7F89425
:102D80008C91842B8C939FBFDF91CF9108950F93EB
:102D90001F93DF93CF930F92CDB7DEB7282F30E08C
:102DA000F901E351FE4F8491F901E752FE4F14916E
:102DB0002B533E4FF90104910023D9F0882321F0D1
:102DC00069830E945C166981E02FF0E0EE0FFF1F1F
:102DD000EF54FE4F85919491DC019FB7F8946623E0
:102DE00021F48C911095812302C08C91812B8C93BE
:102DF0009FBF0F90CF91DF911F910F910895FC011C
:102E000084859585FC01E05CFF4F208131818E5BDC
:102E10009F4FFC0180819181281B390B2F733070EB
:102E2000C9010895FC0184859585FC01E05CFF4F94
:102E300040815181FC01EE5BFF4F208131814217BF
:102E4000530741F00190F081E02DE80FF91F208138
:102E500030E002C02FEF3FEFC9010895FC018485E7
:102E60009585FC01E05CFF4F40815181FC01EE5BE8
:102E7000FF4F208131814217530771F0A081B1814A
:102E8000A80FB91F2C918081918101968F7390704A
:102E90009183808330E002C02FEF3FEFC901089596
:102EA000DC011E968D919C911F97FC01E05CFF4F09
:102EB0008E5B9F4F40815181DC012D913C91119798
:102EC00042175307B9F70895FC0126853785D901C4
:102ED000A05CBF4F8D919C9101968F739070D9012A
:102EE000AE5BBF4F4D915C91119784179507D1F35D
:102EF000D901A05CBF4F0D90BC91A02DA20FB31FB4
:102F00006C93A685B785A05CBF4F11969C938E935A
:102F1000A689B7892C9181E090E0058C02C0880FCA
:102F2000991F0A94E2F7282B2C9381E090E00895F2
:102F3000FB01E05CFF4F208131812F5F3F4F2F73FA
:102F40003070DB01AE5BBF4F4D915C911197241740
:102F5000350739F0A081B181A60FB71F8C9331835B
:102F60002083089508951F920F920FB60F92112497
:102F70002F933F934F935F936F937F938F939F9381
:102F8000AF93BF93EF93FF938091C6006BEC75E016
:102F90000E949817FF91EF91BF91AF919F918F91F0
:102FA0007F916F915F914F913F912F910F900FBE45
:102FB0000F901F90189583E596E00E94FF160097EA
:102FC00011F00E94B21708951F920F920FB60F9240
:102FD00011242F933F938F939F93EF93FF9320910F
:102FE0004F06309150068091510690915206281755
:102FF000390731F48091C1008F7D8093C10014C0E6
:10300000E0915106F0915206E15FF94F20818091E5
:1030100051069091520601968F73907090935206CC
:10302000809351062093C600FF91EF919F918F915D
:103030003F912F910F900FBE0F901F9018959F9268
:10304000AF92BF92CF92DF92EF92FF920F931F93B6
:10305000CF93DF93EC017A018B0199249394EC894F
:10306000FD8981E090E00E8C02C0880F991F0A94C0
:10307000E2F7808360E874E88EE190E0A8019701B0
:103080000E947C302150304040405040569547953A
:103090003795279590E4A92E92E4B92E9FE0C92E8A
:1030A000D12C12C09924EC89FD891082C601B5018A
:1030B000A80197010E947C30215030404040504090
:1030C000569547953795279580E12030380710F0C1
:1030D000992041F7E889F9893083EA89FB892083BF
:1030E000EE89FF89408181E090E09C010A8C02C05A
:1030F000220F331F0A94E2F7422B4083EE89FF89A7
:1031000040819C010B8C02C0220F331F0A94E2F70E
:10311000422B4083EE89FF8940819C010C8C02C0C8
:10312000220F331F0A94E2F7422B4083EE89FF8976
:1031300020810D8C02C0880F991F0A94E2F78095B8
:1031400082238083DF91CF911F910F91FF90EF90A9
:10315000DF90CF90BF90AF909F9008951092560649
:103160001092550688EE93E0A0E0B0E080935706F9
:1031700090935806A0935906B0935A06E5E5F6E0F9
:1031800086EA93E0929382938BEC95E0958784870F
:103190008FE096E09787868785EC90E0918B808B17
:1031A00084EC90E0938B828B80EC90E0958B848B09
:1031B00081EC90E0978B868B86EC90E0918F808FEE
:1031C00084E0828F83E0838F87E0848F85E0858F22
:1031D00081E0868F0895CF92DF92EF92FF920F9356
:1031E0001F93CF93DF936C017B018A01C0E0D0E095
:1031F0000FC0D7016D917D01D601ED91FC91019039
:10320000F081E02DC6010995C80FD91F015010406B
:103210000115110571F7CE01DF91CF911F910F912B
:10322000FF90EF90DF90CF900895DB010D9000208C
:10323000E9F7AD0141505040461B570BDC01ED91C1
:10324000FC910280F381E02D099508950E941519E3
:103250000895DC01ED91FC910190F081E02D09953C
:1032600008950F931F93CF93DF93EC016DE00E94BD
:1032700029198C01CE016AE00E942919080F191F33
:10328000C801DF91CF911F910F9108950F931F9364
:10329000CF93DF93EC010E9415198C01CE010E949F
:1032A0003119080F191FC801DF91CF911F910F919C
:1032B00008950F931F93CF93DF93EC010E94291978
:1032C0008C01CE010E943119080F191FC801DF912E
:1032D000CF911F910F9108958F929F92AF92BF92BD
:1032E000CF92DF92EF92FF920F931F93DF93CF93D2
:1032F000CDB7DEB7A1970FB6F894DEBF0FBECDBF36
:103300006C01042FE52FCB01122F19A2223008F4F3
:103310001AE021E2E22EF12CEC0EFD1E812E992402
:10332000AA24BB2403C0022FE32FCA01602F7E2FE3
:10333000A50194010E947C30129F802D1124081B4E
:103340000894E108F1080A3010F4005D01C0095C3E
:10335000F7010083211531054105510521F7C6010B
:10336000B7010E941519A1960FB6F894DEBF0FBEE3
:10337000CDBFCF91DF911F910F91FF90EF90DF9024
:10338000CF90BF90AF909F908F90089521153105F9
:1033900049F4DC01ED91FC910190F081E02D642F66
:1033A000099508950E946C1908950F931F93CF9368
:1033B000DF93EC010E94C6198C01CE010E943119E5
:1033C000080F191FC801DF91CF911F910F91089528
:1033D000CF92DF92EF92FF920F931F93CF93DF93E1
:1033E000EC017A018B012115310541F4E881F98165
:1033F0000190F081E02D642F09951AC02A30310523
:10340000A9F477FF12C06DE20E9429196C014427CC
:103410005527BA014E195F09600B710BCE012AE0E6
:103420000E946C19C80ED91E04C02AE00E946C19B3
:103430006C01C601DF91CF911F910F91FF90EF902A
:10344000DF90CF9008950F931F93CF93DF93EC01FC
:103450009A01CB01AC01662757FD6095762FCE010E
:103460000E94E8198C01CE010E943119080F191F22
:10347000C801DF91CF911F910F910895CF93DF93F2
:103480000E9421160E94A404CBEDD7E10E941706EA
:103490002097E1F30E94DB17F9CF2091720630915B
:1034A000730628173907B1F49091F5068091F40658
:1034B000981781F0E091F506F0E0EC58F94F208183
:1034C0008091F50690E001968F7790708093F506D5
:1034D00030E002C02FEF3FEFC9010895209172063E
:1034E000309173062817390779F48091F4062091FA
:1034F000F50690E080589F4F821B910960E870E0CC
:103500000E9469309C0102C020E030E0C9010895AA
:1035100020917206309173062817390749F48FB746
:10352000F8941092F4069091F4069093F5068FBFEC
:10353000089520917206309173062817390771F4A7
:103540009091F5068091F406981741F0E091F50608
:10355000F0E0EC58F94F208130E002C02FEF3FEF50
:10356000C901089520E001972FEF8F3F9207D9F707
:103570000895FC0180917206909173068E179F0743
:1035800091F0838D8E7F838F8FB7F8941092F4061D
:103590009091F4069093F506F0937306E09372060B
:1035A0008FBF81E0089580E00895EF92FF920F931E
:1035B0001F93CF93DF93EC018B8DEE85FF859D8567
:1035C00081FF04C08081892329F445C0808189233B
:1035D00009F041C08B899C890E94B21A08E010E072
:1035E000EE24E394FF248D899E890E94B21AEE8511
:1035F000FF8580819D85892311F0FE2803C08E2DD3
:103600008095F822EE0C0150104069F78F89988D53
:103610000E94B21A8B8D81FDF0948091F406209166
:10362000F50690E001968F77907030E0821793074F
:1036300079F0E091F406F0E0EC58F94FF0828091D7
:10364000F40690E001968F7790708093F40603C0A3
:103650008B8D81608B8FDF91CF911F910F91FF90A8
:10366000EF900895FC01A189B2899089662329F41D
:103670002C91892F8095822302C08C91892B8C9369
:103680000895DF92EF92FF920F931F93CF93DF93F2
:10369000EC01E62E898D9A8D009739F481E090E057
:1036A0009B838A8320E030E04BC0DFB6F8948B8D9B
:1036B00061E081FF60E0CE010E94321B898D9A8D0E
:1036C00004960E94B21A8B8D81FF19C008E010E0A9
:1036D000FF24F3948F2D8E2119F0CE0160E002C0FB
:1036E000CE0161E00E94321B898D9A8D0E94B21A30
:1036F000FF0C0150104071F7CE0160E018C008E0E7
:1037000010E0FF24F3948F2D8E2119F0CE0161E09B
:1037100002C0CE0160E00E94321B898D9A8D0E940A
:10372000B21AFF0C0150104071F7CE0161E00E9407
:10373000321BDFBE898D9A8D0E94B21A21E030E0E3
:10374000C901DF91CF911F910F91FF90EF90DF9012
:1037500008958091720690917306009711F00E946F
:10376000D51A08951F920F920FB60F9211242F931E
:103770003F934F935F936F937F938F939F93AF93F9
:10378000BF93EF93FF930E94A91BFF91EF91BF910D
:10379000AF919F918F917F916F915F914F913F91E9
:1037A0002F910F900FBE0F901F9018951F920F92A0
:1037B0000FB60F9211242F933F934F935F936F9304
:1037C0007F938F939F93AF93BF93EF93FF930E9449
:1037D000A91BFF91EF91BF91AF919F918F917F9125
:1037E0006F915F914F913F912F910F900FBE0F906E
:1037F0001F9018951F920F920FB60F9211242F93BE
:103800003F934F935F936F937F938F939F93AF9368
:10381000BF93EF93FF930E94A91BFF91EF91BF917C
:10382000AF919F918F917F916F915F914F913F9158
:103830002F910F900FBE0F901F9018951F93CF934D
:10384000DF93EC01162F862F61E00E948916812FED
:1038500061E00E94C716812F90E0FC01E752FE4F05
:10386000E491E88BFC01EB53FE4FE491F0E0EE0FA6
:10387000FF1FEF54FE4F85919491898B9A8BDF91B6
:10388000CF911F9108951F93CF93DF93EC01162FD3
:10389000862F60E00E9489168B8D81FD04C0812FE8
:1038A00061E00E94C7161C87812F90E0FC01E7525F
:1038B000FE4FE491ED87FC01EB53FE4FE491F0E005
:1038C000EE0FFF1FE554FE4F859194918E879F87E1
:1038D000DF91CF911F9108951F93CF93DF93EC0158
:1038E000162F1B821A8288EE93E0A0E0B0E08C8352
:1038F0009D83AE83BF8386EB93E0998388831C8A84
:103900001B8A1E8A1D8A188E1F8A1A8E198E8B8D0D
:103910002170220F8C7F822B8B8FCE01642F0E940F
:103920001E1CCE01612F0E94431CDF91CF911F917D
:103930000895EF92FF920F931F93CF93DF93EC01C3
:103940007A018B011A8E198E188E1F8A1E8A1D8A83
:103950001C8A1B8A40E050E09A01220F331F240F7B
:10396000351F220F331F220F331FF901EF5FFD4F69
:1039700085919591A591B4918E159F05A007B107EA
:10398000E9F4F901EB5FFD4F859194918B8B9C8B52
:10399000F901E95FFD4F859194918D8B9E8BF90123
:1039A000E75FFD4F859194918F8B988F255F3D4FF9
:1039B000F90185919491898F9A8F06C04F5F5F4F6F
:1039C0004C30510509F0C8CF8F89988D009709F4C4
:1039D00048C09C85963108F040C02091680098301E
:1039E00020F09E3020F082E003C084E001C081E03E
:1039F000822B809368004C85483048F04E3060F050
:103A00004631C8F1A0E0B0E0E0E0F0E009C0ADE68A
:103A1000B0E0EDE6F0E004C0ABE6B0E0EBE6F0E0ED
:103A20005081483040F481E090E002C0880F991F37
:103A30004A95E2F710C0242F30E04E3018F4285099
:103A4000304002C02E50304081E090E002C0880F2C
:103A5000991F2A95E2F7852B8C93898D9A8D0E9468
:103A6000B21ACE010E94B91ADF91CF911F910F9126
:103A7000FF90EF900895ACE6B0E0ECE6F0E0D0CF38
:103A8000FC014485463150F5483028F04E3030F086
:103A9000ECE6F0E005C0EDE6F0E002C0EBE6F0E0B9
:103AA0005081483040F481E090E002C0880F991FB7
:103AB0004A95E2F710C0242F30E04E3018F4285019
:103AC000304002C02E50304081E090E002C0880FAC
:103AD000991F2A95E2F7809585238083089526EB28
:103AE00033E0FC01318320830E94401D0895CB0107
:103AF0000E945F2D0895FC01758364837187608740
:103B00005783468353874287158A158614861786FE
:103B1000168621E0248B8FEF9FEF938B828B918B06
:103B2000808B268B08952F923F924F925F926F92D7
:103B30007F928F929F92AF92BF92CF92DF92EF923D
:103B4000FF920F931F93DF93CF9300D000D0CDB798
:103B5000DEB72C017C836B836A0159011701980140
:103B6000241B350B37FF03C0309521953F4FC5010E
:103B70004B815C81841B950B97FF03C090958195C9
:103B80009F4FE1E06E2E712C8217930714F066248C
:103B900077246114710469F03A2D2B2D5801C90165
:103BA000092F182F3B812C81DC82CB82C901C92EC1
:103BB000D82E8B819C81A816B9066CF43C2D2D2D36
:103BC0006801C901092F182F3B812C81BC82AB826F
:103BD000C901A92EB82ED501EB81FC81AE1BBF0B0C
:103BE000BA83A98348018C189D0897FE04C090945D
:103BF00081949108939489819A8162E070E00E9497
:103C000069307B01C016D1061CF401E010E02BC026
:103C10000FEF1FEF28C0D201ED91FC9111976114B5
:103C2000710441F00480F581E02DC201B6014B81A1
:103C30005C8107C00480F581E02DC2016B817C812D
:103C4000A60191010995E818F908F7FE06C0C00E13
:103C5000D11EE981FA81EE0EFF1E2B813C812F5F80
:103C60003F4F3C832B834B815C81A416B5069CF6A9
:103C70000F900F900F900F90CF91DF911F910F91A8
:103C8000FF90EF90DF90CF90BF90AF909F908F907C
:103C90007F906F905F904F903F902F9008956F921C
:103CA0007F928F929F92AF92BF92CF92DF92EF92CC
:103CB000FF920F931F93CF93DF93EC016B015A0197
:103CC00039014801E881F9810484F585E02D8701F7
:103CD0000995E881F981A50141505040480D591DD1
:103CE0000484F585E02DCE01B60193010995E881A4
:103CF000F9810284F385E02DCE01B601A50194017E
:103D00000995E881F981B60161507040660D771D13
:103D10000284F385E02DCE01A50194010995DF9180
:103D2000CF911F910F91FF90EF90DF90CF90BF90B8
:103D3000AF909F908F907F906F900895EF92FF9239
:103D40000F931F93CF93DF93DB017801EC01E881A0
:103D5000F9818A0101501040020F131F0084F18580
:103D6000E02D9D010995DF91CF911F910F91FF905B
:103D7000EF900895EF92FF920F931F93CF93DF93ED
:103D8000DA01A9017801EC01E881F9819B01215058
:103D90003040240F351F0084F185E02DAD018D01E9
:103DA0000995DF91CF911F910F91FF90EF900895AA
:103DB0006F927F928F929F92AF92BF92CF92DF923B
:103DC000EF92FF920F931F93CF93DF935C013A0121
:103DD00069014801EB01C60ED71E0DC0D501ED915A
:103DE000FC910284F385E02DC501BE01A30194017D
:103DF000870109952196CC15DD0584F3DF91CF91DC
:103E00001F910F91FF90EF90DF90CF90BF90AF90F8
:103E10009F908F907F906F900895EF92FF920F93F5
:103E20001F937B01DC01ED91FC91119718962D9168
:103E30003C9119971A960D911C911B970088F18956
:103E4000E02D60E070E040E050E009951F910F9197
:103E5000FF90EF9008952F923F924F925F926F9252
:103E60007F928F929F92AF92BF92CF92DF92EF920A
:103E7000FF920F931F93DF93CF93CDB7DEB72F97AA
:103E80000FB6F894DEBF0FBECDBF5C015A834983E5
:103E90001E830D83F886EF82C986DC0118968D910A
:103EA0009C911997681779070CF0ACC01A968D9100
:103EB0009C911B97481759070CF0A4C0DD24C6013C
:103EC000880F991F880F991F8C0D9D1D860F971FB6
:103ED000181619060CF096C0C60103E0880F991F4A
:103EE0000A95E1F7840F951F181619060CF08AC081
:103EF00085E0289FF0011124FC83EB833B012B011B
:103F000033249601F32DF53031F0EB81FC81EF562F
:103F1000FD4FE49101C0E0E06C867D86C980DA80C7
:103F200046012224C501560169019F878E872E2FE5
:103F300030E03B872A87E0FF1EC0AE85BF85ED914C
:103F4000FC91B985B13051F40480F581E02D8E8566
:103F50009F85B201A4012D813E8124C00088F18992
:103F6000E02D8E859F856C857D85A5019601860156
:103F7000ED80FE8025C0EF81F8852D813E81E2171E
:103F8000F307F9F0AE85BF85ED91FC91B985B130AD
:103F900059F40480F581E02D8E859F85B201A4013E
:103FA0002F81388509950DC00088F189E02D8E8517
:103FB0009F856C857D85A50196018601EF80F8843B
:103FC00009952394AC0CBD1C0894811C911CE22D16
:103FD000E83029F0EA85FB85F595E795A8CFAE8412
:103FE000BF84960133946C0C7D1C0894411C511CB9
:103FF0004B815C814F5F5F4F5C834B83532D563009
:1040000009F080CF2F960FB6F894DEBF0FBECDBF5C
:10401000CF91DF911F910F91FF90EF90DF90CF90A4
:10402000BF90AF909F908F907F906F905F904F90D8
:104030003F902F900895CF92EF92FF920F931F938E
:10404000CF93DF93EC01262F6A3019F42C8930E0EE
:104050002FC06D30D1F16C857D854E855F850889D7
:104060001989EA88FB88CC880E942B1F2C8930E0B4
:10407000C901880F991F820F931F880F991F4C85C4
:104080005D85840F951F9D878C874E894423E9F0B9
:104090006AEF7FEF269FA001279F500D369F500D9E
:1040A000112468857985460F571F481759076CF406
:1040B00043E0220F331F4A95E1F78E859F85820FDB
:1040C000931F9F878E871D861C8681E090E0DF917D
:1040D000CF911F910F91FF90EF90CF900895FC0129
:1040E00075876487578746870895662309F461E0DA
:1040F000FC01648B0895FC01718B608B738B628B68
:104100000895FC01718B608B538B428B0895FC01E9
:1041100085898370858B0895FC018085918508953C
:10412000FC01828593850895CF92DF92EF92FF92F2
:104130000F931F93CF93DF937C018B01EA016901F9
:1041400077FD74C00E948C20081719070CF06EC010
:10415000D7FD6CC0C7010E949020C817D9070CF08A
:1041600065C057C0F7018481958101978C1B9D0B19
:10417000E8018C0118C0F7018481958101979C01A9
:10418000201B310B8901868197810197FC01EC1B73
:10419000FD0BEF0108C0F701868197810197801B15
:1041A000910B8E01EC01F1E0CF16D104B9F4CE01F0
:1041B00068E070E00E946930FB01F695FE2FEE2763
:1041C000F795E795E00FF11FE658FE4F02C0CC0CC3
:1041D000DD1C8A95E2F780818C2919C0CE0168E048
:1041E00070E00E946930FB01F695FE2FEE27F795EF
:1041F000E795E00FF11FE658FE4F21E030E002C0E6
:10420000220F331F8A95E2F72095808182238083D5
:104210000DC0C7010E948720823009F4ACCF8330E3
:1042200009F4B9CF813009F0BECF9CCFDF91CF9197
:104230001F910F91FF90EF90DF90CF900895DC01D8
:10424000ED91FC910190F081E02D09950895EF9298
:104250000F93FC011382128286EC93E0918380839A
:10426000E48E038F228F418F608F0F91EF9008951E
:1042700080E092E0EAE7F1E0DF019C011D9221502D
:104280003040E1F70895FC0188E090E030E8A78D28
:10429000B0A14C9126A1209524232C93432F462393
:1042A000A58DB68D25A1442321F04C91422B4C9332
:1042B00004C04C91209524232C93A78DB0A12C9160
:1042C00046A1242B2C933695019709F708951F9347
:1042D000CF93DF93EC01162F888D8F3FF1F0E9A18A
:1042E000FAA180819FA1892B8083EBA1FCA1908101
:1042F00088A5809589238083E9A1FAA190818FA167
:10430000809589238083CE010E944321E9A1FAA1EF
:1043100080819FA1892B808317C02F89332727FD98
:1043200030958DE397E0B9010E940A248DE397E070
:1043300060E00E94C5238DE397E0612F0E94C523B2
:104340008DE397E00E942024DF91CF911F91089583
:10435000662311F067EA01C066EA0E9467210895AA
:104360000F931F93CF93DF93EC01162F042F60E878
:1043700070E040E250E00E947B1D0F8B888D8F3FE4
:1043800009F468C061E00E948916898D61E00E948D
:1043900089168A8D61E00E9489168C8D61E00E94E9
:1043A0008916898D992787FD9095FC01EB53FE4F67
:1043B000E491F0E0EE0FFF1FEF54FE4F2591349192
:1043C0002F8F38A387529E4FFC0184918EA3888D36
:1043D000992787FD9095FC01EB53FE4FE491F0E0A7
:1043E000EE0FFF1FEF54FE4F259134912D8F3E8F1E
:1043F00087529E4FFC0184918DA38C8D992787FD58
:104400009095FC01EB53FE4FE491F0E0EE0FFF1F9F
:10441000EF54FE4F2591349129A33AA387529E4F22
:10442000FC0184918FA38A8D992787FD9095FC01CB
:10443000EB53FE4FE491F0E0EE0FFF1FEF54FE4F01
:10444000259134912BA33CA387529E4FFC0184916C
:1044500088A704C08DE397E00E94F5238B8D61E06F
:104460000E9489168B8D61E00E94C71661E070E0A2
:1044700080E090E00E94FA158B8D60E00E94C716E4
:104480006AE070E080E090E00E94FA158B8D61E0B8
:104490000E94C716CE016EEA0E946721CE0165ED2B
:1044A0000E946721CE0160E80E946721CE0168EA80
:1044B0000E946721CE016FE10E946721CE0163ED6A
:1044C0000E946721CE0160E00E946721CE0160E476
:1044D0000E946721CE016DE80E946721113019F416
:1044E000CE0160E102C0CE0164E10E946721CE01ED
:1044F00060E20E946721CE0160E00E946721CE0148
:1045000061EA0E946721CE0168EC0E946721CE011A
:104510006AED0E946721CE0162E00E946721CE0110
:1045200061E80E946721CE016FE80E946721CE01F9
:1045300069ED0E946721113019F4CE0162E202C0D8
:10454000CE0161EF0E946721CE016BED0E946721D1
:10455000CE0160E40E946721CE0164EA0E946721D7
:10456000CE0166EA0E946721CE016FEA0E946721B0
:10457000DF91CF911F910F910895BF92CF92DF925B
:10458000EF92FF920F931F93CF93DF93EC0160E0C4
:104590000E946721CE0160E10E946721CE0160E4A4
:1045A0000E946721888D8F3F79F1E9A1FAA180816E
:1045B0009FA1892B8083EBA1FCA1808198A5892BE9
:1045C0008083E9A1FAA190818FA1809589238083BE
:1045D0000AE711E0F80161918F01CE010E944321A9
:1045E000F3E00A371F07B1F700E012E0CE0160E008
:1045F0000E94432101501040C9F7E9A1FAA180812E
:104600009FA1892B808357C0B090B8008CE0809325
:10461000B80000E010E06F89772767FD70958DE3A3
:1046200097E00E940A248DE397E060E470E00E9426
:104630001F21FAE7EF2EF1E0FF2EE00EF11EEAE86F
:10464000CE2EE1E0DE2EC00ED11EF70161917F017A
:104650008DE397E00E94C523EC14FD04B1F7005FE1
:104660001F4F8DE397E00E942024F2E000301F07E7
:1046700091F600E210E06F89772767FD70958DE372
:1046800097E00E940A248DE397E060E470E00E94C6
:104690001F2170E1E72E8DE397E060E00E94C523C3
:1046A000EA94C9F78DE397E00E942024015010405E
:1046B00011F7B092B800DF91CF911F910F91FF9049
:1046C000EF90DF90CF90BF9008952091180730E0D1
:1046D00080911707281B3109C90108958091170798
:1046E00090911807891750F4E82FF0E0E950F94F3E
:1046F000208130E08F5F8093170702C02FEF3FEFDC
:10470000C9010895E091170780911807E81730F460
:10471000F0E0E950F94F208130E002C02FEF3FEF89
:10472000C90108950895CF92DF92EF92FF920F93FF
:104730001F93CF93DF936C01CB01EA0120913C07DB
:104740002223B1F0E62EF92E00E010E00DC0D701D3
:104750006D917D01D601ED91FC910190F081E02DEC
:10476000C60109950F5F1F4F0C171D0780F303C08B
:10477000642F0E94AD24CE01DF91CF911F910F9144
:10478000FF90EF90DF90CF900895DF93CF930F923B
:10479000CDB7DEB7698320913C072223D1F0209169
:1047A0003B07203240F021E030E0FC0133832283DC
:1047B00020E030E015C080913A07E82FF0E0E65E97
:1047C000F84F998190838F5F80933A0780933B07DE
:1047D00005C0CE01019661E00E94AD2421E030E0E9
:1047E000C9010F90CF91DF91089510921707109291
:1047F000180710923A0710923B070E943B24089535
:1048000081E080933C076093190710923A07109259
:104810003B0708950E94002408950F93062F80916E
:1048200019076AE177E040913B0721E00E94592493
:1048300010923A0710923B0710923C070F9108958F
:1048400061E00E940D2408951092400710923F07E6
:1048500088EE93E0A0E0B0E0809341079093420798
:10486000A0934307B09344078EED93E090933E07E7
:1048700080933D07089510926E0781E080936C0746
:1048800010926D0782E161E00E94C71683E161E04A
:104890000E94C716E9EBF0E080818E7F80838081E3
:1048A0008D7F808380E28093B80085E48093BC0094
:1048B00008950F93413208F047C090916E079923F5
:1048C000E1F792E090936E0700936C079FEF90934F
:1048D0006F0710924A0740934B07DB01ECE4F7E0C7
:1048E00050E04E0F5F1F02C09D919193E417F507B2
:1048F000D9F71092490790914907880F892B809327
:10490000490780916D07813041F410926D078091C5
:1049100049078093BB0085EC01C085EE8093BC0005
:10492000222321F080916E078230E1F380916F079E
:104930008F3F61F080916F07803251F080916F0757
:10494000803341F483E007C081E005C080E003C00C
:1049500082E001C084E00F9108956132A0F42091BB
:104960006E07243091F460939407DC01E7E9F7E0E7
:1049700070E06E0F7F1F02C08D918193E617F707DD
:10498000D9F780E0089581E0089582E008958823B2
:1049900011F085EC01C085E88093BC00089585ED99
:1049A0008093BC008091BC0084FDFCCF10926E0708
:1049B000089585EC8093BC0010926E0708951F92B5
:1049C0000F920FB60F9211242F933F934F935F9343
:1049D0006F937F938F939F93AF93BF93EF93FF93C7
:1049E0008091B90090E0887F90708036910509F43D
:1049F000CCC081369105E4F58832910509F47EC07A
:104A000089329105C4F48031910509F472C0813175
:104A1000910544F4009709F41DC18830910509F00F
:104A20001DC167C08831910509F468C080329105C5
:104A300009F014C177C08034910509F489C081342C
:104A400091054CF48033910509F46EC088339105CB
:104A500009F004C16DC08035910509F46DC0883539
:104A6000910509F47AC08834910509F0F7C0F4C0C3
:104A70008839910509F4E4C089399105ECF4883747
:104A8000910509F482C0893791054CF48836910567
:104A900009F47BC08037910509F0E0C076C0883802
:104AA000910509F4CDC08039910509F474C08038AE
:104AB000910509F0D3C06FC0803B910509F498C0FF
:104AC000813B91054CF4803A910509F476C0883A0F
:104AD000910509F0C3C08CC0803C910509F4B4C0B5
:104AE000883C910509F4B0C0883B910509F0B6C037
:104AF00094C0809149078093BB0012C090914A07EF
:104B000080914B079817A8F580914A07E82FF0E0AD
:104B1000E45BF84F90819093BB008F5F80934A07CE
:104B200081E08FC080E201C080E380936F0794C072
:104B300088E380936F0759C080914A079091BB002A
:104B4000E82FF0E0E45BF84F90838F5F80934A0793
:104B500090914A0780914B0770C080914A079091CD
:104B6000BB00E82FF0E0E45BF84F90838F5F809309
:104B70004A0780916C07882309F06EC081E080931A
:104B80006D0784EA8093BC0062C083E080936E0767
:104B900010927007C5CF80917007803208F050C026
:104BA000809170079091BB00E82FF0E0EF58F84F2C
:104BB00090838F5F80937007B3CF809170078032AE
:104BC00030F4E0917007F0E0EF58F84F10820E9447
:104BD000CF2460917007E0919107F091920781E7EF
:104BE00097E070E00995109270070E94D92436C0B2
:104BF00084E080936E071092930710929407E091DF
:104C00009507F0919607099580919407882329F4D8
:104C100081E0809394071092970780919307E82F83
:104C2000F0E0E956F84F90819093BB008F5F80933E
:104C300093079091930780919407981708F470CF89
:104C400080E00E94C7240AC081E00E94C72410921D
:104C50006E0704C010926F070E94CF24FF91EF915E
:104C6000BF91AF919F918F917F916F915F914F9184
:104C70003F912F910F900FBE0F901F901895505895
:104C8000BB27AA270ED027C2F0D130F0F5D120F0F3
:104C900031F49F3F11F41EF4C0C10EF4E095E7FB20
:104CA000B6C1E92F3AD280F3BA17620773078407B7
:104CB000950718F071F49EF552C20EF4E0950B2E94
:104CC000BA2FA02D0B01B90190010C01CA01A0015E
:104CD0001124FF27591B99F0593F50F4503E68F1B9
:104CE0001A16F040A22F232F342F4427585FF3CFFA
:104CF000469537952795A795F0405395C9F77EF4CB
:104D00001F16BA0B620B730B840BBAF09150A1F013
:104D1000FF0FBB1F661F771F881FC2F70EC0BA0F99
:104D2000621F731F841F48F4879577956795B79521
:104D3000F7959E3F08F0B3CF9395880F08F0992719
:104D4000EE0F97958795089590D158F080E891E0FF
:104D500009F49EEF91D128F040E851E059F45EEF5C
:104D600009C05BC1FCC1E92FE078D7D168F3092EF7
:104D7000052AC1F3261737074807590738F00E2EC2
:104D800007F8E02569F0E025E0640AC0EF6307F862
:104D9000009407FADB01B9019D01DC01CA01AD01F4
:104DA000EF934AD098D10AD05F91552331F02BED83
:104DB0003FE049E450FD49EC63CF0895DF93DD27E0
:104DC000B92FBF7740E85FE31616170648075B0761
:104DD00010F4D92FCFD19F938F937F936F937CD271
:104DE000EAEBF0E01DD177D12F913F914F915F9188
:104DF000D4D1DD2349F09058A2EA2AED3FE049ECF6
:104E00005FE3D0785D274DDFDF9165C1DCD008F42A
:104E100081E0089539D1E3956FC10CD05CC12CD1EC
:104E200040F023D130F021F45F3F19F0F0C0511170
:104E300097C1F3C072D198F39923C9F35523B1F305
:104E4000951B550BBB27AA2762177307840738F0F9
:104E50009F5F5F4F220F331F441FAA1FA9F333D058
:104E60000E2E3AF0E0E830D091505040E695001C0C
:104E7000CAF729D0FE2F27D0660F771F881FBB1FC8
:104E8000261737074807AB07B0E809F0BB0B802DA2
:104E9000BF01FF2793585F4F2AF09E3F510568F0EE
:104EA000B6C05EC15F3FECF3983EDCF38695779524
:104EB0006795B795F7959F5FC9F7880F911D9695F0
:104EC000879597F90895E1E0660F771F881FBB1F4C
:104ED000621773078407BA0720F0621B730B840BF9
:104EE000BA0BEE1F88F7E095089504D06894B111CD
:104EF00037C108951AD188F09F5790F0B92F99279C
:104F0000B751A0F0D1F0660F771F881F991F1AF0D4
:104F1000BA95C9F712C0B13081F021D1B1E008953E
:104F20001EC1672F782F8827B85F39F0B93FCCF3BF
:104F3000869577956795B395D9F73EF490958095CA
:104F4000709561957F4F8F4F9F4F0895E89409C0EA
:104F500097FB3EF490958095709561957F4F8F4FAC
:104F60009F4F9923A9F0F92F96E9BB279395F695C2
:104F7000879577956795B795F111F8CFFAF4BB0F40
:104F800011F460FF1BC06F5F7F4F8F4F9F4F16C0A4
:104F9000882311F096E911C0772321F09EE8872F2E
:104FA000762F05C0662371F096E8862F70E060E0EA
:104FB0002AF09A95660F771F881FDAF7880F969563
:104FC000879597F90895990F0008550FAA0BE0E807
:104FD000FEEF16161706E807F907C0F012161306BB
:104FE000E407F50798F0621B730B840B950B39F4FB
:104FF0000A2661F0232B242B252B21F408950A2661
:1050000009F4A140A6958FEF811D811D089597F9A0
:105010009F6780E870E060E008959FEF80EC08955E
:10502000DF93CF931F930F93FF92EF92DF927B0159
:105030008C01689405C0DA2EEF01AFD0FE01E89430
:10504000A5912591359145915591AEF3EF0129DE5A
:10505000FE019701A801DA9479F7DF90EF90FF90B5
:105060000F911F91CF91DF91089500240A94161695
:10507000170618060906089500240A941216130646
:10508000140605060895C9CF50D0E8F3E894E0E08F
:10509000BB279F57F0F02AED3FE049EC06C0EE0F2A
:1050A000BB0F661F771F881F28F0B23A620773078D
:1050B000840728F0B25A620B730B840BE3959A9520
:1050C00072F7803830F49A95BB0F661F771F881FE0
:1050D000D2F7904806C1092E0394000C11F48823DE
:1050E00052F0BB0F40F4BF2B11F460FF04C06F5FA0
:1050F0007F4F8F4F9F4F0895EF93E0FF06C0A2EAC6
:105100002AED3FE049EC5FEBCCDDE5DF0F90039447
:1051100001FC9058E7EEF0E0F7C057FD9058440FBF
:10512000551F59F05F3F71F04795880F97FB991F06
:1051300061F09F3F79F087950895121613061406C3
:10514000551FF2CF4695F1DF08C016161706180650
:10515000991FF1CF86957105610508940895E8942B
:10516000BB2766277727CB0197F908952CDF08F432
:105170008FEF08959B01AC0160E070E080E89FE351
:105180004CCE0BD0A8CF71DF28F076DF18F0952336
:1051900009F03DCF42CF1124E3CFBFDFA0F3959FAD
:1051A000D1F3950F50E0551F629FF001729FBB270E
:1051B000F00DB11D639FAA27F00DB11DAA1F649FBA
:1051C0006627B00DA11D661F829F2227B00DA11D6D
:1051D000621F739FB00DA11D621F839FA00D611DF3
:1051E000221F749F3327A00D611D231F849F600D14
:1051F000211D822F762F6A2F11249F5750408AF04D
:10520000E1F088234AF0EE0FFF1FBB1F661F771FD8
:10521000881F91505040A9F79E3F510570F0F7CE7E
:105220009FCF5F3FECF3983EDCF3869577956795CB
:10523000B795F795E7959F5FC1F7FE2B880F911DF6
:105240009695879597F908959F931EDF0F9007FC19
:10525000EE5F52CF11F40EF4E0CE41C066DFD0F322
:105260009923D9F3CEF39F57550B87FF46D00024DF
:10527000A0E640EA900180585695979528F4805C06
:10528000660F771F881F20F026173707480730F46E
:10529000621B730B840B202931294A2BA695179486
:1052A0000794202531254A2758F7660F771F881F56
:1052B00020F026173707480730F4620B730B840B76
:1052C000200D311D411DA09581F7B901842F915802
:1052D000880F9695879508959B01AC0152CF9F3F0B
:1052E00031F0915020F4879577956795B795880FA1
:1052F000911D9695879597F9089591505040660FA6
:10530000771F881FD2F708959F938F937F936F9392
:10531000FF93EF939B01AC0134DFEF91FF9180DEAF
:105320002F913F914F915F912CCFEF920F931F934D
:10533000CF93322FC02F47FF02C0A4E101C0A4E0E9
:10534000E42FFF27E7FDF095F7FF03C0F095E19507
:10535000FF4F4C2F512F2E2F032FEA2E0E94672D27
:105360008C2F912FCF911F910F91EF900895CF9394
:10537000DF938230910510F482E090E0E091B9076C
:10538000F091BA0740E050E020E030E026C06081B4
:10539000718168177907E0F06817790781F48281D5
:1053A00093812115310531F0D90113969C938E9389
:1053B00012972BC09093BA078093B90726C0411566
:1053C000510519F06417750718F4AB01E901DF0105
:1053D0009F0172816381E72FF62F3097C1F6411547
:1053E000510501F1481B590B4430510580F41296C8
:1053F0008D919C911397209719F09B838A8304C009
:105400009093BA078093B907FD01329646C0FD011B
:10541000E40FF51F819391934250504011965C9395
:105420004E933BC02091B7073091B8072115310545
:1054300041F420916401309165013093B8072093C5
:10544000B70720916601309167012115310541F4BC
:105450002DB73EB74091620150916301241B350B7B
:10546000E091B707F091B807E217F307A0F42E1BFD
:105470003F0B2817390778F0AC014E5F5F4F2417B8
:10548000350748F04E0F5F1F5093B8074093B7079A
:105490008193919302C0E0E0F0E0CF01DF91CF91E2
:1054A0000895CF93DF93009709F491C0FC013297E0
:1054B000138212826091B9077091BA076115710564
:1054C00081F420813181280F391F8091B707909195
:1054D000B8078217930799F5F093B807E093B707D9
:1054E00076C0DB0180E090E002C0CD01D901AE17AB
:1054F000BF0748F412962D913C9113972115310561
:10550000A1F7CD0121C0B383A283EF014991599145
:105510009E01240F351FA217B30779F42D913C91FA
:105520001197240F351F2E5F3F4F31832083129632
:105530002D913C91139733832283009729F4F093A4
:10554000BA07E093B90743C0DC011396FC93EE93CE
:1055500012974D915D91A40FB51FEA17FB0769F4EF
:1055600020813181240F351F2E5F3F4FEC0139839D
:105570002883228133813B832A83E0E0F0E002C06C
:10558000FB01BC01DB0112968D919C911397009752
:10559000B9F79B012E5F3F4F8D919C911197820F20
:1055A000931F4091B7075091B8074817590779F4EE
:1055B000309729F41092BA071092B90702C01382EB
:1055C0001282225030403093B8072093B707DF9102
:1055D000CF910895FC0188279927E89421912032E2
:1055E000E9F3293010F02E30C8F32B3241F02D3280
:1055F00039F4689404C00E942A2B820F911D2191D6
:1056000020532A30C0F31EF4909581959F4F089542
:10561000FB01DC010D900020E9F7119701900D923C
:105620000020E1F70895FB01DC0101900D920020BC
:10563000E1F70895FB01DC010D900020E9F71197D7
:105640004150504028F0019000200D92C9F7089574
:105650001C9208957AE0979F902D879F802D910D41
:1056600011240895AEE0B0E0E8E3FBE20C94AC3026
:105670000D891E8986E08C831A8309838FEF9FE74B
:105680009E838D839E01275E3F4FCE0101966F89D9
:10569000788DA9010E94782BEF81F885E00FF11F2A
:1056A00010822E96E4E00C94C830AEE0B0E0EBE55A
:1056B000FBE20C94AC300D891E898EE08C831A833A
:1056C00009838FEF9FE79E838D839E01275E3F4F67
:1056D000CE0101966F89788DA9010E94782BEF8108
:1056E000F885E00FF11F10822E96E4E00C94C8308C
:1056F000ACE0B0E0EEE7FBE20C949E306C011B01E5
:105700008A01FC0117821682838181FFD1C12E019B
:105710000894411C511CF6019381F10193FD859180
:1057200093FF81911F01882309F4BEC1853239F4AA
:1057300093FD859193FF81911F01853229F490E0BB
:10574000B6010E94AC2FE7CFEE24FF2420E02032E8
:10575000B0F48B3269F08C3228F4803251F083320D
:1057600071F40BC08D3239F0803349F421602CC0C4
:105770002260246029C0286027C0206125C027FD41
:105780002CC0382F30533A3098F426FF08C08E2DA5
:10579000880FE82EEE0CEE0CE80EE30E15C08F2DF0
:1057A000880FF82EFF0CFF0CF80EF30E20620CC0D1
:1057B0008E3221F426FD78C1206406C08C3611F4A7
:1057C000206802C0883649F4F10193FD859193FF6A
:1057D00081911F01882309F0BACF982F95549330F7
:1057E00018F09052933028F40C5F1F4FFFE3F983B9
:1057F0000DC0833631F0833771F0833509F060C016
:1058000022C0F801808189830E5F1F4F420171E041
:10581000A72EB12C16C062E0662E712C600E711E90
:10582000F8018080918026FF03C06E2D70E002C0D9
:105830006FEF7FEFC4012C870E94A12F5C018301D1
:105840002C852F7717C052E0652E712C600E711ECB
:10585000F8018080918026FF03C06E2D70E002C0A9
:105860006FEF7FEFC4012C870E94962F5C012C857F
:105870002068830123FD20C008C080E290E0B601CB
:105880002C870E94AC2FFA942C858F2D90E0A816BF
:10589000B90698F311C0F40127FD859127FF819186
:1058A0004F0190E0B6012C870E94AC2F2C85F1109F
:1058B000FA940894A108B108A114B10461F7F1C0E9
:1058C000843611F0893649F527FF08C0F801608158
:1058D0007181828193810C5F1F4F09C0F801608143
:1058E0007181882777FD8095982F0E5F1F4F4FE6B7
:1058F000B42EB22297FF09C090958095709561955E
:105900007F4F8F4F9F4FF0E8BF2AA2012AE030E07F
:105910000E94D82F782E741845C0853731F43FEE99
:10592000B32EB2222AE030E025C099EFB92EB22280
:105930008F36C1F0803720F4883509F0B5C00DC02E
:10594000803721F0883709F0AFC002C020E1B22AC9
:10595000B4FE0BC084E0B82A08C0B4FE09C0E6E07B
:10596000BE2A06C028E030E005C020E130E002C0D9
:1059700020E132E0B7FE08C0F801608171818281C8
:1059800093810C5F1F4F07C0F8016081718180E037
:1059900090E00E5F1F4FA2010E94D82F782E74183E
:1059A000FFE7BF22B6FE0BC02EEFB2227E1438F402
:1059B000B4FE07C0B2FC05C08FEEB82202C0A72C0F
:1059C00001C0AE2C8B2D90E0B4FE0DC0FE01E70DA2
:1059D000F11D2081203319F4E9EEBE2209C0A39401
:1059E000B2FE06C004C086789070009709F0A394B8
:1059F0008B2C9924B3FC14C0B0FE0FC0AF1428F454
:105A0000E72CEF0CEA18AF2C08C0E72C06C080E2A8
:105A100090E0B6010E94AC2FA394AF14C0F304C071
:105A2000AF1410F4FA1801C0FF2484FE0FC080E305
:105A300090E0B6010E94AC2F82FE1FC081FE03C021
:105A400088E590E010C088E790E00DC0C40186783A
:105A50009070009791F081FC02C080E201C08BE25F
:105A6000B7FC8DE290E0B6010E94AC2F06C080E347
:105A700090E0B6010E94AC2FEA947E14C0F37A94B1
:105A8000F201E70DF11D808190E0B6010E94AC2F7C
:105A90007720A9F706C080E290E0B6010E94AC2F03
:105AA000FA94FF20C1F737CEF6012681378102C074
:105AB0002FEF3FEFC9012C96E2E10C94BA30F9992F
:105AC000FECF92BD81BDF89A992780B50895A9E0CF
:105AD000B0E0EDE6FDE20C94A6306A01F22E102F44
