:100000000C947A030C94661F0C94931F0C941D257A
:100010000C9441250C9465250C94A2030C94A20326
:100020000C94A2030C94A2030C94A2030C94A203BC
:100030000C94A2030C94A2030C94A2030C94A203AC
:100040000C94C01F0C94A2030C9403220C9446221F
:100050000C94A2030C94A2030C94A2030C94A2038C
:100060000C94B42D0C94A2032A1B441B641B781B14
:10007000891BC11BCA1BD51BE01BED1BED1BED1B18
:10008000ED1BED1BED1BED1BED1BED1BED1BED1B30
:10009000ED1BED1BED1BED1BED1BED1BED1BED1B20
:1000A000ED1BED1BED1BED1B2A1B3C1B441B641BB6
:1000B000781B891B9D1BA81BB31B084AD73B3BCE53
:1000C000016E84BCBFFDC12F3D6C74319ABD568357
:1000D0003DDA3D00C77F11BED9E4BB4C3E916BAA0F
:1000E000AABE000000803F05A84CCDB2D44EB9385E
:1000F00036A9020C50B9918688083CA6AAAA2ABE45
:10010000000000803F476569676965204E616E6F3A
:1001100020257300426174746572793D2025303268
:100120006400252500416C61726D3D2564004350DB
:100130004D004D6F6465203D2564002325303464F7
:100140000024504D544B3331342C302C312C302C76
:10015000312C302C302C302C302C302C302C302CBE
:10016000302C302C302C302C302C302C302C302AB1
:1001700032380024504D544B3232302C3130303034
:100180002A31460024504D544B3331332C312A321E
:10019000450D0A0024504D544B3330312C322A3255
:1001A000450D0A0025303464253032642530326430
:1001B0002E6C6F670023204E4557204C4F470A2373
:1001C00020666F726D61743D00312E332E34006EE7
:1001D000616E6F0A23206465616474696D653D6FAB
:1001E0006E0A002425732C253034642C25303264AB
:1001F0002D253032642D2530326454253032643A56
:10020000253032643A253032645A2C256C642C2512
:100210006C642C256C642C25632C25732C25632C95
:1002200025732C25632C25732C25632C25642C2504
:100230006C64002A302558002A2558002530326485
:1002400068253032646D004E6F20475053005E00C9
:10025000207553762F68002042712F6D32006B6D30
:10026000002D2D006B43504D200043504D20006D5C
:1002700042712F6D32006B42712F6D320042712F2F
:100280006D32004D783D0075532F68200044733D5A
:100290000075530057726F6E67206D6F6465202183
:1002A00000253032642F2530326420253032643A04
:1002B000253032643A25303264004E4F20534420BA
:1002C000434152442F204750532072657365740098
:1002D00024504D544B3130342A3337002530346CA0
:1002E000642E2530346C64002530356C642E253046
:1002F000346C64006B43504D002043504D00206D22
:10030000532F68002075532F68002075532F680005
:100310004A504E00726561642025732030202564A8
:1003200000000000070002010000030406000000B6
:1003300000000000000102040810204080010204B7
:10034000081020010204081020040404040404041A
:10035000040202020202020303030303030000007B
:100360000023002600290000000000250028002BA3
:100370000000000000240027002A0000C201000144
:100380000005000500030000E1000001000F000F60
:10039000000D0000960000020019001A001700125C
:1003A0007A00000700200021001D00807000000B73
:1003B00000230023002000004B000014003700370A
:1003C000003400403800001E004B004B0048008005
:1003D0002500003200720072007000C01200006E32
:1003E00000E900E900E60060090000E500D801D856
:1003F00001D501B0040000D301B403B403B1035824
:10040000020000B4036707670762072C010000675A
:1004100007DD0EDD0EDA0E000000000000005F00B8
:10042000000007000700147F147F14242A7F2A127B
:100430002313086462364956205000080703000061
:100440001C2241000041221C002A1C7F1C2A080893
:100450003E080800807030000808080808000060A6
:10046000600020100804023E5149453E00427F4092
:100470000072494949462141494D331814127F10F1
:1004800027454545393C4A4949314121110907363B
:1004900049494936464949291E00001400000040D8
:1004A00034000000081422411414141414004122D2
:1004B000140802015909063E415D594E7C12111281
:1004C0007C7F494949363E414141227F4141413E7D
:1004D0007F494949417F090909013E414151737FE3
:1004E0000808087F00417F41002040413F017F080C
:1004F0001422417F404040407F021C027F7F04085D
:10050000107F3E4141413E7F090909063E4151218C
:100510005E7F09192946264949493203017F0103B3
:100520003F4040403F1F2040201F3F4038403F6336
:100530001408146303047804036159494D43007F90
:100540004141410204081020004141417F04020161
:100550000204404040404000030708002054547803
:10056000407F284444383844444428384444287F51
:10057000385454541800087E090218A4A49C787FAB
:100580000804047800447D40002040403D007F1076
:1005900028440000417F40007C047804787C0804F3
:1005A00004783844444438FC1824241818242418A7
:1005B000FC7C08040408485454542404043F442494
:1005C0003C4040207C1C2040201C3C4030403C44AF
:1005D000281028444C9090907C4464544C4400086B
:1005E0003641000000770000004136080002010299
:1005F000040200407A10F35A00A0724E180900104D
:10060000A5D4E80000E87648170000E40B54020087
:1006100000CA9A3B000000E1F505000080969800B2
:10062000000040420F000000A086010000001027DB
:1006300000000000E803000000006400000000006B
:100640000A00000000000100000000002C76D8889D
:10065000DC674F0823DFC1DFAE59E1B1B796E5E3B0
:10066000E453C63AE651997696E8E6C28426EB89C9
:100670008C9B62ED407C6FFCEFBC9C9F40F2BAA566
:100680006FA5F490055A2AF75C936B6CF9676DC1FE
:100690001BFCE0E40D47FEF520E6B500D0ED902E02
:1006A0000300943577050080841E080000204E0A60
:1006B000000000C80C333333330F986E128311419E
:1006C000EF8D2114893BE65516CFFEE6DB18D18469
:1006D0004B381BF77C1D901DA4BBE4242032847290
:1006E0005E228100C9F124ECA1E53D27D013092346
:1006F000FD2CD51311241FBECFEFD8E0DEBFCDBF38
:1007000014E0A0E0B1E0E4E2F1E702C005900D9250
:10071000A631B107D9F718E0A6E1B4E001C01D92F7
:10072000A335B107E1F716E0C2EFD6E004C0229787
:10073000FE010E94F732CC3ED107C9F70E94B423D4
:100740000C9485380C940000EF92FF920F931F9346
:100750008130910569F58DE295E069E04AE02BE092
:100760000DE03CE0E32E0E94F12981EB94E066E08D
:1007700045E020E00E94D7258CE394E061E00E94F0
:10078000E71780E294E068E047E020E00E94D72588
:1007900086E194E061EB74E04EE755E026E535E054
:1007A0000BEA15E0E4E6EE2EF12C0E9467140AC075
:1007B000009741F480E294E00E94DA2681EB94E015
:1007C0000E94DA261F910F91FF90EF9008958EE01E
:1007D0000E94AD209C01B901882777FD8095982F54
:1007E0000E947D3020E030E040E85AE30E949631DC
:1007F00020E030E040E251E40E94963124EB35ECF9
:100800004AEC5DE30E94E22F462F572F682F792F85
:10081000CB01BA0108951F93CF93DF93182FC0E047
:10082000D0E0219681EB94E00E940F24009779F0AC
:1008300081EB94E00E94C123AC01112319F02EE357
:1008400030E002C02CE330E04217530751F06AE079
:1008500070E080E090E00E944620C83CD10509F796
:1008600004C081E0C83CD10509F480E0DF91CF915C
:100870001F9108950F931F93CF93DF9382E161E05F
:100880000E94FA2083E160E00E94FA2084E696E06C
:1008900040E855E260E070E00E94812286E194E049
:1008A0000E94461781EB94E040E855E260E070E07A
:1008B0000E94042684E061E00E94FA2081EB94E02B
:1008C0000E942E2484E060E00E942E2164E670E005
:1008D00080E090E00E94462084E061E00E942E21AA
:1008E00081E00E940B04882321F481E080931305AA
:1008F00003C081E08093B0048091B004882331F07C
:1009000086E194E060E071E00E94BC1480E090E039
:1009100048E853E160E070E00E94EE130E94091481
:1009200080E294E040E855E260E070E00E94042636
:1009300080E294E00E942E24CBEAD5E004E6DE01BA
:10094000E02F1D92EA95E9F700D000D0ADB7BEB711
:100950001296DC93CE93119781E491E014969C93C8
:100960008E9313970E949F330F900F900F900F90CC
:1009700080E294E0BE010E94A223FE01802F11922A
:100980008A95E9F700D000D0ADB7BEB71296DC93D8
:10099000CE93119783E791E014969C938E931397CF
:1009A0000E949F330F900F900F900F9080E294E081
:1009B000BE010E94A223FE01802F11928A95E9F7C1
:1009C00000D000D0ADB7BEB71296DC93CE9311978E
:1009D00084E891E014969C938E9313970E949F3322
:1009E0000F900F900F900F9080E294E0BE010E9454
:1009F000A223FE0111920A95E9F700D000D0ADB70D
:100A0000BEB71296DC93CE93119784E991E01496C9
:100A10009C938E9313970E949F330F900F900F908B
:100A20000F9080E294E0BE010E94A22306E515E04B
:100A300068EC70E001C0BE01EB01219682E997E00D
:100A40000E94E226F80181938F01C03DD10599F7FC
:100A500083E00E94AA208DE295E062E04CE30E94D0
:100A6000792A8DE295E00E94842B68EE73E080E0A5
:100A700090E00E9446208DE295E00E94022A8DE2DD
:100A800095E061E070E00E9463298DE295E061E00D
:100A90000E945D2900D000D000D0EDB7FEB731969E
:100AA000CEE5D5E0ADB7BEB71296DC93CE931197E5
:100AB00085E091E0938382838DE091E09583848348
:100AC0000E949F3309900020E9F7EDB7FEB73696F4
:100AD0000FB6F894FEBF0FBEEDBFCE55D540CE0188
:100AE000880F991F8C0F9D1F880F991F60E870E079
:100AF000681B790B769567958DE295E040E050E0B4
:100B00000E94572980918205882329F48DE295E07F
:100B100063E171E004C08DE295E065E171E00E945F
:100B200083238DE295E06EE575E00E9483238DE2DC
:100B300095E068E070E048E050E00E9457290E948C
:100B4000E70320E030E040EF51E40E94142F20E062
:100B500030E048E451E40E9496310E944A306C5ED5
:100B60007F4F77FD04C06536710524F405C061E050
:100B700070E002C064E670E000D000D000D0EDB7B5
:100B8000FEB73196CEE5D5E0ADB7BEB71296DC9391
:100B9000CE93119784E191E093838283758364837C
:100BA0000E949F33EDB7FEB736960FB6F894FEBF9E
:100BB0000FBEEDBF8DE295E0BE010E94832300D001
:100BC00000D0ADB7BEB71296DC93CE93119782E2F8
:100BD00091E014969C938E9313970E949F330F90ED
:100BE0000F900F900F908DE295E0BE010E9483233D
:100BF0008DE295E067E370E040E150E00E94572904
:100C000000D000D000D0EDB7FEB73196ADB7BEB77B
:100C10001296DC93CE93119785E291E093838283C1
:100C200080919F059091A005958384830E949F33B6
:100C3000EDB7FEB736960FB6F894FEBF0FBEEDBF08
:100C40008DE295E0BE010E94832300D000D0ADB7B5
:100C5000BEB71296DC93CE9311978EE291E0149674
:100C60009C938E9313970E949F330F900F900F9039
:100C70000F908DE295E0BE010E9483238DE295E006
:100C800068E070E040E150E00E94572900D000D0B9
:100C900000D0EDB7FEB73196ADB7BEB71296DC9374
:100CA000CE93119782E391E0938382838091AA058A
:100CB000848315820E949F33EDB7FEB736960FB638
:100CC000F894FEBF0FBEEDBF8DE295E0BE010E941D
:100CD00083238DE295E061E00E945D298DE295E03D
:100CE00065E570E048E050E00E94572900D000D050
:100CF00000D0EDB7FEB73196ADB7BEB71296DC9314
:100D0000CE9311978BE391E0938382838091940536
:100D100090919505958384830E949F33EDB7FEB72C
:100D200036960FB6F894FEBF0FBEEDBF8DE295E08C
:100D3000BE010E9483238DE295E061E00E945D295F
:100D400080918405882301F1C4E8D5E0FE0101907B
:100D50000020E9F7E558F540CF01880F991F8E0F65
:100D60009F1F880F991F60E870E0681B790B7695CC
:100D700067958DE295E048E150E00E9457298DE2A9
:100D800095E0BE010E9483238DE295E00E94842BB2
:100D900068E273E280E090E00E944620DF91CF910C
:100DA0001F910F9108958F929F92BF92CF92DF92E1
:100DB000EF92FF920F931F93CF93DF93B82E6A01A8
:100DC0007B014901CB01BA0120EA36E841E050E05D
:100DD0000E949C32E901142F052FB901842F952F11
:100DE00020EA36E841E050E00E946A32DC01CB01A3
:100DF000A7019601281B390B4A0B5B0BCA01B901ED
:100E00002AE030E040E050E00E949C328DB79EB76F
:100E10000C97BB2089F00FB6F8949EBF0FBE8DBF14
:100E2000EDB7FEB73196ADB7BEB712969C928E92D3
:100E300011978CED92E010C00FB6F8949EBF0FBED4
:100E40008DBFEDB7FEB73196ADB7BEB712969C9287
:100E50008E92119788EE92E093838283C483D58328
:100E60001683078320873187428753870E949F33E9
:100E70002DB73EB7245F3F4F0FB6F8943EBF0FBE6D
:100E80002DBFDF91CF911F910F91FF90EF90DF90D9
:100E9000CF90BF909F908F900895A0E0B0E0E3E5E1
:100EA000F7E00C94C8320E947B3020E836E948E134
:100EB0005BE40E94E22F8B01D82FC92FCE01402F77
:100EC000512F692F782FCB01BA010E944A30882711
:100ED00077FD8095982F0E947D306B017C019E01EB
:100EE000802F912FA32FB22FBC01CD01A701960116
:100EF0000E94142F20E030E040E752E40E94E22FED
:100F000020E030E048EC52E40E949631462F572F03
:100F1000682F792FCB01BA01A70196010E94152FE6
:100F2000462F572F682F792FCB01BA01CDB7DEB7E7
:100F3000E8E00C94E432A0E0B0E0E1EAF7E00C94E1
:100F4000C8326B017C01142FA9018DE295E060E0AD
:100F500070E00E9457298DE295E062E00E945D29D1
:100F60008091C801863549F48DE295E060E070E03B
:100F700041E050E00E94692906C08DE295E061E001
:100F800070E00E946329C9E2D6E080E2FE0111927E
:100F90008A95E9F7C701B601112309F44DC0F0E1C4
:100FA000CF16F7E2DF06F0E0EF06F0E0FF0668F1AB
:100FB0000E947B3020E030E04AE754E40E94E22FB8
:100FC00044E023E00EE515E00E940F33CE01B801A6
:100FD00044E050E00E94663309900020E9F7229730
:100FE00088818E3209F418828DE295E069E276E01C
:100FF0000E94832300D000D0CEE5D5E0EDB7FEB748
:10100000D283C18384EF92E0CBC00E947B30CEE5D7
:10101000D5E040E020E08E010E940F338DE295E0A4
:10102000BE010E94832300D000D0EDB7FEB7D2836B
:10103000C18389EF92E0B4C00E947B302091970574
:10104000309198054091990550919A050E94E22FA0
:101050008B01F82EE92E9701862F912FA32FB22F07
:10106000BC01CD0120E030E04AE754E40E948B311E
:10107000970187FD31C0802F912FA32FB22FBC0184
:10108000CD0120E030E04AE754E40E94E22F44E042
:1010900022E00EE515E00E940F33CE01B80145E0D5
:1010A00050E00E94663309900020E9F7229788817A
:1010B0008E3209F418828DE295E069E276E00E94B2
:1010C000832300D000D0CEE5D5E0EDB7FEB7D283C4
:1010D000C1838EEF92E064C0802F912FA32FB22F97
:1010E000BC01CD0120E030E040E251E40E948B31B0
:1010F000970187FD2BC0802F912FA32FB22FBC010A
:10110000CD0144E022E00EE515E00E940F33CE0150
:10111000B80145E050E00E94663309900020E9F7ED
:10112000229788818E3209F418828DE295E069E277
:1011300076E00E94832300D000D0CEE5D5E0EDB765
:10114000FEB7D283C18384E093E02AC0802F912F21
:10115000A32FB22FBC01CD0144E023E00EE515E042
:101160000E940F33CE01B80146E050E00E94663382
:1011700009900020E9F7229788818E3209F41882BD
:101180008DE295E069E276E00E94832300D000D0F2
:10119000CEE5D5E0EDB7FEB7D283C1838AE093E018
:1011A000948383830E949F330F900F900F900F9032
:1011B0008DE295E0BE010E948323CDB7DEB7E8E063
:1011C0000C94E432ACE2B0E0E8EEF8E00C94BE320D
:1011D00083E10E94AD2021E0853F92071CF0109230
:1011E000820507C081E08093820582E160E00E9471
:1011F0002E210E94E70320E030E040EF51E40E94FE
:10120000142F0E944A30DC01CB01181619064CF04D
:1012100068EE73E080E090E00E94462081E08093D9
:10122000820580E294E00E942E240E940A206B0135
:101230007C010FC080E294E00E94C123682F8CE300
:1012400094E00E94F31B80E294E00E940F24009738
:1012500089F70E940A20AB01BC01D701C601841B9B
:10126000950BA60BB70BC416D506E606F70620F4B9
:1012700080959095A095B095883E33E0930730E037
:10128000A30730E0B30710F00C94C6130E941E149D
:101290000097C9F20C94C6130E945E14698F7A8F6E
:1012A0008B8F9C8F0E9409148091DF049091E00441
:1012B000A091E104B091E204FC01EE0FFF1FEE0FDC
:1012C000FF1FED51FB4F298D3A8D4B8D5C8D208397
:1012D0003183428353830196A11DB11DBC01CD0111
:1012E0002CE030E040E050E00E949C32DC01CB0179
:1012F0008093DF049093E004A093E104B093E204B0
:10130000E3EEF4E080E090E0DC01419151916191E5
:101310007191840F951FA61FB71F35E0E331F307C6
:10132000A1F7BC01CD010E947B306B017C0122EB57
:1013300035EC4CEF55E30E9496319B01AC0160E027
:1013400070E080E89FE30E94142F9B01AC01C7016D
:10135000B6010E94E22F0E944F306D8B7E8B8F8BE7
:10136000988F8091DB049091DC04A091DD04B09112
:10137000DE04298D3A8D4B8D5C8D820F931FA41F47
:10138000B51F8093DB049093DC04A093DD04B0933D
:10139000DE048091D3049091D404A091D504B0913F
:1013A000D6040596A11DB11D8093D3049093D40457
:1013B000A093D504B093D6048091D7049091D8041B
:1013C000A091D904B091DA042D893E894F89588DB6
:1013D00082179307A407B50740F42093D7043093EE
:1013E000D8044093D9045093DA0480915605909123
:1013F0005705A0915805B0915905298D3A8D4B8D0F
:101400005C8D820F931FA41FB51F80935605909388
:101410005705A0935805B093590580915A059091AE
:101420005B05A0915C05B0915D050596A11DB11D00
:1014300080935A0590935B05A0935C05B0935D057E
:10144000BC01CD0120E13EE040E050E00E949C3232
:10145000DC01CB010097A105B105A1F406E515E07B
:1014600068EC70E0780101C0B8018B010F5F1F4F7D
:10147000D7014D917D0182E997E00E94E626003D6B
:10148000110591F78091CD049091CE048C30910597
:101490004CF426E52093C80101969093CE048093E6
:1014A000CD040EC02D893E894F89588D21153105F7
:1014B0004105510511F486E501C081E48093C8011E
:1014C00080911305882309F0E5C08091C70181341C
:1014D00009F0E0C08DED97E098878F831E821D8212
:1014E0001C821B821A8219828CE394E0BE01695F20
:1014F0007F4FAE014A5F5F4F9E012B5F3F4F8E01D2
:101500000C5F1F4FE3E0EE2EF12CEC0EFD1EF2E01F
:10151000CF2ED12CCC0EDD1E5E010894A11CB11C77
:10152000A1E18A2E912C8C0E9D1E0E94271E898976
:101530009A89AB89BC898F3F3FEF93073FEFA307A1
:101540003FEFB30709F4A6C04DB75EB74A5050400D
:101550000FB6F8945EBF0FBE4DBFEDB7FEB7319624
:1015600084E195E0ADB7BEB712969C938E93119728
:1015700084EA91E09383828380919405909195050C
:10158000958384838E81868317828D8180871186DF
:101590000E949F3381E080931305EDB7FEB73A9622
:1015A0000FB6F894FEBF0FBEEDBF81EB94E00E9432
:1015B0002E2481EB94E067E171E00E94832381EBAC
:1015C00094E064E175E00E94832381EB94E06DE098
:1015D0000E94B52480E00E940B04882391F484E0EB
:1015E00060E00E942E2164E670E080E090E00E94BE
:1015F000462084E061E00E942E2181E00E940B04DD
:10160000D8CF00D000D00EE515E0ADB7BEB712962A
:101610001C930E93119785EB91E014969C938E93F7
:1016200013970E949F330F900F900F900F9081EBB4
:1016300094E0B8010E94832300D000D0EDB7FEB73C
:101640001283018389EC91E0948383830E949F330A
:101650000F900F900F900F9081EB94E0B8010E94D3
:10166000832300D000D0ADB7BEB712961C930E9363
:1016700011978FEC91E014969C938E9313970E9490
:101680009F330F900F900F900F9081EB94E0B80173
:101690000E94832384E6EBEAF5E0DF011D928A9540
:1016A000E9F78DED97E098878F8319821A821B8264
:1016B0001C821D821E82198A1A8A1B8A1C8A1D8618
:1016C0001E861F86188A8CE0EFE0F6E0DF01282FE7
:1016D0001D922A95E9F7EBE1F6E0DF011D928A956C
:1016E000E9F780E2EEE5F5E0DF011D928A95E9F782
:1016F0008CE394E0BE01695F7F4FAE014F5F5F4FA7
:101700009E012E5F3F4F8E010D5F1F4FA4E0EA2E1A
:10171000F12CEC0EFD1EB5E0CB2ED12CCC0EDD1E37
:10172000A6E0AA2EB12CAC0EBD1EB9E08B2E912CDA
:101730008C0E9D1E0E94271E89859A85AB85BC85CF
:101740008F3FEFEF9E07EFEFAE07EFEFBE0751F4CD
:101750008CED97E098878F8319821A821B821C82F6
:101760001D821E828CE394E0BE016F5E7F4FAE014E
:10177000435F5F4F9E01275F3F4F0E94951D809101
:10178000A404882311F486E501C081E48093C70195
:101790008CE394E00E94D61E6BA37CA38DA39EA332
:1017A0008CE394E00E941C1F6D8F7E8F8F8F98A317
:1017B00020917C0430917D043AA329A3C090740445
:1017C000D0907504E0907604F090770489899A8926
:1017D000AB89BC89B7FF0EC0B095A0959095819557
:1017E0009F4FAF4FBF4F898B9A8BAB8BBC8B53E511
:1017F000B52E02C04EE4B42E8D859E85AF85B88986
:10180000B7FF0EC0B095A095909581959F4FAF4FB3
:10181000BF4F8D879E87AF87B88B37E5432E02C0B9
:1018200025E4422E49895A896B897C894F3F39ECDE
:1018300053073AE963073BE3730719F440E050E0CC
:10184000BA0181E02FE036E00E94D3064D855E8527
:101850006F8578894F3F89EC58078AE968078BE3E1
:10186000780719F440E050E0BA0180E02BE136E05F
:101870000E94D3065BA14CA13DA12EA1852F942FE0
:10188000A32FB22FBC01CD012091CB033091CC030B
:101890004091CD035091CE030E94DB2F882321F489
:1018A00070E060E090E004C07BA16CA19DA18EA1DE
:1018B000AB019C01852F962FA32FB22FBC01CD0128
:1018C00040E022E00EE515E00E940F33EBEAF5E080
:1018D00084E6DF011D928A95E9F720909405309007
:1018E00095052F81388538A72FA339812A814B810F
:1018F0005C816D818091DB049091DC04A091DD041A
:10190000B091DE0489A79AA7ABA7BCA77091C801C4
:10191000A090C7014F01A9A1BAA1AF3FB10519F429
:1019200000E010E002C009A11AA1BFEFCB16BFEF83
:10193000DB06BFEFEB06BFEFFB0619F4CC24DD247A
:101940007601EDB7FEB7F4970FB6F894FEBF0FBE61
:10195000EDBF3196ADB7BEB712969C928E9211979D
:1019600083EE682E81E0782E738262829FE1692E79
:1019700091E0792E75826482378226828FA198A5A4
:101980009187808732871386248715864687178636
:10199000508B118A628B138A2D893E894F89588D0D
:1019A000248B358B468B578B898D9A8DAB8DBC8D57
:1019B000808F918FA28FB38F29A53AA54BA55CA5E7
:1019C000248F358F468F578F70A311A28FE096E03A
:1019D00093A382A3B4A215A28BE196E097A386A35A
:1019E00040A611A68EE595E093A782A7A4A615A60A
:1019F00017A706A7C0AAD1AAE2AAF3AA0E949F33FA
:101A0000F40101900020E9F73197EB5AF5408E2F51
:101A100090E0DC01A555BA4F1C924091AC05EDEA6F
:101A2000F5E02DB73EB72C5C3F4F0FB6F8943EBFA4
:101A30000FBE2DBF21E030E004C0519145272F5F3C
:101A40003F4F28173907CCF3403170F400D000D055
:101A500000D02DB73EB72F5F3F4FEDB7FEB7B28333
:101A6000A18383E392E00DC000D000D000D02DB759
:101A70003EB72F5F3F4FEDB7FEB7B283A18388E338
:101A800092E0D90113969C938E93129714964C93DF
:101A9000149715961C920E949F33EDB7FEB73696A9
:101AA0000FB6F894FEBF0FBEEDBF8091A40488234B
:101AB00009F4ACC069897A898B899C890E944D0799
:101AC0002B013C016D857E858F8598890E944D078D
:101AD000698F7A8F8B8F9C8F6D8D7E8D8F8D98A166
:101AE00020E030E040EA50E40E948B31181624F0E8
:101AF00039E1832E912C03C025E0822E912C6D8D2F
:101B00007E8D8F8D98A120E030E040E251E40E946C
:101B10008B3118161CF49AE0892E912C6D8D7E8DD8
:101B20008F8D98A120E030E040E751E40E948B3196
:101B300018161CF484E1882E912C8091C901882309
:101B4000B9F04092250550922605609227057092C3
:101B50002805298D3A8D4B8D5C8D20932905309376
:101B60002A0540932B0550932C051092C9014EC0B5
:101B7000E0902505F0902605009127051091280595
:101B8000A0902905B0902A05C0902B05D0902C0577
:101B9000C301B201298D3A8D4B8D5C8D0E94791C59
:101BA0000E944A30AB01BC01C401AA2797FDA09551
:101BB000BA2F84179507A607B70740F5809121052E
:101BC00090912205A0912305B0912405840F951FC3
:101BD000A61FB71F8093210590932205A09323058C
:101BE000B093240540922505509226056092270562
:101BF00070922805898D9A8DAB8DBC8D80932905B7
:101C000090932A05A0932B05B0932C058DE295E0C7
:101C10000E94022A80918205882309F010C2C09098
:101C2000D304D090D404E090D504F090D604C7013A
:101C3000B60120E13EE040E050E00E949C322901E4
:101C40003A015092D2044092D10484EC9FEF289F35
:101C50005001299FB00C389FB00C1124C701B60168
:101C60002CE330E040E050E00E949C32A20EB31E14
:101C7000B092D004A092CF04ADB7BEB718970FB6FC
:101C8000F894BEBF0FBEADBFEDB7FEB731960EE5FF
:101C900015E012961C930E9311978CE392E09383B8
:101CA000828355824482B782A6820E949F33EDB719
:101CB000FEB738960FB6F894FEBF0FBEEDBF8DE2AB
:101CC00095E06CE570E048E150E00E9457298DE214
:101CD00095E061E00E945D298DE295E061E070E0B1
:101CE0000E9463298DE295E0B8010E94A2238091B1
:101CF000C801813459F48091A404882339F080917B
:101D0000B004882319F082E161E002C082E160E062
:101D10000E942E216D897E898F89988D41E020E077
:101D200030E00E949B078DE295E061E070E00E9448
:101D300063298DE295E061E00E945D298091A40411
:101D40008823E9F48DE295E06CE570E048E050E02E
:101D50000E9457298DE295E060E070E041E050E09C
:101D60000E94692900D000D00EE515E0ADB7BEB7DE
:101D700012961C930E93119787E492E03EC08DE279
:101D800095E061E070E00E9463298DE295E06EE6E7
:101D900070E048E050E00E94572900D000D000D009
:101DA000EDB7FEB731960EE515E0ADB7BEB71296AA
:101DB0001C930E93119785E291E09383828329A16E
:101DC0003AA1358324830E947D334DB75EB74A5FC5
:101DD0005F4F0FB6F8945EBF0FBE4DBF8DE295E02A
:101DE000B8010E94832300D000D0ADB7BEB71296D1
:101DF0001C930E9311978EE492E014969C938E930D
:101E000013970E949F330F900F900F900F908DE2C9
:101E100095E0B8010E94A2238DE295E061E070E0B8
:101E20000E9463298DE295E060E070E040E150E0BF
:101E30000E94572980918305882349F56D897E8901
:101E40008F89988D0E947B3020919705309198055D
:101E50004091990550919A050E94E22F0EE5C02EFF
:101E600005E0D02E40E023E086010E940F338DE292
:101E700095E0B6010E94832300D000D0EDB7FEB7F5
:101E8000D282C18280E592E0948383832EC0813028
:101E9000B9F56D897E898F89988D0E947B3020915C
:101EA0009B0530919C0540919D0550919E050E9497
:101EB00096311EE5C12E15E0D12E40E023E08601CB
:101EC0000E940F338DE295E0B6010E94832300D07B
:101ED00000D0ADB7BEB71296DC92CE92119787E5CF
:101EE00092E014969C938E9313970E949F330F90C9
:101EF0000F900F900F908DE295E0B6010E94A22303
:101F00008091270690912806BEE5CB2EB5E0DB2E0A
:101F1000009709F446C060912105709122058091D7
:101F20002305909124050E947B3020E030E04AE7B1
:101F300054E40E94E22F40E021E086010E940F332A
:101F4000F60101900020E9F73197EC19FD09CF0166
:101F5000880F991F8E0F9F1F880F991F64E770E0ED
:101F6000681B790B8DE295E040E150E00E94572913
:101F70008DE295E0B6010E94832300D000D0EDB73A
:101F8000FEB7D282C1828EE592E0948383830E9461
:101F90009F330F900F900F900F908DE295E0B60158
:101FA0004BC08091A404882381F05BA14CA13DA18A
:101FB0002EA1852F942FA32FB22FBC01CD0140E07D
:101FC00020E086010E940F3314C000D000D0ADB7CE
:101FD000BEB71296DC92CE92119781E692E01496EB
:101FE0009C938E9313970E949F330F900F900F90A6
:101FF0000F900EE515E0F80101900020E9F7319708
:10200000E01BF10BCF01880F991F8E0F9F1F880FC8
:10201000991F6AE770E0681B790B8DE295E040E15B
:1020200050E00E9457298DE295E0B8010E94832379
:102030008DE295E069E271E00E94A22392C28130B4
:1020400009F063C282E160E00E942E2180919F0529
:102050009091A005A0E0B0E02D893E894F89588D70
:1020600082179307A407B50718F482E161E002C064
:1020700082E160E00E942E216D897E898F89988D92
:1020800040E020E030E00E949B07B9E2CB2EB6E0B2
:10209000DB2E80E2D6011D928A95E9F78DE295E06C
:1020A00060E070E040E150E00E9457298DE295E049
:1020B00061E00E945D298DE295E061E070E00E94A0
:1020C00063298091270690912806009709F43BC167
:1020D0000E94E70320E030E040EF51E40E94142F1B
:1020E0000E944A30DC01CB01181619060CF03AC1E7
:1020F0002D893E894F89588D293E83E0380780E03D
:10210000480780E0580708F43FC0CA01B9010E949F
:102110007B3020E030E04AE754E40E94E22F40E0C8
:1021200021E00EE515E00E940F33C601B80145E03D
:1021300050E00E946633F60101900020E9F73297E3
:1021400080818E3209F410828DE295E069E276E0BA
:102150000E94832300D000D00EE515E0ADB7BEB7D6
:1021600012961C930E93119784E692E014969C931A
:102170008E9313970E949F330F900F900F900F90A4
:102180008DE295E0B80127C06D897E898F89988D91
:102190000E947B30AEE5CA2EA5E0DA2E40E020E0BA
:1021A00086010E940F338DE295E0B6010E948323E1
:1021B00000D000D0EDB7FEB7D282C1828AE692E0AD
:1021C000948383830E949F330F900F900F900F9002
:1021D0008DE295E0B6010E9483236D897E898F8907
:1021E000988D0E947B3020919B0530919C054091F9
:1021F0009D0550919E050E949631C62E072F182FDF
:10220000F92E862F902FA12FBF2DBC01CD0120E0EC
:1022100034E244E759E40E948B3118166CF58C2D9A
:10222000902FA12FBF2DBC01CD0120E034E244E767
:1022300059E40E94E22FFEE5CF2EF5E0DF2E40E0CC
:1022400021E086010E940F3389E296E0B60145E065
:1022500050E00E9466338DE295E069E276E00E94EC
:10226000832300D000D0ADB7BEB71296DC92CE92D9
:1022700011978FE692E03BC18C2D902FA12FBF2D9F
:10228000BC01CD0120E030E44CE156E40E948B31EA
:1022900018166CF58C2D902FA12FBF2DBC01CD01F0
:1022A00020E030E04AE754E40E94E22FEEE5CE2E33
:1022B000E5E0DE2E40E020E086010E940F3389E257
:1022C00096E0B60145E050E00E9466338DE295E06D
:1022D00069E276E00E94832300D000D0EDB7FEB71C
:1022E000D282C18286E792E09483838304C18EE523
:1022F000A82E85E0B82E8C2D902FA12FBF2DBC01CC
:10230000CD0140E020E085010E940F338DE295E091
:10231000B5010E94832300D000D0ADB7BEB712969E
:10232000BC92AE9211978DE792E014969C938E9397
:1023300013970E949F330F900F900F900F908DE294
:1023400095E0B5010CC10E94E70320E030E040EFCA
:1023500051E40E94142F0E944A30DC01CB01181670
:1023600019066CF08DE295E060E070E041E050E02D
:102370000E9469298DE295E06BE271E0F0C000D027
:1023800000D0BEE5CB2EB5E0DB2EEDB7FEB7D28296
:10239000C18283E892E0948383830E949F330F90ED
:1023A0000F900F900F908DE295E0B6010E9483236D
:1023B0006091D7047091D8048091D9049091DA0487
:1023C0000E947B30209197053091980540919905A6
:1023D00050919A050E94E22F40E021E086010E9480
:1023E0000F338DE295E0B6010E94832300D000D028
:1023F000ADB7BEB71296DC92CE92119787E892E005
:1024000014969C938E9313970E949F330F900F9076
:102410000F900F908DE295E0B6010E94832300D0CB
:1024200000D0EDB7FEB7D282C1828DE892E09483EE
:1024300083830E949F330F900F900F900F908DE237
:1024400095E0B6010E94832360915A0570915B0567
:1024500080915C0590915D050E947B304B015C0191
:1024600060915605709157058091580590915905D6
:102470000E947B302B013C01C501B40120E030E01B
:1024800040E752E40E94E22F9B01AC01C301B2017C
:102490000E94E22F2091970530919805409199056F
:1024A00050919A050E94E22F2B013C01C501B40115
:1024B00020E030E041E655E40E94E22F9B01AC01B0
:1024C000C301B2010E94963140E020E00E940F3328
:1024D0008DE295E0B6010E94832300D000D0ADB715
:1024E000BEB71296DC92CE92119781E992E01496D3
:1024F0009C938E9313970E949F330F900F900F9091
:102500000F908DE295E0B6012AC08DE295E060E083
:1025100070E040E050E00E9457298DE295E062E0D3
:102520000E945D298DE295E060E070E041E050E0BE
:102530000E94692900D000D00EE515E0EDB7FEB786
:102540001283018384E992E0948383830E949F3302
:102550000F900F900F900F908DE295E0B8010E94C0
:1025600083238091B004882309F447C02DB73EB778
:102570002E5030400FB6F8943EBF0FBE2DBFEDB7C2
:10258000FEB731960EE515E0ADB7BEB712961C93B7
:102590000E93119781EA92E0938382838A818483E8
:1025A00015828981868317828B81808711868C8131
:1025B000828713868D81848715860E949F33EDB7AD
:1025C000FEB73E960FB6F894FEBF0FBEEDBF8DE28C
:1025D00095E060E070E048E150E00E9457298DE20C
:1025E00095E061E00E945D298DE295E061E070E098
:1025F0000E9463298DE295E051C08DE295E060E094
:1026000070E048E150E00E9457298DE295E061E0DA
:102610000E945D298DE295E060E070E041E050E0CD
:102620000E94692900D000D00EE515E0ADB7BEB715
:1026300012961C930E9311978AEB92E014969C933A
:102640008E9313970E949F330F900F900F900F90CF
:102650008DE295E0B8010E94832382E160E00E9450
:102660002E210BEA15E084E6F80111928A95E9F72C
:1026700000D000D0ADB7BEB712961C930E93119741
:1026800080ED92E014969C938E9313970E949F3353
:102690000F900F900F900F9080E294E0B8010E948D
:1026A000A2230E94E70320E030E040EF51E40E94C3
:1026B000142F0E944A306B017C0177FD04C0693001
:1026C000710524F406C0CC24DD2403C0A8E0CA2E82
:1026D000D12C809182058130B1F48DE295E064E7E0
:1026E00070E048E150E02CE030E007E010E0F1E07D
:1026F000EF2EF12C0E9494278DE295E066E770E0C2
:102700004AE150E015C08DE295E064E770E040E0FA
:1027100050E02CE030E007E010E0E1E0EE2EF12C9C
:102720000E9494278DE295E066E770E042E050E079
:10273000960103E010E00E9405288DE295E00E94DA
:10274000842B809127069091280621E030E0822793
:102750009327909328068093270684E696E06BEAF9
:1027600075E00E94A223809113058823A9F080912F
:102770008205882389F481EB94E00E942E2481EB6A
:1027800094E06BEA75E00E94A22306C00E941E142A
:10279000009711F00C944C09AC96E2E10C94DA32FB
:1027A00081E090E00E94A403089580E090E00E9400
:1027B000A40308958091490690914A06A0914B0682
:1027C000B0914C060196A11DB11D809349069093CE
:1027D0004A06A0934B06B0934C0608958093550685
:1027E0009093560640934D0650934E0660934F06C5
:1027F000709350061092490610924A0610924B06AA
:1028000010924C066AED73E143E050E00E94461FCF
:1028100008950E940A20DC01CB0180935106909319
:102820005206A0935306B093540610924906109294
:102830004A0610924B0610924C060895CF92DF92F2
:10284000EF92FF920F931F930E940A20DC01CB01AD
:102850004091510650915206609153067091540672
:1028600000914D0610914E0620914F063091500672
:1028700084179507A607B70748F06C017D01C41AB5
:10288000D50AE60AF70AB701A60108C04095509597
:1028900060957095480F591F6A1F7B1F81E090E07B
:1028A000401751076207730710F480E090E01F9112
:1028B0000F91FF90EF90DF90CF90089560914906BF
:1028C00070914A0680914B0690914C060895EF92C4
:1028D000FF920F931F93FC017183608353834283A4
:1028E0003583248317830683F186E0861F910F9139
:1028F000FF90EF900895EF92FF920F931F93CF9365
:10290000DF93EB012DE2E22EF12C8C01061B170B5D
:10291000BE01600F711F499182E997E00E94E6268F
:102920000894E108F108E114F10491F78DE290E0D8
:10293000CDB7DEB7E6E00C94E632EF92FF920F934C
:102940001F93CF93DF937C018B01C0E0D0E0F801AF
:1029500041918F01BE016E0D7F1D82E997E00E94BB
:10296000E6262196C830D10591F788E090E0CDB7F2
:10297000DEB7E6E00C94E632A0E0B0E0E2ECF4E191
:102980000C94C3325C01EB01DC018D919C910E949F
:102990002E24EDB7FEB738970FB6F894FEBF0FBEE2
:1029A000EDBF3196D50116968D919C911797ADB7D5
:1029B000BEB712969C938E93119784E193E0938314
:1029C0008283D583C483D50118968D919C911997E4
:1029D000978386830E949F33EDB7FEB738960FB674
:1029E000F894FEBF0FBEEDBFD50116966D917C9198
:1029F00017978D919C910E948323F501808191818D
:102A0000DC01ED91FC910190F081E02D6DE00995E4
:102A1000F50180819181DC01ED91FC910480F581CB
:102A2000E02D09950097A1F3F50180819181DC01EA
:102A3000ED91FC910680F781E02D09958D3091058F
:102A400039F7F501408551858681978160E070E016
:102A50000E944F33C0E0D0E07724D5018D919C9146
:102A6000DC01ED91FC910480F581E02D0995009742
:102A700091F0F501C681D781C70DD11D808191816B
:102A8000DC01ED91FC910680F781E02D09958883AA
:102A90007394C0E0D0E061E070E080E090E00E94DC
:102AA0004620272D30E0F5018085918528173907CC
:102AB00029F02196F3E0C83EDF077CF288249924B0
:102AC000D2C1D50116966D917C911797DB01A80DA7
:102AD000B11D40E009C04F5F882D90E0F5012085D1
:102AE00031858217930739F0FB01E80DF11D8081D4
:102AF00083948A3081F7FD01E40FF11D10828C91DF
:102B0000882309F4B0C1833209F4ADC1433008F41D
:102B1000AAC180E0ED01C80FD11D9881903211F05B
:102B2000993051F48F5F8417A9F79DC1903211F04D
:102B3000993009F410828F5F841709F494C1FD0164
:102B4000E80FF11D90819D3389F7841709F48BC13B
:102B500010828F5F8D01080F111DF8019081903256
:102B600011F0993021F48F5F8417A1F77CC184178D
:102B700009F479C1CE0161E471E00E9456330097F7
:102B800079F5C8010E9431339C01B901882777FD8E
:102B90008095982F0E947D30EB01F82EE92ED5010B
:102BA0001296CD90DC901397F601618D728D838D16
:102BB000948DA7010C2F1D2F252F342FA9019801CB
:102BC0000E94DB2F882309F44EC197018C2F9D2F83
:102BD000A32FB22FF601818F928FA38FB48F35C0B0
:102BE000CE0166E471E00E945633009789F5C80172
:102BF0000E9431339C01B901882777FD8095982F79
:102C00000E947D30EB01F82EE92ED5011296CD9071
:102C1000DC901397F601658D768D878D90A1A701C5
:102C20000C2F1D2F252F342FA90198010E94DB2F77
:102C3000882309F418C197018C2F9D2FA32FB22F41
:102C4000F601858F968FA78FB0A3992493940BC11B
:102C5000CE016BE471E00E945633009739F4D50140
:102C60001296CD91DC91139726966BC0CE016EE43F
:102C700071E00E945633009781F4F501C281D3813F
:102C8000C8010E9431339C018E899F898217930766
:102C900009F4E9C03F8B2E8BD8CFCE0162E571E0FD
:102CA0000E945633009781F4D5011296CD91DC91A4
:102CB0001397C8010E9431332C8130E0281739075F
:102CC00009F4D1C08C83C1CFCE0165E571E00E94CB
:102CD0005633009771F4F501C281D381C8010E9477
:102CE00031332D8130E02817390709F4BCC08D83BA
:102CF000ACCFCE0168E571E00E945633009791F4A5
:102D0000D5011296CD91DC911397C8010E94313301
:102D10009C0189A19AA18217930709F4A4C03AA340
:102D200029A393CFCE016BE571E00E945633009743
:102D3000A1F4F8011382D5011296CD91DC9113977D
:102D4000A496CE01B8010E945633009709F48BC0B7
:102D5000CE01B8010E945F3378CFCE016EE571E0FD
:102D60000E945633009771F4F501C281D381C801E6
:102D70000E9431332BA130E02817390709F473C0C2
:102D80008BA363CFCE0161E671E00E9456330097BA
:102D900081F4D5011296CD91DC911397C8010E9460
:102DA000313328A530E02817390709F45CC088A71B
:102DB0004CCFCE0164E671E00E945633009771F467
:102DC000F501C281D381C8010E94313329A530E0C9
:102DD0002817390709F447C089A737CFCE0167E61E
:102DE00071E00E945633009789F4D5011296CD9177
:102DF000DC911397C8010E9431339C018AA59BA5E1
:102E00008217930781F13BA72AA71FCFCE016AE65D
:102E100071E00E945633009769F4F501C281D381B5
:102E2000C8010E9431332CA530E028173907D9F0AA
:102E30008CA70BCFCE016DE671E00E945633009750
:102E400091F4D5011496EC9114971596FC9188E0B5
:102E5000DF011D928A95E9F7F5016481758188EC9F
:102E600090E00E949D14871408F42BCE992049F01D
:102E7000D50112966D917C91139784EF91E00E9499
:102E80007B14CDB7DEB7EDE00C94DF32EF92FF920A
:102E90000F931F93CF93DF938C01DC011296EC917B
:102EA00012971396FC918DE2DF011D928A95E9F746
:102EB000F801E280F38064EF71E001C0BE01EB0134
:102EC000219682E997E00E94E226D7018D937D0149
:102ED000B2E0C132DB0791F7D8011296ED91FC9177
:102EE000139780819181A281B3818D3020EF920769
:102EF0002EEFA2072AE5B20709F464C08DE2DF01D4
:102F00001D928A95E9F7D8011296ED91FC911397DD
:102F10008DE090EFAEEFBAE580839183A283B38317
:102F2000178A168A89E083A300D000D0F801828135
:102F300093818496ADB7BEB712969C938E931197EA
:102F400080E193E014969C938E9313970E949F3395
:102F5000D8011296ED91FC9113978CE3808F129615
:102F6000ED91FC91139780E090E0A7EAB3E4818FA4
:102F7000928FA38FB48F80E090E0A4E1B2E4858FBC
:102F8000968FA78FB0A384E690E093A782A70F90B7
:102F90000F900F900F9084EF91E0BF010E947B147F
:102FA000D8011496EC9114971596FC9188E0DF01F6
:102FB0001D928A95E9F7F8016481758188EC90E0AB
:102FC0000E949D14CDB7DEB7E6E00C94E632FC011A
:102FD000262F4FEF5FEFBA014083518362837383E3
:102FE00010861186128613868FEF99ECAAE9BBE34F
:102FF000808B918BA28BB38B808F918FA28FB38F9D
:1030000080A391A3A2A3B3A380A791A7A2A7B3A7CC
:1030100080AB91ABA2ABB3AB40AF51AF62AF73AF7C
:10302000DF01A05CBF4F8FEF90E08D939C93DF0199
:10303000AC5BBF4F4D935D936D937C931397DF0112
:10304000A45BBF4F4D935D936D937C931397DF010A
:10305000AC5ABF4F1C92DF01AB5ABF4F1C92DF012D
:10306000AB59BF4F82E08C93DF01AA59BF4F1C922E
:10307000DF01A959BF4F1C92DF01A859BF4F1C9215
:10308000DF01A659BF4F1D921D921D921C921397EE
:10309000DF01A259BF4F1D921C92DF01A059BF4F03
:1030A0001D921C92DF01AA5ABF4F1C92E759FF4F95
:1030B00020830895262F2154862F90E0263010F487
:1030C000C79708956156663018F487559040089563
:1030D000C0970895EF92FF920F931F93CF937B01B8
:1030E00000E010E0980112C0C901B8012AE030E008
:1030F00040E050E00E946A328B019C010C0F111DD0
:10310000211D311D0053104020403040F701C19176
:103110007F018C2F80538A3038F3B801C901CF91D9
:103120001F910F91FF90EF900895A0E0B0E0EBE9C0
:10313000F8E10C94BE3226E5E22EF12CE80EF91EE1
:10314000B7010E946A18EB01182F092FF7012E2FE3
:103150009F2F8191382F30533A30C8F38E32A1F52A
:10316000622E792E80E1C82E87E2D82EE12CF12C38
:103170008824992454019AE0292E312C412C512C79
:1031800019C070E060537040882777FD8095982FB4
:10319000A70196010E946A32DC01CB01880E991EBC
:1031A000AA1EBB1EC701B601A20191010E949C325A
:1031B00069017A01F30161810894611C711C862FF9
:1031C00080538A30F0F203C0882499245401BE0150
:1031D000812F902F20EA36E841E050E00E946A32C9
:1031E0008B019C01080D191D2A1D3B1DB801C90149
:1031F000CDB7DEB7E2E10C94DA32A0E0B0E0E3E074
:10320000F9E10C94BE3256E5C52ED12CC80ED91E5C
:10321000B6010E946A18162F072FEC0124E630E051
:1032200040E050E00E949C3220EA36E841E050E065
:103230000E946A324B015C01F6012E2F9F2F819173
:10324000382F30533A30C8F38E3281F5622E792E02
:1032500030E1C32E37E2D32EE12CF12C4AE0242EAC
:10326000312C412C512C19C070E0605370408827DC
:1032700077FD8095982FA70196010E946A32DC01A4
:10328000CB01880E991EAA1EBB1EC701B601A20162
:1032900091010E949C3269017A01F30161810894D5
:1032A000611C711C862F80538A30F0F2C501B40175
:1032B0006B5F7F4F8F4F9F4F26E030E040E050E044
:1032C0000E949C3269017A01612F702FCE0124E6A1
:1032D00030E040E050E00E949C32CA01B90120E495
:1032E00032E44FE050E00E946A32DC01CB01C80EAC
:1032F000D91EEA1EFB1EB601C701CDB7DEB7E2E15B
:103300000C94DA32FF920F931F93CF93DF93EC016B
:10331000CA5ADF4FFF24F39428812D3211F0FF2485
:1033200003C0EC01C95ADF4FBE010E946A1824E6AF
:1033300030E040E050E00E946A328B019C01FE01C7
:103340008991982F90539A30D0F38E3251F5418164
:10335000842F80538A3028F5842F90E0AC01440FED
:10336000551F73E0880F991F7A95E1F7480F591F91
:10337000405E5140662757FD6095762F040F151F5C
:10338000261F371F8281982F90539A3050F490E077
:10339000C097AA2797FDA095BA2F080F191F2A1FBB
:1033A0003B1FFF2039F030952095109501951F4F58
:1033B0002F4F3F4FB801C901CDB7DEB7E5E00C9400
:1033C000E732DB01FA018D91882319F09191891779
:1033D000D1F390E00895EF92FF920F931F93CF9354
:1033E000DF938C01FC01EB5AFF4F8081F8018823A9
:1033F00009F4EBC0EA5AFF4FC80160810E945A18D5
:10340000C82FF801E95AFF4FC80160810E945A187D
:10341000C295C07FC80FF801EC5AFF4F8081F801B8
:10342000C81709F0CAC0E859FF4F8081F801882306
:1034300009F494C0E259FF4F8081918101969183F4
:103440008083F801EC5BFF4FD801A85BBF4F8D91E3
:103450009D910D90BC91A02D80839183A283B38315
:10346000F801E45BFF4FD801A05BBF4F8D919D91A8
:103470000D90BC91A02D80839183A283B383F8012A
:10348000EB59FF4F80818823A9F1813009F0A3C156
:10349000F80184819581A681B78180839183A2837D
:1034A000B38384859585A685B78580879187A28714
:1034B000B38784899589A689B789808B918BA28BE4
:1034C000B38B848D958DA68DB78D808F918FA28FB4
:1034D000B38F84A595A5A6A5B7A580A791A7A2A7F8
:1034E000B3A784A995A9A6A9B7A980AB91ABA2ABB4
:1034F000B3AB71C1F80184A195A1A6A1B7A180A326
:1035000091A3A2A3B3A384819581A681B78180836F
:103510009183A283B38384899589A689B789808B97
:10352000918BA28BB38B848D958DA68DB78D808F5B
:10353000918FA28FB38FE05CFF4FD801AE5BBF4F7E
:103540008D919C9191838083F80184AD95ADA6AD5A
:10355000B7AD80AF91AFA2AFB3AF3DC184819581CC
:10356000A681B7810097A105B10509F436C1E8012C
:10357000CC5BDF4FE85BFF4F4081518162817381FB
:10358000488359836A837B83F801EB59FF4F20817D
:10359000222389F0213009F020C1F8018083918332
:1035A000A283B38384859585A685B7858087918717
:1035B000A287B38712C1F80182C0E059FF4F808112
:1035C000918101969183808308C1EA59FF4F8081E0
:1035D000882301F5E801CA5ADF4FC801BE0142E75E
:1035E00051E00E94E119B5E6EB2EF12CE00EF11E40
:1035F000009711F481E00CC0C801BE0148E751E01A
:103600000E94E119009719F4F7011082E6C082E0E8
:10361000F701BEC0F801EB59FF4FE081E23009F439
:10362000DCC0D801AA5ABF4F2C91222309F4D5C07F
:10363000F0E0A5E0EE0FFF1FAA95E1F790E0E82B80
:10364000F92B3197E932F10508F0C7C0EC5CFF4F68
:103650000C94F532C8010E948219DC01CB01F801FB
:1036600084839583A683B7830E940A20DC01CB0163
:10367000F801E85BFF4F23C0F801E859FF4F81E0F4
:10368000213409F084C084C0F801E759FF4F8081DC
:10369000882321F0C8010E94951803C0C8010E9428
:1036A000FD18DC01CB01F801848B958BA68BB78BC1
:1036B0000E940A20DC01CB01F801E05BFF4F808310
:1036C0009183A283B38389C0233509F086C0F801B2
:1036D00084899589A689B789B095A095909581959B
:1036E0009F4FAF4FBF4F848B958BA68BB78B75C009
:1036F000F801E759FF4F8081882321F0C8010E941B
:10370000951803C0C8010E94FD18DC01CB01F80127
:103710000FC0273509F061C0F801848D958DA68D05
:10372000B78DB095A095909581959F4FAF4FBF4FA6
:10373000848F958FA68FB78F50C0C8010E948219C1
:10374000DC01CB01F80184A795A7A6A7B7A745C0C0
:10375000C8010E948219DC01CB01F80184AB95AB52
:10376000A6ABB7AB3AC0B8016A5A7F4FC8010E94F6
:103770006A18DC01CB01F80184879587A687B78793
:103780002CC0F801E859FF4F81E0213308F480E0B4
:10379000808323C0C8018A5A9F4F0E943133F801A9
:1037A000EE5BFF4F8083118218C0C8010E9482190E
:1037B000DC01CB01F80184AF95AFA6AFB7AF0DC068
:1037C000C8010E948219DC01CB01F80184A395A3F2
:1037D000A6A3B7A302C081E001C080E0CDB7DEB7E9
:1037E000E6E00C94E632A1E0B0E0E9EFFBE10C94F6
:1037F000CC328C01FC01E659FF4F80819181A2817E
:10380000B3810196A11DB11D80839183A283B383EF
:10381000F801E959FF4F6432C9F1653230F46A307A
:1038200079F06D3009F049C00BC06A3249F06C3252
:1038300009F043C0F801EC5AFF4F8081862780834E
:10384000F801E959FF4F80818F3060F4F801E80FEB
:10385000F11DEA5AFF4F1082C80169830E94EB19DB
:10386000698101C080E0F801EA59FF4F90819F5FB4
:103870009083F801E959FF4F1082F801EB5AFF4F8E
:1038800091E06A3209F090E090832FC01082F80135
:10389000EA59FF4F1082F801EC5AFF4F1082F801ED
:1038A000EB59FF4F82E08083F801EB5AFF4F108203
:1038B000F801E859FF4F108217C080818E3040F424
:1038C000D801A80FB11DAA5ABF4F6C938F5F808398
:1038D000F801EB5AFF4F8081882331F4F801EC5A4C
:1038E000FF4F80818627808380E02196E4E00C945E
:1038F000E832A4E1B0E0EFE7FCE10C94C032698368
:103900007A838B839C83CA01B90127013801A60100
:1039100095010E94142F25E33AEF4EE85CE30E94E4
:103920009631862EC72E8C01982F482D5C2D692F3D
:10393000712FCB01BA010E94F931698B7A8B8B8B85
:103940009C8B882D9C2DA02FB12FBC01CD010E94F6
:10395000DF2F6D837E838F83988769817A818B8146
:103960009C8125E33AEF4EE85CE30E949631E62E17
:10397000872EC82E092FC301B20125E33AEF4EE886
:103980005CE30E949631F62E172F482EB92E8E2D0D
:10399000982DAC2DB02FBC01CD010E94F931698367
:1039A0007A838B839C838E2D982DAC2DB02FBC01F8
:1039B000CD010E94DF2F69877A878B879C878F2DA7
:1039C000912FA42DBB2DBC01CD010E94F9316D8733
:1039D0007E878F87988B8F2D912FA42DBB2DBC01B7
:1039E000CD010E94DF2F6B017C0169857A858B8573
:1039F0009C852D853E854F8558890E9496314B01C7
:103A00005C0169817A818B819C81A70196010E946A
:103A100096312D813E814F8158850E9496319B01C0
:103A2000AC01C501B4010E94142FB62FA72F382F67
:103A3000292FFD01C9014F2F5E2F692F782FCB0150
:103A4000BA01A9010F2F1E2F252F342FA90198018C
:103A50000E949631862EB72E482EA92EC701B60198
:103A600029893A894B895C890E949631B62FA72F04
:103A7000382F292FFD01C9014F2F5E2F692F782F75
:103A8000CB01BA01A9010F2F1E2F252F342FA90119
:103A900098010E9496319B01AC01882D9B2DA42D8D
:103AA000BA2DBC01CD010E94152F462F572F682F2C
:103AB000792FCB01BA010E9403322B013C016981AD
:103AC0007A818B819C812D853E854F8558890E9406
:103AD00096314B015C0169857A858B859C85A701B0
:103AE00096010E9496312D813E814F8158850E941A
:103AF00096319B01AC01C501B4010E94152F9B01B9
:103B0000AC01C301B2010E94882F26E73BE742ECDB
:103B10005AE40E949631462F572F682F792FCB01F8
:103B2000BA016496E0E10C94DC320F931F93CF93BB
:103B3000DF93EC0189016115710549F08889998944
:103B4000AA89BB89FB0180839183A283B38341153A
:103B5000510549F0888D998DAA8DBB8DFA0180831E
:103B60009183A283B3830115110519F1C45BDF4F63
:103B700088819981AA81BB818F3FFFEF9F07FFEF6B
:103B8000AF07FFEFBF0769F00E940A20DC01CB01FD
:103B9000488159816A817B81841B950BA60BB70BE9
:103BA00003C08FEF9FEFDC01F80180839183A28334
:103BB000B383DF91CF911F910F9108950F931F93BE
:103BC000CF93DF93EC0189016115710549F0888578
:103BD0009985AA85BB85FB0180839183A283B383EA
:103BE0004115510549F088819981AA81BB81FA016B
:103BF00080839183A283B3830115110519F1CC5BF6
:103C0000DF4F88819981AA81BB818F3FFFEF9F079A
:103C1000FFEFAF07FFEFBF0769F00E940A20DC014A
:103C2000CB01488159816A817B81841B950BA60B4E
:103C3000B70B03C08FEF9FEFDC01F8018083918306
:103C4000A283B383DF91CF911F910F910895ACE0D0
:103C5000B0E0EDE2FEE10C94BE323B012A01190115
:103C6000FA86E986DC86CB869401BE016B5F7F4FC6
:103C7000AE014F5F5F4F0E94DE1D61147104D1F0F1
:103C80006D817E818F81988524E630E040E050E0B0
:103C90000E949C32DC01CB019C01813591051CF016
:103CA0008CE697E002C080ED97E0820F931FF3014E
:103CB0009183808341145104A9F06D817E818F81AD
:103CC0009885F4E6CF2ED12CE12CF12CA70196019A
:103CD0000E949C32CA01B901A70196010E949C3240
:103CE000F20160832114310461F06D817E818F8146
:103CF000988520E137E240E050E00E949C32F101DB
:103D000020830115110561F069817A818B819C8185
:103D100020E432E44FE050E00E949C32F80120831E
:103D200089859A850097A9F069817A818B819C8128
:103D300020E137E240E050E00E949C32CA01B90124
:103D400024E630E040E050E00E949C32E985FA85AC
:103D500060838B859C850097B1F069817A818B8126
:103D60009C81E4E6CE2ED12CE12CF12CA70196010A
:103D70000E949C32CA01B901A70196010E949C329F
:103D8000EB85FC856083A114B10461F069817A81BF
:103D90008B819C8124E630E040E050E00E949C3220
:103DA000F50160832C96E2E10C94DA32FC0160A10B
:103DB00071A182A193A16F3FF9EC7F07FAE98F0708
:103DC000FBE39F0749F00E947D3020E030E048ECA3
:103DD00052E40E94E22F04C060E074E284E799E4B8
:103DE000382F292F862F972FA32FB22FBC01CD015B
:103DF0000895FC0160A571A582A593A56F3FF9EC1C
:103E00007F07FAE98F07FBE39F0749F00E947B30A9
:103E100020E030E048EC52E40E94E22F04C060E071
:103E200070E080E89FEB382F292F862F972FA32F44
:103E3000B22FBC01CD010895CF92DF92EF92FF9295
:103E40000E94F91E6B017C0120E030E040E85FEB4E
:103E50000E94DB2F882349F0C701B60126E53EE02A
:103E60004DEE5FE30E94963104C060E070E080E8B0
:103E70009FEB382F292F862F972FA32FB22FBC010E
:103E8000CD01FF90EF90DF90CF9008958230E8F45D
:103E9000E82FF0E0EE0FFF1FE95AF94F71836083BE
:103EA000813041F0809169008C7F842B8093690080
:103EB000E89A089580916900440F551F440F551FDB
:103EC000837F842B80936900E99A08951F920F9253
:103ED0000FB60F9211242F933F934F935F936F93DD
:103EE0007F938F939F93AF93BF93EF93FF938091B3
:103EF000570690915806009729F0E0915706F091E7
:103F000058060995FF91EF91BF91AF919F918F91C5
:103F10007F916F915F914F913F912F910F900FBEC5
:103F20000F901F9018951F920F920FB60F921124A9
:103F30002F933F934F935F936F937F938F939F93B1
:103F4000AF93BF93EF93FF938091590690915A06D8
:103F5000009729F0E0915906F0915A060995FF91D2
:103F6000EF91BF91AF919F918F917F916F915F91F1
:103F70004F913F912F910F900FBE0F901F9018956A
:103F80001F920F920FB60F9211242F933F938F938E
:103F90009F93AF93BF9380915B0690915C06A09135
:103FA0005D06B0915E0630916306232F2A5F2D37A0
:103FB00020F40296A11DB11D05C0232F275703969B
:103FC000A11DB11D2093630680935B0690935C0650
:103FD000A0935D06B0935E0680915F0690916006A7
:103FE000A0916106B09162060196A11DB11D80935A
:103FF0005F0690936006A0936106B0936206BF913E
:10400000AF919F918F913F912F910F900FBE0F9085
:104010001F9018950F931F938FB7F89400915B062C
:1040200010915C0620915D0630915E068FBFB8014D
:10403000C9011F910F9108950F931F939FB7F89493
:1040400000915F0610916006209161063091620632
:1040500086B5A89B06C08F3F21F00F5F1F4F2F4FE3
:104060003F4F9FBF322F212F102F0027080F111D08
:10407000211D311D43E0000F111F221F331F4A95E0
:10408000D1F7B801C9011F910F910895CF92DF9226
:10409000EF92FF92CF93DF936B017C010E941C2073
:1040A000DC01CB01EC010FC00E941C206C1B7D0BBE
:1040B00083E0683E780738F00894C108D108E10829
:1040C000F108C851DC4FC114D104E104F10461F7D7
:1040D000DF91CF91FF90EF90DF90CF90089578948B
:1040E00084B5826084BD84B5816084BD85B58260FD
:1040F00085BD85B5816085BDEEE6F0E0808181609B
:104100008083E1E8F0E0108280818260808380819A
:1041100081608083E0E8F0E0808181608083E1EB72
:10412000F0E0808184608083E0EBF0E0808181605A
:104130008083EAE7F0E08081846080838081826010
:1041400080838081816080838081806880831092F9
:10415000C10008958093CA0108958E3008F08E50F2
:1041600087709091CA019295990F990F907C982B26
:1041700090937C0080917A00806480937A00809193
:104180007A0086FDFCCF8091780090917900392FDC
:1041900020E090E0822B932B0895833071F08430DF
:1041A00028F48130A1F0823021F514C08630B1F0BE
:1041B0008730D1F08430E9F404C0809180008F779B
:1041C00003C0809180008F7D80938000089584B526
:1041D0008F7702C084B58F7D84BD08958091B00033
:1041E0008F778093B00008958091B0008F7D809389
:1041F000B000089590E0FC01EB5CFC4F2491875BDC
:104200009C4FFC018491882341F190E0880F991F15
:10421000FC01EF58FC4F45915491DA0189599C4FAC
:10422000FC0185919491FC019FB7F8948C916623D1
:1042300031F4209582238C938081822308C06230E0
:1042400049F4322F309583238C938081822B808395
:104250009FBF0895822B8C939FBF0895A1E0B0E08B
:10426000E4E3F1E20C94CC32282F30E0F901EF5D69
:10427000FC4F8491F901EB5CFC4F1491F901E75B71
:10428000FC4F04910023D1F0882321F069830E9420
:10429000CD206981E02FF0E0EE0FFF1FE959FC4FC0
:1042A00085919491DC019FB7F8948C91662319F461
:1042B0001095812301C0812B8C939FBF2196E4E050
:1042C0000C94E832FC0124853585F901E05CFF4F50
:1042D000808191812E5B3F4FF90120813181821BCA
:1042E000930B8F7390700895FC0144855585FA01F6
:1042F000E05CFF4F80819181FA01EE5BFF4F2081EE
:1043000031818217930741F00190F081E02DE40F95
:10431000F51F808190E008958FEF9FEF0895FC01D5
:1043200044855585FA01E05CFF4F20813181FA0117
:10433000EE5BFF4F808191812817390779F0A081CA
:10434000B181A40FB51F8C91208131812F5F3F4F28
:104350002F7330703183208390E008958FEF9FEFAB
:104360000895FC0181A1882329F0A489B5898C9145
:1043700086FFFBCF11A20895CF93DF93DC011E9639
:104380004D915C911F97EA01C05CDF4F2881398114
:104390002F5F3F4F2F733070FA01EE5BFF4F80812C
:1043A000918128173907D9F3E881F981E40FF51FC6
:1043B00060831E96ED91FC911F97E05CFF4F318367
:1043C00020835696ED91FC915797208181E090E0F3
:1043D0005F960C905F9702C0880F991F0A94E2F7CE
:1043E000282B208381E091968C9391975496ED91A0
:1043F000FC91559780818064808381E090E0DF911B
:10440000CF91089508951F920F920FB60F92112425
:104410002F933F934F938F939F93EF93FF938091AD
:10442000C00082FD1CC04091C60080910A07909197
:104430000B0701968F73907020910C0730910D0738
:104440008217930771F0E0910A07F0910B07E6538A
:10445000F94F408390930B0780930A0702C0809125
:10446000C600FF91EF919F918F914F913F912F91B6
:104470000F900FBE0F901F90189584E696E00E9453
:104480006221009711F00E94022208951F920F925C
:104490000FB60F9211242F933F938F939F93EF9317
:1044A000FF932091C6063091C7068091C80690916F
:1044B000C9062817390731F48091C1008F7D809398
:1044C000C10014C0E091C806F091C906EA57F94F3F
:1044D00020818091C8069091C90601968F739070D3
:1044E0009093C9068093C8062093C600FF91EF9170
:1044F0009F918F913F912F910F900FBE0F901F9022
:104500001895A0E0B0E0E7E8F2E20C94C332EC01C9
:104510006A017B0177247394EC89FD8981E090E046
:1045200008A002C0880F991F0A94E2F7808360E810
:1045300074E88EE190E0A70196010E949C32890107
:104540009A0101501040204030403695279517952C
:10455000079520E4822E22E4922E2FE0A22EB12C89
:1045600014C07724EC89FD891082C501B401A7012C
:1045700096010E949C3289019A010150104020400E
:104580003040369527951795079580E1003018073C
:1045900010F0772031F7E889F9891083EA89FB89DF
:1045A000008319A2EE89FF89408121E030E0C90132
:1045B0000C8C02C0880F991F0A94E2F7482B4083A5
:1045C000EE89FF894081C9010D8C02C0880F991FB7
:1045D0000A94E2F7482B4083EE89FF894081C901A4
:1045E0000E8C02C0880F991F0A94E2F7482B408373
:1045F000EE89FF8980810F8C02C0220F331F0A943D
:10460000E2F7209528232083CDB7DEB7EDE00C94A8
:10461000DF32109267061092660688EE93E0A0E003
:10462000B0E08093680690936906A0936A06B09301
:104630006B06E6E6F6E083ED93E0929382938AECD4
:1046400096E09587848786E896E09787868785EC4D
:1046500090E0918B808B84EC90E0938B828B80EC4C
:1046600090E0958B848B81EC90E0978B868B82EC2D
:1046700090E0918F808F86EC90E0938F828F84E022
:10468000848F83E0858F87E0868F85E0878F81E048
:1046900080A30895A0E0B0E0E0E5F3E20C94C83216
:1046A0006C017B01EA0100E010E00EC0D7016D91C2
:1046B0007D01D601ED91FC910190F081E02DC601C4
:1046C0000995080F191F2197209781F7C801CDB7C9
:1046D000DEB7E8E00C94E4326115710589F0DB0186
:1046E0000D900020E9F7AD0141505040461B570B9B
:1046F000DC01ED91FC910280F381E02D0995089594
:1047000080E090E008950E946C230895DC01ED9113
:10471000FC910190F081E02D099508950F931F936E
:10472000CF93DF938C016DE00E948623EC01C801DA
:104730006AE00E9486238C0F9D1FDF91CF911F910D
:104740000F9108950F931F93CF93DF938C010E94D5
:104750006C23EC01C8010E948E238C0F9D1FDF91FA
:10476000CF911F910F9108950E946F200E943A04EB
:10477000CDE3D2E20E94E2082097E1F30E943D22BD
:10478000F9CF209190073091910728173907B9F494
:1047900090910E0780910F079817A1F0E0910E07F6
:1047A000F0E0E05FF84F808120910E0730E02F5F4E
:1047B0003F4F2F77307020930E0790E008958FEFD2
:1047C0009FEF08958FEF9FEF08952091900730910C
:1047D00091072817390771F490910E0780910F0700
:1047E000981759F0E0910E07F0E0E05FF84F8081F4
:1047F00090E008958FEF9FEF08958FEF9FEF08955A
:1048000020919007309191072817390739F48FB715
:10481000F89410920F0710920E078FBF0895209101
:104820009007309191072817390771F480910F078D
:1048300020910E0790E080589F4F821B910960E8FD
:1048400070E00E948932089580E090E0089520E0B1
:1048500001972FEF8F3F9207D9F70895FC018091C0
:104860009007909191078E179F0781F0838D8E7F1F
:10487000838F8FB7F89410920F0710920E07F09362
:104880009107E09390078FBF81E0089580E008953D
:10489000EF92FF920F931F93CF93DF93EC018B8DD9
:1048A000EE85FF859D8581FF04C08081892329F4E1
:1048B00048C08081892309F044C08B899C890E946B
:1048C000272428E0E22EF12C01E010E08D899E895A
:1048D0000E942724EE85FF8580819D85892311F024
:1048E000102B03C0802F80951823000F0894E10837
:1048F000F108E114F10451F78F89988D0E94272463
:104900008B8D81FD109580910F0720910E0790E00F
:1049100001968F77907030E08217930779F0E091DD
:104920000F07F0E0E05FF84F108380910F0790E0F1
:1049300001968F77907080930F0703C08B8D8160F5
:104940008B8FCDB7DEB7E6E00C94E632FC01A1898F
:10495000B2899089662329F42C91892F809582232E
:1049600002C08C91892B8C930895A0E0B0E0EBEB12
:10497000F4E20C94C932EC01F62E898D9A8D0097E1
:1049800039F481E090E09B838A8380E090E047C027
:10499000EFB6F8948B8D61E081FF60E0CE010E945C
:1049A000A624898D9A8D04960E9427248B8D08E079
:1049B00010E0DD24D39481FF15C08D2D8F2119F0D7
:1049C000CE0160E002C0CE0161E00E94A624898D84
:1049D0009A8D0E942724DD0C0150104071F7CE0102
:1049E00060E014C08D2D8F2119F0CE0161E002C06E
:1049F000CE0160E00E94A624898D9A8D0E94272412
:104A0000DD0C0150104071F7CE0161E00E94A62438
:104A1000EFBE898D9A8D0E94272481E090E0CDB76A
:104A2000DEB7E7E00C94E532809190079091910712
:104A3000009711F00E94482408951F920F920FB61C
:104A40000F9211242F933F934F935F936F937F9314
:104A50008F939F93AF93BF93EF93FF930E9414257F
:104A6000FF91EF91BF91AF919F918F917F916F9146
:104A70005F914F913F912F910F900FBE0F901F901C
:104A800018951F920F920FB60F9211242F933F93F8
:104A90004F935F936F937F938F939F93AF93BF9346
:104AA000EF93FF930E941425FF91EF91BF91AF9177
:104AB0009F918F917F916F915F914F913F912F9136
:104AC0000F900FBE0F901F9018951F920F920FB668
:104AD0000F9211242F933F934F935F936F937F9384
:104AE0008F939F93AF93BF93EF93FF930E941425EF
:104AF000FF91EF91BF91AF919F918F917F916F91B6
:104B00005F914F913F912F910F900FBE0F901F908B
:104B100018951F93CF93DF93EC01162F862F61E03A
:104B20000E94FA20812F61E00E942E21812F90E0C7
:104B3000FC01EB5CFC4FE491E88BFC01E75BFC4F74
:104B4000E491F0E0EE0FFF1FE959FC4F859194913D
:104B5000898B9A8BDF91CF911F9108951F93CF93EB
:104B6000DF93EC01162F862F60E00E94FA208B8DD8
:104B700081FD04C0812F61E00E942E211C87812FBE
:104B800090E0FC01EB5CFC4FE491ED87FC01E75BFE
:104B9000FC4FE491F0E0EE0FFF1FE35AFC4F8591CC
:104BA00094918E879F87DF91CF911F9108951F93D6
:104BB000CF93DF93EC01162F1B821A8288EE93E0CD
:104BC000A0E0B0E08C839D83AE83BF8383EE93E04F
:104BD000998388831C8A1B8A1E8A1D8A188E1F8AC5
:104BE0001A8E198E8B8D2170220F8C7F822B8B8FCA
:104BF000CE01642F0E948925CE01612F0E94AE252F
:104C0000DF91CF911F910895CF92DF92EF92FF92A3
:104C1000CF93DF93EC016A017B011A8E198E188EF7
:104C20001F8A1E8A1D8A1C8A1B8A20E030E0A90187
:104C3000440F551F420F531F440F551F440F551F5C
:104C4000FA01E558FC4F85919591A591B4918C1589
:104C50009D05AE05BF05E9F4FA01E158FC4F8591C9
:104C600094918B8B9C8BFA01EF57FC4F859194911B
:104C70008D8B9E8BFA01ED57FC4F859194918F8B14
:104C8000988F4B575C4FFA0185919491898F9A8F39
:104C900006C02F5F3F4F2D30310509F0C8CF8F89F7
:104CA000988D009709F448C09C85963108F040C063
:104CB00020916800983020F09E3020F082E003C000
:104CC00084E001C081E0822B809368005C855830CD
:104CD00048F05E3060F05631C8F1E0E0F0E0A0E06E
:104CE000B0E009C0EDE6F0E0ADE6B0E004C0EBE610
:104CF000F0E0ABE6B0E04C91583040F481E090E059
:104D000002C0880F991F5A95E2F710C0252F30E096
:104D10005E3018F42850304002C02E50304081E000
:104D200090E002C0880F991F2A95E2F7842B8083B8
:104D3000898D9A8D0E942724CE010E942E24DF9116
:104D4000CF91FF90EF90DF90CF900895ECE6F0E0E8
:104D5000ACE6B0E0D0CFFC014485463150F5483098
:104D600028F04E3030F0ECE6F0E005C0EDE6F0E083
:104D700002C0EBE6F0E05081483040F481E090E082
:104D800002C0880F991F4A95E2F710C0242F30E027
:104D90004E3018F42850304002C02E50304081E090
:104DA00090E002C0880F991F2A95E2F7809585232D
:104DB0008083089523EE33E0FC01318320830E9439
:104DC000AB260895CB010E949F350895CB01642F37
:104DD0000E94A7350895FC017583648371876087FD
:104DE0005783468353874287158A1586148617860C
:104DF000168621E0248B8FEF9FEF938B828B918B14
:104E0000808B268B0895A4E0B0E0E9E0F7E20C94F3
:104E1000BE322C017C836B836A0159011701C801E2
:104E2000841B950B97FF03C0909581959F4F95012B
:104E30004B815C81241B350B37FF03C030952195D6
:104E40003F4F41E0642E712C2817390714F0662477
:104E500077246114710459F09A2D8B2D5801092F74
:104E6000182F9B818C81DC82CB82C92ED82E8B811E
:104E70009C81A816B9065CF49C2D8D2D6801092F24
:104E8000182F9B818C81BC82AB82A92EB82ED501B4
:104E9000EB81FC81AE1BBF0BBA83A98348018C1840
:104EA0009D0897FE04C09094819491089394898101
:104EB0009A8162E070E00E9489327B01C016D106BF
:104EC0001CF401E010E027C00FEF1FEF24C0D20157
:104ED000ED91FC9111970480F581E02DC2016114E0
:104EE000710421F0B6014B815C8103C06B817C8130
:104EF000A60191010995E818F908F7FE06C0C00E51
:104F0000D11EE981FA81EE0EFF1E2B813C812F5FBD
:104F10003F4F3C832B834B815C81A416B506BCF6C6
:104F20002496E2E10C94DA32A0E0B0E0EAE9F7E29C
:104F30000C94C232EC016B015A0139014801E8813D
:104F4000F9810484F585E02D87010995E881F981CF
:104F5000A501480D591D415050400484F585E02DB0
:104F6000CE01B60193010995E881F9810284F385A8
:104F7000E02DCE01B601A50194010995E881F981E2
:104F8000B601660D771D615070400284F385E02DF7
:104F9000CE01A50194010995CDB7DEB7EEE00C94E2
:104FA000DE32A0E0B0E0E7EDF7E20C94C832EB01AE
:104FB000D9017801FC0120813181A40FB51F11971F
:104FC000F901C084D1849E018D01F6010995CDB708
:104FD000DEB7E8E00C94E432EF92FF920F931F9358
:104FE000CF93DF93DA017801EC01E881F981260F94
:104FF000371F215030400084F185E02D8D01099547
:10500000CDB7DEB7E6E00C94E632A0E0B0E0EBE02E
:10501000F8E20C94C2325C013A0169014801EB01EB
:10502000C60ED71E0DC0D501ED91FC910284F3850B
:10503000E02DC501BE01A3019401870109952196C8
:10504000CC15DD0584F3CDB7DEB7EEE00C94DE328F
:10505000AFE0B0E0EEE2F8E20C94BE325C015E83B9
:105060004D83422F18870F83FA86E9865C2DDC0179
:1050700018968D919C911997681779070CF0B4C018
:105080001A968D919C911B97ED81FE81E817F90787
:105090000CF0AAC02C2D30E0C901880F991F880F91
:1050A000991F820F931F860F971F181619060CF071
:1050B0009BC0C901A3E0880F991FAA95E1F78E0F45
:1050C0009F1F181619060CF08FC0842F90E06C01FA
:1050D000CC0CDD1CCC0CDD1CC80ED91E20E63FEF2D
:1050E000C20ED31E59831A821B017C836B8320E07E
:1050F000253029F0F601E95EFB4FE49101C0E0E0C4
:10510000822C3D866D807E80230199242F875E87C7
:105110008E2F90E09C878B87E0FF1EC0D501ED911C
:10512000FC91BE85B13051F40480F581E02DC501BC
:105130006B817C81A2012F81388524C00088F18990
:10514000E02DC501682D7D85A3012E8530E0022F5D
:1051500010E0EF80F88425C0E985FA852F81388535
:10516000E217F307F9F0D501ED91FC91BE85B1305E
:1051700059F40480F581E02DC5016B817C81A20189
:1051800029853A8509950EC00088F189E02DC50171
:10519000682D7D85A3012E8530E0022F10E0E98483
:1051A000FA840995EB85FC85F595E795939429811B
:1051B0003A81620E731E0894411C511C38E093160C
:1051C00009F0A6CF2F855E852F5F89819A81280EF1
:1051D000391EAB81BC811196BC83AB830894C11C82
:1051E000D11C263009F084CF2F96E2E10C94DA32FC
:1051F000CF92EF92FF920F931F93CF93DF93EC0127
:10520000262F6A3061F42C8930E013E0220F331F1F
:105210001A95E1F78E859F85820F931F3AC06D30F6
:10522000E1F14C855D85EE85FF8508891989EA885D
:10523000FB88BA01AF01CC880E9428284C8950E035
:105240009A01220F331F240F351F220F331F8C8525
:105250009D85280F391F3D872C878E898823E9F08B
:105260008AEF9FEF489FB001499F700D589F700DC6
:10527000112488859985680F791F621773076CF46C
:1052800013E0440F551F1A95E1F78E859F85840F13
:10529000951F9F878E871D861C8681E090E0DF9199
:1052A000CF911F910F91FF90EF90CF900895FC0147
:1052B00075876487578746870895662309F461E0F8
:1052C000FC01648B0895FC01718B608B738B628B86
:1052D0000895FC01718B608B538B428B0895FC0108
:1052E00085898370858B0895FC018085918508955B
:1052F000FC01828593850895A0E0B0E0E2E8F9E240
:105300000C94C832EC017B018A01690177FD64C00D
:105310000E947429E816F9060CF05EC017FD5CC007
:10532000CE010E947829081719070CF055C049C012
:105330008C819D81801B910B87017C010894E10881
:10534000F10818C08C819D819C012E193F097901BB
:105350000894E108F1088E819F819C01201B310B8C
:10536000890106C08E819F818E199F0978018C0169
:1053700001501040C80168E070E00E948932FB01D2
:10538000F695FE2FEE27F795E795EE0DFF1DE553F9
:10539000FE4F31E0C316D10441F402C0CC0CDD1C39
:1053A0008A95E2F780818C290AC021E030E002C0B2
:1053B000220F331F8A95E2F7209580818223808314
:1053C0000BC0CE010E946F29823009F4BBCF83301D
:1053D00049F2813079F6ACCFCDB7DEB7E8E00C9476
:1053E000E432EF920F93FC011382128283EF93E079
:1053F00091838083E48E038F228F418F608F0F9182
:10540000EF90089580E092E0EBECF1E0DF019C0189
:105410001D9221503040E1F70895FC0188E090E0B2
:1054200030E8A78DB0A14C9126A1209524232C9380
:10543000432F4623A58DB68D25A1442321F04C9101
:10544000422B4C9304C04C91209524232C93A78D80
:10545000B0A12C9146A1242B2C933695019709F7E6
:1054600008951F93CF93DF93EC01162F888D8F3F04
:10547000F1F0E9A1FAA180819FA1892B8083EBA1A2
:10548000FCA1908188A5809589238083E9A1FAA158
:1054900090818FA1809589238083CE010E940D2A5F
:1054A000E9A1FAA180819FA1892B808316C06F8911
:1054B000772767FD709583E997E00E94E32C83E9E5
:1054C00097E060E00E949E2C83E997E0612F0E94A4
:1054D0009E2C83E997E00E94F92CDF91CF911F91D8
:1054E0000895662311F067EA01C066EA0E94312A36
:1054F00008950F931F93CF93DF93EC01162F042F82
:1055000060E870E040E250E00E94EB260F8B888D4F
:105510008F3F09F468C061E00E94FA20898D61E044
:105520000E94FA208A8D61E00E94FA208C8D61E051
:105530000E94FA20298D332727FD3095F901E75B7A
:10554000FC4FE491F0E0EE0FFF1FE959FC4F85910D
:1055500094918F8F98A32B5C3C4FF90124912EA33B
:10556000288D332727FD3095F901E75BFC4FE49147
:10557000F0E0EE0FFF1FE959FC4F859194918D8F5C
:105580009E8F2B5C3C4FF90124912DA32C8D33274A
:1055900027FD3095F901E75BFC4FE491F0E0EE0F59
:1055A000FF1FE959FC4F8591949189A39AA32B5C25
:1055B0003C4FF90124912FA32A8D332727FD3095E5
:1055C000F901E75BFC4FE491F0E0EE0FFF1FE959B2
:1055D000FC4F859194918BA39CA32B5C3C4FF901CC
:1055E000249128A704C083E997E00E94CE2C8B8DDC
:1055F00061E00E94FA208B8D61E00E942E2161E023
:1056000070E080E090E00E9446208B8D60E00E9478
:105610002E216AE070E080E090E00E9446208B8DB1
:1056200061E00E942E21CE016EEA0E94312ACE0155
:1056300065ED0E94312ACE0160E80E94312ACE0138
:1056400068EA0E94312ACE016FE10E94312ACE0120
:1056500063ED0E94312ACE0160E00E94312ACE0122
:1056600060E40E94312ACE016DE80E94312ACE0109
:10567000113011F460E101C064E10E94312ACE01D1
:1056800060E20E94312ACE0160E00E94312ACE0100
:1056900061EA0E94312ACE0168EC0E94312ACE01D3
:1056A0006AED0E94312ACE0162E00E94312ACE01C9
:1056B00061E80E94312ACE016FE80E94312ACE01B2
:1056C00069ED0E94312ACE01113011F462E201C06D
:1056D00061EF0E94312ACE016BED0E94312ACE018A
:1056E00060E40E94312ACE0164EA0E94312ACE0190
:1056F00066EA0E94312ACE016FEA0E94312ADF91C8
:10570000CF911F910F910895A0E0B0E0EAE8FBE28D
:105710000C94C7328C0160E00E94312AC80160E11C
:105720000E94312AC80160E40E94312AD8015896AB
:105730008C9158978F3F09F443C09196ED91FC915D
:105740009297808197969C919797892B80839396C7
:10575000ED91FC919497808198969C919897892BD4
:1057600080839196ED91FC919297908197968C9180
:105770008095892380839BECE92E91E0F92EC0E08F
:10578000D0E0F70161917F01C8010E940D2A2196A6
:10579000F2E0C030DF07A9F7C0E0D2E0C80160E066
:1057A0000E940D2A2197D1F7D8019196ED91FC9195
:1057B0009297808197969C919797892B808364C05C
:1057C000B090B8008CE08093B800CC24DD24F801C0
:1057D0006789772767FD709583E997E00E94E32C3E
:1057E000E0919307F09194070190F081E02D83E917
:1057F00097E060E40995EE24FF24E601C553DE4FEF
:10580000FE01EE0DFF1D83E997E060810E949E2C52
:105810000894E11CF11CF0E1EF16F10489F780E136
:1058200090E0C80ED91E83E997E00E94F92C90E021
:10583000C91692E0D90659F6C0E2D0E0D8015796D1
:105840006C91772767FD709583E997E00E94E32CC0
:10585000E0919307F09194070190F081E02D83E9A6
:1058600097E060E4099580E1E82E83E997E060E045
:105870000E949E2CEA94C9F783E997E00E94F92CD4
:105880002197E1F6B092B800CDB7DEB7E9E00C940D
:10589000E3328091C30790E02091C407821B9109F5
:1058A00008952091C4078091C307281750F4E22F70
:1058B000F0E0EB53F84F808190E02F5F2093C40716
:1058C00008958FEF9FEF0895E091C4078091C3077B
:1058D000E81730F4F0E0EB53F84F808190E0089542
:1058E0008FEF9FEF08950895A0E0B0E0EAE7FCE2B3
:1058F0000C94C8326C01CB018A0120919F072223AE
:10590000A1F07B01C0E0D0E00CC0D7016D917D011A
:10591000D601ED91FC910190F081E02DC601099531
:105920002196C017D10789F703C0642F0E94842DE8
:10593000C801CDB7DEB7E8E00C94E432A1E0B0E0F6
:10594000E4EAFCE20C94CE32698320919F07222383
:10595000D1F02091A007203240F021E030E0FC019E
:105960003383228380E090E015C08091A107E82F67
:10597000F0E0EE55F84F998190838F5F8093A107F7
:105980008093A00705C0CE01019661E00E94842D9E
:1059900081E090E02196E2E00C94EA321092C40794
:1059A0001092C3071092A1071092A0070E94142D15
:1059B000089581E080939F076093C2071092A1072A
:1059C0001092A00708950E94D92C08950F93062FD6
:1059D0008091C20762EA77E04091A00721E00E942F
:1059E000322D1092A1071092A00710929F070F91DD
:1059F000089561E00E94E62C089510929607109297
:105A0000950788EE93E0A0E0B0E08093970790932D
:105A10009807A0939907B0939A0789E094E0909330
:105A200094078093930708951092EE0781E0809386
:105A3000EC071092EB0782E161E00E942E2183E1E6
:105A400061E00E942E21E9EBF0E080818E7F80836F
:105A500080818D7F808380E28093B80085E480938D
:105A6000BC0008950F93413208F045C09091EE07B5
:105A70009923E1F792E09093EE070093EC079FEFF4
:105A80009093E5071092EA074093E907AFEEB7E07D
:105A9000FB0102C091919D939E2F961B9417D0F30A
:105AA0001092ED079091ED07880F892B8093ED07F9
:105AB0008091EB07813041F41092EB078091ED0764
:105AC0008093BB0085EC01C085EE8093BC0022234F
:105AD00021F08091EE078230E1F38091E5078F3F5E
