:100000000C94FE060C945B1C0C94341C0C94DA1CAF
:100010000C94DA1C0C94DA1C0C9426070C9426071A
:100020000C9426070C9426070C9426070C9426079C
:100030000C9426070C9426070C9426070C9426078C
:100040000C94EA1B0C9426070C94A81C0C94821C9C
:100050000C9426070C9426070C9426070C9426076C
:100060000C94CB1A0C942607084AD73B3BCE016E62
:1000700084BCBFFDC12F3D6C74319ABD56833DDAFF
:100080003D00C77F11BED9E4BB4C3E916BAAAABE0E
:10009000000000803F05A84CCDB2D44EB93836A937
:1000A000020C50B9918688083CA6AAAA2ABE000074
:1000B00000803F0000407A10F35A00A0724E1809E9
:1000C0000010A5D4E80000E87648170000E40B54BF
:1000D000020000CA9A3B000000E1F505000080968E
:1000E0009800000040420F000000A08601000000C0
:1000F000102700000000E80300000000640000007A
:1001000000000A00000000000100000000002C7642
:10011000D888DC674F0823DFC1DFAE59E1B1B7965D
:10012000E5E3E453C63AE651997696E8E6C28426BA
:10013000EB898C9B62ED407C6FFCEFBC9C9F40F296
:10014000BAA56FA5F490055A2AF75C936B6CF96712
:100150006DC11BFCE0E40D47FEF520E6B500D0EDD7
:10016000902E0300943577050080841E080000203F
:100170004E0A000000C80C333333330F986E1283DD
:100180001141EF8D2114893BE65516CFFEE6DB18B1
:10019000D1844B381BF77C1D901DA4BBE424203276
:1001A00084725E228100C9F124ECA1E53D270000A4
:1001B0000000003E5B4F5B3E3E6B4F6B3E1C3E7C47
:1001C0003E1C183C7E3C181C577D571C1C5E7F5EF5
:1001D0001C00183C1800FFE7C3E7FF0018241800B4
:1001E000FFE7DBE7FF30483A060E2629792926404B
:1001F0007F050507407F05253F5A3CE73C5A7F3E77
:100200001C1C08081C1C3E7F14227F22145F5F0008
:100210005F5F06097F017F006689956A60606060A4
:100220006094A2FFA29408047E040810207E20108F
:1002300008082A1C08081C2A08081E101010100C98
:100240001E0C1E0C30383E3830060E3E0E060000E6
:1002500000000000005F00000007000700147F148A
:100260007F14242A7F2A12231308646236495620F9
:10027000500008070300001C2241000041221C001E
:100280002A1C7F1C2A08083E0808008070300008DD
:1002900008080808000060600020100804023E51B1
:1002A00049453E00427F4000724949494621414943
:1002B0004D331814127F1027454545393C4A4949AA
:1002C0003141211109073649494936464949291E14
:1002D0000000140000004034000000081422411403
:1002E00014141414004122140802015909063E4155
:1002F0005D594E7C1211127C7F494949363E41417D
:1003000041227F4141413E7F494949417F090909D5
:10031000013E414151737F0808087F00417F410041
:100320002040413F017F081422417F404040407FF0
:10033000021C027F7F0408107F3E4141413E7F093D
:100340000909063E4151215E7F091929462649497E
:10035000493203017F01033F4040403F1F204020BE
:100360001F3F4038403F63140814630304780403BC
:100370006159494D43007F4141410204081020006A
:100380004141417F040201020440404040400003DB
:1003900007080020545478407F28444438384444A7
:1003A0004428384444287F385454541800087E099F
:1003B0000218A4A49C787F0804047800447D4000BF
:1003C0002040403D007F1028440000417F40007CD9
:1003D000047804787C080404783844444438FC18D1
:1003E00024241818242418FC7C08040408485454B5
:1003F000542404043F44243C4040207C1C204020E2
:100400001C3C4030403C44281028444C9090907C48
:100410004464544C4400083641000000770000005A
:100420004136080002010204023C2623263C1EA19C
:10043000A161123A4040207A3854545559215555FB
:1004400079412254547842215554784020545579AA
:10045000400C1E527212395555555939545454593D
:1004600039555454580000457C410002457D4200F6
:1004700001457C407D1211127DF0282528F07C5426
:100480005545002054547C547C0A097F493249491F
:1004900049323A4444443A324A4848303A41412188
:1004A0007A3A42402078009DA0A07D3D4242423DE4
:1004B0003D4040403D3C24FF2424487E4943662B78
:1004C0002FFC2F2BFF0929F620C0887E090320541A
:1004D0005479410000447D413048484A3238404018
:1004E000227A007A0A0A727D0D19317D2629292F78
:1004F00028262929292630484D4020380808080890
:1005000008080808382F10C8ACBA2F102834FA0091
:10051000007B000008142A142222142A1408550013
:10052000550055AA55AA55AAFF55FF55FF000000D2
:10053000FF00101010FF00141414FF001010FF0033
:10054000FF1010F010F0141414FC001414F700FF46
:100550000000FF00FF1414F404FC141417101F1003
:10056000101F101F1414141F00101010F0000000B2
:10057000001F101010101F10101010F010000000BD
:10058000FF101010101010101010FF10000000FFCE
:10059000140000FF00FF00001F10170000FC04F40F
:1005A00014141710171414F404F40000FF00F714C7
:1005B000141414141414F700F7141414171410104E
:1005C0001F101F141414F4141010F010F000001F6A
:1005D000101F0000001F14000000FC140000F010A9
:1005E000F01010FF10FF141414FF141010101F004F
:1005F000000000F010FFFFFFFFFFF0F0F0F0F0FF51
:10060000FFFF0000000000FFFF0F0F0F0F0F384427
:10061000443844FC4A4A4A347E02020606027E02FC
:100620007E0263554941633844443C04407E201EA9
:100630002006027E020299A5E7A5991C2A492A1CD8
:100640004C7201724C304A4D4D303048784830BCC5
:10065000625A463D3E494949007E0101017E2A2AEF
:100660002A2A2A44445F444440514A444040444A70
:1006700051400000FF0103E080FF000008086B6BA1
:10068000083612362436060F090F06000018180027
:1006900000001010003040FF0101001F01011E008A
:1006A000191D1712003C3C3C3C00000000000001FA
:1006B00003070F1F3F7F0080C0E0F0F8FCFE4A50A8
:1006C0004E0072656164202573203020256400246B
:1006D000504D544B3330312C322A32450D0A002410
:1006E000504D544B3331332C312A32450D0A0024FE
:1006F000504D544B3232302C313030302A3146009C
:1007000024504D544B3331342C302C312C302C317F
:100710002C302C302C302C302C302C302C302C30F9
:100720002C302C302C302C302C302C302C302A32E9
:100730003800DB40A4A62EAF2000A1C8D300408D16
:10074000AED580A80000600000000000000000009E
:100750000000000000E000000000000000000000B9
:1007600000000001E00000000000000000000000A8
:10077000000001F000000000000000000000000088
:100780000003F00000000000000000000000000076
:1007900007F000000000000000000000000000075B
:1007A000F8000000000000000000000000000FF84A
:1007B00000000003C0007E000001E0007F0FF80091
:1007C000000003C000FE000001E000FFEFF80000A1
:1007D0000003C000FE000001E000FFFFF800000081
:1007E00003C000F00000000F007FFE7FC000000388
:1007F000C000F00000000F003FFE7FF83FF1FBCF8C
:10080000FCFEF3BC3DEFE01FFE7FFF7FFBFFDFFE42
:10081000FEFFBC3DEFE01FC6FFFF7FFBFFDFFEFEDC
:10082000FFBC3DEFE00FE3C7FE787BC3DE1EF0FFA9
:10083000BC3DEF0007FF87FC787BC3DE1EF0F83C71
:100840003DEF0001FFFFF0007BC3C01EF0F03C3D18
:10085000EF0001F37FE03FFBC3CFFEF0F03C3DEF44
:100860000003E33F807FFBC3DFFEF0F03C3DEF0081
:1008700007E73C00787BC3DE1EF0F03C3DEF00074D
:10088000FFBE00787BC3DE1EF0F03C3DEF0007FFAB
:10089000FE00787BC3DE1EF0F03C3DEF000FFFFE54
:1008A000007FFBFFDFFEF0F03FFDEFE00FFFFF00FA
:1008B0007FFBFFDFFEF0F03FFDEFE00FF9FF003EB2
:1008C00079F9CF9EF0F01F3DE7E01FF1FF00000037
:1008D0000000000000000000001F80FF007FFFFFFD
:1008E000FFFFFFFFFFFFFFE01C007F007FFFFFFF18
:1008F000FEB46D888D18E000001F007FFFFFFFFE33
:1009000095AD7DB577E000000F007FFFFFFFFEA5EE
:10091000AD9D8D19E0000006007FFFFFFFFEB5AD25
:10092000EDB57EE000000000000180000000000046
:10093000000000000380000000000000000000072D
:10094000C000000000000000000007C00000000020
:1009500000000000000FC0000000000000000000C8
:100960001FE00000000000000000001FE000000089
:100970000000000000003FE0000000000000000058
:10098000003FF00000000000000000007FF00000C9
:1009900000000000001FF87FF000000000000000D1
:1009A0003FFE7FF0000000000000003FFF7FF000EE
:1009B0000000000000001FFFFBE00000000000003E
:1009C000000FFFF9FFC00000000000000FFFF9FF5B
:1009D000F800000000000007FFF1FFFF000000002A
:1009E000000003FC73FFFF80000000000001FE3FD9
:1009F000FFFF80000000000000FF1E0FFF0000004E
:100A0000000000007FFE1FFC000000000000003F0F
:100A1000FFFFF8000000000000000FDFFFE0000013
:100A200000000000001F19FFC000000000000000CF
:100A30003F3CFF00000000000000007E7CF800004A
:100A40000000000000007FFE7C00000000000000AD
:100A500000FFFFFC0000000000000000FFFFFE00A0
:100A600000000000000000FFFFFE0000000000008A
:100A70000001FFEFFE0000000000000001FFCFFEBC
:100A80000000000000000003FF07FE00000000005F
:100A9000000003FC07FE0000000000000003F0035C
:100AA000FE00000000000000018000FE00000000C9
:100AB0000000000000007E000000000000000000B8
:100AC000003E000000000000000000000C000000DC
:100AD000000000078000FC000003C0000000078049
:100AE00001FC000003C0000000078001FC000003BF
:100AF000C0000000078001E00000001E00000007A9
:100B00008001E00000001E007FE3F79FF9FDE77819
:100B10007BDFC0FFF7FFBFFDFDFF787BDFC0FFF786
:100B2000FFBFFDFDFF787BDFC0F0F787BC3DE1FF35
:100B3000787BDE00F0F787BC3DE1F0787BDE0000DB
:100B4000F787803DE1E0787BDE007FF7879FFDE15E
:100B5000E0787BDE00FFF787BFFDE1E0787BDE0019
:100B6000F0F787BC3DE1E0787BDE00F0F787BC3D25
:100B7000E1E0787BDE00F0F787BC3DE1E0787BDEEA
:100B800000FFF7FFBFFDE1E07FFBDFC0FFF7FFBF26
:100B9000FDE1E07FFBDFC07CF3F39F3DE1E03E7BC6
:100BA000CFC00000000000000000000000FFFFFFB9
:100BB000FFFFFFFFFFFFFFC0FFFFFFFFFD68DB112F
:100BC0001A31C0FFFFFFFFFD2B5AFB6AEFC0FFFF8A
:100BD000FFFFFD4B5B3B1A33C0FFFFFFFFFD6B5B6D
:100BE000DB6AFDC02325303464004D6F6465203D11
:100BF00025640043504D00416C61726D3D256400D9
:100C0000252500426174746572793D202530326477
:100C100000476569676965204E616E6F2025730026
:100C200053414645434153542E54585400253034C3
:100C30006425303264253032642E6C6F6700207575
:100C4000532F68002075532F6800206D532F6800C4
:100C50002043504D006B43504D002530356C642EC1
:100C60002530346C64002530346C642E2530346CAF
:100C7000640024504D544B3130342A3337004E4FEA
:100C800020534420434152442F2047505320726543
:100C900073657400253032642F253032642025308E
:100CA00032643A253032643A253032640057726F2C
:100CB0006E67206D6F646520210075530044733D9D
:100CC0000075532F6820004D783D0042712F6D3222
:100CD000006B42712F6D32006D42712F6D320043F7
:100CE000504D20006B43504D20002D2D006B6D00AA
:100CF0002042712F6D3200207553762F68005E0000
:100D00004E6F2047505300253032646825303264DE
:100D10006D002A2558002A302558002425732C25DB
:100D20003034642C253032642D253032642D25304A
:100D3000326454253032643A253032643A253032F8
:100D4000645A2C256C642C256C642C256C642C2531
:100D5000632C25732C25632C25732C25632C25737C
:100D60002C25632C25642C256C64006E616E6F0A43
:100D700023206465616474696D653D6F6E0A00319E
:100D80002E342E330023204E4557204C4F470A2344
:100D900020666F726D61743D000000000024002722
:100DA000002A000000000800020100000304070000
:100DB000000000000000002200FF210000000000F1
:100DC00023002600290000000000250028002B0039
:100DD00004040404040404040202020202020303E1
:100DE00003030303010204081020408001020408E9
:100DF0001020010204081020B71D943611241FBED4
:100E0000CFEFD8E0DEBFCDBF11E0A0E0B1E0E8E871
:100E1000F3E802C005900D92A83DB107D9F726E08E
:100E2000A8EDB1E001C01D92A931B207E1F716E0CB
:100E3000CDEFD6E004C02197FE010E946A3CCC3F72
:100E4000D107C9F70E94A11E0C94B7410C94000071
:100E50000F931F93CF93DF93EC0160E070E0CB0121
:100E6000099120ED200F2A30A0F4AAE0B0E09B0108
:100E7000AC010E947F3C002E000C110B220B330BA7
:100E8000600F711F821F931F6053710981099109BF
:100E9000E7CFDF91CF911F910F9108951F93CF93CB
:100EA000DF9310919805C9E9D5E01D3211F0C8E92A
:100EB000D5E0CE010E9428079B01AC01A4E6B0E07A
:100EC0000E947F3CAB01BC01FE01899190ED980F1F
:100ED0009A30D0F38E3241F5818190ED980F9A309F
:100EE00018F5082E000C990BC097AAE0A89F900156
:100EF000A99F300D1124C901330FAA0BBB0B480F5A
:100F0000591F6A1F7B1F828190ED980F9A3060F401
:100F1000082E000C990BC097092E000CAA0BBB0BD6
:100F2000480F591F6A1F7B1F1D3239F47095609559
:100F3000509541955F4F6F4F7F4FCB01BA01DF91C5
:100F4000CF911F9108954F925F926F927F928F92EF
:100F50009F92AF92BF92CF92DF92EF92FF92CF9388
:100F6000DF9388E995E00E9428072B013C0124E6E5
:100F700030E040E050E00E94483C9B01AC0160EA58
:100F800076E881E090E00E94243C6B017C01E8E976
:100F9000F5E0819190ED980F9A30D8F38E3219F5E3
:100FA000EF0180E1882E87E2982EA12CB12CA99127
:100FB00080ED8A0F8A30B8F40A2E000CBB0BD09754
:100FC000A50194010E948A3CC60ED71EE81EF91E98
:100FD000C501B4012AE030E040E050E00E94483C06
:100FE00049015A01E4CFC301B20124E630E040E0F8
:100FF00050E00E94483C60E472E48FE090E00E9480
:10100000243C4B015C01C701B6016B5F7F4F8F4FE2
:101010009F4F26E030E040E050E00E94483CC50190
:10102000B401620F731F841F951FDF91CF91FF9052
:10103000EF90DF90CF90BF90AF909F908F907F9078
:101040006F905F904F9008954F925F926F927F9252
:101050008F929F92AF92BF92CF92DF92EF92FF92C8
:10106000CF93DF9388E995E00E9428072B013C018C
:10107000E8E9F5E0819190ED980F9A30D8F3C12C12
:10108000D12C76018E3231F5EF0180E1882E87E296
:10109000982EA12CB12CC12CD12C7601A99180EDD8
:1010A0008A0F8A30B8F40A2E000CBB0BD097A5012A
:1010B00094010E948A3CC60ED71EE81EF91EC50187
:1010C000B4012AE030E040E050E00E94483C490191
:1010D0005A01E4CFA301920160EA76E881E090E052
:1010E0000E94243C6C0D7D1D8E1D9F1DDF91CF91B4
:1010F000FF90EF90DF90CF90BF90AF909F908F9038
:101100007F906F905F904F90089508952091930382
:10111000260F3327331F21323105ECF42091B90318
:10112000FC0190E080E0243069F082E00895A09115
:1011300093032191AC014F585C4FA40FB52FB11D03
:101140002C930196861798F380919303680F609310
:10115000930380E0089581E0089508950895E09153
:101160006A0380916903E81730F4F0E0E75BFC4F15
:10117000808190E008958FEF9FEF089590916A032A
:10118000809169032FEF3FEF981748F4E92FF0E0C3
:10119000E75BFC4F208130E09F5F90936A03C901B9
:1011A00008958091690390916A03891B990B0895B2
:1011B000CF92DF92EF92FF920F931F93CF93DF9323
:1011C0007C01CB018A012091E203222389F0EB010B
:1011D0006B01C40ED51ECC15DD0569F06991D701F0
:1011E000ED91FC910190F081E02DC7010995F3CFBD
:1011F000642F0E948608C801DF91CF911F910F9143
:10120000FF90EF90DF90CF900895CF93DF931F92E0
:10121000CDB7DEB769832091E2032223F9F0209154
:10122000DF03203258F021E030E0FC0133832283D9
:1012300090E080E00F90DF91CF9108958091E003DE
:10124000E82FF0E0E75DFC4F998190838F5F8093FA
:10125000E0038093DF0381E090E0ECCF61E0CE011A
:1012600001960E948608F7CF90E0FC01ED55F24F01
:101270002491FC01EC51F24F3491FC01E053F24F08
:10128000E491EE23C9F0222339F0233001F1A8F4D0
:10129000213019F1223029F1F0E0EE0FFF1FEA535F
:1012A000F24FA591B4918FB7F894EC91611126C0DB
:1012B00030953E233C938FBF08952730A9F0283006
:1012C000C9F0243049F7809180008F7D03C0809160
:1012D00080008F7780938000DFCF84B58F7784BDC7
:1012E000DBCF84B58F7DFBCF8091B0008F7780936B
:1012F000B000D2CF8091B0008F7DF9CF3E2BDACFF6
:101300001092B90381E08093BB031092BA0361E0AD
:1013100082E10E94340961E083E10E943409E9EB33
:10132000F0E080818E7F808380818D7F808380E26A
:101330008093B80085E48093BC000895CF93DF9339
:1013400091E0909370038823B9F0C091B800D091D8
:10135000BA008091BC008A7B8093BC0060E082E18F
:101360000E94340960E083E10E9434090E948009F0
:10137000D093BA00C093B800DF91CF910895CF9376
:10138000DF9390E0FC01EC51F24F24918053924F97
:10139000FC0184918823C9F090E0880F991FFC011B
:1013A000E756F24FA591B491FC01EA53F24FC59173
:1013B000D49161110DC09FB7F8948C912095822330
:1013C0008C938881282328839FBFDF91CF91089534
:1013D000623051F49FB7F8943C91822F809583231B
:1013E0008C93E8812E2BEFCF8FB7F894EC912E2BB6
:1013F0002C938FBFEACF8E3008F08E5020910701DA
:1014000090E4299F900111248770822B80937C00A7
:1014100080917A00806480937A0080917A0086FDC2
:10142000FCCF809178009091790008958EE00E9421
:10143000FB09BC01990F880B990B0E94393E20E0F3
:1014400030E040E85AE30E945C3F20E030E040E2B8
:1014500051E40E945C3F24EB35EC4AEC5DE30E94D2
:101460008F3D08953FB7F89480912503909126030E
:10147000A0912703B091280326B5A89B05C02F3F54
:1014800019F00196A11DB11D3FBFBA2FA92F982FAA
:101490008827BC01CD01620F711D811D911D43E0A4
:1014A000660F771F881F991F4A95D1F70895CF922D
:1014B000DF92EF92FF920F931F93CF93DF93D09120
:1014C000DF0381E0D13208F09CC0C091E1030E94AB
:1014D000320A6B017C018091B90381116CC082E0FA
:1014E0008093B90381E08093BB038FEF8093B803AF
:1014F0001092DD03D093DC03A9E2B3E0ECEBF3E060
:1015000080E0D8138DC01092DE038091DE03CC0FF3
:10151000C82BC093DE038091BA03813009F084C0E8
:101520001092BA030E94320A6B017C018091DE03A3
:101530008093BB0080916C0390916D03A0916E032A
:10154000B0916F03892B8A2B8B2BA1F00E94320A5A
:1015500000916C0310916D0320916E0330916F0325
:101560006C197D098E099F09061717072807390787
:1015700008F442C08091BC0083FDD8CF85EC8093F5
:10158000BC000E94320A6B017C018091B903823059
:1015900009F44CC08091B8038F3F09F469C0809171
:1015A000B803803209F466C08091B803803309F42F
:1015B00063C084E026C080916C0390916D03A0917C
:1015C0006E03B0916F03892B8A2B8B2B09F483CF89
:1015D0000E94320A00916C0310916D0320916E03FA
:1015E00030916F036C197D098E099F090617170743
:1015F0002807390708F06FCF80916B030E949E097E
:1016000085E01092E0031092DF031092E203DF9175
:10161000CF911F910F91FF90EF90DF90CF900895A1
:101620009D9191938F5F6DCF85EEA9CF80916C03D3
:1016300090916D03A0916E03B0916F03892B8A2B5B
:101640008B2B09F4A2CF0E94320A00916C031091F7
:101650006D0320916E0330916F036C197D098E0923
:101660009F09061717072807390708F08ECFC4CF40
:1016700080E0C7CF82E0C5CF83E0C3CF8F929F9237
:10168000AF92BF92CF92DF92EF92FF924B015C013B
:101690000E94320A6B017C010E94320A6C197D099A
:1016A0008E099F09683E734081059105A8F321E0EA
:1016B000821A9108A108B10888EEC80E83E0D81EEE
:1016C000E11CF11C81149104A104B10429F7FF90DD
:1016D000EF90DF90CF90BF90AF909F908F90089544
:1016E0002FB7F89460912103709122038091230316
:1016F000909124032FBF08952F923F924F925F92B3
:101700006F927F928F929F92AF92BF92CF92DF9211
:10171000EF92FF920F931F93CF93DF93CDB7DEB776
:101720002A970FB6F894DEBF0FBECDBF4C017A8763
:1017300069871A013A8329831C830B83FE82ED8219
:10174000D886CF8240904A0550904B0560904C055A
:1017500070904D05C0904205D0904305E09044053F
:10176000F09045058091860590918705A0918805A8
:10177000B09189058F3F2FEF9207A207B20781F042
:101780000E94700B009186051091870520918805B5
:1017900030918905DC01CB01801B910BA20BB30BAF
:1017A000F50180839183A283B383C301B20124E650
:1017B00030E040E050E00E94483C20ED37E06135E9
:1017C000710514F02CE637E0C901860F971FF4016C
:1017D0009183808384E6882E912CA12CB12CC301A7
:1017E000B201A50194010E94483CCA01B901A501BA
:1017F00094010E94483CE985FA856083C301B201E7
:1018000020E137E240E050E00E94483CF1012083B3
:10181000C701B60120E432E44FE050E00E94483CAA
:10182000E981FA812083C701B60120E137E240E077
:1018300050E00E94483CCA01B901A50194010E94F0
:10184000483CEB81FC816083C701B601A50194018E
:101850000E94483C6983CA01B901A50194010E9414
:10186000483CED81FE8160832981EF81F8852083EA
:101870002A960FB6F894DEBF0FBECDBFDF91CF9191
:101880001F910F91FF90EF90DF90CF90BF90AF909E
:101890009F908F907F906F905F904F903F902F9090
:1018A0000895809165029091660201969093660278
:1018B0008093650208950895AF92BF92CF92DF9210
:1018C000EF92FF920F931F93CF93DF936C017B01F5
:1018D0008B01040F151FEB015E01AE18BF08C01786
:1018E000D10759F06991D601ED91FC910190F081F9
:1018F000E02DC6010995892B79F7C501DF91CF91BC
:101900001F910F91FF90EF90DF90CF90BF90AF901D
:101910000895FC01538D448D252F30E0842F90E0F5
:10192000821B930B541710F0CF96089501970895DA
:10193000FC01918D828D981761F0A28DAE0FBF2FA3
:10194000B11D5D968C91928D9F5F9F73928F90E0F9
:1019500008958FEF9FEF0895FC01918D828D981768
:1019600031F0828DE80FF11D858D90E008958FEFA5
:101970009FEF0895FC01918D228D892F90E0805C6E
:101980009F4F821B91098F739927089583EE93E0EF
:101990000E94BA0C21E0892B09F420E0822F0895DF
:1019A00080E090E0892B29F00E94C60C81110C94F4
:1019B00000000895FC01A48DA80FB92FB11DA35AF2
:1019C000BF4F2C91848D90E001968F739927848F5F
:1019D000A689B7892C93A089B1898C918370806482
:1019E0008C93938D848D981306C00288F389E02D23
:1019F00080818F7D80830895EF92FF920F931F93D4
:101A0000CF93DF93EC0181E0888F9B8D8C8D9813B1
:101A10001AC0E889F989808185FF15C09FB7F894BD
:101A2000EE89FF896083E889F98980818370806409
:101A300080839FBF81E090E0DF91CF911F910F9154
:101A4000FF90EF900895F62E0B8D10E00F5F1F4F63
:101A50000F731127E02E8C8D8E110CC00FB607FC72
:101A6000FACFE889F989808185FFF5CFCE010E9400
:101A7000DA0CF1CFEB8DEC0FFD2FF11DE35AFF4F88
:101A8000F0829FB7F8940B8FEA89FB89808180628E
:101A9000CFCFCF93DF93EC01888D8823B9F0AA894B
:101AA000BB89E889F9898C9185FD03C0808186FD19
:101AB0000DC00FB607FCF7CF8C9185FFF2CF808168
:101AC00085FFEDCFCE010E94DA0CE9CFDF91CF91F7
:101AD0000895EF92FF920F931F93CF93DF93EC0142
:101AE000EC80FD806E157F050CF070C057FF04C0C0
:101AF000240F351F50E040E08E819F81FA01E20FF4
:101B0000F31F8E179F071CF49C01241B350B121624
:101B100013060CF05BC0922F842F869586958695D0
:101B20008E9DD0018F9DB00D11246A0F7B1FAF8D4C
:101B3000B8A1A60FB71F477049F188E0841B482F52
:101B4000682F70E0FB01EA54F94FE491281708F080
:101B500063C0621B71092FEF30E002C035952795F5
:101B60006A95E2F7E2230130110539F0B0F1023055
:101B7000110561F58C91E82702C08C91E82BEC935C
:101B8000941720F12C813D81A20FB31FE92FE41B94
:101B9000E83078F00230110521F58E2F9C91909558
:101BA0009C932C813D81A20FB31F88508830B0F7E1
:101BB000E770EE2359F0F0E0E255F94FE49101307F
:101BC0001105F9F010F10230110519F1DF91CF91F3
:101BD0001F910F91FF90EF900895E0958C91E8236D
:101BE000CECF81E00115110509F480E081959E2F8B
:101BF0008C932C813D81A20FB31F98509830C0F771
:101C0000D7CF8C91E82BEC93E1CFE0958C91E82332
:101C1000FACF8C91E827F7CF0130110509F4ADCF49
:101C2000E0F20230110509F4A5CFAE0DBF1DAECF15
:101C30000F931F93CF93DF9377FF04C0260F371FB7
:101C400070E060E0DC011496CD91DC91FB01E20FC5
:101C5000F31FCE17DF071CF49E01261B370B12164D
:101C600013064CF5FA0157FD3796A3E0F595E79575
:101C7000AA95E1F7EC9FD001ED9FB00DFC9FB00D50
:101C800011246A0F7B1FDC015F96ED91FC91E60F3A
:101C9000F71F4770552781E090E001C0880F4A95F3
:101CA000EAF7482F0130110559F0A8F02E0F3F1F19
:101CB00002301105E1F0DF91CF911F910F9108954E
:101CC0002E0F3F1FE217F307B1F38191DF01119748
:101CD000842B8C93F7CF80952E0F3F1FE217F307CD
:101CE00051F39191DF01119798239C93F7CFE2175D
:101CF000F30709F38191DF01119784278C93F7CFC4
:101D00000F931F93FA01DC0156964C91569742307F
:101D1000E9F04330A1F1413061F514964D915C91A9
:101D2000DA01AE1BBF0BFD01E21BF30B77FD0BC00D
:101D3000DC0116964D915C916417750724F4AB0194
:101D4000BF010E94180E1F910F91089514964D9196
:101D50005C91DA01A61BB70BBD0161507109DC0172
:101D600016964D915C91DA01AE1BBF0BFD01E21B93
:101D7000F30B77FDE8CFAF010E94690DE4CF169613
:101D80004D915C91DA01A61BB70BBD016150710941
:101D9000CDCF0F931F93FA01DC0156964C915697C5
:101DA0004230A9F0433091F1413019F514964D912C
:101DB0005C91DA01AE1BBF0BFD013197F7FD04C04A
:101DC000AB01BF010E94690D1F910F9108951496F8
:101DD0004D915C91DA01A61BB70BBD01DC01169693
:101DE0004D915C91DA01AE1BBF0BFD013197621B77
:101DF000730BF7FDE9CFDC0116964D915C91E4176A
:101E0000F50714F7AF010E94180EDECF16964D911C
:101E10005C91DA01A61BB70BBD01621B730BCECF21
:101E2000FC0177FD64C080859185681779070CF007
:101E30005EC057FD5CC082859385481759070CF03A
:101E400056C086898230B1F0833029F1813041F467
:101E500084819581841B950BAB01BC016150710994
:101E60002130310509F108F443C02230310509F46D
:101E700063C0089584819581DC01A61BB70BBD0169
:101E80006150710986819781DC01A41BB50BAD01FE
:101E900041505109E5CF86819781861B970BBA0186
:101EA000AC0141505109DCCFCA0157FD0796A3E0B0
:101EB00095958795AA95E1F7A481B5818A9F9001B0
:101EC0008B9F300D9A9F300D1124620F731F078C6A
:101ED000F0A1E02DE60FF71F4770552721E030E015
:101EE00001C0220F4A95EAF78081822B80830895F2
:101EF000CA0157FD079633E0959587953A95E1F726
:101F0000A481B5818A9F90018B9F300D9A9F300DDF
:101F10001124620F731F078CF0A1E02DE60FF71F4D
:101F20004770552781E090E001C0880F4A95EAF795
:101F3000809590818923DACFCA0157FD079623E067
:101F4000959587952A95E1F7A481B5818A9F90019F
:101F50008B9F300D9A9F300D1124620F731F078CD9
:101F6000F0A1E02DE60FF71F4770552721E030E084
:101F700001C0220F4A95EAF780818227B7CF0895E2
:101F80008EBD00000DB407FEFDCF8EB50895EF9213
:101F9000FF920F931F93CF93DF937C01C62F809105
:101FA000F2059091F305009709F459C02091F605C8
:101FB00031E03093E2032093E1031092E0031092AA
:101FC000DF03DC01ED91FC910190F081E02D60E0F8
:101FD00009958701EE24E394F12CD1E0C150809162
:101FE000F2059091F305CF3F91F1B0E2EB16F104C9
:101FF000D8F00E94570A8091F2059091F305209144
:10200000F605D093E2032093E1031092E0031092CF
:10201000DF03DC01ED91FC910190F081E02D60E0A7
:102020000995EE24E394F12C8091F2059091F3054B
:10203000F8016491DC01ED91FC910190F081E02DBB
:102040000995BFEFEB1AFB0A0F5F1F4FC7CFDF9158
:10205000CF911F910F91FF90EF900C94570AE09150
:102060000206F091030690818091080680958923ED
:1020700080838701C15008F438C0F8018491209111
:10208000F0053091F105232B29F00E94C00F0F5F5E
:102090001F4FF0CF28E030E040E8E091FE05F091DE
:1020A000FF0590910606582F5423D9F05081952BA7
:1020B0009083E0910006F09101069081509107060F
:1020C000952B9083E0910006F0910106508190914C
:1020D0000706909595239083469521503109E9F69E
:1020E000D6CF508190959523E3CFDF91CF911F916B
:1020F0000F91FF90EF9008951F93CF93DF93EC0122
:102100008D8D9E8D009721F1162F29A131E03093FE
:10211000E2032093E1031092E0031092DF03DC015D
:10212000ED91FC910190F081E02D60E009958D8D9D
:102130009E8DDC01ED91FC910190F081E02D612FED
:1021400009958D8D9E8DDF91CF911F910C94570A2B
:10215000ADA5BEA59C918BA9809589238C938B8D71
:102160009C8D892B31F0862FDF91CF911F910C949C
:10217000C00F28E030E080E8A9A5BAA599A9462FAC
:102180004823C1F04C91942B9C93ABA5BCA59C918A
:102190004AA9942B9C93ABA5BCA54C919AA9909568
:1021A00094239C9386952150310931F7DF91CF918B
:1021B0001F9108954C9190959423E6CF8CBD9DBDC1
:1021C0000895DF92EF92FF920F931F93CF93DF93C7
:1021D0008091F2059091F305892B09F498C0209124
:1021E0000A0630910B0640910C0650910D0660E0F6
:1021F00072E18AE790E00E94483C20513109410990
:10220000510956954795379527952093B80065E075
:1022100087EB9DE00E94C70F6091D905615085ED65
:1022200095E00E947C102091DB053091DC05C9010E
:10223000079697FD079633E0959587953A95E1F7D0
:102240002091D9053091DA05829F8001839F100D7E
:10225000929F100D1124C091F405D091F505809145
:10226000F2059091F3050C0F1D1F009709F48FC024
:102270002091F60531E03093E2032093E1031092C0
:10228000E0031092DF03DC01ED91FC910190F081FD
:10229000E02D60E40995EE24E394F12CDD24D39441
:1022A0008091F2059091F3050C171D0709F446C0C3
:1022B000B0E2EB16F104D8F00E94570A8091F205C3
:1022C0009091F3052091F605D092E2032093E1036B
:1022D0001092E0031092DF03DC01ED91FC9101907C
:1022E000F081E02D60E40995EE24E394F12C8091D7
:1022F000F2059091F3056991DC01ED91FC9101905B
:10230000F081E02D0995BFEFEB1AFB0AC9CF809150
:10231000F0059091F105892B31F080911306909191
:1023200014060E94DE10E0910406F09105069081EB
:102330008091090680958923808369CF0E94570A7E
:102340008091F2059091F305892B09F461C02091E9
:102350000E0630910F06409110065091110660E074
:1023600072E18AE790E00E94483C2051310941091E
:10237000510956954795379527952093B800DF91D9
:10238000CF911F910F91FF90EF90DF900895E09112
:102390000206F0910306808190910806892B8083C4
:1023A0000C171D0769F289912091F0053091F10514
:1023B000232B19F00E94C00FF3CF28E030E040E853
:1023C000E091FE05F091FF0590910606582F5423E9
:1023D000D9F05081952B9083E0910006F091010691
:1023E000908150910706952B9083E0910006F09123
:1023F000010650819091070690959523908346950C
:1024000021503109E9F6CCCF508190959523E3CF47
:10241000E0910406F0910506808190910906892BD0
:102420008083ADCF1F93CF93DF93EC01162F8D8D5B
:102430009E8D892BB1F12DA93EA94FA958AD60E021
:1024400072E18AE790E00E94483C2051310941093D
:10245000510956954795379527952093B80066EA18
:10246000111167EACE010E947C108D8D9E8D892B03
:1024700041F129AD3AAD4BAD5CAD60E072E18AE768
:1024800090E00E94483C205131094109510956957C
:102490004795379527952093B800DF91CF911F91ED
:1024A00008958B8D9C8D892B21F08EAD9FAD0E9460
:1024B000DE10EFA5F8A990818CA9809589238083EF
:1024C000CECFEFA5F8A980819CA9892B8083E5CF89
:1024D0000895FC016370668B848195812681378124
:1024E000613039F0633029F0918780873387228704
:1024F0000895318720879387828708952F923F928E
:102500004F925F926F927F928F929F92AF92BF9203
:10251000CF92DF92EF92FF920F931F93CF93DF93AF
:10252000CDB7DEB76A970FB6F894DEBF0FBECDBF4A
:102530009A8F898F7A8369834A01D22E18870F83F5
:102540003701BC2CDC0159962D913C915A972115ED
:10255000310509F015C118968D919C91199768174E
:1025600079070CF0D7C11A968D919C91481759079D
:102570000CF0D0C14C2C512CB6E0CB9E600D711DDF
:1025800011247C876B87161617060CF0C3C1EA2D41
:10259000F0E0FA87E98793E0EE0FFF1F9A95E1F7E5
:1025A000F88BEF87CF01840F951F181619060CF0D2
:1025B000B1C1A98DBA8D58968C91811104C0BFEA22
:1025C000BD1508F4D394A98DBA8DED91FC911197A6
:1025D0000284F385E02DCD010995B5E0DB9EC001B5
:1025E0001124E981FA81FC83EB83312C212C9C019D
:1025F00022553E4F388F2F8B4A2D50E05E8B4D8BEE
:10260000EF89F88DE20DF31D44919E828D82D12CCD
:10261000C12C69817A81620D731D7A8B698B842F3D
:1026200090E09C8B8B8BE98DFA8DA081B18140FF6E
:1026300082C0F1E0BF126FC0AF126DC01C96ED9169
:10264000FC912F813885A4014C0D5D1D69897A8923
:10265000898D9A8D0995EB89FC89F595E7954E2F23
:102660005FEFC51AD50A6D817E818D899E89680FBD
:10267000791F7E836D8398E0C916D10481F6AFEF90
:102680002A1A3A0AEB81FC81E40DF51DFC83EB83E9
:10269000F5E02F16310409F0B3CF2F8138852615C8
:1026A0003705B9F0A98DBA8DED91FC91B1E0BB125F
:1026B00057C0AB1255C069817A816B5F7F4F00882C
:1026C000F189E02D830128E030E0A401898D9A8D05
:1026D0000995A98DBA8DED91FC9111970688F7891E
:1026E000E02DCD016A960FB6F894DEBF0FBECDBFC8
:1026F000DF91CF911F910F91FF90EF90DF90CF90DE
:10270000BF90AF909F908F907F906F905F904F9011
:102710003F902F9009941E96ED91FC91EF80F884E4
:1027200009851A8592014D815E816B817C81898D3D
:102730009A8D099590CF2F8138852615370509F494
:102740008ACF31E0B31207C0A31205C01C96ED91E9
:10275000FC91930178CF1E96ED91FC917301E0CF2F
:102760006B857C85641975090684F785E02D7301F6
:102770000F8518899201A401898D9A8D0995A9CF99
:10278000F90134969491329745915491D91AB7E052
:10279000DB9E400D511D1124F901259134913C8B94
:1027A0002B8BFA0125903490FA0132967490319671
:1027B0003491398B329664903196449041E04C15B7
:1027C00018F04A1508F07FC0662D062C000C770B18
:1027D0007C836B83842D042C000C990B9E838D834A
:1027E000A98DBA8DED91FC9111970284F385E02DAE
:1027F000CD010995512CD12CC12CEA2DF0E0FA879E
:10280000E9872B2D30E03C872B87A401440D511D17
:1028100047FC5A95588F4F8B69817A81660D711DDF
:1028200067FC7A957E876D877989C71608F051CF46
:102830002C2D30E04D815E81420F531FA985BA8552
:102840004A9FC0014B9F900D5A9F900D1124FC018F
:10285000E80DF91DF88BEF87852D612C4F89588D78
:10286000420F531F5E8B4D8B671408F050C04424F9
:102870004394480E877041F4C1010196EB89FC89AD
:10288000E20DF31DD4901C01D7FE19C0A98DBA8D9D
:10289000ED91FC91662D70E0B1E0BB1219C0AB1256
:1028A00017C02D853E85620F731F0484F585E02DCA
:1028B0002F8138854D895E89898D9A8D0995DD0C2A
:1028C0006394842DD1CF1E821D821C821B8288CFEF
:1028D0004B815C81640F751FAB85BC856A9FC0010D
:1028E0006B9F900D7A9F900D112469817A81680FFA
:1028F000791F0684F785E02DEF80F88409851A8515
:102900009D014F855889898D9A8D0995D8CF570C8F
:10291000C3948ACF6A960FB6F894DEBF0FBECDBFC0
:10292000DF91CF911F910F91FF90EF90DF90CF90AB
:10293000BF90AF909F908F907F906F905F904F90DF
:102940003F902F9008958F929F92AF92CF92EF92E7
:10295000FF920F931F93CF93DF93EC01262F898D66
:102960009A8D009709F051C06A30D1F41D861C86FB
:102970008D8948E0849F900111248E859F85820F68
:10298000931F9F878E8781E090E0DF91CF911F9109
:102990000F91FF90EF90CF90AF909F908F90089500
:1029A0006D3089F3CC88AD888F898823C1F08C8500
:1029B0009D8536E0C39E800D911D11244885598563
:1029C0004817590764F44E855F851D861C8638E0DC
:1029D000A39EC0011124840F951F9F878E87EA88CC
:1029E000FB88088919894E855F856C857D85CE01B8
:1029F0000E947E122C898C859D8546E0249F800D47
:102A0000911D11249D878C87BECF6A3069F41D8685
:102A10001C86FC013896E4912D898E859F85E29F66
:102A2000800D911D1124ADCF6D3009F4ACCFFC01A8
:102A300034963491631708F4A6CF3296E491E617E2
:102A400008F4A1CFFC01329685909490462F431B49
:102A5000342F47E0349F800C911C1124F4013296EE
:102A600034913196E4913323A9F1EE2399F1CC8886
:102A7000F4013596E491AD884F89442301F10E2E7F
:102A8000000CFF0BE30FF11DCE9EA001CF9E500D59
:102A900011246C857D85460F571F688579856417DD
:102AA00075076CF44E855F851D861C86FC01389683
:102AB000E491AE9E400D511D11245F874E87EA8838
:102AC000FB88088919894E855F856C857D85CE01D7
:102AD0000E947E12F4013496E4912C898C859D85A8
:102AE000E29F800D911D11248DCF6F927F928F9266
:102AF0009F92AF92BF92CF92DF92EF92FF920F938D
:102B00001F93CF93DF93EC016B015A013901480108
:102B1000E881F9810284F385E02D0995E881F98146
:102B20000288F389E02D87019301A501B601CE014A
:102B30000995A501480D591D41505109E881F981B8
:102B40000288F389E02D9301B601CE010995E88151
:102B5000F9810088F189E02D9401A501B601CE012B
:102B60000995C60CD71CB60161507109E881F9813D
:102B70000088F189E02D9401A501CE010995E88135
:102B8000F9810688F789E02DCE01DF91CF911F9161
:102B90000F91FF90EF90DF90CF90BF90AF909F90FC
:102BA0008F907F906F9009946F927F928F929F92F7
:102BB000AF92BF92CF92DF92EF92FF920F931F934B
:102BC000CF93DF935C01EB016A0149013801870172
:102BD000DC01ED91FC916217730719F56416750617
:102BE0002CF0962D872D3A01C92ED82E9601261944
:102BF00037092F5F3F4F048CF58DE02DA301BE01F7
:102C0000C5010995DF91CF911F910F91FF90EF9032
:102C1000DF90CF90BF90AF909F908F907F906F90FC
:102C200008954615570591F42617370724F0892D86
:102C30004B01C22FD82F9E01281939092F5F3F4F12
:102C4000068CF78DE02DA601B401DACF0284F3855E
:102C5000E02D0995D501ED91FC910488F589E02DD1
:102C600083019401A601BE01C5010995D501ED912D
:102C7000FC910688F789E02DC501DF91CF911F9166
:102C80000F91FF90EF90DF90CF90BF90AF909F900B
:102C90008F907F906F900994EF92FF920F931F9304
:102CA000DC011A960D911C911B9718962D913C9161
:102CB0001997ED91FC9100A0F1A1E02D7B0150E06E
:102CC00040E070E060E009951F910F91FF90EF9058
:102CD00008954F925F926F927F928F929F92AF92E0
:102CE000BF92CF92DF92EF92FF920F931F93CF93F9
:102CF000DF936C012B015A0139014801DC01ED9190
:102D0000FC910284F385E02D0995E201640C751CA9
:102D1000D601ED91FC91C615D7055CF40088F189C8
:102D2000E02D87019401A501BE01C60109952196F8
:102D3000EFCF0688F789E02DC601DF91CF911F9173
:102D40000F91FF90EF90DF90CF90BF90AF909F904A
:102D50008F907F906F905F904F9009948F929F9289
:102D6000AF92BF92CF92DF92EF92FF920F931F9399
:102D7000CF93DF93EC015B014A016901E881F9819E
:102D80000284F385E02D099595012C0D3D1D215000
:102D90003109E881F9810488F589E02D7801840101
:102DA000A401B501CE010995E881F9810688F7896A
:102DB000E02DCE01DF91CF911F910F91FF90EF9009
:102DC000DF90CF90BF90AF909F908F9009948F929B
:102DD0009F92AF92BF92CF92DF92EF92FF920F93AA
:102DE0001F93CF93DF93EC015B014A0169017801E6
:102DF000E881F9810284F385E02D0995C80CD91C7E
:102E0000860101501109E881F9810488F589E02DD6
:102E10009501A401B501CE010995E881F9810688E3
:102E2000F789E02DCE01DF91CF911F910F91FF9097
:102E3000EF90DF90CF90BF90AF909F908F900994CC
:102E4000EF92FF920F931F93DC01ED91FC9100A094
:102E5000F1A1E02D09951F910F91FF90EF9008953A
:102E60000F931F93DC01ED91FC91068CF78DE02D03
:102E700009951F910F9108950F931F93DC01ED9118
:102E8000FC91048CF58DE02D09951F910F9108950B
:102E9000DC01ED91FC910084F185E02D09943F92D5
:102EA0004F925F926F927F928F929F92AF92BF925A
:102EB000CF92DF92EF92FF920F931F93CF93DF9306
:102EC0005C017B014A016901390187E0680E711CD0
:102ED00093E0759467949A95E1F72B01400E511E8B
:102EE00010E000E0312CD0E0C0E0CE0187709927DF
:102EF000330C892B59F4FE0183E0F595E7958A950B
:102F0000E1F7E00FF11FE80DF91D349037FE0AC01C
:102F100021E030E0A701B5016C0F7D1F85ED95E044
:102F20000E9448172196CC16DD06F9F68FEFE81AB5
:102F3000F80A060D171DE414F504A9F6DF91CF91E8
:102F40001F910F91FF90EF90DF90CF90BF90AF90C7
:102F50009F908F907F906F905F904F903F900895DB
:102F60002F923F924F925F926F927F928F929F9299
:102F7000AF92BF92CF92DF92EF92FF920F931F9387
:102F8000CF93DF9300D000D000D0CDB7DEB73C01A7
:102F90006A013E832D83FC82EB825801A41AB50A94
:102FA000B7FE03C0B194A194B1088D809E80861AAB
:102FB000970A97FE03C09194819491088A149B0408
:102FC0005CF0902F812F0D811E819D838E839C2D1F
:102FD0008D2D6B01692F782F0C151D055CF09D81DF
:102FE0008E817E836D83692F782F902F812F8601AC
:102FF000C92ED82E1601201A310A2B012D813E81AF
:10300000421A530A57FE03C051944194510871016A
:1030100037FE03C03FEFE31AF30AF594E7948D817E
:103020009E81861797075CF5A1E0B0E0BA83A9837B
:10303000C016D1064CF1D301ED91FC910484F585C5
:10304000E02D2B813C81A8016D817E818A149B0437
:103050001CF04D815E81B801C3010995E418F508A3
:10306000F7FE0AC02D813E8189819A81280F391F80
:103070003E832D83E20CF31C0F5F1F4FD9CF2FEF40
:103080003FEF3A832983D4CF26960FB6F894DEBF5C
:103090000FBECDBFDF91CF911F910F91FF90EF90A9
:1030A000DF90CF90BF90AF909F908F907F906F9068
:1030B0005F904F903F902F900895089520915A026D
:1030C00030915B022817390781F490915902809161
:1030D0005802981751F0E0915902F0E0E852FE4F83
:1030E0008081082E000C990B08958FEF9FEF0895B3
:1030F000EF92FF920F931F93CF93DF93DC015C96C7
:10310000ED90FC905D97E114F10479F481E090E09A
:1031100013969C938E93129790E080E0DF91CF916D
:103120001F910F91FF90EF9008955196ED91FC91B2
:10313000529750968C915097982F90950FB75E9616
:103140002C915E97122F127021FD6095F8942081CA
:10315000112319F1282B2083E7012197F1F728E0AB
:10316000462F50E0308160FF1AC0382B3083E701D2
:103170002197F1F7BA0175956795215089F71123C9
:1031800081F08081892380830FBF5C968D919C9113
:103190000197F1F781E090E0C1CF2923DCCF3923FB
:1031A000E5CF9081892BEFCF20915A0230915B02BD
:1031B0002817390771F4809158022091590290E044
:1031C00080589F4F821B910960E870E00E94343C58
:1031D000089590E080E0089520915A0230915B02BA
:1031E00028173907B9F4909159028091580298171D
:1031F00089F0E0915902F0E0E852FE4F8081209181
:10320000590230E02F5F3F4F2F7733272093590229
:1032100090E008958FEF9FEF08950F931F93CF9342
:10322000DF930EE310E0811102C00CE310E0D0E068
:10323000C0E0219686EB95E00E94D418892B59F4C2
:103240006AE070E080E090E00E943E0BC83CD1054F
:1032500081F780E00BC086EB95E00E94EC188017A8
:10326000910771F781E0C83CD10599F3DF91CF91C7
:103270001F910F910895E0915A02F0915B02E817B7
:10328000F90769F4A389B4899C918589809589237C
:103290008C9310925B0210925A0281E0089580E0B4
:1032A0000895CF93DF93EC018A8D9B8D892B01F1DB
:1032B00080915A0290915B028C179D07C9F000978C
:1032C00011F00E943B198E8D8E7F8E8F10925802C6
:1032D00010925902D0935B02C0935A02EB89FC8989
:1032E00080819D89892B808381E0DF91CF91089532
:1032F00080E0FBCFFC01138E128E118E108E178A88
:10330000168A8DEC90E0958F848F84858631D8F570
:1033100025E530E0378B268B2BEC30E0318F208F8A
:1033200020E930E0338F228F90916800883070F16F
:1033300021E08E3008F420E081E001C0880F2A955A
:10334000EAF7892B8093680084852DE630E0883089
:1033500050F02BE630E08E3030F02CE630E0863155
:1033600010F030E020E0348B238B282F30E08830C1
:1033700078F491E001C0990F8A95EAF7958B848DD6
:10338000958D0197F1F7CF010C94511984E0D9CFB5
:103390008E3040F42850310991E001C0990F2A95F0
:1033A000EAF7ECCF2E503109F7CF90E080E0089596
:1033B0000F931F930E94700BAB01BC0180916002C0
:1033C00090916102A0916202B091630200915C024F
:1033D00010915D0220915E0230915F0248175907FB
:1033E0006A077B0778F0481B590B6A0B7B0B81E05F
:1033F00090E0401751076207730708F480E01F91BF
:103400000F91089580959095A095B095840F951F84
:10341000A61FB71F51E040E080179107A207B3072E
:1034200008F450E0852F942FEACF0F931F93CF938A
:10343000DF938C01C8ECD0E0F80161918F01CE01DF
:103440000E94DF3B2196C03DD105B1F788E090E0B6
:10345000DF91CF911F910F9108950F931F93CF93F9
:10346000DF938C01C4EFD1E0F80161918F01CE01AF
:103470000E94DF3B2196C132F2E0DF07A9F78DE21F
:1034800090E0DF91CF911F910F9108952091DB057E
:103490003091DC05C901079697FD079623E09595C5
:1034A00087952A95E1F72091D9053091DA05829F19
:1034B000A001839F500D929F500D112470E060E099
:1034C0008091F4059091F5050C946E4185ED809303
:1034D000BC0080916C0390916D03A0916E03B0913C
:1034E0006F030796A11DB11D23E0B695A79597958B
:1034F00087952A95D1F72091BC0024FD03C0109236
:10350000B903089540916C0350916D0360916E036F
:1035100070916F03452B462B472B69F30097A1054C
:10352000B10541F02AE12A95F1F700C00197A10900
:10353000B109E1CF80916B030C949E09FB010190CE
:103540000020E9F73197AF01461B570BDC01ED91E5
:10355000FC910280F381E02D09940F931F93CF9388
:10356000DF93EC010E949E1A8C016EE571E0CE01A2
:103570000E949E1A800F911FDF91CF911F910F9192
:1035800008956115710511F00C949E1A90E080E089
:1035900008950E9469411F920F920FB60F92112455
:1035A0002F933F934F935F936F937F938F939F934B
:1035B000AF93BF93EF93FF938091B900887F8036DC
:1035C00009F44AC0F0F5883209F4A7C018F5803133
:1035D00009F49BC0B8F4882309F4F9C0883009F4D1
:1035E00094C0FF91EF91BF91AF919F918F917F9187
:1035F0006F915F914F913F912F910F900FBE0F9060
:103600001F901895883109F488C0803251F7809353
:10361000B80314C0803409F49DC040F48033B9F37A
:103620008833F9F68093B80385ECB0C0803509F48F
:1036300085C0883509F496C0883499F60E94661AC8
:10364000D0CF883909F48CC038F5883729F050F488
:10365000883611F0803729F683E08093B903109201
:10366000B70357C0883809F47BC0803919F0803817
:1036700009F0B7CF8091B703803208F071C0E091B4
:10368000B70381E08E0F8093B7038091BB00F0E019
:10369000E956FC4F80833DC0803B39F0E0F4803A2E
:1036A00009F479C0883A09F09CCF84E08093B9038B
:1036B0001092940310929303E0919103F09192037E
:1036C00009958091930381110FC081E0809393034A
:1036D0001092710309C0803C09F4A6CF883C09F41C
:1036E000A3CF883B09F07DCFE091940381E08E0F5A
:1036F00080939403F0E0EF58FC4F80818093BB00EF
:10370000909194038091930329C08091DE0380936C
:10371000BB0085EC8093BC0064CF9091DD03809169
:10372000DC03981758F5E091DD0381E08E0F80935C
:10373000DD03F0E0E454FC4F8081E9CFE091DD034C
:1037400081E08E0F8093DD038091BB00F0E0E454B4
:10375000FC4F80839091DD038091DC039817C8F2C1
:1037600085E8D8CFE091DD0381E08E0F8093DD0303
:103770008091BB00F0E0E454FC4F80838091BB0358
:1037800081115CCF81E08093BA0384EA8093BC000E
:103790001092B90326CF85EC8093BC001092B90338
:1037A0008091B703803230F4E091B703F0E0E9563E
:1037B000FC4F10826091B70370E0E0919503F091A7
:1037C000960387E993E009951092B7030ACF109208
:1037D000B80334CF1F920F920FB60F9211242F937C
:1037E0003F938F939F93AF93BF93809121039091C9
:1037F0002203A0912303B09124033091200326E0FB
:10380000230F2D3758F50296A11DB11D20932003DB
:103810008093210390932203A0932303B093240366
:103820008091250390912603A0912703B09128034E
:103830000196A11DB11D8093250390932603A093AB
:103840002703B0932803BF91AF919F918F913F9130
:103850002F910F900FBE0F901F90189529E8230FFE
:103860000396A11DB11DD2CF1F920F920FB60F92DA
:1038700011242F933F934F935F936F937F938F9375
:103880009F93AF93BF93EF93FF93E0910201F09169
:1038900003010995FF91EF91BF91AF919F918F9196
:1038A0007F916F915F914F913F912F910F900FBE3C
:1038B0000F901F9018951F920F920FB60F92112420
:1038C0002F933F934F935F936F937F938F939F9328
:1038D000AF93BF93EF93FF93E0910001F09101014B
:1038E0000995FF91EF91BF91AF919F918F917F913A
:1038F0006F915F914F913F912F910F900FBE0F905D
:103900001F9018951F920F920FB60F9211242F93AC
:103910003F934F935F936F937F938F939F93AF9357
:10392000BF93EF93FF9383EE93E00E94DA0CFF9135
:10393000EF91BF91AF919F918F917F916F915F9127
:103940004F913F912F910F900FBE0F901F901895A0
:103950001F920F920FB60F9211242F938F939F9364
:10396000EF93FF93E091F303F091F4038081E091F2
:10397000F903F091FA0382FD1BC090818091FC0352
:103980008F5F8F732091FD03821741F0E091FC035C
:10399000F0E0ED51FC4F958F8093FC03FF91EF9188
:1039A0009F918F912F910F900FBE0F901F901895A0
:1039B0008081F4CF1F920F920FB60F9211242F9394
:1039C0003F934F935F936F937F938F939F93AF93A7
:1039D000BF93EF93FF93E0915A02F0915B0230970F
:1039E00049F0A685B7858585968D91FF14C09C9179
:1039F0008923A1F4FF91EF91BF91AF919F918F9196
:103A00007F916F915F914F913F912F910F900FBEDA
:103A10000F901F9018959C91892361F7A389B48911
:103A20009C918589809589238C93868997890197B4
:103A3000F1F7608D718DA685B785558538E020E05A
:103A4000CB010197F1F7822F90E095958795282F6C
:103A50004C91452309F02068315091F7868D81FD06
:103A600020958091580290E001968F7799273091A8
:103A70005902381799F0A0915802B0E0A852BE4FF1
:103A80002C9380935802828D938D0197F1F7A3892F
:103A9000B4898C919589892B8C93ACCF868D81606C
:103AA000868FF1CF0F931F93CF93DF93EC01162FE7
:103AB000042F1B821A8288EE93E0A0E0B0E08C8392
:103AC0009D83AE83BF8382E191E0998388831F8ABF
:103AD0001E8A198E188E1B8E1A8E1D8E1C8E6E8D50
:103AE0006E7F6D7F6E8F6695617081E06827842F91
:103AF0000E94340961E0802F0E94BF09802F90E06E
:103B0000FC01EC51F24FE491E88BFC01E053F24FE1
:103B1000E491F0E0EE0FFF1FEA53F24F859194918C
:103B20009A8B898B60E0812F0E94BF098E8D81FD69
:103B300004C061E0812F0E9434091C87812F90E02E
:103B4000FC01EC51F24FE491ED87FC01E053F24FA0
:103B5000E491F0E0EE0FFF1FE454F24F8591949151
:103B60009F878E87DF91CF911F910F910895CF93FB
:103B7000E3EEF3E01382128288EE93E0A0E0B0E07F
:103B800084839583A683B78384E291E091838083C5
:103B900085EC90E09587848784EC90E09787868712
:103BA00080EC90E0918B808B81EC90E0938B828B0A
:103BB00082EC90E0958B848B86EC90E0978B868BE3
:103BC000118E128E138E148EE5EDF5E013821282A3
:103BD00020E830E03583248380E290E09783868379
:103BE0003187208793878287168A158614861786E1
:103BF0001686C1E0C58BC48B8FEF9FEF938B828BB2
:103C0000918B808BC78B108E128E118E86E391E084
:103C100091838083148E138E168E158E10A2178EAC
:103C200089E084A38AE085A38BE086A38CE087A348
:103C30008DE080A780E586AFC7AF45E066E086EB04
:103C400095E00E94521DE2E4F5E04FEF5FEFBA010C
:103C50004083518362837383108611861286138694
:103C60008FEF99ECAAE9BBE3808B918BA28BB38B8E
:103C7000808F918FA28FB38F80A391A3A2A3B3A3B0
:103C800080A791A7A2A7B3A780AB91ABA2ABB3AB20
:103C900040AF51AF62AF73AF8FEF90E09093830569
:103CA000809382054093860550938705609388052D
:103CB0007093890540938E0550938F05609390050E
:103CC00070939105109296051092970582E080936B
:103CD000A7051092A8051092A9051092AA051092A6
:103CE000AC051092AD051092AE051092AF05109282
:103CF000B1051092B0051092B3051092B205109262
:103D00009805C093AB0547E068E083E295E00E9428
:103D1000521DE9E1F5E086EB95E0918380838CEE1E
:103D200094E09383828384EE94E09583848380E897
:103D300094E09783868384E690E091878087CF9193
:103D40000895CF93DF93CDB7DEB7AE970FB6F89453
:103D5000DEBF0FBECDBF789484B5826084BD84B5CC
:103D6000816084BD85B5826085BD85B5816085BD76
:103D700080916E00816080936E001092810080912E
:103D800081008260809381008091810081608093B6
:103D90008100809180008160809380008091B100DB
:103DA00084608093B1008091B00081608093B00006
:103DB00080917A00846080937A0080917A0082609A
:103DC00080937A0080917A008E7F80937A00809130
:103DD0007A00806880937A001092C10062E083E0EC
:103DE0000E94BF0961E082E10E94BF0960E083E1B7
:103DF0000E94BF09E091F303F091F40382E0808315
:103E0000E091EF03F091F0031082E091F103F09163
:103E1000F20387E680831092FB03E091F703F091B1
:103E2000F80386E08083E091F503F091F60380814A
:103E300080618083E091F503F091F60380818860D2
:103E40008083E091F503F091F603808180688083A0
:103E5000E091F503F091F60380818F7D8083E091FE
:103E60001B05F0911C058DE2DF011D928A95E9F793
:103E7000E0901B05F0901C0504EF11E0C8010E94C2
:103E8000D73BF70181937F010F5F1F4F0132F2E0B3
:103E90001F07A1F7E0911B05F0911C05808191811E
:103EA000A281B3818D30904FAE4FBA4509F452C014
:103EB0008DE2DF011D928A95E9F7E0911B05F091F3
:103EC0001C058DE090EFAEEFBAE580839183A2836D
:103ED000B383E0911B05F0911C05178A168A89E0CF
:103EE00083A38EEB96E09F938F93B496FF93EF930B
:103EF0000E94FF36E0911B05F0911C058CE3808F3A
:103F000080E090E0A7EAB3E4818F928FA38FB48F13
:103F100080E090E0A4E1B2E4858F968FA78FB0A3F4
:103F200084E690E093A782A7CF010E942D1AE0912A
:103F30001D05F0911E0588E0DF011D928A95E9F7C5
:103F400080911D0590911E050E94151A0F900F90EB
:103F50000F900F9086EB95E00E947A1961E084E063
:103F60000E94BF0986EB95E00E94511960E084E051
:103F70000E94340964E670E080E090E00E943E0B0D
:103F800061E084E00E94340981E00E940D198111F2
:103F9000A6C081E08093DB02C0908902CC2009F4A6
:103FA00077C28091190590911A050E94511980914C
:103FB00022058F93809121058F9380E29CE09F934F
:103FC0008F9382EC96E09F938F93809120058F933F
:103FD00080911F058F930E94FF3660911F0570919D
:103FE00020058091190590911A050E94C11A8091AF
:103FF000190590911A05DC01ED91FC910190F08179
:10400000E02D6DE009950FB6F894DEBF0FBECDBF71
:104010008091190590911A05DC01ED91FC910084C5
:10402000F185E02D0995892B99F3809119059091DF
:104030001A05DC01ED91FC910284F385E02D0995D0
:104040008D3011F08A3021F74091210550912205E1
:1040500070E060E080911F05909120050E946E4104
:10406000B12C10E000E08091190590911A05DC0157
:10407000ED91FC910084F185E02D0995EB2CF12C5C
:10408000892BA9F08091190590911A05DC01ED9119
:10409000FC910284F385E02D0995B394E0911F050E
:1040A000F0912005EE0DFF1D808310E000E061E03F
:1040B00070E080E090E00E943E0B8091210590919D
:1040C0002205B816190631F00F5F1F4F083EB3E006
:1040D0001B0749F680E0D12C28E0922E14C081E025
:1040E0008093890259CFFD01E80FF11D20812D3306
:1040F00009F443C0203211F0293009F410828F5F97
:104100009813F1CF8A2D8B1508F0BAC120911F05A5
:1041100030912005D901A80FB11D40912105509182
:104120002205E82F9E2F981BAA24A394AE0EE20F1F
:10413000F32FF11D60816A3031F06D3021F0EA2DEE
:10414000A416150679F7FD01E90FF11D10828C9177
:104150008823C1F28332B1F29330A0F29D0180E056
:104160007901F90140812F5F3F4F403211F0493012
:1041700039F68F5F9813F4CFC5CF981719F28F5F78
:1041800010828D01080F111DF8012081203211F0DD
:10419000293021F48F5F9813F4CFB4CF981709F426
:1041A000B1CF68E671E0C7010E947541892B11F516
:1041B000C8010E94D936BC01990F880B990B0E9447
:1041C000393E2B013C0100911B0510911C05D801C3
:1041D00059962D913D914D915C915C970E94853D42
:1041E000882309F48FCFF801418E528E638E748E2E
:1041F000DC2C88CF6DE671E0C7010E947541892BE8
:1042000009F5C8010E94D936BC01990F880B990B9A
:104210000E94393E2B013C0100911B0510911C05A9
:10422000D8015D962D913D914D915C9190970E94A2
:10423000853D882309F466CFF801458E568E678E3A
:1042400070A2D6CF62E771E0C7010E947541892B49
:1042500099F4E0901B05F0901C05F6E0EF0EF11CC0
:10426000B801C7010E947541892B09F44BCFB801F1
:10427000C7010E947E41BCCF65E771E0C7010E9483
:104280007541892BA9F4E0901B05F0901C05C8012D
:104290000E94D936D70156962D913C9157972817F1
:1042A000390709F42FCF57969C938E935697A0CF3A
:1042B00069E771E0C7010E947541892B79F4E090AC
:1042C0001B05F0901C05C8010E94D936F701248116
:1042D0002817190609F416CF84838ACF6CE771E09A
:1042E000C7010E947541892B91F4E0901B05F09065
:1042F0001C05C8010E94D936D70115962C91159737
:104300002817190609F4FECE15968C9371CF6FE726
:1043100071E0C7010E947541892B89F4E0901B056B
:10432000F0901C05C8010E94D936F70121A132A1E5
:104330002817390709F4E6CE92A381A359CF62E882
:1043400071E0C7010E947541892B59F4D801139679
:104350001C92E0901B05F0901C05B4E2EB0EF11CE2
:104360007FCF65E871E0C7010E947541892B79F420
:10437000E0901B05F0901C05C8010E94D936F7019A
:1043800023A12817190609F4BDCE83A331CF68E80D
:1043900071E0C7010E947541892B91F4E0901B05E3
:1043A000F0901C05C8010E94D936D70198962C912F
:1043B00098972817190609F4A5CE98968C9318CFCC
:1043C0006BE871E0C7010E947541892B79F4E09098
:1043D0001B05F0901C05C8010E94D936F70121A5E4
:1043E0002817190609F48ECE81A702CF6EE871E076
:1043F000C7010E947541892BA9F4E0901B05F0903C
:104400001C05C8010E94D936D7019A962D913C917E
:104410009B972817390709F475CE9B969C938E932A
:104420009A97E6CE61E971E0C7010E947541892B38
:1044300079F4E0901B05F0901C05C8010E94D93664
:10444000F70124A52817190609F45CCE84A7D0CE5D
:1044500064E971E0C7010E947541892B09F052CED1
:10446000E0911D05F0911E05DF01292D1D922A9571
:10447000E9F780911D0590911E050E94151A42CE04
:10448000DD2031F080911B0590911C050E942D1AB2
:1044900088E893E1A0E0B0E080935C0290935D0235
:1044A000A0935E02B0935F021092660210926502C2
:1044B00081E59CE090930101809300018091690067
:1044C000836080936900E89A0E94700B6093600299
:1044D000709361028093620290936302109266026D
:1044E0001092650210921F0310921E0383E295E062
:1044F0000E947A1983E295E00E94511900E814E0C5
:1045000084E6F82ED801EF2D1D92EA95E9F780E0B8
:1045100097E09F938F931F930F930E94FF36B801EC
:1045200083E295E00E94AD1AD801EF2D1D92EA9525
:10453000E9F78FEE96E09F938F931F930F930E945E
:10454000FF36B80183E295E00E94AD1AD801EF2D45
:104550001D92EA95E9F78FED96E09F938F931F9355
:104560000F930E94FF36B80183E295E00E94AD1AD6
:10457000D8011D92FA94E9F78FEC96E09F938F9300
:104580001F930F930E94FF36B80183E295E00E94CB
:10459000AD1A94EEE92E94E0F92E0FB6F894DEBF32
:1045A0000FBECDBF08EC10E0C8010E94D73BD70179
:1045B0008D937D010F5F1F4F003D1105A9F783E02B
:1045C000809307018091F4059091F505892B11F1F5
:1045D0000E94461A2091DB053091DC058091D905B7
:1045E0009091DA05213231050CF03CC3B9016052DB
:1045F000710977FF02C06F5F7F4F7595679583578D
:10460000910997FD019600E210E023E730E044E4D1
:1046100057E03BC32091DB053091DC05C9010796CB
:1046200097FD0796B3E095958795BA95E1F72091A8
:10463000D9053091DA05FC01E29FC001E39F900D9E
:10464000F29F900D11240E9444409093F5058093B1
:10465000F405892B09F0BCCF0E94E11068EE73E0ED
:1046600080E090E00E943E0B0E94461A81E090E0BC
:104670009093E8058093E7059093E6058093E50520
:104680008093E9058093EA0589E991E09F938F93F0
:1046900081E19CE09F938F930EEA12E01F930F93AA
:1046A0000E94FF36D8010D900020E9F78D010E5AC7
:1046B000124086E0809F9001819F300D112480E898
:1046C00090E0821B930B969587959093E2058093DB
:1046D000E1051092E4051092E3050F900F900F9002
:1046E0000F900F900F908091F0046FE971E0882394
:1046F00011F061EA71E085ED95E00E94C11A6EEA61
:1047000072E085ED95E00E94C11A88E090E09093F8
:10471000E2058093E1059093E4058093E3050E9410
:10472000160A20E030E040EF51E40E94A63C20E071
:1047300030E048E451E40E945C3F0E94013E6C5E20
:104740007F4F77FD85C46536710514F064E670E02F
:104750007F936F9383E09CE09F938F930EEA12E028
:104760001F930F930E94FF36B80185ED95E00E94DC
:10477000C11A80E09CE09F938F931F930F930E9438
:10478000FF36B80185ED95E00E94C11A87E390E0FD
:104790009093E2058093E105E0E1EE2EF12CF0929A
:1047A000E405E092E30580910E058F9380910D055D
:1047B0008F9387EF9BE09F938F931F930F930E949C
:1047C000FF36B80185ED95E00E94C11A83EF9BE0AA
:1047D0009F938F931F930F930E94FF36B80185ED2F
:1047E00095E00E94C11AF8E0CF2ED12CD092E205BC
:1047F000C092E105F092E405E092E305809118058E
:104800001F928F938AEE9BE09F938F931F930F933A
:104810000E94FF36B80185ED95E00E94C11AFF2481
:10482000F394F092E905F092EA0585E590E0909323
:10483000E2058093E105D092E405C092E305809102
:1048400003058F93809102058F9384EE9BE09F93E5
:104850008F931F930F930E94FF360FB6F894DEBF1D
:104860000FBECDBFB80185ED95E00E94C11AF09250
:10487000E905F092EA058091F204882329F182EF9C
:1048800094E0DC010D900020E9F7CD01835F9440B6
:1048900046E0489F9001499F300D112480E890E048
:1048A000821B930B969587959093E2058093E10583
:1048B00088E190E09093E4058093E30562EF74E073
:1048C00085ED95E00E94C11A0E94E11068E273E252
:1048D00080E090E00E943E0B83E10E94FB09853F4F
:1048E00091400CF4B8C31092F0040E94160A20E024
:1048F00030E040EF51E40E94A63C0E94013E1616B3
:1049000017064CF068EE73E080E090E00E943E0BEA
:1049100081E08093F00483E295E00E9451190E94A7
:10492000700B6B017C0101E00E94700BAB01BC01BC
:10493000D701C601841B950BA60BB70BC416D50671
:10494000E606F70620F480959095A095B095883EF0
:104950009340A105B10528F40E94D819892B09F4C8
:1049600080C50E94D819892B11F40C94D7328091FC
:1049700065029091660220911E0330911F031C0175
:10498000221A330A910150E040E02D8B3E8B4F8B71
:10499000588F90931F0380931E0380911A03909168
:1049A0001B03A0911C03B0911D03FC01EE0FFF1F20
:1049B000EE0FFF1FE651FD4F208331834283538367
:1049C000BC01CD016F5F7F4F8F4F9F4F2CE030E0D8
:1049D00040E050E00E94483C60931A0370931B0330
:1049E00080931C0390931D03EAEEF2E02AE133E08A
:1049F00060E070E0CB01C190D190E190F1906C0D3E
:104A00007D1D8E1D9F1D2E173F07A9F70E94373E63
:104A10006B017C0122EB35EC4CEF55E30E945C3FCF
:104A20009B01AC0160E070E080E89FE30E94A63C3F
:104A30009B01AC01C701B6010E948F3D0E94083E58
:104A40006D877E878F87988B8091E6029091E70231
:104A5000A091E802B091E9022D893E894F89588DD5
:104A6000820F931FA41FB51F8093E6029093E70265
:104A7000A093E802B093E9028091E2029091E302F0
:104A8000A091E402B091E5020596A11DB11D8093AD
:104A9000E2029093E302A093E402B093E5028091D6
:104AA000DE029091DF02A091E002B091E1022D853B
:104AB0003E854F85588982179307A407B50740F4B0
:104AC0002093DE023093DF024093E0025093E10234
:104AD0008091E4049091E504A091E604B091E7048C
:104AE0002D893E894F89588D820F931FA41FB51FB2
:104AF0008093E4049093E504A093E604B093E70464
:104B00006091E8047091E9048091EA049091EB04CB
:104B10006B5F7F4F8F4F9F4F6093E8047093E90462
:104B20008093EA049093EB0420E13EE040E050E003
:104B30000E94483C672B682B692B21F484EE94E09B
:104B40000E94151A8091DC029091DD028C30910553
:104B50000CF098C526E52093060101969093DD029E
:104B60008093DC028091DB028111C8C58091050130
:104B7000813409F0C3C58DED97E09E838D831C863B
:104B80001B861A86198618861F82DE0111965D0122
:104B9000FE0137966F019E01285F3F4F79018E011C
:104BA000075F1F4F2E5F3F4FAE01455F5F4FBE0156
:104BB000645F7F4FCE0105960E947C0B89819A81AC
:104BC000AB81BC818F3F9F4FAF4FBF4F09F496C55C
:104BD0008B851F928F938C851F928F9380910305F5
:104BE0008F93809102058F938DE29CE09F938F932A
:104BF0008EEC92E09F938F930E94FF3681E080932A
:104C0000DB0286EB95E00E9451190FB6F894DEBFE7
:104C10000FBECDBF6FEA71E086EB95E00E94C11A2E
:104C20006EEC72E086EB95E00E94C11A6DE086EBB7
:104C300095E00E94781880E00E940D19811130C51E
:104C400060E084E00E94340964E670E080E090E077
:104C50000E943E0B61E084E00E94340981E00E94E2
:104C60000D19D8CFB9016054710977FF02C06F5F89
:104C70007F4F759567958255910997FD019600E4E0
:104C800010E022E530E044E259E0959587950E94D6
:104C90004F1782E08093F7058091F2059091F3051C
:104CA000892B09F4DFC08CE38093F60510926A0328
:104CB000109269031092E0031092DF030E948009B2
:104CC0008DEA98E090939203809391038EEA98E0A6
:104CD00090939603809395038091FD0587FD1EC0F8
:104CE00061E00E94BF0961E08091FD050E943409E6
:104CF00061E070E080E090E00E943E0B60E0809117
:104D0000FD050E9434096AE070E080E090E00E94B6
:104D10003E0B61E08091FD050E9434098091F2050F
:104D20009091F305892B09F45CC120910A0630911A
:104D30000B0640910C0650910D0660E072E18AE787
:104D400090E00E94483C2051310941095109569593
:104D50004795379527952093B80064E080E497E065
:104D60000E94C70F6091DB05615085ED95E00E94C0
:104D70007C1064E08CE397E00E94C70F8091F705F8
:104D800060E1813009F064E185ED95E00E947C10DE
:104D900064E088E397E00E94C70F8FE880931206D3
:104DA0008091D9059091DA058038910509F032C1DA
:104DB0008091DB059091DC058034910509F03AC1C2
:104DC0008091F705813009F023C18FE980931206A5
:104DD00012E16AED85ED95E00E947C10612F85ED72
:104DE00095E00E947C1061E885ED95E00E947C10C2
:104DF0006091120685ED95E00E947C1069ED85EDCD
:104E000095E00E947C108091F70562E2813009F004
:104E100061EF85ED95E00E947C1066E082E397E00B
:104E20000E94C70F8091F2059091F305892B09F438
:104E300005C120910E0630910F0640911006509149
:104E4000110660E072E18AE790E00E94483C205140
:104E50003109410951095695479537952795209372
:104E6000B800FACB61E08091FB050E94BF0961E0C8
:104E70008091FC050E94BF098091FB05082E000C63
:104E8000990BFC01E053F24FE491F0E0EE0FFF1FAD
:104E9000EA53F24F25913491309303062093020692
:104EA000FC01EC51F24FE491E09308068091FC057F
:104EB000082E000C990BFC01E053F24FE491F0E056
:104EC000EE0FFF1FEA53F24FA591B491B093050680
:104ED000A0930406FC01EC51F24FE491E093090623
:104EE0008C91E82BEC938091F0059091F105892B42
:104EF00009F434C01FB7F89480916402811127C06F
:104F0000EAEDFDE08491EEEEFDE09491E82FF0E013
:104F1000EE0FFF1FE756F24FA591B491EC91E923F4
:104F200021F461E08AE00E94340961E08AE00E9495
:104F3000BF098CB580618CBD8CB580648CBD61E08F
:104F40008DE00E94BF0961E08BE00E94BF09809163
:104F500064028F5F809364021FBFBECE61E08091C8
:104F6000F9050E94BF0961E08091FA050E94BF091E
:104F70008091F905082E000C990BFC01E053F24FCB
:104F8000E491F0E0EE0FFF1FEA53F24F25913491C8
:104F90003093FF052093FE05FC01EC51F24FE491A4
:104FA000E09306068091FA05082E000C990BFC018F
:104FB000E053F24FE491F0E0EE0FFF1FEA53F24F9F
:104FC000A591B491B0930106A0930006FC01EC51A9
:104FD000F24FE491E09307068C91E095E823EC937F
:104FE0007BCE8091F0059091F105892B31F0809175
:104FF0001306909114060E94DE10E0910406F091D1
:105000000506908180910906809589238083A5CE2D
:105010008FECDCCE8036910569F48091DB059091B0
:10502000DC05409739F48091F705813029F480E15F
:105030008093120612E0CDCE8FEAFACFE0910406FB
:10504000F0910506808190910906892B808304CB1D
:1050500061E070E07DCB81E08093F00460E082E16C
:105060000E94340942CC1A3209F426C21C3209F0DB
:10507000F5C2809196058127809396051DC2215621
:10508000263018F48755910931C2C0972FC2915626
:10509000963018F42755310938C22053310935C2EA
:1050A0008091660590916705A0916805B0916905AA
:1050B0008093620590936305A0936405B0936505A2
:1050C0008091460590914705A0914805B09149050A
:1050D0008093420590934305A0934405B093450502
:1050E0008091560590915705A0915805B0915905AA
:1050F0008093520590935305A0935405B0935505A2
:1051000080915E0590915F05A0916005B091610569
:1051100080935A0590935B05A0935C05B0935D0561
:1051200080918405909185059093830580938205F5
:1051300080917E0590917F05A0918005B0918105B9
:1051400080937A0590937B05A0937C05B0937D05B1
:1051500077C28091460590914705A0914805B0918E
:1051600049050097A105B10509F46AC240918A0575
:1051700050918B0560918C0570918D05409386054B
:105180005093870560938805709389052091A70542
:105190002223E1F0213009F053C28093420590931D
:1051A0004305A0934405B093450580914E05909129
:1051B0004F05A0915005B091510580934A059093F9
:1051C0004B05A0934C05B0934D053AC28093420520
:1051D00090934305A0934405B093450531C2809157
:1051E000B2059091B30501969093B3058093B205F3
:1051F00027C291111FC048E955E0E3EAF1E09A01A6
:10520000D9018D919D01882311F40C948C369191D4
:105210008917B1F3E9EAF1E0DA018D91AD01882354
:1052200011F40C94903691918917B1F342E04093B8
:10523000A70506C2E091A705E23009F401C28091FA
:105240009805882309F4FCC1B0E2EB9FF00111241A
:10525000E92B3197E932F10508F0F2C1EE5CF64D29
:105260000C946A3C5B2976299229AD29BF29FD2936
:10527000042A0E2A192A202B202B202B202B202B0E
:10528000202B202B202B202B202B202B202B202BC6
:10529000202B202B202B202B202B202B202B202BB6
:1052A000202B202B5B29702976299229AD29BF2933
:1052B000DA29E529F0290E944E076093460570938C
:1052C000470580934805909349050E94700B6093B1
:1052D0008A0570938B0580938C0590938D05B0C1E2
:1052E00091E0813409F48DC090E08BC08091AB05D2
:1052F0008823A9F00E9424086093560570935705EF
:1053000080935805909359050E94700B6093920505
:1053100070939305809394059093950591C10E9495
:10532000A307EACF833509F08BC180915605909190
:105330005705A0915805B0915905B095A095909545
:1053400081959F4FAF4FBF4F809356059093570560
:10535000A0935805B093590573C18091AB0588237C
:1053600059F00E94240860935E0570935F05809356
:1053700060059093610564C10E94A307F4CF87354F
:1053800009F05EC180915E0590915F05A091600576
:10539000B0916105B095A095909581959F4FAF4FC5
:1053A000BF4F80935E0590935F05A0936005B09317
:1053B000610546C10E944E0760936E0570936F05AC
:1053C00080937005909371053BC10E944E076093D6
:1053D000760570937705809378059093790530C1B1
:1053E00088E995E00E94280760934E0570934F0569
:1053F000809350059093510523C191E081330CF4C3
:1054000073CF9093AA051CC188E995E00E94D93614
:105410009927909385058093840512C10E944E07B9
:1054200060937E0570937F0580938005909381053E
:1054300007C10E944E0760936605709367058093CD
:10544000680590936905FCC01092A9051092A80503
:1054500010929605E2E0E093A7051092970510924E
:10546000AA0583E295E00E94D418892B09F45CCA4E
:1054700083E295E00E94EC18182F8091AC05909182
:10548000AD05A091AE05B091AF050196A11DB11D6E
:105490008093AC059093AD05A093AE05B093AF0596
:1054A000143291F2E091A90515320CF0DCCD1A30DE
:1054B00019F01D3009F0D2C0EF3008F0C1C0909152
:1054C000A805F0E0E856FA4F1082809197058823EE
:1054D00009F48FCE20919805822F022E000C990B93
:1054E0003FEB320F363008F0CACDC7978295807FE8
:1054F00090919905292F092E000C330B4FEB490F82
:10550000463008F0C4CD27533109820F909196059B
:10551000891365CE8091AA05882309F41ACE80915B
:10552000B0059091B10501969093B1058093B005B7
:1055300080918A0590918B05A0918C05B0918D0585
:105540008093860590938705A0938805B09389057D
:105550008091920590919305A0919405B091950545
:1055600080938E0590938F05A0939005B09391053D
:105570008091A705882309F493CD813009F060C09C
:105580008091460590914705A0914805B091490545
:105590008093420590934305A0934405B09345053D
:1055A00080914E0590914F05A0915005B091510505
:1055B00080934A0590934B05A0934C05B0934D05FD
:1055C0008091560590915705A0915805B0915905C5
:1055D0008093520590935305A0935405B0935505BD
:1055E00080915E0590915F05A0916005B091610585
:1055F00080935A0590935B05A0935C05B0935D057D
:1056000080916E0590916F05A0917005B091710524
:1056100080936A0590936B05A0936C05B0936D051C
:105620008091760590917705A0917805B0917905E4
:105630008093720590937305A0937405B0937505DC
:105640008091A8058F5F8093A8051092A90581E03D
:105650001A3209F080E08093970503CFEE3040F4D2
:1056600081E08E0F8093A905F0E0E856FA4F108391
:10567000809197058111F5CE80919605182710939A
:105680009605EFCE8D859E85AF85B889892B8A2BAF
:105690008B2B21F486E58093060164CA81E4FBCF5D
:1056A00085E89DE09F938F930EEA12E01F930F937E
:1056B0000E94FF36B80186EB95E00E94C11A8FE781
:1056C0009DE09F938F931F930F930E94FF36B80125
:1056D00086EB95E00E94C11A8BE69DE09F938F9325
:1056E0001F930F930E94FF36B80186EB95E00E944E
:1056F000C11A0FB6F894DEBF0FBECDBFE0E8F4E0EC
:1057000084E6DF011D928A95E9F78DED97E09E838F
:105710008D831C861B861A86198618861F828CE04C
:10572000E2EAF2E0DF01282F1D922A95E9F7E6E987
:10573000F2E0DF011D928A95E9F7EEEAF2E080E2FD
:10574000DF011D928A95E9F7FE0131965F019E0106
:10575000295F3F4F6901AE01485F5F4F7A018E01BB
:10576000075F1F4F2D5F3F4F4D5F5F4FBE01645F6F
:105770007F4FCE0105960E947C0B89819A81AB8177
:10578000BC818F3F9F4FAF4FBF4F51F48CED97E0DF
:105790009E838D831C861B861A86198618861F8217
:1057A0008090520590905305A0905405B0905505F7
:1057B00040905A0550905B0560905C0570905D05C7
:1057C00080918E0590918F05A0919005B0919105E3
:1057D0008F3F6FEF9607A607B60781F00E94700B08
:1057E00000918E0510918F052091900530919105C3
:1057F000DC01CB01801B910BA20BB30B89839A8335
:10580000AB83BC838091AA058111B1C186E58093E9
:105810000501609162057091630580916405909126
:1058200065056F3FA9EC7A07AAE98A07ABE39A07F7
:1058300009F49FC10E94393E20E030E048EC52E478
:105840000E948F3D6BA77CA78DA79EA760916A05DC
:1058500070916B0580916C0590916D05C12CD12CD8
:1058600030E8E32E3FEBF32E6F3F29EC72072AE975
:1058700082072BE39207E1F00E94373E20E030E000
:1058800048EC52E40E948F3D6B017C0120E030E047
:1058900040E85FEB0E94853D882351F026E53EE01D
:1058A0004DEE5FE3C701B6010E945C3F6B017C01D6
:1058B00040918205509183055E8F4D8F80917A05CE
:1058C00090917B05A0917C05B0917D05898B9A8B89
:1058D000AB8BBC8BB7FE55C1B094A09490948094D0
:1058E000811C911CA11CB11C93E59BA377FE4CC1AC
:1058F0007094609450944094411C511C611C711C24
:10590000B7E5BF8FB401C501FFEF8F16F9EC9F0615
:10591000FAE9AF06FBE3BF0621F460E070E080E047
:1059200090E020EA36E841E050E00E94483C122F27
:10593000032F498F5FA32AE030E040E050E00E944F
:10594000483C5F934F933F932F932FA12F93398D13
:105950003F930F931F9386E69CE09F938F9382EA79
:1059600092E09F938F930E94FF360FB6F894DEBFAC
:105970000FBECDBFB201C3015FEF451659EC55060E
:105980005AE965065BE3750621F460E070E080E0AB
:1059900090E020EA36E841E050E00E94483C122FB7
:1059A000032F498F5FA32AE030E040E050E00E94DF
:1059B000483C5F934F933F932F936FA16F93898DD3
:1059C0008F930F931F938AE59CE09F938F9386E9B3
:1059D00092E09F938F930E94FF360FB6F894DEBF3C
:1059E0000FBECDBF20E034E244E759E46BA57CA5AF
:1059F0008DA59EA50E94853D882309F4C8C0FBA5FE
:105A0000ECA55DA53EA50EEA12E022E040E06F2F76
:105A10007E2F852F932F0E94BB36E0E8F4E084E6CA
:105A2000DF011D928A95E9F729893A894B895C89BA
:105A30002F3F3F4F4F4F5F4F21F4198A1A8A1B8A1D
:105A40001C8A8D8D9E8D8F3F910509F4A5C08D8D8B
:105A50009E8DAC89AF93BB89BF93EA89EF93F98997
:105A6000FF939F938F9380910501282F082E000CA0
:105A7000330B3F938F938EEA92E09F938F931F9205
:105A80002F8D2F9386E992E09F938F931F923BA1D6
:105A90003F9382EA92E09F938F9380910601282F93
:105AA000082E000C330B3F938F938091E9028F9364
:105AB0008091E8028F938091E7028F938091E602B4
:105AC0008F931F921F924E894F935D895F936889D0
:105AD0006F938F858F939E859F93AD85AF938885B8
