:100000000C9402030C94C9110C94A2110C94481284
:100010000C9448120C9448120C942A030C942A0352
:100020000C942A030C942A030C942A030C942A039C
:100030000C942A030C942A030C942A030C942A038C
:100040000C9458110C942A030C9416120C94F01171
:100050000C942A030C942A030C942A030C942A036C
:100060000C9439100C942A03084AD73B3BCE016EFE
:1000700084BCBFFDC12F3D6C74319ABD56833DDAFF
:100080003D00C77F11BED9E4BB4C3E916BAAAABE0E
:10009000000000803F05A84CCDB2D44EB93836A937
:1000A000020C50B9918688083CA6AAAA2ABE000074
:1000B00000803F0000407A10F35A00A0724E1809E9
:1000C0000010A5D4E80000E87648170000E40B54BF
:1000D000020000CA9A3B000000E1F505000080968E
:1000E0009800000040420F000000A08601000000C0
:1000F000102700000000E80300000000640000007A
:1001000000000A00000000000100000000002C7642
:10011000D888DC674F0823DFC1DFAE59E1B1B7965D
:10012000E5E3E453C63AE651997696E8E6C28426BA
:10013000EB898C9B62ED407C6FFCEFBC9C9F40F296
:10014000BAA56FA5F490055A2AF75C936B6CF96712
:100150006DC11BFCE0E40D47FEF520E6B500D0EDD7
:10016000902E0300943577050080841E080000203F
:100170004E0A000000C80C333333330F986E1283DD
:100180001141EF8D2114893BE65516CFFEE6DB18B1
:10019000D1844B381BF77C1D901DA4BBE424203276
:1001A00084725E228100C9F124ECA1E53D270000A4
:1001B00000000000005F00000007000700147F142B
:1001C0007F14242A7F2A122313086462364956209A
:1001D000500008070300001C2241000041221C00BF
:1001E0002A1C7F1C2A08083E08080080703000087E
:1001F00008080808000060600020100804023E5152
:1002000049453E00427F40007249494946214149E3
:100210004D331814127F1027454545393C4A49494A
:100220003141211109073649494936464949291EB4
:1002300000001400000040340000000814224114A3
:1002400014141414004122140802015909063E41F5
:100250005D594E7C1211127C7F494949363E41411D
:1002600041227F4141413E7F494949417F09090976
:10027000013E414151737F0808087F00417F4100E2
:100280002040413F017F081422417F404040407F91
:10029000021C027F7F0408107F3E4141413E7F09DE
:1002A0000909063E4151215E7F091929462649491F
:1002B000493203017F01033F4040403F1F2040205F
:1002C0001F3F4038403F631408146303047804035D
:1002D0006159494D43007F4141410204081020000B
:1002E0004141417F0402010204404040404000037C
:1002F00007080020545478407F2844443838444448
:100300004428384444287F385454541800087E093F
:100310000218A4A49C787F0804047800447D40005F
:100320002040403D007F1028440000417F40007C79
:10033000047804787C080404783844444438FC1871
:1003400024241818242418FC7C0804040848545455
:10035000542404043F44243C4040207C1C20402082
:100360001C3C4030403C44281028444C9090907CE9
:100370004464544C440008364100000077000000FB
:100380004136080002010204024A504E00726561C3
:100390006420257320302025640024504D544B33B5
:1003A00030312C322A32450D0A0024504D544B3343
:1003B00031332C312A32450D0A0024504D544B3232
:1003C00032302C313030302A31460024504D544BDD
:1003D0003331342C302C312C302C312C302C302C2F
:1003E000302C302C302C302C302C302C302C302C2D
:1003F000302C302C302C302C302A32380023253051
:100400003464004D6F6465203D25640043504D0009
:10041000416C61726D3D2564002525004261747454
:100420006572793D202530326400476569676965EA
:10043000204E616E6F2025730025303464253032E4
:1004400064253032642E6C6F67002075532F68006E
:100450002075532F6800206D532F68002043504DA6
:10046000006B43504D002530356C642E2530346CC4
:1004700064002530346C642E2530346C64002450C4
:100480004D544B3130342A3337004E4F20534420E3
:10049000434152442F2047505320726573657400C6
:1004A000253032642F2530326420253032643A25DD
:1004B0003032643A253032640057726F6E67206DB7
:1004C0006F646520210075530044733D0075532F00
:1004D0006820004D783D0042712F6D32006B4271F3
:1004E0002F6D32006D42712F6D320043504D200050
:1004F0006B43504D20002D2D006B6D002042712F5D
:100500006D3200207553762F68005E004E6F2047D5
:100510005053002530326468253032646D002A253E
:1005200058002A302558002425732C253034642C9B
:10053000253032642D253032642D25303264542527
:100540003032643A253032643A253032645A2C25F0
:100550006C642C256C642C256C642C25632C257311
:100560002C25632C25732C25632C25732C25632CBB
:1005700025642C256C64006E616E6F0A232064650F
:10058000616474696D653D6F6E0A00312E342E35DD
:100590000023204E4557204C4F470A2320666F7298
:1005A0006D61743D0000000000240027002A000057
:1005B0000000080002010000030407000000000022
:1005C00000000000000000230026002900000000B9
:1005D00000250028002B0004040404040404040281
:1005E00002020202020303030303030102040810D0
:1005F000204080010204081020010204081020009D
:10060000C012702A11241FBECFEFD8E0DEBFCDBFCD
:1006100013E0A0E0B1E0EAECF8E602C005900D922C
:10062000AE3DB107D9F728E0AEEDB3E001C01D92B1
:10063000AF30B207E1F713E0C1E0D3E004C0219787
:10064000FE010E943530C030D107C9F70E948E13D9
:100650000C9458340C9400000F931F93CF93DF93A6
:10066000EC0160E070E0CB01099120ED200F2A3011
:10067000A0F4AAE0B0E09B01AC010E944A30002E39
:10068000000C110B220B330B600F711F821F931F85
:100690006053710981099109E7CFDF91CF911F91D3
:1006A0000F9108951F93CF93DF931091A907CAEA82
:1006B000D7E01D3211F0C9EAD7E0CE010E942C0329
:1006C0009B01AC01A4E6B0E00E944A30AB01BC0142
:1006D000FE01899190ED980F9A30D0F38E3241F55A
:1006E000818190ED980F9A3018F5082E000C990B27
:1006F000C097AAE0A89F9001A99F300D1124C901BD
:10070000330FAA0BBB0B480F591F6A1F7B1F828137
:1007100090ED980F9A3060F4082E000C990BC0975A
:10072000092E000CAA0BBB0B480F591F6A1F7B1F19
:100730001D3239F470956095509541955F4F6F4F1C
:100740007F4FCB01BA01DF91CF911F9108954F9256
:100750005F926F927F928F929F92AF92BF92CF9251
:10076000DF92EF92FF92CF93DF9389EA97E00E94A6
:100770002C032B013C0124E630E040E050E00E94D5
:1007800013309B01AC0160EA76E881E090E00E94C2
:10079000EF2F6B017C01E9EAF7E0819190ED980F72
:1007A0009A30D8F38E3219F5EF0180E1882E87E276
:1007B000982EA12CB12CA99180ED8A0F8A30B8F423
:1007C0000A2E000CBB0BD097A50194010E94553056
:1007D000C60ED71EE81EF91EC501B4012AE030E09E
:1007E00040E050E00E94133049015A01E4CFC301B8
:1007F000B20124E630E040E050E00E94133060E4B3
:1008000072E48FE090E00E94EF2F4B015C01C70182
:10081000B6016B5F7F4F8F4F9F4F26E030E040E087
:1008200050E00E941330C501B401620F731F841F92
:10083000951FDF91CF91FF90EF90DF90CF90BF9009
:10084000AF909F908F907F906F905F904F900895A2
:100850004F925F926F927F928F929F92AF92BF92D0
:10086000CF92DF92EF92FF92CF93DF9389EA97E0E6
:100870000E942C032B013C01E9EAF7E0819190ED05
:10088000980F9A30D8F3C12CD12C76018E3231F5E5
:10089000EF0180E1882E87E2982EA12CB12CC12C8B
:1008A000D12C7601A99180ED8A0F8A30B8F40A2EF6
:1008B000000CBB0BD097A50194010E945530C60EC9
:1008C000D71EE81EF91EC501B4012AE030E040E061
:1008D00050E00E94133049015A01E4CFA301920174
:1008E00060EA76E881E090E00E94EF2F6C0D7D1DBC
:1008F0008E1D9F1DDF91CF91FF90EF90DF90CF90E5
:10090000BF90AF909F908F907F906F905F904F902F
:10091000089528E030E040E8E0910508F0910608ED
:10092000508190910C08909595239083E091030855
:10093000F091040890910B08582F542389F05081AE
:10094000952B9083E0910508F091060890815091D5
:100950000C08952B9083469521503109E9F60895AE
:10096000508190959523EDCF20917305260F332765
:10097000331F21323105ECF42091BE05FC0190E0DB
:1009800080E0243069F082E00895A0917305219100
:10099000AC014F5A5A4FA40FB52FB11D2C9301969D
:1009A000861798F380917305680F6093730580E054
:1009B000089581E00895089508950895E0914F0500
:1009C00080914E05E81730F4F0E0E25DFA4F808147
:1009D00090E008958FEF9FEF089590914F058091DB
:1009E0004E052FEF3FEF981748F4E92FF0E0E25D56
:1009F000FA4F208130E09F5F90934F05C901089521
:100A000080914E0590914F05891B990B0895CF92C7
:100A1000DF92EF92FF920F931F93CF93DF937C01AE
:100A2000CB018A012091C405222389F0EB016B01DF
:100A3000C40ED51ECC15DD0569F06991D701ED9185
:100A4000FC910190F081E02DC7010995F3CF642F4F
:100A50000E94B404C801DF91CF911F910F91FF90C4
:100A6000EF90DF90CF900895CF93DF931F92CDB793
:100A7000DEB769832091C4052223F9F02091E705B0
:100A8000203258F021E030E0FC013383228390E0F3
:100A900080E00F90DF91CF9108958091C505E82FF8
:100AA000F0E0EA53FA4F998190838F5F8093C505F8
:100AB0008093E70581E090E0ECCF61E0CE01019604
:100AC0000E94B404F7CF90E0FC01E155FA4F249165
:100AD000FC01E551FA4F3491FC01E952FA4FE491DF
:100AE000EE23C9F0222339F0233001F1A8F421309C
:100AF00019F1223029F1F0E0EE0FFF1FE353FA4F16
:100B0000A591B4918FB7F894EC91611126C03095FE
:100B10003E233C938FBF08952730A9F02830C9F0B9
:100B2000243049F7809180008F7D03C08091800040
:100B30008F7780938000DFCF84B58F7784BDDBCF44
:100B400084B58F7DFBCF8091B0008F778093B0000C
:100B5000D2CF8091B0008F7DF9CF3E2BDACF1092AB
:100B6000BE0581E08093BD051092980561E082E1A9
:100B70000E94630561E083E10E946305E9EBF0E018
:100B800080818E7F808380818D7F808380E28093CF
:100B9000B80085E48093BC000895CF93DF9391E083
:100BA000909350058823B9F0C091B800D091BA0055
:100BB0008091BC008A7B8093BC0060E082E10E944F
:100BC000630560E083E10E9463050E94AF05D09356
:100BD000BA00C093B800DF91CF910895CF93DF930F
:100BE00090E0FC01E551FA4F249189529A4FFC01A3
:100BF00084918823C9F090E0880F991FFC01EB5580
:100C0000FA4FA591B491FC01E353FA4FC591D491E9
:100C100061110DC09FB7F8948C91209582238C931D
:100C20008881282328839FBFDF91CF910895623068
:100C300051F49FB7F8943C91822F809583238C9335
:100C4000E8812E2BEFCF8FB7F894EC912E2B2C93BD
:100C50008FBFEACF0F931F93CF93DF93EC01162F33
:100C6000042F1B821A8288EE93E0A0E0B0E08C8310
:100C70009D83AE83BF838CE093E0998388831F8A32
:100C80001E8A198E188E1B8E1A8E1D8E1C8E6E8DCE
:100C90006E7F6D7F6E8F6695617081E06827842F0F
:100CA0000E94630561E0802F0E94EE05802F90E096
:100CB000FC01E551FA4FE491E88BFC01E952FA4F4F
:100CC000E491F0E0EE0FFF1FE353FA4F859194910A
:100CD0009A8B898B60E0812F0E94EE058E8D81FDBD
:100CE00004C061E0812F0E9463051C87812F90E082
:100CF000FC01E551FA4FE491ED87FC01E952FA4F0E
:100D0000E491F0E0EE0FFF1FED53FA4F85919491BF
:100D10009F878E87DF91CF911F910F9108958E301D
:100D200008F08E502091070190E4299F9001112432
:100D30008770822B80937C0080917A0080648093FE
:100D40007A0080917A0086FDFCCF809178009091A6
:100D5000790008958EE00E948F06BC01990F880BE0
:100D6000990B0E94043220E030E040E85AE30E94F0
:100D7000273320E030E040E251E40E94273324EBA7
:100D800035EC4AEC5DE30E945A3108953FB7F89480
:100D900080912A0590912B05A0912C05B0912D05ED
:100DA00026B5A89B05C02F3F19F00196A11DB11DC6
:100DB0003FBFBA2FA92F982F8827BC01CD01620F02
:100DC000711D811D911D43E0660F771F881F991FBC
:100DD0004A95D1F70895CF92DF92EF92FF920F9349
:100DE0001F93CF93DF93D091E70581E0D13208F0D4
:100DF0009CC0C091E6050E94C6066B017C018091F3
:100E0000BE0581116CC082E08093BE0581E08093B5
:100E1000BD058FEF8093BC051092BB05D093BA053A
:100E2000A6ECB5E0EAE9F5E080E0D8138DC01092B9
:100E3000990580919905CC0FC82BC0939905809195
:100E40009805813009F084C0109298050E94C6066A
:100E50006B017C01809199058093BB008091C00556
:100E60009091C105A091C205B091C305892B8A2B31
:100E70008B2BA1F00E94C6060091C0051091C10500
:100E80002091C2053091C3056C197D098E099F0917
:100E9000061717072807390708F442C08091BC00DD
:100EA00083FDD8CF85EC8093BC000E94C6066B0101
:100EB0007C018091BE05823009F44CC08091BC0554
:100EC0008F3F09F469C08091BC05803209F466C087
:100ED0008091BC05803309F463C084E026C0809112
:100EE000C0059091C105A091C205B091C305892BA1
:100EF0008A2B8B2B09F483CF0E94C6060091C00574
:100F00001091C1052091C2053091C3056C197D096E
:100F10008E099F09061717072807390708F06FCFB2
:100F20008091BF050E94CD0585E01092C505109205
:100F3000E7051092C405DF91CF911F910F91FF90AB
:100F4000EF90DF90CF9008959D9191938F5F6DCF3B
:100F500085EEA9CF8091C0059091C105A091C205F1
:100F6000B091C305892B8A2B8B2B09F4A2CF0E9449
:100F7000C6060091C0051091C1052091C2053091AF
:100F8000C3056C197D098E099F09061717072807E5
:100F9000390708F08ECFC4CF80E0C7CF82E0C5CF3D
:100FA00083E0C3CFCF93C82F8091FE078F3F59F1C5
:100FB000E0910708F0910808808190910D08892B35
:100FC0008083E0910908F0910A08908180910E08D1
:100FD000809589238083E0910708F091080890812B
:100FE00080910D088095892380838C2F0E9489042D
:100FF000E0910708F0910808808190910D08892BF5
:101000008083CF9108958091FD0791E09093C4056E
:101010008093E6051092C5051092E70560E088EE22
:1010200095E00E9434056C2F88EE95E00E9434050F
:10103000CF910C94EB06BF92CF92DF92EF92FF928A
:101040000F931F93CF93DF9380E00E94D20780E13C
:101050000E94D20780E40E94D2078091FE078F3F52
:1010600009F440C0E0910708F09108088081909150
:101070000D08892B8083E0910908F0910A0880818E
:1010800090910E08892B8083E0910708F091080861
:10109000908180910D08809589238083C8E0D1E0FC
:1010A00008E013E089910E9489040C171D07D1F70D
:1010B000C0E0D2E080E00E9489042197D9F7E09156
:1010C0000708F0910808808190910D08892B808392
:1010D000DF91CF911F910F91FF90EF90DF90CF9014
:1010E000BF9008950091B8008CE08093B800C8E0EC
:1010F000D1E088E0C82E83E0D82EBB24B394809141
:10110000FD07B092C4058093E6051092C5051092C4
:10111000E70560E488EE95E00E9434057E0110E169
:10112000F70161917F0188EE95E00E94340511502E
:10113000B9F70E94EB066096CC16DD0601F7C0E217
:10114000D0E0FF24F3948091FD07F092C4058093D2
:10115000E6051092C5051092E70560E488EE95E07B
:101160000E94340510E160E088EE95E00E943405AD
:101170001150C9F70E94EB06219729F70093B80098
:10118000A7CF8F929F92AF92BF92CF92DF92EF92B2
:10119000FF924B015C010E94C6066B017C010E941C
:1011A000C6066C197D098E099F09683E734081054A
:1011B0009105A8F321E0821A9108A108B10888EEF0
:1011C000C80E83E0D81EE11CF11C81149104A10417
:1011D000B10429F7FF90EF90DF90CF90BF90AF90D0
:1011E0009F908F9008952FB7F89460912605709185
:1011F000270580912805909129052FBF08952F92EA
:101200003F924F925F926F927F928F929F92AF9296
:10121000BF92CF92DF92EF92FF920F931F93CF93E3
:10122000DF93CDB7DEB72A970FB6F894DEBF0FBEB7
:10123000CDBF4C017A8769871A013A8329831C83C1
:101240000B83FE82ED82D886CF8240905B07509060
:101250005C0760905D0770905E07C0905307D09068
:101260005407E0905507F0905607809197079091AA
:101270009807A0919907B0919A078F3F2FEF920797
:10128000A207B20781F00E94F3080091970710911E
:1012900098072091990730919A07DC01CB01801BB8
:1012A000910BA20BB30BF50180839183A283B383CF
:1012B000C301B20124E630E040E050E00E94133068
:1012C00020ED37E06135710514F02CE637E0C901F7
:1012D000860F971FF4019183808384E6882E912CDA
:1012E000A12CB12CC301B201A50194010E941330BD
:1012F000CA01B901A50194010E941330E985FA855C
:101300006083C301B20120E137E240E050E00E9477
:101310001330F1012083C701B60120E432E44FE02D
:1013200050E00E941330E981FA812083C701B601A1
:1013300020E137E240E050E00E941330CA01B901D9
:10134000A50194010E941330EB81FC816083C701E9
:10135000B601A50194010E9413306983CA01B90145
:10136000A50194010E941330ED81FE8160832981E3
:10137000EF81F88520832A960FB6F894DEBF0FBE62
:10138000CDBFDF91CF911F910F91FF90EF90DF9034
:10139000CF90BF90AF909F908F907F906F905F9015
:1013A0004F903F902F90089580916604909167042C
:1013B0000196909367048093660408950895AF9210
:1013C000BF92CF92DF92EF92FF920F931F93CF9332
:1013D000DF936C017B018B01040F151FEB015E0194
:1013E000AE18BF08C017D10759F06991D601ED9129
:1013F000FC910190F081E02DC6010995892B79F7C8
:10140000C501DF91CF911F910F91FF90EF90DF9079
:10141000CF90BF90AF900895FC01538D448D252F40
:1014200030E0842F90E0821B930B541710F0CF967E
:10143000089501970895FC01918D828D981761F0B0
:10144000A28DAE0FBF2FB11D5D968C91928D9F5FC7
:101450009F73928F90E008958FEF9FEF0895FC01A6
:10146000918D828D981731F0828DE80FF11D858D59
:1014700090E008958FEF9FEF0895FC01918D228DEC
:10148000892F90E0805C9F4F821B91098F73992771
:10149000089584EF95E00E943D0A21E0892B09F42C
:1014A00020E0822F089580E090E0892B29F00E94AF
:1014B000490A81110C9400000895FC01A48DA80F25
:1014C000B92FB11DA35ABF4F2C91848D90E0019686
:1014D0008F739927848FA689B7892C93A089B189A6
:1014E0008C91837080648C93938D848D981306C047
:1014F0000288F389E02D80818F7D80830895EF92AB
:10150000FF920F931F93CF93DF93EC0181E0888FBD
:101510009B8D8C8D98131AC0E889F989808185FF8D
:1015200015C09FB7F894EE89FF896083E889F9892F
:1015300080818370806480839FBF81E090E0DF9131
:10154000CF911F910F91FF90EF900895F62E0B8D84
:1015500010E00F5F1F4F0F731127E02E8C8D8E113F
:101560000CC00FB607FCFACFE889F989808185FFA6
:10157000F5CFCE010E945D0AF1CFEB8DEC0FFD2F70
:10158000F11DE35AFF4FF0829FB7F8940B8FEA8961
:10159000FB8980818062CFCFCF93DF93EC01888D70
:1015A0008823B9F0AA89BB89E889F9898C9185FDDE
:1015B00003C0808186FD0DC00FB607FCF7CF8C916C
:1015C00085FFF2CF808185FFEDCFCE010E945D0ABD
:1015D000E9CFDF91CF910895CF93DF93EC0177FDB1
:1015E00044C088859985681779070CF03EC057FD7F
:1015F0003CC08A859B8548175907BCF58D89837047
:101600008D8B8230A9F1833009F442C0813041F4DE
:101610008C819D81841B950BAB01BC0161507109CC
:10162000FA0157FD379683E0F595E7958A95E1F73E
:10163000F695FE2FEE27F795E795E60FF71FE85F83
:10164000FE4FC081CA0168E070E00E94FF2F41E0B8
:1016500050E0BA0102C0660F771F8A95E2F7CB010E
:1016600021303105F1F48C2B8083DF91CF910895E7
:10167000EC81FD81E61BF70BBF01615071098E8182
:101680009F81FC01E41BF50BAF0141505109C8CF0C
:101690008E819F81861B970BBA01AC014150510985
:1016A000BFCF80958C23E0CF089508952F923F926D
:1016B0004F925F926F927F928F929F92AF92BF9262
:1016C000CF92DF92EF92FF920F931F93CF93DF930E
:1016D000CDB7DEB72C970FB6F894DEBF0FBECDBFE7
:1016E0009C838B836A3061F5DC0154968C91B8E061
:1016F0008B9F90011124EB81FC8186859785820F59
:10170000931F978786871586148681E090E02C9634
:101710000FB6F894DEBF0FBECDBFDF91CF911F9102
:101720000F91FF90EF90DF90CF90BF90AF909F9080
:101730008F907F906F905F904F903F902F90089583
:101740006D3019F32B813C813C872B87D9011C9686
:10175000CD90DC901D9718968D919C911997C81685
:10176000D9060CF084C01E968D909C901F971A96F7
:101770008D919C911B97881699060CF078C0549611
:10178000BC91B983AB2EB12C25E0C601B29F800D70
:10179000911D1124181619060CF069C0C50133E01B
:1017A000880F991F3A95E1F7880D991D18161906AB
:1017B0000CF05DC0AB85BC8552960D90BC91A02D00
:1017C000BC83AB83EB85FC850088F189E02DFE832B
:1017D000ED836052770B269FC001279F900D112447
:1017E00026011A828C199D099C0122553E4F3A8789
:1017F00029873A81E0E0353029F0E985FA85E40D62
:10180000F51DE4911401712C612C8E2F90E09887C6
:101810008F83E0FF6AC0AB85BC85ED91FC91B981F7
:10182000B13009F055C00084F185E02D2D813E8155
:10183000A301480D591DB2018B859C850995EF8147
:10184000F885F595E795FFEF6F1A7F0A2A0C3B1C88
:1018500028E062167104C9F63FEF431A530ACA0C16
:10186000DB1C5A815F5F5A83563009F0C2CFAB85CB
:10187000BC8554964C915497242F30E01C968D9142
:101880009C91B6E04B9F800D911D1124EB85FC854A
:10189000958784874689442309F437CF6AEF62032A
:1018A000A001639F500D112460857185460F571F5D
:1018B000481759070CF029CF83E0220F331F8A9570
:1018C000E1F786859785280F391F378726871BCF35
:1018D0000488F589E02DED80FE8085019501A10148
:1018E000B6018B859C850995AACFEB81FC812D8162
:1018F0003E81E217F30709F4A2CFAB85BC85ED91D9
:10190000FC91B981B13031F40084F185E02D2B8157
:101910003C818ECF0488F589E02DEB80FC80DDCF03
:101920006F927F928F929F92AF92BF92CF92DF92EF
:10193000EF92FF920F931F93CF93DF936C015A01A5
:101940004801EB013B01620E731EC615D70574F406
:10195000D601ED91FC910684F785E02D8701940175
:10196000A501BE01C60109952196EFCFDF91CF9168
:101970001F910F91FF90EF90DF90CF90BF90AF90AD
:101980009F908F907F906F900895EF92FF920F93AA
:101990001F93260F371F21503109DC01ED91FC9177
:1019A0000484F585E02D78018A0109951F910F9136
:1019B000FF90EF900895EF92FF920F931F93240FE3
:1019C000351F21503109DC01ED91FC910484F5852E
:1019D000E02D780189019B0109951F910F91FF90DE
:1019E000EF9008956F927F928F929F92AF92BF92E5
:1019F000CF92DF92EF92FF920F931F93CF93DF93DB
:101A0000EC016B015A0139014801E881F981008834
:101A1000F189E02D87010995A501480D591D415017
:101A20005109E881F9810088F189E02D9301B6011F
:101A3000CE010995E881F9810684F785E02D9401AE
:101A4000A501B601CE010995C60CD71CB60161509F
:101A50007109E881F9810684F785E02D9401A501DB
:101A6000CE010995DF91CF911F910F91FF90EF90DB
:101A7000DF90CF90BF90AF909F908F907F906F90AE
:101A800008952F923F924F925F926F927F928F9222
:101A90009F92AF92BF92CF92DF92EF92FF920F93FD
:101AA0001F93CF93DF9300D000D000D0CDB7DEB727
:101AB0003C016A013E832D83FC82EB825801A41A0B
:101AC000B50AB7FE03C0B194A194B1088D809E8081
:101AD000861A970A97FE03C09194819491088A14FC
:101AE0009B045CF0902F812F0D811E819D838E833E
:101AF0009C2D8D2D6B01692F782F0C151D055CF029
:101B00009D818E817E836D83692F782F902F812F09
:101B10008601C92ED82E1601201A310A2B012D81DB
:101B20003E81421A530A57FE03C051944194510812
:101B3000710137FE03C03FEFE31AF30AF594E7940F
:101B40008D819E81861797075CF5A1E0B0E0BA838E
:101B5000A983C016D1064CF1D301ED91FC9100840C
:101B6000F185E02D2B813C81A8016D817E818A1455
:101B70009B041CF04D815E81B801C3010995E418F6
:101B8000F508F7FE0AC02D813E8189819A81280FD0
:101B9000391F3E832D83E20CF31C0F5F1F4FD9CFFB
:101BA0002FEF3FEF3A832983D4CF26960FB6F894D0
:101BB000DEBF0FBECDBFDF91CF911F910F91FF9080
:101BC000EF90DF90CF90BF90AF909F908F907F90DD
:101BD0006F905F904F903F902F90089520916004F8
:101BE000309161042817390781F490915F04809146
:101BF0005E04981751F0E0915F04F0E0E252FC4F70
:101C00008081082E000C990B08958FEF9FEF0895A7
:101C1000EF92FF920F931F93CF93DF93DC015C96BB
:101C2000ED90FC905D97E114F10479F481E090E08F
:101C300013969C938E93129790E080E0DF91CF9162
:101C40001F910F91FF90EF9008955196ED91FC91A7
:101C5000529750968C915097982F90950FB75E960B
:101C60002C915E97122F127021FD6095F8942081BF
:101C7000112319F1282B2083E7012197F1F728E0A0
:101C8000462F50E0308160FF1AC0382B3083E701C7
:101C90002197F1F7BA0175956795215089F71123BE
:101CA00081F08081892380830FBF5C968D919C9108
:101CB0000197F1F781E090E0C1CF2923DCCF3923F0
:101CC000E5CF9081892BEFCF2091600430916104A2
:101CD0002817390771F480915E0420915F0490E029
:101CE00080589F4F821B910960E870E00E94FF2F8F
:101CF000089590E080E0089520916004309161049F
:101D000028173907B9F490915F0480915E04981701
:101D100089F0E0915F04F0E0E252FC4F8081209175
:101D20005F0430E02F5F3F4F2F77332720935F040E
:101D300090E008958FEF9FEF08950F931F93CF9337
:101D4000DF930EE310E0811102C00CE310E0D0E05D
:101D5000C0E0219687EC97E00E94640E892B59F42D
:101D60006AE070E080E090E00E94C108C83CD105C4
:101D700081F780E00BC087EC97E00E947C0E801713
:101D8000910771F781E0C83CD10599F3DF91CF91BC
:101D90001F910F910895E0916004F0916104E8179C
:101DA000F90769F4A389B4899C9185898095892371
:101DB0008C93109261041092600481E0089580E099
:101DC0000895CF93DF93EC018A8D9B8D892B01F1D0
:101DD00080916004909161048C179D07C9F0009771
:101DE00011F00E94CB0E8E8D8E7F8E8F10925E042E
:101DF00010925F04D0936104C0936004EB89FC8966
:101E000080819D89892B808381E0DF91CF91089526
:101E100080E0FBCFFC01138E128E118E108E178A7C
:101E2000168A8DEC90E0958F848F84858631D8F565
:101E300025E530E0378B268B2BEC30E0318F208F7F
:101E400020E930E0338F228F90916800883070F164
:101E500021E08E3008F420E081E001C0880F2A954F
:101E6000EAF7892B8093680084852DE630E088307E
:101E700050F02BE630E08E3030F02CE630E086314A
:101E800010F030E020E0348B238B282F30E08830B6
:101E900078F491E001C0990F8A95EAF7958B848DCB
:101EA000958D0197F1F7CF010C94E10E84E0D9CF25
:101EB0008E3040F42850310991E001C0990F2A95E5
:101EC000EAF7ECCF2E503109F7CF90E080E008958B
:101ED0000F931F930E94F308AB01BC01809168042B
:101EE00090916904A0916A04B0916B04009162041E
:101EF00010916304209164043091650448175907D8
:101F00006A077B0778F0481B590B6A0B7B0B81E053
:101F100090E0401751076207730708F480E01F91B3
:101F20000F91089580959095A095B095840F951F79
:101F3000A61FB71F51E040E080179107A207B30723
:101F400008F450E0852F942FEACF0F931F93CF937F
:101F5000DF938C01C8ECD0E0F80161918F01CE01D4
:101F60000E94AA2F2196C03DD105B1F788E090E0EC
:101F7000DF91CF911F910F9108950F931F93CF93EE
:101F8000DF938C01C4EFD1E0F80161918F01CE01A4
:101F90000E94AA2F2196C132F2E0DF07A9F78DE255
:101FA00090E0DF91CF911F910F91089585ED80937F
:101FB000BC008091C0059091C105A091C205B0916F
:101FC000C3050796A11DB11D23E0B695A79597956A
:101FD00087952A95D1F72091BC0024FD03C010926B
:101FE000BE0508954091C0055091C1056091C2059C
:101FF0007091C305452B462B472B69F30097A1052C
:10200000B10541F025E12A95F1F700000197A109FA
:10201000B109E1CF8091BF050C94CD05FB01019082
:102020000020E9F73197AF01461B570BDC01ED911A
:10203000FC910280F381E02D09940F931F93CF93BD
:10204000DF93EC010E940E108C0168E573E0CE0175
:102050000E940E10800F911FDF91CF911F910F9161
:1020600008956115710511F00C940E1090E080E058
:1020700008951F920F920FB60F9211242F933F9342
:102080004F935F936F937F938F939F93AF93BF9380
:10209000EF93FF938091B900887F803609F44AC09E
:1020A000F0F5883209F4A7C018F5803109F49BC017
:1020B000B8F4882309F4F9C0883009F494C0FF917A
:1020C000EF91BF91AF919F918F917F916F915F91B0
:1020D0004F913F912F910F900FBE0F901F90189529
:1020E000883109F488C0803251F78093BC0514C050
:1020F000803409F49DC040F48033B9F38833F9F695
:102100008093BC0585ECB0C0803509F485C0883566
:1021100009F496C0883499F60E94D60FD0CF88393A
:1021200009F48CC038F5883729F050F4883611F05E
:10213000803729F683E08093BE051092970557C03B
:10214000883809F47BC0803919F0803809F0B7CF9E
:1021500080919705803208F071C0E091970581E089
:102160008E0F809397058091BB00F0E0E958FA4FFD
:1021700080833DC0803B39F0E0F4803A09F479C0B7
:10218000883A09F09CCF84E08093BE0510927405D4
:1021900010927305E0917105F09172050995809197
:1021A000730581110FC081E0809373051092510572
:1021B00009C0803C09F4A6CF883C09F4A3CF883B32
:1021C00009F07DCFE091740581E08E0F8093740556
:1021D000F0E0EF5AFA4F80818093BB009091740534
:1021E0008091730529C0809199058093BB0085EC8F
:1021F0008093BC0064CF9091BB058091BA0598177D
:1022000058F5E091BB0581E08E0F8093BB05F0E0AF
:10221000E656FA4F8081E9CFE091BB0581E08E0F51
:102220008093BB058091BB00F0E0E656FA4F8083B7
:102230009091BB058091BA059817C8F285E8D8CF70
:10224000E091BB0581E08E0F8093BB058091BB00C0
:10225000F0E0E656FA4F80838091BD0581115CCF96
:1022600081E08093980584EA8093BC001092BE05BB
:1022700026CF85EC8093BC001092BE058091970517
:10228000803230F4E0919705F0E0E958FA4F10827F
:102290006091970570E0E0917505F091760587E70C
:1022A00095E00995109297050ACF1092BC0534CF9E
:1022B0001F920F920FB60F9211242F933F938F937B
:1022C0009F93AF93BF938091260590912705A0918E
:1022D0002805B09129053091250526E0230F2D37DB
:1022E00058F50296A11DB11D209325058093260562
:1022F00090932705A0932805B093290580912A057E
:1023000090912B05A0912C05B0912D050196A11D52
:10231000B11D80932A0590932B05A0932C05B093B3
:102320002D05BF91AF919F918F913F912F910F906C
:102330000FBE0F901F90189529E8230F0396A11D3B
:10234000B11DD2CF1F920F920FB60F9211242F936F
:102350003F934F935F936F937F938F939F93AF932D
:10236000BF93EF93FF93E0910201F0910301099570
:10237000FF91EF91BF91AF919F918F917F916F915D
:102380005F914F913F912F910F900FBE0F901F9033
:1023900018951F920F920FB60F9211242F933F930F
:1023A0004F935F936F937F938F939F93AF93BF935D
:1023B000EF93FF93E0910001F09101010995FF91E6
:1023C000EF91BF91AF919F918F917F916F915F91AD
:1023D0004F913F912F910F900FBE0F901F90189526
:1023E0001F920F920FB60F9211242F933F934F938A
:1023F0005F936F937F938F939F93AF93BF93EF936D
:10240000FF9384EF95E00E945D0AFF91EF91BF91E9
:10241000AF919F918F917F916F915F914F913F917C
:102420002F910F900FBE0F901F9018951F920F9233
:102430000FB60F9211242F938F939F93EF93FF93D7
:10244000E0910406F09105068081E0910A06F09182
:102450000B0682FD1BC0908180910D068F5F8F73EC
:1024600020910E06821741F0E0910D06F0E0EC504D
:10247000FA4F958F80930D06FF91EF919F918F9169
:102480002F910F900FBE0F901F9018958081F4CF61
:102490001F920F920FB60F9211242F933F934F93D9
:1024A0005F936F937F938F939F93AF93BF93EF93BC
:1024B000FF93E0916004F0916104309749F0A685A4
:1024C000B7858585968D91FF14C09C918923A1F4D1
:1024D000FF91EF91BF91AF919F918F917F916F91FC
:1024E0005F914F913F912F910F900FBE0F901F90D2
:1024F00018959C91892361F7A389B4899C9185895A
:10250000809589238C93868997890197F1F7608D4F
:10251000718DA685B785558538E020E0CB01019700
:10252000F1F7822F90E095958795282F4C914523C0
:1025300009F02068315091F7868D81FD20958091BA
:102540005E0490E001968F77992730915F043817E9
:1025500099F0A0915E04B0E0A252BC4F2C938093FE
:102560005E04828D938D0197F1F7A389B4898C91D4
:102570009589892B8C93ACCF868D8160868FF1CF26
:10258000E8EEF5E01382128288EE93E0A0E0B0E07E
:1025900084839583A683B7832EE133E03183208340
:1025A000E4EFF5E01382128284839583A683B783D8
:1025B00080E393E09183808385EC90E09587848726
:1025C00084EC90E09787868780EC90E0918B808BFD
:1025D00081EC90E0938B828B82EC90E0958B848BE6
:1025E00086EC90E0978B868B118E128E138E148E54
:1025F000E6EEF7E01382128282E493E09183808317
:102600008CE0848F8DE0838F8BE0828F8AE0818FD6
:1026100089E0808F45E066E087EC97E00E942A061B
:10262000E3E5F7E04FEF5FEFBA0140835183628348
:10263000738310861186128613868FEF99ECAAE9B0
:10264000BBE3808B918BA28BB38B808F918FA28FFA
:10265000B38F80A391A3A2A3B3A380A791A7A2A79E
:10266000B3A780AB91ABA2ABB3AB40AF51AF62AFFE
:1026700073AF8FEF90E0909394078093930740930C
:102680009707509398076093990770939A07409320
:102690009F075093A0076093A1077093A207109221
:1026A000A7071092A80782E08093B8071092B90795
:1026B0001092BA071092BB071092BD071092BE0786
:1026C0001092BF071092C0071092C2071092C10764
:1026D0001092C4071092C3071092A90781E080935B
:1026E000BC0747E068E084E397E00E942A06EAE23C
:1026F000F7E087EC97E0918380838DEF96E09383FA
:10270000828385EF96E09583848381E996E09783C1
:10271000868384E690E0918780870895CF93DF9346
:10272000CDB7DEB7AE970FB6F894DEBF0FBECDBF04
:10273000789484B5826084BD84B5816084BD85B59C
:10274000826085BD85B5816085BD80916E008160A8
:1027500080936E001092810080918100826080934E
:102760008100809181008160809381008091800050
:102770008160809380008091B10084608093B1007B
:102780008091B00081608093B00080917A00846075
:1027900080937A0080917A00826080937A008091A1
:1027A0007A008E7F80937A0080917A00806880938F
:1027B0007A001092C10062E083E00E94EE0561E0C1
:1027C00082E10E94EE0560E083E10E94EE05E09167
:1027D0000406F091050682E08083E0910006F09106
:1027E00001061082E0910206F091030687E68083DD
:1027F00010920C06E0910806F091090686E08083AD
:10280000E0910606F0910706808180618083E09167
:102810000606F0910706808188608083E0910606B5
:10282000F0910706808180688083E0910606F09130
:10283000070680818F7D8083E0912C07F0912D0722
:102840008DE2DF011D928A95E9F7E0902C07F09068
:102850002D0704EF11E0C8010E94A22FF701819318
:102860007F010F5F1F4F0132F2E01F07A1F7E091D8
:102870002C07F0912D0780819181A281B3818D3049
:10288000904FAE4FBA4509F452C08DE2DF011D9260
:102890008A95E9F7E0912C07F0912D078DE090EFF4
:1028A000AEEFBAE580839183A283B383E0912C07D6
:1028B000F0912D07178A168A89E083A389E893E0AF
:1028C0009F938F93B496FF93EF930E94CA2AE0914F
:1028D0002C07F0912D078CE3808F80E090E0A7EA31
:1028E000B3E4818F928FA38FB48F80E090E0A4E156
:1028F000B2E4858F968FA78FB0A384E690E093A76C
:1029000082A7CF010E94BD0FE0912E07F0912F0703
:1029100088E0DF011D928A95E9F780912E0790915A
:102920002F070E94A50F0F900F900F900F9087EC2C
:1029300097E00E940A0F61E084E00E94EE0587ECB8
:1029400097E00E94E10E60E084E00E94630564E687
:1029500070E080E090E00E94C10861E084E00E94A5
:10296000630581E00E949D0E8111A6C081E08093E5
:10297000E004C0908E04CC2009F477C280912A072D
:1029800090912B070E94E10E809133078F938091E5
:1029900032078F9382E693E09F938F938DE893E0C5
:1029A0009F938F93809131078F93809130078F93FE
:1029B0000E94CA2A609130077091310780912A07DE
:1029C00090912B070E94311080912A0790912B073C
:1029D000DC01ED91FC910190F081E02D6DE0099515
:1029E0000FB6F894DEBF0FBECDBF80912A0790913D
:1029F0002B07DC01ED91FC910084F185E02D099518
:102A0000892B99F380912A0790912B07DC01ED9196
:102A1000FC910284F385E02D09958D3011F08A3008
:102A200021F7409132075091330770E060E08091C8
:102A30003007909131070E940F34B12C10E000E074
:102A400080912A0790912B07DC01ED91FC91008485
:102A5000F185E02D0995EB2CF12C892BA9F08091C3
:102A60002A0790912B07DC01ED91FC910284F385FC
:102A7000E02D0995B394E0913007F0913107EE0D08
:102A8000FF1D808310E000E061E070E080E090E0F6
:102A90000E94C1088091320790913307B816190639
:102AA00031F00F5F1F4F083EB3E01B0749F680E08F
:102AB000D12C58E0952E14C081E080938E0459CF1C
:102AC000FD01E80FF11D20812D3309F443C02032B0
:102AD00011F0293009F410828F5F9813F1CF8A2DFD
:102AE0008B1508F0BAC12091300730913107D90118
:102AF000A80FB11D4091320750913307E82F9E2F48
:102B0000981BAA24A394AE0EE20FF32FF11D60814F
:102B10006A3031F06D3021F0EA2DA416150679F7F0
:102B2000FD01E90FF11D10828C918823C1F28332DF
:102B3000B1F29330A0F29D0180E07901F90140816A
:102B40002F5F3F4F403211F0493039F68F5F9813B5
:102B5000F4CFC5CF981719F28F5F10828D01080F3F
:102B6000111DF8012081203211F0293021F48F5FEE
:102B70009813F4CFB4CF981709F4B1CF6FE673E090
:102B8000C7010E941634892B11F5C8010E94A42A9E
:102B9000BC01990F880B990B0E9404322B013C0158
:102BA00000912C0710912D07D80159962D913D9138
:102BB0004D915C915C970E945031882309F48FCF2E
:102BC000F801418E528E638E748EDC2C88CF64E7C0
:102BD00073E0C7010E941634892B09F5C8010E94D1
:102BE000A42ABC01990F880B990B0E9404322B0177
:102BF0003C0100912C0710912D07D8015D962D9175
:102C00003D914D915C9190970E945031882309F439
:102C100066CFF801458E568E678E70A2D6CF69E7D3
:102C200073E0C7010E941634892B99F4E0902C07B9
:102C3000F0902D07F6E0EF0EF11CB801C7010E94DD
:102C40001634892B09F44BCFB801C7010E941F34F9
:102C5000BCCF6CE773E0C7010E941634892BA9F43E
:102C6000E0902C07F0902D07C8010E94A42AD701FC
:102C700056962D913C9157972817390709F42FCF75
:102C800057969C938E935697A0CF60E873E0C70148
:102C90000E941634892B79F4E0902C07F0902D07D0
:102CA000C8010E94A42AF70124812817190609F4F3
:102CB00016CF84838ACF63E873E0C7010E9416347D
:102CC000892B91F4E0902C07F0902D07C8010E9409
:102CD000A42AD70115962C9115972817190609F4DF
:102CE000FECE15968C9371CF66E873E0C7010E9403
:102CF0001634892B89F4E0902C07F0902D07C80139
:102D00000E94A42AF70121A132A12817390709F44A
:102D1000E6CE92A381A359CF69E873E0C7010E9470
:102D20001634892B59F4D80113961C92E0902C0785
:102D3000F0902D07B4E2EB0EF11C7FCF6CE873E04E
:102D4000C7010E941634892B79F4E0902C07F0908B
:102D50002D07C8010E94A42AF70123A128171906EC
:102D600009F4BDCE83A331CF6FE873E0C7010E94A1
:102D70001634892B91F4E0902C07F0902D07C801B0
:102D80000E94A42AD70198962C9198972817190683
:102D900009F4A5CE98968C9318CF62E973E0C70129
:102DA0000E941634892B79F4E0902C07F0902D07BF
:102DB000C8010E94A42AF70121A52817190609F4C1
:102DC0008ECE81A702CF65E973E0C7010E94163459
:102DD000892BA9F4E0902C07F0902D07C8010E94E0
:102DE000A42AD7019A962D913C919B9728173907D1
:102DF00009F475CE9B969C938E939A97E6CE68E9DC
:102E000073E0C7010E941634892B79F4E0902C07F7
:102E1000F0902D07C8010E94A42AF70124A52817C5
:102E2000190609F45CCE84A7D0CE6BE973E0C70124
:102E30000E941634892B09F052CEE0912E07F091B2
:102E40002F07DF01292D1D922A95E9F780912E0782
:102E500090912F070E94A50F42CEDD2031F0809186
:102E60002C0790912D070E94BD0F88E893E1A0E008
:102E7000B0E08093620490936304A0936404B093E1
:102E80006504109267041092660484ED99E09093B3
:102E90000101809300018091690083608093690043
:102EA000E89A0E94F30810926704109266040E9448
:102EB000F308609368047093690480936A049093A4
:102EC0006B04109224051092230584E397E00E947E
:102ED0000A0F84E397E00E94E10E01E916E034E670
:102EE000F32ED801EF2D1D92EA95E9F78BEC93E0D4
:102EF0009F938F931F930F930E94CA2AB80184E374
:102F000097E00E941D10D801EF2D1D92EA95E9F778
:102F10008AEB93E09F938F931F930F930E94CA2A8B
:102F2000B80184E397E00E941D10D801EF2D1D9297
:102F3000EA95E9F78AEA93E09F938F931F930F93A3
:102F40000E94CA2AB80184E397E00E941D10D801AC
:102F50001D92FA94E9F78AE993E09F938F931F9368
:102F60000F930E94CA2AB80184E397E00E941D10C3
:102F700045EFE42E46E0F42E0FB6F894DEBF0FBE08
:102F8000CDBF08EC10E0C8010E94A22FD7018D939D
:102F90007D010F5F1F4F003D1105A9F783E080936E
:102FA000070180E890E09093EB078093EA07909305
:102FB000EF078093EE0780E290E09093ED07809317
:102FC000EC079093F1078093F0071092FB071092A3
:102FD000F3071092F2071092F5071092F40781E0C0
:102FE0008093FA072FEF3FEF3093F9072093F8070C
:102FF0003093F7072093F6078093FC078CE38093C8
:10300000FD078091FE078F3F09F4F7C361E00E943E
:10301000EE0561E08091FF070E94EE0561E080917E
:1030200000080E94EE0561E0809102080E94EE0512
:103030008091FF07082E000C990BFC01E952FA4F12
:10304000E491F0E0EE0FFF1FE353FA4F2591349126
:103050003093060820930508FC01E551FA4FE491EE
:10306000E0930C088091FE07082E000C990BFC01E0
:10307000E952FA4FE491F0E0EE0FFF1FE353FA4FED
:10308000259134913093040820930308FC01E55105
:10309000FA4FE491E0930B0880910208082E000C8F
:1030A000990BFC01E952FA4FE491F0E0EE0FFF1F9B
:1030B000E353FA4F25913491309308082093070881
:1030C000FC01E551FA4FE491E0930D08809100086E
:1030D000082E000C990BFC01E952FA4FE491F0E044
:1030E000EE0FFF1FE353FA4F2591349130930A08F6
:1030F00020930908FC01E551FA4FE491E0930E0892
:1031000061E0809101080E94EE0561E08091010874
:103110000E94630561E070E080E090E00E94C108D9
:1031200060E0809101080E9463056AE070E080E041
:1031300090E00E94C10861E0809101080E9463054F
:103140008EEA0E94D20785ED0E94D20780E80E9495
:10315000D20788EA0E94D2078FE10E94D20783ED4E
:103160000E94D20780E00E94D20780E40E94D2072A
:103170008DE80E94D20784E10E94D20780E20E947B
:10318000D20780E00E94D20781EA0E94D20788EC31
:103190000E94D2078AED0E94D20782E00E94D207E5
:1031A00081E80E94D2078FE80E94D20789ED0E9431
:1031B000D20781EF0E94D2078BED0E94D20780E4F4
:1031C0000E94D20784EA0E94D20786EA0E94D207B0
:1031D0008FEA0E94D2070E941B0868EE73E080E02D
:1031E00090E00E94C108E8E0F1E080E092E0DF01B9
:1031F0009C011D9221503040E1F781E090E09093D6
:10320000F7078093F6079093F9078093F807809368
:10321000FA0780EA93E09F938F938AE294E09F936A
:103220008F9303EB14E01F930F930E94CA2AD801D7
:103230000D900020E9F78D01035B144086E0809F2C
:103240009001819F300D112480E890E0821B930B48
:10325000969587959093F3078093F2071092F50760
:103260001092F4070F900F900F900F900F900F9007
:103270008091010766EA73E0882311F068EA73E041
:1032800086EE97E00E94311063EB74E086EE97E0E3
:103290000E94311088E090E09093F3078093F2074A
:1032A0009093F5078093F4070E94AA0620E030E08F
:1032B00040EF51E40E94713020E030E048E451E4F6
:1032C0000E9427330E94CC316C5E7F4F77FDACC2E9
:1032D0006536710514F064E670E07F936F938CE1BE
:1032E00094E09F938F9303EB14E01F930F930E943E
:1032F000CA2AB80186EE97E00E94311089E194E075
:103300009F938F931F930F930E94CA2AB80186EE52
:1033100097E00E94311087E390E09093F307809349
:10332000F207E0E1EE2EF12CF092F507E092F407BF
:1033300080911F078F9380911E078F9380E194E007
:103340009F938F931F930F930E94CA2AB80186EE12
:1033500097E00E9431108CE094E09F938F931F932D
:103360000F930E94CA2AB80186EE97E00E9431109E
:10337000F8E0CF2ED12CD092F307C092F207F09252
:10338000F507E092F407809129071F928F9383E05D
:1033900094E09F938F931F930F930E94CA2AB801C2
:1033A00086EE97E00E943110FF24F394F092FA0722
:1033B00085E590E09093F3078093F207D092F507AC
:1033C000C092F407809114078F93809113078F9315
:1033D0008DEF93E09F938F931F930F930E94CA2AC0
:1033E0000FB6F894DEBF0FBECDBFB80186EE97E0F2
:1033F0000E943110F092FA0780910307882329F187
:1034000083E097E0DC010D900020E9F7CD018450C6
:10341000974046E0489F9001499F300D112480E875
:1034200090E0821B930B969587959093F30780937A
:10343000F20788E190E09093F5078093F40763E04A
:1034400077E086EE97E00E9431100E941B0868E248
:1034500073E280E090E00E94C10883E10E948F0641
:10346000853F91400CF4E3C1109201070E94AA0627
:1034700020E030E040EF51E40E9471300E94CC31F6
:10348000161617064CF068EE73E080E090E00E949C
:10349000C10881E08093010784E397E00E94E10E78
:1034A0000E94F3086B017C0101E00E94F308AB016C
:1034B000BC01D701C601841B950BA60BB70BC41624
:1034C000D506E606F70620F480959095A095B09570
:1034D000883E9340A105B10528F40E94680F892B0E
:1034E00009F4ABC30E94680F892B11F40C94BF261A
:1034F0000E94F308609368047093690480936A04DF
:1035000090936B0480916604909167042091230549
:10351000309124051C01221A330A910150E040E049
:103520002D8B3E8B4F8B588F9093240580932305D2
:1035300080911F0590912005A0912105B091220551
:10354000FC01EE0FFF1FEE0FFF1FE151FB4F208329
:10355000318342835383BC01CD016F5F7F4F8F4F17
:103560009F4F2CE030E040E050E00E941330609329
:103570001F05709320058093210590932205EFEE9F
:10358000F4E02FE135E060E070E0CB01C190D19034
:10359000E190F1906C0D7D1D8E1D9F1D2E173F0734
:1035A000A9F70E9402326B017C0122EB35EC4CEF53
:1035B00055E30E9427339B01AC0160E070E080E896
:1035C0009FE30E9471309B01AC01C701B6010E94CC
:1035D0005A310E94D3316D877E878F87988B809177
:1035E000EB049091EC04A091ED04B091EE042D89D0
:1035F0003E894F89588D820F931FA41FB51F80935A
:10360000EB049093EC04A093ED04B093EE0480914E
:10361000E7049091E804A091E904B091EA040596CA
:10362000A11DB11D8093E7049093E804A093E904E1
:10363000B093EA048091E3049091E404A091E5043E
:10364000B091E6042D853E854F85588982179307F2
:10365000A407B50740F42093E3043093E4044093B7
:10366000E5045093E6048091F5069091F606A0914A
:10367000F706B091F8062D893E894F89588D820F43
:10368000931FA41FB51F8093F5069093F606A09391
:10369000F706B093F8066091F9067091FA068091EA
:1036A000FB069091FC066B5F7F4F8F4F9F4F60939F
:1036B000F9067093FA068093FB069093FC0620E1CE
:1036C0003EE040E050E00E941330672B682B692BEE
:1036D00021F485EF96E00E94A50F8091E10490917E
:1036E000E2048C3091050CF0B9C326E52093060165
:1036F00001969093E2048093E1048091E0048111AB
:10370000E9C380910501813409F0E4C38DED97E0B0
:103710009E838D831C861B861A86198618861F82B7
:10372000DE0111965D01FE0137966F019E01285F53
:103730003F4F79018E01075F1F4F2E5F3F4FAE0154
:10374000455F5F4FBE01645F7F4FCE0105960E94CB
:10375000FF0889819A81AB81BC818F3F9F4FAF4F1A
:10376000BF4F09F4B7C38B851F928F938C851F922F
:103770008F93809114078F93809113078F9389E320
:1037800094E09F938F9383ED94E09F938F930E9497
:10379000CA2A81E08093E00487EC97E00E94E10E62
:1037A0000FB6F894DEBF0FBECDBF66EB73E087ECBB
:1037B00097E00E94311063ED74E087EC97E00E947F
:1037C00031106DE087EC97E00E94080E80E00E94C7
:1037D0009D0E811151C360E084E00E94630564E6A0
:1037E00070E080E090E00E94C10861E084E00E9407
:1037F000630581E00E949D0ED8CF10924F05109274
:103800004E051092C5051092E7050E94AF058BED9D
:1038100094E090937205809371058CED94E0909301
:103820007605809375056CCC61E070E056CD81E043
:103830008093010760E082E10E94630517CE1A328F
:1038400009F426C21C3209F0F5C28091A70781272E
:103850008093A7071DC22156263018F48755910979
:1038600031C2C0972FC29156963018F427553109AE
:1038700038C22053310935C280917707909178077B
:10388000A0917907B0917A0780937307909374079A
:10389000A0937507B09376078091570790915807CA
:1038A000A0915907B0915A078093530790935407FA
:1038B000A0935507B09356078091670790916807CA
:1038C000A0916907B0916A0780936307909364079A
:1038D000A0936507B093660780916F07909170077A
:1038E000A0917107B091720780936B0790936C075A
:1038F000A0936D07B0936E078091950790919607FE
:10390000909394078093930780918F0790919007ED
:10391000A0919107B091920780938B0790938C07A9
:10392000A0938D07B0938E0777C28091570790912F
:103930005807A0915907B0915A070097A105B10502
:1039400009F46AC240919B0750919C0760919D07C2
:1039500070919E074093970750939807609399073B
:1039600070939A072091B8072223E1F0213009F0E3
:1039700053C28093530790935407A0935507B09375
:10398000560780915F0790916007A0916107B09101
:10399000620780935B0790935C07A0935D07B093E9
:1039A0005E073AC28093530790935407A09355073C
:1039B000B093560731C28091C3079091C407019616
:1039C0009093C4078093C30727C291111FC049EA8F
:1039D00057E0EAEAF3E09A01D9018D919D0188232D
:1039E00011F40C94682A91918917B1F3E0EBF3E09C
:1039F000DA018D91AD01882311F40C946C2A919118
:103A00008917B1F342E04093B80706C2E091B807C6
:103A1000E23009F401C28091A907882309F4FCC1AE
:103A2000B0E2EB9FF0011124E92B3197E932F10567
:103A300008F0F2C1E25EF24E0C943530471D621D73
:103A40007E1D991DAB1DE91DF01DFA1D051E0C1FE5
:103A50000C1F0C1F0C1F0C1F0C1F0C1F0C1F0C1F0E
:103A60000C1F0C1F0C1F0C1F0C1F0C1F0C1F0C1FFE
:103A70000C1F0C1F0C1F0C1F0C1F0C1F471D5C1D67
:103A8000621D7E1D991DAB1DC61DD11DDC1D0E9432
:103A90005203609357077093580780935907909388
:103AA0005A070E94F30860939B0770939C078093CA
:103AB0009D0790939E07B0C191E0813409F48DC0B9
:103AC00090E08BC08091BC078823A9F00E94280455
:103AD00060936707709368078093690790936A07FC
:103AE0000E94F3086093A3077093A4078093A5072F
:103AF0009093A60791C10E94A703EACF833509F0EE
:103B00008BC18091670790916807A0916907B09178
:103B10006A07B095A095909581959F4FAF4FBF4F85
:103B20008093670790936807A0936907B0936A072B
:103B300073C18091BC07882359F00E9428046093C8
:103B40006F0770937007809371079093720764C139
:103B50000E94A703F4CF873509F05EC180916F07FB
:103B600090917007A0917107B0917207B095A095E0
:103B7000909581959F4FAF4FBF4F80936F07909364
:103B80007007A0937107B093720746C10E94520359
:103B900060937F07709380078093810790938207DB
:103BA0003BC10E94520360938707709388078093FC
:103BB000890790938A0730C189EA97E00E942C0315
:103BC00060935F077093600780936107909362072B
:103BD00023C191E081330CF473CF9093BB071CC1D8
:103BE00089EA97E00E94A42A9927909396078093E8
:103BF000950712C10E94520360938F07709390073C
:103C0000809391079093920707C10E94520360939B
:103C10007707709378078093790790937A07FCC0B1
:103C20001092BA071092B9071092A707E2E0E0934A
:103C3000B8071092A8071092BB0784E397E00E9490
:103C4000640E892B09F431CC84E397E00E947C0E4A
:103C5000182F8091BD079091BE07A091BF07B0912A
:103C6000C0070196A11DB11D8093BD079093BE07AB
:103C7000A093BF07B093C007143291F2E091BA0746
:103C800015320CF0DCCD1A3019F01D3009F0D2C01D
:103C9000EF3008F0C1C09091B907F0E0E755F84F58
:103CA00010828091A807882309F48FCE2091A9075C
:103CB000822F022E000C990B3FEB320F363008F0AA
:103CC000CACDC7978295807F9091AA07292F092E88
:103CD000000C330B4FEB490F463008F0C4CD27538F
:103CE0003109820F9091A707891365CE8091BB0798
:103CF000882309F41ACE8091C1079091C2070196DA
:103D00009093C2078093C10780919B0790919C0775
:103D1000A0919D07B0919E07809397079093980775
:103D2000A0939907B0939A078091A3079091A40755
:103D3000A091A507B091A60780939F079093A00735
:103D4000A093A107B093A2078091B807882309F434
:103D500093CD813009F060C080915707909158074A
:103D6000A0915907B0915A07809353079093540735
:103D7000A0935507B093560780915F079091600715
:103D8000A0916107B091620780935B0790935C07F5
:103D9000A0935D07B0935E078091670790916807D5
:103DA000A0916907B0916A078093630790936407B5
:103DB000A0936507B093660780916F079091700795
:103DC000A0917107B091720780936B0790936C0775
:103DD000A0936D07B0936E0780917F079091800745
:103DE000A0918107B091820780937B0790937C0715
:103DF000A0937D07B0937E078091870790918807F5
:103E0000A0918907B0918A078093830790938407D4
:103E1000A0938507B09386078091B9078F5F809341
:103E2000B9071092BA0781E01A3209F080E0809356
:103E3000A80703CFEE3040F481E08E0F8093BA07DD
:103E4000F0E0E755F84F10838091A8078111F5CE77
:103E50008091A70718271093A707EFCE8D859E8521
:103E6000AF85B889892B8A2B8B2B21F486E580932B
:103E7000060143CC81E4FBCF81E995E09F938F93CA
:103E800003EB14E01F930F930E94CA2AB80187EC3A
:103E900097E00E9431108BE895E09F938F931F93DA
:103EA0000F930E94CA2AB80187EC97E00E94311054
:103EB00087E795E09F938F931F930F930E94CA2AE1
:103EC000B80187EC97E00E9431100FB6F894DEBF7E
:103ED0000FBECDBFE1E9F6E084E6DF011D928A95D1
:103EE000E9F78DED97E09E838D831C861B861A86ED
:103EF000198618861F828CE0E7EAF4E0DF01282F9C
:103F00001D922A95E9F7EBE9F4E0DF011D928A950D
:103F1000E9F7E3EBF4E080E2DF011D928A95E9F72F
:103F2000FE0131965F019E01295F3F4F6901AE019D
:103F3000485F5F4F7A018E01075F1F4F2D5F3F4F34
:103F40004D5F5F4FBE01645F7F4FCE0105960E94BB
:103F5000FF0889819A81AB81BC818F3F9F4FAF4F12
:103F6000BF4F51F48CED97E09E838D831C861B869A
:103F70001A86198618861F828090630790906407BE
:103F8000A0906507B090660740906B0750906C0753
:103F900060906D0770906E0780919F079091A007C9
:103FA000A091A107B091A2078F3F6FEF9607A607D8
:103FB000B60781F00E94F30800919F071091A007B7
:103FC0002091A1073091A207DC01CB01801B910B4E
:103FD000A20BB30B89839A83AB83BC838091BB070D
:103FE0008111B1C186E580930501609173077091DD
:103FF000740780917507909176076F3FA9EC7A0757
:10400000AAE98A07ABE39A0709F49FC10E94043228
:1040100020E030E048EC52E40E945A316BA77CA7C4
:104020008DA79EA760917B0770917C0780917D078B
:1040300090917E07C12CD12C30E8E32E3FEBF32E7C
:104040006F3F29EC72072AE982072BE39207E1F020
:104050000E94023220E030E048EC52E40E945A31E3
:104060006B017C0120E030E040E85FEB0E945031C2
:10407000882351F026E53EE04DEE5FE3C701B6012F
:104080000E9427336B017C01409193075091940764
:104090005E8F4D8F80918B0790918C07A0918D073B
:1040A000B0918E07898B9A8BAB8BBC8BB7FE55C1B9
:1040B000B094A09490948094811C911CA11CB11C7C
:1040C00093E59BA377FE4CC1709460945094409408
:1040D000411C511C611C711CB7E5BF8FB401C501A7
:1040E000FFEF8F16F9EC9F06FAE9AF06FBE3BF0678
:1040F00021F460E070E080E090E020EA36E841E002
:1041000050E00E941330122F032F498F5FA32AE043
:1041100030E040E050E00E9413305F934F933F93B4
:104120002F932FA12F93398D3F930F931F9382E7E6
:1041300094E09F938F9387EA94E09F938F930E94DC
:10414000CA2A0FB6F894DEBF0FBECDBFB201C301BD
:104150005FEF451659EC55065AE965065BE37506AF
:1041600021F460E070E080E090E020EA36E841E091
:1041700050E00E941330122F032F498F5FA32AE0D3
:1041800030E040E050E00E9413305F934F933F9344
:104190002F936FA16F93898D8F930F931F9386E653
:1041A00094E09F938F938BE994E09F938F930E9469
:1041B000CA2A0FB6F894DEBF0FBECDBF20E034E2AE
:1041C00044E759E46BA57CA58DA59EA50E945031BE
:1041D000882309F4C8C0FBA5ECA55DA53EA503EBAB
:1041E00014E022E040E06F2F7E2F852F932F0E9456
:1041F000862AE1E9F6E084E6DF011D928A95E9F777
:1042000029893A894B895C892F3F3F4F4F4F5F4F38
:1042100021F4198A1A8A1B8A1C8A8D8D9E8D8F3FE4
:10422000910509F4A5C08D8D9E8DAC89AF93BB8996
:10423000BF93EA89EF93F989FF939F938F938091BE
:104240000501282F082E000C330B3F938F9383EB2F
:1042500094E09F938F931F922F8D2F938BE994E07F
:104260009F938F931F923BA13F9387EA94E09F9384
:104270008F9380910601282F082E000C330B3F935B
:104280008F938091EE048F938091ED048F938091B2
:10429000EC048F938091EB048F931F921F924E89B1
:1042A0004F935D895F9368896F938F858F939E8508
:1042B0009F93AD85AF9388851F928F9389851F92B9
:1042C0008F938A851F928F938B851F928F938C85F6
:1042D0001F928F938E818F938D818F93809114077E
:1042E0008F93809113078F938EEB93E09F938F931F
:1042F00087E295E09F938F9301E916E01F930F9358
:104300000E94CA2AF80101900020E9F78F010259A2
:1043100016401127F801EF56F94F1082809192064E
:104320000FB6F894DEBF0FBECDBFA1E9B6E011967F
:104330009D012159364020173107ECF411969C91CC
:1043400011978927F4CF81E44ECE1BA6B4E2BCA717
:10435000E4E7EDA7F9E4FEA765CEAEE4ABA3B2CEE9
:10436000E5E4EF8FBBCEF0E0E0E050E030E037CFA7
:1043700080E090E05ACF803108F08FC21F928F9377
:1043800082E295E09F938F93FF93EF930E94CA2A56
:104390000F900F900F900F900F900F908091BB0790
:1043A000882309F4ADC0C501B4010E94023220E89F
:1043B00036E948E15BE40E945A31698B7A8B8B8B3A
:1043C0009C8B0E94CC31072E000C880B990B0E940D
:1043D00004324B015C01AC019B0169897A898B89AC
:1043E0009C890E94713020E030E040E752E40E9456
:1043F0005A3120E030E048EC52E40E9427339B0120
:10440000AC01C501B4010E9472306D8B7E8B8F8B25
:10441000988FC301B2010E94023220E836E948E1D8
:104420005BE40E945A312B013C010E94CC31072EE3
:10443000000C880B990B0E9404324B015C01AC010B
:104440009B01C301B2010E94713020E030E040E7DF
:1044500052E40E945A3120E030E048EC52E40E94DD
:1044600027339B01AC01C501B4010E947230698BF6
:104470007A8B8B8B9C8B20E030E040EA50E4C701C4
:10448000B6010E941A3309E110E0181614F405E091
:1044900010E020E030E040E251E4C701B6010E94A4
:1044A0001A33181614F40AE010E020E030E040E778
:1044B00051E4C701B6010E941A33181614F404E13E
:1044C00010E080910401882309F4ECC18D899E8954
:1044D000AF89B88D8093970490939804A093990422
:1044E000B0939A0429893A894B895C892093930473
:1044F00030939404409395045093960410920401D1
:10450000E8E0F1E080E092E0DF019C011D922150A3
:104510003040E1F780910107811150C48090E70499
:104520009090E804A090E904B090EA04C501B401B9
:1045300020E13EE040E050E00E9413306901C501F7
:10454000B4012CE330E040E050E00E9413306CE313
:104550006C9DC0016D9D900D1124281B390B3F935C
:104560002F93DF92CF9283E195E09F938F9383EB1C
:1045700094E09F938F930E94CA2A8CE590E09093D9
:10458000F3078093F20788E190E09093F50780931A
:10459000F40781E08093FA0781E090E09093F707B9
:1045A0008093F6079093F9078093F80763EB74E024
:1045B00086EE97E00E941D10109106010FB6F89448
:1045C000DEBF0FBECDBF113449F48091BB078823F5
:1045D00029F080918E0461E0811101C060E082E1E8
:1045E0000E9463051092F3071092F2071092F507EC
:1045F0001092F40752E05093FA07163509F049C2B9
:104600001092F7071092F60781E090E09093F90777
:104610008093F807ECE6F4E080E2DF011D928A95D2
:10462000E9F780911E0790911F07B0E0A0E02D856B
:104630003E854F85588982179307A407B50708F070
:104640002FC29101ACE0B0E00E943B306B017C01D5
:10465000C701B6010E94023230E1C31637E2D30629
:10466000E104F10408F421C220E030E04AE754E418
:104670000E945A3103EB14E023E044E00E94862AB2
:1046800043E050E0B8018CE694E00E942634ECE66A
:10469000F4E001900020E9F7329780818E3209F42E
:1046A00010826CE674E086EE97E00E94311081E69D
:1046B00094E09F938F9383EB94E09F938F930E945A
:1046C000CA2A63EB74E086EE97E00E9431100F90E7
:1046D0000F900F900F9081E090E09093F7078093F8
:1046E000F6079093F9078093F8078093FA07809173
:1046F000BB078111F0C18CE590E09093F3078093A4
:10470000F20788E090E09093F5078093F407109209
:10471000F7071092F6078CE095E09F938F9383EB59
:1047200094E09F938F930E94CA2A63EB74E086EE15
:1047300097E00E941D100F900F900F900F9081E056
:1047400090E09093F7078093F6079093F907809392
:10475000F8071092F3071092F20780E190E090932F
:10476000F5078093F407809102078111EDC1C09095
:104770001607D0901707E0901807F090190780915E
:104780001E0790911F07B0E0A0E02D853E854F8564
:10479000588982179307A407B50708F0CEC1B10165
:1047A00090E080E00E94023220E030E040E451E4FA
:1047B0000E942733A70196010E945A3103EB14E0AF
:1047C00023E040E00E94862A63EB74E086EE97E0E7
:1047D0000E94311083E095E09F938F9383EB94E0E8
:1047E0009F938F930E94CA2A63EB74E086EE97E052
:1047F0000E941D100F900F900F900F9080918C04CD
:1048000090918D04892B09F4C8C160918F04709137
:10481000900480919104909192040E94023220E0D1
:1048200030E04AE754E40E945A3103EB14E021E0FF
:1048300040E00E94862AD8010D900020E9F7CD01C2
:10484000845B944046E0489F9001499F300D1124BD
:1048500084E790E0821B930B9093F3078093F20719
:1048600080E190E09093F5078093F407B80186EE1D
:1048700097E00E94311089EF94E09F938F931F93EC
:104880000F930E94CA2AB80186EE97E00E941D107D
:104890000F900F900F900F90B8C11F928F938EE1E1
:1048A00095E070CD2091930430919404409195044B
:1048B0005091960469897A898B899C890E9471300C
:1048C00025E33AEF4EE85CE30E9427336B017C015D
:1048D0000E9494336FA378A789A79AA7C701B6014E
:1048E0000E9455316F8F78A389A39AA325E33AEFED
:1048F0004EE85CE36D897E898F89988D0E9427330D
:104900004B015C0125E33AEF4EE85CE360919704CC
:10491000709198048091990490919A040E94273391
:104920006B017C01C501B4010E9494336BA37CA38D
:104930008DA39EA3C501B4010E9455314B015C01BA
:10494000C701B6010E949433698F7A8F8B8F9C8F39
:10495000C701B6010E9455316B017C01298D3A8D4A
:104960004B8D5C8DC501B4010E9427332B013C01A6
:10497000A70196016BA17CA18DA19EA10E94273366
:104980002F8D38A149A15AA10E9427339B01AC0168
:10499000C301B2010E9471309B01AC010E94273318
:1049A0002B013C01A70196016FA178A589A59AA5C5
:1049B0000E9427339B01AC010E942733A30192017F
:1049C0000E9472300E94A2332B013C01A701960184
:1049D000C501B4010E9427332F8D38A149A15AA1E6
:1049E0000E9427336B017C01298D3A8D4B8D5C8DA4
:1049F0006BA17CA18DA19EA10E9427339B01AC01DC
:104A0000C701B6010E9472309B01AC01C301B20123
:104A10000E94F13026E73BE742EC5AE40E9427333C
:104A20000E94CC31012E000C220B330B0617170706
:104A30002807390708F064CD00918F041091900485
:104A40002091910430919204060F171F281F391FDF
:104A500000938F0410939004209391043093920458
:104A60008D899E89AF89B88D80939704909398041F
:104A7000A0939904B0939A0429893A894B895C8957
:104A80002093930430939404409395045093960498
:104A900037CD81E090E09093F7078093F607B6CD8D
:104AA000CD84DE84EF84F888D3CD03EB14E020E0DE
:104AB00040E00E94862AB80186EE97E00E943110FD
:104AC0008CE594E09F938F93C8019F930F930E946E
:104AD000CA2AB801F8CD8EE690E09093F307809350
:104AE000F20788E090E09093F5078093F4074E8DED
:104AF0004F935D8D5F9384EC93E09F938F9303EBD3
:104B000014E01F930F930E943534B80186EE97E0AE
:104B10000E9431108AE095E09F938F931F930F932B
:104B20000E94CA2AB80186EE97E00E941D100FB6B7
:104B3000F894DEBF0FBECDBF02CE6D857E858F851A
:104B400098890E94023236CE813009F057CE6D85A9
:104B50007E858F8598890E94023220911A073091B4
:104B60001B0740911C0750911D070E94273303EB40
:104B700014E023E040E00E94862AB80186EE97E028
:104B80000E9431108CEF94E09F938F93C8019F9304
:104B90000F930E94CA2AB80129CE8091BB078823AF
:104BA00009F4FDC003EB14E020E040E06BA57CA518
:104BB0008DA59EA50E94862A83EB94E0FC010190BE
:104BC0000020E9F7CF01845B944046E0489F9001C4
:104BD000499F300D11248AE790E0821B930B90933C
:104BE000F3078093F20780E190E09093F5078093BC
:104BF000F40763EB74E086EE97E00E94311064E8FE
:104C000073E086EE97E00E941D1080918E04882349
:104C100009F4EDC388851F928F9389851F928F9326
:104C20008A851F928F938C851F928F938B851F92FD
:104C30008F9380EA94E09F938F9383EB94E09F930C
:104C40008F930E94CA2A1092F3071092F20788E10C
:104C500090E09093F5078093F40781E08093FA0742
:104C600081E090E09093F7078093F6079093F9071F
:104C70008093F80763EB74E086EE97E00E941D10C6
:104C80000FB6F894DEBF0FBECDBF0E94AA0620E08B
:104C900030E040EF51E40E9471300E94CC31693025
:104CA000710514F068E070E06B0177FF02C0D12C51
:104CB000C12C2091010780911E0790911F07213080
:104CC00009F0D4C32CE530E03093F3072093F207CA
:104CD00028E130E03093F5072093F407B0E0A0E03E
:104CE0002D853E854F8558896BE573E082179307C4
:104CF000A407B50710F06EE573E086EE97E00E941A
:104D00003110EE24E394F12C07E010E02CE030E0C9
:104D100048E150E064E770E086EE97E00E94F20C14
:104D200003E010E096014AE150E066E770E086EEAD
:104D300097E00E94900C0E941B0880918C04909137
:104D40008D0431E0832790938D0480938C0461E976
:104D500076E084EF95E00E941D108091E0048823A6
:104D600071F08091010781110AC087EC97E00E94E1
:104D7000E10E61E976E087EC97E00E941D1080E08B
:104D800090E0892B11F40C942D1A0E94490A882373
:104D900011F40C942D1A0E9400000C942D1A86EF29
:104DA00094E09F938F9383EB94E09F938F930E9463
:104DB000CA2A0F900F900F900F90FECE813009F00D
:104DC000F4C260E082E10E94630580911E07909129
:104DD0001F07B0E0A0E02D853E854F85588961E032
:104DE00082179307A407B50708F060E082E10E94EC
:104DF00063051092F3071092F2071092F5071092D4
:104E0000F40732E03093FA0780910601863509F005
:104E1000B9C01092F7071092F60781E090E09093E6
:104E2000F9078093F807ECE6F4E080E2DF011D92D9
:104E30008A95E9F780911E0790911F07B0E0A0E0E6
:104E40002D853E854F85588982179307A407B5079E
:104E500008F09FC09101ACE0B0E00E943B300E949E
:104E60000232209116073091170740911807509190
:104E700019070E945A316B017C0120E030E04AE7BB
:104E800054E40E941A3387FD89C020E030E04AE7ED
:104E900054E4C701B6010E945A3103EB14E022E04A
:104EA00044E00E94862A45E050E0B8018CE694E098
:104EB0000E942634ECE6F4E001900020E9F73297F6
:104EC00080818E3209F410826CE674E086EE97E001
:104ED0000E94311086E594E09F938F9383EB94E0DA
:104EE0009F938F930E94CA2A63EB74E086EE97E04B
:104EF0000E9431100F900F900F900F90ECE6F4E0AD
:104F000080E2DF011D928A95E9F71092F307109273
:104F1000F20780E190E09093F5078093F40781E039
:104F20008093FA0781E090E09093F7078093F6076B
:104F30009093F9078093F80780918C0490918D04E9
:104F4000892B09F47FC10E94AA0620E030E040EFDF
:104F500051E40E9471300E94CC31161617060CF4F1
:104F600069C01092F7071092F60781E090E09093E5
:104F7000F9078093F80768EC73E086EE97E00E94EB
:104F8000311043CE81E090E09093F7078093F607CD
:104F900046CF6D857E858F85988961CF20E030E092
:104FA00040E251E4C701B6010E941A3303EB14E05A
:104FB00087FD20C022E044E0C701B6010E94862A96
:104FC00045E050E0B8018CE694E00E942634ECE61F
:104FD000F4E001900020E9F7329780818E3209F4E5
:104FE00010826CE674E086EE97E00E94311080E556
:104FF00094E072CF23E044E0C701B6010E94862A04
:1050000046E050E0B8018CE694E00E942634ECE6DD
:10501000F4E001900020E9F7329780818E3209F4A4
:1050200010826CE674E086EE97E00E9431108AE40C
:1050300094E052CF80911E0790911F072D853E85E9
:105040004F855889B0E0A0E0293E63E0360741056E
:10505000510508F495C082179307A407B50708F017
:1050600088C0B10190E080E00E94023220E030E090
:1050700040E451E40E94273320E030E04AE754E462
:105080000E945A3103EB14E021E040E00E94862A9E
:1050900044E050E063EB74E08CE694E00E94263438
:1050A000ECE6F4E001900020E9F7329780818E323F
:1050B00009F410826CE674E086EE97E00E943110ED
:1050C00080EF94E09F938F9383EB94E09F938F9373
:1050D0000E94CA2A63EB74E086EE97E00E943110CA
:1050E0000F900F900F900F906D857E858F8598891A
:1050F0000E94023220911A0730911B0740911C0731
:1051000050911D070E9427336B017C0120E034E29F
:1051100044E759E40E941A3318160CF05BC020E0F3
:1051200034E244E759E4C701B6010E945A3103EB67
:1051300014E021E040E00E94862A45E050E0B801FA
:105140008CE694E00E9426346CE674E086EE97E0EC
:105150000E94311084EE94E09F938F93C8019F9337
:105160000F930E94CA2AB80186EE97E00E94311080
:105170008FCB6D857E858F8598890E9402327CCF8A
:105180002D853E854F85588982179307A407B5075B
:10519000D0F4B10190E080E00E94023220E030E0E3
:1051A00040E451E40E94273303EB14E020E040E0A8
:1051B0000E94862A63EB74E086EE97E00E9431102D
:1051C0008BEE94E07FCF6D857E858F8598890E94D8
:1051D0000232EACF20E030E44CE156E4C701B601E8
:1051E0000E941A331816F4F420E030E04AE754E441
:1051F000C701B6010E945A3103EB14E020E040E001
:105200000E94862A45E050E0B8018CE694E00E94B6
:1052100026346CE674E086EE97E00E9431108DED46
:1052200094E09ACF03EB14E020E040E0C701B60120
:105230000E94862AB80186EE97E00E94311087ED21
:1052400094E08ACF0E94AA0620E030E040EF51E4CB
:105250000E9471300E94CC31161617060CF081CED8
:1052600083ED94E09F938F9323EBE22E24E0F22EC4
:10527000FF92EF920E94CA2AB70186EE97E00E9441
:1052800031106091E3047091E4048091E504909101
:10529000E6040E94023220911607309117074091D0
:1052A0001807509119070E945A31870121E040E008
:1052B0000E94862AB70186EE97E00E9431108DEC9D
:1052C00094E09F938F93FF92EF920E94CA2AB701B6
:1052D00086EE97E00E94311089EC94E09F938F93C3
:1052E000FF92EF920E94CA2AB70186EE97E00E94D1
:1052F00031106091F9067091FA068091FB06909149
:10530000FC060E9402324B015C016091F50670912F
:10531000F6068091F7069091F8060E9402322B0162
:105320003C0120E030E040E752E4C501B4010E94B6
:105330005A319B01AC01C301B2010E945A31209144
:1053400016073091170740911807509119070E94CE
:105350005A312B013C0120E030E041E655E4C50123
:10536000B4010E945A319B01AC01C301B2010E94F9
:10537000273320E040E00E94862AB70186EE97E0BE
:105380000E94311086EC94E09F938F93FF92EF92EE
:105390000E94CA2AB70186EE97E00E9431100FB62C
:1053A000F894DEBF0FBECDBF30CC1092F307109241
:1053B000F2071092F5071092F40752E05093FA07A3
:1053C0001092F7071092F60781E090E09093F907AA
:1053D0008093F80789EB94E09F938F9383EB94E09D
:1053E0009F938F930E94CA2A63EB74E0BDCE109204
:1053F000F3071092F20788E190E09093F50780930D
:10540000F40781E08093FA071092F7071092F607ED
:1054100081E090E09093F9078093F8078AE894E0A0
:105420009F938F9383EB94E09F938F930E94CA2A5C
:1054300063EB74E086EE97E00E94311060E082E159
:105440000E946305E1E9F6E084E6DF011D928A959A
:10545000E9F78EE794E09F938F93FF93EF930E9479
:10546000CA2A61E976E084E397E008CC2CE530E0D5
:105470003093F3072093F2071092F5071092F40788
:10548000B0E0A0E02D853E854F8558896BE573E03F
:1054900082179307A407B50710F06EE573E086EE58
:1054A00097E00E943110EE24E394F12C07E010E025
:1054B0002CE030E050E040E064E770E086EE97E0FA
:1054C0000E94F20C03E010E0960142E050E02DCC87
:1054D0000093B8070C940C1F1092B8070C940C1F83
:1054E000CF93DF93CCE0D3E0D0933507C09334075C
:1054F00084E397E00E94CB0ED093C807C093C70700
:1055000087EC97E0DF91CF910C94CB0EEF920F9345
:105510001F93CF93DF93E80134E047FD34E1042E7D
:10552000000C550B57FF03C0519541955109E32ECF
:10553000022F242FAE010E94C72CCE01DF91CF9104
:105540001F910F91EF900895FC0188279927E89407
:1055500021912032E9F3293010F02E30C8F32B329C
:1055600041F02D3239F4689404C00E94C22A820F9F
:10557000911D219120532A30C0F31EF490958195FE
:105580009F4F08957AE0979F902D879F802D910DD2
:1055900011240895AEE0B0E0E0EDFAE20C94C62FDD
:1055A0000D891E898EE08C831A8309838FEF9FE714
:1055B0009E838D83AE01475E5F4F6F89788DCE01EC
:1055C00001960E94ED2A2F813885020F131FF801E2
:1055D00010822E96E4E00C94E22FABE0B0E0E3EF13
:1055E000FAE20C94B82F7C013B018A01FC0117827E
:1055F0001682838181FFC8C1CE0101965C01F7014B
:105600009381F30193FD859193FF81913F0188235D
:1056100009F453C1853239F493FD859193FF81914B
:105620003F01853229F4B70190E00E94142FE7CFA3
:10563000912C212C312CFFE1F31538F08B3211F134
:1056400090F4803209F1833229F137FC3CC020ED1F
:10565000280F2A3050F536FE20C08AE0989E200D93
:105660001124922E06C08D3291F0803371F7689428
:1056700030F8F30193FD859193FF81913F018111F2
:10568000DACF21C0689431F8689432F8F2CF689488
:1056900033F8EFCF689434F8ECCFEAE02E9E200D7B
:1056A0001124222E689435F8E4CF8E3229F436FC8A
:1056B00004C1689436F8DDCF8C3619F4689437F855
:1056C000D8CF8836B1F2982F9F7D95549330E0F073
:1056D0008336A1F18337C1F1833509F063C0280116
:1056E000F2E04F0E511CF801C080D180692D70E0AE
:1056F00036FC02C06FEF7FEFC6010E94FE2E4C0108
:10570000689437F882010AC00C5F1F4FFFE3F983EA
:1057100088248394912C6501E89437F833FE2DC0DA
:10572000522C8114910471F5552009F468CFB7010A
:1057300080E290E00E94142F5A94F6CFF801808105
:1057400089830E5F1F4FE4CF2801F2E04F0E511CFA
:10575000F801C080D180692D70E036FC02C06FEF87
:105760007FEFC6010E94092F4C018201D5CFB701FE
:1057700080E290E00E94142F2A942814190409F062
:10578000B0F7CECFF60137FC859137FE81916F01DE
:10579000B70190E00E94142F51105A94F1E08F1A33
:1057A0009108BFCF843619F0893609F077C0F80127
:1057B00037FE6BC060817181828193810C5F1F4FC6
:1057C000F32DFF763F2E97FF09C090958095709539
:1057D00061957F4F8F4F9F4F689437F82AE030E0F4
:1057E000A5010E94442FC82ECA188C2C432C36FECB
:1057F0000CC0E89440F8C91440F434FE05C032FCF3
:1058000003C0F32DFE7E4F2E892C44FE95C0FE0171
:10581000EC0DF11D8081803309F087C0242D297E95
:10582000422E842D8870582E43FC95C040FE8FC0B8
:105830009C2C821418F42C0C922C981844FE91C0C5
:10584000B70180E390E00E94142F42FE09C088E770
:1058500090E041FE02C088E590E0B7010E94142F5D
:10586000C91408F48AC0CA94D12C9FEFC91AD90A66
:10587000CA0CDB1CF60182916F01B70190E00E9417
:10588000142FAC14BD04B1F74FCF60817181072E86
:10589000000C880B990B0E5F1F4F92CFD32CE8940E
:1058A000D4F82AE030E0853739F1232D297FD22E34
:1058B0008F3601F148F48835A9F0F7018681978188
:1058C0002B96E2E10C94D42F803749F08837A9F762
:1058D000D4FE02C06894D2F820E130E00DC0689494
:1058E000D4F8F6CF34FE03C0822F8660D82E20E194
:1058F00032E002C028E030E0F801D7FE0FC060813E
:105900007181828193810C5F1F4FA5010E94442FFA
:10591000C82ECA183D2CE89437F867CF6081718192
:1059200090E080E00E5F1F4FF0CF42FC02C08394F6
:1059300078CF8394839475CF842D867809F471CFC2
:10594000F6CFB70180E290E00E94142F8394821476
:10595000C0F3512C73CF522C5818821408F46ECF18
:10596000F8CF842D867809F47BCF8BE241FE80E26C
:1059700047FC8DE2B70190E071CFB70180E390E082
:105980000E94142F9A946CCF8FEF9FEF99CFA9E0CC
:10599000B0E0EDECFCE20C94BE2F6A01F22EB02ECA
:1059A000102FFBE3AF2EA01608F41BE31F5F012F9F
:1059B00027E0AE014F5F5F4F0E94262EBC01898118
:1059C000982F9970913009F43FC09BE2E1FC04C02C
:1059D0009E2D9170E0FC3AC05E2D5071E82FE8706A
:1059E00083FF46C084E0911101C083E0EF2DE81BE6
:1059F0008F1508F0E0E0D6018E2F20E2552351F1FB
:105A0000992329F0D6019C93C60101966C01960159
:105A10002D5F3F4FE2FE24C08EE4D6018C9391E4CB
:105A200011969C93119712968C93D9018E2F90E228
:105A300081111BC0E20FF32FF11D10828EEF9FEF3B
:105A40002996ECE00C94DA2F9DE2C6CF90E2C4CF09
:105A50002D9381508111FCCFCE0ED11CE0E0D0CF30
:105A60008EE6D6018C9391E6DBCF9D938150E0CFFB
:105A7000482F447082FF3DC084E0911101C083E053
:105A80008F1510F4EF2DE81BD6018E2F20E2552341
:105A900009F1992329F0D6019C93C60101966C0166
:105AA00096012D5F3F4FE2FE1BC089E4D6018C9327
:105AB0008EE411968C93119786E412968C93D901FB
:105AC0008E2F90E2882309F4B5CF9D938150FACFB1
:105AD0002D9381508111FCCFCE0ED11CE0E0D9CFA7
