:100000000C9408030C94CF110C94A8110C944E126C
:100010000C944E120C944E120C9430030C9430033A
:100020000C9430030C9430030C9430030C94300384
:100030000C9430030C9430030C9430030C94300374
:100040000C945E110C9430030C941C120C94F61159
:100050000C9430030C9430030C9430030C94300354
:100060000C943F100C943003084AD73B3BCE016EF2
:1000700084BCBFFDC12F3D6C74319ABD56833DDAFF
:100080003D00C77F11BED9E4BB4C3E916BAAAABE0E
:10009000000000803F05A84CCDB2D44EB93836A937
:1000A000020C50B9918688083CA6AAAA2ABE000074
:1000B00000803F0000407A10F35A00A0724E1809E9
:1000C0000010A5D4E80000E87648170000E40B54BF
:1000D000020000CA9A3B000000E1F505000080968E
:1000E0009800000040420F000000A08601000000C0
:1000F000102700000000E80300000000640000007A
:1001000000000A00000000000100000000002C7642
:10011000D888DC674F0823DFC1DFAE59E1B1B7965D
:10012000E5E3E453C63AE651997696E8E6C28426BA
:10013000EB898C9B62ED407C6FFCEFBC9C9F40F296
:10014000BAA56FA5F490055A2AF75C936B6CF96712
:100150006DC11BFCE0E40D47FEF520E6B500D0EDD7
:10016000902E0300943577050080841E080000203F
:100170004E0A000000C80C333333330F986E1283DD
:100180001141EF8D2114893BE65516CFFEE6DB18B1
:10019000D1844B381BF77C1D901DA4BBE424203276
:1001A00084725E228100C9F124ECA1E53D270000A4
:1001B00000000000005F00000007000700147F142B
:1001C0007F14242A7F2A122313086462364956209A
:1001D000500008070300001C2241000041221C00BF
:1001E0002A1C7F1C2A08083E08080080703000087E
:1001F00008080808000060600020100804023E5152
:1002000049453E00427F40007249494946214149E3
:100210004D331814127F1027454545393C4A49494A
:100220003141211109073649494936464949291EB4
:1002300000001400000040340000000814224114A3
:1002400014141414004122140802015909063E41F5
:100250005D594E7C1211127C7F494949363E41411D
:1002600041227F4141413E7F494949417F09090976
:10027000013E414151737F0808087F00417F4100E2
:100280002040413F017F081422417F404040407F91
:10029000021C027F7F0408107F3E4141413E7F09DE
:1002A0000909063E4151215E7F091929462649491F
:1002B000493203017F01033F4040403F1F2040205F
:1002C0001F3F4038403F631408146303047804035D
:1002D0006159494D43007F4141410204081020000B
:1002E0004141417F0402010204404040404000037C
:1002F00007080020545478407F2844443838444448
:100300004428384444287F385454541800087E093F
:100310000218A4A49C787F0804047800447D40005F
:100320002040403D007F1028440000417F40007C79
:10033000047804787C080404783844444438FC1871
:1003400024241818242418FC7C0804040848545455
:10035000542404043F44243C4040207C1C20402082
:100360001C3C4030403C44281028444C9090907CE9
:100370004464544C440008364100000077000000FB
:100380004136080002010204024A504E00726561C3
:100390006420257320302025640024504D544B33B5
:1003A00030312C322A32450D0A0024504D544B3343
:1003B00031332C312A32450D0A0024504D544B3232
:1003C00032302C313030302A31460024504D544BDD
:1003D0003331342C302C312C302C312C302C302C2F
:1003E000302C302C302C302C302C302C302C302C2D
:1003F000302C302C302C302C302A32380023253051
:100400003464004D6F6465203D25640043504D0009
:10041000416C61726D3D2564002525004261747454
:100420006572793D202530326400476569676965EA
:10043000204E616E6F202573005341464543415362
:10044000542E5458540025303464253032642530FD
:1004500032642E6C6F67002075532F68002075532F
:100460002F6800206D532F68002043504D006B43D0
:10047000504D002530356C642E2530346C640025D9
:1004800030346C642E2530346C640024504D544B51
:100490003130342A3337004E4F20534420434152E9
:1004A000442F204750532072657365740025303205
:1004B000642F2530326420253032643A253032648E
:1004C0003A253032640057726F6E67206D6F646535
:1004D00020210075530044733D0075532F682000A0
:1004E0004D783D0042712F6D32006B42712F6D329D
:1004F000006D42712F6D320043504D20006B435010
:100500004D20002D2D006B6D002042712F6D3200AB
:10051000207553762F68005E004E6F2047505300C1
:100520002530326468253032646D002A2558002A4F
:10053000302558002425732C253034642C25303286
:10054000642D253032642D253032645425303264D8
:100550003A253032643A253032645A2C256C642CAA
:10056000256C642C256C642C25632C25732C256349
:100570002C25732C25632C25732C25632C25642CAA
:10058000256C64006E616E6F0A232064656164747B
:10059000696D653D6F6E0A00312E342E34002320C4
:1005A0004E4557204C4F470A2320666F726D617489
:1005B0003D0000000000240027002A000000000881
:1005C000000201000003040700000000000000001A
:1005D0000000000023002600290000000000250084
:1005E00028002B0004040404040404040202020290
:1005F00002020303030303030102040810204080E6
:10060000010204081020010204081020C612762AF4
:1006100011241FBECFEFD8E0DEBFCDBF13E0A0E0B6
:10062000B1E0E6EDF8E602C005900D92A23DB107FB
:10063000D9F728E0A2EDB3E001C01D92A330B207C4
:10064000E1F713E0C7E0D3E004C02197FE010E9468
:100650003B30C630D107C9F70E9494130C945E3426
:100660000C9400000F931F93CF93DF93EC0160E095
:1006700070E0CB01099120ED200F2A30A0F4AAE010
:10068000B0E09B01AC010E945030002E000C110B19
:10069000220B330B600F711F821F931F6053710970
:1006A00081099109E7CFDF91CF911F910F910895B3
:1006B0001F93CF93DF9310919D07CEE9D7E01D32B2
:1006C00011F0CDE9D7E0CE010E9432039B01AC01CD
:1006D000A4E6B0E00E945030AB01BC01FE0189915C
:1006E00090ED980F9A30D0F38E3241F5818190EDE4
:1006F000980F9A3018F5082E000C990BC097AAE0B5
:10070000A89F9001A99F300D1124C901330FAA0B96
:10071000BB0B480F591F6A1F7B1F828190ED980FFA
:100720009A3060F4082E000C990BC097092E000C2B
:10073000AA0BBB0B480F591F6A1F7B1F1D3239F4D0
:1007400070956095509541955F4F6F4F7F4FCB01EE
:10075000BA01DF91CF911F9108954F925F926F92EE
:100760007F928F929F92AF92BF92CF92DF92EF9241
:10077000FF92CF93DF938DE997E00E9432032B0124
:100780003C0124E630E040E050E00E9419309B013B
:10079000AC0160EA76E881E090E00E94F52F6B0101
:1007A0007C01EDE9F7E0819190ED980F9A30D8F354
:1007B0008E3219F5EF0180E1882E87E2982EA12C68
:1007C000B12CA99180ED8A0F8A30B8F40A2E000C62
:1007D000BB0BD097A50194010E945B30C60ED71EBB
:1007E000E81EF91EC501B4012AE030E040E050E007
:1007F0000E94193049015A01E4CFC301B20124E635
:1008000030E040E050E00E94193060E472E48FE094
:1008100090E00E94F52F4B015C01C701B6016B5FB0
:100820007F4F8F4F9F4F26E030E040E050E00E9426
:100830001930C501B401620F731F841F951FDF912A
:10084000CF91FF90EF90DF90CF90BF90AF909F90AF
:100850008F907F906F905F904F9008954F925F922E
:100860006F927F928F929F92AF92BF92CF92DF92C0
:10087000EF92FF92CF93DF938DE997E00E943203CE
:100880002B013C01EDE9F7E0819190ED980F9A3052
:10089000D8F3C12CD12C76018E3231F5EF0180E1F5
:1008A000882E87E2982EA12CB12CC12CD12C760158
:1008B000A99180ED8A0F8A30B8F40A2E000CBB0B88
:1008C000D097A50194010E945B30C60ED71EE81E8A
:1008D000F91EC501B4012AE030E040E050E00E947A
:1008E000193049015A01E4CFA301920160EA76E888
:1008F00081E090E00E94F52F6C0D7D1D8E1D9F1DE7
:10090000DF91CF91FF90EF90DF90CF90BF90AF90AD
:100910009F908F907F906F905F904F90089528E008
:1009200030E040E8E091F907F091FA0750819091AA
:100930000008909595239083E091F707F091F807D0
:100940009091FF07582F542389F05081952B908365
:10095000E091F907F091FA07908150910008952BEA
:100960009083469521503109E9F60895508190957C
:100970009523EDCF20916705260F3327331F2132B2
:100980003105ECF42091B205FC0190E080E02430C8
:1009900069F082E00895A09167052191AC014B5B5D
:1009A0005A4FA40FB52FB11D2C930196861798F3BB
:1009B00080916705680F6093670580E0089581E086
:1009C0000895089508950895E091430580914205A2
:1009D000E81730F4F0E0EE5DFA4F808190E0089582
:1009E0008FEF9FEF089590914305809142052FEF7F
:1009F0003FEF981748F4E92FF0E0EE5DFA4F2081C1
:100A000030E09F5F90934305C901089580914205AE
:100A100090914305891B990B0895CF92DF92EF9235
:100A2000FF920F931F93CF93DF937C01CB018A0139
:100A30002091B805222389F0EB016B01C40ED51E6D
:100A4000CC15DD0569F06991D701ED91FC9101901C
:100A5000F081E02DC7010995F3CF642F0E94BA04FD
:100A6000C801DF91CF911F910F91FF90EF90DF9020
:100A7000CF900895CF93DF931F92CDB7DEB76983F0
:100A80002091B8052223F9F02091DB05203258F09F
:100A900021E030E0FC013383228390E080E00F907E
:100AA000DF91CF9108958091B905E82FF0E0E654E9
:100AB000FA4F998190838F5F8093B9058093DB050E
:100AC00081E090E0ECCF61E0CE0101960E94BA0493
:100AD000F7CF90E0FC01E454FA4F2491FC01E85078
:100AE000FA4F3491FC01EC51FA4FE491EE23C9F036
:100AF000222339F0233001F1A8F4213019F12230FA
:100B000029F1F0E0EE0FFF1FE652FA4FA591B491E4
:100B10008FB7F894EC91611126C030953E233C9339
:100B20008FBF08952730A9F02830C9F0243049F745
:100B3000809180008F7D03C0809180008F778093AB
:100B40008000DFCF84B58F7784BDDBCF84B58F7D08
:100B5000FBCF8091B0008F778093B000D2CF80918F
:100B6000B0008F7DF9CF3E2BDACF1092B20581E035
:100B70008093B10510928C0561E082E10E946905C5
:100B800061E083E10E946905E9EBF0E080818E7FFE
:100B9000808380818D7F808380E28093B80085E4AC
:100BA0008093BC000895CF93DF9391E09093440528
:100BB0008823B9F0C091B800D091BA008091BC00F0
:100BC0008A7B8093BC0060E082E10E94690560E05E
:100BD00083E10E9469050E94B505D093BA00C093D5
:100BE000B800DF91CF910895CF93DF9390E0FC019F
:100BF000E850FA4F24918C519A4FFC01849188233C
:100C0000C9F090E0880F991FFC01EE54FA4FA591AE
:100C1000B491FC01E652FA4FC591D49161110DC017
:100C20009FB7F8948C91209582238C9388812823F8
:100C300028839FBFDF91CF910895623051F49FB711
:100C4000F8943C91822F809583238C93E8812E2BFE
:100C5000EFCF8FB7F894EC912E2B2C938FBFEACF68
:100C60000F931F93CF93DF93EC01162F042F1B825A
:100C70001A8288EE93E0A0E0B0E08C839D83AE837F
:100C8000BF838CE093E0998388831F8A1E8A198E24
:100C9000188E1B8E1A8E1D8E1C8E6E8D6E7F6D7F34
:100CA0006E8F6695617081E06827842F0E946905C8
:100CB00061E0802F0E94F405802F90E0FC01E85055
:100CC000FA4FE491E88BFC01EC51FA4FE491F0E02B
:100CD000EE0FFF1FE652FA4F859194919A8B898B04
:100CE00060E0812F0E94F4058E8D81FD04C061E0DB
:100CF000812F0E9469051C87812F90E0FC01E8503C
:100D0000FA4FE491ED87FC01EC51FA4FE491F0E0E9
:100D1000EE0FFF1FE053FA4F859194919F878E87C6
:100D2000DF91CF911F910F9108958E3008F08E5072
:100D30002091070190E4299F900111248770822B54
:100D400080937C0080917A00806480937A00809107
:100D50007A0086FDFCCF809178009091790008950B
:100D60008EE00E949506BC01990F880B990B0E949A
:100D70000A3220E030E040E85AE30E942D3320E0C0
:100D800030E040E251E40E942D3324EB35EC4AEC94
:100D90005DE30E94603108953FB7F89480911E058D
:100DA00090911F05A0912005B091210526B5A89B23
:100DB00005C02F3F19F00196A11DB11D3FBFBA2FED
:100DC000A92F982F8827BC01CD01620F711D811DAD
:100DD000911D43E0660F771F881F991F4A95D1F731
:100DE0000895CF92DF92EF92FF920F931F93CF93CC
:100DF000DF93D091DB0581E0D13208F09CC0C09137
:100E0000DA050E94CC066B017C018091B20581114C
:100E10006CC082E08093B20581E08093B1058FEFD2
:100E20008093B0051092AF05D093AE05AAEBB5E064
:100E3000EEE8F5E080E0D8138DC010928D0580912A
:100E40008D05CC0FC82BC0938D0580918C0581300A
:100E500009F084C010928C050E94CC066B017C01C5
:100E600080918D058093BB008091B4059091B5056C
:100E7000A091B605B091B705892B8A2B8B2BA1F0D9
:100E80000E94CC060091B4051091B5052091B605DD
:100E90003091B7056C197D098E099F090617170750
:100EA0002807390708F442C08091BC0083FDD8CFE1
:100EB00085EC8093BC000E94CC066B017C01809184
:100EC000B205823009F44CC08091B0058F3F09F41F
:100ED00069C08091B005803209F466C08091B00588
:100EE000803309F463C084E026C08091B4059091FA
:100EF000B505A091B605B091B705892B8A2B8B2B30
:100F000009F483CF0E94CC060091B4051091B50579
:100F10002091B6053091B7056C197D098E099F099E
:100F2000061717072807390708F06FCF8091B30518
:100F30000E94D30585E01092B9051092DB0510924E
:100F4000B805DF91CF911F910F91FF90EF90DF9047
:100F5000CF9008959D9191938F5F6DCF85EEA9CF2E
:100F60008091B4059091B505A091B605B091B705F3
:100F7000892B8A2B8B2B09F4A2CF0E94CC060091DF
:100F8000B4051091B5052091B6053091B7056C19DF
:100F90007D098E099F09061717072807390708F0EA
:100FA0008ECFC4CF80E0C7CF82E0C5CF83E0C3CF70
:100FB000CF93C82F8091F2078F3F59F1E091FB0743
:100FC000F091FC07808190910108892B8083E0914A
:100FD000FD07F091FE07908180910208809589239A
:100FE0008083E091FB07F091FC07908180910108DC
:100FF0008095892380838C2F0E948F04E091FB07CA
:10100000F091FC07808190910108892B8083CF911A
:1010100008958091F10791E09093B8058093DA05E7
:101020001092B9051092DB0560E08CED95E00E940E
:101030003A056C2F8CED95E00E943A05CF910C9407
:10104000F106BF92CF92DF92EF92FF920F931F9320
:10105000CF93DF9380E00E94D80780E10E94D807F9
:1010600080E40E94D8078091F2078F3F09F440C0C6
:10107000E091FB07F091FC07808190910108892B9A
:101080008083E091FD07F091FE0780819091020836
:10109000892B8083E091FB07F091FC079081809180
:1010A0000108809589238083C8E0D1E008E013E03F
:1010B00089910E948F040C171D07D1F7C0E0D2E080
:1010C00080E00E948F042197D9F7E091FB07F0910F
:1010D000FC07808190910108892B8083DF91CF915B
:1010E0001F910F91FF90EF90DF90CF90BF900895E8
:1010F0000091B8008CE08093B800C8E0D1E088E0AF
:10110000C82E83E0D82EBB24B3948091F107B0920F
:10111000B8058093DA051092B9051092DB0560E4FA
:101120008CED95E00E943A057E0110E1F701619196
:101130007F018CED95E00E943A051150B9F70E94AD
:10114000F1066096CC16DD0601F7C0E2D0E0FF2480
:10115000F3948091F107F092B8058093DA0510922C
:10116000B9051092DB0560E48CED95E00E943A052C
:1011700010E160E08CED95E00E943A051150C9F74E
:101180000E94F106219729F70093B800A7CF8F920C
:101190009F92AF92BF92CF92DF92EF92FF924B015C
:1011A0005C010E94CC066B017C010E94CC066C198C
:1011B0007D098E099F09683E734081059105A8F35A
:1011C00021E0821A9108A108B10888EEC80E83E0D8
:1011D000D81EE11CF11C81149104A104B10429F76B
:1011E000FF90EF90DF90CF90BF90AF909F908F9047
:1011F00008952FB7F89460911A0570911B0580919E
:101200001C0590911D052FBF08952F923F924F927C
:101210005F926F927F928F929F92AF92BF92CF9286
:10122000DF92EF92FF920F931F93CF93DF93CDB78F
:10123000DEB72A970FB6F894DEBF0FBECDBF4C01C4
:101240007A8769871A013A8329831C830B83FE827C
:10125000ED82D886CF8240904F0750905007609023
:10126000510770905207C0904707D0904807E09010
:101270004907F0904A0780918B0790918C07A091C5
:101280008D07B0918E078F3F2FEF9207A207B2070D
:1012900081F00E94F90800918B0710918C07209132
:1012A0008D0730918E07DC01CB01801B910BA20BC7
:1012B000B30BF50180839183A283B383C301B20191
:1012C00024E630E040E050E00E94193020ED37E0A5
:1012D0006135710514F02CE637E0C901860F971FC0
:1012E000F4019183808384E6882E912CA12CB12C6B
:1012F000C301B201A50194010E941930CA01B901CC
:10130000A50194010E941930E985FA856083C30123
:10131000B20120E137E240E050E00E941930F101D3
:101320002083C701B60120E432E44FE050E00E9480
:101330001930E981FA812083C701B60120E137E243
:1013400040E050E00E941930CA01B901A5019401A2
:101350000E941930EB81FC816083C701B601A501B1
:1013600094010E9419306983CA01B901A501940151
:101370000E941930ED81FE8160832981EF81F8851B
:1013800020832A960FB6F894DEBF0FBECDBFDF9143
:10139000CF911F910F91FF90EF90DF90CF90BF9072
:1013A000AF909F908F907F906F905F904F903F9005
:1013B0002F90089580915A0490915B040196909328
:1013C0005B0480935A0408950895AF92BF92CF9220
:1013D000DF92EF92FF920F931F93CF93DF936C01F5
:1013E0007B018B01040F151FEB015E01AE18BF08D6
:1013F000C017D10759F06991D601ED91FC91019088
:10140000F081E02DC6010995892B79F7C501DF919F
:10141000CF911F910F91FF90EF90DF90CF90BF90F1
:10142000AF900895FC01538D448D252F30E0842F1B
:1014300090E0821B930B541710F0CF9608950197FC
:101440000895FC01918D828D981761F0A28DAE0FE9
:10145000BF2FB11D5D968C91928D9F5F9F73928F70
:1014600090E008958FEF9FEF0895FC01918D828D9C
:10147000981731F0828DE80FF11D858D90E0089569
:101480008FEF9FEF0895FC01918D228D892F90E0C1
:10149000805C9F4F821B91098F739927089588EE76
:1014A00095E00E94430A21E0892B09F420E0822F75
:1014B000089580E090E0892B29F00E944F0A811165
:1014C0000C9400000895FC01A48DA80FB92FB11D44
:1014D000A35ABF4F2C91848D90E001968F7399276A
:1014E000848FA689B7892C93A089B1898C91837048
:1014F00080648C93938D848D981306C00288F38941
:10150000E02D80818F7D80830895EF92FF920F936D
:101510001F93CF93DF93EC0181E0888F9B8D8C8D9F
:1015200098131AC0E889F989808185FF15C09FB793
:10153000F894EE89FF896083E889F9898081837056
:10154000806480839FBF81E090E0DF91CF911F9105
:101550000F91FF90EF900895F62E0B8D10E00F5F26
:101560001F4F0F731127E02E8C8D8E110CC00FB6FC
:1015700007FCFACFE889F989808185FFF5CFCE0194
:101580000E94630AF1CFEB8DEC0FFD2FF11DE35AA2
:10159000FF4FF0829FB7F8940B8FEA89FB89808117
:1015A0008062CFCFCF93DF93EC01888D8823B9F091
:1015B000AA89BB89E889F9898C9185FD03C080815E
:1015C00086FD0DC00FB607FCF7CF8C9185FFF2CFDB
:1015D000808185FFEDCFCE010E94630AE9CFDF91C4
:1015E000CF910895CF93DF93EC0177FD44C08885B8
:1015F0009985681779070CF03EC057FD3CC08A8575
:101600009B8548175907BCF58D8983708D8B823077
:10161000A9F1833009F442C0813041F48C819D816D
:10162000841B950BAB01BC0161507109FA0157FD98
:10163000379683E0F595E7958A95E1F7F695FE2FC5
:10164000EE27F795E795E60FF71FE85FFE4FC0819D
:10165000CA0168E070E00E94053041E050E0BA0144
:1016600002C0660F771F8A95E2F7CB012130310562
:10167000F1F48C2B8083DF91CF910895EC81FD8173
:10168000E61BF70BBF01615071098E819F81FC0140
:10169000E41BF50BAF0141505109C8CF8E819F81EA
:1016A000861B970BBA01AC0141505109BFCF809501
:1016B0008C23E0CF089508952F923F924F925F922E
:1016C0006F927F928F929F92AF92BF92CF92DF9252
:1016D000EF92FF920F931F93CF93DF93CDB7DEB7B7
:1016E0002C970FB6F894DEBF0FBECDBF9C838B83C3
:1016F0006A3061F5DC0154968C91B8E08B9F9001C3
:101700001124EB81FC8186859785820F931F978733
:1017100086871586148681E090E02C960FB6F894A3
:10172000DEBF0FBECDBFDF91CF911F910F91FF9014
:10173000EF90DF90CF90BF90AF909F908F907F9071
:101740006F905F904F903F902F9008956D3019F3F8
:101750002B813C813C872B87D9011C96CD90DC9056
:101760001D9718968D919C911997C816D9060CF063
:1017700084C01E968D909C901F971A968D919C9177
:101780001B97881699060CF078C05496BC91B983C3
:10179000AB2EB12C25E0C601B29F800D911D112406
:1017A000181619060CF069C0C50133E0880F991F9F
:1017B0003A95E1F7880D991D181619060CF05DC0D1
:1017C000AB85BC8552960D90BC91A02DBC83AB839C
:1017D000EB85FC850088F189E02DFE83ED83605266
:1017E000770B269FC001279F900D112426011A8296
:1017F0008C199D099C0122553E4F3A8729873A81D1
:10180000E0E0353029F0E985FA85E40DF51DE49135
:101810001401712C612C8E2F90E098878F83E0FF4C
:101820006AC0AB85BC85ED91FC91B981B13009F0FE
:1018300055C00084F185E02D2D813E81A301480D26
:10184000591DB2018B859C850995EF81F885F59529
:10185000E795FFEF6F1A7F0A2A0C3B1C28E06216FF
:101860007104C9F63FEF431A530ACA0CDB1C5A81B4
:101870005F5F5A83563009F0C2CFAB85BC85549662
:101880004C915497242F30E01C968D919C91B6E09A
:101890004B9F800D911D1124EB85FC8595878487D6
:1018A0004689442309F437CF6AEF6203A001639F9E
:1018B000500D112460857185460F571F4817590731
:1018C0000CF029CF83E0220F331F8A95E1F786853C
:1018D0009785280F391F378726871BCF0488F589FE
:1018E000E02DED80FE8085019501A101B6018B857B
:1018F0009C850995AACFEB81FC812D813E81E21761
:10190000F30709F4A2CFAB85BC85ED91FC91B981B9
:10191000B13031F40084F185E02D2B813C818ECFF4
:101920000488F589E02DEB80FC80DDCF6F927F92FB
:101930008F929F92AF92BF92CF92DF92EF92FF92DF
:101940000F931F93CF93DF936C015A014801EB0172
:101950003B01620E731EC615D70574F4D601ED91D6
:10196000FC910684F785E02D87019401A501BE0155
:10197000C60109952196EFCFDF91CF911F910F916D
:10198000FF90EF90DF90CF90BF90AF909F908F909F
:101990007F906F900895EF92FF920F931F93260F01
:1019A000371F21503109DC01ED91FC910484F5854C
:1019B000E02D78018A0109951F910F91FF90EF901A
:1019C0000895EF92FF920F931F93240F351F21501C
:1019D0003109DC01ED91FC910484F585E02D78015D
:1019E00089019B0109951F910F91FF90EF90089538
:1019F0006F927F928F929F92AF92BF92CF92DF921F
:101A0000EF92FF920F931F93CF93DF93EC016B0143
:101A10005A0139014801E881F9810088F189E02DF6
:101A200087010995A501480D591D41505109E881CB
:101A3000F9810088F189E02D9301B601CE01099565
:101A4000E881F9810684F785E02D9401A501B601AE
:101A5000CE010995C60CD71CB60161507109E88109
:101A6000F9810684F785E02D9401A501CE01099541
:101A7000DF91CF911F910F91FF90EF90DF90CF906A
:101A8000BF90AF909F908F907F906F9008952F920E
:101A90003F924F925F926F927F928F929F92AF92FE
:101AA000BF92CF92DF92EF92FF920F931F93CF934B
:101AB000DF9300D000D000D0CDB7DEB73C016A0183
:101AC0003E832D83FC82EB825801A41AB50AB7FE2F
:101AD00003C0B194A194B1088D809E80861A970AA4
:101AE00097FE03C09194819491088A149B045CF042
:101AF000902F812F0D811E819D838E839C2D8D2D96
:101B00006B01692F782F0C151D055CF09D818E816E
:101B10007E836D83692F782F902F812F8601C92EA8
:101B2000D82E1601201A310A2B012D813E81421A2E
:101B3000530A57FE03C0519441945108710137FE76
:101B400003C03FEFE31AF30AF594E7948D819E8179
:101B5000861797075CF5A1E0B0E0BA83A983C016A9
:101B6000D1064CF1D301ED91FC910084F185E02D7B
:101B70002B813C81A8016D817E818A149B041CF01D
:101B80004D815E81B801C3010995E418F508F7FE9F
:101B90000AC02D813E8189819A81280F391F3E8399
:101BA0002D83E20CF31C0F5F1F4FD9CF2FEF3FEFB8
:101BB0003A832983D4CF26960FB6F894DEBF0FBEA2
:101BC000CDBFDF91CF911F910F91FF90EF90DF90EC
:101BD000CF90BF90AF909F908F907F906F905F90CD
:101BE0004F903F902F9008952091540430915504C8
:101BF0002817390781F49091530480915204981763
:101C000051F0E0915304F0E0EE52FC4F8081082E39
:101C1000000C990B08958FEF9FEF0895EF92FF92BC
:101C20000F931F93CF93DF93DC015C96ED90FC90B4
:101C30005D97E114F10479F481E090E013969C93B0
:101C40008E93129790E080E0DF91CF911F910F91DA
:101C5000FF90EF9008955196ED91FC915297509618
:101C60008C915097982F90950FB75E962C915E9718
:101C7000122F127021FD6095F8942081112319F123
:101C8000282B2083E7012197F1F728E0462F50E029
:101C9000308160FF1AC0382B3083E7012197F1F7BC
:101CA000BA0175956795215089F7112381F08081DC
:101CB000892380830FBF5C968D919C910197F1F7EA
:101CC00081E090E0C1CF2923DCCF3923E5CF90819B
:101CD000892BEFCF209154043091550428173907F0
:101CE00071F4809152042091530490E080589F4FEA
:101CF000821B910960E870E00E940530089590E031
:101D000080E0089520915404309155042817390734
:101D1000B9F49091530480915204981789F0E0919E
:101D20005304F0E0EE52FC4F80812091530430E0E8
:101D30002F5F3F4F2F7733272093530490E0089570
:101D40008FEF9FEF08950F931F93CF93DF930EE3D1
:101D500010E0811102C00CE310E0D0E0C0E0219659
:101D60008BEB97E00E946A0E892B59F46AE070E0D1
:101D700080E090E00E94C708C83CD10581F780E070
:101D80000BC08BEB97E00E94820E8017910771F7D2
:101D900081E0C83CD10599F3DF91CF911F910F915C
:101DA0000895E0915404F0915504E817F90769F497
:101DB000A389B4899C918589809589238C931092FD
:101DC00055041092540481E0089580E00895CF9363
:101DD000DF93EC018A8D9B8D892B01F18091540456
:101DE000909155048C179D07C9F0009711F00E943F
:101DF000D10E8E8D8E7F8E8F1092520410925304CE
:101E0000D0935504C0935404EB89FC8980819D894B
:101E1000892B808381E0DF91CF91089580E0FBCF13
:101E2000FC01138E128E118E108E178A168A8DEC7D
:101E300090E0958F848F84858631D8F525E530E054
:101E4000378B268B2BEC30E0318F208F20E930E070
:101E5000338F228F90916800883070F121E08E30AE
:101E600008F420E081E001C0880F2A95EAF7892B69
:101E70008093680084852DE630E0883050F02BE6B2
:101E800030E08E3030F02CE630E0863110F030E07B
:101E900020E0348B238B282F30E0883078F491E0D9
:101EA00001C0990F8A95EAF7958B848D958D0197DE
:101EB000F1F7CF010C94E70E84E0D9CF8E3040F4D7
:101EC0002850310991E001C0990F2A95EAF7ECCF2B
:101ED0002E503109F7CF90E080E008950F931F93C3
:101EE0000E94F908AB01BC0180915C0490915D04F3
:101EF000A0915E04B0915F040091560410915704C4
:101F00002091580430915904481759076A077B07F4
:101F100078F0481B590B6A0B7B0B81E090E040176F
:101F200051076207730708F480E01F910F9108952D
:101F300080959095A095B095840F951FA61FB71F0B
:101F400051E040E080179107A207B30708F450E082
:101F5000852F942FEACF0F931F93CF93DF938C019C
:101F6000C8ECD0E0F80161918F01CE010E94B02F42
:101F70002196C03DD105B1F788E090E0DF91CF9187
:101F80001F910F9108950F931F93CF93DF938C01AF
:101F9000C4EFD1E0F80161918F01CE010E94B02F12
:101FA0002196C132F2E0DF07A9F78DE290E0DF91E0
:101FB000CF911F910F91089585ED8093BC00809182
:101FC000B4059091B505A091B605B091B7050796F7
:101FD000A11DB11D23E0B695A795979587952A95E4
:101FE000D1F72091BC0024FD03C01092B2050895E2
:101FF0004091B4055091B5056091B6057091B70553
:10200000452B462B472B69F30097A105B10541F0FD
:102010002AE12A95F1F700C00197A109B109E1CFA2
:102020008091B3050C94D305FB0101900020E9F7E2
:102030003197AF01461B570BDC01ED91FC910280FB
:10204000F381E02D09940F931F93CF93DF93EC015D
:102050000E9414108C0168E573E0CE010E941410F8
:10206000800F911FDF91CF911F910F9108956115FE
:10207000710511F00C94141090E080E008951F9207
:102080000F920FB60F9211242F933F934F935F93AC
:102090006F937F938F939F93AF93BF93EF93FF9330
:1020A0008091B900887F803609F44AC0F0F5883203
:1020B00009F4A7C018F5803109F49BC0B8F488234F
:1020C00009F4F9C0883009F494C0FF91EF91BF91F1
:1020D000AF919F918F917F916F915F914F913F91C0
:1020E0002F910F900FBE0F901F901895883109F413
:1020F00088C0803251F78093B00514C0803409F451
:102100009DC040F48033B9F38833F9F68093B0056D
:1021100085ECB0C0803509F485C0883509F496C0D7
:10212000883499F60E94DC0FD0CF883909F48CC02E
:1021300038F5883729F050F4883611F0803729F6C1
:1021400083E08093B20510928B0557C0883809F45C
:102150007BC0803919F0803809F0B7CF80918B05AA
:10216000803208F071C0E0918B0581E08E0F809382
:102170008B058091BB00F0E0E559FA4F80833DC0AC
:10218000803B39F0E0F4803A09F479C0883A09F0EC
:102190009CCF84E08093B205109268051092670589
:1021A000E0916505F09166050995809167058111BB
:1021B0000FC081E0809367051092450509C0803CFF
:1021C00009F4A6CF883C09F4A3CF883B09F07DCF62
:1021D000E091680581E08E0F80936805F0E0EB5B8D
:1021E000FA4F80818093BB009091680580916705CC
:1021F00029C080918D058093BB0085EC8093BC0045
:1022000064CF9091AF058091AE05981758F5E09195
:10221000AF0581E08E0F8093AF05F0E0E257FA4FF3
:102220008081E9CFE091AF0581E08E0F8093AF050B
:102230008091BB00F0E0E257FA4F80839091AF05A8
:102240008091AE059817C8F285E8D8CFE091AF0528
:1022500081E08E0F8093AF058091BB00F0E0E257E4
:10226000FA4F80838091B10581115CCF81E080932A
:102270008C0584EA8093BC001092B20526CF85ECD1
:102280008093BC001092B20580918B05803230F4AF
:10229000E0918B05F0E0E559FA4F108260918B05D3
:1022A00070E0E0916905F0916A058BE695E009958B
:1022B00010928B050ACF1092B00534CF1F920F9267
:1022C0000FB60F9211242F933F938F939F93AF9349
:1022D000BF9380911A0590911B05A0911C05B091A8
:1022E0001D053091190526E0230F2D3758F502966C
:1022F000A11DB11D2093190580931A0590931B050C
:10230000A0931C05B0931D0580911E0590911F059B
:10231000A0912005B09121050196A11DB11D8093CA
:102320001E0590931F05A0932005B0932105BF9132
:10233000AF919F918F913F912F910F900FBE0F9072
:102340001F90189529E8230F0396A11DB11DD2CF28
:102350001F920F920FB60F9211242F933F934F931A
:102360005F936F937F938F939F93AF93BF93EF93FD
:10237000FF93E0910201F09103010995FF91EF9124
:10238000BF91AF919F918F917F916F915F914F918D
:102390003F912F910F900FBE0F901F9018951F9295
:1023A0000F920FB60F9211242F933F934F935F9389
:1023B0006F937F938F939F93AF93BF93EF93FF930D
:1023C000E0910001F09101010995FF91EF91BF911A
:1023D000AF919F918F917F916F915F914F913F91BD
:1023E0002F910F900FBE0F901F9018951F920F9274
:1023F0000FB60F9211242F933F934F935F936F93D8
:102400007F938F939F93AF93BF93EF93FF9388EE48
:1024100095E00E94630AFF91EF91BF91AF919F9168
:102420008F917F916F915F914F913F912F910F907D
:102430000FBE0F901F9018951F920F920FB60F921C
:1024400011242F938F939F93EF93FF93E091F805BF
:10245000F091F9058081E091FE05F091FF0582FD84
:102460001BC09081809101068F5F8F7320910206BF
:10247000821741F0E0910106F0E0E851FA4F958FA4
:1024800080930106FF91EF919F918F912F910F9073
:102490000FBE0F901F9018958081F4CF1F920F925E
:1024A0000FB60F9211242F933F934F935F936F9327
:1024B0007F938F939F93AF93BF93EF93FF93E0919D
:1024C0005404F0915504309749F0A685B785858569
:1024D000968D91FF14C09C918923A1F4FF91EF91F7
:1024E000BF91AF919F918F917F916F915F914F912C
:1024F0003F912F910F900FBE0F901F9018959C91B8
:10250000892361F7A389B4899C9185898095892362
:102510008C93868997890197F1F7608D718DA685D7
:10252000B785558538E020E0CB010197F1F7822F80
:1025300090E095958795282F4C91452309F02068C8
:10254000315091F7868D81FD20958091520490E065
:1025500001968F77992730915304381799F0A091FD
:102560005204B0E0AE52BC4F2C9380935204828D43
:10257000938D0197F1F7A389B4898C919589892B63
:102580008C93ACCF868D8160868FF1CFECEDF5E03A
:102590001382128288EE93E0A0E0B0E084839583FA
:1025A000A683B7832EE133E031832083E8EEF5E0A4
:1025B0001382128284839583A683B78380E393E09A
:1025C0009183808385EC90E09587848784EC90E00C
:1025D0009787868780EC90E0918B808B81EC90E0F0
:1025E000938B828B82EC90E0958B848B86EC90E0D1
:1025F000978B868B118E128E138E148EEAEDF7E078
:102600001382128282E493E0918380838CE0848F32
:102610008DE0838F8BE0828F8AE0818F89E0808FCD
:1026200045E066E08BEB97E00E943006E7E4F7E0D8
:102630004FEF5FEFBA01408351836283738310864B
:102640001186128613868FEF99ECAAE9BBE3808B83
:10265000918BA28BB38B808F918FA28FB38F80A32E
:1026600091A3A2A3B3A380A791A7A2A7B3A780AB6E
:1026700091ABA2ABB3AB40AF51AF62AF73AF8FEFD3
:1026800090E0909388078093870740938B0750933F
:102690008C0760938D0770938E0740939307509338
:1026A0009407609395077093960710929B0710927A
:1026B0009C0782E08093AC071092AD071092AE07A2
:1026C0001092AF071092B1071092B2071092B307A1
:1026D0001092B4071092B6071092B5071092B8077F
:1026E0001092B70710929D0781E08093B00747E0F2
:1026F00068E088E297E00E943006EEE1F7E08BEBBD
:1027000097E09183808381EF96E09383828389EEC3
:1027100096E09583848385E896E09783868384E6B4
:1027200090E0918780870895CF93DF93CDB7DEB790
:10273000AE970FB6F894DEBF0FBECDBF789484B5C8
:10274000826084BD84B5816084BD85B5826085BDAD
:1027500085B5816085BD80916E00816080936E003B
:10276000109281008091810082608093810080912D
:1027700081008160809381008091800081608093DE
:1027800080008091B10084608093B1008091B0009E
:1027900081608093B00080917A00846080937A0099
:1027A00080917A00826080937A0080917A008E7F97
:1027B00080937A0080917A00806880937A001092EA
:1027C000C10062E083E00E94F40561E082E10E94C2
:1027D000F40560E083E10E94F405E091F805F091D2
:1027E000F90582E08083E091F405F091F50510820F
:1027F000E091F605F091F70587E6808310920006D8
:10280000E091FC05F091FD0586E08083E091FA05FA
:10281000F091FB05808180618083E091FA05F09161
:10282000FB05808188608083E091FA05F091FB05CB
:10283000808180688083E091FA05F091FB058081BA
:102840008F7D8083E0912007F09121078DE2DF01E9
:102850001D928A95E9F7E0902007F090210704EF98
:1028600011E0C8010E94A82FF70181937F010F5F3B
:102870001F4F0132F2E01F07A1F7E0912007F0910E
:10288000210780819181A281B3818D30904FAE4F1D
:10289000BA4509F452C08DE2DF011D928A95E9F72D
:1028A000E0912007F09121078DE090EFAEEFBAE5BF
:1028B00080839183A283B383E0912007F091210765
:1028C000178A168A89E083A389E893E09F938F9300
:1028D000B496FF93EF930E94D02AE0912007F091E5
:1028E00021078CE3808F80E090E0A7EAB3E4818F3A
:1028F000928FA38FB48F80E090E0A4E1B2E4858F43
:10290000968FA78FB0A384E690E093A782A7CF010C
:102910000E94C30FE0912207F091230788E0DF01B6
:102920001D928A95E9F780912207909123070E94D2
:10293000AB0F0F900F900F900F908BEB97E00E94D2
:10294000100F61E084E00E94F4058BEB97E00E9499
:10295000E70E60E084E00E94690564E670E080E0D4
:1029600090E00E94C70861E084E00E94690581E070
:102970000E94A30E8111A6C081E08093D404C09070
:102980008204CC2009F477C280911E0790911F0722
:102990000E94E70E809127078F93809126078F93DF
:1029A00089E394E09F938F938DE893E09F938F93B7
:1029B000809125078F93809124078F930E94D02ABE
:1029C000609124077091250780911E0790911F0741
:1029D0000E94371080911E0790911F07DC01ED9136
:1029E000FC910190F081E02D6DE009950FB6F8940F
:1029F000DEBF0FBECDBF80911E0790911F07DC0187
:102A0000ED91FC910084F185E02D0995892B99F3D6
:102A100080911E0790911F07DC01ED91FC910284CB
:102A2000F385E02D09958D3011F08A3021F7409122
:102A300026075091270770E060E08091240790916D
:102A400025070E941534B12C10E000E080911E078C
:102A500090911F07DC01ED91FC910084F185E02D40
:102A60000995EB2CF12C892BA9F080911E079091F0
:102A70001F07DC01ED91FC910284F385E02D09959F
:102A8000B394E0912407F0912507EE0DFF1D80839C
:102A900010E000E061E070E080E090E00E94C70894
:102AA0008091260790912707B816190631F00F5F1D
:102AB0001F4F083EB3E01B0749F680E0D12C58E0D9
:102AC000952E14C081E08093820459CFFD01E80F58
:102AD000F11D20812D3309F443C0203211F029303B
:102AE00009F410828F5F9813F1CF8A2D8B1508F0AF
:102AF000BAC12091240730912507D901A80FB11D33
:102B00004091260750912707E82F9E2F981BAA2453
:102B1000A394AE0EE20FF32FF11D60816A3031F005
:102B20006D3021F0EA2DA416150679F7FD01E90FA5
:102B3000F11D10828C918823C1F28332B1F293305F
:102B4000A0F29D0180E07901F90140812F5F3F4FA4
:102B5000403211F0493039F68F5F9813F4CFC5CF6A
:102B6000981719F28F5F10828D01080F111DF8015F
:102B70002081203211F0293021F48F5F9813F4CF97
:102B8000B4CF981709F4B1CF62E673E0C7010E9491
:102B90001C34892B11F5C8010E94AA2ABC01990F87
:102BA000880B990B0E940A322B013C0100912007EF
:102BB00010912107D80159962D913D914D915C912D
:102BC0005C970E945631882309F48FCFF801418E1B
:102BD000528E638E748EDC2C88CF67E673E0C7015B
:102BE0000E941C34892B09F5C8010E94AA2ABC0145
:102BF000990F880B990B0E940A322B013C0100911E
:102C0000200710912107D8015D962D913D914D919E
:102C10005C9190970E945631882309F466CFF801A1
:102C2000458E568E678E70A2D6CF6CE673E0C701D4
:102C30000E941C34892B99F4E0902007F090210722
:102C4000F6E0EF0EF11CB801C7010E941C34892B7D
:102C500009F44BCFB801C7010E942534BCCF6FE601
:102C600073E0C7010E941C34892BA9F4E09020076F
:102C7000F0902107C8010E94AA2AD70156962D91EB
:102C80003C9157972817390709F42FCF57969C93F3
:102C90008E935697A0CF63E773E0C7010E941C3460
:102CA000892B79F4E0902007F0902107C8010E9459
:102CB000AA2AF70124812817190609F416CF84835C
:102CC0008ACF66E773E0C7010E941C34892B91F418
:102CD000E0902007F0902107C8010E94AA2AD7019E
:102CE00015962C9115972817190609F4FECE1596FE
:102CF0008C9371CF69E773E0C7010E941C34892B64
:102D000089F4E0902007F0902107C8010E94AA2AC8
:102D1000F70121A132A12817390709F4E6CE92A3C1
:102D200081A359CF6CE773E0C7010E941C34892B43
:102D300059F4D80113961C92E0902007F0902107D7
:102D4000B4E2EB0EF11C7FCF6FE773E0C7010E9486
:102D50001C34892B79F4E0902007F0902107C801FA
:102D60000E94AA2AF70123A12817190609F4BDCE4B
:102D700083A331CF62E873E0C7010E941C34892B22
:102D800091F4E0902007F0902107C8010E94AA2A40
:102D9000D70198962C9198972817190609F4A5CE73
:102DA00098968C9318CF65E873E0C7010E941C3495
:102DB000892B79F4E0902007F0902107C8010E9448
:102DC000AA2AF70121A52817190609F48ECE81A792
:102DD00002CF68E873E0C7010E941C34892BA9F474
:102DE000E0902007F0902107C8010E94AA2AD7018D
:102DF0009A962D913C919B972817390709F475CE27
:102E00009B969C938E939A97E6CE6BE873E0C701EE
:102E10000E941C34892B79F4E0902007F090210760
:102E2000C8010E94AA2AF70124A52817190609F447
:102E30005CCE84A7D0CE6EE873E0C7010E941C343C
:102E4000892B09F052CEE0912207F0912307DF0190
:102E5000292D1D922A95E9F7809122079091230749
:102E60000E94AB0F42CEDD2031F08091200790917F
:102E700021070E94C30F88E893E1A0E0B0E08093AF
:102E8000560490935704A0935804B0935904109299
:102E90005B0410925A048AED99E0909301018093AB
:102EA000000180916900836080936900E89A0E9424
:102EB000F90810925B0410925A040E94F90860937A
:102EC0005C0470935D0480935E0490935F041092A1
:102ED00018051092170588E297E00E94100F88E20B
:102EE00097E00E94E70E05E816E034E6F32ED801DD
:102EF000EF2D1D92EA95E9F78BEC93E09F938F936A
:102F00001F930F930E94D02AB80188E297E00E9495
:102F10002310D801EF2D1D92EA95E9F78AEB93E093
:102F20009F938F931F930F930E94D02AB80188E23A
:102F300097E00E942310D801EF2D1D92EA95E9F742
:102F40008AEA93E09F938F931F930F930E94D02A56
:102F5000B80188E297E00E942310D8011D92FA94EC
:102F6000E9F78AE993E09F938F931F930F930E9451
:102F7000D02AB80188E297E00E94231049EEE42E9F
:102F800046E0F42E0FB6F894DEBF0FBECDBF08ECBE
:102F900010E0C8010E94A82FD7018D937D010F5F1B
:102FA0001F4F003D1105A9F783E08093070180E8DA
:102FB00090E09093DF078093DE079093E307809380
:102FC000E20780E290E09093E1078093E00790931E
:102FD000E5078093E4071092EF071092E70710923D
:102FE000E6071092E9071092E80781E08093EE0768
:102FF0002FEF3FEF3093ED072093EC073093EB0773
:103000002093EA078093F0078CE38093F107809187
:10301000F2078F3F09F4F7C361E00E94F40561E015
:103020008091F3070E94F40561E08091F4070E940B
:10303000F40561E08091F6070E94F4058091F307A2
:10304000082E000C990BFC01EC51FA4FE491F0E0D2
:10305000EE0FFF1FE652FA4F259134913093FA0795
:103060002093F907FC01E850FA4FE491E09300083F
:103070008091F207082E000C990BFC01EC51FA4FDD
:10308000E491F0E0EE0FFF1FE652FA4F25913491E4
:103090003093F8072093F707FC01E850FA4FE491CA
:1030A000E093FF078091F607082E000C990BFC01B6
:1030B000EC51FA4FE491F0E0EE0FFF1FE652FA4FA9
:1030C000259134913093FC072093FB07FC01E850D5
:1030D000FA4FE491E09301088091F407082E000C68
:1030E000990BFC01EC51FA4FE491F0E0EE0FFF1F59
:1030F000E652FA4F259134913093FE072093FD0755
:10310000FC01E850FA4FE491E093020861E08091FD
:10311000F5070E94F40561E08091F5070E946905BA
:1031200061E070E080E090E00E94C70860E080917C
:10313000F5070E9469056AE070E080E090E00E9477
:10314000C70861E08091F5070E9469058EEA0E9438
:10315000D80785ED0E94D80780E80E94D80788EA42
:103160000E94D8078FE10E94D80783ED0E94D807FC
:1031700080E00E94D80780E40E94D8078DE80E9472
:10318000D80784E10E94D80780E20E94D80780E037
:103190000E94D80781EA0E94D80788EC0E94D807CD
:1031A0008AED0E94D80782E00E94D80781E80E9439
:1031B000D8078FE80E94D80789ED0E94D80781EFD1
:1031C0000E94D8078BED0E94D80780E40E94D807A0
:1031D00084EA0E94D80786EA0E94D8078FEA0E94F4
:1031E000D8070E94210868EE73E080E090E00E941A
:1031F000C708E8E0F1E080E092E0DF019C011D9269
:1032000021503040E1F781E090E09093EB0780930C
:10321000EA079093ED078093EC078093EE0783E92C
:1032200093E09F938F938AE294E09F938F9307EAB2
:1032300014E01F930F930E94D02AD8010D90002014
:10324000E9F78D01075A144086E0809F9001819F25
:10325000300D112480E890E0821B930B96958795A2
:103260009093E7078093E6071092E9071092E8072A
:103270000F900F900F900F900F900F908091F50688
:1032800069E973E0882311F06BE973E08AED97E058
:103290000E94371067EA74E08AED97E00E943710C9
:1032A00088E090E09093E7078093E6079093E90722
:1032B0008093E8070E94B00620E030E040EF51E440
:1032C0000E94773020E030E048E451E40E942D3342
:1032D0000E94D2316C5E7F4F77FDACC265367105BE
:1032E00014F064E670E07F936F938CE194E09F9319
:1032F0008F9307EA14E01F930F930E94D02AB8011E
:103300008AED97E00E94371089E194E09F938F93B4
:103310001F930F930E94D02AB8018AED97E00E9474
:10332000371087E390E09093E7078093E607E0E1AA
:10333000EE2EF12CF092E907E092E8078091130756
:103340008F93809112078F9380E194E09F938F93E6
:103350001F930F930E94D02AB8018AED97E00E9434
:1033600037108CE094E09F938F931F930F930E94EC
:10337000D02AB8018AED97E00E943710F8E0CF2EEE
:10338000D12CD092E707C092E607F092E907E092CD
:10339000E80780911D071F928F9383E094E09F932D
:1033A0008F931F930F930E94D02AB8018AED97E064
:1033B0000E943710FF24F394F092EE0785E590E029
:1033C0009093E7078093E607D092E907C092E80759
:1033D000809108078F93809107078F938DEF93E07B
:1033E0009F938F931F930F930E94D02A0FB6F89448
:1033F000DEBF0FBECDBFB8018AED97E00E94371047
:10340000F092EE078091F706882329F187EF96E086
:10341000DC010D900020E9F7CD01885F964046E081
:10342000489F9001499F300D112480E890E0821B55
:10343000930B969587959093E7078093E60788E12D
:1034400090E09093E9078093E80767EF76E08AEDD4
:1034500097E00E9437100E94210868E273E280E042
:1034600090E00E94C70883E10E949506853F914045
:103470000CF4E3C11092F5060E94B00620E030E0A3
:1034800040EF51E40E9477300E94D23116161706A1
:103490004CF068EE73E080E090E00E94C70881E0A5
:1034A0008093F50688E297E00E94E70E0E94F908F3
:1034B0006B017C0101E00E94F908AB01BC01D7015E
:1034C000C601841B950BA60BB70BC416D506E606E2
:1034D000F70620F480959095A095B095883E93408E
:1034E000A105B10528F40E946E0F892B09F4ABC326
:1034F0000E946E0F892B11F40C94C5260E94F908C6
:1035000060935C0470935D0480935E0490935F0409
:1035100080915A0490915B04209117053091180511
:103520001C01221A330A910150E040E02D8B3E8BA2
:103530004F8B588F90931805809317058091130532
:1035400090911405A0911505B0911605FC01EE0FA0
:10355000FF1FEE0FFF1FED51FB4F2083318342838E
:103560005383BC01CD016F5F7F4F8F4F9F4F2CE086
:1035700030E040E050E00E941930609313057093F2
:1035800014058093150590931605E3EEF4E023E10E
:1035900035E060E070E0CB01C190D190E190F19016
:1035A0006C0D7D1D8E1D9F1D2E173F07A9F70E94D4
:1035B00008326B017C0122EB35EC4CEF55E30E94A5
:1035C0002D339B01AC0160E070E080E89FE30E9436
:1035D00077309B01AC01C701B6010E9460310E94A7
:1035E000D9316D877E878F87988B8091DF0490918A
:1035F000E004A091E104B091E2042D893E894F8955
:10360000588D820F931FA41FB51F8093DF049093E2
:10361000E004A093E104B093E2048091DB04909174
:10362000DC04A091DD04B091DE040596A11DB11D5E
:103630008093DB049093DC04A093DD04B093DE045C
:103640008091D7049091D804A091D904B091DA0464
:103650002D853E854F85588982179307A407B507A6
:1036600040F42093D7043093D8044093D904509366
:10367000DA048091E9069091EA06A091EB06B091F8
:10368000EC062D893E894F89588D820F931FA41F08
:10369000B51F8093E9069093EA06A093EB06B093DA
:1036A000EC066091ED067091EE068091EF06909128
:1036B000F0066B5F7F4F8F4F9F4F6093ED067093C7
:1036C000EE068093EF069093F00620E13EE040E0A6
:1036D00050E00E941930672B682B692B21F489EE8A
:1036E00096E00E94AB0F8091D5049091D6048C3067
:1036F00091050CF0B9C326E520930601019690933D
:10370000D6048093D5048091D4048111E9C38091BB
:103710000501813409F0E4C38DED97E09E838D832C
:103720001C861B861A86198618861F82DE01119652
:103730005D01FE0137966F019E01285F3F4F7901C1
:103740008E01075F1F4F2E5F3F4FAE01455F5F4FFA
:10375000BE01645F7F4FCE0105960E9405098981F5
:103760009A81AB81BC818F3F9F4FAF4FBF4F09F410
:10377000B7C38B851F928F938C851F928F938091F7
:1037800008078F93809107078F9386E494E09F93B7
:103790008F9387EC94E09F938F930E94D02A81E0CF
:1037A0008093D4048BEB97E00E94E70E0FB6F89459
:1037B000DEBF0FBECDBF69EA73E08BEB97E00E94DE
:1037C000371067EC74E08BEB97E00E9437106DE0E8
:1037D0008BEB97E00E940E0E80E00E94A30E8111F9
:1037E00051C360E084E00E94690564E670E080E017
:1037F00090E00E94C70861E084E00E94690581E0D2
:103800000E94A30ED8CF1092430510924205109249
:10381000B9051092DB050E94B50581EE94E0909306
:1038200066058093650582EE94E090936A05809327
:1038300069056CCC61E070E056CD81E08093F506BF
:1038400060E082E10E94690517CE1A3209F426C2AF
:103850001C3209F0F5C280919B07812780939B075A
:103860001DC22156263018F48755910931C2C097E0
:103870002FC29156963018F42755310938C220537B
:10388000310935C280916B0790916C07A0916D074B
:10389000B0916E078093670790936807A0936907BC
:1038A000B0936A0780914B0790914C07A0914D0708
:1038B000B0914E078093470790934807A09349071C
:1038C000B0934A0780915B0790915C07A0915D07D8
:1038D000B0915E078093570790935807A0935907BC
:1038E000B0935A078091630790916407A091650790
:1038F000B091660780935F0790936007A09361077C
:10390000B09362078091890790918A079093880706
:10391000809387078091830790918407A091850702
:10392000B091860780937F0790938007A0938107CB
:10393000B093820777C280914B0790914C07A0917A
:103940004D07B0914E070097A105B10509F46AC271
:1039500040918F0750919007609191077091920765
:1039600040938B0750938C0760938D0770938E075D
:103970002091AC072223E1F0213009F053C280935B
:10398000470790934807A0934907B0934A0780914F
:10399000530790915407A0915507B0915607809313
:1039A0004F0790935007A0935107B09352073AC224
:1039B0008093470790934807A0934907B0934A071D
:1039C00031C28091B7079091B80701969093B807DC
:1039D0008093B70727C291111FC04DE957E0EDE969
:1039E000F3E09A01D9018D919D01882311F40C9483
:1039F0006E2A91918917B1F3E3EAF3E0DA018D9130
:103A0000AD01882311F40C94722A91918917B1F3B6
:103A100042E04093AC0706C2E091AC07E23009F403
:103A200001C280919D07882309F4FCC1B0E2EB9F9D
:103A3000F0011124E92B3197E932F10508F0F2C1C8
:103A4000EC5DF24E0C943B304D1D681D841D9F1D96
:103A5000B11DEF1DF61D001E0B1E121F121F121F9F
:103A6000121F121F121F121F121F121F121F121FCE
:103A7000121F121F121F121F121F121F121F121FBE
:103A8000121F121F121F121F4D1D621D681D841D63
:103A90009F1DB11DCC1DD71DE21D0E9458036093D0
:103AA0004B0770934C0780934D0790934E070E94ED
:103AB000F90860938F077093900780939107909314
:103AC0009207B0C191E0813409F48DC090E08BC0C1
:103AD0008091B0078823A9F00E942E0460935B07B1
:103AE00070935C0780935D0790935E070E94F908CE
:103AF00060939707709398078093990790939A071C
:103B000091C10E94AD03EACF833509F08BC180914A
:103B10005B0790915C07A0915D07B0915E07B0953F
:103B2000A095909581959F4FAF4FBF4F80935B07B6
:103B300090935C07A0935D07B0935E0773C180917B
:103B4000B007882359F00E942E0460936307709396
:103B50006407809365079093660764C10E94AD0374
:103B6000F4CF873509F05EC18091630790916407B7
:103B7000A0916507B0916607B095A0959095819545
:103B80009F4FAF4FBF4F8093630790936407A093FD
:103B90006507B093660746C10E9458036093730798
:103BA0007093740780937507909376073BC10E94CA
:103BB000580360937B0770937C0780937D079093F5
:103BC0007E0730C18DE997E00E943203609353076E
:103BD00070935407809355079093560723C191E043
:103BE00081330CF473CF9093AF071CC18DE997E03C
:103BF0000E94AA2A992790938A078093890712C165
:103C00000E9458036093830770938407809385070D
:103C10009093860707C10E94580360936B077093C7
:103C20006C0780936D0790936E07FCC01092AE07EF
:103C30001092AD0710929B07E2E0E093AC07109260
:103C40009C071092AF0788E297E00E946A0E892BCA
:103C500009F431CC88E297E00E94820E182F8091FF
:103C6000B1079091B207A091B307B091B407019644
:103C7000A11DB11D8093B1079093B207A093B30724
:103C8000B093B407143291F2E091AE0715320CF004
:103C9000DCCD1A3019F01D3009F0D2C0EF3008F039
:103CA000C1C09091AD07F0E0E356F84F10828091CB
:103CB0009C07882309F48FCE20919D07822F022E26
:103CC000000C990B3FEB320F363008F0CACDC79786
:103CD0008295807F90919E07292F092E000C330B2F
:103CE0004FEB490F463008F0C4CD27533109820FFE
:103CF00090919B07891365CE8091AF07882309F4C3
:103D00001ACE8091B5079091B60701969093B607A9
:103D10008093B50780918F0790919007A0919107AC
:103D2000B091920780938B0790938C07A0938D0797
:103D3000B0938E078091970790919807A09199076B
:103D4000B0919A078093930790939407A093950757
:103D5000B09396078091AC07882309F493CD813006
:103D600009F060C080914B0790914C07A0914D07DE
:103D7000B0914E078093470790934807A093490757
:103D8000B0934A078091530790915407A09155072B
:103D9000B091560780934F0790935007A093510717
:103DA000B093520780915B0790915C07A0915D07EB
:103DB000B0915E078093570790935807A0935907D7
:103DC000B0935A078091630790916407A0916507AB
:103DD000B091660780935F0790936007A093610797
:103DE000B09362078091730790917407A091750753
:103DF000B091760780936F0790937007A093710737
:103E0000B093720780917B0790917C07A0917D070A
:103E1000B0917E078093770790937807A0937907F6
:103E2000B0937A078091AD078F5F8093AD071092B2
:103E3000AE0781E01A3209F080E080939C0703CF3F
:103E4000EE3040F481E08E0F8093AE07F0E0E35651
:103E5000F84F108380919C078111F5CE80919B07CC
:103E6000182710939B07EFCE8D859E85AF85B88967
:103E7000892B8A2B8B2B21F486E58093060143CC7A
:103E800081E4FBCF8EE995E09F938F9307EA14E0DE
:103E90001F930F930E94D02AB8018BEB97E00E94EA
:103EA000371088E995E09F938F931F930F930E949B
:103EB000D02AB8018BEB97E00E94371084E895E098
:103EC0009F938F931F930F930E94D02AB8018BEB7F
:103ED00097E00E9437100FB6F894DEBF0FBECDBF3B
:103EE000E5E8F6E084E6DF011D928A95E9F78DEDBD
:103EF00097E09E838D831C861B861A8619861886FA
:103F00001F828CE0EBE9F4E0DF01282F1D922A9557
:103F1000E9F7EFE8F4E0DF011D928A95E9F7E7EAB7
:103F2000F4E080E2DF011D928A95E9F7FE01319607
:103F30005F019E01295F3F4F6901AE01485F5F4FFE
:103F40007A018E01075F1F4F2D5F3F4F4D5F5F4F1F
:103F5000BE01645F7F4FCE0105960E9405098981ED
:103F60009A81AB81BC818F3F9F4FAF4FBF4F51F4C0
:103F70008CED97E09E838D831C861B861A8619869E
:103F800018861F828090570790905807A090590775
:103F9000B0905A0740905F075090600760906107AB
:103FA000709062078091930790919407A091950774
:103FB000B09196078F3F6FEF9607A607B60781F07F
:103FC0000E94F9080091930710919407209195079A
:103FD00030919607DC01CB01801B910BA20BB30B38
:103FE00089839A83AB83BC838091AF078111B1C170
:103FF00086E580930501609167077091680780915D
:10400000690790916A076F3FA9EC7A07AAE98A07C6
:10401000ABE39A0709F49FC10E940A3220E030E026
:1040200048EC52E40E9460316BA77CA78DA79EA745
:1040300060916F077091700780917107909172077E
:10404000C12CD12C30E8E32E3FEBF32E6F3F29EC4F
:1040500072072AE982072BE39207E1F00E940832F7
:1040600020E030E048EC52E40E9460316B017C01BA
:1040700020E030E040E85FEB0E945631882351F0A9
:1040800026E53EE04DEE5FE3C701B6010E942D3309
:104090006B017C0140918707509188075E8F4D8F9F
:1040A00080917F0790918007A0918107B09182074E
:1040B000898B9A8BAB8BBC8BB7FE55C1B094A09407
:1040C00090948094811C911CA11CB11C93E59BA32E
:1040D00077FE4CC17094609450944094411C511CE4
:1040E000611C711CB7E5BF8FB401C501FFEF8F16CE
:1040F000F9EC9F06FAE9AF06FBE3BF0621F460E0A6
:1041000070E080E090E020EA36E841E050E00E9474
:104110001930122F032F498F5FA32AE030E040E0CF
:1041200050E00E9419305F934F933F932F932FA13C
:104130002F93398D3F930F931F938FE794E09F93B5
:104140008F938BE994E09F938F930E94D02A0FB6B0
:10415000F894DEBF0FBECDBFB201C3015FEF4516BD
:1041600059EC55065AE965065BE3750621F460E0F3
:1041700070E080E090E020EA36E841E050E00E9404
:104180001930122F032F498F5FA32AE030E040E05F
:1041900050E00E9419305F934F933F932F936FA18C
:1041A0006F93898D8F930F931F9383E794E09F9371
:1041B0008F938FE894E09F938F930E94D02A0FB63D
:1041C000F894DEBF0FBECDBF20E034E244E759E4EF
:1041D0006BA57CA58DA59EA50E945631882309F468
:1041E000C8C0FBA5ECA55DA53EA507EA14E022E04A
:1041F00040E06F2F7E2F852F932F0E948C2AE5E8B9
:10420000F6E084E6DF011D928A95E9F729893A896B
:104210004B895C892F3F3F4F4F4F5F4F21F4198AE5
:104220001A8A1B8A1C8A8D8D9E8D8F3F910509F4F9
:10423000A5C08D8D9E8DAC89AF93BB89BF93EA8954
:10424000EF93F989FF939F938F9380910501282F16
:10425000082E000C330B3F938F9387EA94E09F93D3
:104260008F931F922F8D2F938FE894E09F938F93BE
:104270001F923BA13F938BE994E09F938F93809192
:104280000601282F082E000C330B3F938F9380914B
:10429000E2048F938091E1048F938091E0048F93E7
:1042A0008091DF048F931F921F924E894F935D89F7
:1042B0005F9368896F938F858F939E859F93AD855C
:1042C000AF9388851F928F9389851F928F938A85DC
:1042D0001F928F938B851F928F938C851F928F9344
:1042E0008E818F938D818F93809108078F9380911A
:1042F00007078F9381EB93E09F938F9384E395E07F
:104300009F938F9305E816E01F930F930E94D02A86
:10431000F80101900020E9F78F0106581640112797
:10432000F801EB57F94F1082809186060FB6F8948A
:10433000DEBF0FBECDBFA5E8B6E011969D012558A2
:10434000364020173107ECF411969C91119789277C
:10435000F4CF81E44ECE1BA6B4E2BCA7E4E7EDA700
:10436000F9E4FEA765CEAEE4ABA3B2CEE5E4EF8FF1
:10437000BBCEF0E0E0E050E030E037CF80E090E00E
:104380005ACF803108F08FC21F928F938FE295E051
:104390009F938F93FF93EF930E94D02A0F900F90DB
:1043A0000F900F900F900F908091AF07882309F422
:1043B000ADC0C501B4010E94083220E836E948E1E9
:1043C0005BE40E946031698B7A8B8B8B9C8B0E94A3
:1043D000D231072E000C880B990B0E940A324B0138
:1043E0005C01AC019B0169897A898B899C890E9457
:1043F000773020E030E040E752E40E94603120E076
:1044000030E048EC52E40E942D339B01AC01C50121
:10441000B4010E9478306D8B7E8B8F8B988FC30197
:10442000B2010E94083220E836E948E15BE40E94CC
:1044300060312B013C010E94D231072E000C880B09
:10444000990B0E940A324B015C01AC019B01C30134
:10445000B2010E94773020E030E040E752E40E9451
:10446000603120E030E048EC52E40E942D339B01A3
:10447000AC01C501B4010E947830698B7A8B8B8BBB
:104480009C8B20E030E040EA50E4C701B6010E9476
:10449000203309E110E0181614F405E010E020E0E4
:1044A00030E040E251E4C701B6010E942033181603
:1044B00014F40AE010E020E030E040E751E4C701E6
:1044C000B6010E942033181614F404E110E0809124
:1044D0000401882309F4ECC18D899E89AF89B88DC8
:1044E00080938B0490938C04A0938D04B0938E04DE
:1044F00029893A894B895C89209387043093880401
:104500004093890450938A0410920401E8E0F1E09A
:1045100080E092E0DF019C011D9221503040E1F7E4
:104520008091F506811150C48090DB049090DC04EA
:10453000A090DD04B090DE04C501B40120E13EE0AE
:1045400040E050E00E9419306901C501B4012CE33C
:1045500030E040E050E00E9419306CE36C9DC001F7
:104560006D9D900D1124281B390B3F932F93DF92E3
:10457000CF9280E295E09F938F9387EA94E09F9398
:104580008F930E94D02A8CE590E09093E707809368
:10459000E60788E190E09093E9078093E80781E0DF
:1045A0008093EE0781E090E09093EB078093EA0719
:1045B0009093ED078093EC0767EA74E08AED97E04B
:1045C0000E942310109106010FB6F894DEBF0FBEB3
:1045D000CDBF113449F48091AF07882329F0809131
:1045E000820461E0811101C060E082E10E946905FE
:1045F0001092E7071092E6071092E9071092E80779
:1046000052E05093EE07163509F049C21092EB07BD
:104610001092EA0781E090E09093ED078093EC0719
:10462000E0E6F4E080E2DF011D928A95E9F78091EF
:10463000120790911307B0E0A0E02D853E854F85CD
:10464000588982179307A407B50708F02FC2910174
:10465000ACE0B0E00E9441306B017C01C701B601C3
:104660000E94083230E1C31637E2D306E104F104B8
:1046700008F421C220E030E04AE754E40E946031AF
:1046800007EA14E023E044E00E948C2A43E050E073
:10469000B80180E694E00E942C34E0E6F4E001905A
:1046A0000020E9F7329780818E3209F4108260E6AB
:1046B00074E08AED97E00E9437108EE694E09F93B5
:1046C0008F9387EA94E09F938F930E94D02A67EAA2
:1046D00074E08AED97E00E9437100F900F900F90D2
:1046E0000F9081E090E09093EB078093EA0790931E
:1046F000ED078093EC078093EE078091AF0781115F
:10470000F0C18CE590E09093E7078093E60788E09E
:1047100090E09093E9078093E8071092EB071092DE
:10472000EA0789E195E09F938F9387EA94E09F934E
:104730008F930E94D02A67EA74E08AED97E00E9486
:1047400023100F900F900F900F9081E090E09093C6
:10475000EB078093EA079093ED078093EC071092A4
:10476000E7071092E60780E190E09093E9078093D5
:10477000E8078091F6068111EDC1C0900A07D0903C
:104780000B07E0900C07F0900D07809112079091B5
:104790001307B0E0A0E02D853E854F85588982172C
:1047A0009307A407B50708F0CEC1B10190E080E0FF
:1047B0000E94083220E030E040E451E40E942D33B2
:1047C000A70196010E94603107EA14E023E040E06F
:1047D0000E948C2A67EA74E08AED97E00E94371005
:1047E00080E195E09F938F9387EA94E09F938F9366
:1047F0000E94D02A67EA74E08AED97E00E942310B5
:104800000F900F900F900F908091800490918104F1
:10481000892B09F4C8C1609183047091840480914C
:104820008504909186040E94083220E030E04AE737
:1048300054E40E94603107EA14E021E040E00E9465
:104840008C2AD8010D900020E9F7CD01885A9440B8
:1048500046E0489F9001499F300D112484E790E085
:10486000821B930B9093E7078093E60780E190E02B
:104870009093E9078093E807B8018AED97E00E94DA
:10488000371086E095E09F938F931F930F930E94BC
:10489000D02AB8018AED97E00E9423100F900F9064
:1048A0000F900F90B8C11F928F938BE295E070CD5F
:1048B00020918704309188044091890450918A04A2
:1048C00069897A898B899C890E94773025E33AEF40
:1048D0004EE85CE30E942D336B017C010E949A3309
:1048E0006FA378A789A79AA7C701B6010E945B3179
:1048F0006F8F78A389A39AA325E33AEF4EE85CE390
:104900006D897E898F89988D0E942D334B015C01C2
:1049100025E33AEF4EE85CE360918B0470918C04E0
:1049200080918D0490918E040E942D336B017C0147
:10493000C501B4010E949A336BA37CA38DA39EA3EF
:10494000C501B4010E945B314B015C01C701B60196
:104950000E949A33698F7A8F8B8F9C8FC701B60123
:104960000E945B316B017C01298D3A8D4B8D5C8DF2
:10497000C501B4010E942D332B013C01A701960112
:104980006BA17CA18DA19EA10E942D332F8D38A1FA
:1049900049A15AA10E942D339B01AC01C301B20170
:1049A0000E9477309B01AC010E942D332B013C010A
:1049B000A70196016FA178A589A59AA50E942D331C
:1049C0009B01AC010E942D33A30192010E9478301B
:1049D0000E94A8332B013C01A7019601C501B40137
:1049E0000E942D332F8D38A149A15AA10E942D3349
:1049F0006B017C01298D3A8D4B8D5C8D6BA17CA167
:104A00008DA19EA10E942D339B01AC01C701B6016F
:104A10000E9478309B01AC01C301B2010E94F730C3
:104A200026E73BE742EC5AE40E942D330E94D23144
:104A3000012E000C220B330B061717072807390726
:104A400008F064CD009183041091840420918504C2
:104A500030918604060F171F281F391F0093830407
:104A60001093840420938504309386048D899E8955
:104A7000AF89B88D80938B0490938C04A0938D04A0
:104A8000B0938E0429893A894B895C8920938704E5
:104A9000309388044093890450938A0437CD81E091
:104AA00090E09093EB078093EA07B6CDCD84DE8447
:104AB000EF84F888D3CD07EA14E020E040E00E94BC
:104AC0008C2AB8018AED97E00E94371089E694E0BD
:104AD0009F938F93C8019F930F930E94D02AB80190
:104AE000F8CD8EE690E09093E7078093E60788E0A4
:104AF00090E09093E9078093E8074E8D4F935D8D8A
:104B00005F9387EB93E09F938F9307EA14E01F93E3
:104B10000F930E943B34B8018AED97E00E94371052
:104B200087E195E09F938F931F930F930E94D02A64
:104B3000B8018AED97E00E9423100FB6F894DEBF0B
:104B40000FBECDBF02CE6D857E858F8598890E9470
:104B5000083236CE813009F057CE6D857E858F853F
:104B600098890E94083220910E0730910F074091DA
:104B70001007509111070E942D3307EA14E023E03B
:104B800040E00E948C2AB8018AED97E00E9437101D
:104B900089E095E09F938F93C8019F930F930E94A4
:104BA000D02AB80129CE8091AF07882309F4FDC02F
:104BB00007EA14E020E040E06BA57CA58DA59EA54A
:104BC0000E948C2A87EA94E0FC0101900020E9F71A
:104BD000CF01885A944046E0489F9001499F300D8C
:104BE00011248AE790E0821B930B9093E707809350
:104BF000E60780E190E09093E9078093E80767EA91
:104C000074E08AED97E00E94371067E773E08AED61
:104C100097E00E94231080918204882309F4EDC359
:104C200088851F928F9389851F928F938A851F9203
:104C30008F938C851F928F938B851F928F938DEA14
:104C400094E09F938F9387EA94E09F938F930E94C1
:104C5000D02A1092E7071092E60788E190E090933F
:104C6000E9078093E80781E08093EE0781E090E018
:104C70009093EB078093EA079093ED078093EC07FE
:104C800067EA74E08AED97E00E9423100FB6F8946B
:104C9000DEBF0FBECDBF0E94B00620E030E040EF87
:104CA00051E40E9477300E94D2316930710514F0CE
:104CB00068E070E06B0177FF02C0D12CC12C20911D
:104CC000F5068091120790911307213009F0D4C3A3
:104CD0002CE530E03093E7072093E60728E130E049
:104CE0003093E9072093E807B0E0A0E02D853E85EA
:104CF0004F8558896BE573E082179307A407B507C2
:104D000010F06EE573E08AED97E00E943710EE2414
:104D1000E394F12C07E010E02CE030E048E150E0B3
:104D200064E770E08AED97E00E94F80C03E010E081
:104D300096014AE150E066E770E08AED97E00E9454
:104D4000960C0E942108809180049091810431E0AA
:104D50008327909381048093800465E876E088EE51
:104D600095E00E9423108091D404882371F08091F3
:104D7000F50681110AC08BEB97E00E94E70E65E80B
:104D800076E08BEB97E00E94231080E090E0892B87
:104D900011F40C94331A0E944F0A882311F40C94D6
:104DA000331A0E9400000C94331A83E095E09F931D
:104DB0008F9387EA94E09F938F930E94D02A0F905D
:104DC0000F900F900F90FECE813009F0F4C260E09A
:104DD00082E10E9469058091120790911307B0E06B
:104DE000A0E02D853E854F85588961E082179307A5
:104DF000A407B50708F060E082E10E9469051092FF
:104E0000E7071092E6071092E9071092E80732E0F0
:104E10003093EE0780910601863509F0B9C01092F3
:104E2000EB071092EA0781E090E09093ED07809302
:104E3000EC07E0E6F4E080E2DF011D928A95E9F7F5
:104E40008091120790911307B0E0A0E02D853E8578
:104E50004F85588982179307A407B50708F09FC0AC
:104E60009101ACE0B0E00E9441300E9408322091F4
:104E70000A0730910B0740910C0750910D070E94D3
:104E800060316B017C0120E030E04AE754E40E948D
:104E9000203387FD89C020E030E04AE754E4C701B1
:104EA000B6010E94603107EA14E022E044E00E946B
:104EB0008C2A45E050E0B80180E694E00E942C3452
:104EC000E0E6F4E001900020E9F7329780818E322D
:104ED00009F4108260E674E08AED97E00E943710D2
:104EE00083E694E09F938F9387EA94E09F938F9358
:104EF0000E94D02A67EA74E08AED97E00E9437109A
:104F00000F900F900F900F90E0E6F4E080E2DF0149
:104F10001D928A95E9F71092E7071092E60780E163
:104F200090E09093E9078093E80781E08093EE0793
:104F300081E090E09093EB078093EA079093ED0770
:104F40008093EC078091800490918104892B09F46F
:104F50007FC10E94B00620E030E040EF51E40E94A3
:104F600077300E94D231161617060CF469C01092E1
:104F7000EB071092EA0781E090E09093ED078093B1
:104F8000EC076BEB73E08AED97E00E94371043CE9D
:104F900081E090E09093EB078093EA0746CF6D8520
:104FA0007E858F85988961CF20E030E040E251E432
:104FB000C701B6010E94203307EA14E087FD20C034
:104FC00022E044E0C701B6010E948C2A45E050E08F
:104FD000B80180E694E00E942C34E0E6F4E0019011
:104FE0000020E9F7329780818E3209F4108260E662
:104FF00074E08AED97E00E9437108DE594E072CF5F
:1050000023E044E0C701B6010E948C2A46E050E04C
:10501000B80180E694E00E942C34E0E6F4E00190D0
:105020000020E9F7329780818E3209F4108260E621
:1050300074E08AED97E00E94371087E594E052CF44
:1050400080911207909113072D853E854F855889D1
:10505000B0E0A0E0293E63E036074105510508F4C1
:1050600095C082179307A407B50708F088C0B1015F
:1050700090E080E00E94083220E030E040E451E41B
:105080000E942D3320E030E04AE754E40E94603172
:1050900007EA14E021E040E00E948C2A44E050E05E
:1050A00067EA74E080E694E00E942C34E0E6F4E0E5
:1050B00001900020E9F7329780818E3209F4108246
:1050C00060E674E08AED97E00E9437108DEF94E07F
:1050D0009F938F9387EA94E09F938F930E94D02AA7
:1050E00067EA74E08AED97E00E9437100F900F9006
:1050F0000F900F906D857E858F8598890E9408326C
:1051000020910E0730910F07409110075091110721
:105110000E942D336B017C0120E034E244E759E426
:105120000E94203318160CF05BC020E034E244E704
:1051300059E4C701B6010E94603107EA14E021E09A
:1051400040E00E948C2A45E050E0B80180E694E0FF
:105150000E942C3460E674E08AED97E00E943710DC
:1051600081EF94E09F938F93C8019F930F930E94C8
:10517000D02AB8018AED97E00E9437108FCB6D8559
:105180007E858F8598890E9408327CCF2D853E854B
:105190004F85588982179307A407B507D0F4B1014A
:1051A00090E080E00E94083220E030E040E451E4EA
:1051B0000E942D3307EA14E020E040E00E948C2A90
:1051C00067EA74E08AED97E00E94371088EF94E078
:1051D0007FCF6D857E858F8598890E940832EACFC2
:1051E00020E030E44CE156E4C701B6010E942033D0
:1051F0001816F4F420E030E04AE754E4C701B601A1
:105200000E94603107EA14E020E040E00E948C2A0E
:1052100045E050E0B80180E694E00E942C3460E65E
:1052200074E08AED97E00E9437108AEE94E09ACFFE
:1052300007EA14E020E040E0C701B6010E948C2A92
:10524000B8018AED97E00E94371084EE94E08ACF8F
:105250000E94B00620E030E040EF51E40E94773039
:105260000E94D231161617060CF081CE80EE94E023
:105270009F938F9327EAE22E24E0F22EFF92EF9283
:105280000E94D02AB7018AED97E00E943710609102
:10529000D7047091D8048091D9049091DA040E94C7
:1052A000083220910A0730910B0740910C0750916A
:1052B0000D070E946031870121E040E00E948C2AA6
:1052C000B7018AED97E00E9437108AED94E09F9332
:1052D0008F93FF92EF920E94D02AB7018AED97E058
:1052E0000E94371086ED94E09F938F93FF92EF9288
:1052F0000E94D02AB7018AED97E00E943710609192
:10530000ED067091EE068091EF069091F0060E94F6
:1053100008324B015C016091E9067091EA068091C8
:10532000EB069091EC060E9408322B013C0120E034
:1053300030E040E752E4C501B4010E9460319B01B6
:10534000AC01C301B2010E94603120910A07309183
:105350000B0740910C0750910D070E9460312B0103
:105360003C0120E030E041E655E4C501B4010E9473
:1053700060319B01AC01C301B2010E942D3320E0DA
:1053800040E00E948C2AB7018AED97E00E94371016
:1053900083ED94E09F938F93FF92EF920E94D02A27
:1053A000B7018AED97E00E9437100FB6F894DEBF80
:1053B0000FBECDBF30CC1092E7071092E6071092D7
:1053C000E9071092E80752E05093EE071092EB07BE
:1053D0001092EA0781E090E09093ED078093EC074C
:1053E00086EC94E09F938F9387EA94E09F938F934A
:1053F0000E94D02A67EA74E0BDCE1092E7071092AF
:10540000E60788E190E09093E9078093E80781E060
:105410008093EE071092EB071092EA0781E090E08C
:105420009093ED078093EC0787E994E09F938F9327
:1054300087EA94E09F938F930E94D02A67EA74E0F2
:105440008AED97E00E94371060E082E10E946905D2
:10545000E5E8F6E084E6DF011D928A95E9F78BE83E
:1054600094E09F938F93FF93EF930E94D02A65E877
:1054700076E088E297E008CC2CE530E03093E7074F
:105480002093E6071092E9071092E807B0E0A0E049
:105490002D853E854F8558896BE573E0821793070C
:1054A000A407B50710F06EE573E08AED97E00E945F
:1054B0003710EE24E394F12C07E010E02CE030E00C
:1054C00050E040E064E770E08AED97E00E94F80C5D
:1054D00003E010E0960142E050E02DCC0093AC07D1
:1054E0000C94121F1092AC070C94121FCF93DF93F1
:1054F000CCE0D3E0D0932907C093280788E297E057
:105500000E94D10ED093BC07C093BB078BEB97E0F2
:10551000DF91CF910C94D10EEF920F931F93CF9305
:10552000DF93E80134E047FD34E1042E000C550B15
:1055300057FF03C0519541955109E32E022F242FA7
:10554000AE010E94CD2CCE01DF91CF911F910F9122
:10555000EF900895FC0188279927E8942191203243
:10556000E9F3293010F02E30C8F32B3241F02D3200
:1055700039F4689404C00E94C82A820F911D2191B9
:1055800020532A30C0F31EF4909581959F4F0895C3
:105590007AE0979F902D879F802D910D112408957B
:1055A000AEE0B0E0E6EDFAE20C94CC2F0D891E8956
:1055B0008EE08C831A8309838FEF9FE79E838D8310
:1055C000AE01475E5F4F6F89788DCE0101960E94D4
:1055D000F32A2F813885020F131FF80110822E96AF
:1055E000E4E00C94E82FABE0B0E0E9EFFAE20C94D1
:1055F000BE2F7C013B018A01FC0117821682838148
:1056000081FFC8C1CE0101965C01F7019381F301CE
:1056100093FD859193FF81913F01882309F453C144
:10562000853239F493FD859193FF81913F01853255
:1056300029F4B70190E00E941A2FE7CF912C212C7A
:10564000312CFFE1F31538F08B3211F190F48032F8
:1056500009F1833229F137FC3CC020ED280F2A30B4
:1056600050F536FE20C08AE0989E200D1124922E1F
:1056700006C08D3291F0803371F7689430F8F301F1
:1056800093FD859193FF81913F018111DACF21C074
:10569000689431F8689432F8F2CF689433F8EFCF19
:1056A000689434F8ECCFEAE02E9E200D1124222ECF
:1056B000689435F8E4CF8E3229F436FC04C168943E
:1056C00036F8DDCF8C3619F4689437F8D8CF8836A1
:1056D000B1F2982F9F7D95549330E0F08336A1F17D
:1056E0008337C1F1833509F063C02801F2E04F0E22
:1056F000511CF801C080D180692D70E036FC02C0D9
:105700006FEF7FEFC6010E94042F4C01689437F8B9
:1057100082010AC00C5F1F4FFFE3F9838824839442
:10572000912C6501E89437F833FE2DC0522C81147A
:10573000910471F5552009F468CFB70180E290E03B
:105740000E941A2F5A94F6CFF801808189830E5F48
:105750001F4FE4CF2801F2E04F0E511CF801C0802A
:10576000D180692D70E036FC02C06FEF7FEFC6017B
:105770000E940F2F4C018201D5CFB70180E290E04B
:105780000E941A2F2A942814190409F0B0F7CECFDA
:10579000F60137FC859137FE81916F01B70190E0EA
:1057A0000E941A2F51105A94F1E08F1A9108BFCF1E
:1057B000843619F0893609F077C0F80137FE6BC0DE
:1057C00060817181828193810C5F1F4FF32DFF7681
:1057D0003F2E97FF09C090958095709561957F4FFA
:1057E0008F4F9F4F689437F82AE030E0A5010E9460
:1057F0004A2FC82ECA188C2C432C36FE0CC0E894B5
:1058000040F8C91440F434FE05C032FC03C0F32D47
:10581000FE7E4F2E892C44FE95C0FE01EC0DF11D3D
:105820008081803309F087C0242D297E422E842D6B
:105830008870582E43FC95C040FE8FC09C2C82146B
:1058400018F42C0C922C981844FE91C0B70180E3F8
:1058500090E00E941A2F42FE09C088E790E041FEC6
:1058600002C088E590E0B7010E941A2FC91408F41D
:105870008AC0CA94D12C9FEFC91AD90ACA0CDB1C62
:10588000F60182916F01B70190E00E941A2FAC14CB
:10589000BD04B1F74FCF60817181072E000C880BDA
:1058A000990B0E5F1F4F92CFD32CE894D4F82AE0C7
:1058B00030E0853739F1232D297FD22E8F3601F143
:1058C00048F48835A9F0F701868197812B96E2E1AB
:1058D0000C94DA2F803749F08837A9F7D4FE02C03C
:1058E0006894D2F820E130E00DC06894D4F8F6CF87
:1058F00034FE03C0822F8660D82E20E132E002C041
:1059000028E030E0F801D7FE0FC06081718182810C
:1059100093810C5F1F4FA5010E944A2FC82ECA1801
:105920003D2CE89437F867CF6081718190E080E08A
:105930000E5F1F4FF0CF42FC02C0839478CF839458
:10594000839475CF842D867809F471CFF6CFB70193
:1059500080E290E00E941A2F83948214C0F3512CAD
:1059600073CF522C5818821408F46ECFF8CF842DC0
:10597000867809F47BCF8BE241FE80E247FC8DE222
:10598000B70190E071CFB70180E390E00E941A2F39
:105990009A946CCF8FEF9FEF99CFA9E0B0E0E3ED41
:1059A000FCE20C94C42F6A01F22EB02E102FFBE300
:1059B000AF2EA01608F41BE31F5F012F27E0AE01F6
:1059C0004F5F5F4F0E942C2EBC018981982F9970E8
:1059D000913009F43FC09BE2E1FC04C09E2D917020
:1059E000E0FC3AC05E2D5071E82FE87083FF46C09E
:1059F00084E0911101C083E0EF2DE81B8F1508F0C2
:105A0000E0E0D6018E2F20E2552351F1992329F0B1
:105A1000D6019C93C60101966C0196012D5F3F4F04
:105A2000E2FE24C08EE4D6018C9391E411969C93FF
:105A3000119712968C93D9018E2F90E281111BC081
:105A4000E20FF32FF11D10828EEF9FEF2996ECE00D
:105A50000C94E02F9DE2C6CF90E2C4CF2D938150ED
:105A60008111FCCFCE0ED11CE0E0D0CF8EE6D60166
:105A70008C9391E6DBCF9D938150E0CF482F44700B
:105A800082FF3DC084E0911101C083E08F1510F4C6
:105A9000EF2DE81BD6018E2F20E2552309F1992323
:105AA00029F0D6019C93C60101966C0196012D5FE9
:105AB0003F4FE2FE1BC089E4D6018C938EE4119621
:105AC0008C93119786E412968C93D9018E2F90E2D5
:105AD000882309F4B5CF9D938150FACF2D9381503F
